:0400000080314228E1
:100008007E14803100308600003087004E018C1E3F
:1000180040288C1201304501B4070030B53DB63D8B
:10002800B73D01304401B6070A303602031C4028A8
:10003800B60140018D1A26286F0A03192E280130AF
:10004800EF072E286F0803192E286F084401C500F2
:100058004001EF018F18372843016E0A0319402821
:100068000130EE07402843016E08031940286E0846
:100078004401C4004301EE017E1009008031442888
:10008800003084009030850044011200E80012001E
:10009800E9001200EA001200EB001200EC00120066
:1000A800ED001200EE00F0308400283085000030AA
:1000B800FE000730FF00B331372380314001EF01E4
:1000C8004301ED01EE0120308400023085003D300F
:1000D800FE000030FF00B33137238031A0308400A8
:1000E800023085005030FE000030FF00B331372366
:1000F800803120308400033085004830FE00003015
:10010800FF00B33137238031A030840003308500ED
:100118001E30FE000030FF00B33137237E1040014F
:100128008331BB2B0130B7000030B8000030B90074
:100138000030BA003508BB003608BC00BD01BE015E
:100148002F08BF003008C000C101C2013F08BB072B
:100158004008BC3D4108BD3D4208BE3D3B08B707CD
:100168003C08B83D3D08B93D3E08BA3D0130BA36B5
:10017800B90CB80CB70C890BBB282D0886002E08C3
:1001880087003708C03F3808C13F0130B70000304A
:10019800B8000030B9000030BA003308BB0034089A
:1001A800BC00BD01BE013108BF003208C000C1015A
:1001B800C2013F08BB074008BC3D4108BD3D42089D
:1001C800BE3D3B08B7073C08B83D3D08B93D3E0871
:1001D800BA3D0130BA36B90CB80CB70C890BEE2809
:1001E8002D088600870142313708C03F3808C13FD3
:1001F8002D0886002E088700403FB700413FB80011
:100208003708F0003808F100F201F301450127082A
:100218004001B900BA01BB01BC013C08F7003B082A
:10022800F6003A08F5003908F400B7319F27803105
:1002380073084001D3007208D2007108D100700819
:10024800D0002D0886002E088700403FB700413FA8
:10025800B8003708F4003808F500F601F7012D0852
:1002680086002E088700403FB900413FBA00390890
:10027800F0003A08F100F201F301B7319F2780310D
:1002880070084001BB007108BC007208BD0073080B
:10029800BE000630BE36BD0CBC0CBB0C890B4E290B
:1002A8003E08D7003D08D6003C08D5003B08D400DE
:1002B8005308F3005208F2005108F1005008F0000A
:1002C8000030F7000030F6000030F5001930F40077
:1002D800B7319F27803170084001B7007108B80016
:1002E8007208B9007308BA000130BA36B90CB80CF4
:1002F800B70C890B79290030A3000030A200003028
:10030800A1006430A0005708F3005608F200550811
:10031800F1005408F00045012808643EF40000305C
:1003280003180130F500F601F51BF6037608F7000F
:10033800B7319F27803173084001A7007208A600D3
:100348007108A5007008A400AD31F025803120089F
:10035800B7072108B83D2208B93D2308BA3D2D0842
:100368008600870144313708C03F3808C13F390843
:10037800C23F3A08C33F2D08860087014231403FFB
:10038800B700413FB8003708F0003808F100F20123
:10039800F301450127084001B900BA01BB01BC01BE
:1003A8003C08F7003B08F6003A08F5003908F40065
:1003B800B7319F27803173084001D3007208D200FB
:1003C8007108D1007008D0002D08860087014231DD
:1003D800403FB700413FB8003708F4003808F5003F
:1003E800F601F7012D08860087014231403FB90028
:1003F800413FBA003908F0003A08F100F201F30170
:10040800B7319F27803170084001BB007108BC00DC
:100418007208BD007308BE000630BE36BD0CBC0CA9
:10042800BB0C890B112A3E08D7003D08D6003C08B2
:10043800D5003B08D4005308F3005208F2005108D5
:10044800F1005008F0000030F7000030F6000030EE
:10045800F5001930F400B7319F278031700840014A
:10046800B7007108B8007208B9007308BA00013003
:10047800BA36B90CB80CB70C890B3C2A0030A3006B
:100488000030A2000030A1006430A0005708F3003B
:100498005608F2005508F1005408F00045012808F4
:1004A800643EF400003003180130F500F601F51B36
:1004B800F6037608F700B7319F27803173084001AB
:1004C800A7007208A6007108A5007008A400AD3145
:1004D800F02580312008B7072108B83D2208B93D2A
:1004E8002308BA3D2D088600870148313708C03FE8
:1004F8003808C13F3908C23F3A08C33F2D08860073
:1005080087014431403FF000413FF100423FF20093
:10051800433FF3002D08860087014831403FF4002F
:10052800413FF500423FF600433FF700AF31432714
:1005380080312D08860087014C317008C03F710852
:10054800C13F7208C23F7308C33FCD013008F100B4
:100558002F08F0003608F3003508F2001830F400D0
:100568000030F500AA3117228031003A0319D02A49
:100578003208F1003108F0003408F3003308F200C3
:100588001830F4000030F500AA3117228031003A03
:100598000319D02A0130CD002D088600870150317B
:1005A8004D08810030083602031DDC2A2F08350269
:1005B800031C112B35083604031DE52AC501C601A5
:1005C8000D2B3508A0003608A100A201A3012F08B1
:1005D8003502B7003008363BB8003708B90038088C
:1005E800BA00BB01BC010830B935BA0DBB0DBC0D52
:1005F800890BF82A3C08A7003B08A6003A08A50082
:100608003908A400AD31F02580312108C600200842
:10061800C5004608C4004508382B2F08A00030083C
:10062800A100A201A30135082F02B7003608303B0C
:10063800B8003708B9003808BA00BB01BC01083057
:10064800B935BA0DBB0DBC0D890B242B3C08A7008E
:100658003B08A6003A08A5003908A400AD31F025EA
:1006680080312108C4002008C30032083402031D69
:100678003F2B31083302031C742B33083404031D49
:10068800482BC901CA01702B3308A0003408A10007
:10069800A201A30131083302B7003208343BB80085
:1006A8003708B9003808BA00BB01BC010830B935B1
:1006B800BA0DBB0DBC0D890B5B2B3C08A7003B0892
:1006C800A6003A08A5003908A400AD31F02580310C
:1006D8002108CA002008C9004A08C80049089B2BFD
:1006E8003108A0003208A100A201A3013308310299
:1006F800B7003408323BB8003708B9003808BA00E8
:10070800BB01BC010830B935BA0DBB0DBC0D890B56
:10071800872B3C08A7003B08A6003A08A500390823
:10072800A400AD31F02580312108C8002008C70099
:1007380043084707CE004408483DCF0001304F0228
:10074800003003194E020318B02B4E08B700B80149
:100758003708CB003808B32BFF30CB000030CC0073
:100768002D088600870151314B0881000800A83107
:10077800ED2083314401E601500193181318C72B6B
:1007880001304401E60044016608E500A1319521E5
:100798008331B3315F238331AE3193268331A33163
:1007A800E7238331A03166208331003A0319EB2B0C
:1007B8004F08DA005008DB005108DC006508031D0B
:1007C800F62B5008F3005108F4004F08F32BD5011D
:1007D800D601D401D301D201F301F40100309931DB
:1007E800B52183315608031DFC2BAF01B001032C42
:1007F8005608643EAF00003003180130B0004001D5
:100808001915B53112258331A8314D208331500196
:100818000C14B331DB2383317308DF007208DE0068
:100828007108DD007008DC005F08E3005E08E20084
:100838005D08E1005C08E0006308E7006208E60084
:100848006108E5006008E4006708EB006608EA0054
:100858006508E9006408E8006400A63119268331B8
:100868004401E700670303193D2C02306706031DA6
:10087800662CB231F6228331003A031D662CB4315E
:100888002C2483314401E701662CB4312C248331B4
:1008980044015508031D522C0130532C0030A0315F
:1008A800C7208331772C923143228331772C013052
:1008B800C800772CB4312C2483310130A031C720F3
:1008C8008331772C6708013A0319492C033A031935
:1008D800572C013A03195B2C073A03195E2C013A8D
:1008E8000319572C772C45016708FB006608FA00A6
:1008F8006508F9006408F800B431582483317B088E
:10090800031D902C7A08031D902C7908031D902C48
:1009180032307802031C9E2CB331DB2383317308F9
:10092800E7007208E6007108E5007008E4009031FD
:10093800CA208331440149080319A62CC901923100
:100948004322833145016308FB006208FA0061080D
:10095800F9006008F800B431582483317B08031D7E
:10096800BF2C7A08031DBF2C7908031DBF2C9630B5
:100978007802031CCD2CB331DB2383317308E300E9
:100988007208E2007108E1007008E000B531D52571
:10099800833145016B08FB006A08FA006908F90011
:1009A8006808F800B431582483317B08031DE52C0E
:1009B8007A08031DE52CB83078020B30793B031C0C
:1009C800F32CB331DB2383317308EB007208EA00A0
:1009D8007108E9007008E800AA31D922833144017E
:1009E8004C080319152D45015708FB005608FA0055
:1009F8005508F9005408F800B431582483317B08AD
:100A0800031D102D7A08031D102D7908031D102DC4
:100A18001E307802031C152D4401CC0140019715A6
:100A2800171644014B080319342DB331DB238331E6
:100A3800500870024401DD0045015108713B440132
:100A4800DE0045015208723B4401DF0045015308AE
:100A5800733B4401E000E01B342DB431032483319F
:100A680045015F08FB005E08FA005D08F9005C08B4
:100A7800F800B431582483317B08031D4C2D7A08C3
:100A8800031D4C2D303078027530793B031C5A2DEC
:100A9800B331DB2383317308DF007208DE0071088D
:100AA800DD007008DC00B231F3228331B231F62266
:100AB8008331003A0319A72D450120080319A72DF2
:100AC8005B08FB005A08FA005908F9005808F800B2
:100AD800B4315824833178084401DD007908DE00F8
:100AE8007A08DF007B08E000450120084401E100A6
:100AF800E201E301E4016408F3006308F20062081C
:100B0800F1006108F0000030F7000030F600EA302C
:100B1800F5006030F400B7319F2783317308440132
:100B28006002031DA12D72085F02031DA12D71082B
:100B38005E02031DA12D70085D02031CA72D003065
:100B4800A9319B218331450121080319EC2D5B084C
:100B5800FB005A08FA005908F9005808F800B4319F
:100B68005824833178084401DD007908DE007A08CA
:100B7800DF007B08E000450121084401E100E201B3
:100B8800E301E4016408F3006308F2006208F1007D
:100B98006108F0000030F7000030F600EA30F50098
:100BA8006030F400B7319F27833173084401600235
:100BB800031DE82D72085F02031DE82D71085E020F
:100BC800031DE82D70085D02031CEC2D0330C800DE
:100BD800440148080319452E0330480203181A2E09
:100BE800B4312C248331B63198268331440148032B
:100BF800031D052E0B304001AF004C30B000FB3018
:100C08000B2E11304001AF009630B000FB30B10020
:100C18000930A1312B218331B331C8238331DC3032
:100C2800F0000530F100B331A22383314401C8013B
:100C3800AD31A3258331B53112258331B331DB239F
:100C480083317308DF007208DE007108DD00700868
:100C5800DC005F08E3005E08E2005D08E1005C0874
:100C6800E0006308E7006208E6006108E500600844
:100C7800E4006708EB006608EA006508E900640814
:100C8800E8009831FD208331302C5E084001E900EE
:100C980041015D084001E800410160084001EB00A6
:100CA80041015F084001EA009C3176248631420107
:100CB800AA002A080319622E2A080800A90129088F
:100CC800031D6D2E41015D0886005E0887004131D5
:100CD800722E41015D0886005E0887000108E10068
:100CE800E20161084201A000410162084201A1003D
:100CF8002008A60044013308031D952E420126084A
:100D08004101E1000230E136890B872E6108E200DB
:100D1800E30162084201A200410163084201A30005
:100D28009A2E01304201A2000030A3002208A6003A
:100D3800023026020318A52E0130A4000030A500B9
:100D4800B02E26084101E100E20161084201A40039
:100D5800410162084201A5002408A7000130A8004B
:100D680041015D0886005E088700403F4201B000EF
:100D7800413FB100423FB20029080319D22E27088B
:100D8800F0002808B33150238631F30042013008BF
:100D9800B431D92486314201B000E02E2708F00092
:100DA8002808B33150238631F30042013108B431A9
:100DB800D92486314201B10041015D0886005E08F0
:100DC8008700010842013006031DF52E41015D0828
:100DD80086005E0887004131420131080106031987
:100DE800502F31084001E300420132084001E4007D
:100DF8002030E5002B30E6000130E70042013008E2
:100E08009331C32386314201AA002A08031D602EAC
:100E180030304001E8000130E9002B30EA000130B1
:100E2800EB00420129084001EC009D3191258631F3
:100E38004201AA002A08031D602E2B304001A000A1
:100E48000130A100410160084001A30041015F0891
:100E58004001A200A7315B278631003A0319502FC1
:100E680041015D0886005E08870042013008C03FE6
:100E78003108C13F3208C23F2B308600013087005D
:100E880041015F088400600885000530E100160014
:100E98001A00E10B4B2F492EFE304201A807280803
:100EA800803A813E0318B42E02302702031C662FB5
:100EB80027084101E1000130E136890B602F610804
:100EC8004201B12E0130A90702302902031C632E0A
:100ED80041015D0886005E088700403F4201B0007E
:100EE800413FB100423FB2000130B2063108400133
:100EF800E300420132084001E4002030E5002B30D5
:100F0800E6000130E700420130089331C3238631FF
:100F18004201AA002A08031D602E41015F088600CD
:100F280060088700403FE100413FE200423FE300A4
:100F3800433FE4000130E135E20DE30DE40D890B98
:100F48009F2F640842012E02031DBA2F4101630836
:100F580042012D02031DBA2F4101620842012C02F1
:100F6800031DBA2F4101610842012B020318E02F2B
:100F780030304001E8000130E9002B30EA00013050
:100F8800EB009C31762486314201AA002A08031D11
:100F9800602E2B304001A0000130A1004101600803
:100FA8004001A30041015F084001A200A7315B276F
:100FB8008631003A031D342F00300800730886007C
:100FC8007408870075087F398100730886007408E3
:100FD8008700413176087F398100730886007408DC
:100FE800870042317608F7000730F736890BF92F6A
:060FF800770881000800EB
:10100000F8007808730203180A2873087802F700BA
:1010100078080E2878087302F7007308F50001308D
:10102000F60003307702031C1F287508F400033014
:10103000F436890B182877087402031CF601760829
:1010400008004301CD01D001A0014401CD01B5014B
:10105000B401B301450123084101E900EA01EB01B4
:10106000EC016C08F3006B08F2006A08F1006908F3
:10107000F0000030F7000130F6008630F500A030B7
:10108000F400B7319F27883173084501AF0072081B
:10109000AE007108AD007008AC0024084101E90001
:1010A000EA01EB01EC016C08F3006B08F2006A083E
:1010B000F1006908F0000030F7000F30F600423010
:1010C000F5004030F400B7319F278831730846019E
:1010D000BB007208BA007108B9007008B8009828FF
:1010E00042304301A100FC30A2000430A3000230D2
:1010F000A80096304401A70000309628CF30430165
:10110000A100FB30A2000730A3000430A800F43097
:1011100093281F304301A100FC30A2000530A3003A
:101120000330A8005E304401A7000130A800A128C8
:1011300045012B08013A03197028023A03197E2849
:10114000892841016508860066088700403F430101
:10115000D900413FDA00423FDB005A08F0005B084B
:10116000F1005908B6311E26883171084201ED00A0
:101170007008EC0044012A084101EF0044012908ED
:101180004101EE0044014E080319D7295808F00028
:101190005908F1005708B6311E26883142016D0802
:1011A0007106031DD5286C087006031DD72943015D
:1011B0005A084001E30043015B084001E40040306D
:1011C000E500D230E6000130E700430159089331D1
:1011D000C32388314301D1005108031DA72F0130DB
:1011E0005502031CFC2801304301AC000030AB0069
:1011F0000030AA000030042943015508AC0054080F
:10120000AB005308AA005208A90001304401230290
:10121000031C132901304301B0000030AF0000303F
:10122000AE0000302229440123084301B0004401EC
:1012300022084301AF00440121084301AE004401EC
:1012400020084301AD002C083002031D31292B0872
:101250002F02031D31292A082E02031D31292908D6
:101260002D0203184B292C08A7002B08A6002A08DA
:10127000A5002908A4003008AC002F08AB002E08F8
:10128000AA002D08A9002708B0002608AF002508ED
:10129000AE002408AD0029082D024101E9004301F8
:1012A0002A082E3B4101EA0043012B082F3B410154
:1012B000EB0043012C08303B4101EC006C0843017A
:1012C000A70041016B084301A60041016A084301E0
:1012D000A500410169084301A4004201C00100309A
:1012E0004101E9000030EA000230EB000030EC0080
:1012F000430129084101E90743012A084101EA3D68
:1013000043012B084101EB3D43012C084101EC3D19
:101310004301270841016C02031D9E294301260851
:1013200041016B02031D9E294301250841016A0208
:10133000031D9E294301240841016902031CD3298E
:101340000030E9000030EA000230EB000130EC0030
:1013500043012D084101E90243012E084101EA3B06
:1013600043012F084101EB3B430130084101EC3BB5
:101370004301270841016C02031DCE2943012608C1
:1013800041016B02031DCE294301250841016A0278
:10139000031DCE294301240841016902031CD329FE
:1013A00001304201C000420140084301A000440155
:1013B000CE01430120080319ED2955084401A3007B
:1013C000430154084401A200430153084401A10011
:1013D000430152084401A000332AD8015835F03E99
:1013E000860087012A30873D58350030873D003020
:1013F000C03FC13F0130D807031DEE294501EC0174
:10140000ED014101EE01EF014401A901AA01013002
:10141000A3000030A2000030A1000130A000430171
:1014200059084401D70043015A084401D800430138
:101430005B084401D90043015A084001E30043011D
:101440005B084001E4002030E500D230E6000130C6
:10145000E700430159089331C32388314301D10088
:101460005108031DA72FD230FC000130FD00B73119
:1014700018278831003A0319592AD9304001C10090
:101480000130C200430155084001C6004301540821
:101490004001C500430153084001C4004301520804
:1014A0004001C300A031072088319531B8250030B4
:1014B0000800410168084201EF004101670842014C
:1014C000EE004301D8016D0858020318FB2A0330CF
:1014D000F0005808B331502388313C3E4301CE0020
:1014E0004E0886000330870001085906031D892A2B
:1014F0004E0A86000330870001085A06031D892A18
:101500004E08023E86000330870001085B0603197F
:10151000F72A4E088600033087000108031D972A2A
:101520004E0A86000330870001080319F72A4E0887
:101530008600033087000330413F4001E300430150
:101540004E088600033087000330423F4001E4002C
:101550001030E500B130E6000130E70043014E08ED
:1015600086000330870001089331C323883143018B
:10157000D100033051060319FB2A5108031DA72F80
:1015800055083402031DCE2A54083302031DCE2A07
:1015900053083202031DCE2A520831020318F72ADB
:1015A0004E08860003308700403FD900413FDA00F3
:1015B000423FDB00B130860001308700D23084002A
:1015C0000130850005304101E90016001A00E90BE1
:1015D000E52A430158082C3E8600033087000108A5
:1015E000643E4201EE00003003180130EF0001308C
:1015F0004301D807632A42016E086F040319752B53
:1016000001304401B300D9304101DD000130DE007A
:10161000D230DF000130E0008631492688314301B5
:10162000D1004401B301033043015106031D2A2BAD
:10163000C730F300BD30F400D030F500D930F600EB
:101640000130F700D230F8000130F900A631B6269B
:101650008831542E5108031DA72FD230FC000130D1
:10166000FD00B73118278831003A031D3D2A450196
:101670002A080319642B430155084001B0004301B7
:1016800054084001AF00430153084001AE0043013C
:1016900052084001AD00A231EC22883142016E08AF
:1016A000053E4101E900003042016F3D4101EA0081
:1016B00040012E0841016A02031D622B40012D08E2
:1016C0004101690203183D2AC730F300BD30F40020
:1016D000D030F500D930F6000130F700D230F800F4
:1016E0000130F900A631B62688314301BB01023032
:1016F0003B020318BC2DD801230858020318B92D4A
:10170000BC0123083C020318B62D580821078400A9
:1017100022080318013E85000008D9003C08210773
:10172000840022080318013E85000008DA003B0807
:10173000DB005A084001E30043015B084001E4007C
:101740001030E500D230E6000130E70043015908CF
:101750009331C32388314301D1000330510603196B
:10176000542E5108031DA72FD7014D085702031807
:101770001F2C0330F0005708B33150238831023E4C
:101780005D3E860001308700010843013B06031DD2
:101790001B2C5708363E86000130870001084101A6
:1017A000E900430158084101E90201306907EA00F4
:1017B00003306A0203181B2C430157083B3E860086
:1017C0000130870001084101E90043013C08410163
:1017D000E90201306907EA0003306A0203181B2C92
:1017E0000530F00043015708B33150238831443E9F
:1017F000860001308700403F4101E900413FEA0097
:10180000423FEB00433FEC006C0843015502031DCF
:10181000192C41016B0843015402031D192C41018D
:101820006A0843015302031D192C41016908430151
:10183000520203181F2C01304301D707B52B4D0866
:101840005702031CB32DD7014D0857020318E02C93
:101850000330F0005708B33150238831023E5D3E1B
:10186000860001308700010843013B06031D5F2C01
:101870005708363E86000130870001084101E90023
:10188000430158084101E90201306907EA000330C9
:101890006A0203185F2C430157083B3E8600013063
:1018A000870001084101E90043013C084101E902C8
:1018B00001306907EA0003306A02031C632C01301F
:1018C0004301D707242C43015708CF004F08013E9E
:1018D0004101E900003003180130EA006A08803A4B
:1018E000EB0080306B02031D792C43014D08410150
:1018F00069020318DC2C0330F00043014F08B331B8
:1019000050238831033E5D3E860001308700403F12
:101910004101E900413FEA00423FEB000330F000A3
:1019200043014F08B331502388315D3E86000130BA
:10193000870041016908C03F6A08C13F6B08C23F88
:101940000530F00043014F08B33150238831053E84
:10195000443E8600013087000530F00043014F0807
:10196000B33150238831443E840001308500053076
:101970004101E90016001A00E90BBA2C43014F0897
:10198000363E8600013087004F08013E363E840017
:1019900001308500000881004F083B3E8600013081
:1019A00087004F08013E3B3E84000130850000085F
:1019B00081000130CF07662C01304301CD02242C79
:1019C0004D08D700462D280857020318442D033030
:1019D000F0005708B33150238831FD3E5D3E86004C
:1019E00001308700403F4101E900413FEA00423FAA
:1019F000EB000330F00043015708B3315023883126
:101A00005D3E86000130870041016908C03F6A08D9
:101A1000C13F6B08C23F0530F00043015708B331A6
:101A200050238831FB3E443E86000130870005305C
:101A3000F00043015708B33150238831443E8400FD
:101A40000130850005304101E90016001A00E90B5C
:101A5000252D43015708363E860001308700570880
:101A6000FF3E363E840001308500000881005708A3
:101A70003B3E8600013087005708FF3E3B3E840016
:101A800001308500000881000130D7025708031992
:101A9000742D0530F0005708B33150238831FB3ED8
:101AA000443E860001308700403F4101E900413F4C
:101AB000EA00423FEB00433FEC006C084301550253
:101AC000031D722D41016B0843015402031D722D49
:101AD00041016A0843015302031D722D4101690847
:101AE00043015202031CE32C280857020318B32DAC
:101AF0000330F0005708B331502388315D3E860033
:101B00000130870043015908C03F5A08C13F5B08B4
:101B1000C23FD2308600013087000530F000570800
:101B2000B33150238831443E8400013085000530B4
:101B30004101E90016001A00E90B9A2D43015708EC
:101B4000363E8600013087005808810057083B3E2A
:101B50008600013087003C08810028084D020318E8
:101B6000B32D0130CD070130BC07812B0130D807E0
:101B70007C2B0130BB07772B440123084001B000C8
:101B8000440122084001AF00440121084001AE0099
:101B9000440120084001AD00A231EC2288312E081A
:101BA000C2002D08C100B331432388314301D8015D
:101BB0004D0858020318542E0330F0005808B33172
:101BC000502388315D3E860001308700403F43014D
:101BD000D900413FDA00423FDB000530F0005808F1
:101BE000B33150238831443E860001308700D23023
:101BF00084000130850005304101E90016001A001B
:101C0000E90BFE2DD930DD000130DE00D230DF00DF
:101C10000130E0008631492688314301D100510866
:101C20000319162E03305106031DA72FC730F300EA
:101C3000BD30F400D030F500D930F6000130F700A7
:101C4000D230F8000130F900A631B62688314401BF
:101C500023084001B000440122084001AF004401C4
:101C600021084001AE00440120084001AD00A2312E
:101C7000EC2288312E08C2002D08C100B331432365
:101C800088310330430151060319542ED230FC0031
:101C90000130FD00B73118278831003A031D542E5A
:101CA00001304301D807D82D4301D8018B2E0330D2
:101CB000F0005808B33150238831C73E8600013008
:101CC0008700010844015706031D882E0330F000E9
:101CD00043015808B33150238831013EC73E860086
:101CE00001308700010844015806031D882E033087
:101CF000F00043015808B33150238831023EC73EFB
:101D000086000130870001084401590603198F2E0F
:101D100001304301D80750085802031C572E4301D5
:101D200058085006031DC22E50080319A02E440166
:101D300028082A02031D9E2E27082902031CC22EF2
:101D4000440123084301D500440122084301D40083
:101D5000440121084301D300440120084301D2007B
:101D6000D601C730F300BD30F400D030F500573055
:101D7000F6000230F700D230F8000130F900A63149
:101D8000B62688314301D8015008580203181A2F8B
:101D90000330F0005808B33150238831013EC73E6C
:101DA00086000130870001084101ED000330F0009A
:101DB00043015808B33150238831023EC73E8600A4
:101DC0000130870001084201B3000530F0004301F3
:101DD0005808B33150238831BD3E4201B40003306E
:101DE000F00043015808B33150238831C73E8600C4
:101DF0000130870001084201B50041016D08400132
:101E0000E300420133084001E4004030E5004201B4
:101E100034084001E6000130E70042013508933103
:101E2000C32388314301D1005108031DA72F01307E
:101E3000D807C42E4001E301E4014030E500B6308C
:101E4000E6000130E70000309331C32388314301BD
:101E5000D1005108031DA72F4201C10102304301E7
:101E60005002031C462F40084502031D412F3F0826
:101E70004402031D412F3E084302031D412F3D082C
:101E800042020318462F01304201C10042014108BD
:101E90004301D8000530F0005808B3315023883191
:101EA000BD3E4001A0000130A100B630A2000130CB
:101EB000A300A7315B278831003A031D862F430119
:101EC000DB01DA01D901D9304001C1000130C20083
:101ED000430139084001C600430138084001C500EC
:101EE000430137084001C400430136084001C300E4
:101EF000A0310720883100303202793003193102D5
:101F00000318842F00300800033008000330F0006D
:101F100043015808B33150238831C73E4001C10006
:101F20000130C2000530F00043015808B33150239E
:101F30008831BD3E860001308700403F4001C3002C
:101F4000413FC400423FC500433FC600522A420100
:101F5000C201023043015106031DD32F44012A0858
:101F600041016F02031DB82F4401290841016E028F
:101F70000318D32F43012008031DD02F4401580814
:101F8000F0005908F1005708B6311E268831420189
:101F90006D087106031DCE2F6C0870060319D32F30
:101FA00001304201C200420142084401CD005730D5
:101FB0004001C1000230C200440123084001C600B4
:101FC000440122084001C500440121084001C40029
:101FD000440120084001C300A0310720883143019B
:101FE00051030319FE2F043051060319F92F013054
:101FF000FA2F04304201C3004308080002300800F1
:10200000FF34FF34FF34FF34A0340F34FF34B20008
:10201000BA013A08B6314526903100304001B70088
:102020000030B6000030B5000030B400B3017C08C9
:10203000330203184D28320841019E003530890BC8
:102040001F28000041011314131824280D08400113
:10205000B90041010C084001B80003303902E930F1
:1020600003193802031C382802303A06031D4D2894
:1020700003303902FF3003193802031C42280130B3
:102080004401B90040013808B4073908B53D0030B3
:10209000B63DB73D0130B307172833087C06031956
:1020A00097280130BA0709280330B435B50DB60DAD
:1020B000B70D890B55289F280430B435B50DB60DE2
:1020C000B70D890B5D289F2844016C08F0006D084E
:1020D000F100F201F30140013708F7003608F6007D
:1020E0003508F5003408F400B7319F2790317008A7
:1020F0004001AD007108AE007208AF007308B00077
:102100000A30B036AF0CAE0CAD0C890B8128033011
:10211000AD35AE0DAF0DB00D890B88283008B70076
:102120002F08B6002E08B5002D08B4009F283A08E5
:10213000003A03195428013A03195C2864287C08E2
:10214000AD00AE01AF01B0013008A3002F08A2001E
:102150002E08A1002D08A0007C08B1000130B13686
:10216000890BAF2831083407A40035080318350F50
:102170000310A50036080318360F0310A600370811
:102180000318370AA700AD31F0252108FD0020080B
:10219000FC000800B331DB23903173084101A50036
:1021A0007208A4007108A3007008A200AB304001BF
:1021B000D8000030D9000430DA00AC3175249031F9
:1021C00041013D080319F42844014B08031DF4287C
:1021D00072304001BE00FB30BF00D030C00007307D
:1021E000C100A831B6209031AB30860000308700A6
:1021F0004431403F4001AD00413FAE00423FAF009F
:10220000433FB000B431A32490312E084101A10016
:1022100040012D084101A0002008210403191329C1
:10222000B4312C2490314701270841013202031DAB
:1022300029294701260841013102031D29294701A7
:10224000250841013002031D2929470124084101C5
:102250002F0203186D29450129084001E300E4011C
:10226000E501E6016608F3006508F2006408F10084
:102270006308F0000030F7000030F6000030F50091
:102280000A30F400B7319F279031450148084101D9
:1022900022024001E700450149084101233B40017A
:1022A000E80045014A084101243B4001E90045019D
:1022B0004B084101253B4001EA0073086A02031DF7
:1022C0006B2972086902031D6B2971086802031DDE
:1022D0006B2970086702031C8C29AB308600003024
:1022E0008700A03084000330850013304001E300F4
:1022F00016001A00E30B7829410125084501CB009F
:10230000410124084501CA00410123084501C900D3
:10231000410122084501C800AB308600003087002B
:102320004C31403F4001AD00413FAE00423FAF0065
:10233000433FB000A231EC2290312E084101AA00A7
:1023400040012D084101A900AB30FC000030FD0028
:10235000A431F02490314101A80028080319B429C0
:1023600003302806031DBB292A084401AE004101A1
:1023700029084401AD00410128030319C6292A0890
:102380004401AC00410129084401AB004501250886
:10239000F63EF000FF3003180030F1000A30F20082
:1023A0000030F300B4318824903171084101A70056
:1023B0007008A600450126080319402A4401550863
:1023C000031D402A41012808031D402A3B08031928
:1023D000402A00302A02793003192902031C402ABE
:1023E00045014F08FB004E08FA004D08F9004C0863
:1023F000F800B431582490317B08031D082A7A086C
:10240000031D082AB83078020B30793B031C402AA0
:102410004101260844012F074001E300410127083C
:102420004401303D4001E40041012A0840016402BA
:10243000031D1E2A4101290840016302031C362A9C
:102440004101260829074001E300410127082A3DF0
:102450004001E4004401300840016402031D342AB5
:1024600044012F08400163020318402A013044014F
:10247000CA0704304A02031C08000130C9000800E2
:102480004401CA01080044015A084301E90044011B
:102490005B084301EA0044015C084301EB00B431EE
:1024A0002C2492314001971119114401CB014001B4
:1024B000AF014230B000FB30B1001230A1312B210E
:1024C0009231AF013D30B000FB30B1001230A1318C
:1024D0002B219231FF304401E800FF30E900B33195
:1024E000C82392319A31762292314301EC006C0874
:1024F000031DC62AE7014401460803199A2A45012B
:102500004F08FB004E08FA004D08F9004C08F8008F
:10251000B431582492317B08031D9A2A7A08031D8E
:102520009A2A60307802EA30793B03189A2A0130FF
:102530004301E700430167084401CE005508031D2D
:10254000A42A5608031DA82A4301DF01E001B02A8E
:102550005608643E4301DF00003003180130E000FC
:102560005A304101E5000230E600430160084101B4
:10257000E80043015F084101E700883121209231E2
:102580004301EC0044014D08C600C82A4401C601BD
:102590004301E80144015A0843016906031DDE2A8C
:1025A00044015B0843016A06031DDE2A44015C08FE
:1025B00043016B06031DDE2A0130E8006808DE00D7
:1025C0006C080319F42A03306C060319F42A5E0818
:1025D0000319F42A44012D082E040319612B2E0837
:1025E000B0002D08AF00612B6C080319042B0330D9
:1025F0006C060319042B44015A08031D042B5B08C5
:1026000003195C080319062B4401D5015508031D65
:10261000522B43016C08031D142B44015A08031D5F
:10262000182B5B08031D182B4301E101E2014F2B1E
:1026300031089C3E4301DC00FF304401323D430140
:10264000DD0001305D02003003195C020318442BE9
:102650000030440132026630031931020318362B70
:1026600001304301E5000030E6003F2B31089C3E7D
:102670004301E500FF304401323D4301E6006608B6
:10268000E4006508E300482BFF30E3000030E4007D
:102690006308DC00DD015C08E1005D08E200610820
:1026A0004401D6003208B0003108AF003208AC0057
:1026B0003108AB002C08AE002B08AD00B3311F234E
:1026C0009231440146080319672BAF01B001B631BE
:1026D000C2269231FF304401E800FF30E9002C08A7
:1026E0004001BF0044012B084001BE00A931602118
:1026F000923143016C03031D822B8D304001BE00DB
:10270000FB30A02B03306C06031D8B2B7B3040016C
:10271000BE00FB30A02B02306C06031D982B3D3011
:102720004001BE00FC30BF00E830C0000330A42BE5
:1027300004306C06031DA82B72304001BE00FB3034
:10274000BF00D030C0000730C100A831B6209231A0
:10275000B231F32292314001191597154401CA0193
:10276000B331DB237308CF007208CE007108CD00AF
:102770007008CC004F08DB004E08DA004D08D90085
:102780004C08D80008004101B70040016308F00080
:102790006408F10041013708B6311E2693317108F3
:1027A0004101B6007008B500AA01AB013608F4007B
:1027B0003508F300AB315F2393314101B800B40118
:1027C0004030400165060319722C41013808A00011
:1027D000A101A035A10DF030A2002A30A3002008ED
:1027E000220786002108233D8700403FA400413F87
:1027F000A50036082506031DFF2B35082406031DFA
:10280000672C3808A000A101A035A10DF030A2006E
:102810002830A3002008220786002108233D8700D6
:102820001600FF3AA4001600FF3AA4040319402C36
:102830003808A000A101A035A10DF030A200283079
:10284000A3002008220786002108233D8700403F7F
:10285000A400413FA5002408A6002508A700A80160
:10286000A9010830A635A70DA80DA90D890B322C9A
:102870002908AF002808AE002708AD002608472C1D
:102880000130AF000030AE000030AD000030AC00D1
:102890004001660886006708870041012C08C03F98
:1028A0002D08C13F2E08C23F2F08C33F40016608D4
:1028B000860067088700443141013808F03E8400F3
:1028C00085012E30853D000881000030080044015C
:1028D00028082A02031D6E2C27082902031C722CCB
:1028E0000330080040016308F3006408F40041016C
:1028F00037089931B5219331B431F5249331003A39
:102900000319842C01300800B9304001D800003090
:10291000D9006508DA00AC317524933141014B08C8
:102920000319A62C01304401B40740303402031CC3
:102930009B2C0430080001304101C8000030C70062
:102940000030C6000030C500CA01082D45012F081F
:1029500041014002031DBC2C45012E0841013F02EC
:10296000031DBC2C45012D0841013E02031DBC2C5A
:1029700045012C0841013D02031CD62CB930F00062
:102980000030F100AE31E9269331730846013B0275
:10299000031DD42C72083A02031DD42C710839028D
:1029A000031DD42C700838020318FA2C4401350892
:1029B000031DDF2CE8304101B0000330E32C2C3044
:1029C0004101B0000130B1000130AA070030AB3D39
:1029D0002B083102031DEE2C2A0830020318F22CBA
:1029E000023008000A30F0000030F100B331A223B9
:1029F00093317C2C01304401B500B40141014908F8
:102A0000031D082D0130B40703303402031C7C2C55
:102A10004001660886006708870041014508C03FFD
:102A20004608C13F4708C23F4808C33F4001660807
:102A3000860067088700443141014A088100403020
:102A4000400165060319652C01304401A9070030D7
:102A5000AA3D003045016D02FF3003196C020318D6
:102A6000772D41013835F03E860087012A30873DB9
:102A700038350030873D3508C03F3608C13F01304A
:102A800048020318582D41014508A0004608A1003E
:102A90004708A2004808A3000830A336A20CA10CE6
:102AA000A00C890B4D2D2108B3002008B2005D2D2C
:102AB000FF304101B200FF30B3003835F03E8600F0
:102AC00087012830873D38350030873D3208C03FC8
:102AD0003308C13F3808F03E860087012E30873D1D
:102AE0004A08810001304501EC070030ED3D40010E
:102AF0006608860067088700403F4101A000413F0B
:102B0000A100423FA200433FA3004401230841012A
:102B10002302031D9B2D4401220841012202031DB3
:102B20009B2D4401210841012102031D9B2D4401DD
:102B30002008410120020318652C40016608860028
:102B400067088700403F4401A000413FA100423F89
:102B5000A200433FA300410137084401D7004001D0
:102B600063084401D800400164084401D900652C81
:102B70004001B301AF01AE01003044013202C9305F
:102B80000319310203180800240803192508031942
:102B900008004001B40143016D08400134020318EC
:102BA0003D2E0330F0003408B331502395313C3EC4
:102BB0008600033087000108031DEC2D0330F00070
:102BC00040013408B331502395313D3E8600033037
:102BD000870001080319392EFF304001B000B5010C
:102BE00043016D084001350203182C2E3508203EA4
:102BF0008600033087003408203E840003308500BF
:102C000000080102B2000330F0003508B331502350
:102C100095313C3E8600033087000108031D1E2EBF
:102C20000330F00040013508B331502395313D3E6B
:102C300086000330870001080319282E400132085E
:102C40000319282E300832020318282E3208B0004B
:102C500001304001B507F02D30082E020318392E3F
:102C60003008AE003408203E86000330870001089B
:102C7000B30001304001B407CB2DB40143016D080E
:102C8000400134020318802E0330F0003408B331C1
:102C9000502395313E3E86000330870001084401F1
:102CA0002606031D7C2E2408F3000330F0004001AB
:102CB0003408B331502395313C3E86000330870001
:102CC0000108883100209531003A03197C2E440117
:102CD0002508F3000330F00040013408B3315023DD
:102CE00095313D3E86000330870001088831002081
:102CF0009531003A031D802E01304001B4073E2E6D
:102D00004001340843016D06031DAD2E4001B4019E
:102D1000A72E0330F0003408B331502395313C3EE8
:102D20008600033087000108031DA42E0330F00045
:102D300040013408B331502395313D3E86000330C5
:102D4000870001080319AD2E01304001B40743018B
:102D50006D0840013402031C892E400134084301F0
:102D60006D06031DD32E0C306D020318BA2E0130F0
:102D7000ED07D32E4001B501B4013508203E860091
:102D80000330870001083302B2002F083202031C0F
:102D9000CD2E3208AF003508B4000130B5070C3035
:102DA0003502031CBD2E0330F00040013408B3315E
:102DB000502395313C3E86000330870044012408AF
:102DC000C03F2508C13F2608C23F31089C3EF9009C
:102DD000FF30323DFA0001307A02003003197902E7
:102DE0000318FB2E31089C3E4001AC00FF3044012B
:102DF000323D4001FF2EFF304001AC000030AD00FD
:102E000034082C3E8600033087002C0881000130F6
:102E1000B3073408203E8600033087003308810062
:102E20000130F9000030FA00340A182FF935FA0D94
:102E3000890B162F79084501EE047A08EF0440014A
:102E4000B501AF0143016D084001350203185A2F47
:102E50000330F0003508B331502395313C3E8600F5
:102E6000033087000108031D432F0330F0004001A9
:102E70003508B331502395313D3E8600033087003D
:102E800001080319562F40013508203E8600033003
:102E90008700010833022F020318562F3508203E01
:102EA00086000330870001083302AF000130400183
:102EB000B507222F64302F02031C0800B50143011F
:102EC0006D08400135020318BE2F3508203E8600EC
:102ED0000330870001083302B200B101B0014301A1
:102EE0006D08400131020318B52F0330F00031089E
:102EF000B331502395313C3E8600033087000108F2
:102F0000031D902F0330F00040013108B3315023EE
:102F100095313D3E86000330870001080319B12F2B
:102F200040013108203E8600033087003308F90055
:102F30000108F90232087902031CAF2F3108203E44
:102F40008600033087003308F9000108F902790888
:102F50003206031DB12F350831020318B12F01309D
:102F6000B00701304001B1076F2F3508203E8600C1
:102F70008701300881000130B5075F2FB50143019B
:102F80006D0840013502031808000330F0003508D1
:102F9000B331502395313C3E860003308700010851
:102FA000031DE02F0330F00040013508B3315023FA
:102FB00095313D3E86000330870001080319FC2F40
:102FC00040013508203E8600033087003508203E4A
:102FD000840085010008330281000130F9000030CF
:102FE000FA00350AF52FF935FA0D890BF32F790818
:102FF0004501EE047A08EF0401304001B507BF2F08
:1030020044016B0840013F06031D0B2844016A0876
:1030120040013E06031908003F084401EB0040014D
:103022003E084401EA00003040013F0264300319C7
:103032003E02031830283C30AF003F08AC003E0887
:10304200AB00AD01AD0A0330AE00B3316E2398314F
:10305200B0000330B1000030A1312B2108000A304A
:10306200F0000030F1003E08053EF20000303F3D26
:10307200F300B731CE2798317108C1007008C00043
:103082003C30AF004108AC004008AB00AD0103305A
:10309200AE00B3316E239831B0000330B10000307E
:1030A200A1312B210800DA01B331DB2398317308F7
:1030B2004001D8007208D7007108D6007008D50008
:1030C200B6319826983122304001AF000D30B00061
:1030D200FC30B1000030A1312B219831B331C8232B
:1030E200983140018D1A772864007228B3312B235E
:1030F200983140015A08A331672398316400A63100
:10310200192698314001D9005908031DA528B33169
:10311200DB239831400155087002D1005608713BFB
:10312200D2005708723BD3005808733BD4005408AE
:10313200031DFA285308031DFA2860305102EA30B1
:10314200523B0318FA287F28B331DB2398317308E6
:103152004001D8007208D7007108D6007008D50067
:1031620002305906031DD2280F30F0000030F10062
:103172005A08013EF200003003180130F300AB316F
:103182001C2398317008DA005A08A331672398315A
:1031920040018D1ACE286400C928B3312B239831FF
:1031A2007F285903031D7F280C305A020318EB288D
:1031B2005A08A03E8600023087005A08A03E8400CA
:1031C200023085000008F0005A08A9312621983102
:1031D20081007B280C305A06031DF228A931D82120
:1031E20098310D3040015A06031DFA28B3310A23E3
:1031F2009831A1319521080044013F0803190800C4
:103202003D08031994293B0803197D29D030400158
:10321200B0000730B1000030B2000030B30044010A
:103222003B08FF3E890A40011A29B035B10DB20DA3
:10323200B30D890B1629B331DB2398313C08700298
:103242004001B40045013D08713B4001B500450114
:103252003E08723B4001B60045013F08733B400106
:10326200B70033083702031D402932083602031D16
:10327200402931083502031D402930083402031861
:103282007D29B331DB239831380870024001B00048
:1032920045013908713B4001B10045013A08723BD2
:1032A2004001B20045013B08733B4001B3003308C3
:1032B200031D64293208031D6429E83030020330FB
:1032C200313B031C0800B331DB2398317308BB0088
:1032D2007208BA007108B9007008B800B3317E23D1
:1032E2009831003A031D792901304401BC000800DD
:1032F20044013C08031908004401BC0106303B02AA
:10330200031885290130BB070030A9319B21983170
:103312002C30F0000130F100B331A223983101309A
:10332200A9319B2108004001B80144013A08013E3D
:103332000339BA003A08C03E8600023087003A08D4
:10334200C43E84000230850000080102031CAD293E
:103352003A08AF31A127080001304001B807043014
:103362003802031808009629F80045012208F700E0
:103372000E3044016D02D93003196C020318C329BF
:103382000130F7077818C82940019917CA29400166
:103392009913F818CF2940011917D129400119139F
:1033A2007819D62940019916D82940019912F8199D
:1033B200DD2940011916DF2940011912781AE42982
:1033C20040019817E62940019813F81AEB294001A9
:1033D2001817ED2940011813781BF229400198169D
:1033E200F429400198127318F92940019616FB2915
:1033F20040019612F318002A40019A14022A400151
:103402009A107319072A40019617092A4001961348
:10341200F3190E2A40011617102A40011613731AC7
:10342200152A40011814172A40011810F31A1C2AF1
:10343200400198141E2A40019810731B232A400150
:103442001815252A40011811740803192B2A400166
:103452001A142D2A40011A1099157708F500F60161
:103462007508F0007608F100B331A22399314001CA
:1034720099111A30890B3B2A003240011812770841
:10348200F500F6017508F0007608F100B331A223C9
:103492009931400118167708F500F6017508F00019
:1034A2007608F100B331A22399310F30400199051A
:1034B2001830980596129A10961316131A100530A2
:1034C200F0000030F100B331A223993178087F393E
:1034D2004401DA0073087F39DB0074080319732A88
:1034E2000130742A0030DC0008004101A801A60165
:1034F200A701B331DB239A3173084101AC00720892
:10350200AB007108AA007008A9002C08A3002B08C0
:10351200A2002A08A1002908A000AE304001D8006C
:103522000030D9000430DA00AC3175249A31AE3063
:10353200FC000030FD00A431F0249A314101AD00BD
:103542002D080319B32A0130A600B331DB239A31C7
:1035520073084101A3007208A2007108A10070085B
:10356200A000CE2A26080319602B2308FB0022089C
:10357200FA002108F9002008F800B43158249A31E1
:103582007B08031D602B7A08031D602B7908031D3D
:10359200602BC83078020318602BAE3086000030F2
:1035A20087004431403F4001AD00413FAE00423F01
:1035B200AF00433FB000B431A3249A312E08BF00BC
:1035C2002D08BE00983101209A31B331C8239A31B7
:1035D200B431F5249A31003A0319F12A02300D2B45
:1035E20041012D080319582B2C08FB002B08FA0067
:1035F2002A08F9002908F800B43158249A317B08C6
:10360200031D0C2B7A08031D0C2B10307802273077
:10361200793B031C102B01304101A700602B4101B3
:103622002C08FB002B08FA002A08F9002908F800E8
:10363200B43158249A317B08031D282B7A08031DC4
:10364200282BE83078020330793B031C582B4101C8
:103652002D0828060319582B2D08A8002D03031D39
:103662003C2BB7304001B400FB30B500F930B60056
:10367200FB30B700552B02302D060319442B843042
:10368200A400FB30472BC730A400FB30A5005B3001
:103692004001B400FA30B500410125084001B700ED
:1036A200410124084001B600B631ED269A310A30B4
:1036B200F0000030F100B331A2239A318E2A410189
:1036C200280803196F2B4B304001B400FB30B500C2
:1036D2004B30B600FB30B700B631ED26410127086A
:1036E2000800A8007308F6000330F636890B762B23
:1036F2007608A70073080739A5000130F600750A9D
:10370200832BF635890B822B7608FF3EA400240812
:10371200F600F701250A8F2BF635F70D890B8D2B55
:103722007608A0007708A10074082405F600F701C6
:10373200250A9D2BF635F70D890B9B2B7608A200E7
:103742007708A300803028020318080004302702FB
:103752000318052C2708F600F7010730F635F70D98
:10376200890BAF2BF030F8002C30F900760878077F
:10377200FA007708793DFB0028087A0786000030B6
:103782007B3D8700200901052204A6002708F600D8
:10379200F7010730F635F70D890BCB2BF030F80027
:1037A2002C30F90076087807FA007708793DFB009B
:1037B20028087A07860000307B3D8700010826062C
:1037C2000319052C2708F600F7010730F635F70D27
:1037D200890BE72BF030F8002C30F90076087807D7
:1037E200FA007708793DFB0028087A078600003046
:1037F2007B3D8700260881002808F0002808F10098
:103802002708B53191259B3125080319080027089F
:10381200013EF600003003180130F7007708803AC5
:10382200F80080307802031D182C04307602031849
:10383200080040012708F600F7010730F635F70DBA
:10384200890B1F2C7030F8002D30F90076087807AC
:10385200FA007708793DFB0028087A0786000030D5
:103862007B3D8700210901052304A6002708F600F5
:10387200F7010730F635F70D890B3B2C7030F80055
:103882002D30F90076087807FA007708793DFB00B9
:1038920028087A07860000307B3D8700010826064B
:1038A200031908002708F600F7010730F635F70D6F
:1038B200890B572C7030F8002D30F9007608780704
:1038C200FA007708793DFB0028087A078600003065
:1038D2007B3D8700260881002808F0002808F100B7
:1038E2002708013EB5319125080044013308031D24
:1038F200902C400168088600690887000108EC00E6
:103902000230EC36890B822C6C08ED00EE016D085A
:103912004101CC0040016E084101CD00952C0130DF
:103922004101CC000030CD004C08D30044013308E3
:10393200031DB22C400168088600690887004131E6
:103942000108EC000230EC36890BA42C6C08ED0067
:10395200EE016D084101CE0040016E084101CF0029
:10396200B72C01304101CE000030CF004E08D40008
:103972005308031DBE2C0130D3005408031DC32C71
:103982000130D400D001D2014001680886006908E4
:103992008700403F4101DA00413FDB00423FDC004B
:1039A2005308F0005208A73E8400FB300318013E82
:1039B20085000008B33150239C31F30040016808B0
:1039C2008600690887000108B431D9249C3141017D
:1039D200DA005408F00052089F3E8400FB300318BE
:1039E200013E85000008B33150239C31F3004001B1
:1039F200680886006908870041310108B431D9247A
:103A02009C314101DB00400168088600690887009B
:103A1200010841015A06031D192D4001680886005C
:103A220069088700413141015B08010603195F2DD6
:103A32005B084001E30041015C084001E4002030E2
:103A4200E500D530E6000030E70041015A08933125
:103A5200C3239C314101D10051080319322D510871
:103A62000800D5304001A0000030A1006B08A3007F
:103A72006A08A200A7315B279C31003A03195F2D27
:103A8200680886006908870041015A08C03F5B0840
:103A9200C13F5C08C23FD53086000030870040013C
:103AA2006A0884006B0885000530EC0016001A00D5
:103AB200EC0B572D01304101D000C52C01304101E2
:103AC200D20708305202031CC52C5008031DC32C18
:103AD2005303031D712D5403031D712D0030080083
:103AE2000230F0000030F1005308013EF2000030D5
:103AF20003180130F300AD3156259C317008D30014
:103B02000230F0000030F1005408013EF2000030B3
:103B120003180130F300AD3156259C317008C22CD8
:103B220001304101CC000130CF004001680886001D
:103B320069088700403F4101D500413FD600423F1E
:103B4200D70040016C080319B02D41014F08F30062
:103B52005608B431D9249D314101D600B92D410115
:103B62004F08F3005508B431D9249D314101D500E5
:103B7200400168088600690887000108410155066E
:103B8200031DCE2D40016808860069088700413177
:103B92004101560801060319F62D56084001E300BB
:103BA200410157084001E4002030E500D030E60032
:103BB2000030E700410155089331C3239D31410193
:103BC200CD004D080319E72D4D080800D030400103
:103BD200A0000030A1006B08A3006A08A200A73170
:103BE2005B279D31003A031DFE2DFE304101CF07B8
:103BF2004F08803A813E0318962D41014F08803AC2
:103C0200813E0318062E0030080040016808860035
:103C12006908870041015508C03F5608C13F57084F
:103C2200C23FD03086000030870040016A0884001D
:103C32006B0885000530ED0016001A00ED0B1D2EF5
:103C420002304101CE004E080319042E40016808DB
:103C5200860069088700403F4101D500413FD600F8
:103C6200423FD70040016C080319472E41014E081C
:103C7200F0004F08B33150239D31F3004101560843
:103C8200B431D9249D314101D600562E41014E084E
:103C9200F0004F08B33150239D31F3004101550824
:103CA200B431D9249D314101D50040016808860014
:103CB20069088700010841015506031D6B2E40016A
:103CC20068088600690887004131410156080106EB
:103CD2000319B52E56084001E3004101570840017F
:103CE200E4002030E500D030E6000030E70041017A
:103CF20055089331C3239D314101CD004D08031D69
:103D0200E52DD0304001A0000030A1006B08A300D7
:103D12006A08A200A7315B279D31003A0319B52E2C
:103D2200680886006908870041015508C03F5608A7
:103D3200C13F5708C23FD0308600003087004001A3
:103D42006A0884006B0885000530ED0016001A0031
:103D5200ED0BA72E41014C080319242E20304E02F0
:103D62000318242E4E35232E4101CC014E0840016A
:103D7200ED000130ED36890BBB2E6D08222EB90005
:103D8200B330C000D82F3608031DD22E4008B00031
:103D92000330B1001330B200FC30B300B4317024F0
:103DA20008004008AB000330AC003608B700B80189
:103DB2003708AD003808AE00AF01B33190239E3111
:103DC2002C08B1002B08B0002E30B200FC30B3003A
:103DD200B431702408004008AB000330AC00360850
:103DE200B700B8013708AD003808AE00AF01B331F3
:103DF20090239E312C08B1002B08B0004A30B2004B
:103E0200FC30B300B431702408004008AB0003302A
:103E1200AC003608B700B8013708AD003808AE006C
:103E2200AF01AF0AB33190239E312C08B1002B08A9
:103E3200B0005C30B200FC30B300B4317024080032
:103E42004008AB000330AC003608B700B8013708B1
:103E5200AD003808AE00AF01B33190239E312C087B
:103E6200B1002B08B0005C30B200FC30B300B431BA
:103E7200702408004008AB000330AC003608F63E60
:103E8200AD00FF3003180030AE00AF01AF0AB3310E
:103E9200902308003608031D522F5230BA00FB301F
:103EA200552F5930BA00FC30BB004008B000033037
:103EB200B1003B08B3003A08B200B43170240800E4
:103EC2004008AB000330AC003608B700B801370831
:103ED200AD003808AE00AF01AF0AB331902308003D
:103EE2004008AB000330AC003608643EAD00003041
:103EF20003180130AE000230AF00B3319023080046
:103F02004008AB000330AC003608B700B8013708F0
:103F1200F0003808F1000A30F2000030F300B4314A
:103F220088249E3171084001AE007008AD00AF01D7
:103F3200B33190239E312C08B1002B08B0004A30D7
:103F4200B200FC30B300B431702408003608031DFF
:103F5200712F4008B0000330B1002930B200FC30AC
:103F6200B300B4317024080036030319C92F03309B
:103F720036060319C02FEB30BE00FB30C32F603072
:103F8200BE00FB30BF003F08BD003E08BC00CD2F85
:103F92000730BC00FC30BD004008B0000330B10067
:103FA2003D08B3003C08B200B4317024080039085F
:103FB200D13E8400FA300318013E85000008003A21
:103FC2000319C42E013A0319EC2E033A0319062FE2
:103FD200013A0319212F073A03193B2F013A03191A
:103FE2004B2F033A0319612F013A0319712F0F3A2C
:0E3FF2000319812F013A0319A72FB52F0800DC
:10400400F00070084401C00008004108860042081E
:104014008700403F4401A400413FA500423FA60061
:104024000130400143020030443B0030453B013045
:10403400463B03182D28400146084501B3004001C2
:1040440045084501B200400144084501B100400162
:1040540043084501352801304501B3000030B20062
:104064000030B1000030B00033084001B000450119
:1040740032084001AF00450131084001AE0045015E
:1040840030084001AD00A231EC22A0312E084401D9
:10409400B20040012D084401B100400141088600EE
:1040A4004208870041310108F300410886004208B4
:1040B400870042310108F400410886004208870065
:1040C40001089931B5210800A901A801AA01AB0191
:1040D4002030F8002B08B7314427A031003A0319E7
:1040E40085284001290803197F282008FD00280895
:1040F400FD0280307D02031885282008A8002B08C3
:10410400AA000130A90001304001AB0710302B0296
:10411400031C6A282908031D95280F304401B800A0
:10412400B701003008002030F8002A08B7314427CE
:10413400A03140012A084401B8004001200844018C
:10414400B7004F30F3000230F40040012108F500BD
:104154002208F6008731E227A03123080319B42886
:104164000130B52800304401D5005230F30002304C
:10417400F40040012408F5002508F6008731E22701
:1041840026084401D600013008004001CA004A084C
:104194000319DC2844015508031DDC285A08D20001
:1041A4005B08D3005C08D4000130D500F301F401AE
:1041B4000030EA2840014A08031D0800440155085C
:1041C40003190800D5015308F3005408F4005208F9
:1041D4009931B521A031B3311F23A03144015508D1
:1041E400031D0B295608031DFB284001C601C70106
:1041F40003295608643E4001C6000030031801300C
:10420400C70047084401B000400146084401AF001C
:104214000D29AF01B001B631C226A03144015508C1
:10422400031D192919304001C800FC301D29003034
:104234004001C800FC30C9004908BF004808BE005E
:104244002030C0000330C100A831B6204401CA01A7
:104254000800BB00300884003108850012000319EF
:10426400080030088400310885000008B531512564
:10427400A13177084001B6007608B500BD010A30C7
:104284003D02031C4829B701B8015C293D08B2006E
:104294000130B236890B4B293208350784003608C1
:1042A4000318013E85000008B300B4013308B700C9
:1042B4003408B8003708BC003C080F39B531312543
:1042C400A131B9003C08B2000430B236890B672929
:1042D4003208B5313125A131BA003B08F300390861
:1042E400F4000830F5002F083D079B317223A131FB
:1042F40040013B08083EF3003A08F4000830F5009A
:104304002F083D079B317223A13101304001BD07C5
:104314000C303D02031C41290130B0070030B13D8F
:104324000C30AF072C29AA319822A1317708B300A9
:104334007608B200B431BE24A1314001B40134087E
:10434400233E860087013408203EB3311323A13174
:10435400810001304001B4070F303402031CA1294D
:104364005E302306031D080033082406031D0800DD
:1043740025083206031D08002F30B3311323A13161
:10438400FD002330F0000F30F100B7317127A13167
:104394007D06031D08004001B4013408033E233E9A
:1043A400860087013408F53E8400FA300318013E84
:1043B400850000080102031CFD293408033E233E46
:1043C400860087013408E93E8400FA300318013E70
:1043D40085000008FD0001087D02031CFD29340846
:1043E400A03E8600023087003408033E233E84004A
:1043F4008501000881000130B4070C303402031831
:104404000800CF29AB010130A0000030A1002B0A25
:104414000D2AA035A10D890B0B2A45016E08400118
:104424002005A20045016F0840012105A3002208D0
:10443400230403196C2A0330F0002B08B3315023F2
:10444400A2313C3E86000330870001084001A400ED
:104454000330F0002B08B3315023A2313C3EF3006B
:104464000330F400B4314124A2314001A5002B08EB
:104474002C3E8600033087000108A6002B08203E4E
:104484008600033087000108A7002430F0000430C0
:10449400F100B7317127A2314001A8000530F000C6
:1044A4002B08B3315023A231303E4001A900AA01A8
:1044B4002A08243E860087010108F80029082A07F3
:1044C400B531F825A23101304001AA0705302A028E
:1044D400031C5A2A0130AB070C302B02031C052A9B
:1044E4004501EE01EF010800AA0140012A08233E1C
:1044F400860087010A30F0000030F1007A08F300EA
:104504007908F200B6316E26A2317008303E81007F
:104514000130AA070A30F0000030F1007A08F300F5
:104524007908F200B731CE27A2317108FA00700879
:10453400F9002A087B06031DA72A2A08233E8600C1
:1045440087012E3081000130AA0779087A04031DFF
:10455400772A7B080319CD2A7B08013EA00000308E
:1045640003180130A1002108803AA2008030220201
:10457400031DBE2A2A082002031CCD2A772A7708A5
:10458400860078088700203081000130F70700306A
:10459400F83D0130FC027C0840012A020318E32A9A
:1045A400C12A77088600780887000130AA022A0801
:1045B400233E84008501000881000130F7070030A4
:1045C400F83D2A08031DD32A770886007808870057
:1045D400810108003008F3002F08F2002E08F100D2
:1045E4002D08F000A5318025A2317108C0007008A3
:1045F400BF0010304002003003193F02031C082B97
:10460400E7304001AD000330AE0008000030B100D7
:104614001030B2003F083102A0004008323BA10034
:10462400A201A3010030B3001030B4003F083302EC
:10463400B5004008343BB600B636B50C3508B700B3
:104644003608B800B901BA013F08003EF000103046
:10465400403DF100F201F3010030F7000030F600B4
:104664000030F5006430F400B7319F27A2317008A0
:104674004001B7077108B83D7208B93D7308BA3DE7
:104684003A08A7003908A6003808A5003708A4008E
:10469400AD31F025A2312308BE002208BD00210857
:1046A400BC002008BB003E08031D022B3D08031D6F
:1046B400022BE8303B0203303C3B0318022B400141
:1046C4003C08AE003B08AD000800D000B631982687
:1046D400A3310C30400150020318B92B4430AB0015
:1046E4000030AC005008013EAD000030031801302A
:1046F400AE00AF01B3319023A3312C08B1002B08D5
:10470400B0004630B200FC30B300B4317024A331A1
:10471400A9014430AA000030AB000030AB31A32320
:10472400A331A9015008C100C201C135C20D9430A2
:10473400410784007930423D80388500003FAA005B
:10474400013FAB000830AB31A323A3315008A03E96
:104754008600023087000108B60050089E31C0264A
:10476400A331AF01B330B0000330B100E02BA90195
:10477400B830AA00FA30AB000030AB31A323A33128
:104784000C3050060319D72B0D3050060319CE2BCD
:104794003330CE00FC30D12B1930CE00FB30CF00AB
:1047A4004F08CD004E08CC00DB2B2430CC00FC306D
:1047B400CD00AF014D08B1004C08B0001230A1315A
:1047C4002B21A331B331C82308004301ED01450176
:1047D400EE01EF014001A7010530F0002708B331D5
:1047E4005023A331303E4001A000A6012608213EFB
:1047F4008600870120082607B3311323A3318100E3
:1048040001304001A60705302602031CF82B0330B3
:10481400F0002708B3315023A3313E3E8600033015
:10482400870081010330F00040012708B331502391
:10483400A3313D3E86000330870081010330F00040
:1048440040012708B3315023A3313C3E8600033096
:10485400870081012130F0000430F100B731712765
:10486400A33140012506031D622C2108031D3E2CA3
:1048740022087F390319622C0330F0002708B33172
:104884005023A3313C3EF3000330F40040012108DF
:10489400F5002208F6008731E227A33127082C3ED1
:1048A400860003308700230881002708203E860005
:1048B40003308700240881002708013E4301ED00EE
:1048C40001304001A7070C30270203180800EE2B23
:1048D4000B307D02B83003197C020318752CB830F4
:1048E400FC000B30FD0010307D02693003197C029E
:1048F400031C802C6830FC001030FD0000304001A7
:10490400A3000030A2000430A100B030A0007C0855
:10491400483EF000F4307D3DF100F201F301003037
:10492400F7000030F6000030F5001A30F400B7311B
:104934009F27A43173084001A7007208A6007108DC
:10494400A5007008A400AD31F025A4312008AE0004
:104954007330B000B101AF01B2013108AD000330D2
:10496400AD35890BB22C2D083207F0002E08F1006A
:104974003008AD310A25A431003A0319CB2C01309B
:104984004001AD00320AC72CAD35890BC62C2D0869
:10499400AF0401304001B20708303202031CAF2CCF
:1049A4003108AD000330AD35890BD52C2D08F3004B
:1049B4002F08F4000830F50030089B317223A4312D
:1049C40001304001B10704303102031CAD2C013029
:1049D400B0077E30300203180800AC2C7C08860037
:1049E40087014431433F031D082D403F4001A0008F
:1049F400A0302002413FA0008630203B423FA0006F
:104A04000130203B0318082D01300800450123081C
:104A14004001A000A101A201A3012308F300220880
:104A2400F2002108F1002008F0000030F700013006
:104A3400F6008630F500A030F400B7319F27A4318A
:104A44007C08860087014431403F4001A400413F77
:104A5400A500423FA600433FA70073082702031D99
:104A64003D2D72082602031D3D2D71082502031DEC
:104A74003D2D700824020318412D02300800450121
:104A840024084001A000A101A201A3012308F3000E
:104A94002208F2002108F1002008F0000030F7009D
:104AA4000F30F6004230F5004030F400B7319F2754
:104AB400A43170084001A4007108A5007208A60082
:104AC4007308A7007D08F1007C08F000AE31E926E8
:104AD400A431730840012702031D7A2D72082602AF
:104AE400031D7A2D71082502031D7A2D70082402F6
:104AF40003187E2D03300800003008000030A300A6
:104B04000030A2000030A1000030A0004030A70017
:104B14000030A6000030A5000030A400270873026E
:104B2400031D9E2D26087202031D9E2D2508710269
:104B3400031D9E2D2408700203180E2E0230A73682
:104B4400A60CA50CA40C890BA12D902D20082407DC
:104B5400F4002108253DF5002208263DF60023082F
:104B6400273DF70077087302031DC22D76087202F1
:104B7400031DC22D75087102031DC22D7408700235
:104B8400031C002E20082407F4002108253DF5000D
:104B94002208263DF6002308273DF7007408F0029A
:104BA4007508F13B7608F23B7708F33B2408F400E0
:104BB4002508F5002608F6002708F7002008F80065
:104BC4002108F9002208FA002308FB000130FB3613
:104BD400FA0CF90CF80C890BE92D7808F40779081C
:104BE400F53D7A08F63D7B08F73D7708A300760883
:104BF400A2007508A1007408A000072E0130A33696
:104C0400A20CA10CA00C890B012E0230A736A60C15
:104C1400A50CA40C890B082E2708260425042404BB
:104C2400031DA82D2108F1002008F000080044010C
:104C340040080319222E4008F400C001740808003B
:104C44008B1340016F08F10044014508F300C501CE
:104C540043016E08F00044014408F200C4018B17BC
:104C6400F40173080319532E4308031D3F2EFA3031
:104C74007302031C3F2E0330502E4308031D482E9D
:104C840019307302031C482E0230502E4308031DB2
:104C9400512E03307302031C512E0130F400C20163
:104CA400C30119307102031C642E4308031D642ED2
:104CB4000130C30074080319622E0230C000642E50
:104CC4000230F400FA307102031C752E4208031DF1
:104CD400752E0130C20074080319732E0330C0000E
:104CE400752E0330F400720803198C2E0230720200
:104CF400031C8B2E0A30720203188B2E4008031DEE
:104D04008B2E74080319892E0430C0008B2E0430B6
:104D1400F400C10114307002031CA42E4108031DC9
:104D2400A42E40010F1DA42E01304401C1007408BB
:104D3400031D9F2E0530F400A42E4008031DA42E4D
:104D44000530C0007108031DAD2E7308031DAD2E80
:104D54004401C201C3017008031D202E7208031D03
:104D6400202E4401C101202E7508860001308700E1
:104D7400023001020318C62E750886000130870030
:104D84000108810AFA00252F740886000130870083
:104D9400403F4001A000413FA100423FA200433FE9
:104DA400A3007408053E860001308700403FA4003C
:104DB400413FA500423FA600433FA7002308270226
:104DC400031DEE2E22082602031DEE2E21082502C5
:104DD400031DEE2E20082402031CF22E0130F32EB4
:104DE4000030FA000530F0007A08B3315023A631C0
:104DF40074074001A0002008860001308700403F6E
:104E0400A100413FA200423FA300433FA400780811
:104E1400860079088700403FA500413FA600423F35
:104E2400A700433FA80024082802031D232F2308BA
:104E34002702031D232F22082602031D232F2108E6
:104E44002502031808007608860077088700403F8B
:104E54004001A000413FA100423FA2000330F00006
:104E64007A08B3315023A63173074001A300230805
:104E74008600013087002008C03F2108C13F220876
:104E8400C23F78088600790887000530F0007A0868
:104E9400B3315023A63174074001A00020088400D8
:104EA400013085000530A10016001A00A10B562F11
:104EB4000800FF30A400FF30A500FF30A6001F301B
:104EC400A7002208860023088700443120088400B4
:104ED40021088500043100080107A800A901A90DD3
:104EE400290DA90CA80C290DA90CA80C2808AA00A6
:104EF4002908AB000030AB1BFF30AC00AD002A0822
:104F0400A4052B08A5052C08A6052D08A705013026
:104F14002407B4000030253DB5000030263DB6001E
:104F24000030273DB7002208860023088700403F51
:104F3400A400413FA500423FA600433FA7004030E4
:104F4400A8000030A9000030AA000030AB002008FF
:104F5400860021088700403FAC00413FAD00423F3E
:104F6400AE00433FAF002208860023088700403F7D
:104F7400B000413FB100423FB200433FB3000830AC
:104F8400B336B20CB10CB00C890BC22F3308F3004A
:104F94003208F2003108F1003008F0003708F70059
:104FA4003608F6003508F5003408F400B7319F27B9
:104FB400A73170084001AC077108AD3D7208AE3DE1
:104FC4007308AF3D2C08A8072D08A93D2E08AA3D5B
:104FD4002F08AB3D27082B02031DFA2F26082A02AF
:104FE400031DFA2F25082902031DFA2F240828027D
:104FF4000318FE2F01300800003008004708BF00E6
:105004004608BE004908C1004808C000A831B620BF
:10501400A831B331C823A83140014908F100480838
:10502400F000B331A223A831B43103240800F00006
:10503400F201F01F20284001161522284001161104
:105044001A30890B23280032400196151A30890B37
:1050540029280032400196110310F00D0130F207A7
:1050640008307202031C1B2816151A30890B3828C5
:105074000032400196151A30890B3E280032400157
:105084000C0C890C0139F10096111A30890B48284F
:105094000032710808004001CA01CB015001931885
:1050A40057284001CA01CB016E2813185E28963098
:1050B4004001CA00FB306D28131A6528BF30400137
:1050C400CA00FB306D28931B6928131F6E285630C5
:1050D4004001CA00FB30CB003F3050019300400137
:1050E4004A084B04031908004B08C7004A08C600C5
:1050F400D030C8000730C900A83100200800B631FC
:105104009826A8314001AF015230B000FC30B10004
:105114000030A1312B21A8312A30AF006130B0001A
:10512400FC30B1000030A1312B21A8316030AF0038
:105134005D30B000FC30B1000030A1312B21A8312A
:10514400B631C226A83144016D08FD006C08FC008C
:10515400A4316A24FF304401E800FF30E900690803
:10516400EB006808EA000800AF014230B000FB30F1
:10517400B1001230A1312B21A831AF013F08B10099
:105184003E08B0001230A1312B21A8310130440176
:10519400CB0040014008C2004108C300C401C5015E
:1051A400B331DB2370084001C2077108C33D7208A4
:1051B400C43D7308C53D45084501D300400144087A
:1051C4004501D200400143084501D1004001420895
:1051D4004501D00008007E01B8010730C300CE01AC
:1051E400D901E4015301901394134001960118303E
:1051F400970010309800063099009A0191012730E9
:1052040092009301940195017E013A15BA15DB14BD
:105214005B151A304F019600FE3097004730980016
:105224007F30990077309A00DF309B004530400191
:105234009F009E01F9309D009C014E018C12961630
:1052440040019E178B170800F4007408F100F20166
:10525400F135F20D7C30710784007930723D80386D
:105264008500003FF500013FF600F7017408C53ED4
:105274008400FA300318013E850000087702031801
:105284005A2977087507840076080318013E8500BB
:1052940000087002031857297708750784007608F8
:1052A4000318013E8500000808000130F70738297B
:1052B4007508840076088500000808004401690820
:1052C40040013F06031D6A294401680840013E0667
:1052D4000319080044014B08031D080040013F085E
:1052E4004401E90040013E084401E80040013E0851
:1052F4003F04031991293C30AF003F08AC003E083D
:10530400AB000230AD000430AE00B3316E23A931DE
:10531400B0000330B1001230A1312B2108003C3021
:10532400AF003830B000FC30B1001230A1312B2175
:105334000800FD007D08031DA629400116129611E0
:1053440016114401BF01080040011616C830F000D0
:105354000030F100B331A223A9314401BE01AC31C4
:10536400BF24A9314401BD00B331DB23A931730843
:10537400BF007208BE007108BD007008BC00013097
:105384004401BF00B4311724A931B331C823A93172
:1053940044013D08031D0800B3310123A931003A3B
:1053A4000319080001304401BD000800AA31982205
:1053B400A9317708B3007608B2005E30A300330841
:1053C400A4003208A500B4013408033E233E86003D
:1053D40087013408A03E8400023085000008810063
:1053E4000130B4070C303402031CE629B40134083C
:1053F400233E860087010108F8003408203EB531B9
:10540400F825A93101304001B4070F303402031CE0
:10541400F9292330F0000F30F100B7317127A93199
:10542400F8002F30B531F825080071087302031D08
:105434001D2A70087202031C252A70087202FA00E1
:105444007108733B2A2A72087002FA007308713BD0
:10545400FB0071087302031D312A70087202031CD9
:10546400372A7308FD0072083A2A7108FD00700893
:10547400FC007D08F7007C08F600F736F60CF736DA
:10548400F60CF736F60C74087607F8007508773DC5
:10549400F9007B087902031D512A7A087802031C5B
:1054A400552A0130080000300800A0000230F70738
:1054B4002008B03EA10077080F39A2007708FB004E
:1054C4000430FB36890B632A7B081038A300213093
:1054D400F3000030F4000330F500B531B325AA31F0
:1054E4004001A400B331EF23AA317830A831192048
:1054F400AA314001A4044030A8311920AA31013056
:10550400FA027A0A0319932A780884007908850034
:105514000008A8311920AA310130F8070030F93DFC
:10552400812AB331B5234001240808005A304001D0
:10553400A200A530A000A101FF30F0000030F1006E
:105544002108703E8400F7300318013E85000008EE
:10555400F80022087807F200F301F30DAB311C23A5
:10556400AA317008A200FF30F0000030F1002008DA
:105574002207F200F301F30DAB311C23AA317008AA
:10558400A0000130A1070C302102031C9E2A22082E
:10559400F800F9012008FA00FB017A08FB00FA017F
:1055A40078087A04F60079087B04F7000800AE3125
:1055B4009326AA316D08FD006C08FC00A4316A240E
:1055C400AA310E3044016D02753003196C02031CBC
:1055D400EE2A40019711FA2A0E306D0207300319A2
:1055E4006C02031CF82A40019711F92A4001171292
:1055F40001304401CC00B331DB23AA317308D70056
:105604007208D6007108D5007008D4000D3044012A
:105614006D02483003196C02031C122BC7010800E9
:105624000130C70703304702031C0800C7010230DA
:10563400C8000800F501F31F262BF209F309F20A4A
:105644000319F30A0130F500F11F2D2BF009F109BC
:10565400F00A0319F10A700871040319522B01307E
:10566400F400F11B3D2B0130F035F10D890B362B85
:105674000130F407332B71087302031D432B7008A8
:105684007202031C492B7008F2027108F33B0130CB
:10569400F136F00C890B4A2B0130F402031D3D2B2B
:1056A400750803195A2BF209F309F20A0319F30ACC
:1056B4007308F1007208F00008007408F60073081B
:1056C400F5000730F636F50C890B642B2530F00015
:1056D4007308B3315023AB317506FB00862B7B086E
:1056E400F500F601F535F60DF030F7002A30F80034
:1056F4007508770786007608783D87001600010450
:105704000319A12B0130FB077B08F500F601F535E1
:10571400F60DF030F7002A30F80075087707860098
:105724007608783D8700403FF900413FFA0074084D
:105734007A06031D9F2B73087906031D712B7B08C2
:105744000800B0002A0884002B0885001200031901
:1057540008002A0884002B0885000008B53151256B
:10576400AB3177084001AF007608AE00B3010530D5
:105774003302031CC02BB101B201CE2B33082E0718
:1057840084002F080318013E85000008AC00AD0119
:105794002C08B1002D08B2003008F3003108F400E1
:1057A4000830F500290833079B317223AB310130EF
:1057B4004001B30706303302031CB92B0130AA079A
:1057C4000030AB3D0630A907A42BF7007308F400A2
:1057D4000430F436890BEB2B0A3074020318F92BCE
:1057E4000F307305F4000A307402031C022C77088E
:1057F400DD3E8400FA300318013E850000080800ED
:105804000F307305F4000A30F0007308F50004301B
:10581400F536890B0A2C7508B3315023AB31740764
:10582400F6007708F53E8400FA300318013E85003F
:1058340000087602031CF92B7708E93E8400FA304D
:105844000318013E85000008F40076087402031C66
:10585400F92B76080800B6319826AC311D3040018A
:10586400AF00F230B000FB30B1000030A1312B2189
:10587400AC310D30A900FD30AA00F930AB0018306E
:10588400AB31A323AC31B331C823AC314001971100
:10589400D030F0000730F100B331A223AC31B6317F
:1058A4009826AC3111304001AF006930B000FB30B4
:1058B400B1000030A1312B21AC310D30A9000F30E3
:1058C400AA00FA30AB001830AB31A323AC31B331AA
:1058D400C823AC31D030F0000730F100B331A2233B
:1058E40040019715080064004401B90140015A08B9
:1058F400FC00083090310720AC317D08DC007C08C6
:10590400DB005A08FC000A3090310720AC317D08D6
:10591400DE007C08DD005A08FC000A3090310720C4
:10592400AC317D08E0007C08DF005A08FC00083038
:1059340090310720AC317D08E2007C08E100590871
:10594400AE005808AD005C08B0005B08AF005E080C
:10595400B2005D08B1006008B4005F08B3006208DB
:10596400B6006108B500803196205808860087018A
:105974005231440139088100080001304001A70078
:10598400B5317125AC314001A601E02C6030F30043
:10599400F930F4001C30F500B531B325AC314001C9
:1059A400A70027080319DD2C6430F0000030F10053
:1059B400B331A223AC3101304001A6070A302602DC
:1059C4000318E72C2708031DC82C27080319EC2CFF
:1059D400270808000430A500A6012608FE3EF700AB
:1059E4002130F800FA30F9001030FA002508AA3105
:1059F4005722AC31A7041030A60780302602031CBE
:105A0400EF2C0130A507083025020318EA2CEE2CF0
:105A1400F6000230700203181C2DF5017630760270
:105A2400031C1A2D7B30760203181A2D0130F50061
:105A3400750808000230700603192C2D1F307006FB
:105A440003192C2D75307602031C2C2D7C30760224
:105A5400031C2E2D013008007530760603193E2DE7
:105A64007B30760603193E2D0330700603193E2D54
:105A74001E307006031D402D003008000030F30076
:105A840071081D3CF200031CF3037308803AF40010
:105A940080307402031D502D700872020318542DB7
:105AA4000130080000300800F501F11F602DF009F5
:105AB400F109F00A0319F10A0130F500F31F692D09
:105AC400F209F309F20A0319F30A0130F506F601A3
:105AD400F701700871040319962D0130F400F11BCD
