:1000000080314228A0340F347E14803100308600C5
:10001000003087004E018C1E40288C1201304501B3
:10002000B0070030B13DB23DB33D01304401B407EB
:100030000A303402031C4028B40140018D1A2628DE
:100040006F0A03192E280130EF072E286F080319B5
:100050002E286F084401C3004001EF018F18372894
:1000600043016C0A031940280130EC074028430182
:100070006C08031940286C084401C2004301EC01DC
:100080007E100900803144284301803102208031F4
:10009000ED00803103208031EE0044018731FF27DD
:1000A0008031EF004501B231C9228031EC00B2311C
:1000B000CA228031ED00B231CB228031EE00B23164
:1000C000CC228031EF00F0308400283085000030F1
:1000D000FE000730FF00B231FF2280314001EF0106
:1000E0004301E901EA01EB01EC0120308400023018
:1000F00085003B30FE000030FF00B231FF2280312E
:10010000A0308400023085004C30FE000030FF003B
:10011000B231FF22803120308400033085004C3022
:10012000FE000030FF00B231FF228031A030840099
:10013000033085001E30FE000030FF00B231FF2288
:100140007E1040018331C92B0130B7000030B80068
:100150000030B9000030BA003508BB003608BC00DA
:10016000BD01BE012F08BF003008C000C101C2019F
:100170003F08BB074008BC3D4108BD3D4208BE3DAD
:100180003B08B7073C08B83D3D08B93D3E08BA3DBD
:100190000130BA36B90CB80CB70C890BC9282D0838
:1001A00086002E0887003708C03F3808C13F01305D
:1001B000B7000030B8000030B9000030BA00330892
:1001C000BB003408BC00BD01BE013108BF003208CD
:1001D000C000C101C2013F08BB074008BC3D410847
:1001E000BD3D4208BE3D3B08B7073C08B83D3D0851
:1001F000B93D3E08BA3D0130BA36B90CB80CB70C5F
:10020000890BFC282D088600870142313708C03F42
:100210003808C13F2D0886002E088700403FB700F0
:10022000413FB8003708F0003808F100F201F3014F
:10023000450127084001B900BA01BB01BC013C08D7
:10024000F7003B08F6003A08F5003908F400983149
:100250000120803173084001D3007208D200710878
:10026000D1007008D0002D0886002E088700403F7E
:10027000B700413FB8003708F4003808F500F60130
:10028000F7012D0886002E088700403FB900413F46
:10029000BA003908F0003A08F100F201F301983190
:1002A0000120803170084001BB007108BC00720859
:1002B000BD007308BE000630BE36BD0CBC0CBB0CC6
:1002C000890B5C293E08D7003D08D6003C08D500C4
:1002D0003B08D4005308F3005208F2005108F10023
:1002E0005008F0000030F7000030F6000030F50054
:1002F0001930F40098310120803170084001B700B6
:100300007108B8007208B9007308BA000130BA3633
:10031000B90CB80CB70C890B87290030A30000304A
:10032000A2000030A1006430A0005708F300560876
:10033000F2005508F1005408F00045012808643E19
:10034000F400003003180130F500F601F51BF60348
:100350007608F70098310120803173084001A7002A
:100360007208A6007108A5007008A400AD319D2593
:1003700080312008B7072108B83D2208B93D23087D
:10038000BA3D2D088600870144313708C03F380840
:10039000C13F3908C23F3A08C33F2D088600870194
:1003A0004231403FB700413FB8003708F0003808FD
:1003B000F100F201F301450127084001B900BA013B
:1003C000BB01BC013C08F7003B08F6003A08F50009
:1003D0003908F40098310120803173084001D300BE
:1003E0007208D2007108D1007008D0002D08860074
:1003F00087014231403FB700413FB8003708F40061
:100400003808F500F601F7012D0886008701423112
:10041000403FB900413FBA003908F0003A08F10006
:10042000F201F30198310120803170084001BB00D6
:100430007108BC007208BD007308BE000630BE36ED
:10044000BD0CBC0CBB0C890B1F2A3E08D7003D0815
:10045000D6003C08D5003B08D4005308F3005208EE
:10046000F2005108F1005008F0000030F7000030B1
:10047000F6000030F5001930F40098310120803189
:1004800070084001B7007108B8007208B90073081D
:10049000BA000130BA36B90CB80CB70C890B4A2A2D
:1004A0000030A3000030A2000030A1006430A000A2
:1004B0005708F3005608F2005508F1005408F00000
:1004C00045012808643EF400003003180130F500AF
:1004D000F601F51BF6037608F7009831012080310C
:1004E00073084001A7007208A6007108A5007008F3
:1004F000A400AD319D2580312008B7072108B83D03
:100500002208B93D2308BA3D2D08860087014831ED
:100510003708C03F3808C13F3908C23F3A08C33FD7
:100520002D08860087014431403FF000413FF10033
:10053000423FF200433FF3002D0886008701483117
:10054000403FF400413FF500423FF600433FF700D3
:10055000AF31432780312D08860087014C31700868
:10056000C03F7108C13F7208C23F7308C33FCD014D
:100570003008F1002F08F0003608F3003508F200CB
:100580001830F4000030F500A931C2218031003A62
:100590000319DE2A3208F1003108F0003408F300B4
:1005A0003308F2001830F4000030F500A931C22100
:1005B0008031003A0319DE2A0130CD002D08860073
:1005C000870150314D08810030083602031DEA2AA8
:1005D0002F083502031C1F2B35083604031DF32A90
:1005E000C501C6011B2B3508A0003608A100A201D9
:1005F000A3012F083502B7003008363BB800370892
:10060000B9003808BA00BB01BC010830B935BA0DD1
:10061000BB0DBC0D890B062B3C08A7003B08A600B0
:100620003A08A5003908A400AD319D258031210884
:10063000C6002008C5004608C4004508462B2F0800
:10064000A0003008A100A201A30135082F02B700C5
:100650003608303BB8003708B9003808BA00BB018B
:10066000BC010830B935BA0DBB0DBC0D890B322B5E
:100670003C08A7003B08A6003A08A5003908A400DA
:10068000AD319D2580312108C4002008C300320807
:100690003402031D4D2B31083302031C822B330817
:1006A0003404031D562BC901CA017E2B3308A00058
:1006B0003408A100A201A30131083302B7003208B7
:1006C000343BB8003708B9003808BA00BB01BC0198
:1006D0000830B935BA0DBB0DBC0D890B692B3C0830
:1006E000A7003B08A6003A08A5003908A400AD31D0
:1006F0009D2580312108CA002008C9004A08C80089
:100700004908A92B3108A0003208A100A201A301C9
:1007100033083102B7003408323BB8003708B9005B
:100720003808BA00BB01BC010830B935BA0DBB0DA1
:10073000BC0D890B952B3C08A7003B08A6003A0886
:10074000A5003908A400AD319D2580312108C800DD
:100750002008C70043084707CE004408483DCF00A3
:1007600001304F02003003194E020318BE2B4E0811
:10077000B700B8013708CB003808C12BFF30CB00D9
:100780000030CC002D088600870151314B088100D4
:100790000800A831982083314301E70150019318E4
:1007A0001318D52B01304301E70043016708E60029
:1007B000A13196218331B3311A238331AE3193268F
:1007C0008331A331E8238331A03167208331003A9C
:1007D0000319FB2B4D08D8004E08D9004F08DA004A
:1007E00043016608031D062C44014E08F3004F0820
:1007F000F4004D08032CD301D401D201D101D00162
:10080000F301F40100309831E820833144015408A9
:10081000031D0D2CAF01B001142C5408643EAF0031
:10082000003003180130B000400119158831002054
:100830008331B731CC27833150010C14B331962367
:1008400083317308DB007208DA007108D900700880
:10085000D8005B08DF005A08DE005908DD005808A0
:10086000DC005F08E3005E08E2005D08E1005C0870
:10087000E0006308E7006208E6006108E500600840
:10088000E4006400A631192683314301E8006803BF
:1008900003194E2C02306806031D782CB231C62293
:1008A0008331003A031D782CB331E72383314301B0
:1008B000E801782CB331E723833144015308031D49
:1008C000632C0130642C0030A031C82083318A2C85
:1008D00092312F2283318A2C01304401C6008A2CA8
:1008E000B331E72383310130A031C82083318A2C12
:1008F00043016808013A03195A2C033A0319682C7A
:10090000013A03196C2C073A0319702C013A0319A8
:10091000682C8A2C45016308FB006208FA00610814
:10092000F9006008F800B431132483317B08031DFB
:10093000A32C7A08031DA32C7908031DA32C3230A5
:100940007802031CB12CB331962383317308E30082
:100950007208E2007108E1007008E0009031B620F2
:100960008331440147080319B92CC70192312F2262
:10097000833145015F08FB005E08FA005D08F9005D
:100980005C08F800B431132483317B08031DD22C9A
:100990007A08031DD22C7908031DD22C96307802D8
:1009A000031CE02CB331962383317308DF007208F7
:1009B000DE007108DD007008DC00B531C825833128
:1009C00045016708FB006608FA006508F90064083D
:1009D000F800B431132483317B08031DF82C7A0806
:1009E000031DF82CB83078020B30793B031C062D20
:1009F000B331962383317308E7007208E60071086B
:100A0000E5007008E400AB314F23833144014A080C
:100A10000319282D45015308FB005208FA0051081C
:100A2000F9005008F800B431132483317B08031D0A
:100A3000232D7A08031D232D7908031D232D1E3035
:100A40007802031C282D4401CA014001971517168E
:100A5000440149080319472DB331962383314C08CB
:100A600070024301DE0045014D08713B4301DF0088
:100A700045014E08723B4301E00045014F08733BBE
:100A80004301E100E11B472DB331BE238331450112
:100A90005B08FB005A08FA005908F9005808F800EA
:100AA000B431132483317B08031D5F2D7A08031DA5
:100AB0005F2D303078027530793B031C6D2DB331DA
:100AC000962383317308DB007208DA007108D900BD
:100AD0007008D800B231C3228331B231C6228331CB
:100AE000003A0319BA2D450120080319BA2D5708F9
:100AF000FB005608FA005508F9005408F800B43114
:100B00001324833178084301DE007908DF007A0876
:100B1000E0007B08E100450120084301E200E30119
:100B2000E401E5016508F3006408F2006308F100E0
:100B30006208F0000030F7000030F600EA30F500FF
:100B40006030F40098310120833173084301610261
:100B5000031DB42D72086002031DB42D71085F02DD
:100B6000031DB42D70085E02031CBA2D0030A9319C
:100B700046218331450121080319002E5708FB0047
:100B80005608FA005508F9005408F800B431132447
:100B9000833178084301DE007908DF007A08E0003D
:100BA0007B08E100450121084301E200E301E40183
:100BB000E5016508F3006408F2006308F1006208CB
:100BC000F0000030F7000030F600EA30F500603049
:100BD000F400983101208331730843016102031D41
:100BE000FB2D72086002031DFB2D71085F02031DBF
:100BF000FB2D70085E02031C002E03304401C6006A
:100C0000440146080319592E0330460203182E2EBC
:100C1000B331E7238331B6318B2683314401460358
:100C2000031D192E0B304001AF004C30B000FB30DB
:100C30001F2E11304001AF009630B000FB30B100E4
:100C40000930A1312C218331B33183238331DC304E
:100C5000F0000530F100B3315D2383314401C6015A
:100C6000AD3150258331883100208331B331962353
:100C700083317308DB007208DA007108D90070084C
:100C8000D8005B08DF005A08DE005908DD0058086C
:100C9000DC005F08E3005E08E2005D08E1005C083C
:100CA000E0006308E7006208E6006108E50060080C
:100CB000E400983130208331412C5E084001E90086
:100CC00041015D084001E800410160084001EB007E
:100CD00041015F084001EA009C31762486314201DF
:100CE000AA002A080319762E2A080800A901290853
:100CF000031D812E41015D0886005E088700413199
:100D0000862E41015D0886005E0887000108E1002B
:100D1000E20161084201A000410162084201A10014
:100D20002008A60044013108031DA92E420126080F
:100D30004101E1000230E136890B9B2E6108E2009F
:100D4000E30162084201A200410163084201A300DD
:100D5000AE2E01304201A2000030A3002208A600FE
:100D6000023026020318B92E0130A4000030A5007D
:100D7000C42E26084101E100E20161084201A400FD
:100D8000410162084201A5002408A7000130A80023
:100D900041015D0886005E088700403F4201B000C7
:100DA000413FB100423FB20029080319E62E27084F
:100DB000F0002808B3310B238631F30042013008DC
:100DC000B431AD2486314201B000F42E2708F00082
:100DD0002808B3310B238631F30042013108B431C6
:100DE000AD2486314201B10041015D0886005E08F4
:100DF0008700010842013006031D092F41015D08EB
:100E000086005E088700413142013108010603195E
:100E1000642F31084001E300420132084001E40040
:100E20002030E5002B30E6000130E70042013008B9
:100E30009331C12386314201AA002A08031D742E72
:100E400030304001E8000130E9002B30EA00013089
:100E5000EB00420129084001EC009D3191258631CB
:100E60004201AA002A08031D742E2B304001A00065
:100E70000130A100410160084001A30041015F0869
:100E80004001A200A7315B278631003A0319642F85
:100E900041015D0886005E08870042013008C03FBE
:100EA0003108C13F3208C23F2B3086000130870035
:100EB00041015F088400600885000530E1001600EC
:100EC0001A00E10B5F2F5D2EFE304201A8072808B3
:100ED000803A813E0318C82E02302702031C7A2F65
:100EE00027084101E1000130E136890B742F6108C8
:100EF0004201C52E0130A90702302902031C772EBA
:100F000041015D0886005E088700403F4201B00055
:100F1000413FB100423FB2000130B206310840010A
:100F2000E300420132084001E4002030E5002B30AC
:100F3000E6000130E700420130089331C1238631D9
:100F40004201AA002A08031D742E41015F08860091
:100F500060088700403FE100413FE200423FE3007C
:100F6000433FE4000130E135E20DE30DE40D890B70
:100F7000B32F640842012E02031DCE2F41016308E6
:100F800042012D02031DCE2F4101620842012C02B5
:100F9000031DCE2F4101610842012B020318F42FDB
:100FA00030304001E8000130E9002B30EA00013028
:100FB000EB009C31762486314201AA002A08031DE9
:100FC000742E2B304001A0000130A10041016008C7
:100FD0004001A30041015F084001A200A7315B2747
:100FE0008631003A031D482F00300800FF30F8001A
:100FF0002030B531EB258731B43192240800FF341D
:101000000130A93146218831AB31DA23883164308F
:101010006F02031C0E2890310D208831A8312C203E
:101020008831B231F3228831B33196237308D70067
:101030007208D6007108D5007008D400080043017A
:10104000CD01D001A0014401CB01B301B201B10136
:10105000450123084101E900EA01EB01EC016C08BC
:10106000F3006B08F2006A08F1006908F000003034
:10107000F7000130F6008630F500A030F40098311A
:101080000120883173084601BF007208BE00710854
:10109000BD007008BC00450124084101E900EA01D7
:1010A000EB01EC016C08F3006B08F2006A08F10038
:1010B0006908F0000030F7000F30F6004230F5000C
:1010C0004030F40098310120883173084601BB009C
:1010D0007208BA007108B9007008B8009728423049
:1010E0004301A100FC30A2000430A3000230A8009C
:1010F00096304401A70000309528CF304301A1006D
:10110000FB30A2000730A3000430A800F43092287E
:101110001F304301A100FC30A2000530A3000330C2
:10112000A8005E304401A7000130A800A0284501B6
:101130002B08013A03196F28023A03197D288828E1
:1011400041016508860066088700403F4301D900D9
:10115000413FDA00423FDB005A08F0005B08F10033
:101160005908B6311126883171084201ED00700826
:10117000EC0044012A084101EF0044012908410123
:10118000EE0044014C080319D6295608F000570810
:10119000F1005508B6311126883142016D087106FB
:1011A000031DD4286C087006031DD62943015A0874
:1011B0004001E30043015B084001E4004030E500EA
:1011C000D230E6000130E700430159089331C123D2
:1011D00088314301D1005108031DA72F013055026A
:1011E000031CFB2801304301AC000030AB00003091
:1011F000AA000030032943015508AC005408AB0095
:101200005308AA005208A900013044012302031C1C
:10121000122901304301B0000030AF000030AE00B1
:1012200000302129440123084301B0004401220871
:101230004301AF00440121084301AE0044012008EE
:101240004301AD002C083002031D30292B082F026A
:10125000031D30292A082E02031D302929082D02DA
:1012600003184A292C08A7002B08A6002A08A50065
:101270002908A4003008AC002F08AB002E08AA00F3
:101280002D08A9002708B0002608AF002508AE00E9
:101290002408AD0029082D024101E90043012A0874
:1012A0002E3B4101EA0043012B082F3B4101EB009B
:1012B00043012C08303B4101EC006C084301A700BE
:1012C00041016B084301A60041016A084301A500E2
:1012D000410169084301A4004201C00100304101FD
:1012E000E9000030EA000230EB000030EC0043017E
:1012F00029084101E90743012A084101EA3D430168
:101300002B084101EB3D43012C084101EC3D430119
:10131000270841016C02031D9D2943012608410154
:101320006B02031D9D294301250841016A02031D2B
:101330009D294301240841016902031CD229003080
:10134000E9000030EA000230EB000130EC0043011C
:101350002D084101E90243012E084101EA3B430106
:101360002F084101EB3B430130084101EC3B4301B5
:10137000270841016C02031DCD29430126084101C4
:101380006B02031DCD294301250841016A02031D9B
:10139000CD294301240841016902031CD2290130EF
:1013A0004201C000420140084301A0004401CC01B9
:1013B000430120080319EC2955084401A300430107
:1013C00054084401A200430153084401A100430111
:1013D00052084401A000322AD8015835F03E860058
:1013E00087012A30873D58350030873D0030C03FA7
:1013F000C13F0130D807031DED294501E801E9018E
:101400004101EE01EF014401A901AA010130A3004D
:101410000030A2000030A1000130A00043015908B3
:101420004401D50043015A084401D60043015B083A
:101430004401D70043015A084001E30043015B081F
:101440004001E4002030E500D230E6000130E70042
:10145000430159089331C12388314301D100510818
:10146000031DA72FD230FC000130FD00A831002061
:101470008831003A0319582AD9304001C10001309F
:10148000C200430155084001C60043015408400111
:10149000C500430153084001C40043015208400104
:1014A000C300A031082088319531B62500300800EE
:1014B000410168084201EF00410167084201EE0066
:1014C0004301D8016B0858020318FA2A0330F000D0
:1014D0005808B3310B238831403E4301CE004E08FB
:1014E00086000330870001085906031D882A4E0A2A
:1014F00086000330870001085A06031D882A4E081B
:10150000023E86000330870001085B060319F62AB5
:101510004E088600033087000108031D962A4E0AF4
:1015200086000330870001080319F62A4E0886005A
:10153000033087000330413F4001E30043014E0880
:101540008600033087000330423F4001E400103042
:10155000E500B130E6000130E70043014E088600A7
:101560000330870001089331C12388314301D10042
:10157000033051060319FA2A5108031DA72F5508F5
:101580003402031DCD2A54083302031DCD2A53080B
:101590003202031DCD2A520831020318F62A4E08E2
:1015A000860003308700403FD900413FDA00423FC8
:1015B000DB00B130860001308700D230840001307A
:1015C000850005304101E90016001A00E90BE42A04
:1015D000430158082C3E8600033087000108643E12
:1015E0004201EE00003003180130EF0001304301EA
:1015F000D807622A42016E086F040319742B013068
:101600004401B100D9304101DD000130DE00D230AB
:10161000DF000130E00086315D2688314301D100D2
:101620004401B101033043015106031D292BC7308A
:10163000F300BD30F400D030F500D930F6000130B1
:10164000F700D230F8000130F900A631B626883113
:10165000532E5108031DA72FD230FC000130FD008E
:10166000A83100208831003A031D3C2A45012A0890
:101670000319632B430155084001B000430154088E
:101680004001AF00430153084001AE00430152083E
:101690004001AD00A231ED22883142016E08053EC5
:1016A0004101E900003042016F3D4101EA00400183
:1016B0002E0841016A02031D612B40012D084101E2
:1016C000690203183C2AC730F300BD30F400D03063
:1016D000F500D930F6000130F700D230F8000130C3
:1016E000F900A631B62688314301BB0102303B0226
:1016F0000318BB2DD801230858020318B82DBC01CC
:1017000023083C020318B52D58082107840022083D
:101710000318013E85000008D9003C082107840019
:1017200022080318013E85000008DA003B08DB00B0
:101730005A084001E30043015B084001E400103017
:10174000E500D230E6000130E7004301590893314B
:10175000C12388314301D100033051060319532EB0
:101760005108031DA72FD7014D08570203181E2C3F
:101770000330F0005708B3310B238831023E5D3E41
:10178000860001308700010843013B06031D1A2C27
:101790005708363E86000130870001084101E90004
:1017A000430158084101E90201306907EA000330AA
:1017B0006A0203181A2C430157083B3E8600013089
:1017C000870001084101E90043013C084101E902A9
:1017D00001306907EA0003306A0203181A2C053049
:1017E000F00043015708B3310B238831443E860093
:1017F00001308700403F4101E900413FEA00423F9C
:10180000EB00433FEC006C0843015502031D182C0C
:1018100041016B0843015402031D182C41016A0861
:1018200043015302031D182C410169084301520270
:1018300003181E2C01304301D707B42B4D08570263
:10184000031CB22DD7014D0857020318DF2C0330BB
:10185000F0005708B3310B238831023E5D3E86000D
:1018600001308700010843013B06031D5E2C570829
:10187000363E86000130870001084101E90043013E
:1018800058084101E90201306907EA0003306A02A1
:1018900003185E2C430157083B3E86000130870049
:1018A00001084101E90043013C084101E90201301E
:1018B0006907EA0003306A02031C622C013043010D
:1018C000D707232C43015708CF004F08013E4101A1
:1018D000E900003003180130EA006A08803AEB00A2
:1018E00080306B02031D782C43014D0841016902D1
:1018F0000318DB2C0330F00043014F08B3310B23F6
:101900008831033E5D3E860001308700403F410143
:10191000E900413FEA00423FEB000330F0004301A1
:101920004F08B3310B2388315D3E860001308700BC
:1019300041016908C03F6A08C13F6B08C23F0530DA
:10194000F00043014F08B3310B238831053E443E7C
:101950008600013087000530F00043014F08B331A5
:101960000B238831443E840001308500053041015D
:10197000E90016001A00E90BB92C43014F08363E66
:101980008600013087004F08013E363E840001305A
:101990008500000881004F083B3E8600013087002B
:1019A0004F08013E3B3E8400013085000008810065
:1019B0000130CF07652C01304301CD02232C4D08A7
:1019C000D700452D280857020318432D0330F00097
:1019D0005708B3310B238831FD3E5D3E8600013050
:1019E0008700403F4101E900413FEA00423FEB00F0
:1019F0000330F00043015708B3310B2388315D3EBB
:101A000086000130870041016908C03F6A08C13F74
:101A10006B08C23F0530F00043015708B3310B2378
:101A20008831FB3E443E8600013087000530F000DF
:101A300043015708B3310B238831443E8400013001
:101A4000850005304101E90016001A00E90B242D3C
:101A500043015708363E8600013087005708FF3E95
:101A6000363E8400013085000008810057083B3E67
:101A70008600013087005708FF3E3B3E840001305E
:101A80008500000881000130D70257080319732D23
:101A90000530F0005708B3310B238831FB3E443E3C
:101AA000860001308700403F4101E900413FEA00E4
:101AB000423FEB00433FEC006C0843015502031D1D
:101AC000712D41016B0843015402031D712D410129
:101AD0006A0843015302031D712D41016908430146
:101AE0005202031CE22C280857020318B22D0330BF
:101AF000F0005708B3310B2388315D3E860001307A
:101B0000870043015908C03F5A08C13F5B08C23FE4
:101B1000D2308600013087000530F0005708B3311D
:101B20000B238831443E840001308500053041019B
:101B3000E90016001A00E90B992D43015708363EBB
:101B40008600013087005808810057083B3E860018
:101B5000013087003C08810028084D020318B22D8F
:101B60000130CD070130BC07802B0130D8077B2B1B
:101B70000130BB07762B440123084001B00044012B
:101B800022084001AF00440121084001AE00440199
:101B900020084001AD00A231ED2288312E08C2009C
:101BA0002D08C1009031002088314301D8014D0833
:101BB00058020318532E0330F0005808B3310B239A
:101BC00088315D3E860001308700403F4301D900E7
:101BD000413FDA00423FDB000530F0005808B331E6
:101BE0000B238831443E860001308700D2308400C8
:101BF0000130850005304101E90016001A00E90BAB
:101C0000FD2DD930DD000130DE00D230DF000130A3
:101C1000E00086315D2688314301D1005108031967
:101C2000152E03305106031DA72FC730F300BD301A
:101C3000F400D030F500D930F6000130F700D23092
:101C4000F8000130F900A631B62688314401230896
:101C50004001B000440122084001AF0044012108C6
:101C60004001AE00440120084001AD00A231ED2248
:101C700088312E08C2002D08C10090310020883123
:101C80000330430151060319532ED230FC000130BA
:101C9000FD00A83100208831003A031D532E013089
:101CA0004301D807D72D4301D8018A2E0330F00015
:101CB0005808B3310B238831C73E860001308700B6
:101CC000010844015506031D872E0330F00043012F
:101CD0005808B3310B238831013EC73E86000130DE
:101CE0008700010844015606031D872E0330F000CB
:101CF00043015808B3310B238831023EC73E8600AA
:101D00000130870001084401570603198E2E013067
:101D10004301D80750085802031C562E43015808A7
:101D20005006031DC12E500803199F2E4401280898
:101D30002A02031D9D2E27082902031CC12E4401DF
:101D400023084301D500440122084301D400440183
:101D500021084301D300440120084301D200D601E9
:101D6000C730F300BD30F400D030F5005530F60038
:101D70000230F700D230F8000130F900A631B62663
:101D800088314301D801500858020318192F033035
:101D9000F0005808B3310B238831013EC73E86005E
:101DA0000130870001084101ED000330F0004301DC
:101DB0005808B3310B238831023EC73E86000130FC
:101DC000870001084201B3000530F00043015808C4
:101DD000B3310B238831BD3E4201B4000330F00023
:101DE00043015808B3310B238831C73E86000130C8
:101DF000870001084201B50041016D084001E30080
:101E0000420133084001E4004030E500420134085B
:101E10004001E6000130E700420135089331C1235B
:101E200088314301D1005108031DA72F0130D80785
:101E3000C32E4001E301E4014030E500B630E60086
:101E40000130E70000309331C12388314301D100D4
:101E50005108031DA72F4201C10102304301500266
:101E6000031C452F40084502031D402F3F08440234
:101E7000031D402F3E084302031D402F3D08420230
:101E80000318452F01304201C100420141084301BE
:101E9000D8000530F0005808B3310B238831BD3E1F
:101EA0004001A0000130A100B630A2000130A30023
:101EB000A7315B278831003A031D862F4301DB01E0
:101EC000DA01D901D9304001C1000130C20043011B
:101ED00039084001C600430138084001C5004301EC
:101EE00037084001C400430136084001C300A03157
:101EF00008208831003043016A02793003196902F1
:101F00000318842F00300800033008000330F0006D
:101F100043015808B3310B238831C73E4001C1004B
:101F20000130C2000530F00043015808B3310B23E3
:101F30008831BD3E860001308700403F4001C3002C
:101F4000413FC400423FC500433FC600512A420101
:101F5000C201023043015106031DD32F44012A0858
:101F600041016F02031DB82F4401290841016E028F
:101F70000318D32F43012008031DD02F4401560816
:101F8000F0005708F1005508B6311126883142019A
:101F90006D087106031DCE2F6C0870060319D32F30
:101FA00001304201C200420142084401CB005530D9
:101FB0004001C1000230C200440123084001C600B4
:101FC000440122084001C500440121084001C40029
:101FD000440120084001C300A0310820883143019A
:101FE00051030319FE2F043051060319F92F013054
:101FF000FA2F04304201C3004308080002300800F1
:102000004401C90140014208BF004108BE00A93196
:102010000B219031B33183230800DA01B3319623C9
:10202000903173084001D8007208D7007108D600BB
:102030007008D500B6318B26903122304001AF00B8
:102040000D30B000FC30B1000030A1312C219031B6
:10205000B3318323903140018D1A302864002B283E
:10206000B231F322903140015A08A33168239031F4
:102070006400A631192690314001D9005908031D8A
:102080005E28B33196239031400155087002D1008B
:102090005608713BD2005708723BD3005808733B77
:1020A000D4005408031DB3285308031DB32860301F
:1020B0005102EA30523B0318B3283828B331962333
:1020C000903173084001D8007208D7007108D6001B
:1020D0007008D50002305906031D8B280F30F00020
:1020E0000030F1005A08013EF200003003180130C0
:1020F000F300AA31842290317008DA005A08A33123
:102100006823903140018D1A872864008228B231FB
:10211000F322903138285903031D38280C305A0215
:102120000318A4285A08A03E8600023087005A08E7
:10213000A03E8400023085000008F0005A08A83153
:10214000D1209031810034280C305A06031DAB2871
:10215000A931832190310D3040015A06031DB32867
:102160008731F6279031A13196210800B3319623AB
:10217000903173084101A5007208A4007108A30002
:102180007008A200AB304001D8000030D900043004
:10219000DA00AC312224903141013D080319E028D6
:1021A00044014908031DE02872304001BE00FB30A5
:1021B000BF00D030C0000730C100A831612090318D
:1021C000AB308600003087004431403F4001AD0015
:1021D000413FAE00423FAF00433FB000B4317724EF
:1021E00090312E084101A10040012D084101A000BD
:1021F000200821040319FF28B331E7239031470158
:10220000270841013202031D152947012608410113
:102210003102031D15294701250841013002031D24
:1022200015294701240841012F02031859294501A6
:1022300029084001E300E401E501E6016608F30036
:102240006508F2006408F1006308F0000030F70050
:102250000030F6000030F5000A30F400983101201B
:10226000903145014408410122024001E700450147
:1022700045084101233B4001E80045014608410172
:10228000243B4001E900450147084101253B40014D
:10229000EA0073086A02031D572972086902031DC8
:1022A000572971086802031D572970086702031C2B
:1022B0007829AB30860000308700A03084000330DE
:1022C000850013304001E30016001A00E30B642977
:1022D000410125084501C700410124084501C60008
:1022E000410123084501C500410122084501C40000
:1022F000AB308600003087004C31403F4001AD00DC
:10230000413FAE00423FAF00433FB000A231ED225B
:1023100090312E084101AA0040012D084101A90079
:10232000AB30FC000030FD00A431F02490314101BD
:10233000A80028080319A02903302806031DA7298F
:102340002A084401AE00410129084401AD004101C1
:1023500028030319B2292A084401AC0041012908C5
:102360004401AB0045012508F63EF000FF3003189C
:102370000030F1000A30F2000030F300B4315C2488
:10238000903171084101A7007008A6004501260898
:1023900003192C2A44015308031D2C2A4101280843
:1023A000031D2C2A3B0803192C2A00302A027930FD
:1023B00003192902031C2C2A45014B08FB004A087B
:1023C000FA004908F9004808F800B43113249031A4
:1023D0007B08031DF4297A08031DF429B83078021C
:1023E0000B30793B031C2C2A4101260844012F079E
:1023F0004001E300410127084401303D4001E40071
:1024000041012A0840016402031D0A2A41012908EA
:1024100040016302031C222A4101260829074001CA
:10242000E300410127082A3D4001E400440130084F
:1024300040016402031D202A44012F084001630269
:1024400003182C2A01304401C80704304802031C39
:1024500008000130C70008004401C801080001302D
:102460004401ED005808EA005908EB005A08EC0056
:10247000B331E72392314001971119114401C90189
:102480004001AF014230B000FB30B1001230A13149
:102490002C219231AF013D30B000FB30B100123041
:1024A000A1312C219231FF304501EC00FF30ED00CD
:1024B000B331832392316D304001E3009B317023AF
:1024C00092314401EE006E08031DAD2AE801440874
:1024D0000319852A45014B08FB004A08FA00490800
:1024E000F9004808F800B431132492317B08031D29
:1024F000852A7A08031D852A60307802EA30793B04
:102500000318852A01304401E80044016808CC0022
:102510005308031D8E2A5408031D912ADC01DD0196
:10252000982A5408643EDC00003003180130DD00B6
:1025300058304101E5000230E60044015D084101E8
:10254000E80044015C084101E70088311F20923116
:102550004401EE004B08C400AE2AC401E90158084A
:102560006A06031DBD2A59086B06031DBD2A5A08B9
:102570006C06031DBD2A0130E9006908DB006E0806
:102580000319D22A03306E060319D22A5B080319F5
:10259000D22A2D082E040319422B2E08B0002D0834
:1025A000AF00422B6E080319E02A03306E060319B0
:1025B000E02A5808031DE02A590803195A08031D88
:1025C000D3015308031D2B2B6E08031DED2A580859
:1025D000031DF02A5908031DF02ADE01DF01292B13
:1025E000430169089C3EDC00FF306A3DDD0001309C
:1025F0005D02003003195C020318192B00306A02D7
:1026000066300319690203180B2B01304401E20004
:102610000030E300142B69089C3E4401E200FF30C7
:1026200043016A3D4401E3006308E1006208E00001
:102630001E2BFF304401E0000030E1006008430140
:10264000DC00DD015C084401DE0043015D0844015B
:10265000DF005E08D40043016A084401B000430172
:1026600069084401AF0043016A084401AC0043011A
:1026700069084401AB002C08AE002B08AD00B23154
:10268000E7229231440144080319482BAF01B001FD
:10269000B631B5269231FF304501EC00FF30ED0038
:1026A00044012C084001BF0044012B084001BE003A
:1026B000A9310B21923144016E03031D802B02309E
:1026C0006D060319742B03306D0603196B2B8D30C7
:1026D000E600FB306E2B8430E600FB30E700670835
:1026E000E5006608E400782BC730E400FB30E50025
:1026F00065084001BF00440164084001BE009F2BF3
:1027000003306E06031D892B7B304001BE00FB3079
:102710009E2B02306E06031D962B3D304001BE00FD
:10272000FC30BF00E830C0000330A22B04306E063E
:10273000031DA62B72304001BE00FB30BF00D0301D
:10274000C0000730C100A83161209231B231C322EC
:1027500092314001191597154401C801B3319623F0
:102760007308CB007208CA007108C9007008C8005D
:102770004B08D7004A08D6004908D5004808D400BD
:1027800008004101B70040016308F0006408F1004F
:1027900041013708B6311126933171084101B60065
:1027A0007008B500AA01AB013608F4003508F30043
:1027B000AA31C72293314101B800B4014030400131
:1027C00065060319702C41013808A000A101A0354D
:1027D000A10DF030A2002A30A300200822078600B5
:1027E0002108233D8700403FA400413FA500360853
:1027F0002506031DFD2B35082406031D652C38080E
:10280000A000A101A035A10DF030A2002830A30046
:102810002008220786002108233D87001600FF3A82
:10282000A4001600FF3AA40403193E2C3808A000A7
:10283000A101A035A10DF030A2002830A30020088E
:10284000220786002108233D8700403FA400413F26
:10285000A5002408A6002508A700A801A9010830A2
:10286000A635A70DA80DA90D890B302C2908AF009E
:102870002808AE002708AD002608452C0130AF001F
:102880000030AE000030AD000030AC004001660802
:1028900086006708870041012C08C03F2D08C13F12
:1028A0002E08C23F2F08C33F400166088600670814
:1028B0008700443141013808F03E840085012E3004
:1028C000853D0008810000300800440128082A02E4
:1028D000031D6C2C27082902031C702C03300800F0
:1028E00040016308F3006408F4004101370898319F
:1028F000E8209331B431C9249331003A0319822C72
:1029000001300800B9304001D8000030D900650816
:10291000DA00AC312224933141014B080319A42C75
:1029200001304401B20740303202031C992C0430BC
:10293000080001304101C8000030C7000030C60067
:102940000030C500CA01062D46013F084101400282
:10295000031DBA2C46013E0841013F02031DBA2C5B
:1029600046013D0841013E02031DBA2C46013C08C8
:1029700041013D02031CD42CB930F0000030F100BD
:10298000AE31E9269331730846013B02031DD22C78
:1029900072083A02031DD22C71083902031DD22C91
:1029A000700838020318F82C44013308031DDD2C8D
:1029B000E8304101B0000330E12C2C304101B0007F
:1029C0000130B1000130AA070030AB3D2B083102C5
:1029D000031DEC2C2A0830020318F02C02300800EA
:1029E0000A30F0000030F100B3315D2393317A2CCE
:1029F00001304401B300B20141014908031D062D15
:102A00000130B40703303402031C7A2C40016608FD
:102A100086006708870041014508C03F4608C13F5E
:102A20004708C23F4808C33F400166088600670860
:102A30008700443141014A08810040304001650669
:102A40000319632C01304401A9070030AA3D00306E
:102A500045016902FF30031968020318752D410111
:102A60003835F03E860087012A30873D3835003002
:102A7000873D3508C03F3608C13F01304802031882
:102A8000562D41014508A0004608A1004708A200B4
:102A90004808A3000830A336A20CA10CA00C890B97
:102AA0004B2D2108B3002008B2005B2DFF304101FF
:102AB000B200FF30B3003835F03E86008701283081
:102AC000873D38350030873D3208C03F3308C13F6D
:102AD0003808F03E860087012E30873D4A08810085
:102AE00001304501E8070030E93D400166088600F5
:102AF00067088700403F4101A000413FA100423FDD
:102B0000A200433FA3004401230841012302031D07
:102B1000992D4401220841012202031D992D4401EF
:102B2000210841012102031D992D44012008410182
:102B300020020318632C400166088600670887009E
:102B4000403F4401A000413FA100423FA200433F5B
:102B5000A300410137084401D50040016308440146
:102B6000D600400164084401D700632C4001B30142
:102B7000AF01AE01003043016A02C9300319690296
:102B80000318080044012408031925080319080044
:102B90004001B40143016B084001340203183C2E8C
:102BA0000330F0003408B3310B239531403E8600EA
:102BB000033087000108031DEB2D0330F0004001B6
:102BC0003408B3310B239531413E86000330870032
:102BD00001080319382EFF304001B000B501430150
:102BE0006B084001350203182B2E3508203E860065
:102BF000033087003408203E84000330850000083D
:102C00000102B2000330F0003508B3310B239531D7
:102C1000403E8600033087000108031D1D2E03304F
:102C2000F00040013508B3310B239531413E860059
:102C30000330870001080319272E400132080319C9
:102C4000272E300832020318272E3208B000013038
:102C50004001B507EF2D30082E020318382E30083A
:102C6000AE003408203E8600033087000108B30020
:102C700001304001B407CA2DB40143016B08400183
:102C8000340203187F2E0330F0003408B3310B23D5
:102C90009531423E86000330870001084401260634
:102CA000031D7B2E2408F3000330F000400134089C
:102CB000B3310B239531403E860003308700010875
:102CC000B53163259531003A03197B2E440125085F
:102CD000F3000330F00040013408B3310B23953189
:102CE000413E8600033087000108B53163259531E8
:102CF000003A031D7F2E01304001B4073D2E4001F4
:102D0000340843016B06031DAC2E4001B401A62E0E
:102D10000330F0003408B3310B239531403E860078
:102D2000033087000108031DA32E0330F00040018B
:102D30003408B3310B239531413E860003308700C0
:102D400001080319AC2E01304001B40743016B08A0
:102D500040013402031C882E4001340843016B06F5
:102D6000031DD22E0C306B020318B92E0130EB0775
:102D7000D22E4001B501B4013508203E8600033053
:102D8000870001083302B2002F083202031CCC2E48
:102D90003208AF003508B4000130B5070C303502F9
:102DA000031CBC2E0330F00040013408B3310B2368
:102DB0009531403E86000330870044012408C03F1F
:102DC0002508C13F2608C23F430169089C3EF9001F
:102DD000FF306A3DFA0001307A02003003197902AF
:102DE0000318FB2E69089C3E4001AC00FF304301F4
:102DF0006A3D4001FF2EFF304001AC000030AD00C5
:102E000034082C3E8600033087002C0881000130F6
:102E1000B3073408203E8600033087003308810062
:102E20000130F9000030FA00340A182FF935FA0D94
:102E3000890B162F79084501EA047A08EB04400152
:102E4000B501AF0143016B084001350203185A2F49
:102E50000330F0003508B3310B239531403E860036
:102E6000033087000108031D432F0330F0004001A9
:102E70003508B3310B239531413E8600033087007E
:102E800001080319562F40013508203E8600033003
:102E90008700010833022F020318562F3508203E01
:102EA00086000330870001083302AF000130400183
:102EB000B507222F64302F02031C0800B50143011F
:102EC0006B08400135020318BE2F3508203E8600EE
:102ED0000330870001083302B200B101B0014301A1
:102EE0006B08400131020318B52F0330F0003108A0
:102EF000B3310B239531403E860003308700010833
:102F0000031D902F0330F00040013108B3310B2333
:102F10009531413E86000330870001080319B12F27
:102F200040013108203E8600033087003308F90055
:102F30000108F90232087902031CAF2F3108203E44
:102F40008600033087003308F9000108F902790888
:102F50003206031DB12F350831020318B12F01309D
:102F6000B00701304001B1076F2F3508203E8600C1
:102F70008701300881000130B5075F2FB50143019B
:102F80006B0840013502031808000330F0003508D3
:102F9000B3310B239531403E860003308700010892
:102FA000031DE02F0330F00040013508B3310B233F
:102FB0009531413E86000330870001080319FC2F3C
:102FC00040013508203E8600033087003508203E4A
:102FD000840085010008330281000130F9000030CF
:102FE000FA00350AF52FF935FA0D890BF32F790818
:102FF0004501EA047A08EB0401304001B507BF2F10
:103002000030FB000030FA000030F9000030F80018
:10301200701C13287408F8077508F93D7608FA3D04
:103022007708FB3D0130F435F50DF60DF70D890BF0
:1030320014280130F336F20CF10CF00C890B1B282A
:103042007308720471047004031D09287B08F300DD
:103052007A08F2007908F1007808F00008004401CB
:103062003D08031908003B080319C728390803194A
:10307200B028D0304001B0000730B1000030B200BB
:103082000030B30044013908FF3E890A40014D284F
:10309200B035B10DB20DB30D890B4928B33196236A
:1030A2009831380870024001B40045013908713B7B
:1030B2004001B50045013A08723B4001B6004501A6
:1030C2003B08733B4001B70033083702031D7328E6
:1030D20032083602031D732831083502031D732896
:1030E200300834020318B028B331962398313408DB
:1030F20070024001B00045013508713B4001B1004A
:1031020045013608723B4001B20045013708733B66
:103112004001B3003308031D97283208031D972886
:10312200E83030020330313B031C0800B3319623F0
:1031320098317308B7007208B6007108B5007008BC
:10314200B400B33139239831003A031DAC28013061
:103152004401BA00080044013A0803190800440176
:10316200BA01063039020318B8280130B907003015
:10317200A931462198312C30F0000130F100B331F1
:103182005D2398310130A931462108004001B80180
:1031920044013808013E0339B8003808BC3E8600B5
:1031A200023087003808C03E8400023085000008E3
:1031B2000102031CE0283808AF31A12708000130C2
:1031C2004001B8070430380203180800C928F80083
:1031D20045012208F7000E3043016E02D93003196F
:1031E2006D020318F6280130F7077818FB28400112
:1031F2009917FD2840019913F8180229400119175F
:1032020004294001191378190929400199160B293B
:1032120040019912F819102940011916122940018A
:103222001912781A17294001981719294001981381
:10323200F81A1E2940011817202940011813781B7B
:1032420025294001981627294001981273182C2924
:10325200400196162E2940019612F3183329400197
:103262009A14352940019A1073193A294001961788
:103272003C2940019613F3194129400116174329AD
:1032820040011613731A4829400118144A294001B3
:103292001810F31A4F29400198145129400198102F
:1032A200731B56294001181558294001181174083A
:1032B20003195E2940011A14602940011A10991558
:1032C2007708F500F6017508F0007608F100B331D1
:1032D2005D239831400199111A30890B6E29003211
:1032E200400118127708F500F6017508F00076081B
:1032F200F100B3315D239831400118167708F500CB
:10330200F6017508F0007608F100B3315D239831BB
:103312000F30400199051830980596129A109613AD
:1033220016131A100530F0000030F100B3315D239E
:10333200983178087F394401D80073087F39D90061
:1033420074080319A6290130A7290030DA00080001
:10335200B200BA013A08B63138269931003040013C
:10336200B7000030B6000030B5000030B400B30141
:103372007C0833020318EF29320841019E003530E0
:10338200890BC1290000410113141318C6290D0825
:103392004001B90041010C084001B8000330390274
:1033A200E93003193802031CDA2902303A06031DF8
:1033B200EF2903303902FF3003193802031CE429D4
:1033C20001304401B70040013808B4073908B53D5F
:1033D2000030B63DB73D0130B307B92933087C064A
:1033E2000319392A0130BA07AB290330B435B50DB8
:1033F200B60DB70D890BF729412A0430B435B50D46
:10340200B60DB70D890BFF29412A43016D08F00063
:103412006E08F100F201F30140013708F7003608A7
:10342200F6003508F5003408F4009831012099318E
:1034320070084001AD007108AE007208AF00730859
:10344200B0000A30B036AF0CAE0CAD0C890B232A9B
:103452000330AD35AE0DAF0DB00D890B2A2A300801
:10346200B7002F08B6002E08B5002D08B400412A77
:103472003A08003A0319F629013A0319FE29062AE5
:103482007C08AD00AE01AF01B0013008A3002F08E7
:10349200A2002E08A1002D08A0007C08B100013076
:1034A200B136890B512A31083407A40035080318B4
:1034B200350F0310A50036080318360F0310A600B7
:1034C20037080318370AA700AD319D252108FD00F2
:1034D2002008FC000800A8007308F6000330F63646
:1034E200890B702A7608A70073080739A5000130F6
:1034F200F600750A7D2AF635890B7C2A7608FF3E8E
:10350200A4002408F600F701250A892AF635F70DEA
:10351200890B872A7608A0007708A1007408240581
:10352200F600F701250A972AF635F70D890B952A39
:103532007608A2007708A30080302802031808004A
:10354200043027020318FF2A2708F600F701073084
:10355200F635F70D890BA92AF030F8002C30F90066
:1035620076087807FA007708793DFB0028087A0781
:10357200860000307B3D8700200901052204A60059
:103582002708F600F7010730F635F70D890BC52A33
:10359200F030F8002C30F90076087807FA00770846
:1035A200793DFB0028087A07860000307B3D8700C2
:1035B200010826060319FF2A2708F600F70107303B
:1035C200F635F70D890BE12AF030F8002C30F900BE
:1035D20076087807FA007708793DFB0028087A0711
:1035E200860000307B3D8700260881002808F00015
:1035F2002808F1002708B53184259A3125080319D6
:1036020008002708013EF600003003180130F700D9
:103612007708803AF80080307802031D122B0430BC
:1036220076020318080040012708F600F701073068
:10363200F635F70D890B192B7030F8002D30F90093
:1036420076087807FA007708793DFB0028087A07A0
:10365200860000307B3D8700210901052304A60076
:103662002708F600F7010730F635F70D890B352BE1
:103672007030F8002D30F90076087807FA007708E4
:10368200793DFB0028087A07860000307B3D8700E1
:1036920001082606031908002708F600F70107307B
:1036A200F635F70D890B512B7030F8002D30F900EB
:1036B20076087807FA007708793DFB0028087A0730
:1036C200860000307B3D8700260881002808F00034
:1036D2002808F1002708013EB53184250800410180
:1036E200AC01A601A701B33196239B3173084101B6
:1036F200AB007208AA007108A9007008A8002B0884
:10370200A3002A08A2002908A1002808A000AE30C0
:103712004001D8000030D9000430DA00AC31222454
:103722009B31AE30FC000030FD00A431F0249B310F
:103732004101AD002D080319AD2B0130A600B331B4
:1037420096239B3173084101A3007208A2007108FD
:10375200A1007008A000C82B26080319642C2308B6
:10376200FB002208FA002108F9002008F800B43111
:1037720013249B317B08031D642C7A08031D642CDF
:103782007908031D642CC83078020318642CAE300B
:103792008600003087004431403F4001AD00413F88
:1037A200AE00423FAF00433FB000B43177249B31BB
:1037B2002E08BF002D08BE00AE3140269B31B3312A
:1037C20083239B31B431C9249B31003A0319ED2B79
:1037D20002304101A700642C41012D0803195C2C21
:1037E2002B08FB002A08FA002908F9002808F8002B
:1037F200B43113249B317B08031D082C7A08031D66
:10380200082C103078022730793B031C142C01302D
:103812004101A70040016308860002308700410190
:103822002C088100642C41012B08FB002A08FA00B5
:103832002908F9002808F800B43113249B317B08C9
:10384200031D2C2C7A08031D2C2CE830780203303F
:10385200793B031C5C2C41012D082C0603195C2CBE
:103862002D08AC002D03031D402CB7304001B400DD
:10387200FB30B500F930B600FB30B700592C0230EE
:103882002D060319482C8430A400FB304B2CC73082
:10389200A400FB30A5005B304001B400FA30B50053
:1038A200410125084001B700410124084001B6004A
:1038B200B631E0269B310A30F0000030F100B3311E
:1038C2005D239B31882B41012C080319732C4B304B
:1038D2004001B400FB30B5004B30B600FB30B700FE
:1038E200B631E02641012708080044013108031DD2
:1038F200902C400168088600690887000108EC00E6
:103902000230EC36890B822C6C08ED00EE016D085A
:103912004101CC0040016E084101CD00952C0130DF
:103922004101CC000030CD004C08D30044013108E5
:10393200031DB22C400168088600690887004131E6
:103942000108EC000230EC36890BA42C6C08ED0067
:10395200EE016D084101CE0040016E084101CF0029
:10396200B72C01304101CE000030CF004E08D40008
:103972005308031DBE2C0130D3005408031DC32C71
:103982000130D400D001D2014001680886006908E4
:103992008700403F4101DA00413FDB00423FDC004B
:1039A2005308F0005208A73E8400FB300318013E82
:1039B20085000008B3310B239C31F30040016808F5
:1039C2008600690887000108B431AD249C314101A9
:1039D200DA005408F00052089F3E8400FB300318BE
:1039E200013E85000008B3310B239C31F3004001F6
:1039F200680886006908870041310108B431AD24A6
:103A02009C314101DB00400168088600690887009B
:103A1200010841015A06031D192D4001680886005C
:103A220069088700413141015B08010603195F2DD6
:103A32005B084001E30041015C084001E4002030E2
:103A4200E500D530E6000030E70041015A08933125
:103A5200C1239C314101D10051080319322D510873
:103A62000800D5304001A0000030A1006B08A3007F
:103A72006A08A200A7315B279C31003A03195F2D27
:103A8200680886006908870041015A08C03F5B0840
:103A9200C13F5C08C23FD53086000030870040013C
:103AA2006A0884006B0885000530EC0016001A00D5
:103AB200EC0B572D01304101D000C52C01304101E2
:103AC200D20708305202031CC52C5008031DC32C18
:103AD2005303031D712D5403031D712D0030080083
:103AE2000230F0000030F1005308013EF2000030D5
:103AF20003180130F300AD3103259C317008D30067
:103B02000230F0000030F1005408013EF2000030B3
:103B120003180130F300AD3103259C317008C22C2B
:103B220001304101CC000130CF004001680886001D
:103B320069088700403F4101D500413FD600423F1E
:103B4200D70040016C080319B02D41014F08F30062
:103B52005608B431AD249D314101D600B92D410141
:103B62004F08F3005508B431AD249D314101D50011
:103B7200400168088600690887000108410155066E
:103B8200031DCE2D40016808860069088700413177
:103B92004101560801060319F62D56084001E300BB
:103BA200410157084001E4002030E500D030E60032
:103BB2000030E700410155089331C1239D31410195
:103BC200CD004D080319E72D4D080800D030400103
:103BD200A0000030A1006B08A3006A08A200A73170
:103BE2005B279D31003A031DFE2DFE304101CF07B8
:103BF2004F08803A813E0318962D41014F08803AC2
:103C0200813E0318062E0030080040016808860035
:103C12006908870041015508C03F5608C13F57084F
:103C2200C23FD03086000030870040016A0884001D
:103C32006B0885000530ED0016001A00ED0B1D2EF5
:103C420002304101CE004E080319042E40016808DB
:103C5200860069088700403F4101D500413FD600F8
:103C6200423FD70040016C080319472E41014E081C
:103C7200F0004F08B3310B239D31F3004101560888
:103C8200B431AD249D314101D600562E41014E087A
:103C9200F0004F08B3310B239D31F3004101550869
:103CA200B431AD249D314101D50040016808860040
:103CB20069088700010841015506031D6B2E40016A
:103CC20068088600690887004131410156080106EB
:103CD2000319B52E56084001E3004101570840017F
:103CE200E4002030E500D030E6000030E70041017A
:103CF20055089331C1239D314101CD004D08031D6B
:103D0200E52DD0304001A0000030A1006B08A300D7
:103D12006A08A200A7315B279D31003A0319B52E2C
:103D2200680886006908870041015508C03F5608A7
:103D3200C13F5708C23FD0308600003087004001A3
:103D42006A0884006B0885000530ED0016001A0031
:103D5200ED0BA72E41014C080319242E20304E02F0
:103D62000318242E4E35232E4101CC014E0840016A
:103D7200ED000130ED36890BBB2E6D08222EB90005
:103D8200B330C000D82F3608031DD22E4008B00031
:103D92000330B1001330B200FC30B300B4312B2435
:103DA20008004008AB000330AC003608B700B80189
:103DB2003708AD003808AE00AF01B3314B239E3156
:103DC2002C08B1002B08B0002E30B200FC30B3003A
:103DD200B4312B2408004008AB000330AC00360895
:103DE200B700B8013708AD003808AE00AF01B331F3
:103DF2004B239E312C08B1002B08B0004A30B20090
:103E0200FC30B300B4312B2408004008AB0003306F
:103E1200AC003608B700B8013708AD003808AE006C
:103E2200AF01AF0AB3314B239E312C08B1002B08EE
:103E3200B0005C30B200FC30B300B4312B24080077
:103E42004008AB000330AC003608B700B8013708B1
:103E5200AD003808AE00AF01B3314B239E312C08C0
:103E6200B1002B08B0005C30B200FC30B300B431BA
:103E72002B2408004008AB000330AC003608F63EA5
:103E8200AD00FF3003180030AE00AF01AF0AB3310E
:103E92004B2308003608031D522F5230BA00FB3064
:103EA200552F5930BA00FC30BB004008B000033037
:103EB200B1003B08B3003A08B200B4312B24080029
:103EC2004008AB000330AC003608B700B801370831
:103ED200AD003808AE00AF01AF0AB3314B23080082
:103EE2004008AB000330AC003608643EAD00003041
:103EF20003180130AE000230AF00B3314B2308008B
:103F02004008AB000330AC003608B700B8013708F0
:103F1200F0003808F1000A30F2000030F300B4314A
:103F22005C249E3171084001AE007008AD00AF0103
:103F3200B3314B239E312C08B1002B08B0004A301C
:103F4200B200FC30B300B4312B2408003608031D44
:103F5200712F4008B0000330B1002930B200FC30AC
:103F6200B300B4312B24080036030319C92F0330E0
:103F720036060319C02FEB30BE00FB30C32F603072
:103F8200BE00FB30BF003F08BD003E08BC00CD2F85
:103F92000730BC00FC30BD004008B0000330B10067
:103FA2003D08B3003C08B200B4312B2408003908A4
:103FB200D13E8400FA300318013E85000008003A21
:103FC2000319C42E013A0319EC2E033A0319062FE2
:103FD200013A0319212F073A03193B2F013A03191A
:103FE2004B2F033A0319612F013A0319712F0F3A2C
:103FF2000319812F013A0319A72FB52F0800410198
:10400200931352018C13FF304401EF000800410862
:10401200860042088700403F4401A400413FA500BA
:10402200423FA6000130400143020030443B0030D1
:10403200453B0130463B03182E2840014608450106
:10404200AF00400145084501AE004001440845016A
:10405200AD00400143084501362801304501AF005B
:104062000030AE000030AD000030AC002F0840013F
:10407200B00045012E084001AF0045012D08400166
:10408200AE0045012C084001AD00A231ED22A03165
:104092002E084301EA0040012D084301E9004001D6
:1040A200410886004208870041310108F3004108B7
:1040B20086004208870042310108F4004108860068
:1040C2004208870001089831E8200800A901A801E8
:1040D200AA01AB012030F8002B08B7310B27A03121
:1040E200003A03198628400129080319802820086C
:1040F200FD002808FD0280307D0203188628200872
:10410200A8002B08AA000130A90001304001AB072A
:1041120010302B02031C6B282908031D96280F3030
:104122004401B600B501003008002030F8002A082A
:10413200B7310B27A03140012A084401B6004001E3
:1041420020084401B5004D30F3000230F400400174
:104152002108F5002208F600B431E624A031230834
:104162000319B5280130B62800304401D30050307D
:10417200F3000230F40040012408F5002508F6009F
:10418200B431E62426084401D4000130080040017D
:10419200CA004A080319DD2844015308031DDD281B
:1041A2005808D0005908D1005A08D2000130D30073
:1041B200F301F4010030EB2840014A08031D080016
:1041C2004401530803190800D3015108F3005208AF
:1041D200F40050089831E820A031B231E722A03132
:1041E20044015308031D0C295408031DFC284001F7
:1041F200C601C70104295408643E4001C6000030CC
:1042020003180130C70047084401B00040014608C6
:104212004401AF000E29AF01B001B631B526A0317D
:1042220044015308031D1A2919304001C800FC300B
:104232001E2900304001C800FC30C9004908BF00F7
:104242004808BE002030C0000330C100A831612000
:104252004401C8010800BB00300884003108850011
:104262001200031908003008840031088500000894
:10427200B5312325A13177084001B6007608B50093
:10428200BD010A303D02031C4929B701B8015D296D
:104292003D08B2000130B236890B4C29320835078D
:1042A200840036080318013E85000008B300B401FB
:1042B2003308B7003408B8003708BC003C080F398F
:1042C200B5310325A131B9003C08B2000430B23641
:1042D200890B68293208B5310325A131BA003B08A0
:1042E200F3003908F4000830F5002F083D079A3131
:1042F2006C22A13140013B08083EF3003A08F40069
:104302000830F5002F083D079A316C22A1310130A7
:104312004001BD070C303D02031C42290130B007A9
:104322000030B13D0C30AF072D29AA314322A13113
:104332007708B3007608B200B4319224A13140016B
:10434200B4013408233E860087013408203EB2318E
:10435200DB22A131810001304001B4070F30340269
:10436200031CA2295E302306031D0800330824061D
:10437200031D080025083206031D08002F30B23144
:10438200DB22A131FD002330F0000F30F100B73104
:104392003827A1317D06031D08004001B40134080D
:1043A200033E233E860087013408F53E8400FA303E
:1043B2000318013E850000080102031CFE2934088F
:1043C200033E233E860087013408E93E8400FA302A
:1043D2000318013E85000008FD0001087D02031C50
:1043E200FE293408A03E8600023087003408033ECE
:1043F200233E84008501000881000130B4070C309F
:10440200340203180800D029AB010130A0000030AB
:10441200A1002B0A0E2AA035A10D890B0C2A4501F9
:104422006A0840012005A20045016B0840012105F0
:10443200A3002208230403196D2A0330F0002B087D
:10444200B3310B23A231403E8600033087000108BE
:104452004001A4000330F0002B08B3310B23A2313A
:10446200403EF3000330F400B331FC23A23140019B
:10447200A5002B082C3E8600033087000108A60009
:104482002B08203E8600033087000108A700243055
:10449200F0000430F100B7313827A2314001A80002
:1044A2000530F0002B08B3310B23A231303E40011E
:1044B200A900AA012A08243E860087010108F80003
:1044C20029082A07B531EB25A23101304001AA079C
:1044D20005302A02031C5B2A0130AB070C302B0289
:1044E200031C062A4501EA01EB010800AA0140016A
:1044F2002A08233E860087010A30F0000030F100CE
:104502007A08F3007908F200B6316126A231700808
:10451200303E81000130AA070A30F0000030F1007D
:104522007A08F3007908F200B7316627A2317108E0
:10453200FA007008F9002A087B06031DA82A2A0837
:10454200233E860087012E3081000130AA077908B8
:104552007A04031D782A7B080319CE2A7B08013EC0
:10456200A000003003180130A1002108803AA20007
:1045720080302202031DBF2A2A082002031CCE2AF1
:10458200782A770886007808870020308100013079
:10459200F7070030F83D0130FC027C0840012A0296
:1045A2000318E42AC22A77088600780887000130B7
:1045B200AA022A08233E84008501000881000130F6
:1045C200F7070030F83D2A08031DD42A7708860031
:1045D20078088700810108003008F3002F08F200F4
:1045E2002E08F1002D08F000A5318025A2317108B6
:1045F200C0007008BF0010304002003003193F02B3
:10460200031C092BE7304001AD000330AE00080067
:104612000030B1001030B2003F083102A000400863
:10462200323BA100A201A3010030B3001030B4005C
:104632003F083302B5004008343BB600B636B50C2D
:104642003508B7003608B800B901BA013F08003E84
:10465200F0001030403DF100F201F3010030F700AC
:104662000030F6000030F5006430F400983101208B
:10467200A23170084001B7077108B83D7208B93D10
:104682007308BA3D3A08A7003908A6003808A50001
:104692003708A400AD319D25A2312308BE002208AF
:1046A200BD002108BC002008BB003E08031D032BEF
:1046B2003D08031D032BE8303B0203303C3B03184B
:1046C200032B40013C08AE003B08AD000800D000BF
:1046D200B6318B26A3310C30400150020318BA2B9D
:1046E2004430AB000030AC005008013EAD00003059
:1046F20003180130AE00AF01B3314B23A3312C08B4
:10470200B1002B08B0004630B200FC30B300B43127
:104712002B24A331A9014430AA000030AB000030A1
:10472200AB310B23A331A9015008C100C201C1352D
:10473200C20D9430410784007930423D80388500B3
:10474200003FAA00013FAB000830AB310B23A3317D
:104752005008A03E8600023087000108B6005008CB
:104762009E31C026A331AF01B330B0000330B10097
:10477200E12BA901B830AA00FA30AB000030AB310E
:104782000B23A3310C3050060319D82B0D305006E1
:104792000319CF2B3330CE00FC30D22B1930CE0090
:1047A200FB30CF004F08CD004E08CC00DC2B24306C
:1047B200CC00FC30CD00AF014D08B1004C08B00078
:1047C2001230A1312C21A331B33183230800EB0134
:1047D2004501EA01EB014001A7010530F00027087D
:1047E200B3310B23A331303E4001A000A6012608BD
:1047F200213E8600870120082607B231DB22A33141
:10480200810001304001A60705302602031CF82B67
:104812000330F0002708B3310B23A331423E860058
:104822000330870081010330F00040012708B331D3
:104832000B23A331413E8600033087008101033000
:10484200F00040012708B3310B23A331403E86001C
:104852000330870081012130F0000430F100B731CC
:104862003827A33140012506031D622C2108031DB0
:104872003E2C22087F390319622C0330F0002708EE
:10488200B3310B23A331403EF3000330F400400167
:104892002108F5002208F600B431E624A3312708E6
:1048A2002C3E860003308700230881002708203E23
:1048B200860003308700240881002708013E430157
:1048C200EB0001304001A7070C3027020318080053
:1048D200EE2B0B307D02B83003197C020318752CC5
:1048E200B830FC000B30FD0010307D026930031936
:1048F2007C02031C802C6830FC001030FD0000306C
:104902004001A3000030A2000430A100B030A0009A
:104912007C08483EF000F4307D3DF100F201F301E5
:104922000030F7000030F6000030F5001A30F400D5
:1049320098310120A43173084001A7007208A60033
:104942007108A5007008A400AD319D25A43120088E
:10495200AE007330B000B101AF01B2013108AD0059
:104962000330AD35890BB22C2D083207F0002E082A
:10497200F1003008AC31B724A431003A0319CB2C32
:1049820001304001AD00320AC72CAD35890BC62C6F
:104992002D08AF0401304001B20708303202031C77
:1049A200AF2C3108AD000330AD35890BD52C2D0865
:1049B200F3002F08F4000830F50030089A316C2219
:1049C200A43101304001B10704303102031CAD2C87
:1049D2000130B0077E30300203180800AC2C7C088E
:1049E200860087014431433F031D082D403F4001AB
:1049F200A000A0302002413FA0008630203B423F71
:104A0200A0000130203B0318082D013008004501A9
:104A120023084001A000A101A201A3012308F30081
:104A22002208F2002108F1002008F0000030F7000F
:104A32000130F6008630F500A030F40098310120F4
:104A4200A4317C08860087014431403F4001A40024
:104A5200413FA500423FA600433FA700730827023B
:104A6200031D3D2D72082602031D3D2D71082502EE
:104A7200031D3D2D700824020318412D0230080049
:104A8200450124084001A000A101A201A3012308BD
:104A9200F3002208F2002108F1002008F0000030A3
:104AA200F7000F30F6004230F5004030F400983144
:104AB2000120A43170084001A4007108A500720809
:104AC200A6007308A7007D08F1007C08F000AE3153
:104AD200E926A431730840012702031D7A2D7208CA
:104AE2002602031D7A2D71082502031D7A2D7008F6
:104AF200240203187E2D0330080000300800003025
:104B0200A3000030A2000030A1000030A00040301D
:104B1200A7000030A6000030A5000030A40027083E
:104B22007302031D9E2D26087202031D9E2D250869
:104B32007102031D9E2D2408700203180E2E0230EE
:104B4200A736A60CA50CA40C890BA12D902D20082C
:104B52002407F4002108253DF5002208263DF60031
:104B62002308273DF70077087302031DC22D76083C
:104B72007202031DC22D75087102031DC22D740835
:104B82007002031C002E20082407F4002108253D92
:104B9200F5002208263DF6002308273DF700740899
:104BA200F0027508F13B7608F23B7708F33B2408E4
:104BB200F4002508F5002608F6002708F70020086B
:104BC200F8002108F9002208FA002308FB0001304E
:104BD200FB36FA0CF90CF80C890BE92D7808F4076E
:104BE2007908F53D7A08F63D7B08F73D7708A30082
:104BF2007608A2007508A1007408A000072E0130F3
:104C0200A336A20CA10CA00C890B012E0230A736F0
:104C1200A60CA50CA40C890B082E27082604250433
:104C22002404031DA82D2108F1002008F00008002B
:104C320044013E080319222E3E08F400BE01740806
:104C420008008B1340016F08F10044014308F30090
:104C5200C30143016C08F00044014208F200C201A2
:104C62008B17F40173080319532E4108031D3F2EBD
:104C7200FA307302031C3F2E0330502E4108031DED
:104C8200482E19307302031C482E0230502E410860
:104C9200031D512E03307302031C512E0130F40008
:104CA200C001C10119307102031C642E4108031DA9
:104CB200642E0130C10074080319622E0230BE0056
:104CC200642E0230F400FA307102031C752E400883
:104CD200031D752E0130C00074080319732E0330B2
:104CE200BE00752E0330F400720803198C2E0230B8
:104CF2007202031C8B2E0A30720203188B2E3E089E
:104D0200031D8B2E74080319892E0430BE008B2ECE
:104D12000430F400BF0114307002031CA42E3F08BB
:104D2200031DA42E40010F1DA42E01304401BF001B
:104D32007408031D9F2E0530F400A42E3E08031DA7
:104D4200A42E0530BE007108031DAD2E7308031D8D
:104D5200AD2E4401C001C1017008031D202E72084E
:104D6200031D202E4401BF01202E7508860001304C
:104D72008700023001020318C62E75088600013032
:104D820087000108810AFA00252F74088600013085
:104D92008700403F4001A000413FA100423FA200E6
:104DA200433FA3007408053E860001308700403F60
:104DB200A400413FA500423FA600433FA7002308AD
:104DC2002702031DEE2E22082602031DEE2E2108C5
:104DD2002502031DEE2E20082402031CF22E0130B0
:104DE200F32E0030FA000530F0007A08B3310B23BD
:104DF200A63174074001A000200886000130870018
:104E0200403FA100413FA200423FA300433FA40014
:104E12007808860079088700403FA500413FA60038
:104E2200423FA700433FA80024082802031D232F66
:104E320023082702031D232F22082602031D232FE6
:104E420021082502031808007608860077088700E3
:104E5200403F4001A000413FA100423FA200033079
:104E6200F0007A08B3310B23A63173074001A30087
:104E720023088600013087002008C03F2108C13F77
:104E82002208C23F78088600790887000530F000C2
:104E92007A08B3310B23A63174074001A000200821
:104EA2008400013085000530A10016001A00A10B14
:104EB200562F0800FF30A400FF30A500FF30A600E7
:104EC2001F30A700220886002308870044312008EB
:104ED200840021088500043100080107A800A90107
:104EE200A90D290DA90CA80C290DA90CA80C28089C
:104EF200AA002908AB000030AB1BFF30AC00AD00AC
:104F02002A08A4052B08A5052C08A6052D08A70527
:104F120001302407B4000030253DB5000030263DA5
:104F2200B6000030273DB70022088600230887001C
:104F3200403FA400413FA500423FA600433FA700D7
:104F42004030A8000030A9000030AA000030AB00B9
:104F52002008860021088700403FAC00413FAD0099
:104F6200423FAE00433FAF0022088600230887007D
:104F7200403FB000413FB100423FB200433FB30067
:104F82000830B336B20CB10CB00C890BC22F330807
:104F9200F3003208F2003108F1003008F00037085F
:104FA200F7003608F6003508F5003408F4009831A9
:104FB2000120A73170084001AC077108AD3D7208AD
:104FC200AE3D7308AF3D2C08A8072D08A93D2E0859
:104FD200AA3D2F08AB3D27082B02031DFA2F2608F6
:104FE2002A02031DFA2F25082902031DFA2F24087D
:104FF20028020318FE2F013008000030080040018B
:10500200C30145012A08031929287C0886007D0866
:105012008700403F4001AD00413FAE00423FAF003C
:10502200433FB000A231ED22A83145012A08643E77
:105032004001C100003003180130C2002E084202B4
:10504200031D25282D084102031C29280130C30015
:10505200400143080800B6318B26A8314001AF0158
:105062005230B000FC30B1000030A1312C21A83107
:105072002A30AF006130B000FC30B1000030A13105
:105082002C21A8316030AF005D30B000FC30B1009F
:105092000030A1312C21A831B631B526A831430107
:1050A2006E08FD006D08FC00A4316A24FF30450142
:1050B200EC00FF30ED006D08EF006C08EE00080018
:1050C200AF014230B000FB30B1001230A1312C21CF
:1050D200A831AF013F08B1003E08B0001230A13143
:1050E2002C21A83101304401C90040014008C2000E
:1050F2004108C300C401C501B331962370084001C1
:10510200C2077108C33D7208C43D7308C53D450816
:105112004501CF00400144084501CE00400143084B
:105122004501CD00400142084501CC0008007E0146
:10513200B8010730C300CE01D901E4015301901335
:1051420094134001960118309700103098000630F1
:1051520099009A01910127309200930194019501DF
:105162007E013A15BA15DB145B151A304F01960011
:10517200FE309700473098007F30990077309A00D0
:10518200DF309B00453040019F009E01F9309D00B9
:105192009C014E018C12961640019E178B17080037
:1051A200F4007408F100F201F135F20D7C30710760
:1051B20084007930723D80388500003FF500013F60
:1051C200F600F7017408C53E8400FA300318013E68
:1051D20085000008770203180529770875078400FF
:1051E20076080318013E85000008700203180229A0
:1051F20077087507840076080318013E85000008C9
:1052020008000130F707E328750884007608850056
:105212000008080045016D0840013F06031D1529DD
:1052220045016C0840013E06031908004401490883
:10523200031D080040013F084501ED0040013E0802
:105242004501EC0040013E083F0403193C293C3073
:10525200AF003F08AC003E08AB000230AD000430A6
:10526200AE00B3312923A931B0000330B1001230AE
:10527200A1312C2108003C30AF003830B000FC30A6
:10528200B1001230A1312C210800FD007D08031D60
:10529200512940011612961116114401BD01080050
:1052A20040011616C830F0000030F100B3315D2322
:1052B200A9314401BC01AC316C24A9314401BB00C9
:1052C200B3319623A9317308BB007208BA00710882
:1052D200B9007008B80001304401BD00B331D223D7
:1052E200A931B3318323A93144013B08031D0800CE
:1052F200B231D222A931003A031908000130440127
:10530200BB000800AA314322A9317708B30076080E
:10531200B2005E30A3003308A4003208A500B40135
:105322003408033E233E860087013408A03E8400F1
:1053320002308500000881000130B4070C303402CD
:10534200031C9129B4013408233E86008701010819
:10535200F8003408203EB531EB25A9310130400177
:10536200B4070F303402031CA4292330F0000F309D
:10537200F100B7313827A931F8002F30B531EB25CC
:10538200080071087302031DC82970087202031C09
:10539200D02970087202FA007108733BD52972088D
:1053A2007002FA007308713BFB0071087302031D5F
:1053B200DC2970087202031CE2297308FD007208DE
:1053C200E5297108FD007008FC007D08F7007C08E3
:1053D200F600F736F60CF736F60CF736F60C7408CC
:1053E2007607F8007508773DF9007B087902031DFE
:1053F200FC297A087802031C002A013008000030D8
:105402000800A0000230F7072008B03EA10077088C
:105412000F39A2007708FB000430FB36890B0E2AF5
:105422007B081038A3002130F3000030F400033071
:10543200F500B531A625AA314001A400B331AA2353
:10544200AA317830B7319827AA314001A4044030FC
:10545200B7319827AA310130FA027A0A03193E2A93
:1054620078088400790885000008B7319827AA31A6
:105472000130F8070030F93D2C2AB3317023400186
:10548200240808005A304001A200A530A000A10162
:10549200FF30F0000030F1002108703E8400F73048
:1054A2000318013E85000008F80022087807F20080
:1054B200F301F30DAA318422AA317008A200FF3051
:1054C200F0000030F10020082207F200F301F30D92
:1054D200AA318422AA317008A0000130A1070C3041
:1054E2002102031C492A2208F800F9012008FA00C7
:1054F200FB017A08FB00FA0178087A04F6007908C1
:105502007B04F7000800F501F31F8E2AF209F30964
:10551200F20A0319F30A0130F500F11F952AF00986
:10552200F109F00A0319F10A700871040319BA2A81
:105532000130F400F11BA52A0130F035F10D890B81
:105542009E2A0130F4079B2A71087302031DAB2ABD
:1055520070087202031CB12A7008F2027108F33B50
:105562000130F136F00C890BB22A0130F402031D2E
:10557200A52A75080319C22AF209F309F20A0319C6
:10558200F30A7308F1007208F00008007408F600CC
:105592007308F5000730F636F50C890BCC2A253056
:1055A200F0007308B3310B23AA317506FB00EE2A13
:1055B2007B08F500F601F535F60DF030F7002A30DC
:1055C200F8007508770786007608783D8700160090
:1055D20001040319092B0130FB077B08F500F601D2
:1055E200F535F60DF030F7002A30F8007508770728
:1055F20086007608783D8700403FF900413FFA0077
:1056020074087A06031D072B73087906031DD92A2D
:105612007B080800B0002A0884002B0885001200CD
:10562200031908002A0884002B0885000008B531F8
:105632002325AB3177084001AF007608AE00B301F5
:1056420005303302031C282BB101B201362B33087B
:105652002E0784002F080318013E85000008AC00C5
:10566200AD012C08B1002D08B2003008F30031085A
:10567200F4000830F500290833079A316C22AB3167
:1056820001304001B30706303302031C212B0130E5
:10569200AA070030AB3D0630A9070C2BAE3193268A
:1056A200AB316E08FD006D08FC00A4316A24AB31F9
:1056B2000E3043016E02753003196D02031C642B18
:1056C20040019711702B0E306E02073003196D02E4
:1056D200031C6E2B400197116F2B400117120130F2
:1056E2004401CA00B3319623AB317308D300720868
:1056F200D2007108D1007008D0000D3043016E0253
:10570200483003196D02031C892B4401C5010800AE
:1057120001304401C50703304502031C0800C501DE
:105722000230C6000800F7007308F4000430F436B3
:10573200890B982B0A3074020318A62B0F307305BD
:10574200F4000A307402031CAF2B7708DD3E84009C
:10575200FA300318013E8500000808000F30730577
:10576200F4000A30F0007308F5000430F536890BB6
:10577200B72B7508B3310B23AB317407F6007708EA
:10578200F53E8400FA300318013E850000087602D7
:10579200031CA62B7708E93E8400FA300318013E69
:1057A20085000008F40076087402031CA62B760814
:1057B2000800B6318B26AB311D304001AF00F2300C
:1057C200B000FB30B1000030A1312C21AB310D30E3
:1057D200A900FD30AA00F930AB001830AB310B2321
:1057E200AB31B3318323AB3140019711D030F0009C
:1057F2000730F100B3315D23AB31B6318B26AB31CB
:1058020011304001AF006930B000FB30B100003010
:10581200A1312C21AB310D30A9000F30AA00FA3092
:10582200AB001830AB310B23AB31B3318323AB3137
:10583200D030F0000730F100B3315D2340019715FD
:10584200080064004401B70140015A08FC00083016
:105852009931A921AC317D08DC007C08DB005A08B3
:10586200FC000A309931A921AC317D08DE007C08A8
:10587200DD005A08FC000A309931A921AC317D08BB
:10588200E0007C08DF005A08FC0008309931A921A9
:10589200AC317D08E2007C08E1005908AE005808EE
:1058A200AD005C08B0005B08AF005E08B2005D08A6
:1058B200B1006008B4005F08B3006208B600610876
:1058C200B5008031A4205808860087015231440176
:1058D20037088100080001304001A700B531432597
:1058E200AC314001A6018D2C6030F300F930F40098
:1058F2001C30F500B531A625AC314001A7002708C0
:1059020003198A2C6430F0000030F100B3315D23BA
:10591200AC3101304001A6070A3026020318942C4C
:105922002708031D752C27080319992C270808003E
:105932000430A500A6012608FE3EF7002130F8003B
:10594200FA30F9001030FA002508AA310222AC31EF
:10595200A7041030A60780302602031C9C2C0130BD
:10596200A507083025020318972C9B2CF60002305D
:1059720070020318C92CF50176307602031CC72C7D
:105982007B3076020318C72C0130F5007508080039
:10599200023070060319D92C1F3070060319D92C56
:1059A20075307602031CD92C7C307602031CDB2C6A
:1059B20001300800753076060319EB2C7B30760631
:1059C2000319EB2C033070060319EB2C1E30700602
:1059D200031DED2C003008000030F30071081D3C5F
:1059E200F200031CF3037308803AF400803074025F
:1059F200031DFD2C700872020318012D01300800EE
:105A020000300800F501F11F0D2DF009F109F00A2F
:105A12000319F10A0130F500F31F162DF209F309FB
:105A2200F20A0319F30A0130F506F601F7017008CC
:105A320071040319432D0130F400F11B282D0130AC
:105A4200F035F10D890B212D0130F4071E2D0130A7
:105A5200F635F70D890B292D71087302031D332DBD
:105A620070087202031C3A2D7008F2027108F33BAF
:105A720076140130F136F00C890B3B2D0130F40223
:105A8200031D282D750803194B2DF609F709F60A8F
:105A92000319F70A7708F1007608F0000800C4013C
:105AA200C5010030A9314621AD31400117169715C5
:105AB20050010C108B134E0196127E01C9164E0135
:105AC2001616A0310020AD316430F0000030F10034
:105AD200B3315D23AD317E01CA1263000000400183
