:1000000080314128A0340F347E14803100308600C6
:10001000003087004E018C1E3F288C1201304401B5
:10002000B0070030B13DB23DB33D0130D0070A30DA
:100030005002031C3F28D00140018D1A25286F0A69
:1000400003192D280130EF072D286F0803192D28DB
:100050006F084301EA004001EF018F183628430181
:10006000690A03193F280130E9073F28430169085D
:1000700003193F2869084401D9004301E9017E10B2
:100080000900803143284301803102208031ED0096
:10009000803103208031EE0040308400A83085009C
:1000A00044011200EB001200EC001200ED001200FF
:1000B000EE001200EF00F0308400283085000030A0
:1000C000FE000730FF00A831662080314001EF01BB
:1000D000E0308400013085000D30FE000030FF006C
:1000E000A8316620803120308400023085004B30FA
:1000F000FE000030FF00A83166208031A03084006F
:10010000023085004830FE000030FF00A831662034
:10011000803120308400033085004E30FE000030F6
:10012000FF00A83166207E1040018A31482A420132
:10013000EF014301BA01BE013E35F03E8600870162
:100140002A30873D3E350030873D0030C03FC13FFB
:100150000130BE07031D9C284401C701C801CF011F
:100160004301E2014401C501C60123084101E90040
:10017000EA01EB01EC016C08F3006B08F2006A087D
:10018000F1006908F0000030F7000130F600863019
:10019000F500A030F400AD31192580317308450118
:1001A000B3007208B2007108B1007008B0004401D9
:1001B00024084101E900EA01EB01EC016C08F300BD
:1001C0006B08F2006A08F1006908F0000030F700DF
:1001D0000F30F6004230F5004030F400AD31192503
:1001E000803173084501AF007208AE007108AD00A0
:1001F0007008AC0001304401AF000030AE000030A8
:10020000AD000130AC00410165088600660887003A
:10021000403F4401E500413FE600423FE700013036
:100220004301AE000030AD000030AC000030AB0048
:10023000AF0142290E304201E700FC30E8000430F3
:10024000E9000230EC0096304401C3000030402940
:10025000A7304201E700FB30E8000730E900043036
:10026000EC00F4303D29F0304201E700FB30E800BB
:100270000530E9000330EC005E304401C30001307A
:10028000C4004B2944012B08013A03191A29023AE8
:10029000031928293329410165088600660887006B
:1002A000403F4301C500413FC600423FC7004608EA
:1002B0004001E300430147084001E4002030E5002D
:1002C000BF30E6000130E7004301450888316F2068
:1002D00080314301BD003D08031D842EBF30FC006A
:1002E0000130FD00AC3138248031003A03199429E3
:1002F000C5304001C1000130C20043014208400145
:10030000C600430141084001C500430140084001C7
:10031000C40043013F084001C300A43138248031A8
:100320009131532100300800410168084201EB007F
:10033000410167084201EA004301BE0163083E0231
:1003400003183C2A0330F0003E08A8317F2080319A
:100350003F3E4301BB003B08860003308700010895
:100360004506031DC4293B0A8600033087000108A7
:100370004606031DC4293B08023E86000330870061
:10038000010847060319382A3B0886000330870016
:100390000108031DD2293B0A8600033087000108AB
:1003A0000319382A3B088600033087000330413F99
:1003B0004001E30043013B0886000330870003301F
:1003C000423F4001E4001030E500A030E60001307B
:1003D000E70043013B0886000330870001088831AD
:1003E0006F2080314301BD0003303D0603193C2AD4
:1003F0003D08031D842E42082302031D092A4108DB
:100400002202031D092A40082102031D092A3F0870
:100410002002031C102A42016A086B04031D382ABB
:1004200043013B08860003308700403FC500413F41
:10043000C600423FC700A030860001308700BF30B1
:1004400084000130850005304101E90016001A00E2
:10045000E90B262A43013E08333E8600033087001D
:100460000108643E4201EA00003003180130EB004D
:1004700001304301BE079E2942016A086B0403193B
:10048000B02A01304301E200C5304101DD000130F6
:10049000DE00BF30DF000130E0009431B324803152
:1004A0004301BD00E20103303D06031D692AA5306A
:1004B000F300B030F400BA30F500C530F60001307A
:1004C000F700BF30F8000130F9009A315E22803128
:1004D000822D3D08031D842EBF30FC000130FD003D
:1004E000AC3138248031003A031D78294301420899
:1004F0004001B000430141084001AF004301400802
:100500004001AE0043013F084001AD00A7310A277A
:10051000803142016A08053E4101E9000030420194
:100520006B3D4101EA0040012E0841016A02031DB2
:100530009D2A40012D084101690203187829A53040
:10054000F300B030F400BA30F500C530F6000130E9
:10055000F700BF30F8000130F9009A315E22803197
:100560004201EE0102306E020318E82C4301BE0185
:100570004201690843013E020318E42C4201ED01E7
:1005800069086D020318E02C43013E084201670729
:10059000840068080318013E850000084301C50077
:1005A00042016D086707840068080318013E850052
:1005B00000084301C60042016E084301C700460817
:1005C0004001E300430147084001E4001030E5002A
:1005D000BF30E6000130E7004301450888316F2055
:1005E00080314301BD0003303D060319822D3D08D3
:1005F000031D842E4508031D132B4608031D132BD2
:1006000042016E08031D132BBF30860001308700A6
:10061000AB3084000130850005304101E90016004F
:100620001A00E90B0F2B4301C40142016F0843017B
:1006300044020318572B0330F0004408A8317F20F0
:100640008031023E3E3E86000130870001084201B3
:100650006E06031D532B43014408343E86000130CF
:10066000870001084101E90043013E084101E90218
:1006700001306907EA0003306A020318532B430173
:100680004408393E86000130870001084101E90035
:1006900042016D084101E90201306907EA000330B7
:1006A0006A02031C572B01304301C407152B42017A
:1006B0006F08430144020318022C0530F00044087F
:1006C000A8317F2080314E3E860001308700403FB8
:1006D0004101E900413FEA00423FEB00433FEC00AB
:1006E0006C0843014202031D852B41016B08430145
:1006F0004102031D852B41016A0843014002031D8D
:10070000852B4101690843013F020318DC2C440892
:10071000BC003C08013E4101E900003003180130F3
:10072000EA006A08803AEB0080306B02031D9C2BC4
:1007300042016F08410169020318FF2B0330F000EA
:1007400043013C08A8317F208031033E3E3E8600B5
:1007500001308700403F4101E900413FEA00423F4C
:10076000EB000330F00043013C08A8317F208031CA
:100770003E3E86000130870041016908C03F6A089B
:10078000C13F6B08C23F0530F00043013C08A8316F
:100790007F208031053E4E3E8600013087000530C7
:1007A000F00043013C08A8317F2080314E3E840098
:1007B0000130850005304101E90016001A00E90BFF
:1007C000DD2B43013C08343E8600013087003C08A5
:1007D000013E343E840001308500000881003C0861
:1007E000393E8600013087003C08013E393E8400D6
:1007F00001308500000881000130BC07892B0130E1
:100800004201EF0242016F084301C4006C2C420117
:100810006C084301440203186A2C0330F0004408BA
:10082000A8317F208031FD3E3E3E860001308700AA
:10083000403F4101E900413FEA00423FEB00033005
:10084000F00043014408A8317F2080313E3E8600FD
:100850000130870041016908C03F6A08C13F6B0849
:10086000C23F0530F00043014408A8317F208031A9
:10087000FB3E4E3E8600013087000530F00043010C
:100880004408A8317F2080314E3E8400013085002D
:1008900005304101E90016001A00E90B4B2C430119
:1008A0004408343E8600013087004408FF3E343E51
:1008B000840001308500000881004408393E86002C
:1008C000013087004408FF3E393E84000130850036
:1008D000000881000130C402440803199A2C053035
:1008E000F0004408A8317F208031FB3E4E3E860058
:1008F00001308700403F4101E900413FEA00423FAB
:10090000EB00433FEC006C0843014202031D982CAE
:1009100041016B0843014102031D982C41016A0803
:1009200043014002031D982C4101690843013F0225
:10093000031C072C42016C08430144020318DC2C01
:100940000330F0004408A8317F2080313E3E86000D
:100950000130870043014508C03F4608C13F4708B2
:10096000C23FBF308600013087000530F0004408E8
:10097000A8317F2080314E3E840001308500053053
:100980004101E90016001A00E90BC22C430144089A
:10099000343E8600013087003E0881004408393E1D
:1009A00086000130870042016D0881006C086F02EB
:1009B0000318DC2C0130EF0701304201ED07C02A9B
:1009C00001304301BE07B82A01304201EE07B22AC6
:1009D00044012F084001B00044012E084001AF003F
:1009E00044012D084001AE0044012C084001AD0037
:1009F000A7310A2780312E08C2002D08C100A83176
:100A0000722080314301BE0142016F0843013E0262
:100A10000318822D0330F0003E08A8317F2080317A
:100A20003E3E860001308700403F4301C500413F04
:100A3000C600423FC7000530F0003E08A8317F20C5
:100A400080314E3E860001308700BF308400013087
:100A5000850005304101E90016001A00E90B2C2D34
:100A6000C530DD000130DE00BF30DF000130E000C6
:100A70009431B32480314301BD003D080319442D56
:100A800003303D06031D842EA530F300B030F40082
:100A9000BA30F500C530F6000130F700BF30F8007D
:100AA0000130F9009A315E22803144012F08400163
:100AB000B00044012E084001AF0044012D08400160
:100AC000AE0044012C084001AD00A7310A27803157
:100AD0002E08C2002D08C100A831722080310330D9
:100AE00043013D060319822DBF30FC000130FD009B
:100AF000AC3138248031003A031D822D013043018E
:100B0000BE07042D43013A08031DB32D44016508B7
:100B10004301C500440166084301C600440167085B
:100B20004301C70044012F084301C20044012E08BD
:100B30004301C10044012D084301C00044012C08B9
:100B40004301BF00A530F300B030F400BA30F50027
:100B5000C530F6000130F700BF30F8000130F90071
:100B60009A315E2280314301BE013A083E020318E9
:100B70000B2E0330F0003E08A8317F208031013E6B
:100B8000A53E86000130870001084101ED000330D9
:100B9000F00043013E08A8317F208031023EA53E8F
:100BA00086000130870001084101EE000530F000A9
:100BB00043013E08A8317F208031B03E4101EF0063
:100BC0000330F00043013E08A8317F208031A53E6C
:100BD00086000130870001084201B30041016D0821
:100BE0004001E30041016E084001E4004030E500AF
:100BF00041016F084001E6000130E700420133087F
:100C000088316F2080314301BD003D08031D842ED3
:100C10000130BE07B52D4201CD01023043013A0239
:100C2000031C252E33083802031D202E32083702FC
:100C3000031D202E31083602031D202E30083502F8
:100C40000318252E01304201CD0042014D08430119
:100C5000BE000530F0003E08A8317F208031B03E54
:100C60004001A0000130A100AB30A2000130A30080
:100C70009B3103238031003A031D632E4301C701DA
:100C8000C601C501C5304001C1000130C2004301A9
:100C90002E084001C60043012D084001C500430154
:100CA0002C084001C40043012B084001C300A431BB
:100CB00038248031013043012E020318612E0030A8
:100CC0000800033008000330F00043013E08A8315B
:100CD0007F208031A53E4001C1000130C2000530B7
:100CE000F00043013E08A8317F208031B03E8600ED
:100CF00001308700403F4001C300413FC400423FF4
:100D0000C500433FC6008D2965304001C100023057
:100D1000C20044012F084001C60044012E084001D2
:100D2000C50044012D084001C40044012C084001C5
:100D3000C300A4313824803143013D030319A22E9E
:100D40000130080002300800B1006330B800BB2F4A
:100D50002E08031DB62E3808AA000330AB00E4307D
:100D6000AC00FB30AD00A931772108003808F7004E
:100D70000330F8002E08AF00B0012F08F90030084A
:100D8000FA00FB01A531BC2586317808AB00770855
:100D9000AA00FF30AC00FB30AD00A931772108007C
:100DA0003808F7000330F8002E08AF00B0012F0814
:100DB000F9003008FA00FB01A531BC25863178081E
:100DC000AB007708AA001630AC00FC30AD00A931AA
:100DD000772108003808F7000330F8002E08AF002C
:100DE000B0012F08F9003008FA00FB01FB0AA53119
:100DF000BC2586317808AB007708AA002830AC0003
:100E0000FC30AD00A931772108003808F700033025
:100E1000F8002E08AF00B0012F08F9003008FA00E2
:100E2000FB01A531BC2586317808AB007708AA0004
:100E30002830AC00FC30AD00A9317721080038081B
:100E4000F7000330F8002E08F63EF900FF300318D3
:100E50000030FA00FB01FB0AA531BC2508002E0872
:100E6000031D362F4C30B200FB30392F2530B20035
:100E7000FC30B3003808AA000330AB003308AD00E3
:100E80003208AC00A931772108003808F700033098
:100E9000F8002E08AF00B0012F08F9003008FA0062
:100EA000FB01FB0AA531BC2508003808F700033018
:100EB000F8002E08643EF900003003180130FA00F3
:100EC0000230FB00A531BC2508003808F7000330CC
:100ED000F8002E08AF00B0012F08F0003008F10034
:100EE0000A30F2000030F300A931D92186317108AF
:100EF000FA007008F900FB01A531BC25863178089D
:100F0000AB007708AA001630AC00FC30AD00A93168
:100F1000772108002E08031D552F3808AA0003303A
:100F2000AB00FA30AC00FB30AD00A93177210800EE
:100F30002E030319AC2F03302E060319A32FC33041
:100F4000B600FB30A62F5A30B600FB30B70037088A
:100F5000B5003608B400B02FD830B400FB30B5006F
:100F60003808AA000330AB003508AD003408AC00E7
:100F7000A931772108003108BF3E8400FA300318F8
:100F8000013E85000008003A0319A82E013A031912
:100F9000D02E033A0319EA2E013A0319052F073A16
:100FA00003191F2F013A03192F2F033A0319452F55
:100FB000013A0319552F0F3A0319652F013A031906
:100FC0008A2F982F08007308860074088700750818
:100FD0007F398100730886007408870041317608E4
:100FE0007F398100730886007408870042317608D3
:100FF000F7000730F736890BFA2F770881000800D1
:10100000AF317C2788317708B3007608B200AA3167
:101010000F2288314001B4013408233E8600870145
:101020003408203EA8314E20883181000130400133
:10103000B4070F303402031C0C285E302306031D56
:10104000080033082406031D080025083206031D86
:1010500008002F30A8314E208831FD002330F000E9
:101060000F30F100AC31EB2488317D06031D080000
:101070004001B4013408033E233E86008701340852
:10108000E33E8400FA300318013E850000080102A7
:10109000031C68283408033E233E86008701340879
:1010A000D73E8400FA300318013E85000008FD0099
:1010B00001087D02031C68283408203E86000230A7
:1010C00087003408033E233E840085010008810028
:1010D0000130B4070C303402031808003A284101EB
:1010E000B70040016308F0006408F10041013708CF
:1010F000AB31942388317108B6007008B500AA019D
:10110000AB013608F4003508F300A03138208831EF
:101110004101B800B401403040016506031921299E
:1011200041013808A000A101A035A10DF030A200B6
:101130002A30A3002008220786002108233D8700CB
:10114000403FA400413FA50036082506031DAA28FC
:1011500035082406031D12293808A000A101A03576
:10116000A10DF030A2002830A3002008220786003D
:101170002108233D87001600FF3AA4001600FF3A1D
:10118000A4040319EB283808A000A101A035A10D83
:10119000F030A2002830A300200822078600210892
:1011A000233D8700403FA400413FA5002408A6003E
:1011B0002508A700A801A9010830A635A70DA80D8C
:1011C000A90D890BDD282908AF002808AE002708E3
:1011D000AD002608F2280130AF000030AE0000302C
:1011E000AD000030AC00400166088600670887004B
:1011F00041012C08C03F2D08C13F2E08C23F2F08D7
:10120000C33F4001660886006708870044314101FA
:101210003808F03E840085012E30853D00088100AD
:1012200000300800440144084602031D1929430800
:101230004502031C1D29033008000130C50700309A
:10124000C63D40016308F3006408F400410137081B
:101250009D31B4258831A931A7218831003A03197D
:10126000332901300800B9304001D8000030D900DE
:101270006508DA00A1310621883141014B080319C4
:101280004B290130C8000030C7000030C6000030D4
:10129000C500CA01AC294501330841014002031DC4
:1012A00061294501320841013F02031D61294501C1
:1012B000310841013E02031D612945013008410109
:1012C0003D02031C7B29B930F0000030F100A3314E
:1012D00080238831730845012F02031D7929720884
:1012E0002E02031D792971082D02031D792970082A
:1012F0002C0203189F2944014F08031D8429E8305C
:101300004101B000033088292C304101B000013088
:10131000B1000130AA070030AB3D2B083102031D9C
:1013200093292A08300203189729023008000A304E
:10133000F0000030F100A831C02088312B290130A5
:101340004401CF0041014908031DAC290130B40715
:1013500003303402031C2B2940016608860067080D
:10136000870041014508C03F4608C13F4708C23FCA
:101370004808C33F4001660886006708870044317B
:1013800041014A08810040304001650603191029D7
:10139000003044014802FF30031947020318162A9F
:1013A00041013835F03E860087012A30873D3835C7
:1013B0000030873D3508C03F3608C13F0130480244
:1013C0000318F72941014508A0004608A100470875
:1013D000A2004808A3000830A336A20CA10CA00C60
:1013E000890BEC292108B3002008B200FC29FF304A
:1013F0004101B200FF30B3003835F03E860087016E
:101400002830873D38350030873D3208C03F3308EB
:10141000C13F3808F03E860087012E30873D4A08DC
:10142000810001304401C7070030C83D2F08410149
:101430004802031D2B2A44012E0841014702031DC7
:101440002B2A44012D0841014602031D2B2A440189
:101450002C084101450203181029B93086000030DC
:1014600087004C31403F4401AC00413FAD00423F5A
:10147000AE00433FAF00410137084401E5004001A1
:1014800063084401E600400164084401E7001029B4
:10149000AE3149268A314301DE01500193181318F9
:1014A000542A01304301DE0043015E08DB0088312D
:1014B00000208A31A8318E208A31A3312A238A3133
:1014C0009831BE208A31A431F8248A31003A0319B8
:1014D0007A2A5D08E8005E08E9005F08EA00430137
:1014E0005B08031D852A44015E08F3005F08F400D1
:1014F0005D08822AE301E401E201E101E001F30178
:10150000F40100309D31B4258A3144016408031D83
:101510008C2ACD01CE01932A6408643ECD000030B0
:1015200003180130CE0040011915AA3146228A3134
:10153000AD31DE258A3150010C14A831E6208A3104
:1015400073084501D3007208D2007108D1007008F9
:10155000D0005308D7005208D6005108D5005008D3
:10156000D4005708DB005608DA005508D9005408A3
:10157000D8005B08DF005A08DE005908DD00580873
:10158000DC0064009B31A8238A314301DF005F083F
:101590000319FB2AA83138208A31003A031DFB2A9F
:1015A00005305F060319FB2A03305F060319FB2A87
:1015B000A9314B218A314301DF01FB2AA9314B219B
:1015C0008A3144016308031DE72A0130E82A00300C
:1015D000A53159258A310C2B903153208A310C2B9F
:1015E0000130EB000C2BA9314B218A310130A531A0
:1015F00059258A310C2B5F08013A0319DE2A033A78
:101600000319EC2A013A0319F02A073A0319F32ABD
:10161000013A0319EC2A0C2B45015B08FB005A0820
:10162000FA005908F9005808F800A9318F218A31C9
:101630007B08031D252B7A08031D252B7908031D24
:10164000252B32307802031C342BA831E6208A3156
:1016500073084501DB007208DA007108D9007008D0
:10166000D80096314C268A3144015A0803193C2B84
:10167000DA01903153208A3145015708FB005608A2
:10168000FA005508F9005408F800A9318F218A3171
:101690007B08031D552B7A08031D552B7908031D64
:1016A000552B96307802031C642BA831E6208A3132
:1016B00073084501D7007208D6007108D50070087C
:1016C000D400AB314B238A3145015F08FB005E0833
:1016D000FA005D08F9005C08F800A9318F218A3111
:1016E0007B08031D7C2B7A08031D7C2BB830780205
:1016F0000B30793B031C8B2BA831E6208A31730811
:101700004501DF007208DE007108DD007008DC00B2
:10171000983100208A3144015C080319AD2B450142
:101720004F08FB004E08FA004D08F9004C08F8007D
:10173000A9318F218A317B08031DA82B7A08031D4C
:10174000A82B7908031DA82B1E307802031CAD2B93
:101750004401DC0140019715171643016C08031979
:10176000CD2BA831E6208A3145014808700243019B
:10177000D30045014908713B4301D40045014A08A3
:10178000723B4301D50045014B08733B4301D60032
:10179000D61BCD2BA93122218A3145015308FB00EC
:1017A0005208FA005108F9005008F800A9318F21B9
:1017B0008A317B08031DE52B7A08031DE52B3030A9
:1017C00078027530793B031CF42BA831E6208A316E
:1017D00073084501D3007208D2007108D100700867
:1017E000D000A83135208A31A83138208A31003A1A
:1017F0000319412C440120080319412C3F08FB0028
:101800003E08FA003D08F9003C08F800A9318F2194
:101810008A3178084301D3007908D4007A08D500CA
:101820007B08D600440120084301D700D801D90124
:10183000DA015A08F3005908F2005808F100570875
:10184000F0000030F7000030F600EA30F5006030BC
:10185000F400AD3119258A31730843015602031D86
:101860003B2C72085502031D3B2C71085402031DCA
:101870003B2C70085302031C412C0030AC31642413
:101880008A31440121080319862C3F08FB003E08D9
:10189000FA003D08F9003C08F800A9318F218A318F
:1018A00078084301D3007908D4007A08D5007B0872
:1018B000D600440121084301D700D801D901DA013B
:1018C0005A08F3005908F2005808F1005708F000D0
:1018D0000030F7000030F600EA30F5006030F40028
:1018E000AD3119258A31730843015602031D822C3C
:1018F00072085502031D822C71085402031D822CAC
:1019000070085302031C862C0330EB0043016B0864
:101910000319D72C03306B020318AB2CA9314B21D0
:101920008A3143016B030319992C7E30DC00FB30B4
:101930009C2C4630DC00FB30DD005D084001C70018
:1019400043015C084001C600DC30C8000530C90016
:10195000A931C0218A314301EB01A0317C208A31B9
:10196000AA3146228A31A831E6208A31730845011E
:10197000D3007208D2007108D1007008D00053085B
:10198000D7005208D6005108D5005008D400570897
:10199000DB005608DA005508D9005408D8005B0867
:1019A000DF005A08DE005908DD005808DC009C31D1
:1019B000F8248A31C12A0130B7000030B800003065
:1019C000B9000030BA003508BB003608BC00BD01C4
:1019D000BE012F08BF003008C000C101C2013F088E
:1019E000BB074008BC3D4108BD3D4208BE3D3B0829
:1019F000B7073C08B83D3D08B93D3E08BA3D013047
:101A0000BA36B90CB80CB70C890B002D2D0886001E
:101A10002E0887003708C03F3808C13F0130B700A3
:101A20000030B8000030B9000030BA003308BB0005
:101A30003408BC00BD01BE013108BF003208C0003F
:101A4000C101C2013F08BB074008BC3D4108BD3D84
:101A50004208BE3D3B08B7073C08B83D3D08B93DCC
:101A60003E08BA3D0130BA36B90CB80CB70C890B38
:101A7000332D2D088600870142313708C03F3808D2
:101A8000C13F2D0886002E088700403FB700413F28
:101A9000B8003708F0003808F100F201F301440102
:101AA00027084001B900BA01BB01BC013C08F7009E
:101AB0003B08F6003A08F5003908F400AD31192565
:101AC0008C3173084001D3007208D2007108D10034
:101AD0007008D0002D0886002E088700403FB70010
:101AE000413FB8003708F4003808F500F601F70167
:101AF0002D0886002E088700403FB900413FBA00FC
:101B00003908F0003A08F100F201F301AD3119256E
:101B10008C3170084001BB007108BC007208BD0028
:101B20007308BE000630BE36BD0CBC0CBB0C890B66
:101B3000932D3E08D7003D08D6003C08D5003B0851
:101B4000D4005308F3005208F2005108F100500885
:101B5000F0000030F7000030F6000030F5001930DA
:101B6000F400AD3119258C3170084001B7007108BF
:101B7000B8007208B9007308BA000130BA36B90C5F
:101B8000B80CB70C890BBE2D0030A3000030A200AA
:101B90000030A1006430A0005708F3005608F2009E
:101BA0005508F1005408F00044012808643EF40090
:101BB000003003180130F500F601F51BF603760836
:101BC000F700AD3119258C3173084001A700720868
:101BD000A6007108A5007008A400A23133228C3140
:101BE0002008B7072108B83D2208B93D2308BA3DAF
:101BF0002D088600870144313708C03F3808C13FAF
:101C00003908C23F3A08C33F2D0886008701423198
:101C1000403FB700413FB8003708F0003808F100F6
:101C2000F201F301440127084001B900BA01BB01E8
:101C3000BC013C08F7003B08F6003A08F5003908FB
:101C4000F400AD3119258C3173084001D3007208BE
:101C5000D2007108D1007008D0002D0886008701DD
:101C60004231403FB700413FB8003708F400380820
:101C7000F500F601F7012D08860087014231403F4B
:101C8000B900413FBA003908F0003A08F100F2010A
:101C9000F301AD3119258C3170084001BB0071088A
:101CA000BC007208BD007308BE000630BE36BD0C15
:101CB000BC0CBB0C890B562E3E08D7003D08D60045
:101CC0003C08D5003B08D4005308F3005208F2004A
:101CD0005108F1005008F0000030F7000030F60025
:101CE0000030F5001930F400AD3119258C31700841
:101CF0004001B7007108B8007208B9007308BA0053
:101D00000130BA36B90CB80CB70C890B812E0030F3
:101D1000A3000030A2000030A1006430A0005708EA
:101D2000F3005608F2005508F1005408F000440191
:101D30002808643EF400003003180130F500F60175
:101D4000F51BF6037608F700AD3119258C317308C1
:101D50004001A7007208A6007108A5007008A40041
:101D6000A23133228C312008B7072108B83D220860
:101D7000B93D2308BA3D2D08860087014831370850
:101D8000C03F3808C13F3908C23F3A08C33F2D0859
:101D9000860087014431403FF000413FF100423F5F
:101DA000F200433FF3002D08860087014831403F91
:101DB000F400413FF500423FF600433FF700A331F6
:101DC000DA238C312D08860087014C317008C03F22
:101DD0007108C13F7208C23F7308C33FCD0130088C
:101DE000F1002F08F0003608F3003508F200183033
:101DF000F4000030F500AE31FB268C31003A0319B7
:101E0000152F3208F1003108F0003408F3003308D0
:101E1000F2001830F4000030F500AE31FB268C31B2
:101E2000003A0319152F0130CD002D0886008701D7
:101E300050314D08810030083602031D212F2F0834
:101E40003502031C562F35083604031D2A2FC50101
:101E5000C601522F3508A0003608A100A201A30137
:101E60002F083502B7003008363BB8003708B900F4
:101E70003808BA00BB01BC010830B935BA0DBB0D3A
:101E8000BC0D890B3D2F3C08A7003B08A6003A0873
:101E9000A5003908A400A23133228C312108C600E4
:101EA0002008C5004608C40045087D2F2F08A00063
:101EB0003008A100A201A30135082F02B70036089F
:101EC000303BB8003708B9003808BA00BB01BC0184
:101ED0000830B935BA0DBB0DBC0D890B692F3C0814
:101EE000A7003B08A6003A08A5003908A400A231C3
:101EF00033228C312108C4002008C3003208340288
:101F0000031D842F31083302031CB92F3308340416
:101F1000031D8D2FC901CA01B52F3308A000340855
:101F2000A100A201A30131083302B7003208343BFB
:101F3000B8003708B9003808BA00BB01BC01083046
:101F4000B935BA0DBB0DBC0D890BA02F3C08A700FD
:101F50003B08A6003A08A5003908A400A2313322A4
:101F60008C312108CA002008C9004A08C800490865
:101F7000E02F3108A0003208A100A201A30133081C
:101F80003102B7003408323BB8003708B9003808CE
:101F9000BA00BB01BC010830B935BA0DBB0DBC0D90
:101FA000890BCC2F3C08A7003B08A6003A08A500E7
:101FB0003908A400A23133228C312108C80020083E
:101FC000C70043084707CE004408483DCF00013012
:101FD0004F02003003194E020318F52F4E08B700C8
:101FE000B8013708CB003808F82FFF30CB0000309D
:101FF000CC002D088600870151314B088100080074
:1020000044016E0840013F06031D0A2844016D0883
:1020100040013E06031908003F084401EE0040015C
:102020003E084401ED00003040013F0264300319D6
:102030003E0203182F283C30AC003F08F8003E0851
:10204000F700F901F90A0330FA00A731852790312A
:10205000AD000230AE000030A631942608000A30F0
:10206000F0000030F1003E08053EF20000303F3D38
:10207000F300AD31782590317108C1007008C000BF
:102080003C30AC004108F8004008F700F90103308B
:10209000FA00A73185279031AD000230AE00003044
:1020A000A63194260800A9314B21903140019711A7
:1020B00019114301EC014001AC013730AD00FB3098
:1020C000AE000130A63194269031A9310E21903115
:1020D00044016308031D6F286408031D732843012E
:1020E000CA01CB017B286408643E4301CA0000306A
:1020F00003180130CB0068304101E5000230E600F2
:1021000043014B084101E80043014A084101E7004F
:102110008031972090314301D200520803199D2845
:102120000330520603199D2844016808031D9D28A9
:10213000690803196A0803199F284401E301630829
:10214000031DE42843015208031DAD28440168081B
:10215000031DB1286908031DB1284301CC01CD013D
:10216000E128430160089C3EC800FF30613DC90082
:10217000013049020030031948020318D628003004
:1021800061026630031960020318CB280130D000C9
:102190000030D100D12860089C3ED000FF30613D66
:1021A000D1005108CF005008CE00DA28FF30CE0011
:1021B0000030CF004E08C800C9014808CC004908CB
:1021C000CD004C084401E400A8315A20903143016D
:1021D00061084401CE00430160084401CD00430181
:1021E00061084401CC00430160084401CB00AA31DE
:1021F000C5229031FF304401EB00FF30EC00430179
:1022000061084001BF00430160084001BE00AC31DD
:102210009124903143015203031D1329753040016D
:10222000BE00FB301B2903305206031D20296C30F1
:102230004001BE00FB30BF00D030C00007302C2969
:1022400002305206031D302909304001BE00FC3027
:10225000BF00E830C0000330C100AE31122690311B
:10226000A831352090314001191597154401DB0143
:10227000A831E62073084501C7007208C60071083E
:10228000C5007008C40047084401BF004501460866
:102290004401BE00450145084401BD004501440814
:1022A0004401BC0008004001A401A2010030430128
:1022B0006102C93003196002031808004401400894
:1022C00003194108031908004001A50143016308EF
:1022D0004001250203188629250803197C292508B1
:1022E000A03E8600023087000108F9002408F902A8
:1022F00080307902031883292508A03E8600023029
:1023000087000108A4000130A5076629A601430142
:102310006308400126020318C9290330F00026088B
:10232000A8317F209131413E8600033087000108AB
:1023300044014206031DC5294008F3000330F000A4
:1023400040012608A8317F2091313F3E86000330AE
:1023500087000108AA31E6229131003A0319C52904
:1023600044014108F3000330F00040012608A83181
:102370007F209131403E8600033087000108AA315A
:10238000E6229131003A031DC92901304001A60718
:1023900087294001260843016306031DF6294001F1
:1023A000A601F0290330F0002608A8317F209131E2
:1023B0003F3E8600033087000108031DED290330EE
:1023C000F00040012608A8317F209131403E860070
:1023D0000330870001080319F62901304001A607E0
:1023E0004301630840012602031CD229400126084C
:1023F00043016306031D1C2A0C3063020318032AE1
:102400000130E3071C2A4001A501A6012508A03ED2
:1024100086000230870001082402A300220823025C
:10242000031C162A2308A2002508A6000130A507D0
:102430000C302502031C062A0330F0004001260858
:10244000A8317F2091313F3E860003308700440150
:102450004008C03F4108C13F4208C23F43016008F5
:102460009C3EF900FF30613DFA0001307A020030F5
:10247000031979020318452A60089C3E4001A00018
:10248000FF304301613D4001492AFF304001A00077
:102490000030A1002608333E860003308700200864
:1024A00081002608A03E8600023087002408013EF5
:1024B00081000130F9000030FA00260A612AF9355E
:1024C000FA0D890B5F2A79084401C9047A08CA0405
:1024D000080043016208031D832A40016808860042
:1024E000690887000108EC000230EC36890B752A78
:1024F0006C08ED00EE016D084101CC0040016E0852
:102500004101CD00882A01304101CC000030CD00CE
:102510004C08D30043016208031DA52A4001680846
:1025200086006908870041310108EC000230EC3672
:10253000890B972A6C08ED00EE016D084101CE0071
:1025400040016E084101CF00AA2A01304101CE00AE
:102550000030CF004E08D4005308031DB12A0130CB
:10256000D3005408031DB62A0130D400D001D20193
:1025700040016808860069088700403F4101DA0091
:10258000413FDB00423FDC005308F00052088F3E21
:102590008400FB300318013E85000008A8317F202D
:1025A0009231F3004001680886006908870001083D
:1025B000AA312A2292314101DA005408F00052086F
:1025C000873E8400FB300318013E85000008A831D7
:1025D0007F209231F3004001680886006908870077
:1025E00041310108AA312A2292314101DB00400128
:1025F0006808860069088700010841015A06031D22
:102600000C2B4001680886006908870041314101B0
:102610005B0801060319522B5B084001E3004101EE
:102620005C084001E4002030E500D530E6000030D1
:10263000E70041015A0888316F2092314101D100F1
:1026400051080319252B51080800D5304001A0007E
:102650000030A1006B08A3006A08A2009B3103238D
:102660009231003A0319522B6808860069088700E6
:1026700041015A08C03F5B08C13F5C08C23FD530EA
:1026800086000030870040016A0884006B088500DE
:102690000530EC0016001A00EC0B4A2B013041010A
:1026A000D000B82A01304101D20708305202031C81
:1026B000B82A5008031DB62A5303031D642B540384
:1026C000031D642B003008000230F0000030F100E0
:1026D0005308013EF200003003180130F300A1312D
:1026E000E62192317008D3000230F0000030F10092
:1026F0005408013EF200003003180130F300A1310C
:10270000E62192317008B52A01304101CC00013038
:10271000CF0040016808860069088700403F4101FA
:10272000D500413FD600423FD70040016C08031955
:10273000A32B41014F08F3005608AA312A229331F6
:102740004101D600AC2B41014F08F3005508AA31D6
:102750002A2293314101D5004001680886006908AA
:102760008700010841015506031DC12B400168087F
:1027700086006908870041314101560801060319A6
:10278000E92B56084001E300410157084001E400ED
:102790002030E500D030E6000030E7004101550868
:1027A00088316F2093314101CD004D080319DA2B98
:1027B0004D080800D0304001A0000030A1006B0897
:1027C000A3006A08A2009B3103239331003A031D42
:1027D000F12BFE304101CF074F08803A813E0318AC
:1027E000892B41014F08803A813E0318F92B0030B4
:1027F0000800400168088600690887004101550803
:10280000C03F5608C13F5708C23FD0308600003055
:10281000870040016A0884006B0885000530ED00E0
:1028200016001A00ED0B102C02304101CE004E08AC
:102830000319F72B40016808860069088700403FAC
:102840004101D500413FD600423FD70040016C080E
:1028500003193A2C41014E08F0004F08A8317F209F
:102860009331F30041015608AA312A2293314101E4
:10287000D600492C41014E08F0004F08A8317F20B6
:102880009331F30041015508AA312A2293314101C5
:10289000D5004001680886006908870001084101E9
:1028A0005506031D5E2C40016808860069088700F4
:1028B00041314101560801060319A82C5608400170
:1028C000E300410157084001E4002030E500D0302A
:1028D000E6000030E7004101550888316F20933150
:1028E0004101CD004D08031DD82BD0304001A00080
:1028F0000030A1006B08A3006A08A2009B310323EB
:102900009331003A0319A82C6808860069088700EB
:1029100041015508C03F5608C13F5708C23FD0305B
:1029200086000030870040016A0884006B0885003B
:102930000530ED0016001A00ED0B9A2C41014C08F1
:102940000319172C20304E020318172C4E35162C65
:102950004101CC014E084001ED000130ED36890BFC
:10296000AE2C6D08152C5E084001E90041015D08A0
:102970004001E800410160084001EB0041015F08AF
:102980004001EA009231692294314201AA002A08EA
:102990000319CC2C2A080800A9012908031DD72CEB
:1029A00041015D0886005E0887004131DC2C410151
:1029B0005D0886005E0887000108E100E201610809
:1029C0004201A000410162084201A1002008A600C6
:1029D00043016208031DFF2C420126084101E1006A
:1029E0000230E136890BF12C6108E200E301620854
:1029F0004201A200410163084201A300042D0130FD
:102A00004201A2000030A3002208A60002302602E4
:102A100003180F2D0130A4000030A5001A2D260840
:102A20004101E100E20161084201A40041016208A4
:102A30004201A5002408A7000130A80041015D085B
:102A400086005E088700403F4201B000413FB10070
:102A5000423FB200290803193C2D2708F00028083E
:102A6000A8317F209431F30042013008AA312A2294
:102A700094314201B0004A2D2708F0002808A831FF
:102A80007F209431F30042013108AA312A22943187
:102A90004201B10041015D0886005E08870001081F
:102AA00042013006031D5F2D41015D0886005E086E
:102AB000870041314201310801060319BA2D31085E
:102AC0004001E300420132084001E4002030E5000B
:102AD0002B30E6000130E7004201300888316F20DA
:102AE00094314201AA002A08031DCA2C303040014B
:102AF000E8000130E9002B30EA000130EB00420130
:102B000029084001EC009331842394314201AA004A
:102B10002A08031DCA2C2B304001A0000130A1005F
:102B2000410160084001A30041015F084001A2008B
:102B30009B3103239431003A0319BA2D41015D08FA
:102B400086005E08870042013008C03F3108C13F5F
:102B50003208C23F2B3086000130870041015F08F8
:102B60008400600885000530E10016001A00E10BC2
:102B7000B52DB32CFE304201A8072808803A813ECB
:102B800003181E2D02302702031CD02D27084101F7
:102B9000E1000130E136890BCA2D610842011B2D8D
:102BA0000130A90702302902031CCD2C41015D0828
:102BB00086005E088700403F4201B000413FB100FF
:102BC000423FB2000130B20631084001E300420149
:102BD00032084001E4002030E5002B30E6000130EF
:102BE000E7004201300888316F2094314201AA0089
:102BF0002A08031DCA2C41015F088600600887006F
:102C0000403FE100413FE200423FE300433FE40038
:102C10000130E135E20DE30DE40D890B092E640866
:102C200042012E02031D242E4101630842012D02A0
:102C3000031D242E4101620842012C02031D242E93
:102C40004101610842012B0203184A2E3030400135
:102C5000E8000130E9002B30EA000130EB0092314E
:102C6000692294314201AA002A08031DCA2C2B3084
:102C70004001A0000130A100410160084001A30013
:102C800041015F084001A2009B3103239431003AC7
:102C9000031D9E2D00300800A831E62096317308F0
:102CA0004101A3007208A2007108A1007008A000F1
:102CB000AA304001D8000030D9000430DA00A13138
:102CC0000621963141013C080319762E43016C0818
:102CD000031D762E63304001BE00FB30BF00D030B4
:102CE000C0000730C100AE3112269631AA308600EE
:102CF000003087004431403F4001AD00413FAE000D
:102D0000423FAF00433FB000A931F42196312E0875
:102D10004101A70040012D084101A6002608270413
:102D20000319952EA9314B219631460127084101FF
:102D30003102031DAB2E4601260841013002031D5E
:102D4000AB2E4601250841012F02031DAB2E460183
:102D5000240841012E020318EF2E440129084001E6
:102D6000E300E401E501E6016608F3006508F2000E
:102D70006408F1006308F0000030F7000030F6004E
:102D80000030F5000A30F400AD31192596314501C7
:102D90004008410120024001E7004501410841018E
:102DA000213B4001E800450142084101223B40012E
:102DB000E900450143084101233B4001EA00730853
:102DC0006A02031DED2E72086902031DED2E7108C3
:102DD0006802031DED2E70086702031C0E2FAA3037
:102DE00086000030870020308400033085001330D7
:102DF0004001E30016001A00E30BFA2E41012308FC
:102E00004501C300410122084501C20041012108DA
:102E10004501C100410120084501C000AA308600DB
:102E2000003087004C31403F4001AD00413FAE00D3
:102E3000423FAF00433FB000A7310A2796312E082A
:102E40004101A90040012D084101A80044012308C7
:102E50004001E300E401640841012702031D342F0F
:102E60004001630841012602031C3D2F290844014B
:102E7000CC00410128084401CB0044012508F63E5E
:102E8000F000FF3003180030F1000A30F20000308B
:102E9000F300A931D921963171084101A5007008CC
:102EA000A400440126080319FD2F6308031DFD2F0C
:102EB00023084001E300E401640841012702031DE7
:102EC000652F4001630841012602031CFD2F4401C8
:102ED00024084001E300E401E501E6016608F3008F
:102EE0006508F2006408F1006308F0000030F700A4
:102EF0000F30F6004230F5004030F400AD311925B6
:102F0000963170084001E7007108E8007208E90096
:102F10007308EA00AA30F0000030F100A3318023EA
:102F20009631730840016A02031DA02F72086902DE
:102F3000031DA02F71086802031DA02F70086702EF
:102F4000031CFD2F41013A080319FD2F003029020F
:102F5000793003192802031CFD2F45014708FB00A7
:102F60004608FA004508F9004408F800A9318F2105
:102F700096317B08031DC52F7A08031DC52FB83075
:102F800078020B30793B031CFD2F410124084401DA
:102F90004D074001E3004101250844014E3D400139
:102FA000E4004101290840016402031DDB2F4101B7
:102FB000280840016302031CF32F4101240828075D
:102FC0004001E30041012508293D4001E40044019E
:102FD0004E0840016402031DF12F44014D084001D9
:102FE00063020318FD2F01304401DB0704305B024C
:102FF000031C08000130DA0008004401DB0108006E
:10300000A3312A2398316E084001AE0043016D08B8
:103010004001AD009931402198310E3043016E02DC
:10302000753003196D02031C1828400197112428DC
:103030000E306E02073003196D02031C2228400176
:10304000971123284001171201304401DC00A831F8
:10305000E620983173084501CF007208CE00710850
:10306000CD007008CC000D3043016E0248300319CA
:103070006D02031808000230EB000800CD00AC31EF
:103080000E2498310C3040014D0203189028413035
:10309000F7000030F8004D08013EF9000030031839
:1030A0000130FA00FB01A531BC2598317808AB004E
:1030B0007708AA001230AC00FC30AD00A9317721AE
:1030C0009831AC014130AD000030AE000030A1318C
:1030D00050219831AC014D08BE00BF01BE35BF0D77
:1030E00094303E07840079303F3D80388500003FB2
:1030F000AD00013FAE000130A131502198314D08A3
:10310000203E8600023087000108AE004D0886315F
:10311000A4269831AC016330AD000330AE00B7286F
:10312000AC01A630AD00FA30AE000030A131502124
:1031300098310C304D060319AE280D304D06031999
:10314000A5280430CB00FC30A8281330CB00FB307E
:10315000CC004C08CA004B08C900B228F530C900A1
:10316000FB30CA00AC014A08AE004908AD0001308E
:10317000A63194269831A9310E210800E3014401BB
:10318000C901CA014001A7010530F0002708A83194
:103190007F209831303E4001A000A6012608213E44
:1031A0008600870120082607A8314E20983181002B
:1031B00001304001A60705302602031CCE2803304B
:1031C000F0002708A8317F209831413E8600033067
:1031D000870081010330F00040012708A8317F20DB
:1031E0009831403E86000330870081010330F000B3
:1031F00040012708A8317F2098313F3E86000330E8
:10320000870081012130F0000430F100AC31EB2463
:10321000983140012506031D38292108031D142972
:1032200022087F39031938290330F0002708A83114
:103230007F2098313F3EF3000330F4004001210825
:10324000F5002208F6008731E32798312708333E3E
:10325000860003308700230881002708A03E8600EF
:1032600002308700240881002708013E4301E30063
:1032700001304001A7070C30270203180800C428BA
:103280000B302E02B83003192D0203184B29B83029
:10329000AD000B30AE0010302E02693003192D0244
:1032A000031C56296830AD001030AE000030A3007A
:1032B0000030A2000430A100B030A0002D08483E2C
:1032C000F000F4302E3DF100F201F3010030F70080
:1032D0000030F6000030F5001A30F400AD31192549
:1032E000993173084001A7007208A6007108A50073
:1032F0007008A400A231332299312008B000733045
:10330000B200B301B101B4013308AF000330AF35EF
:10331000890B87292F083407F0003008F1003208A4
:10332000A1319A219931003A0319A02901304001B5
:10333000AF00340A9C29AF35890B9B292F08B104B3
:1033400001304001B40708303402031C84293308DB
:10335000AF000330AF35890BAA292F08F3003108DD
:10336000F4000830F50032089F31382799310130D8
:103370004001B30704303302031C82290130B20735
:103380007E3032020318080081290030A30000308B
:10339000A2000030A1000030A0004030A7000030A3
:1033A000A6000030A5000030A40027087302031D0A
:1033B000E32926087202031DE32925087102031D73
:1033C000E329240870020318532A0230A736A60CFA
:1033D000A50CA40C890BE629D52920082407F400A4
:1033E0002108253DF5002208263DF6002308273D4B
:1033F000F70077087302031D072A76087202031D7F
:10340000072A75087102031D072A74087002031C3D
:10341000452A20082407F4002108253DF50022084C
:10342000263DF6002308273DF7007408F0027508D2
:10343000F13B7608F23B7708F33B2408F4002508BB
:10344000F5002608F6002708F7002008F8002108F4
:10345000F9002208FA002308FB000130FB36FA0CC1
:10346000F90CF80C890B2E2A7808F4077908F53D39
:103470007A08F63D7B08F73D7708A3007608A2009E
:103480007508A1007408A0004C2A0130A336A20CD4
:10349000A10CA00C890B462A0230A736A60CA50C5D
:1034A000A40C890B4D2A2708260425042404031D97
:1034B000ED292108F1002008F000080075088600B9
:1034C000013087000230010203186E2A7508860059
:1034D000013087000108810AFA00CD2A74088600AD
:1034E00001308700403F4001A000413FA100423F22
:1034F000A200433FA3007408053E86000130870008
:10350000403FA400413FA500423FA600433FA70023
:1035100023082702031D962A22082602031D962A45
:1035200021082502031D962A20082402031C9A2A3A
:1035300001309B2A0030FA000530F0007A08A831EB
:103540007F209A3174074001A000200886000130D6
:103550008700403FA100413FA200423FA300433FFC
:10356000A4007808860079088700403FA500413F05
:10357000A600423FA700433FA80024082802031DDD
:10358000CB2A23082702031DCB2A22082602031D6B
:10359000CB2A210825020318080076088600770840
:1035A0008700403F4001A000413FA100423FA200F0
:1035B0000330F0007A08A8317F209A317307400168
:1035C000A30023088600013087002008C03F21089F
:1035D000C13F2208C23F780886007908870005307D
:1035E000F0007A08A8317F209A3174074001A000CA
:1035F00020088400013085000530A10016001A0063
:10360000A10BFE2A0800FF30A400FF30A500FF3008
:10361000A6001F30A7002208860023088700443137
:103620002008840021088500043100080107A80053
:10363000A901A90D290DA90CA80C290DA90CA80CEC
:103640002808AA002908AB000030AB1BFF30AC00F3
:10365000AD002A08A4052B08A5052C08A6052D08F1
:10366000A70501302407B4000030253DB500003027
:10367000263DB6000030273DB7002208860023080B
:103680008700403FA400413FA500423FA600433FC2
:10369000A7004030A8000030A9000030AA00003088
:1036A000AB002008860021088700403FAC00413F66
:1036B000AD00423FAE00433FAF0022088600230822
:1036C0008700403FB000413FB100423FB200433F5E
:1036D000B3000830B336B20CB10CB00C890B6A2BB6
:1036E0003308F3003208F2003108F1003008F0002E
:1036F0003708F7003608F6003508F5003408F400FE
:10370000AD3119259B3170084001AC077108AD3D02
:103710007208AE3D7308AF3D2C08A8072D08A93DDF
:103720002E08AA3D2F08AB3D27082B02031DA22B14
:1037300026082A02031DA22B25082902031DA22BFD
:10374000240828020318A62B0130080000300800C6
:10375000430167080319B12B6708F400E7017408F7
:1037600008008B1340016F08F10043016A08F30061
:10377000EA016908F00044015908F200D9018B17E9
:10378000F40173080319E42B43016808031DCE2BD1
:10379000FA307302031CCE2B0330DF2B6808031DA5
:1037A000D72B19307302031CD72B0230DF2B68088C
:1037B000031DE02B03307302031CE02B0130F400E7
:1037C0004401D8014301E80119307102031CF62BB2
:1037D00043016808031DF62B0130E8007408031943
:1037E000F42B0230E700F62B0230F400FA307102BD
:1037F000031C092C44015808031D092C0130D80072
:1038000074080319072C03304301E700092C033027
:10381000F40072080319222C02307202031C202CBF
:103820000A3072020318202C43016708031D202C64
:10383000740803191E2C0430E700202C0430F40017
:103840004401D70114307002031C3C2C440157087A
:10385000031D3C2C40010F1D3C2C01304401D700BE
:103860007408031D362C0530F4003C2C4301670816
:10387000031D3C2C0530E7007108031D462C73081E
:10388000031D462C4401D8014301E8017008031DC3
:10389000AF2B7208031DAF2B4401D701AF2BD7010B
:1038A000A831E6209C3173084001D5007208D4008D
:1038B0007108D3007008D200AC310E249C31223044
:1038C0004001AC00DE30AD00FB30AE000030A63170
:1038D00094269C31A9310E219C3140018D1A722C05
:1038E00064006D2CA8319D209C314001570898310F
:1038F0003E209C3164009B31A8239C314001D600BE
:103900005608031DA02CA831E6209C314001520826
:103910007002CE005308713BCF005408723BD000B8
:103920005508733BD1005108031DF52C5008031DA9
:10393000F52C60304E02EA304F3B0318F52C7A2C00
:10394000A831E6209C3173084001D5007208D400EC
:103950007108D3007008D20002305606031DCD2C2A
:103960000F30F0000030F1005708013EF200003047
:1039700003180130F300AF31BD279C317008D70028
:10398000570898313E209C3140018D1AC92C6400A3
:10399000C42CA8319D209C317A2C5603031D7A2C0F
:1039A0000C3057020318E62C5708203E86000230E0
:1039B00087005708203E8400023085000008F00090
:1039C0005708AE3182269C318100762C0C30570688
:1039D000031DED2CAE31BC269C310D304001570645
:1039E000031DF52CA83145209C31883100200800AA
:1039F0004301660803190800440155080319952D71
:103A00004301650803197D2DD0304001B000073017
:103A1000B1000030B2000030B30043016508FF3E42
:103A2000890A4001172DB035B10DB20DB30D890BC8
:103A3000132DA831E6209C3145013C08700240015D
:103A4000B40045013D08713B4001B50045013E0809
:103A5000723B4001B60045013F08733B4001B7008F
:103A600033083702031D3E2D32083602031D3E2D5A
:103A700031083502031D3E2D3008340203187D2D18
:103A8000A831E6209C314501380870024001B000A1
:103A900045013908713B4001B10045013A08723BCC
:103AA0004001B20045013B08733B4001B3003308BD
:103AB000031D632D3208031D632DE83030020330EF
:103AC000313B031C0800A831E6209C3173084501F6
:103AD000BB007208BA007108B9007008B800A831BC
:103AE000AE209C31003A031D792D01304401D400F1
:103AF000080044015408031908004401D4010630A9
:103B0000430165020318862D0130E5070030AC3112
:103B100064249C312C30F0000130F100A831C02029
:103B20009C310130AC3164240800FD01430164087C
:103B3000013E0339E4006408343E86000230870009
:103B40006408383E84000230850000080102031C2E
:103B5000AD2D6408A431972408000130FD0704301E
:103B60007D0203180800962DF80044012208F70092
:103B70000E3043016E02D93003196D020318C22DB5
:103B80000130F7077818C72D40019917C92D40015A
:103B90009913F818CE2D40011917D02D4001191393
:103BA0007819D52D40019916D72D40019912F81991
:103BB000DC2D40011916DE2D40011912781AE32D73
:103BC00040019817E52D40019813F81AEA2D40019D
:103BD0001817EC2D40011813781BF12D4001981691
:103BE000F32D400198127318F82D40019616FA2D06
:103BF00040019612F318FF2D40019A14012E400146
:103C00009A107319062E40019617082E400196133C
:103C1000F3190D2E400116170F2E40011613731ABB
:103C2000142E40011814162E40011810F31A1B2EE2
:103C3000400198141D2E40019810731B222E400144
:103C40001815242E40011811740803192A2E40015A
:103C50001A142C2E40011A1099157708F500F60158
:103C60007508F0007608F100A831C0209D314001B0
:103C700099111A30890B3A2E003240011812770838
:103C8000F500F6017508F0007608F100A831C020B3
:103C90009D31400118167708F500F6017508F0000F
:103CA0007608F100A831C0209D310F304001990500
:103CB0001830980596129A10961316131A1005309C
:103CC000F0000030F100A831C0209D3178087F3924
:103CD0004401E80073087F39E90074080319722E63
:103CE0000130732E0030EA000800B200BA013A0831
:103CF000AB31BB239E3100304001B7000030B6002D
:103D00000030B5000030B400B3017C083302031862
:103D1000BB2E320841019E003530890B8D2E0000EC
:103D2000410113141318922E0D084001B9004101EE
:103D30000C084001B80003303902E9300319380299
:103D4000031CA62E02303A06031DBB2E0330390297
:103D5000FF3003193802031CB02E01304401D30098
:103D600040013808B4073908B53D0030B63DB73DCD
:103D70000130B307852E33087C060319052F013067
:103D8000BA07772E0330B435B50DB60DB70D890BD4
:103D9000C32E0D2F0430B435B50DB60DB70D890BFC
:103DA000CB2E0D2F43016D08F0006E08F100F201DB
:103DB000F30140013708F7003608F6003508F50032
:103DC0003408F400AD3119259E3170084001AD0072
:103DD0007108AE007208AF007308B0000A30B03648
:103DE000AF0CAE0CAD0C890BEF2E0330AD35AE0D24
:103DF000AF0DB00D890BF62E3008B7002F08B600B6
:103E00002E08B5002D08B4000D2F3A08003A03190A
:103E1000C22E013A0319CA2ED22E7C08AD00AE0183
:103E2000AF01B0013008A3002F08A2002E08A100A6
:103E30002D08A0007C08B1000130B136890B1D2F80
:103E400031083407A40035080318350F0310A50006
:103E500036080318360F0310A60037080318370A70
:103E6000A700A23133222108FD002008FC00080031
:103E7000FD007308A0000330A036890B3C2F2008FA
:103E8000FC0073080739FB000130A000750A492FB8
:103E9000A035890B482F2008FF3EFA007A08A000C1
:103EA000A1017B0A552FA035A10D890B532F2008A6
:103EB000F6002108F70074087A05A000A1017B0A2A
:103EC000632FA035A10D890B612F2008F800210870
:103ED000F90080307D020318080004307C020318CA
:103EE000AD2F7C08A000A1010730A035A10D890BE2
:103EF000752FF030A2002C30A30020082207A40068
:103F00002108233DA5007D08240786000030253DBB
:103F100087007C08A600A7010730A635A70D890BEE
:103F20008D2FF030A8002C30A90026082807AA0001
:103F30002708293DAB007D082A07840000302B3D6F
:103F4000850076090005780481007D08F0007D0871
:103F5000F1007C08AB3107239F317B08031908006F
:103F60007C08013EA000003003180130A1002108A8
:103F7000803AA20080302202031DC02F04302002AC
:103F8000031808007C084001A000A1010730A035FB
:103F9000A10D890BC72F7030A2002D30A30020087F
:103FA0002207A4002108233DA5007D0824078600E0
:103FB0000030253D87007C08A600A7010730A63504
:103FC000A70D890BDF2F7030A8002D30A90026081F
:103FD0002807AA002708293DAB007D082A0784008E
:103FE00000302B3D850077090005790481007D08AC
:103FF000F0007D08F1007C08013EAB31072308008A
:10400000AC310E24A0314001AC011E30AD00FC30BB
:10401000AE000030A6319426A0312A30AC002D30FD
:10402000AD00FC30AE000030A6319426A0316030E7
:10403000AC002930AD00FC30AE000030A631942633
:10404000A031AA31C522A03143016E084001AE0063
:1040500043016D084001AD0099314021FF3044011A
:10406000EB00FF30EC006C08EE006B08ED00080080
:104070007408F6007308F5000730F636F50C890B66
:104080003D282530F0007308A8317F20A031750647
:10409000FB005F287B08F500F601F535F60DF030E2
:1040A000F7002A30F8007508770786007608783D13
:1040B00087001600010403197A280130FB077B08EA
:1040C000F500F601F535F60DF030F7002A30F8006E
:1040D0007508770786007608783D8700403FF9002D
:1040E000413FFA0074087A06031D782873087906A0
:1040F000031D4A287B0808000030AC316424A0313D
:1041000040011716971550010C108B134E01961293
:104110007E01C9164E0116166430F0000030F10021
:10412000A831C020A0317E01CA1263000000FD0149
:10413000AA2840018D1AAE2805304001AA000F3090
:10414000A900F130890BA228A90BA228AA0BA2284A
:104150000130FD0710307D02031C992810307D06C8
:10416000031D8C284E0116127E01C912CA124E017F
:104170008C1296168B1750010C14A3312A230800B9
:10418000F7007308F4000430F436890BC4280A30B1
:1041900074020318D2280F307305F4000A30740239
:1041A000031CDB287708CB3E8400FA300318013E5D
:1041B0008500000808000F307305F4000A30F00095
:1041C0007308F5000430F536890BE3287508A8312B
:1041D0007F20A0317407F6007708E33E8400FA30B0
:1041E0000318013E850000087602031CD2287708D8
:1041F000D73E8400FA300318013E85000008F40021
:1042000076087402031CD228760808006400440172
:10421000D30140015A08FC0008309E317526A131B7
:104220007D08DC007C08DB005A08FC000A309E3167
:104230007526A1317D08DE007C08DD005A08FC00EF
:104240000A309E317526A1317D08E0007C08DF0030
:104250005A08FC0008309E317526A1317D08E20025
:104260007C08E1005908AE005808AD005C08B000B9
:104270005B08AF005E08B2005D08B1006008B400E2
:104280005F08B3006208B6006108B5008C31DB241A
:104290005808860087015231440153088100080004
:1042A000B3002D0884002E088500120003190800B1
:1042B0002D0884002E0885000008AA318522A1312E
:1042C00077084001B2007608B100B6010530360229
:1042D000031C6D29B401B5017B2936083107840020
:1042E00032080318013E85000008AF00B0012F0816
:1042F000B4003008B5003308AF000330AF35890B88
:104300007E292F08F3003408F4000830F5002C084B
:1043100036079F313827A13101304001B6070630FA
:104320003602031C66290130AD070030AE3D063071
:10433000AC075129F600023070020318AC29F501D0
:1043400076307602031CAA297B3076020318AA294C
:104350000130F50075080800023070060319BC2909
:104360001F3070060319BC2975307602031CBC2966
:104370007C307602031CBE290130080075307606B9
:104380000319CE297B3076060319CE290330700637
:104390000319CE291E307006031DD02900300800F5
:1043A0000030F30071081D3CF200031CF303730896
:1043B000803AF40080307402031DE0297008720214
:1043C0000318E4290130080000300800F501F11F4E
:1043D000F029F009F109F00A0319F10A0130F5009A
:1043E000F31FF929F209F309F20A0319F30A01305C
:1043F000F506F601F701700871040319262A013049
:10440000F400F11B0B2A0130F035F10D890B042A61
:104410000130F407012A0130F635F70D890B0C2A1B
:1044200071087302031D162A70087202031C1D2AEC
:104430007008F2027108F33B76140130F136F00C8B
:10444000890B1E2A0130F402031D0B2A750803197B
:104450002E2AF609F709F60A0319F70A7708F10078
:104460007608F00008000030AB000030AA000030F1
:10447000A9000030A8002308220421042004031905
:104480007A2A0130AC00A31B4F2A0130A035A10DC0
:10449000A20DA30D890B462A0130AC07432A013037
:1044A000A835A90DAA0DAB0D890B502A23082702A8
:1044B000031D642A22082602031D642A21082502FE
:1044C000031D642A20082402031C6F2A2008A4026A
:1044D0002108A53B2208A63B2308A73B281401304E
:1044E000A336A20CA10CA00C890B702A0130AC02DF
:1044F000031D4F2A2B08A3002A08A2002908A100A7
:104500002808A00008005208013E0F39D2000130EF
:10451000D10751084001A00044015D084001A100FD
:104520005D30F3000230F400A9316021A231400176
:10453000A200440163084001A30044016008400157
:10454000A4006030F3000230F400A9316021A231F0
:104550004001A500440164084001A6002030F0009D
:104560000730F100AC31EB24A2314001A700440137
:104570005208FB000330FB35890BBB2A7B08703ED9
:104580004001A800A9012908203E860087010108F2
:10459000F80028082907AB316E23A2310130400111
:1045A000A9070830290203180800C32A0130400176
:1045B000A700AA31A522A2314001A601F72A603046
:1045C000F300F930F4001C30F500AB312923A2319F
:1045D0004001A70027080319F42A6430F0000030D6
:1045E000F100A831C020A23101304001A6070A30F5
:1045F00026020318FE2A2708031DDF2A27080319AD
:10460000032B27080800A501A6012608FE3EF70097
:104610000F30F800FA30F9001030FA002508AF31F9
:104620003B27A2311030A60780302602031C052B41
:104630000130A50708302502031C042B2F30F3009E
:10464000FC30F400F501F50AAB312923A231400119
:10465000A704012B4001A601A7010030AB31BB2309
:10466000A3314001A801093041019E003530890B7A
:10467000372B00004101131413183C2B0D08400187
:10468000A50041010C084001A4002408A607250844
:10469000A73D0130A80708302802031C332B043043
:1046A000A0000030A1000030A2000030A3002608C6
:1046B000F0002708F100F201F3010030F7000030AC
:1046C000F6000030F5000B30F400AD311925A331B0
:1046D00070084001A0077108A13D7208A23D73084F
:1046E000A33D0330A336A20CA10CA00C890B722BA6
:1046F00021084301EE00400120084301ED000800BD
:104700007008860087014431403FF400413FF500C6
:10471000423FF600433FF7007008860087014831AA
:10472000403FF800413FF900423FFA00433FFB00A1
:1047300077087B02031DA62B76087A02031DA62BA1
:1047400075087902031DA62B74087802031CB12B8F
:104750000030F3000030F2000030F1000030F000D3
:1047600008007008860087014831403FF400413F4F
:10477000F500423FF600433FF700700886008701CE
:104780004431403FF800413FF900423FFA00433FC7
:10479000FB007408F8027508F93B7608FA3B7708C5
:1047A000FB3B7B08F3007A08F2007908F1007808F7
:1047B000F00008000030FB000030FA000030F90083
:1047C0000030F80073087204710470040319F82BA8
:1047D00073087702031DF62B72087602031DF62B71
:1047E00071087502031DF62B70087402031C012C5E
:1047F0000130F3000030F2000030F1000030F00032
:104800000800FC010130F435F50DF60DF70D890BAC
:10481000032C0130F835F90DFA0DFB0D890B0A2C2C
:1048200073087702031D1E2C72087602031D1E2CCE
:1048300071087502031D1E2C70087402031C292CBC
:104840007008F4027108F53B7208F63B7308F73BF9
:1048500078140130FC0718307C02031C022C7B0802
:10486000F3007A08F2007908F1007808F0000800F7
:104870004108860042088700403F4401C000413F94
:10488000C100423FC2000130400143020030443BBE
:104890000030453B0130463B03185E2C4001460882
:1048A0004501B700400145084501B60040014408F4
:1048B0004501B500400143084501662C0130450122
:1048C000B7000030B6000030B5000030B400370843
:1048D0004001B000450136084001AF0045013508F0
:1048E0004001AE00450134084001AD00A7310A2760
:1048F000A4312E084301E10040012D084301E000EE
:104900004001410886004208870041310108F30058
:10491000410886004208870042310108F40041083E
:1049200086004208870001089D31B4250800400137
:10493000AF002F08383E8600023087000108AE0025
:104940002F08343E8600023087000108AD002F0892
:10495000383E860002308700FF3081002F08343E49
:1049600086000230870081012E082D02031C0800FA
:104970002E08F7002F08A500A6010730A535A60DC3
:10498000890BBE2CF030A7002C30A8002508270783
:10499000A9002608283DAA002E082907AB000030F0
:1049A0002A3DAC002B08F8002C08F9002E082D0237
:1049B000013EFA002F08AF313B27A431003A03191A
:1049C000F12CA9313621A43101304401D60705303C
:1049D0005602031CEE2C0130D5000800AA31A52296
:1049E00008004401D5014301E5014401D601080056
:1049F000A901A801AA01AB012030F8002B08AC31B5
:104A0000BE24A431003A0319172D400129080319C7
:104A1000112D2008FD002808FD0280307D020318BA
:104A2000172D2008A8002B08AA000130A90001308A
:104A30004001AB0710302B02031CFC2C2908031D7E
:104A4000272D0F304401D200D10100300800203062
:104A5000F8002A08AC31BE24A43140012A084401E0
:104A6000D200400120084401D1005D30F300023043
:104A7000F40040012108F5002208F6008731E32701
:104A8000A43123080319462D0130472D003044017D
:104A9000E3006030F3000230F40040012408F50028
:104AA0002508F6008731E32726084401E400013099
:104AB00008004001CA004A0803196E2D440163082A
:104AC000031D6E2D6808E0006908E1006A08E20035
:104AD0000130E300F301F40100307C2D40014A086D
:104AE000031D08004401630803190800E30161087D
:104AF000F3006208F40060089D31B425A531A831A7
:104B00005A20A5316308031D9C2D6408031D8C2DBC
:104B10004001C601C701942D6408643E4001C600EF
:104B2000003003180130C70047084401CE0040019F
:104B300046084401CD009E2DCD01CE01AA31C522EB
:104B4000A53144016308031DAA2DEA304001C800C5
:104B5000FB30AE2DD1304001C800FB30C900490800
:104B6000BF004808BE002030C0000330C100AE3195
:104B700012264401DB0108004001A9014001290877
:104B8000233E860087010A30F0000030F1007A08E9
:104B9000F3007908F200AB31E423A5317008303E10
:104BA00081000130A9070A30F0000030F1007A08D6
:104BB000F3007908F200AD317825A5317108FA00CB
:104BC0007008F90029087B06031DEE2D2908233EF5
:104BD000860087012E3081000130A90779087A0408
:104BE000031DBE2D7B080319182E7B08013EA00073
:104BF000003003180130A1002108803AA200803063
:104C00002202031D052E29082002031C182EBE2D8A
:104C100077088600780887000130A9022908233E1A
:104C200084008501000881000130F7070030F83D5D
:104C300040012908031D082E7708860078088700A0
:104C400081010800AB010130A0000030A1002B0A57
:104C50002B2EA035A10D890B292E440149084001B6
:104C60002005A20044014A0840012105A3002208B2
:104C7000230403198A2E0330F0002B08A8317F206B
:104C8000A6313F3E86000330870001084001A400A2
:104C90000330F0002B08A8317F20A6313F3EF300FF
:104CA0000330F400A9316021A6314001A5002B0892
:104CB000333E8600033087000108A6002B08A03E83
:104CC0008600023087000108A7002430F00004307D
:104CD000F100AC31EB24A6314001A8000530F00012
:104CE0002B08A8317F20A631303E4001A900AA013F
:104CF0002A08243E860087010108F80029082A07AF
:104D0000AB316E23A63101304001AA0705302A02DB
:104D1000031C782E0130AB070C302B02031C232E12
:104D20004401C901CA010800B4003408031D9B2EC8
:104D3000B501B6019F2E1230B5000030B60035081F
:104D4000BB002D0884002E088500120003190800FE
:104D50002D0884002E0885000008AA318522A6317E
:104D600077084001B3007608B200BD010A303D0269
:104D7000031CBD2EB701B801D12E3D08AF00013094
:104D8000AF36890BC02E2F08320784003308031872
:104D9000013E85000008B000B1013008B7003108BD
:104DA000B8003708BC003C080F39AA316522A6318B
:104DB000B9003C08AF000430AF36890BDC2E2F0859
:104DC000AA316522A631BA003B08F3003908F40085
:104DD0000830F5002C083D079F313827A6314001E7
:104DE0003B08083EF3003A08F4000830F5002C08B0
:104DF0003D079F313827A63101304001BD070C30F7
:104E00003D02031CB62E0130AD070030AE3D0C3024
:104E1000AC07A12E3008F3002F08F2002E08F10095
:104E20002D08F0009931C521A7317108C000700824
:104E3000BF0010304002003003193F02031C262F30
:104E4000E7304001AD000330AE0008000030B10093
:104E50001030B2003F083102A0004008323BA100F0
:104E6000A201A3010030B3001030B4003F083302A8
:104E7000B5004008343BB600B636B50C3508B7006F
:104E80003608B800B901BA013F08003EF000103002
:104E9000403DF100F201F3010030F7000030F60070
:104EA0000030F5006430F400AD311925A7317008E9
:104EB0004001B7077108B83D7208B93D7308BA3DA3
:104EC0003A08A7003908A6003808A5003708A4004A
:104ED000A2313322A7312308BE002208BD002108D9
:104EE000BC002008BB003E08031D202F3D08031D09
:104EF000202FE8303B0203303C3B0318202F4001B9
:104F00003C08AE003B08AD000800A701A601400127
:104F10002708203E860087010A30F0000030F100AB
:104F20007808F3007708F200AB31E423A73170086A
:104F3000303E81000130A7070A30F0000030F10058
:104F40007808F3007708F200AD317825A7317108B1
:104F5000F8007008F70027087906031DB72F270807
:104F6000203E860087012E3081000130A707770898
:104F70007804031D872F79080319DC2F7908013E77
:104F8000FB00003003180130FC007C08803AFD0073
:104F900080307D02031DCE2F27087B02031CDC2FEF
:104FA000872F2608E03E86000230870020308100EF
:104FB0000130A6070130FA027A08400127020318DF
:104FC000F52F073026020318F52FD12F2608E03ED3
:104FD0008600023087000130A7022708203E8400A7
:104FE0008501000881000130A6072708031DE62F70
:104FF0002608E03E8600023087008101E03008008C
:10506A00A93136210800430166080800F0007008DB
:10507A004301E7000800FF34FF34FF34FF34FF34F4
:10508A00FF30F8002030AB316E23A831AA310F224D
:10509A000800F00050019E184F281E1770309B0020
:1050AA0070089A001E141C0808006808DD006908C8
:1050BA00DE006A08DF00A2318322A831A631222647
:1050CA0008006400800101310130FE020030FF3B1C
:1050DA007F087E040319003467284301EC0140016C
:1050EA004208BF004108BE00AC319124A831A93161
:1050FA000E210800F200F101721C85287008F107E0
:10510A000310F00D0310F20C7208031D81287108B8
:10511A000800410193019401950196019D019C01AA
:10512A009B01143093009317FF304401EF000800ED
:10513A008B134301EA014401D9018B174301E701AB
:10514A0001304401D8004301E80001304401D7008E
:10515A000800A831FA20A8317830AD31AA25A83143
:10516A00F300A831D320A8317308031DBE280130EB
:10517A000800003008000130F0020030F13B700AEC
:10518A000319710A0319080064000B30F200623037
:10519A00890BCD28F20BCD280032C0284001161108
:1051AA001A30890BD6280032400196151A30890B1D
:1051BA00DC280032400116151A30890BE228003229
:1051CA0008008B1344013308F7003208F60031084F
:1051DA00F5003008F4008B177708F3007608F20020
:1051EA007508F1007408F0000800400116159615BC
:1051FA001A30890BFE280032400116111A30890B29
:10520A0004290032400196111A30890B0A2900320A
:10521A000800430166080319080044015508031DE4
:10522A000800FC017C08A4319724A9310130FC074D
:10523A0004307C020318080017294301EC014001DD
:10524A00AC013C30AD00FB30AE000130A6319426F3
:10525A00A931AA31C522FF304401EB00FF30EC002E
:10526A000800F0017008383E86000230870081018C
:10527A007008343E8600023087007F30810001309A
:10528A00F00704307002031808003729A831E62015
:10529A00A9317308BF007208BE007108BD0070080A
:1052AA00BC00A8313820A931003A031D080001309A
:1052BA00AC31642408007308860074088700423100
:1052CA000108031D6B29F501F6016F298030F500ED
:1052DA000030F6007308860074088700413101081F
:1052EA00750408002B0887002A088600AA0A0319F1
:1052FA00AB0A2D08FD002C08FC00AC0A0319AD0A04
:10530A007C0884007D0885000008C03F89080319CD
:10531A0008007729A831E620780870024001A00029
:10532A007908713BA1007A08723BA2007B08733BA3
:10533A00A3002308FB002208FA002108F90020082C
:10534A00F80008009B31A823A931F600033076063D
:10535A00031DB4297608A8313B200130080001302A
:10536A00F50076030319BE29023076060319BE2911
:10537A00F501750808004708BF004608BE0049083D
:10538A00C1004808C000AE311226A931A9310E2148
:10539A00A93140014908F1004808F000A831C020AD
:1053AA00A931A93122210800F401F501701CE12973
:1053BA007208F4077308F53D0130F235F30D890BD5
:1053CA00E2290130F136F00C890BE72970087104E3
:1053DA00031DDB297508F1007408F000080000308D
:1053EA00A3000130A2008630A100A030A0005030F6
:1053FA002D07A400C3302E3DA50000302F3DA60086
:10540A000030303DA700A23133222108AE00200827
:10541A00AD000800F8017808203E860002308700B7
:10542A007808703E8400F7300318013E85000008B2
:10543A00F3007808A031C020AA3181000130F807B2
:10544A000C30780203180800102AF5007508730753
:10545A00F600F7010318F70AF31BF703F71F372AB9
:10546A00003008007708803AF40080307402031D87
:10547A00402A80307602031C442A7F3008007608CE
:10548A0008000130AC316424AA31AD314825AA3173
:10549A0064306F02031C542A9C314F24AA31A03174
:1054AA000020AA31A8319D20AA31A831E62073082C
:1054BA00BF007208BE007108BD007008BC00080079
:1054CA00F100F201F3010130F000730A6D2AF035A0
:1054DA00890B6C2A7008710503197D2A0330F000C4
:1054EA007335890A792AF035890B782A7008F2040B
:1054FA000130F30704307302031C682A720808009B
:10550A00FC007C08E03EFD0060307D020318FD01CE
:10551A007D08F800F9017808F0007908F1000530F3
:10552A00F2000030F300A931D9218030FA00F730B7
:10553A00FB0070087A07F60071087B3DF700080047
:10554A004001161596151A30890BA92A0032F00166
:10555A00BE2A40010C19C22A96111A30890BB32AA5
:10556A000032400196151A30890BB92A00320130EF
:10557A00F00709307002031CAE2AA831D3200800B4
:10558A0044016308031DCE2A6B304001BE00FA3085
:10559A00D22A1A304001BE00FC30BF00AC013F08DD
:1055AA00AE003E08AD000130A6319426AA312A3059
:1055BA00AC002D30AD00FC30AE000130A63194268F
:1055CA000800F800780873020318F02A73087802B2
:1055DA00F7007808F42A78087302F7007308F500D0
:1055EA000130F60003307702031C052B7508F4001E
:1055FA000330F436890BFE2A77087402031CF6017D
:10560A0076080800F2007208383E860002308700E9
:10561A00010870020318182B7208383E86000230FF
:10562A008700700881007208343E860002308700C5
:10563A0071080102031808007208343E860002301D
:10564A008700710881000800A831FA20AB31783050
:10565A00AD31AA25AB31F6000030AD31AA25AB3108
:10566A000130F502750A0319472B73088400740880
:10567A0085000008AD31AA25AB310130F3070030AF
:10568A00F43D352BA831D320760808002030860057
:10569A00033087004431403F4001AD00413FAE0036
:1056AA00423FAF00433FB000A931F421AB312E088D
:1056BA00BF002D08BE0090310020AB3144014C08D8
:1056CA004001BF0044014B084001BE00AC319124A7
:1056DA000800FA007A08A8314E20AB31780603197F
:1056EA0008001E1770309B007A089A0078089C0000
:1056FA000B0D0B0D0139F9008B131E1555309F0048
:10570A00AA309F009E14790C031C8B1303188B1765
:10571A008F2B640050019E188E2B1E110800FC006E
:10572A007008F200F3017C08F400F5010730F43543
:10573A00F50D890B9C2B7108F600F7010E30F63532
:10574A00F70D890BA42B74087604F8007508770402
:10575A00F90072087804FA0073087904FB00003033
:10576A007A04F00080307B04F1000800F20072082D
:10577A0044016F06031908007208EF00023072062E
:10578A00031DCA2B41019A01DF2B72080319CF2B83
:10579A000230D02B0130F0000030F10052010C0829
:1057AA007006FC3970068C008C170C1FDA2B03303C
:1057BA0041019A00A0300032890BE02B08007008E2
:1057CA0071040319092C0130F400F11BF42B013088
:1057DA00F035F10D890BED2B0130F407EA2B710836
:1057EA007302031DFA2B70087202031C002C700846
:1057FA00F2027108F33B0130F136F00C890B012CEF
:10580A000130F402031DF42B7308F1007208F00052
:10581A000800F701F8017708F100F2010730F135C5
:10582A00F20D890B142CF030F3002C30F4007108BF
:10583A007307F5007208743DF6007808750786004C
:10584A000030763D870081010130F8078030780208
:10585A00031C102C0130F70704307702031C0F2CAD
:10586A00A931362108004001C30144012A0803195D
:10587A00612C7C0886007D088700403F4001AD000E
:10588A00413FAE00423FAF00433FB000A7310A2775
:10589A00AC3144012A08643E4001C10000300318BB
:1058AA000130C2002E084202031D5D2C2D08410260
:1058BA00031C612C0130C300400143080800FC00AE
:1058CA007C08031D6F2C4001161296111611430114
:1058DA00E601080040011616C830F0000030F10059
:1058EA00A831C020AC314401D601A231D622AC3154
:1058FA004401D500A831E620AC3173084501BF0048
:10590A007208BE007108BD007008BC000130430176
:10591A00E600A9313621080044016C0840013F061F
:10592A00031D9B2C44016B0840013E060319080025
:10593A0043016C08031D080040013F084401EC00C4
:10594A0040013E084401EB003C304001AC003F08F6
:10595A00F8003E08F7000230F9000430FA00A731D7
:10596A008527AC31AD000230AE000130A631942655
:10597A000800FA007A08F9000330F935890BC22CBD
:10598A007908703EFB00FC0178087C0786008701D5
:10599A007B087C07A8314E20AC3181000130FC071E
:1059AA0008307C02031CC92C7808073E8400850154
:1059BA007808F0000730F100AC31EB24AC31000676
:1059CA00031DE92C01300800003008005A30F700A6
:1059DA000130F102710A0319172D70088600870138
:1059EA000108F7060130F007F601F71B032D7708C7
:1059FA00F200F3017235F400730D0D2D7708F200F1
:105A0A00F301F235F30D07307206F4000030730625
:105A1A00F5007408F7000130F6070830760203181B
:105A2A00ED2CFA2C770808000030FB000030FA0051
:105A3A000030F9000030F800701C2B2D7408F807AC
:105A4A007508F93D7608FA3D7708FB3D0130F435D3
:105A5A00F50DF60DF70D890B2C2D0130F336F20CEE
:105A6A00F10CF00C890B332D730872047104700465
:105A7A00031D212D7B08F3007A08F2007908F10052
:105A8A007808F0000800AC310E24AD311C3040011A
:105A9A00AC00CA30AD00FB30AE000030A63194260F
:105AAA00AD311F30AC000730AD00FB30AE00023024
:105ABA00A1315021AD310D30AC00FD30AD00F930CF
:105ACA00AE000330A1315021AD31A9310E21AD31E3
:105ADA0040019711B830F0000B30F100A831C02016
:105AEA00400197150800F401F501700871040319C3
:105AFA00A52D0130F600F11B8A2D0130F035F10D8C
:105B0A00890B832D0130F607802D0130F435F50D10
:105B1A00890B8B2D71087302031D952D7008720273
:105B2A00031C9C2D7008F2027108F33B74140130B7
:105B3A00F136F00C890B9D2D0130F602031D8A2DDA
