:1000000080313F28A0340F347E14803100308600C8
:10001000003087004E018C1E3D288C1201304401B7
:10002000B0070030B13DB23DB33D0130D0070A30DA
:100030005002031C3D28D00140018D1A25286F0A6B
:1000400003192D280130EF072D286F0803192D28DB
:100050006F084301EA004001EF018F183628430181
:10006000680A03193D280130E8073D284301680864
:1000700003193D286808E900E8017E100900803175
:1000800041284301803102208031ED00803103207E
:100090008031EE0002308400983085004401120067
:1000A000E9001200EA001200EB001200EC0012005E
:1000B000ED00F0308400283085000030FE0007306D
:1000C000FF00A931272180314001EF01E030840099
:1000D000013085000D30FE000030FF00A9312721DE
:1000E000803120308400023085004930FE0000302D
:1000F000FF00A93127218031A03084000230850023
:100100004830FE000030FF00A93127218031203027
:100110008400033085004230FE000030FF00A9312A
:1001200027217E1040018A31482A4201EF01430114
:10013000BA01BE013E35F03E860087012A30873D78
:100140003E350030873D0030C03FC13F0130BE0723
:10015000031D9A284401C701C801CF014301E201F0
:100160004401C501C60123084101E900EA01EB0190
:10017000EC016C08F3006B08F2006A08F1006908F2
:10018000F0000030F7000130F6008630F500A030B6
:10019000F400AD31B025803173084501BF0072080D
:1001A000BE007108BD007008BC0044012408410174
:1001B000E900EA01EB01EC016C08F3006B08F200C6
:1001C0006A08F1006908F0000030F7000F30F6000F
:1001D0004230F5004030F400AD31B0258031730875
:1001E0004501BB007208BA007108B9007008B80078
:1001F00001304401AF000030AE000030AD000130EE
:10020000AC0041016508860066088700403F440154
:10021000E300413FE400423FE50001304301AE000E
:100220000030AD000030AC000030AB00AF01402921
:100230000E304201E700FC30E8000430E9000230F3
:10024000EC0096304401C30000303E29A730420143
:10025000E700FB30E8000730E9000430EC00F43040
:100260003B29F0304201E700FB30E8000530E900AF
:100270000330EC005E304401C3000130C400492962
:1002800044012B08013A03191829023A03192629B7
:10029000312941016508860066088700403F430117
:1002A000C500413FC600423FC70046084001E30089
:1002B000430147084001E4002030E500BF30E6007C
:1002C0000130E7004301450888316F208031430148
:1002D000BD003D08031D822EBF30FC000130FD0033
:1002E000AC31FC248031003A03199229C530400119
:1002F000C1000130C200430142084001C600430171
:1003000041084001C500430140084001C4004301C9
:100310003F084001C300A531F025803191315221C1
:1003200000300800410168084201EB004101670804
:100330004201EA004301BE0163083E0203183A2A63
:100340000330F0003E08A93140218031333E4301A3
:10035000BB003B0886000330870001084506031DEB
:10036000C2293B0A86000330870001084606031DA8
:10037000C2293B08023E8600033087000108470679
:100380000319362A3B088600033087000108031D45
:10039000D0293B0A86000330870001080319362A5A
:1003A0003B088600033087000330413F4001E300F3
:1003B00043013B088600033087000330423F400181
:1003C000E4001030E500A030E6000130E700430112
:1003D0003B08860003308700010888316F20803198
:1003E0004301BD0003303D0603193A2A3D08031DB1
:1003F000822E42082302031D072A41082202031D00
:10040000072A40082102031D072A3F082002031C77
:100410000E2A42016A086B04031D362A43013B0879
:10042000860003308700403FC500413FC600423F81
:10043000C700A030860001308700BF308400013043
:10044000850005304101E90016001A00E90B242A55
:1004500043013E08AC3E8600023087000108643E3E
:100460004201EA00003003180130EB000130430183
:10047000BE079C2942016A086B040319AE2A0130A9
:100480004301E200C5304101DD000130DE00BF3034
:10049000DF000130E0009431B22480314301BD001F
:1004A000E20103303D06031D672AA530F300B0309A
:1004B000F400BA30F500C530F6000130F700BF3067
:1004C000F8000130F9009B31C1238031802D3D08B7
:1004D000031D822EBF30FC000130FD00AC31FC2436
:1004E0008031003A031D7629430142084001B000E3
:1004F000430141084001AF00430140084001AE0004
:1005000043013F084001AD0098310720803142018E
:100510006A08053E4101E900003042016B3D41019E
:10052000EA0040012E0841016A02031D9B2A400196
:100530002D084101690203187629A530F300B03077
:10054000F400BA30F500C530F6000130F700BF30D6
:10055000F8000130F9009B31C12380314201EE01E6
:1005600002306E020318E62C4301BE014201690805
:1005700043013E020318E22C4201ED0169086D02BD
:100580000318DE2C43013E08420167078400680817
:100590000318013E850000084301C50042016D08B3
:1005A0006707840068080318013E850000084301BE
:1005B000C60042016E084301C70046084001E3003F
:1005C000430147084001E4001030E500BF30E60079
:1005D0000130E7004301450888316F208031430135
:1005E000BD0003303D060319802D3D08031D822EFA
:1005F0004508031D112B4608031D112B42016E08EF
:10060000031D112BBF30860001308700AB30840002
:100610000130850005304101E90016001A00E90BA0
:100620000D2B4301C40142016F084301440203182A
:10063000552B0330F0004408A93140218031023E9F
:100640003E3E860001308700010842016E06031D10
:10065000512B43014408343E8600013087000108D5
:100660004101E90043013E084101E9020130690707
:10067000EA0003306A020318512B43014408393E53
:1006800086000130870001084101E90042016D0840
:100690004101E90201306907EA0003306A02031CE4
:1006A000552B01304301C407132B42016F0843014E
:1006B00044020318002C0530F0004408A931402101
:1006C00080314E3E860001308700403F4101E90005
:1006D000413FEA00423FEB00433FEC006C0843011E
:1006E0004202031D832B41016B0843014102031D9C
:1006F000832B41016A0843014002031D832B410102
:10070000690843013F020318DA2C4408BC003C0886
:10071000013E4101E900003003180130EA006A0897
:10072000803AEB0080306B02031D9A2B42016F0868
:10073000410169020318FD2B0330F00043013C081E
:10074000A93140218031033E3E3E860001308700C2
:10075000403F4101E900413FEA00423FEB000330E6
:10076000F00043013C08A931402180313E3E860023
:100770000130870041016908C03F6A08C13F6B082A
:10078000C23F0530F00043013C08A93140218031CF
:10079000053E4E3E8600013087000530F0004301E3
:1007A0003C08A931402180314E3E84000130850053
:1007B00005304101E90016001A00E90BDB2B43016B
:1007C0003C08343E8600013087003C08013E343E40
:1007D000840001308500000881003C08393E860015
:1007E000013087003C08013E393E8400013085001D
:1007F000000881000130BC07872B01304201EF0265
:1008000042016F084301C4006A2C42016C08430195
:1008100044020318682C0330F0004408A931402139
:100820008031FD3E3E3E860001308700403F410161
:10083000E900413FEA00423FEB000330F000430192
:100840004408A931402180313E3E860001308700B6
:1008500041016908C03F6A08C13F6B08C23F0530CB
:10086000F00043014408A93140218031FB3E4E3E57
:100870008600013087000530F00043014408A931AB
:10088000402180314E3E8400013085000530410119
:10089000E90016001A00E90B492C43014408343ED4
:1008A0008600013087004408FF3E343E840001305A
:1008B0008500000881004408393E86000130870029
:1008C0004408FF3E393E8400013085000008810065
:1008D0000130C40244080319982C0530F000440884
:1008E000A93140218031FB3E4E3E86000130870019
:1008F000403F4101E900413FEA00423FEB00433FF6
:10090000EC006C0843014202031D962C41016B0868
:1009100043014102031D962C41016A084301400234
:10092000031D962C4101690843013F02031C052C5D
:1009300042016C08430144020318DA2C0330F00032
:100940004408A931402180313E3E860001308700B5
:1009500043014508C03F4608C13F4708C23FBF307A
:100960008600013087000530F0004408A93140219D
:1009700080314E3E84000130850005304101E900A0
:1009800016001A00E90BC02C43014408343E8600CF
:10099000013087003E0881004408393E860001305E
:1009A000870042016D0881006C086F020318DA2C81
:1009B0000130EF0701304201ED07BE2A013043014B
:1009C000BE07B62A01304201EE07B02A44012F08C3
:1009D0004001B00044012E084001AF0044012D0841
:1009E0004001AE0044012C084001AD0098310720C1
:1009F00080312E08C2002D08C100A9313321803179
:100A00004301BE0142016F0843013E020318802DDD
:100A10000330F0003E08A931402180313E3E86007F
:100A200001308700403F4301C500413FC600423FBF
:100A3000C7000530F0003E08A931402180314E3E0C
:100A4000860001308700BF3084000130850005300A
:100A50004101E90016001A00E90B2A2DC530DD001E
:100A60000130DE00BF30DF000130E0009431B224FD
:100A700080314301BD003D080319422D03303D067E
:100A8000031D822EA530F300B030F400BA30F5001B
:100A9000C530F6000130F700BF30F8000130F90032
:100AA0009B31C123803144012F084001B000440133
:100AB0002E084001AF0044012D084001AE00440162
:100AC0002C084001AD009831072080312E08C2006B
:100AD0002D08C100A93133218031033043013D0687
:100AE0000319802DBF30FC000130FD00AC31FC2427
:100AF0008031003A031D802D01304301BE07022DD5
:100B000043013A08031DB12D440163084301C500A8
:100B1000440164084301C600440165084301C7005D
:100B200044012F084301C20044012E084301C100C3
:100B300044012D084301C00044012C084301BF00BB
:100B4000A530F300B030F400BA30F500C530F6003F
:100B50000130F700BF30F8000130F9009B31C123AC
:100B600080314301BE013A083E020318092E0330CA
:100B7000F0003E08A93140218031013EA53E8600AB
:100B80000130870001084101ED000330F00043010E
:100B90003E08A93140218031023EA53E8600013049
:100BA000870001084101EE000530F00043013E08D6
:100BB000A93140218031B03E4101EF000330F00007
:100BC00043013E08A93140218031A53E8600013015
:100BD000870001084201B30041016D084001E300B4
:100BE00041016E084001E4004030E50041016F081A
:100BF0004001E6000130E7004201330888316F20F0
:100C000080314301BD003D08031D822E0130BE0727
:100C1000B32D4201CD01023043013A02031C232EC1
:100C200033083802031D1E2E32083702031D1E2E04
:100C300031083602031D1E2E300835020318232EFC
:100C400001304201CD0042014D084301BE00053094
:100C5000F0003E08A93140218031B03E4001A000A3
:100C60000130A100AB30A2000130A3009C3166240A
:100C70008031003A031D612E4301C701C601C50141
:100C8000C5304001C1000130C20043012E084001BF
:100C9000C60043012D084001C50043012C08400156
:100CA000C40043012B084001C300A531F025803169
:100CB000013043012E0203185F2E0030080003307C
:100CC00008000330F00043013E08A9314021803183
:100CD000A53E4001C1000130C2000530F0004301D3
:100CE0003E08A93140218031B03E860001308700A6
:100CF000403F4001C300413FC400423FC500433F65
:100D0000C6008B2963304001C1000230C20044019B
:100D10002F084001C60044012E084001C5004401CF
:100D20002D084001C40044012C084001C300A53136
:100D3000F025803143013D030319A02E0130080046
:100D400002300800B1005730B800B92F2E08031D3B
:100D5000B42E3808AA000330AB00E430AC00FB30FE
:100D6000AD00AA31382208003808F7000330F80037
:100D70002E08AF00B0012F08F9003008FA00FB017F
:100D8000A631B22686317808AB007708AA00FF307A
:100D9000AC00FB30AD00AA31382208003808F7005B
:100DA0000330F8002E08AF00B0012F08F90030081A
:100DB000FA00FB01A631B22686317808AB0077082D
:100DC000AA001630AC00FC30AD00AA313822080071
:100DD0003808F7000330F8002E08AF00B0012F08E4
:100DE000F9003008FA00FB01FB0AA631B226863171
:100DF0007808AB007708AA002830AC00FC30AD00C2
:100E0000AA31382208003808F7000330F8002E080D
:100E1000AF00B0012F08F9003008FA00FB01A6313D
:100E2000B22686317808AB007708AA002830AC00DB
:100E3000FC30AD00AA31382208003808F700033032
:100E4000F8002E08F63EF900FF3003180030FA00D3
:100E5000FB01FB0AA631B22608002E08031D342F21
:100E60004C30B200FB30372F2530B200FC30B300DD
:100E70003808AA000330AB003308AD003208AC00DC
:100E8000AA31382208003808F7000330F8002E088D
:100E9000AF00B0012F08F9003008FA00FB01FB0A8F
:100EA000A631B22608003808F7000330F8002E08F3
:100EB000643EF900003003180130FA000230FB00F4
:100EC000A631B22608003808F7000330F8002E08D3
:100ED000AF00B0012F08F0003008F1000A30F20036
:100EE0000030F300AA31822286317108FA007008BE
:100EF000F900FB01A631B22686317808AB007708ED
:100F0000AA001630AC00FC30AD00AA31382208002F
:100F10002E08031D532F3808AA000330AB00FA3007
:100F2000AC00FB30AD00AA31382208002E030319B3
:100F3000AA2F03302E060319A12FC330B600FB30B1
:100F4000A42F5A30B600FB30B7003708B50036087A
:100F5000B400AE2FD830B400FB30B5003808AA007A
:100F60000330AB003508AD003408AC00AA3138229C
:100F700008003108BF3E8400FA300318013E8500A6
:100F80000008003A0319A62E013A0319CE2E033A9F
:100F90000319E82E013A0319032F073A03191D2FED
:100FA000013A03192D2F033A0319432F013A03196C
:100FB000532F0F3A0319632F013A0319882F962FE5
:100FC0000800FC007C08031DEC2F4001161296114E
:100FD00016114301E501080040011616C830F00063
:100FE0000030F100A9317D2187314401D501A331C1
:100FF0004123873101304301E500A931DF21080099
:10100000A031C22088317708B3007608B200AA3137
:10101000B82288314001B4013408233E860087019C
:101020003408203EA9310F21883181000130400170
:10103000B4070F303402031C0C285E302306031D56
:10104000080033082406031D080025083206031D86
:1010500008002F30A9310F218831FD002330F00026
:101060000F30F100AD31822588317D06031D080067
:101070004001B4013408033E233E86008701340852
:10108000E33E8400FA300318013E850000080102A7
:10109000031C68283408033E233E86008701340879
:1010A000D73E8400FA300318013E85000008FD0099
:1010B00001087D02031C68283408203E86000230A7
:1010C00087003408033E233E840085010008810028
:1010D0000130B4070C303402031808003A284101EB
:1010E000B70040016308F0006408F10041013708CF
:1010F000AC31582488317108B6007008B500AA01D7
:10110000AB013608F4003508F300A13146218831DF
:101110004101B800B401403040016506031921299E
:1011200041013808A000A101A035A10DF030A200B6
:101130002A30A3002008220786002108233D8700CB
:10114000403FA400413FA50036082506031DAA28FC
:1011500035082406031D12293808A000A101A03576
:10116000A10DF030A2002830A3002008220786003D
:101170002108233D87001600FF3AA4001600FF3A1D
:10118000A4040319EB283808A000A101A035A10D83
:10119000F030A2002830A300200822078600210892
:1011A000233D8700403FA400413FA5002408A6003E
:1011B0002508A700A801A9010830A635A70DA80D8C
:1011C000A90D890BDD282908AF002808AE002708E3
:1011D000AD002608F2280130AF000030AE0000302C
:1011E000AD000030AC00400166088600670887004B
:1011F00041012C08C03F2D08C13F2E08C23F2F08D7
:10120000C33F4001660886006708870044314101FA
:101210003808F03E840085012E30853D00088100AD
:1012200000300800440144084602031D1929430800
:101230004502031C1D29033008000130C50700309A
:10124000C63D40016308F3006408F400410137081B
:101250009D31B4258831AA3150228831003A0319D2
:10126000332901300800B9304001D8000030D900DE
:101270006508DA00A2311422883141014B080319B4
:101280004B290130C8000030C7000030C6000030D4
:10129000C500CA01AC2945013F0841014002031DB8
:1012A000612945013E0841013F02031D61294501B5
:1012B0003D0841013E02031D612945013C084101F1
:1012C0003D02031C7B29B930F0000030F100A4314D
:1012D000DB248831730845013B02031D792972081C
:1012E0003A02031D792971083902031D7929700812
:1012F000380203189F2944014F08031D8429E83050
:101300004101B000033088292C304101B000013088
:10131000B1000130AA070030AB3D2B083102031D9C
:1013200093292A08300203189729023008000A304E
:10133000F0000030F100A9317D2188312B290130E6
:101340004401CF0041014908031DAC290130B40715
:1013500003303402031C2B2940016608860067080D
:10136000870041014508C03F4608C13F4708C23FCA
:101370004808C33F4001660886006708870044317B
:1013800041014A08810040304001650603191029D7
:10139000003044014802FF30031947020318162A9F
:1013A00041013835F03E860087012A30873D3835C7
:1013B0000030873D3508C03F3608C13F0130480244
:1013C0000318F72941014508A0004608A100470875
:1013D000A2004808A3000830A336A20CA10CA00C60
:1013E000890BEC292108B3002008B200FC29FF304A
:1013F0004101B200FF30B3003835F03E860087016E
:101400002830873D38350030873D3208C03F3308EB
:10141000C13F3808F03E860087012E30873D4A08DC
:10142000810001304401C7070030C83D2F08410149
:101430004802031D2B2A44012E0841014702031DC7
:101440002B2A44012D0841014602031D2B2A440189
:101450002C084101450203181029B93086000030DC
:1014600087004C31403F4401AC00413FAD00423F5A
:10147000AE00433FAF00410137084401E3004001A3
:1014800063084401E400400164084401E5001029B8
:10149000AF314F278A314301DE01500193181318F1
:1014A000542A01304301DE0043015E08DB0088312D
:1014B00000208A31A9314F218A31A43185248A3113
:1014C00099317D218A31903101208A31003A031906
:1014D0007A2A5B08E6005C08E7005D08E800430143
:1014E0005B08031D852A44015C08F3005D08F400D5
:1014F0005B08822AE101E201E001DF01DE01F30184
:10150000F40100309D31B4258A3144016208031D85
:101510008C2ACD01CE01932A6208643ECD000030B2
:1015200003180130CE0040011915AB310C238A316C
:10153000AE3175268A3150010C14A931A3218A31AC
:1015400073084501D3007208D2007108D1007008F9
:10155000D0005308D7005208D6005108D5005008D3
:10156000D4005708DB005608DA005508D9005408A3
:10157000D8005B08DF005A08DE005908DD00580873
:10158000DC0064009B311D238A314301DF005F08CA
:101590000319FB2AA831FE208A31003A031DFB2AD9
:1015A00005305F060319FB2A03305F060319FB2A87
:1015B000A931F4218A314301DF01FB2AA931F42149
:1015C0008A3144016108031DE72A0130E82A00300E
:1015D000A6314F268A310C2B903162208A310C2B98
:1015E0000130EB000C2BA931F4218A310130A631F6
:1015F0004F268A310C2B5F08013A0319DE2A033A81
:101600000319EC2A013A0319F02A073A0319F32ABD
:10161000013A0319EC2A0C2B45015B08FB005A0820
:10162000FA005908F9005808F800AA3120228A3136
:101630007B08031D252B7A08031D252B7908031D24
:10164000252B32307802031C342BA931A3218A3197
:1016500073084501DB007208DA007108D9007008D0
:10166000D80096314B268A314401580803193C2B87
:10167000D801903162208A3145015708FB00560895
:10168000FA005508F9005408F800AA3120228A31DE
:101690007B08031D552B7A08031D552B7908031D64
:1016A000552B96307802031C642BA931A3218A3173
:1016B00073084501D7007208D6007108D50070087C
:1016C000D400AC310F248A3145015F08FB005E086D
:1016D000FA005D08F9005C08F800AA3120228A317E
:1016E0007B08031D7C2B7A08031D7C2BB830780205
:1016F0000B30793B031C8B2BA931A3218A31730852
:101700004501DF007208DE007108DD007008DC00B2
:10171000AF31C2278A3144015A080319AD2B450164
:101720004F08FB004E08FA004D08F9004C08F8007D
:10173000AA3120228A317B08031DA82B7A08031DB9
:10174000A82B7908031DA82B1E307802031CAD2B93
:101750004401DA0140019715171643016C0803197B
:10176000CD2BA931A3218A314501480870024301DC
:10177000D30045014908713B4301D40045014A08A3
:10178000723B4301D50045014B08733B4301D60032
:10179000D61BCD2BA931CB218A3145015308FB0043
:1017A0005208FA005108F9005008F800AA31202226
:1017B0008A317B08031DE52B7A08031DE52B3030A9
:1017C00078027530793B031CF42BA931A3218A31AF
:1017D00073084501D3007208D2007108D100700867
:1017E000D000A831FB208A31A831FE208A31003A8E
:1017F0000319412C440120080319412C3F08FB0028
:101800003E08FA003D08F9003C08F800AA31202201
:101810008A3178084301D3007908D4007A08D500CA
:101820007B08D600440120084301D700D801D90124
:10183000DA015A08F3005908F2005808F100570875
:10184000F0000030F7000030F600EA30F5006030BC
:10185000F400AD31B0258A31730843015602031DEF
:101860003B2C72085502031D3B2C71085402031DCA
:101870003B2C70085302031C412C00308731E127B8
:101880008A31440121080319862C3F08FB003E08D9
:10189000FA003D08F9003C08F800AA3120228A31FC
:1018A00078084301D3007908D4007A08D5007B0872
:1018B000D600440121084301D700D801D901DA013B
:1018C0005A08F3005908F2005808F1005708F000D0
:1018D0000030F7000030F600EA30F5006030F40028
:1018E000AD31B0258A31730843015602031D822CA5
:1018F00072085502031D822C71085402031D822CAC
:1019000070085302031C862C0330EB0043016B0864
:101910000319D72C03306B020318AB2CA931F42127
:101920008A3143016B030319992C7E30DC00FB30B4
:101930009C2C4630DC00FB30DD005D084001C70018
:1019400043015C084001C600DC30C8000530C90016
:10195000AA3169228A314301EB01A1318A218A31FE
:10196000AB310C238A31A931A3218A317308450197
:10197000D3007208D2007108D1007008D00053085B
:10198000D7005208D6005108D5005008D400570897
:10199000DB005608DA005508D9005408D8005B0867
:1019A000DF005A08DE005908DD005808DC00AE31BF
:1019B000E0268A31C12A0130B7000030B80000307B
:1019C000B9000030BA003508BB003608BC00BD01C4
:1019D000BE012F08BF003008C000C101C2013F088E
:1019E000BB074008BC3D4108BD3D4208BE3D3B0829
:1019F000B7073C08B83D3D08B93D3E08BA3D013047
:101A0000BA36B90CB80CB70C890B002D2D0886001E
:101A10002E0887003708C03F3808C13F0130B700A3
:101A20000030B8000030B9000030BA003308BB0005
:101A30003408BC00BD01BE013108BF003208C0003F
:101A4000C101C2013F08BB074008BC3D4108BD3D84
:101A50004208BE3D3B08B7073C08B83D3D08B93DCC
:101A60003E08BA3D0130BA36B90CB80CB70C890B38
:101A7000332D2D088600870142313708C03F3808D2
:101A8000C13F2D0886002E088700403FB700413F28
:101A9000B8003708F0003808F100F201F301440102
:101AA00027084001B900BA01BB01BC013C08F7009E
:101AB0003B08F6003A08F5003908F400AD31B025CE
:101AC0008C3173084001D3007208D2007108D10034
:101AD0007008D0002D0886002E088700403FB70010
:101AE000413FB8003708F4003808F500F601F70167
:101AF0002D0886002E088700403FB900413FBA00FC
:101B00003908F0003A08F100F201F301AD31B025D7
:101B10008C3170084001BB007108BC007208BD0028
:101B20007308BE000630BE36BD0CBC0CBB0C890B66
:101B3000932D3E08D7003D08D6003C08D5003B0851
:101B4000D4005308F3005208F2005108F100500885
:101B5000F0000030F7000030F6000030F5001930DA
:101B6000F400AD31B0258C3170084001B700710828
:101B7000B8007208B9007308BA000130BA36B90C5F
:101B8000B80CB70C890BBE2D0030A3000030A200AA
:101B90000030A1006430A0005708F3005608F2009E
:101BA0005508F1005408F00044012808643EF40090
:101BB000003003180130F500F601F51BF603760836
:101BC000F700AD31B0258C3173084001A7007208D1
:101BD000A6007108A5007008A400A3318F238C31E2
:101BE0002008B7072108B83D2208B93D2308BA3DAF
:101BF0002D088600870144313708C03F3808C13FAF
:101C00003908C23F3A08C33F2D0886008701423198
:101C1000403FB700413FB8003708F0003808F100F6
:101C2000F201F301440127084001B900BA01BB01E8
:101C3000BC013C08F7003B08F6003A08F5003908FB
:101C4000F400AD31B0258C3173084001D300720827
:101C5000D2007108D1007008D0002D0886008701DD
:101C60004231403FB700413FB8003708F400380820
:101C7000F500F601F7012D08860087014231403F4B
:101C8000B900413FBA003908F0003A08F100F2010A
:101C9000F301AD31B0258C3170084001BB007108F3
:101CA000BC007208BD007308BE000630BE36BD0C15
:101CB000BC0CBB0C890B562E3E08D7003D08D60045
:101CC0003C08D5003B08D4005308F3005208F2004A
:101CD0005108F1005008F0000030F7000030F60025
:101CE0000030F5001930F400AD31B0258C317008AA
:101CF0004001B7007108B8007208B9007308BA0053
:101D00000130BA36B90CB80CB70C890B812E0030F3
:101D1000A3000030A2000030A1006430A0005708EA
:101D2000F3005608F2005508F1005408F000440191
:101D30002808643EF400003003180130F500F60175
:101D4000F51BF6037608F700AD31B0258C3173082A
:101D50004001A7007208A6007108A5007008A40041
:101D6000A3318F238C312008B7072108B83D220802
:101D7000B93D2308BA3D2D08860087014831370850
:101D8000C03F3808C13F3908C23F3A08C33F2D0859
:101D9000860087014431403FF000413FF100423F5F
:101DA000F200433FF3002D08860087014831403F91
:101DB000F400413FF500423FF600433FF700A531F4
:101DC00092258C312D08860087014C317008C03F68
:101DD0007108C13F7208C23F7308C33FCD0130088C
:101DE000F1002F08F0003608F3003508F200183033
:101DF000F4000030F500A03141208C31003A031985
:101E0000152F3208F1003108F0003408F3003308D0
:101E1000F2001830F4000030F500A03141208C3180
:101E2000003A0319152F0130CD002D0886008701D7
:101E300050314D08810030083602031D212F2F0834
:101E40003502031C562F35083604031D2A2FC50101
:101E5000C601522F3508A0003608A100A201A30137
:101E60002F083502B7003008363BB8003708B900F4
:101E70003808BA00BB01BC010830B935BA0DBB0D3A
:101E8000BC0D890B3D2F3C08A7003B08A6003A0873
:101E9000A5003908A400A3318F238C312108C60086
:101EA0002008C5004608C40045087D2F2F08A00063
:101EB0003008A100A201A30135082F02B70036089F
:101EC000303BB8003708B9003808BA00BB01BC0184
:101ED0000830B935BA0DBB0DBC0D890B692F3C0814
:101EE000A7003B08A6003A08A5003908A400A331C2
:101EF0008F238C312108C4002008C300320834022B
:101F0000031D842F31083302031CB92F3308340416
:101F1000031D8D2FC901CA01B52F3308A000340855
:101F2000A100A201A30131083302B7003208343BFB
:101F3000B8003708B9003808BA00BB01BC01083046
:101F4000B935BA0DBB0DBC0D890BA02F3C08A700FD
:101F50003B08A6003A08A5003908A400A3318F2346
:101F60008C312108CA002008C9004A08C800490865
:101F7000E02F3108A0003208A100A201A30133081C
:101F80003102B7003408323BB8003708B9003808CE
:101F9000BA00BB01BC010830B935BA0DBB0DBC0D90
:101FA000890BCC2F3C08A7003B08A6003A08A500E7
:101FB0003908A400A3318F238C312108C8002008E0
:101FC000C70043084707CE004408483DCF00013012
:101FD0004F02003003194E020318F52F4E08B700C8
:101FE000B8013708CB003808F82FFF30CB0000309D
:101FF000CC002D088600870151314B088100080074
:10200200A901A801AA01AB012030F8002B08AD31CB
:1020120055259031003A0319202840012908031957
:102022001A282008FD002808FD0280307D020318CE
:1020320020282008A8002B08AA000130A90001309E
:102042004001AB0710302B02031C05282908031D91
:1020520030280F304401D200D10100300800203076
:10206200F8002A08AD315525903140012A08440173
:10207200D200400120084401D1005B30F30002305D
:10208200F40040012108F5002208F600AA31EF22EF
:102092009031230803194F280130502800304401A1
:1020A200E1005E30F3000230F40040012408F50044
:1020B2002508F600AA31EF2226084401E200013089
:1020C2000800A931F42190314001971119114301FF
:1020D200EC014001AC013730AD00FB30AE00013005
:1020E200A7318A279031A9316D21903144016108CD
:1020F200031D7E286208031D82284301CA01CB0109
:102102008A286208643E4301CA0000300318013085
:10211200CB0066304101E5000230E60043014B0886
:102122004101E80043014A084101E700803195205E
:1021320090314301D20052080319AC2803305206F1
:102142000319AC2844016608031DAC28670803196B
:1021520068080319AE284401E1016108031DF32850
:1021620043015208031DBC2844016608031DC02810
:102172006708031DC0284301CC01CD01F0284301AB
:1021820060089C3EC800FF30613DC9000130490231
:102192000030031948020318E52800306102663056
:1021A200031960020318DA280130D0000030D10090
:1021B200E02860089C3ED000FF30613DD10051080C
:1021C200CF005008CE00E928FF30CE000030CF000B
:1021D2004E08C800C9014808CC004908CD004C0887
:1021E2004401E200A9311B219031430161084401FD
:1021F200CE00430160084401CD004301610844015F
:10220200CC00430160084401CB00AB3189239031FB
:10221200FF304401E900FF30EA0043016108400158
:10222200BF00430160084001BE00AD312825903156
:1022320043015203031D222975304001BE00FB30C9
:102242002A2903305206031D2F296C304001BE009B
:10225200FB30BF00D030C00007303B2902305206AD
:10226200031D3F2909304001BE00FC30BF00E830A9
:10227200C0000330C100AE31A9269031A831FB2045
:1022820090314001191597154401D901A931A321B3
:102292007308BF007208BE007108BD007008BC0060
:1022A20008004001A401A201003043016102C930CB
:1022B2000319600203180800440140080319410889
:1022C200031908004001A5014301630840012502EA
:1022D20003188529250803197B292508A03E8600B5
:1022E200023087000108F9002408F90280307902DF
:1022F200031882292508A03E8600023087000108C3
:10230200A4000130A5076529A60143016308400125
:1023120026020318C8290330F0002608A9314021FB
:102322009131353E860003308700010844014206A0
:10233200031DC4294008F3000330F00040012608C1
:10234200A93140219131333E8600033087000108D4
:10235200AB31AA239131003A0319C429440141083F
:10236200F3000330F00040012608A93140219131E9
:10237200343E8600033087000108AB31AA23913135
:10238200003A031DC82901304001A60786294001F1
:10239200260843016306031DF5294001A601EF2922
:1023A2000330F0002608A93140219131333E8600E6
:1023B200033087000108031DEC290330F0004001BF
:1023C2002608A93140219131343E8600033087002E
:1023D20001080319F52901304001A60743016308EA
:1023E20040012602031CD12940012608430163064D
:1023F200031D1B2A0C3063020318022A0130E30773
:102402001B2A4001A501A6012508A03E8600023034
:10241200870001082402A30022082302031C152AB4
:102422002308A2002508A6000130A5070C302502CA
:10243200031C052A0330F00040012608A93140217F
:102442009131333E86000330870044014008C03F8B
:102452004108C13F4208C23F430160089C3EF90067
:10246200FF30613DFA0001307A020030031979022F
:102472000318442A60089C3E4001A000FF3043013B
:10248200613D4001482AFF304001A0000030A10018
:102492002608AC3E8600023087002008810026080C
:1024A200A03E8600023087002408013E81000130F0
:1024B200F9000030FA00260A602AF935FA0D890B74
:1024C2005E2A79084401C9047A08CA040800430153
:1024D2006208031D822A4001680886006908870095
:1024E2000108EC000230EC36890B742A6C08ED000E
:1024F200EE016D084101CC0040016E084101CD00A2
:10250200872A01304101CC000030CD004C08D300B5
:1025120043016208031DA42A400168088600690875
:10252200870041310108EC000230EC36890B962A13
:102532006C08ED00EE016D084101CE0040016E080D
:102542004101CF00A92A01304101CE000030CF0065
:102552004E08D4005308031DB02A0130D30054089A
:10256200031DB52A0130D400D001D2014001680810
:10257200860069088700403F4101DA00413FDB00E5
:10258200423FDC005308F00052088F3E8400FB30CB
:102592000318013E85000008A93140219231F30061
:1025A200400168088600690887000108AA31D32221
:1025B20092314101DA005408F0005208873E84004B
:1025C200FB300318013E85000008A93140219231F9
:1025D200F30040016808860069088700413101085C
:1025E200AA31D32292314101DB0040016808860002
:1025F20069088700010841015A06031D0B2B40019F
:102602006808860069088700413141015B080106BC
:102612000319512B5B084001E30041015C084001B2
:10262200E4002030E500D530E6000030E70041014B
:102632005A0888316F2092314101D10051080319A3
:10264200242B51080800D5304001A0000030A10021
:102652006B08A3006A08A2009C3166249231003AFA
:102662000319512B680886006908870041015A083E
:10267200C03F5B08C13F5C08C23FD53086000030D6
:10268200870040016A0884006B0885000530EC0071
:1026920016001A00EC0B492B01304101D000B72A79
:1026A20001304101D20708305202031CB72A5008F8
:1026B200031DB52A5303031D632B5403031D632B10
:1026C200003008000230F0000030F1005308013EF3
:1026D200F200003003180130F300A231F4229231EB
:1026E2007008D3000230F0000030F1005408013EBF
:1026F200F200003003180130F300A231F4229231CB
:102702007008B42A01304101CC000130CF004001F1
:102712006808860069088700403F4101D500413FB3
:10272200D600423FD70040016C080319A22B410199
:102732004F08F3005608AA31D32293314101D60043
:10274200AB2B41014F08F3005508AA31D322933134
:102752004101D50040016808860069088700010828
:1027620041015506031DC02B400168088600690817
:10277200870041314101560801060319E82B56082A
:102782004001E300410157084001E4002030E50028
:10279200D030E6000030E7004101550888316F2053
:1027A20093314101CD004D080319D92B4D08080082
:1027B200D0304001A0000030A1006B08A3006A08DD
:1027C200A2009C3166249331003A031DF02BFE30A7
:1027D2004101CF074F08803A813E0318882B4101FF
:1027E2004F08803A813E0318F82B00300800400160
:1027F200680886006908870041015508C03F5608ED
:10280200C13F5708C23FD0308600003087004001E8
:102812006A0884006B0885000530ED0016001A0076
:10282200ED0B0F2C02304101CE004E080319F62B9E
:1028320040016808860069088700403F4101D500D1
:10284200413FD600423FD70040016C080319392CA2
:1028520041014E08F0004F08A93140219331F300A5
:1028620041015608AA31D32293314101D600482CA6
:1028720041014E08F0004F08A93140219331F30085
:1028820041015508AA31D32293314101D5004001BB
:102892006808860069088700010841015506031D82
:1028A2005D2C4001680886006908870041314101BA
:1028B200560801060319A72C56084001E3004101FE
:1028C20057084001E4002030E500D030E600003037
:1028D200E7004101550888316F2093314101CD0055
:1028E2004D08031DD72BD0304001A0000030A100BD
:1028F2006B08A3006A08A2009C3166249331003A57
:102902000319A72C68088600690887004101550849
:10291200C03F5608C13F5708C23FD0308600003042
:10292200870040016A0884006B0885000530ED00CD
:1029320016001A00ED0B992C41014C080319162CB4
:1029420020304E020318162C4E35152C4101CC01B5
:102952004E084001ED000130ED36890BAD2C6D08BB
:10296200142C5E084001E90041015D084001E800C5
:10297200410160084001EB0041015F084001EA00AB
:102982009231682294314201AA002A080319CB2C01
:102992002A080800A9012908031DD62C41015D0857
:1029A20086005E0887004131DB2C41015D0886000C
:1029B2005E0887000108E100E20161084201A0000F
:1029C200410162084201A1002008A60043016208F9
:1029D200031DFE2C420126084101E1000230E136CE
:1029E200890BF02C6108E200E30162084201A200B7
:1029F200410163084201A300032D01304201A200FC
:102A02000030A3002208A6000230260203180E2D71
:102A12000130A4000030A500192D26084101E10073
:102A2200E20161084201A400410162084201A500DD
:102A32002408A7000130A80041015D0886005E0855
:102A42008700403F4201B000413FB100423FB20027
:102A5200290803193B2D2708F0002808A931402135
:102A62009431F30042013008AA31D3229431420159
:102A7200B000492D2708F0002808A93140219431DF
:102A8200F30042013108AA31D32294314201B1004C
:102A920041015D0886005E08870001084201300698
:102AA200031D5E2D41015D0886005E0887004131ED
:102AB2004201310801060319B92D31084001E30032
:102AC200420132084001E4002030E5002B30E600EC
:102AD2000130E7004201300888316F209431420111
:102AE200AA002A08031DC92C30304001E800013039
:102AF200E9002B30EA000130EB00420129084001D5
:102B0200EC009331832394314201AA002A08031D69
:102B1200C92C2B304001A0000130A1004101600806
:102B22004001A30041015F084001A2009C316624DC
:102B32009431003A0319B92D41015D0886005E08FF
:102B4200870042013008C03F3108C13F3208C23F0E
:102B52002B3086000130870041015F088400600845
:102B620085000530E10016001A00E10BB42DB22CED
:102B7200FE304201A8072808803A813E03181D2D25
:102B820002302702031CCF2D27084101E10001304A
:102B9200E136890BC92D610842011A2D0130A907BE
:102BA20002302902031CCC2C41015D0886005E081C
:102BB2008700403F4201B000413FB100423FB200B6
:102BC2000130B20631084001E300420132084001FF
:102BD200E4002030E5002B30E6000130E70042013E
:102BE200300888316F2094314201AA002A08031D5F
:102BF200C92C41015F08860060088700403FE10060
:102C0200413FE200423FE300433FE4000130E1354F
:102C1200E20DE30DE40D890B082E640842012E0239
:102C2200031D232E4101630842012D02031D232EA1
:102C32004101620842012C02031D232E4101610859
:102C420042012B020318492E30304001E8000130C6
:102C5200E9002B30EA000130EB0092316822943116
:102C62004201AA002A08031DC92C2B304001A000F2
:102C72000130A100410160084001A30041015F0849
:102C82004001A2009C3166249431003A031D9D2D1F
:102C920000300800A931A321963173084101A30035
:102CA2007208A2007108A1007008A000AA304001B9
:102CB200D8000030D9000430DA00A2311422963153
:102CC20041013C080319752E43016C08031D752E42
:102CD20063304001BE00FB30BF00D030C00007307F
:102CE200C100AE31A9269631AA3086000030870095
:102CF2004431403F4001AD00413FAE00423FAF0092
:102D0200433FB000AA319D2296312E084101A50011
:102D120040012D084101A400240825040319942E22
:102D2200A931F42196314601270841013102031DE0
:102D3200AA2E4601260841013002031DAA2E460191
:102D4200250841012F02031DAA2E46012408410134
:102D52002E020318EE2E440129084001E300E4018B
:102D6200E501E6016608F3006508F2006408F10077
:102D72006308F0000030F7000030F6000030F50084
:102D82000A30F400AD31B0259631450144084101C5
:102D920020024001E700450145084101213B400175
:102DA200E800450146084101223B4001E900450196
:102DB20047084101233B4001EA0073086A02031DF0
:102DC200EC2E72086902031DEC2E71086802031DC5
:102DD200EC2E70086702031C0D2FAA30860000300B
:102DE2008700203084000330850013304001E30067
:102DF20016001A00E30BF92E410123084501C70012
:102E0200410122084501C600410121084501C500D2
:102E1200410120084501C400AA3086000030870025
:102E22004C31403F4001AD00413FAE00423FAF0058
:102E3200433FB0009831072096312E084101A90086
:102E420040012D084101A800440123084001E3008C
:102E5200E401640841012502031D332F4001630888
:102E620041012402031C3C2F29084401CC004101EA
:102E720028084401CB0044012508F63EF000FF304B
:102E820003180030F1000A30F2000030F300AA31DA
:102E92008222963171084101A7007008A600440100
:102EA20026080319FD2F6108031DFD2F2308400189
:102EB200E300E401640841012502031D642F40017F
:102EC200630841012402031CFD2F44012408400130
:102ED200E300E401E501E6016608F3006508F2009B
:102EE2006408F1006308F0000030F7000F30F600CC
:102EF2004230F5004030F400AD31B0259631700813
:102F02004001E7007108E8007208E9007308EA006E
:102F1200AA30F0000030F100A431DB2496317308AE
:102F220040016A02031D9F2F72086902031D9F2F31
:102F320071086802031D9F2F70086702031CFD2F92
:102F420041013A080319FD2F003029027930031993
:102F52002802031CFD2F260844014D074001E3000F
:102F62004101270844014E3D4001E4004101290886
:102F720040016402031DC12F410128084001630280
:102F8200031CF32F4101260828074001E3004101F9
:102F92002708293D4001E40044014E084001640233
:102FA200031DD72F44014D0840016302031CF32F78
:102FB200E730E3000330E4004101260840016302E8
:102FC200E500410127084001643BE6004101290870
:102FD20040016602031DF12F4101280840016502EC
:102FE2000318FD2F01304401D90704305902031C94
:0E2FF20008000130D80008004401D901080091
:10300400FF34FF34FF34FF34FF343008F3002F085B
:10301400F2002E08F1002D08F0009A318422983134
:103024007108C0007008BF0010304002003003195E
:103034003F02031C2328E7304001AD000330AE00FB
:1030440008000030B1001030B2003F083102A00087
:103054004008323BA100A201A3010030B3001030AC
:10306400B4003F083302B5004008343BB600B6361E
:10307400B50C3508B7003608B800B901BA013F08E5
:10308400003EF0001030403DF100F201F301003049
:10309400F7000030F6000030F5006430F400AD3184
:1030A400B025983170084001B7077108B83D72081F
:1030B400B93D7308BA3D3A08A7003908A600380894
:1030C400A5003708A400A3318F2398312308BE003C
:1030D4002208BD002108BC002008BB003E08031DD7
:1030E4001D283D08031D1D28E8303B0203303C3BEE
:1030F40003181D2840013C08AE003B08AD00080041
:10310400A701A60140012708203E860087010A3056
:10311400F0000030F1007808F3007708F200AC31D9
:10312400A82498317008303E81000130A7070A3086
:10313400F0000030F1007808F3007708F200AE31B7
:103144000F2698317108F8007008F70027087906EF
:10315400031DB4282708203E860087012E308100F5
:103164000130A70777087804031D84287908031918
:10317400D9287908013EFB00003003180130FC0017
:103184007C08803AFD0080307D02031DCB2827088F
:103194007B02031CD92884282608E03E86000230DE
:1031A4008700203081000130A6070130FA027A0836
:1031B400400127020318F228073026020318F228D8
:1031C400CE282608E03E8600023087000130A702A0
:1031D4002708203E84008501000881000130A607ED
:1031E4002708031DE3282608E03E860002308700F6
:1031F4008101E0300800CD00AC31D22498310C308C
:1032040040014D0203184F294130F7000030F80007
:103214004D08013EF900003003180130FA00FB01AB
:10322400A631B22698317808AB007708AA0012308C
:10323400AC00FC30AD00AA3138229831AC014130E9
:10324400AD000030AE000030A2315E229831AC01F6
:103254004D08BE00BF01BE35BF0D94303E0784004B
:1032640079303F3D80388500003FAD00013FAE001E
:103274000130A2315E2298314D08203E8600023092
:1032840087000108AE004D088631A2269831AC01B2
:103294005730AD000330AE007629AC01A630AD0046
:1032A400FA30AE000030A2315E2298310C304D0667
:1032B40003196D290D304D06031964290430CB0020
:1032C400FC3067291330CB00FB30CC004C08CA001B
:1032D4004B08C9007129F530C900FB30CA00AC01A4
:1032E4004A08AE004908AD000130A7318A27983159
:1032F400A9316D210800E3014401C901CA0140015B
:10330400A7010530F0002708A93140219931303E4A
:103314004001A000A6012608213E8600870120085E
:103324002607A9310F219931810001304001A607F8
:1033340005302602031C8D290330F0002708A9312B
:1033440040219931353E86000330870081010330E6
:10335400F00040012708A93140219931343E86000C
:103364000330870081010330F00040012708A931B0
:1033740040219931333E860003308700810121309A
:10338400F0000430F100AD31822599314001250669
:10339400031DF7292108031DD32922087F390319A6
:1033A400F7290330F0002708A93140219931333E31
:1033B400F3000330F40040012108F5002208F60070
:1033C400AA31EF2299312708AC3E860002308700EB
:1033D400230881002708A03E8600023087002408C5
:1033E40081002708013E4301E30001304001A707A3
:1033F4000C3027020318080083290B302E02B83042
:1034040003192D0203180A2AB830AD000B30AE00A0
:1034140010302E02693003192D02031C152A68305E
:10342400AD001030AE000030A3000030A200043024
:10343400A100B030A0002D08483EF000F4302E3D2D
:10344400F100F201F3010030F7000030F600003023
:10345400F5001A30F400AD31B025993173084001FC
:10346400A7007208A6007108A5007008A400A33183
:103474008F2399312008B0007330B200B301B10139
:10348400B4013308AF000330AF35890B462A2F0847
:103494003407F0003008F1003208A231A822993133
:1034A400003A03195F2A01304001AF00340A5B2A55
:1034B400AF35890B5A2A2F08B10401304001B407F3
:1034C40008303402031C432A3308AF000330AF35FD
:1034D400890B692A2F08F3003108F4000830F5003D
:1034E40032089F313827993101304001B307043045
:1034F4003302031C412A0130B2077E303202031822
:103504000800402A0030A3000030A2000030A100CF
:103514000030A0004030A7000030A6000030A50015
:103524000030A40027087302031DA22A2608720291
:10353400031DA22A25087102031DA22A2408700271
:103544000318122B0230A736A60CA50CA40C890B69
:10355400A52A942A20082407F4002108253DF50013
:103564002208263DF6002308273DF700770873025A
:10357400031DC62A76087202031DC62A7508710245
:10358400031DC62A74087002031C042B2008240798
:10359400F4002108253DF5002208263DF600230805
:1035A400273DF7007408F0027508F13B7608F23BFA
:1035B4007708F33B2408F4002508F5002608F600F4
:1035C4002708F7002008F8002108F9002208FA006B
:1035D4002308FB000130FB36FA0CF90CF80C890BBC
:1035E400ED2A7808F4077908F53D7A08F63D7B085A
:1035F400F73D7708A3007608A2007508A1007408B7
:10360400A0000B2B0130A336A20CA10CA00C890B3B
:10361400052B0230A736A60CA50CA40C890B0C2B89
:103624002708260425042404031DAC2A2108F100DC
:103634002008F0000800430166080319262B6608D9
:10364400F400E601740808008B1340016F08F100D0
:1036540043016A08F300EA016808F0006908F2000F
:10366400E9018B17F40173080319572B6708031D2D
:10367400412BFA307302031C412B0330522B670891
:10368400031D4A2B19307302031C4A2B0230522BA0
:103694006708031D532B03307302031C532B0130A3
:1036A400F4004401D7014301E70119307102031CFE
:1036B400682B6708031D682B0130E70074080319A1
:1036C400662B0230E600682B0230F400FA307102F7
:1036D400031C7B2B44015708031D7B2B0130D700AF
:1036E40074080319792B03304301E6007B2B033064
:1036F400F40072080319942B02307202031C922BFB
:103704000A3072020318922B43016608031D922BA0
:1037140074080319902B0430E600922B0430F40053
:103724004401D60114307002031CAE2B4401560828
:10373400031DAE2B40010F1DAE2B01304401D600FA
:103744007408031DA82B0530F400AE2B4301660852
:10375400031DAE2B0530E6007108031DB82B73085A
:10376400031DB82B4401D7014301E7017008031D71
:10377400242B7208031D242B4401D601242B750825
:10378400860001308700023001020318D12B75082E
:103794008600013087000108810AFA00302C740881
:1037A400860001308700403F4001A000413FA10056
:1037B400423FA200433FA3007408053E8600013047
:1037C4008700403FA400413FA500423FA600433F7D
:1037D400A70023082702031DF92B22082602031D34
:1037E400F92B21082502031DF92B20082402031CB0
:1037F400FD2B0130FE2B0030FA000530F0007A0872
:10380400A93140219B3174074001A00020088600A3
:1038140001308700403FA100413FA200423FA30086
:10382400433FA4007808860079088700403FA5003C
:10383400413FA600423FA700433FA80024082802B6
:10384400031D2E2C23082702031D2E2C22082602DA
:10385400031D2E2C21082502031808007608860073
:1038640077088700403F4001A000413FA100423F4C
:10387400A2000330F0007A08A93140219B3173077C
:103884004001A30023088600013087002008C03FC0
:103894002108C13F2208C23F7808860079088700C2
:1038A4000530F0007A08A93140219B3174074001AA
:1038B400A00020088400013085000530A100160016
:1038C4001A00A10B612C0800FF30A400FF30A500F2
:1038D400FF30A6001F30A7002208860023088700B7
:1038E40044312008840021088500043100080107C0
:1038F400A800A901A90D290DA90CA80C290DA90C32
:10390400A80C2808AA002908AB000030AB1BFF3024
:10391400AC00AD002A08A4052B08A5052C08A605B3
:103924002D08A70501302407B4000030253DB5005B
:103934000030263DB6000030273DB700220886003F
:1039440023088700403FA400413FA500423FA60052
:10395400433FA7004030A8000030A9000030AA006F
:103964000030AB002008860021088700403FAC00EF
:10397400413FAD00423FAE00433FAF002208860006
:1039840023088700403FB000413FB100423FB200EE
:10399400433FB3000830B336B20CB10CB00C890B02
:1039A400CD2C3308F3003208F2003108F10030085E
:1039B400F0003708F7003608F6003508F50034083B
:1039C400F400AD31B0259C3170084001AC0771089A
:1039D400AD3D7208AE3D7308AF3D2C08A8072D0815
:1039E400A93D2E08AA3D2F08AB3D27082B02031D35
:1039F400052D26082A02031D052D25082902031D6D
:103A0400052D240828020318092D01300800003070
:103A14000800D701A931A3219D3173084001D500C5
:103A24007208D4007108D3007008D200AC31D224DB
:103A34009D3122304001AC00DE30AD00FB30AE00E1
:103A44000030A7318A279D31A9316D219D31400174
:103A54008D1A2E2D6400292DA9315E219D3140013E
:103A640057089831FD209D3164009B311D239D3101
:103A74004001D6005608031D5C2DA931A3219D31B8
:103A8400400152087002CE005308713BCF00540825
:103A9400723BD0005508733BD1005108031DB12D72
:103AA4005008031DB12D60304E02EA304F3B03181D
:103AB400B12D362DA931A3219D3173084001D500C4
:103AC4007208D4007108D3007008D2000230560680
:103AD400031D892D0F30F0000030F1005708013E1E
:103AE400F200003003180130F300A13103219D31AD
:103AF4007008D70057089831FD209D3140018D1A78
:103B0400852D6400802DA9315E219D31362D56030B
:103B1400031D362D0C3057020318A22D5708203EE2
:103B24008600023087005708203E8400023085005A
:103B34000008F0005708AF3188279D318100322DED
:103B44000C305706031DA92DA03102209D310D30E4
:103B540040015706031DB12DA93106219D3188313D
:103B640000200800F80044012208F7000E30430149
:103B74006E02D93003196D020318C22D0130F70704
:103B84007818C72D40019917C92D40019913F818C9
:103B9400CE2D40011917D02D400119137819D52DB8
:103BA40040019916D72D40019912F819DC2D4001D6
:103BB4001916DE2D40011912781AE32D40019817C9
:103BC400E52D40019813F81AEA2D40011817EC2D41
:103BD40040011813781BF12D40019816F32D400174
:103BE40098127318F82D40019616FA2D400196127A
:103BF400F318FF2D40019A14012E40019A107319F5
:103C0400062E40019617082E40019613F3190D2E27
:103C1400400116170F2E40011613731A142E40017B
:103C24001814162E40011810F31A1B2E4001981474
:103C34001D2E40019810731B222E40011815242EAE
:103C440040011811740803192A2E40011A142C2E4D
:103C540040011A1099157708F500F6017508F0006F
:103C64007608F100A9317D219D31400199111A3066
:103C7400890B3A2E0032400118127708F500F6013C
:103C84007508F0007608F100A9317D219D314001CD
:103C940018167708F500F6017508F0007608F100AB
:103CA400A9317D219D310F304001990518309805C7
:103CB40096129A10961316131A100530F00000305D
:103CC400F100A9317D219D3178087F394401E60056
:103CD40073087F39E70074080319722E0130732EBC
:103CE4000030E8000800B200BA013A08AC317F2481
:103CF4009E3100304001B7000030B6000030B500FE
:103D04000030B400B3017C0833020318BB2E320820
:103D140041019E003530890B8D2E000041011314A2
:103D24001318922E0D084001B90041010C084001FE
:103D3400B80003303902E93003193802031CA62EF7
:103D440002303A06031DBB2E03303902FF3003193B
:103D54003802031CB02E01304401D300400138085E
:103D6400B4073908B53D0030B63DB73D0130B3075F
:103D7400852E33087C060319052F0130BA07772EE8
:103D84000330B435B50DB60DB70D890BC32E0D2F09
:103D94000430B435B50DB60DB70D890BCB2E0D2FF0
:103DA40043016D08F0006E08F100F201F3014001D7
:103DB4003708F7003608F6003508F5003408F40033
:103DC400AD31B0259E3170084001AD007108AE00E0
:103DD4007208AF007308B0000A30B036AF0CAE0CF6
:103DE400AD0C890BEF2E0330AD35AE0DAF0DB00D1C
:103DF400890BF62E3008B7002F08B6002E08B50040
:103E04002D08B4000D2F3A08003A0319C22E013AC6
:103E14000319CA2ED22E7C08AD00AE01AF01B00149
:103E24003008A3002F08A2002E08A1002D08A0002E
:103E34007C08B1000130B136890B1D2F31083407DD
:103E4400A40035080318350F0310A500360803181D
:103E5400360F0310A60037080318370AA700A3314A
:103E64008F232108FD002008FC000800FD007308D2
:103E7400A0000330A036890B3C2F2008FC007308F7
:103E84000739FB000130A000750A492FA035890BC2
:103E9400482F2008FF3EFA007A08A000A1017B0AFF
:103EA400552FA035A10D890B532F2008F6002108AA
:103EB400F70074087A05A000A1017B0A632FA035DE
:103EC400A10D890B612F2008F8002108F90080302A
:103ED4007D020318080004307C020318AD2F7C080F
:103EE400A000A1010730A035A10D890B752FF0307A
:103EF400A2002C30A30020082207A4002108233D9F
:103F0400A5007D08240786000030253D87007C0835
:103F1400A600A7010730A635A70D890B8D2FF03019
:103F2400A8002C30A90026082807AA002708293D44
:103F3400AB007D082A07840000302B3D85007609FC
:103F44000005780481007D08F0007D08F1007C08FC
:103F5400AB31CB239F317B08031908007C08013E59
:103F6400A000003003180130A1002108803AA2000B
:103F740080302202031DC02F0430200203180800E1
:103F84007C084001A000A1010730A035A10D890BD8
:103F9400C72F7030A2002D30A30020082207A400F0
:103FA4002108233DA5007D08240786000030253D17
:103FB40087007C08A600A7010730A635A70D890B4A
:103FC400DF2F7030A8002D30A90026082807AA008A
:103FD4002708293DAB007D082A07840000302B3DCB
:103FE400850077090005790481007D08F0007D08CB
:0C3FF400F1007C08013EAB31CB2308003B
:10400400A031C220A0317708B3007608B2005E3038
:10401400A3003308A4003208A500B4013408033E09
:10402400233E860087013408203E84000230850048
:10403400000881000130B4070C303402031C10283E
:10404400B4013408233E860087010108F8003408CF
:10405400203EAC313224A03101304001B4070F308E
:104064003402031C23282330F0000F30F100AD315B
:104074008225A031F8002F30AC31322408007108B9
:104084007302031D472870087202031C4F2870082E
:104094007202FA007108733B542872087002FA0025
:1040A4007308713BFB0071087302031D5B287008E1
:1040B4007202031C61287308FD00720864287108E9
:1040C400FD007008FC007D08F7007C08F600F73658
:1040D400F60CF736F60CF736F60C74087607F8008B
:1040E4007508773DF9007B087902031D7B287A085F
:1040F4007802031C7F280130080000300800A0006B
:104104000230F7072008B03EA10077080F39A2005B
:104114007708FB000430FB36890B8D287B081038A8
:10412400A3002130F3000030F4000330F500AB317C
:10413400ED23A0314001A400A931B721A03178308A
:10414400AE314126A0314001A4044030AE314126B5
:10415400A0310130FA027A0A0319BD2878088400D4
:10416400790885000008AE314126A0310130F807F6
:104174000030F93DAB28A931902140012408080002
:104184005A304001A200A530A000A101FF30F00088
:104194000030F1002108703E8400F7300318013E1E
:1041A40085000008F80022087807F200F301F30DF7
:1041B400A1310321A0317008A200FF30F0000030CB
:1041C400F10020082207F200F301F30DA1310321CD
:1041D400A0317008A0000130A1070C302102031C9B
:1041E400C8282208F800F9012008FA00FB017A081F
:1041F400FB00FA0178087A04F60079087B04F700DA
:104204000800F501F31F0D29F209F309F20A031955
:10421400F30A0130F500F11F1429F009F109F00A3D
:104224000319F10A70087104031939290130F400E3
:10423400F11B24290130F035F10D890B1D290130C2
:10424400F4071A2971087302031D2A2970087202DF
:10425400031C30297008F2027108F33B0130F13677
:10426400F00C890B31290130F402031D242975084F
:1042740003194129F209F309F20A0319F30A73082D
:10428400F1007208F00008007408F6007308F500E5
:104294000730F636F50C890B4B292530F0007308EE
:1042A400A9314021A1317506FB006D297B08F50079
:1042B400F601F535F60DF030F7002A30F8007508F0
:1042C400770786007608783D8700160001040319F5
:1042D40088290130FB077B08F500F601F535F60D5A
:1042E400F030F7002A30F800750877078600760862
:1042F400783D8700403FF900413FFA0074087A0690
:10430400031D862973087906031D58297B080800B4
:1043140000308731E127A13140011716971550016C
:104324000C108B134E0196127E01C9164E011616FF
:104334006430F0000030F100A9317D21A1317E010B
:10434400CA1263000000FD01B82940018D1ABC297E
:1043540005304001AA000F30A900F130890BB029C3
:10436400A90BB029AA0BB0290130FD0710307D023A
:10437400031CA72910307D06031D9A294E0116122D
:104384007E01C912CA124E018C1296168B17500167
:104394000C14A43185240800F7007308F4000430D9
:1043A400F436890BD2290A3074020318E0290F303D
:1043B4007305F4000A307402031CE9297708CB3E24
:1043C4008400FA300318013E8500000808000F300D
:1043D4007305F4000A30F0007308F5000430F53674
:1043E400890BF1297508A9314021A1317407F60020
:1043F4007708E33E8400FA300318013E8500000884
:104404007602031CE0297708D73E8400FA300318AB
:10441400013E85000008F40076087402031CE029BC
:104424007608080064004401D30140015A08FC00E6
:1044340008309E317526A2317D08DC007C08DB0043
:104444005A08FC000A309E317526A2317D08DE0030
:104454007C08DD005A08FC000A309E317526A23122
:104464007D08E0007C08DF005A08FC0008309E311B
:104474007526A2317D08E2007C08E1005908AE00EF
:104484005808AD005C08B0005B08AF005E08B200DD
:104494005D08B1006008B4005F08B3006208B600AC
:1044A4006108B5008C31DB2458088600870152313D
:1044B4004401530881000800B3002D0884002E082D
:1044C40085001200031908002D0884002E088500B9
:1044D4000008AB314923A23177084001B2007608C5
:1044E400B100B60105303602031C7B2AB401B501C4
:1044F400892A36083107840032080318013E8500F2
:104504000008AF00B0012F08B4003008B50033082C
:10451400AF000330AF35890B8C2A2F08F300340821
:10452400F4000830F5002C0836079F313827A231F3
:1045340001304001B60706303602031C742A0130EC
:10454400AD070030AE3D0630AC075F2AF6000230FE
:1045540070020318BA2AF50176307602031CB82AD1
:104564007B3076020318B82A0130F500750808007C
:10457400023070060319CA2A1F3070060319CA2AAA
:1045840075307602031CCA2A7C307602031CCC2ABE
:1045940001300800753076060319DC2A7B30760674
:1045A4000319DC2A033070060319DC2A1E30700656
:1045B400031DDE2A003008000030F30071081D3CA2
:1045C400F200031CF3037308803AF4008030740291
:1045D400031DEE2A700872020318F22A0130080043
:1045E40000300800F501F11FFE2AF009F109F00A74
:1045F4000319F10A0130F500F31F072BF209F3093F
:10460400F20A0319F30A0130F506F601F7017008FE
:1046140071040319342B0130F400F11B192B013000
:10462400F035F10D890B122B0130F4070F2B0130FB
:10463400F635F70D890B1A2B71087302031D242B11
:1046440070087202031C2B2B7008F2027108F33BF2
:1046540076140130F136F00C890B2C2B0130F40266
:10466400031D192B750803193C2BF609F709F60AE3
:104674000319F70A7708F1007608F0000800013002
:104684004001A500AB316923A3314001A701622B8E
:104694006030F300F930F4001C30F500AB31ED2349
:1046A400A3314001A500250803195F2B6430F000F5
:1046B4000030F100A9317D21A33101304001A70769
:1046C4000A3027020318692B2508031D4A2BA6016B
:1046D400A7012708FE3EF7000F30F800FA30F90072
:1046E4001030FA002608A0318120A3311030A7072A
:1046F40080302702031C6B2B0130A60708302602EA
:10470400031C6A2B2F30F300FC30F400F501F50A8A
:10471400AB31ED234001A50408000030AB000030AC
:10472400AA000030A9000030A800230822042104B4
:1047340020040319D62B0130AC00A31BAB2B013092
:10474400A035A10DA20DA30D890BA22B0130AC073E
:104754009F2B0130A835A90DAA0DAB0D890BAC2BED
:1047640023082702031DC02B22082602031DC02B89
:1047740021082502031DC02B20082402031CCB2B77
:104784002008A4022108A53B2208A63B2308A73B36
:1047940028140130A336A20CA10CA00C890BCC2B3D
:1047A4000130AC02031DAB2B2B08A3002A08A20086
:1047B4002908A1002808A00008005208013E0F396A
:1047C400D2000130D10751084001A00044015B0828
:1047D4004001A1005B30F3000230F400AA31092249
:1047E400A3314001A200440161084001A300440137
:1047F4005E084001A4005E30F3000230F400AA31E8
:104804000922A3314001A500440162084001A60029
:104814002030F0000730F100AD318225A331400192
:10482400A70044015208FB000330FB35890B172C09
:104834007B08703E4001A800A9012908203E86009B
:1048440087010108F80028082907AC313224A33174
:1048540001304001A90708302902031808001F2C61
:1048640044016C0840013F06031D3C2C44016B08C5
:1048740040013E06031908003F084401EC004001D2
:104884003E084401EB00003040013F02643003194C
:104894003E020318612C3C30AC003F08F8003E088F
:1048A400F700F901F90A0330FA0098318220A431A3
:1048B400AD000230AE000030A7318A2708000A306C
:1048C400F0000030F1003E08053EF20000303F3DAC
:1048D400F300AE310F26A4317108C1007008C00086
:1048E4003C30AC004108F8004008F700F9010330FF
:1048F400FA0098318220A431AD000230AE000030BD
:10490400A7318A2708004001A601A7010030AC3175
:104914007F24A4314001A801093041019E003530B3
:10492400890B922C0000410113141318972C0D08C5
:104934004001A50041010C084001A4002408A60779
:104944002508A73D0130A80708302802031C8E2C37
:104954000430A0000030A1000030A2000030A30009
:104964002608F0002708F100F201F3010030F700F7
:104974000030F6000030F5000B30F400AD31B02506
:10498400A43170084001A0077108A13D7208A23D3E
:104994007308A33D0330A336A20CA10CA00C890B11
:1049A400CD2C21084301EE00400120084301ED0015
:1049B40008007008860087014431403FF400413FFD
:1049C400F500423FF600433FF70070088600870178
:1049D4004831403FF800413FF900423FFA00433F6D
:1049E400FB0077087B02031D012D76087A02031D64
:1049F400012D75087902031D012D74087802031C2A
:104A04000C2D0030F3000030F2000030F1000030D3
:104A1400F00008007008860087014831403FF40028
:104A2400413FF500423FF600433FF700700886001F
:104A340087014431403FF800413FF900423FFA000A
:104A4400433FFB007408F8027508F93B7608FA3B0B
:104A54007708FB3B7B08F3007A08F2007908F10041
:104A64007808F00008004001AF002F08383E8600A7
:104A7400023087000108AE002F08343E8600023061
:104A840087000108AD002F08383E860002308700F9
:104A9400FF3081002F08343E8600023087008101F8
:104AA4002E082D02031C08002E08F7002F08A5006D
:104AB400A6010730A535A60D890B5C2DF030A700A3
:104AC4002C30A80025082707A9002608283DAA009D
:104AD4002E082907AB0000302A3DAC002B08F80053
:104AE4002C08F9002E082D02013EFA002F08A031EF
:104AF4008120A531003A03198F2DA931DF21A53179
:104B040001304401D50705305502031C8C2D0130BA
:104B1400D4000800AB31692308004401D501080022
:104B24000030FB000030FA000030F9000030F800DB
:104B340073087204710470040319B02D73087702AA
:104B4400031DAE2D72087602031DAE2D7108750289
:104B5400031DAE2D70087402031CB92D0130F3003F
:104B64000030F2000030F1000030F0000800FC01D9
:104B74000130F435F50DF60DF70D890BBB2D013021
:104B8400F835F90DFA0DFB0D890BC22D7308770268
:104B9400031DD62D72087602031DD62D71087502E9
:104BA400031DD62D70087402031CE12D7008F40255
:104BB4007108F53B7208F63B7308F73B7814013033
:104BC400FC0718307C02031CBA2D7B08F3007A081A
:104BD400F2007908F1007808F00008004108860026
:104BE40042088700403F4401C000413FC100423FAA
:104BF400C2000130400143020030443B0030453BD9
:104C04000130463B0318162E400146084501C300F7
:104C1400400145084501C200400144084501C10066
:104C24004001430845011E2E01304501C3000030F8
:104C3400C2000030C1000030C00043084001B00091
:104C4400450142084001AF00450141084001AE0062
:104C5400450140084001AD0098310720A5312E08D8
:104C64004301E10040012D084301E00040014108F7
:104C740086004208870041310108F300410886009C
:104C84004208870042310108F400410886004208C6
:104C9400870001089D31B42508004001CA004A0874
:104CA4000319642E44016108031D642E6608DE00A6
:104CB4006708DF006808E0000130E100F301F40157
:104CC4000030722E40014A08031D080044016108A7
:104CD40003190800E1015F08F3006008F4005E08AE
:104CE4009D31B425A631A9311B21A6316108031DCC
:104CF400922E6208031D822E4001C601C7018A2E2E
:104D04006208643E4001C600003003180130C70049
:104D140047084401CE00400146084401CD00942ECA
:104D2400CD01CE01AB318923A63144016108031DB5
:104D3400A02EEA304001C800FB30A42ED13040013F
:104D4400C800FB30C9004908BF004808BE00203035
:104D5400C0000330C100AE31A9264401D9010800C6
:104D64004001A90140012908233E860087010A3039
:104D7400F0000030F1007A08F3007908F200AC3159
:104D8400A824A6317008303E81000130A9070A30FA
:104D9400F0000030F1007A08F3007908F200AE3137
:104DA4000F26A6317108FA007008F90029087B065D
:104DB400031DE42E2908233E860087012E3081003E
:104DC4000130A90779087A04031DB42E7B0803195E
:104DD4000E2F7B08013EA000003003180130A10013
:104DE4002108803AA20080302202031DFB2E2908EC
:104DF4002002031C0E2FB42E770886007808870043
:104E04000130A9022908233E84008501000881009D
:104E14000130F7070030F83D40012908031DFE2E3C
:104E2400770886007808870081010800AB0101300B
:104E3400A0000030A1002B0A212FA035A10D890B61
:104E44001F2F4401490840012005A20044014A08DB
:104E540040012105A300220823040319802F0330F5
:104E6400F0002B08A9314021A731333E86000330DE
:104E7400870001084001A4000330F0002B08A93189
:104E84004021A731333EF3000330F400AA31092254
:104E9400A7314001A5002B08AC3E860002308700F4
:104EA4000108A6002B08A03E8600023087000108F6
:104EB400A7002430F0000430F100AD318225A73181
:104EC4004001A8000530F0002B08A9314021A7318A
:104ED400303E4001A900AA012A08243E8600870129
:104EE4000108F80029082A07AC313224A73101301F
:104EF4004001AA0705302A02031C6E2F0130AB07BC
:104F04000C302B02031C192F4401C901CA010800EB
:104F1400B4003408031D912FB501B601952F12304A
:104F2400B5000030B6003508BB002D0884002E08FB
:104F340085001200031908002D0884002E0885003E
:104F44000008AB314923A73177084001B300760844
:104F5400B200BD010A303D02031CB32FB701B801F2
:104F6400C72F3D08AF000130AF36890BB62F2F088D
:104F74003207840033080318013E85000008B0009E
:104F8400B1013008B7003108B8003708BC003C084C
:104F94000F39AB312923A731B9003C08AF000430E5
:104FA400AF36890BD22F2F08AB312923A731BA0092
:104FB4003B08F3003908F4000830F5002C083D07DD
:104FC4009F313827A73140013B08083EF3003A08D7
:104FD400F4000830F5002C083D079F313827A7312D
:104FE40001304001BD070C303D02031CAC2F0130E1
:0C4FF400AD070030AE3D0C30AC07972F2D
:1051F600A931DF210800430165080800F0007008A6
:105206004301E6000800FF30F8002030AC313224BC
:10521600A931AA31B8220800F00050019E181029C1
:105226001E1770309B0070089A001E141C08080098
:105236006608DB006708DC006808DD00A331DF23B1
:10524600A931A73118270800640080010131013017
:10525600FE020030FF3B7F087E0403190034282934
:105266004301EC0140014208BF004108BE00AD31D8
:105276002825A931A9316D210800F200F101721C1F
:1052860046297008F1070310F00D0310F20C72089E
:10529600031D4229710808004101930194019501FB
:1052A60096019D019C019B01143093009317FF30DA
:1052B6004401ED0008008B134301EA01E9018B1755
:1052C600E60101304401D7004301E7000130440103
:1052D600D60008004301650803190800FC017C0894
:1052E600A5313525A9310130FC0704307C020318AD
:1052F600080072290130F0020030F13B700A0319F0
:10530600710A0319080064000B30F2006230890B41
:105316008A29F20B8A2900327D29400116111A309A
:10532600890B93290032400196151A30890B992969
:105336000032400116151A30890B9F2900320800E9
:105346008B1344013308F7003208F6003108F500E4
:105356003008F4008B177708F3007608F20075081A
:10536600F1007408F00008004001161596151A3071
:10537600890BBB290032400116111A30890BC1294D
:105386000032400196111A30890BC72900320800F5
:105396004301EC014001AC013C30AD00FB30AE00F6
:1053A6000130A7318A27A931AB318923FF30440167
:1053B600E900FF30EA000800F0017008383E860078
:1053C6000230870081017008343E86000230870073
:1053D6007F3081000130F0070430700203180800A6
:1053E600E029A931A321A9317308BF007208BE00C4
:1053F6007108BD007008BC00A831FE20A931003A32
:10540600031D080001308731E12708007308860074
:105416007408870042310108031D142AF501F601BC
:10542600182A8030F5000030F600730886007408EC
:1054360087004131010875040800A931A3217808C5
:1054460070024001A0007908713BA1007A08723B06
:10545600A2007B08733BA3002308FB002208FA0086
:105466002108F9002008F80008002B0887002A0800
:105476008600AA0A0319AB0A2D08FD002C08FC00B9
:10548600AC0A0319AD0A7C0884007D088500000873
:10549600C03F890803190800382A9B311D23AA3109
:1054A600F60003307606031D5D2A7608A931012130
:1054B600013008000130F50076030319672A02302F
:1054C60076060319672AF501750808004708BF0024
:1054D6004608BE004908C1004808C000AE31A926EA
:1054E600AA31A9316D21AA3140014908F1004808C5
:1054F600F000A9317D21AA31A931CB210800F401A0
:10550600F501701C8A2A7208F4077308F53D01300C
:10551600F235F30D890B8B2A0130F136F00C890B2D
:10552600902A70087104031D842A7508F100740816
:10553600F00008000030A3000130A2008630A10070
:10554600A030A00050302D07A400C3302E3DA5008A
:1055560000302F3DA6000030303DA700A3318F2339
:105566002108AE002008AD000800F8017808203EAA
:105576008600023087007808703E8400F7300318F2
:10558600013E85000008F3007808A131CE21AA313A
:1055960081000130F8070C30780203180800B92A98
:1055A600F50075087307F600F7010318F70AF31BF1
:1055B600F703F71FE02A003008007708803AF40066
:1055C60080307402031DE92A80307602031CED2A1E
:1055D6007F30080076080800730886007408870084
:1055E60075087F3981007308860074088700413189
:1055F60076087F3981007308860074088700423177
:105606007608F7000730F736890B062B77088100F6
:10561600080001308731E127AB31AD31DF25AB31F1
:105626008D1A182B9D310B25AB31AF311727AB31B6
:10563600A9315E21AB31A931A3217308BF007208DD
:10564600BE007108BD007008BC000800F100F20140
:10565600F3010130F000730A312BF035890B302B42
:10566600700871050319412B0330F0007335890A60
:105676003D2BF035890B3C2B7008F2040130F30703
:1056860004307302031C2C2B72080800FC007C08F3
:10569600E03EFD0060307D020318FD017D08F80044
:1056A600F9017808F0007908F1000530F2000030C1
:1056B600F300AA3182228030FA00F730FB0070082E
:1056C6007A07F60071087B3DF700080040011615C1
:1056D60096151A30890B6D2B0032F001822B400192
:1056E6000C19862B96111A30890B772B0032400144
:1056F60096151A30890B7D2B00320130F0070930E0
:105706007002031C722BA931902108004401610824
:10571600031D922B6B304001BE00FA30962B1A30D7
:105726004001BE00FC30BF00AC013F08AE003E08A1
:10573600AD000130A7318A27AB312A30AC002D30BD
:10574600AD00FC30AE000130A7318A270800F80012
:10575600780873020318B42B73087802F7007808E8
:10576600B82B78087302F7007308F5000130F600CD
:1057760003307702031CC92B7508F4000330F43696
:10578600890BC22B77087402031CF6017608080001
:10579600F2007208383E8600023087000108700267
:1057A6000318DC2B7208383E86000230870070082A
:1057B60081007208343E86000230870071080102BB
:1057C600031808007208343E86000230870071080C
:1057D60081000800A931B721AB317830AE314126BE
:1057E600AB31F6000030AE314126AB310130F50267
:1057F600750A03190B2C73088400740885000008C9
:10580600AE314126AB310130F3070030F43DF92BC0
:10581600A9319021760808002030860003308700E1
:105826004431403F4001AD00413FAE00423FAF0032
:10583600433FB000AA319D22AC312E08BF002D088F
:10584600BE00A4313224AC3144014C084001BF00F3
:1058560044014B084001BE00AD3128250800FA007E
:105866007A08A9310F21AC317806031908001E17F2
:1058760070309B007A089A0078089C000B0D0B0D7F
:105886000139F9008B131E1555309F00AA309F0071
:105896009E14790C031C8B1303188B17532C64006E
:1058A60050019E18522C1E110800FC007008F200D0
:1058B600F3017C08F400F5010730F435F50D890B8A
:1058C600602C7108F600F7010E30F635F70D890BDE
:1058D600682C74087604F80075087704F9007208D5
:1058E6007804FA0073087904FB0000307A04F000AB
:1058F60080307B04F1000800F200720844016D0656
:10590600031908007208ED0002307206031D8E2C82
:1059160041019A01A32C72080319932C0230942C8E
:105926000130F0000030F10052010C087006FC391D
:1059360070068C008C170C1F9E2C033041019A00B8
:10594600A0300032890BA42C0800700871040319DA
:10595600CD2C0130F400F11BB82C0130F035F10DDF
:10596600890BB12C0130F407AE2C71087302031DAC
:10597600BE2C70087202031CC42C7008F202710857
:10598600F33B0130F136F00C890BC52C0130F402E3
:10599600031DB82C7308F1007208F0000800F70127
:1059A600F8017708F100F2010730F135F20D890BA5
:1059B600D82CF030F3002C30F40071087307F50092
:1059C6007208743DF6007808750786000030763D4B
:1059D600870081010130F80780307802031CD42C3F
:1059E6000130F70704307702031CD32CA931DF21DD
:1059F60008004001C30144012A080319252D7C082B
:105A060086007D088700403F4001AD00413FAE0063
:105A1600423FAF00433FB00098310720AC3144010C
:105A26002A08643E4001C100003003180130C2005C
:105A36002E084202031D212D2D084102031C252D8F
:105A46000130C30040014308080044016A084001D0
:105A56003F06031D322D4401690840013E06031925
:105A6600080043016C08031D080040013F0844017B
:105A7600EA0040013E084401E9003C304001AC0028
:105A86003F08F8003E08F7000230F9000430FA003B
:105A960098318220AD31AD000230AE000130A73121
:105AA6008A270800FA007A08F9000330F935890BCD
:105AB600592D7908703EFB00FC0178087C078600AA
:105AC60087017B087C07A9310F21AD3181000130A8
:105AD600FC0708307C02031C602D7808073E840012
:105AE60085017808F0000730F100AD318225AD312F
:105AF6000006031D802D01300800003008005A30D2
:105B0600F7000130F102710A0319AE2D7008860004
:105B160087010108F7060130F007F601F71B9A2DF9
:105B26007708F200F3017235F400730DA42D77089F
:105B3600F200F301F235F30D07307206F40000307F
:105B46007306F5007408F7000130F6070830760290
:105B56000318842D912D770808000030FB000030D3
:105B6600FA000030F9000030F800701CC22D7408ED
:105B7600F8077508F93D7608FA3D7708FB3D0130D0
:105B8600F435F50DF60DF70D890BC32D0130F336FF
:105B9600F20CF10CF00C890BCA2D73087204710417
:105BA6007004031DB82D7B08F3007A08F20079080B
:105BB600F1007808F0000800AC31D224AD311C3079
:105BC6004001AC00CA30AD00FB30AE000030A7315A
:105BD6008A27AD311F30AC000730AD00FB30AE0078
:105BE6000230A2315E22AD310D30AC00FD30AD0089
:105BF600F930AE000330A2315E22AD31A9316D21FC
:105C0600AD3140019711B830F0000B30F100A931E9
:105C16007D21400197150800F401F5017008710413
:105C260003193C2E0130F600F11B212E0130F03510
:105C3600F10D890B1A2E0130F607172E0130F435B7
:105C4600F50D890B222E71087302031D2C2E700888
:105C56007202031C332E7008F2027108F33B7414AF
:105C66000130F136F00C890B342E0130F602031D9B
:105C7600212E7508F1007408F0000800F000F2010A
:105C8600F01F482E400116154A2E400116111A30F3
:105C9600890B4B2E0032400196151A30890B512E76
:105CA6000032400196110310F00D0130F207083062
:105CB6007202031C432E16151A30890B602E003211
:105CC600400196151A30890B662E003240010C0CE5
:105CD600890C0139F10096111A30890B702E0032A9
