:0400000080313A28E9
:100008007E14803100308600003087004E018C1E3F
:1000180038288C1201304001AC070030AD3DAE3DB0
:10002800AF3D0130B2070A303202031C3828B20152
:100038008D1A24287D0A03192A280130FD072A2849
:100048007D0803192A287D08B100FD018F18322880
:100058007C0A031938280130FC0738287C08031962
:1000680038287C08B000FC017E10090080313C284B
:10007800FC01FD014001AC01AD01AE01AF01B001D1
:10008800B101B2017E10400180314A2880318520BB
:10009800803150010C148031E12080317308AB00AD
:1000A8007208AA007108A9007008A800640040013D
:1000B8002B08A3002A08A2002908A1002808A000EC
:1000C8000030A7000030A6000330A500E830A400E7
:1000D8008031BE208031003A03195A28E830A80739
:1000E8000330A93D0030AA3D0030AB3D97111E30CA
:1000F800F0000030F1008031F52080314001971583
:100108005A287E01B8010730C300CE01D901E401A5
:100118005301901394134001960118309700103042
:100128009800063099009A019101273092009301B6
:10013800940195017E013A15BA15DB145B151A3046
:100148004F019600FE309700473098007F309900A5
:1001580077309A00DF309B00453040019F009E01B8
:10016800F9309D009C014E018C12961640019E1795
:100178008B1708008031E120803120087002F800D8
:100188002108713BF9002208723BFA002308733BEF
:10019800FB0027087B02031DDB2826087A02031DC3
:1001A800DB2825087902031DDB2824087802031CB4
:1001B800DF2801300800003008008B1340012F08A9
:1001C800F7002E08F6002D08F5002C08F4008B1710
:1001D8007708F3007608F2007508F1007408F0005B
:1001E80008000130F0020030F13B700A0319710A6F
:1001F8000319080064000B30F2006230890B0229F1
:08020800F20B02290032F52877
:020000040001F9
:0A000E008C3FBD3DAD07FF3FFF3FF3
:00000001FF
