:1000000080314428A0340F347E14803100308600C3
:10001000003087004E018C1E42288C1201304401B2
:10002000A4070030A53DA63DA73D0130CF070A300B
:100030004F02031C4228CF0140018D1A262843019C
:100040006B0A03192F280130EB072F2843016B0897
:1000500003192F286B084401D9004301EB0140012B
:100060008F18392843016A0A031942280130EA0728
:10007000422843016A08031942286A084401D8004B
:100080004301EA017E100900803146284301803196
:1000900002208031ED00803103208031EE000430F9
:1000A0008400A030850044011200EB001200EC0037
:1000B0001200ED001200EE001200EF00F03084009C
:1000C000283085000030FE000730FF00AE313326B7
:1000D0008031E3308400013085000A30FE000030BA
:1000E000FF00AE313326803120308400023085009D
:1000F0004B30FE000030FF00AE3133268031A0309F
:100100008400023085004F30FE000030FF00AE3129
:100110003326803120308400033085002430FE00F7
:100120000030FF00AE3133267E1040018D31542D5A
:100130004301BC01BE01C1014135F03E860087018B
:100140002A30873D41350030873D0030C03FC13FF8
:100150000130C107031D9C284401C701C801CE011D
:10016000CD01C501C601450142084101EC00ED0188
:10017000EE01EF016F08F3006E08F2006D08F10068
:100180006C08F0000030F7000130F6008630F50012
:10019000A030F400A2318D22803173084501D200D5
:1001A0007208D1007108D0007008CF0043084101E7
:1001B000EC00ED01EE01EF016F08F3006E08F200B4
:1001C0006D08F1006C08F0000030F7000F30F60009
:1001D0004230F5004030F400A2318D2280317308A6
:1001E0004501CE007208CD007108CC007008CB002C
:1001F00001304401A3000030A2000030A100013012
:10020000A00041016808860069088700403F44015A
:10021000E500413FE600423FE70001304301AF0007
:100220000030AE000030AD000030AC00B00140291D
:1002300052304201EA00FA30EB000430EC000230A8
:10024000EF0096304401C30000303E2928304201BF
:10025000EA00FA30EB000730EC000430EF00F43035
:100260003B2943304201EA00FA30EB000530EC0054
:100270000330EF005E304401C3000130C40049295F
:1002800045014A08013A03191829023A0319262997
:10029000312941016808860069088700403F430111
:1002A000C800413FC900423FCA0049084001E70079
:1002B00043014A084001E8002030E900C330EA0069
:1002C0000130EB00430148088931022180314301AC
:1002D000C0004008031D7E2EC330FC000130FD002D
:1002E000A131D9218031003A03199229C830400147
:1002F000C1000130C200430146084001C60043016D
:1003000045084001C500430144084001C4004301C1
:1003100043084001C3009931EF2180319231CA2254
:100320000030080041016B084201EE0041016A08FB
:100330004201ED004301C1016508410203182C2A66
:100340000330F0004108AE315B268031203E43018E
:10035000BD003D0886000330870001084806031DE4
:10036000C2293D0A86000330870001084906031DA3
:10037000C2293D08023E86000330870001084A0674
:100380000319282A3D088600033087000330413FC7
:100390004001E70043013D08860003308700033039
:1003A000423F4001E8001030E900A030EA0001308F
:1003B000EB0043013D0886000330870001088931C6
:1003C000022180314301C0000330400603192C2A6A
:1003D0004008031D7E2E46082302031DF929450807
:1003E0002202031DF92944082102031DF9294308AB
:1003F0002002031C002A42016D086E04031D282AF6
:1004000043013D08860003308700403FC800413F5C
:10041000C900423FCA00A030860001308700C330C7
:1004200084000130850005304101EC0016001A00FF
:10043000EC0B162A43014108B33E860002308700C8
:100440000108643E4201ED00003003180130EE0067
:1004500001304301C1079C2942016D086E04031954
:10046000B92A01304401CD00C8304101E00001301B
:10047000E100C330E2000130E3009431B024803168
:100480004301C0004401CD01033043014006031D78
:100490005B2AA630F300B230F400BE30F500C8305D
:1004A000F6000130F700C330F8000130F9009E314A
:1004B0000F2680317D2D4008031D7E2EC330FC00A9
:1004C0000130FD00A131D9218031003A031D762988
:1004D000430146084001B000430145084001AF0018
:1004E000430144084001AE00430143084001AD0010
:1004F0009C317624803142016D08053E4101EC00BB
:10050000003042016E3D4101ED0040012E084101E5
:100510006D02031D8F2A40012D0841016C02031852
:100520007629430146084001B000430145084001D7
:10053000AF00430144084001AE00430143084001BD
:10054000AD009C31762480312D082E0403197629C4
:10055000A630F300B230F400BE30F500C830F6002B
:100560000130F700C330F8000130F9009E310F264A
:1005700080314301B101023031020318E52CC10181
:1005800042016C08430141020318E22CA50142011B
:100590006C08430125020318DF2C410842016A0759
:1005A00084006B080318013E850000084301C80061
:1005B000250842016A0784006B080318013E850084
:1005C00000084301C9003108CA0049084001E7009A
:1005D00043014A084001E8001030E900C330EA0056
:1005E0000130EB0043014808893102218031430189
:1005F000C0000330400603197D2D4008031D7E2EE8
:100600004808031D182B4908031D182B3108031D2A
:10061000182BC330860001308700AC3084000130D5
:10062000850005304101EC0016001A00EC0B142B7C
:100630004301C2013C0842020318592B0330F00069
:100640004208AE315B268031023E413E86000130D9
:100650008700010843013106031D552B4208373E30
:1006600086000130870001084101EC004301410888
:100670004101EC0201306C07ED0003306D020318FC
:10068000552B430142083C3E86000130870001089B
:100690004101EC00430125084101EC0201306C07E7
:1006A000ED0003306D02031C592B01304301C207DA
:1006B0001A2B43013C0842020318032C0530F000BA
:1006C0004208AE315B268031513E86000130870002
:1006D000403F4101EC00413FED00423FEE00433F0F
:1006E000EF006F0843014602031D862B41016E088F
:1006F00043014502031D862B41016D08430144025D
:10070000031D862B41016C08430143020318DC2CB6
:100710004208BF003F08013E4101EC0000300318D1
:100720000130ED006D08803AEE0080306E02031D4E
:100730009D2B43013C0841016C020318002C03303F
:10074000F00043013F08AE315B268031033E413E5D
:10075000860001308700403F4101EC00413FED0041
:10076000423FEE000330F00043013F08AE315B260C
:100770008031413E86000130870041016C08C03F56
:100780006D08C13F6E08C23F0530F00043013F08CD
:10079000AE315B268031053E513E86000130870038
:1007A0000530F00043013F08AE315B268031513EF9
:1007B00084000130850005304101EC0016001A006C
:1007C000EC0BDE2B43013F08373E860001308700EB
:1007D0003F08013E373E840001308500000881005B
:1007E0003F083C3E8600013087003F08013E3C3E0A
:1007F000840001308500000881000130BF078A2B8A
:1008000001304301BC023C08C2006B2C42016F085E
:10081000430142020318692C0330F0004208AE3154
:100820005B268031FD3E413E860001308700403F1F
:100830004101EC00413FED00423FEE000330F0008B
:1008400043014208AE315B268031413E86000130D3
:10085000870041016C08C03F6D08C13F6E08C23F70
:100860000530F00043014208AE315B268031FB3E8B
:10087000513E8600013087000530F00043014208F8
:10088000AE315B268031513E840001308500053059
:100890004101EC0016001A00EC0B4A2C43014208FF
:1008A000373E8600013087004208FF3E373E840015
:1008B000013085000008810042083C3E860001307E
:1008C00087004208FF3E3C3E84000130850000085E
:1008D00081000130C20242080319992C0530F00052
:1008E0004208AE315B268031FB3E513E860001302E
:1008F0008700403F4101EC00413FED00423FEE00E8
:10090000433FEF006F0843014602031D972C41014E
:100910006E0843014502031D972C41016D084301F8
:100920004402031D972C41016C0843014302031C40
:10093000062C42016F08430142020318DC2C0330ED
:10094000F0004208AE315B268031413E8600013026
:10095000870043014808C03F4908C13F4A08C23FD9
:10096000C3308600013087000530F0004208AE3108
:100970005B268031513E8400013085000530410105
:10098000EC0016001A00EC0BC12C43014208373E64
:100990008600013087004108810042083C3E860005
:1009A000013087002508810042016F0843013C02A5
:1009B0000318DC2C0130BC070130A507C72A013021
:1009C000C107C02A0130B107BB2A440123084001F6
:1009D000B000440122084001AF0044012108400159
:1009E000AE00440120084001AD009C3176248031E6
:1009F0002E08C2002D08C100AE313F2680314301D0
:100A0000C1013C08410203187D2D0330F00041086C
:100A1000AE315B268031413E860001308700403F89
:100A20004301C800413FC900423FCA000530F00001
:100A30004108AE315B268031513E8600013087008F
:100A4000C33084000130850005304101EC00160000
:100A50001A00EC0B272DC830E0000130E100C33054
:100A6000E2000130E3009431B02480314301C00042
:100A7000400803193F2D03304006031D7E2EA6308B
:100A8000F300B230F400BE30F500C830F60001309B
:100A9000F700C330F8000130F9009E310F26803195
:100AA000440123084001B000440122084001AF0086
:100AB000440121084001AE00440120084001AD007E
:100AC0009C31762480312E08C2002D08C100AE3141
:100AD0003F26803103304301400603197D2DC3308A
:100AE000FC000130FD00A131D9218031003A031D05
:100AF0007D2D01304301C107012D43013E08031D37
:100B0000AE2D440165084301C80044016608430155
:100B1000C900440167084301CA0044012308430196
:100B2000C600440122084301C500440121084301D5
:100B3000C400440120084301C300A630F300B230D2
:100B4000F400BE30F500C830F6000130F700C330C5
:100B5000F8000130F9009E310F2680314301C101B8
:100B60003E0841020318052E0330F0004108AE3163
:100B70005B268031013EA63E8600013087000108D9
:100B80004201B3000330F00043014108AE315B265F
:100B90008031023EA63E86000130870001084201F6
:100BA000B4000530F00043014108AE315B268031CE
:100BB000B23E4201B5000330F00043014108AE31BE
:100BC0005B268031A63E8600013087000108420185
:100BD000B60033084001E700420134084001E80054
:100BE0004030E900420135084001EA000130EB00E5
:100BF000420136088931022180314301C00040089A
:100C0000031D7E2E0130C107B02D4201D0010230FC
:100C100043013E02031C1F2E35083A02031D1A2E03
:100C200034083902031D1A2E33083802031D1A2E08
:100C30003208370203181F2E01304201D000420152
:100C400050084301C1000530F0004108AE315B2679
:100C50008031B23E4001A0000130A100AC30A200C2
:100C60000130A3009E31B4268031003A031D5D2E71
:100C70004301CA01C901C801C8304001C1000130A7
:100C8000C20043012F084001C60043012E08400165
:100C9000C50043012D084001C40043012C08400158
:100CA000C3009931EF218031013043012F02031835
:100CB0005B2E00300800033008000330F0004301D1
:100CC0004108AE315B268031A63E4001C1000130B3
:100CD000C2000530F00043014108AE315B2680318F
:100CE000B23E860001308700403F4001C300413FD3
:100CF000C400423FC500433FC6008B296530400118
:100D0000C1000230C200440123084001C600440172
:100D100022084001C500440121084001C4004401EB
:100D200020084001C3009931EF2180314301400385
:100D300003199C2E01300800023008000130D10058
:100D40000130D4004C0886004D088700403FDA008F
:100D5000413FDB00423FDC0050080319B82E540825
:100D6000F3005B08AF31C72786314101DB00C02E9D
:100D70005408F3005A08AF31C72786314101DA0021
:100D80004C0886004D08870001085A06031DD12E25
:100D90004C0886004D08870041315B0801060319A5
:100DA000FD2E5B084001E70041015C084001E800BE
:100DB0002030E900D530EA000030EB0041015A084C
:100DC0008931022186314101D20052080319EA2EED
:100DD00052080800D5304001A0000030A1004101B8
:100DE0004F084001A30041014E084001A2009E317E
:100DF000B4268631003A031D052FFE304101D40789
:100E00005408803A813E0318A22E41015408803ACA
:100E1000813E03180D2F003008004C0886004D0855
:100E200087005A08C03F5B08C13F5C08C23FD5300D
:100E30008600003087004E0884004F08850005308A
:100E40004001EC0016001A00EC0B222F0230410189
:100E5000D300530803190B2F4C0886004D08870058
:100E6000403FDA00413FDB00423FDC0050080319FD
:100E7000482F5308F0005408AE315B268631F3004A
:100E800041015B08AF31C72786314101DB00562F96
:100E90005308F0005408AE315B268631F30041015F
:100EA0005A08AF31C72786314101DA004C08860065
:100EB0004D08870001085A06031D672F4C0886005D
:100EC0004D08870041315B0801060319B52F5B0807
:100ED0004001E70041015C084001E8002030E900E2
:100EE000D530EA000030EB0041015A088931022177
:100EF00086314101D2005208031DE82ED530400151
:100F0000A0000030A10041014F084001A3004101B1
:100F10004E084001A2009E31B4268631003A0319E2
:100F2000B52F41014C0886004D0887005A08C03F84
:100F30005B08C13F5C08C23FD530860000308700A7
:100F40004E0884004F08850005304001EC00160073
:100F50001A00EC0BA72F410151080319292F20304B
:100F600053020318292F5335282F4101D10153086B
:100F70004001EC000130EC36890BBB2F6C08272FA9
:100F800071087302031DC62F70087202031CCE2F56
:100F900070087202FA007108733BD32F7208700256
:100FA000FA007308713BFB0071087302031DDA2F0E
:100FB00070087202031CE02F7308FD007208E32F13
:100FC0007108FD007008FC007D08F7007C08F60041
:100FD000F736F60CF736F60CF736F60C740876078B
:100FE000F8007508773DF9007B087902031DFA2F98
:100FF0007A087802031CFE2F013008000030080038
:10100000F20072082C3E8600023087000108700250
:101010000318112872082C3E8600023087007008E1
:1010200081007208283E86000230870071080102A4
:10103000031808007208283E8600023087007108F5
:1010400081000800AF310027883140019711191144
:101050004301EC014001AC014830AD00FA30AE0074
:1010600001309B3188238831AE31792688314401A3
:101070006308031D3E286408031D42284301CD0177
:10108000CE014A286408643E4301CD0000300318B5
:101090000130CE0068304101E8000230E900430130
:1010A0004E084101EB0043014D084101EA00803147
:1010B000982088314301D300530803196C2803306A
:1010C000530603196C2844016808031D6C2869083D
:1010D00003196A0803196E284401E3016308031D1C
:1010E000A32843015308031D7C2844016808031DFD
:1010F00080286908031D80284301CF01D001A02862
:10110000430163089C3ECB00FF30643DCC000130BE
:101110004C02003003194B020318952863089C3ECB
:10112000D100FF30643DD2009928FF30D10000305B
:10113000D2005108CB00CC014B08CF004C08D000A6
:101140004F084401E400AE3127268831430164088A
:101150004401CC00430163084401CB00430164080F
:101160004401CA00430163084401C900A03188203A
:101170008831FF304401EB00FF30EC00430164088C
:101180004001BF00430163084001BE00A2310522B7
:10119000883143015303031DD228FE304001BE00B5
:1011A000F930DA2803305306031DDF28F5304001FB
:1011B000BE00F930BF00D030C0000730EB2802304D
:1011C0005306031DEF284D304001BE00FA30BF002A
:1011D000E830C0000330C100A3315623883190317C
:1011E000002088314001191597154401DB01AE310B
:1011F000C3267308B7007208B6007108B5007008FE
:10120000B40008004101B70040016708F000680819
:10121000F10041013708A131352189317108B6004B
:101220007008B500AA01AB013608F4003508F300D8
:10123000A431762489314101B800B4014030400125
:1012400069060319B42941013808A000A101A0359D
:10125000A10DF030A2002A30A3002008220786004A
:101260002108233D8700403FA400413FA5003608E8
:101270002506031D3D2935082406031DA529380828
:10128000A000A101A035A10DF030A2002830A300DC
:101290002008220786002108233D87001600FF3A18
:1012A000A4001600FF3AA40403197E293808A00000
:1012B000A101A035A10DF030A2002830A300200824
:1012C000220786002108233D8700403FA400413FBC
:1012D000A5002408A6002508A700A801A901083038
:1012E000A635A70DA80DA90D890B70292908AF00F7
:1012F0002808AE002708AD00260885290130AF0078
:101300000030AE000030AD000030AC0040016A0893
:1013100086006B08870041012C08C03F2D08C13FA3
:101320002E08C23F2F08C33F40016A0886006B08A1
:101330008700443141013808F03E840085012E3099
:10134000853D000881000030080044014408460241
:10135000031DAC2943084502031CB02903300800D3
:101360000130C5070030C63D40016708F30068083A
:10137000F4004101370890317E208931AF315D277B
:101380008931003A0319C62901300800B9304001FB
:10139000DC000030DD006908DE00A53192258931CE
:1013A00041014B080319DE290130C8000030C70095
:1013B0000030C6000030C500CA013F2A450152086E
:1013C00041014002031DF4294501510841013F023A
:1013D000031DF4294501500841013E02031DF42973
:1013E00045014F0841013D02031C0E2AB930F000AF
:1013F0000030F1009831DA208931730845014E023E
:10140000031D0C2A72084D02031D0C2A71084C02A0
:10141000031D0C2A70084B020318322A44014E089F
:10142000031D172AE8304101B00003301B2A2C307D
:101430004101B0000130B1000130AA070030AB3DDE
:101440002B083102031D262A2A08300203182A2AF3
:10145000023008000A30F0000030F100AE31892679
:101460008931BE2901304401CE0041014908031DE4
:101470003F2A0130B40703303402031CBE29400167
:101480006A0886006B08870041014508C03F46088E
:10149000C13F4708C23F4808C33F40016A08860071
:1014A0006B088700443141014A0881004030400107
:1014B00069060319A329003044014802FF300319CB
:1014C00047020318A92A41013835F03E86008701FA
:1014D0002A30873D38350030873D3508C03F360813
:1014E000C13F0130480203188A2A41014508A00083
:1014F0004608A1004708A2004808A3000830A33608
:10150000A20CA10CA00C890B7F2A2108B300200893
:10151000B2008F2AFF304101B200FF30B3003835EE
:10152000F03E860087012830873D38350030873D02
:101530003208C03F3308C13F3808F03E86008701BB
:101540002E30873D4A08810001304401C707003032
:10155000C83D230841014802031DBE2A4401220858
:1015600041014702031DBE2A4401210841014602F0
:10157000031DBE2A44012008410145020318A32986
:10158000B9308600003087004C31403F4401A00054
:10159000413FA100423FA200433FA3004101370861
:1015A0004401E500400167084401E6004001680885
:1015B0004401E700A3290130C3000030C40000301B
:1015C000C5000030C6004108C7004208C800C90174
:1015D000CA013B08CB003C08CC00CD01CE014B0832
:1015E000C7074C08C83D4D08C93D4E08CA3D4708CD
:1015F000C3074808C43D4908C53D4A08C63D0130F7
:10160000C636C50CC40CC30C890B002B39088600E8
:101610003A0887004308C03F4408C13F0130C30077
:101620000030C4000030C5000030C6003F08C700CD
:101630004008C800C901CA013D08CB003E08CC00E3
:10164000CD01CE014B08C7074C08C83D4D08C93D28
:101650004E08CA3D4708C3074808C43D4908C53D70
:101660004A08C63D0130C636C50CC40CC30C890BF4
:10167000332B39088600870142314308C03F4408B4
:10168000C13F390886003A088700403FC300413F08
:10169000C4004308F0004408F100F201F3014501E1
:1016A00046084001C500C601C701C8014808F70047
:1016B0004708F6004608F5004508F400A2318D22DF
:1016C0008A3173084001D7007208D6007108D5002E
:1016D0007008D400390886003A088700403FC300EC
:1016E000413FC4004308F4004408F500F601F70147
:1016F000390886003A088700403FC500413FC600D0
:101700004508F0004608F100F201F301A2318D22F4
:101710008A3170084001C7007108C8007208C9000A
:101720007308CA000630CA36C90CC80CC70C890B2E
:10173000932B4A08DB004908DA004808D90047081B
:10174000D8005708F3005608F2005508F100540875
:10175000F0000030F7000030F6000030F5001930DE
:10176000F400A2318D228A3170084001C300710853
:10177000C4007208C5007308C6000130C636C50C27
:10178000C40CC30C890BBE2B0030A3000030A20098
:101790000030A1006430A0005B08F3005A08F2009A
:1017A0005908F1005808F00045014708643EF4006C
:1017B000003003180130F500F601F51BF60376083A
:1017C000F700A2318D228A3173084001A700720808
:1017D000A6007108A5007008A400A7315D278A3112
:1017E0002008C3072108C43D2208C53D2308C63D83
:1017F00039088600870144314308C03F4408C13F8F
:101800004508C23F4608C33F390886008701423178
:10181000403FC300413FC4004308F0004408F100CA
:10182000F201F301450146084001C500C601C701A8
:10183000C8014808F7004708F6004608F5004508C3
:10184000F400A2318D228A3173084001D70072085A
:10185000D6007108D5007008D400390886008701C9
:101860004231403FC300413FC4004308F4004408F4
:10187000F500F601F7013908860087014231403F43
:10188000C500413FC6004508F0004608F100F201DE
:10189000F301A2318D228A3170084001C70071081E
:1018A000C8007208C9007308CA000630CA36C90CDD
:1018B000C80CC70C890B562C4A08DB004908DA0013
:1018C0004808D9004708D8005708F3005608F20026
:1018D0005508F1005408F0000030F7000030F60021
:1018E0000030F5001930F400A2318D228A317008E1
:1018F0004001C3007108C4007208C5007308C60027
:101900000130C636C50CC40CC30C890B812C0030C9
:10191000A3000030A2000030A1006430A0005B08EA
:10192000F3005A08F2005908F1005808F000450188
:101930004708643EF400003003180130F500F6015A
:10194000F51BF6037608F700A2318D228A31730861
:101950004001A7007208A6007108A5007008A40045
:10196000A7315D278A312008C3072108C43D22081A
:10197000C53D2308C63D3908860087014831430824
:10198000C03F4408C13F4508C23F4608C33F39082D
:10199000860087014431403FF000413FF100423F63
:1019A000F200433FF3003908860087014831403F89
:1019B000F400413FF500423FF600433FF700993104
:1019C00091218A313908860087014C317008C03F67
:1019D0007108C13F7208C23F7308C33FD1013C0880
:1019E000F1003B08F0004208F3004108F200183013
:1019F000F4000030F5008731C0278A31003A03191E
:101A0000152D3E08F1003D08F0004008F3003F08A6
:101A1000F2001830F4000030F5008731C0278A3119
:101A2000003A0319152D0130D100390886008701CD
:101A30005031510881003E08AE003D08AD0040081D
:101A4000B0003F08AF00A63175268A312D08C300CB
:101A50002E08C4003C08AE003B08AD004208B000B0
:101A60004108AF00A63175268A312D084307D20000
:101A70002E08443DD30001305302003003195202B6
:101A80000318492D5208C300C4014308CF0044087D
:101A90004C2DFF30CF000030D00039088600870180
:101AA00051314F0881000800A331FC238D314301DF
:101AB000DD01500193181318602D01304301DD0042
:101AC00043015D08DC00AF3191278D31AE316A26CC
:101AD0008D31983184208D319B3115238D319A3190
:101AE000B1228D31003A0319862D5D08E8005E08A9
:101AF000E9005F08EA0043015C08031D912D4401E1
:101B00005E08F3005F08F4005D088E2DE301E40138
:101B1000E201E101E001F301F401003090317E20A7
:101B20008D3144016408031D982DCB01CC019F2DFC
:101B30006408643ECB00003003180130CC00400143
:101B40001915AF312C278D31A33122238D3150014E
:101B50000C14AE31C3268D3173084301E2007208C4
:101B6000E1007108E0007008DF0062084501E20052
:101B7000430161084501E100430160084501E000BF
:101B800043015F084501DF006208E6006108E500E7
:101B90006008E4005F08E30066084401BB004501FB
:101BA00065084401BA00450164084401B9004501D3
:101BB00063084401B8003B08BF003A08BE0039087A
:101BC000BD003808BC006400AE31C3268D317308F7
:101BD0004301E2007208E1007108E0007008DF00D4
:101BE0009F3159278D314301DE005E080319392EDC
:101BF000A03101208D31003A031D392E05305E06DB
:101C00000319392E03305E060319392EAF31002730
:101C10008D314301DE01392EAF3100278D31440172
:101C20006308031D152E0130162E00309A314E2206
:101C30008D314A2E883122208D314A2EAF31002736
:101C40008D31D8304001C600F930C700DC30C80003
:101C50000530C900AF3144278D31A53100258D31C4
:101C60004A2EAF3100278D3101309A314E228D310D
:101C70004A2E5E08013A03190C2E033A03191A2E54
:101C8000013A03191E2E073A0319312E013A03199E
:101C90001A2E4A2E4401380843015F02D400440141
:101CA00039084301603BD50044013A084301613BD8
:101CB000D60044013B084301623BD7005708031D8F
:101CC0006B2E5608031D6B2E5508031D6B2E3230EC
:101CD0005402031C7E2E430162084401BB004301F1
:101CE00061084401BA00430160084401B90043019E
:101CF0005F084401B800963149268D3144015A08E5
:101D00000319862EDA01883122208D3145016308BE
:101D100043015F02D400450164084301603BD500E4
:101D2000450165084301613BD60045016608430152
:101D3000623BD7005708031DA72E5608031DA72E88
:101D40005508031DA72E96305402031CBA2E4301DA
:101D500062084501E600430161084501E5004301D1
:101D600060084501E40043015F084501E300A0313C
:101D7000EC208D3144013C0843015F02D400440152
:101D80003D084301603BD50044013E084301613BEF
:101D9000D60044013F084301623BD7005708031DAA
:101DA000DA2E5608031DDA2EB83054020B30553B9C
:101DB000031CED2E430162084401BF00430161088A
:101DC0004401BE00430160084401BD0043015F08B7
:101DD0004401BC00A63128268D3144015C0803195A
:101DE000172F45015B0843015F02D40045015C08E1
:101DF0004301603BD50045015D084301613BD600CE
:101E000045015E084301623BD7005708031D122FAE
:101E10005608031D122F5508031D122F1E305402A1
:101E2000031C172F4401DC014001971517164301CD
:101E30006C0803193A2F440133083204310430048A
:101E400003193A2F300843015F02D40044013108DE
:101E50004301603BD500440132084301613BD60099
:101E6000440133084301623BD700D71B3A2FAE3100
:101E7000D7268D3145015F0843015F02D40045013B
:101E800060084301603BD500450161084301613BA7
:101E9000D600450162084301623BD7005708031D85
:101EA0005A2F5608031D5A2F303054027530553BB7
:101EB000031C6D2F430162084501E20043016108E4
:101EC0004501E100430160084501E00043015F086E
:101ED0004501DF00903100208D31A03101208D318E
:101EE000003A0319B82F45013F080319B82F3F08DE
:101EF0004301D400D501D601D7015708F300560895
:101F0000F2005508F1005408F0000030F7000030EE
:101F1000F600EA30F5006030F400A2318D228D31F8
:101F20004401340843015F02D800440135084301ED
:101F3000603BD900440136084301613BDA004401AB
:101F400037084301623BDB0073085B02031DB22FBD
:101F500072085A02031DB22F71085902031DB22FD5
:101F600070085802031CB82F0030A03109208D31B1
:101F7000450140080319FC2F40084301D400D50156
:101F8000D601D7015708F3005608F2005508F100B2
:101F90005408F0000030F7000030F600EA30F50099
:101FA0006030F400A2318D228D31440134084301A8
:101FB0005F02D800440135084301603BD900440169
:101FC00036084301613BDA00440137084301623BB4
:101FD000DB0073085B02031DF72F72085A02031D12
:101FE000F72F71085902031DF72F70085802031CC0
:101FF000FC2FA53100258D31A3318D238D31E32DAB
:10200000AE31EB260800A701A60140012708203EBB
:10201000860087010A30F0000030F1007808F300F4
:102020007708F200A131AF2190317008303E810075
:102030000130A7070A30F0000030F1007808F30003
:102040007708F200A231BC2290317108F8007008C4
:10205000F70027087906031D35282708203E86004B
:1020600087012E3081000130A70777087804031D0F
:102070000528790803195A287908013EFB00003029
:1020800003180130FC007C08803AFD0080307D029E
:10209000031D4C2827087B02031C5A280528260804
:1020A000E73E860002308700203081000130A6071D
:1020B0000130FA027A08400127020318732807301A
:1020C0002602031873284F282608E73E86000230B0
:1020D00087000130A7022708203E84008501000800
:1020E00081000130A6072708031D64282608E73E63
:1020F0008600023087008101E7300800F8004501C2
:102100004108F7000E3043016E02D93003196D0209
:1021100003188C280130F707781891284001991787
:10212000932840019913F8189828400119179A2804
:102130004001191378199F2840019916A1284001E0
:102140009912F819A62840011916A8284001191259
:10215000781AAD2840019817AF2840019813F81A53
:10216000B42840011817B62840011813781BBB2863
:1021700040019816BD28400198127318C2284001EA
:102180009616C42840019612F318C92840019A14E3
:10219000CB2840019A107319D02840019617D228F5
:1021A00040019613F319D72840011617D92840018A
:1021B0001613731ADE2840011814E0284001181085
:1021C000F31AE52840019814E72840019810731B82
:1021D000EC2840011815EE28400118117408031965
:1021E000F42840011A14F62840011A1099157708AE
:1021F000F500F6017508F0007608F100AE31892689
:102200009031400199111A30890B042900324001A4
:1022100018127708F500F6017508F0007608F1004D
:10222000AE3189269031400118167708F500F60185
:102230007508F0007608F100AE31892690310F3034
:10224000400199051830980596129A1096131613A6
:102250001A100530F0000030F100AE3189269031BF
:1022600078087F394401E80073087F39E900740871
:1022700003193C2901303D290030EA000800B20072
:10228000BA013A08A1315C21913100304001B70018
:102290000030B6000030B5000030B400B3017C0857
:1022A000330203188529320841019E003530890B1D
:1022B000572900004101131413185C290D0840012F
:1022C000B90041010C084001B80003303902E9307F
:1022D00003193802031C702902303A06031D8529B0
:1022E00003303902FF3003193802031C7A29013008
:1022F0004401D30040013808B4073908B53D003027
:10230000B63DB73D0130B3074F2933087C060319AA
:10231000CF290130BA0741290330B435B50DB60DC8
:10232000B70D890B8D29D7290430B435B50DB60DFD
:10233000B70D890B9529D72943016D08F0006E0868
:10234000F100F201F30140013708F7003608F6000A
:102350003508F5003408F400A2318D22913170085F
:102360004001AD007108AE007208AF007308B00004
:102370000A30B036AF0CAE0CAD0C890BB929033066
:10238000AD35AE0DAF0DB00D890BC0293008B700CB
:102390002F08B6002E08B5002D08B400D7293A083A
:1023A000003A03198C29013A031994299C297C08C5
:1023B000AD00AE01AF01B0013008A3002F08A200AC
:1023C0002E08A1002D08A0007C08B1000130B13614
:1023D000890BE72931083407A40035080318350FA5
:1023E0000310A50036080318360F0310A60037089F
:1023F0000318370AA700A7315D272108FD00200830
:10240000FC000800FD007308A0000330A036890B13
:10241000062A2008FC0073080739FB000130A000E1
:10242000750A132AA035890B122A2008FF3EFA00EC
:102430007A08A000A1017B0A1F2AA035A10D890BF3
:102440001D2A2008F6002108F70074087A05A0006C
:10245000A1017B0A2D2AA035A10D890B2B2A20086A
:10246000F8002108F90080307D02031808000430CC
:102470007C020318772A7C08A000A1010730A03550
:10248000A10D890B3F2AF030A2002C30A3002008B8
:102490002207A4002108233DA5007D08240786000B
:1024A0000030253D87007C08A600A7010730A6352F
:1024B000A70D890B572AF030A8002C30A900260858
:1024C0002807AA002708293DAB007D082A078400B9
:1024D00000302B3D850076090005780481007D08D9
:1024E000F0007D08F1007C088831002092317B08E3
:1024F000031908007C08013EA000003003180130D9
:10250000A1002108803AA20080302202031D8A2AFD
:1025100004302002031808007C084001A000A1013B
:102520000730A035A10D890B912A7030A2002D3003
:10253000A30020082207A4002108233DA5007D0850
:10254000240786000030253D87007C08A600A701EF
:102550000730A635A70D890BA92A7030A8002D30A9
:10256000A90026082807AA002708293DAB007D08F6
:102570002A07840000302B3D850077090005790487
:1025800081007D08F0007D08F1007C08013E883163
:1025900000200800430165084001A300003043010A
:1025A0006402C9300319630203180800440140089B
:1025B00003194108031908004001A401230824025B
:1025C00003181E2B0330F0002408AE315B26923135
:1025D000223E860003308700010844014206031DA5
:1025E0001A2B4008F3000330F00040012408AE31FC
:1025F0005B269231203E8600033087000108A0311F
:10260000A9209231003A03191A2B44014108F30022
:102610000330F00040012408AE315B269231213EA8
:102620008600033087000108A031A9209231003ACA
:10263000031D1E2B01304001A407DE2A400124089F
:102640002306031D292B0C3023020318292B0130EC
:10265000A30724082306031D302B2308FF3EA400F4
:102660002408A20022080319662B0330F000220878
:10267000AE315B2692311D3E860003308700403F1D
:10268000F900413FFA00423FFB000330F0004001F7
:102690002208AE315B269231203E8600033087004F
:1026A0007908C03F7A08C13F7B08C23F4001220839
:1026B000B33E8600023087002208B23E840002301A
:1026C0008500000881000130A202322B440140083D
:1026D0004601A000440141084601A100440142080E
:1026E0004601A200430163089C3EF900FF30643DAF
:1026F000FA0001307A020030031979020318892B9D
:1027000063089C3E4001A000FF304301643D40014E
:102710008D2BFF304001A0000030A10020084501B2
:10272000B300400123084301E50001304401D20019
:10273000080044014D08031DB12B40016C088600C0
:102740006D08870001084101CC000230CC36890BAE
:10275000A62B4C08CD00CE014D08CF004E08D0006E
:10276000B62B01304101CF000030D0004F08D60019
:1027700044014D08031DD12B40016C0886006D08F3
:102780008700413101084101CC000230CC36890B71
:10279000C62B4C08CD00CE014D08D1004E08D2000A
:1027A000D62B01304101D1000030D2005108D700B2
:1027B0005608031DDD2B0130D6005708031DE22B00
:1027C0000130D700D301D50140016C0886006D08A7
:1027D0008700403F4101DD00413FDE00423FDF0016
:1027E0005608F0005508183E8400FA300318013EE0
:1027F00085000008AE315B269331F30040016C0880
:1028000086006D0887000108AF31C7279331410169
:10281000DD005708F0005508103E8400FA30031818
:10282000013E85000008AE315B269331F300400184
:102830006C0886006D08870041310108AF31C72759
:1028400093314101DE0040016C0886006D0887006D
:10285000010841015D06031D382C40016C0886000B
:102860006D088700413141015E08010603197E2C85
:102870005E084001E70041015F084001E8002030A8
:10288000E900D830EA000030EB0041015D088931F1
:10289000022193314101D40054080319512C5408EA
:1028A0000800D8304001A0000030A1006F08A3004C
:1028B0006E08A2009E31B4269331003A03197E2C93
:1028C0006C0886006D08870041015D08C03F5E0806
:1028D000C13F5F08C23FD83086000030870040010A
:1028E0006E0884006F08850005304101CC00160099
:1028F0001A00CC0B772C0130D300E42B01304101BE
:10290000D50708305502031CE42B5308031DE22BA6
:102910005603031D902C5703031D902C0030080014
:102920000230F0000030F1005608013EF2000030A5
:1029300003180130F300A631C22693317008D60087
:102940000230F0000030F1005708013EF200003084
:1029500003180130F300A631C22693317008E12B31
:1029600061084001ED00410160084001EC004101B7
:1029700063084001EF00410162084001EE0093311D
:10298000992394314201AA002A080319C92C2A0864
:102990000800A9012908031DD42C41016008860004
:1029A000610887004131D92C410160088600610827
:1029B00087000108E400E50164084201A00041012C
:1029C00065084201A1002008A60044014D08031D2E
:1029D000FC2C420126084101E4000230E436890B58
:1029E000EE2C6408E500E60165084201A200410101
:1029F00066084201A300012D01304201A20000300F
:102A0000A3002208A6000230260203180C2D013074
:102A1000A4000030A500172D26084101E400E501BF
:102A200064084201A400410165084201A500240890
:102A3000A7000130A80041016008860061088700F6
:102A4000403F4201B000413FB100423FB20029087F
:102A50000319392D2708F0002808AE315B26943180
:102A6000F30042013008AF31C72794314201B00072
:102A7000472D2708F0002808AE315B269431F3007B
:102A800042013108AF31C72794314201B100410101
:102A90006008860061088700010842013006031DB6
:102AA0005C2D4101600886006108870041314201C8
:102AB000310801060319B72D31084001E700420132
:102AC00032084001E8002030E9002B30EA000130F4
:102AD000EB00420130088931022194314201AA0001
:102AE0002A08031DC72C30304101CC000130CD0035
:102AF0002B30CE000130CF00420129084101D00027
:102B000086319E2694314201AA002A08031DC72C53
:102B10002B304001A0000130A100410163084001B9
:102B2000A300410162084001A2009E31B426943105
:102B3000003A0319B72D410160088600610887003B
:102B400042013008C03F3108C13F3208C23F2B303C
:102B50008600013087004101620884006308850017
:102B60000530E40016001A00E40BB22DB02CFE3044
:102B70004201A8072808803A813E03181B2D023025
:102B80002702031CCD2D27084101E4000130E43663
:102B9000890BC72D64084201182D0130A9070230A6
:102BA0002902031CCA2C41016008860061088700C5
:102BB000403F4201B000413FB100423FB20001300E
:102BC000B20631084001E700420132084001E80046
:102BD0002030E9002B30EA000130EB0042013008E0
:102BE0008931022194314201AA002A08031DC72C11
:102BF00041016208860063088700403FE400413FCE
:102C0000E500423FE600433FE7000130E435E50DD3
:102C1000E60DE70D890B062E670842012E02031D03
:102C2000212E4101660842012D02031D212E410182
:102C3000650842012C02031D212E41016408420156
:102C40002B020318472E30304001EC000130ED001C
:102C50002B30EE000130EF00933199239431420183
:102C6000AA002A08031DC72C2B304001A000013008
:102C7000A100410163084001A30041016208400135
:102C8000A2009E31B4269431003A031D9B2D0030E2
:102C90000800AE31C326963173084101A3007208C3
:102CA000A2007108A1007008A000AA304001DC0059
:102CB0000030DD000430DE00A5319225963141015F
:102CC0003C080319732E43016C08031D732EEC306E
:102CD0004001BE00F930BF00D030C0000730C10055
:102CE000A33156239631AA30860000308700443144
:102CF000403F4001AD00413FAE00423FAF00433F87
:102D0000B000AF31AC2796312E084101A50040013B
:102D10002D084101A400240825040319922EAF3187
:102D2000002796314501270841013102031DA82ED5
:102D30004501260841013002031DA82E4501250842
:102D400041012F02031DA82E4501240841012E0236
:102D50000318EC2E450148084001E700E801E901AD
:102D6000EA016A08F3006908F2006808F1006708E0
:102D7000F0000030F7000030F6000030F5000A30B7
:102D8000F400A2318D2296314501570841012002FD
:102D90004001EB00450158084101213B4001EC0096
:102DA000450159084101223B4001ED0045015A0807
:102DB0004101233B4001EE0073086E02031DEA2E21
:102DC00072086D02031DEA2E71086C02031DEA2EC3
:102DD00070086B02031C0B2FAA308600003087009E
:102DE000A03084000230850013304001E700160057
:102DF0001A00E70BF72E410123084501DA004101D3
:102E000022084501D900410121084501D8004101AE
:102E100020084501D700AA308600003087004C31D9
:102E2000403F4001AD00413FAE00423FAF00433F55
:102E3000B0009C31762496312E084101A900400152
:102E40002D084101A800450142084001E700E801C2
:102E5000680841012502031D312F40016708410127
:102E60002402031C3A2F29084401CA004101280802
:102E70004401C90045014408F63EF000FF30031844
:102E80000030F1000A30F2000030F300AF31762755
:102E9000963171084101A7007008A6004501450858
:102EA0000319FD2F44016308031DFD2F450142084E
:102EB0004001E700E801680841012502031D642F75
:102EC0004001670841012402031CFD2F450143080E
:102ED0004001E700E801E901EA016A08F300690836
:102EE000F2006808F1006708F0000030F7000F30CA
:102EF000F6004230F5004030F400A2318D229631C8
:102F000070084001EB007108EC007208ED007308D6
:102F1000EE00AA30F0000030F1009831DA2096314E
:102F2000730840016E02031D9F2F72086D02031D7E
:102F30009F2F71086C02031D9F2F70086B02031CEA
:102F4000FD2F41013A080319FD2F00302902793085
:102F500003192802031CFD2F260844014B074001DA
:102F6000E7004101270844014C3D4001E8004101D0
:102F7000290840016802031DC12F410128084001B2
:102F80006702031CF32F4101260828074001E700D0
:102F900041012708293D4001E80044014C08400157
:102FA0006802031DD72F44014B0840016702031C30
:102FB000F32FE730E7000330E80041012608400125
:102FC0006702E900410127084001683BEA0041012E
:102FD000290840016A02031DF12F41012808400120
:102FE00069020318FD2F01304401DB0704305B0246
:102FF000031C08000130DA0008004401DB0108006E
:10300200A131852198311C304001AC002F30AD0038
:10301200FA30AE0000309B31882398311F30AC006B
:10302200C230AD00F930AE000230A53148259831EA
:103032000D30AC007C30AD00F930AE000330A5316C
:1030420048259831AE317926983140019711B83030
:10305200F0000B30F100AE318926400197150800CF
:1030620044016E0840013F06031D3B2844016D08E0
:1030720040013E06031908003F084401EE004001EA
:103082003E084401ED00003040013F026430031964
:103092003E02031860283C30AC003F08F8003E08AE
:1030A200F700F901F90A0330FA0090310320983150
:1030B200AD000230AE0000309B31882308000A3098
:1030C200F0000030F1003E08053EF20000303F3DC6
:1030D200F300A231BC2298317108C1007008C0000F
:1030E2003C30AC004108F8004008F700F901033019
:1030F200FA00903103209831AD000230AE0000306A
:103102009B31882308004001A601A7010030A131AC
:103112005C2198314001A801093041019E003530FF
:10312200890B9128000041011314131896280D08E9
:103132004001A50041010C084001A4002408A60793
:103142002508A73D0130A80708302802031C8D2856
:103152000430A0000030A1000030A2000030A30023
:103162002608F0002708F100F201F3010030F70011
:103172000030F6000030F5000B30F400A2318D2251
:10318200983170084001A0077108A13D7208A23D64
:103192007308A33D0330A336A20CA10CA00C890B2B
:1031A200CC2821084301EE00400120084301ED0034
:1031B20008007008860087014431403FF400413F17
:1031C200F500423FF600433FF70070088600870192
:1031D2004831403FF800413FF900423FFA00433F87
:1031E200FB0077087B02031D002976087A02031D83
:1031F200002975087902031D002974087802031C4E
:103202000B290030F3000030F2000030F1000030F2
:10321200F00008007008860087014831403FF40042
:10322200413FF500423FF600433FF7007008860039
:1032320087014431403FF800413FF900423FFA0024
:10324200433FFB007408F8027508F93B7608FA3B25
:103252007708FB3B7B08F3007A08F2007908F1005B
:103262007808F00008004001AF002F082C3E8600CD
:10327200023087000108AE002F08283E8600023087
:1032820087000108AD002F082C3E8600023087001F
:10329200FF3081002F08283E86000230870081011E
:1032A2002E082D02031C08002E08F7002F08A50087
:1032B200A6010730A535A60D890B5B29F030A700C2
:1032C2002C30A80025082707A9002608283DAA00B7
:1032D2002E082907AB0000302A3DAC002B08F8006D
:1032E2002C08F9002E082D02013EFA002F08A43105
:1032F20035249931003A03198E29AE31EB269931E2
:1033020001304401D50705305502031C8B290130D9
:10331200D4000800A031282008004401D50108008B
:103322000030FB000030FA000030F9000030F800F5
:1033320073087204710470040319AF2973087702C9
:10334200031DAD2972087602031DAD2971087502AD
:10335200031DAD2970087402031CB8290130F30063
:103362000030F2000030F1000030F0000800FC01F3
:103372000130F435F50DF60DF70D890BBA29013040
:10338200F835F90DFA0DFB0D890BC1297308770287
:10339200031DD52972087602031DD529710875020D
:1033A200031DD52970087402031CE0297008F40279
:1033B2007108F53B7208F63B7308F73B781401304D
:1033C200FC0718307C02031CB9297B08F3007A0839
:1033D200F2007908F1007808F00008004108860040
:1033E20042088700403F4401C000413FC100423FC4
:1033F200C2000130400143020030443B0030453BF3
:103402000130463B0318152A400146084501D60003
:10341200400145084501D500400144084501D4005A
:103422004001430845011D2A01304501D600003004
:10343200D5000030D4000030D30056084001B0005F
:10344200450155084001AF00450154084001AE0056
:10345200450153084001AD009C31762499312E0874
:103462004301E40040012D084301E300400141080B
:1034720086004208870041310108F30041088600B6
:103482004208870042310108F400410886004208E0
:103492008700010890317E2008004001CB004B08D4
:1034A2000319632A44016308031D632A6808E000C4
:1034B2006908E1006A08E2000130E300F301F40167
:1034C2000030712A40014B08031D080044016308C3
:1034D20003190800E3016108F3006208F4006008C0
:1034E20090317E209A31AE3127269A314401630809
:1034F200031D922A6408031D822A4001C701C801E4
:103502008A2A6408643E4001C70000300318013073
:10351200C80048084401CC00400147084401CB00E0
:10352200942ACB01CC01A03188209A31440163084E
:10353200031DA02A3D304001C900FA30A42A3630CA
:103542004001C900FA30CA004A08BF004908BE005B
:103552002030C0000330C100A3315623DB01080034
:103562004001A901A801AA01AB012030F8002B08F3
:10357200A23132229A31003A0319D12A4001290894
:103582000319CB2A2008FD002808FD0280307D02A5
:103592000318D12A2008A8002B08AA000130A9008C
:1035A20001304001AB0710302B02031CB62A290858
:1035B200031DE12A0F304401D100D0010030080080
:1035C2002030F8002A08A23132229A3140012A081A
:1035D2004401D100400120084401D0005D30F300D5
:1035E2000230F40040012108F5002208F600AF3154
:1035F200E3279A31400123080319012B0130022BE2
:1036020000304401E3006030F3000230F400400176
:103612002408F5002508F600AF31E327400126080B
:103622004401E40001300800E5014401D2014001F7
:10363200C6014608203E860087014608303EAE316C
:103642001B269B31810001304001C607263046020D
:10365200031C1A2BA7302006031D08000D3021027F
:10366200031808005630AE311B269B31F80020307B
:10367200F0002630F100A2315F229B317806031D53
:1036820008004001C6010330F0004608AE315B2657
:103692009B31203EF3000330F4000330F000400180
:1036A2004608AE315B269B31023E203E86008701F2
:1036B2000108F5000330F00040014608AE315B26F8
:1036C2009B31033E203E860087010108F600AF31A0
:1036D200E3279B3140014608B33E86000230870053
:1036E2000330F0004608AE315B269B31043E203E9B
:1036F200840085010008810001304001C6070C30BA
:103702004602031C442B21084301E5000800B400D3
:103712003408031D8F2BB501B601932B1230B5006F
:103722000030B6003508BB002D0884002E08850045
:103732001200031908002D0884002E0885000008D5
:10374200A03168209B3177084001B3007608B200AF
:10375200BD010A303D02031CB12BB701B801C52BD4
:103762003D08AF000130AF36890BB42B2F0832076A
:10377200840033080318013E85000008B000B1013F
:103782003008B7003108B8003708BC003C080F39D0
:10379200A03148209B31B9003C08AF000430AF365D
:1037A200890BD02B2F08A03148209B31BA003B084F
:1037B200F3003908F4000830F5002C083D07923177
:1037C20002229B3140013B08083EF3003A08F40014
:1037D2000830F5002C083D07923102229B3101305E
:1037E2004001BD070C303D02031CAA2B0130AD077E
:1037F2000030AE3D0C30AC07952B44015208031942
:103802000800D201A7304001A00043016508400131
:10381200A100C6010330F0004608AE315B269B31A1
:10382200023E203E860087010330F0004001460838
:10383200AE315B269B31203E8400033085000008B8
:1038420081000330F00040014608AE315B269B3117
:10385200203EF3000330F400AF3115279B31FB000B
:103862000330F00040014608AE315B269B31033E37
:10387200203E860087017B0881000330F000400172
:103882004608AE315B269B31043E203E860087010E
:1038920040014608B33E84000230850000088100E2
:1038A2000130C6070C304602031C0B2CC601460829
:1038B200203E860087010108F8004608303EA1310B
:1038C2000F219B3101304001C60726304602031CFE
:1038D200582C2030F0002630F100A2315F229B31BB
:1038E200F8005630A1310F2108003008F3002F08EC
:1038F200F2002E08F1002D08F0009D3176259C3152
:103902007108C0007008BF00103040020030031977
:103912003F02031C922CE7304001AD000330AE00A1
:1039220008000030B1001030B2003F083102A000A0
:103932004008323BA100A201A3010030B3001030C5
:10394200B4003F083302B5004008343BB600B63637
:10395200B50C3508B7003608B800B901BA013F08FE
:10396200003EF0001030403DF100F201F301003062
:10397200F7000030F6000030F5006430F400A231A8
:103982008D229C3170084001B7077108B83D72085A
:10399200B93D7308BA3D3A08A7003908A6003808AD
:1039A200A5003708A400A7315D279C312308BE007B
:1039B2002208BD002108BC002008BB003E08031DF0
:1039C2008C2C3D08031D8C2CE8303B0203303C3B21
:1039D20003188C2C40013C08AE003B08AD000800E7
:1039E2000B302E02B83003192D020318FC2CB8300C
:1039F200AD000B30AE0010302E02693003192D02DB
:103A0200031C072D6830AD001030AE000030A3005B
:103A12000030A2000430A100B030A0002D08483EC2
:103A2200F000F4302E3DF100F201F3010030F70016
:103A32000030F6000030F5001A30F400A2318D2279
:103A42009C3173084001A7007208A6007108A50006
:103A52007008A400A7315D279C312008B0007330A4
:103A6200B200B301B101B4013308AF000330AF3586
:103A7200890B382D2F083407F0003008F100320886
:103A8200A531DC259C31003A0319512D013040014A
:103A9200AF00340A4D2DAF35890B4C2D2F08B104E0
:103AA20001304001B40708303402031C352D3308BD
:103AB200AF000330AF35890B5B2D2F08F3003108BF
:103AC200F4000830F5003208923102229C310130B4
:103AD2004001B30704303302031C332D0130B20717
:103AE2007E30320203180800322D0030A30000306D
:103AF200A2000030A1000030A0004030A70000303A
:103B0200A6000030A5000030A40027087302031DA0
:103B1200942D26087202031D942D25087102031D9F
:103B2200942D240870020318042E0230A736A60C26
:103B3200A50CA40C890B972D862D20082407F400D0
:103B42002108253DF5002208263DF6002308273DE1
:103B5200F70077087302031DB82D76087202031D61
:103B6200B82D75087102031DB82D74087002031C6C
:103B7200F62D20082407F4002108253DF50022082F
:103B8200263DF6002308273DF7007408F002750869
:103B9200F13B7608F23B7708F33B2408F400250852
:103BA200F5002608F6002708F7002008F80021088B
:103BB200F9002208FA002308FB000130FB36FA0C58
:103BC200F90CF80C890BDF2D7808F4077908F53D1C
:103BD2007A08F63D7B08F73D7708A3007608A20035
:103BE2007508A1007408A000FD2D0130A336A20CB7
:103BF200A10CA00C890BF72D0230A736A60CA50C40
:103C0200A40C890BFE2D2708260425042404031D79
:103C12009E2D2108F1002008F0000800750886009A
:103C2200013087000230010203181F2E750886003A
:103C3200013087000108810AFA007E2E740886008E
:103C420001308700403F4001A000413FA100423FB8
:103C5200A200433FA3007408053E8600013087009E
:103C6200403FA400413FA500423FA600433FA700BA
:103C720023082702031D472E22082602031D472E72
:103C820021082502031D472E20082402031C4B2E67
:103C920001304C2E0030FA000530F0007A08AE31C7
:103CA2005B269E3174074001A00020088600013087
:103CB2008700403FA100413FA200423FA300433F93
:103CC200A4007808860079088700403FA500413F9C
:103CD200A600423FA700433FA80024082802031D74
:103CE2007C2E23082702031D7C2E22082602031D98
:103CF2007C2E210825020318080076088600770822
:103D02008700403F4001A000413FA100423FA20086
:103D12000330F0007A08AE315B269E317307400112
:103D2200A30023088600013087002008C03F210835
:103D3200C13F2208C23F7808860079088700053013
:103D4200F0007A08AE315B269E3174074001A00074
:103D520020088400013085000530A10016001A00F9
:103D6200A10BAF2E0800FF30A400FF30A500FF30EA
:103D7200A6001F30A70022088600230887004431CE
:103D82002008840021088500043100080107A800EA
:103D9200A901A90D290DA90CA80C290DA90CA80C83
:103DA2002808AA002908AB000030AB1BFF30AC008A
:103DB200AD002A08A4052B08A5052C08A6052D0888
:103DC200A70501302407B4000030253DB5000030BE
:103DD200263DB6000030273DB700220886002308A2
:103DE2008700403FA400413FA500423FA600433F59
:103DF200A7004030A8000030A9000030AA0000301F
:103E0200AB002008860021088700403FAC00413FFC
:103E1200AD00423FAE00433FAF00220886002308B8
:103E22008700403FB000413FB100423FB200433FF4
:103E3200B3000830B336B20CB10CB00C890B1B2F97
:103E42003308F3003208F2003108F1003008F000C4
:103E52003708F7003608F6003508F5003408F40094
:103E6200A2318D229E3170084001AC077108AD3D30
:103E72007208AE3D7308AF3D2C08A8072D08A93D76
:103E82002E08AA3D2F08AB3D27082B02031D532FF6
:103E920026082A02031D532F25082902031D532F2A
:103EA200240828020318572F0130080000300800A8
:103EB200430168080319622F6808F400E8017408D6
:103EC20008008B136B08F10044015908F300D90173
:103ED20043016A08F00044015808F200D8018B1728
:103EE200F40173080319952F43016908031D7F2FFD
:103EF200FA307302031C7F2F0330902F6908031DD1
:103F0200882F19307302031C882F0230902F690802
:103F1200031D912F03307302031C912F0130F40013
:103F22004401D7014301E90119307102031CA72F93
:103F320043016908031DA72F0130E9007408031922
:103F4200A52F0230E800A72F0230F400FA307102E8
:103F5200031CBA2F44015708031DBA2F0130D700A2
:103F620074080319B82F03304301E800BA2F033055
:103F7200F40072080319D32F02307202031CD12FEE
:103F82000A3072020318D12F43016808031DD12F92
:103F920074080319CF2F0430E800D12F0430F40045
:103FA2004401D60114307002031CED2F440156085F
:103FB200031DED2F40010F1DED2F01304401D600EE
:103FC2007408031DE72F0530F400ED2F4301680844
:103FD200031DED2F0530E8007108031DF72F73084C
:103FE200031DF72F4401D7014301E9017008031DA6
:0E3FF200602F7208031D602F4401D601602F5E
:10400200430167080800FF34FF34FF34FF34FF34F4
:10401200FC007C08031D142840011612961116118B
:104022004301E701080040011616C830F0000030D5
:10403200F100AE318926A0314401D501A7310F2705
:10404200A03101304301E700AE31EB260800400108
:10405200161596151A30890B2C280032F0014128CA
:1040620040010C19452896111A30890B3628003266
:10407200400196151A30890B3C2800320130F007B6
:1040820009307002031C3128AE319C260800F10071
:10409200F201F3010130F000730A5028F035890B68
:1040A2004F2870087105031960280330F00073353A
:1040B200890A5C28F035890B5B287008F20401300C
:1040C200F30704307302031C4B2872080800FC003B
:1040D2007C08E03EFD0060307D020318FD017D0892
:1040E200F800F9017808F0007908F1000530F200D3
:1040F2000030F300AF3176278030FA00F730FB0052
:1041020070087A07F60071087B3DF7000800440149
:104112006308031D91285E304001BE00FA309528E5
:1041220056304001BE00FA30BF00AC013F08AE007D
:104132003E08AD0001309B318823A0312A30AC000B
:104142006230AD00FA30AE0001309B3188230800A6
:10415200F800780873020318B32873087802F7008E
:104162007808B72878087302F7007308F500013061
:10417200F60003307702031CC8287508F4000330E8
:10418200F436890BC12877087402031CF6017608FD
:104192000800AE31AF26A0317830A231EE22A03134
:1041A200F6000030A231EE22A0310130F502750A8C
:1041B2000319E82873088400740885000008A231F6
:1041C200EE22A0310130F3070030F43DD628AE31A3
:1041D2009C2676080800A030860002308700443111
:1041E200403F4001AD00413FAE00423FAF00433F80
:1041F200B000AF31AC27A0312E08BF002D08BE00A1
:1042020098313120A03144014A084001BF004401E5
:1042120049084001BE00A23105220800FA007A08CE
:10422200AE311B26A1317806031908001E17703023
:104232009B007A089A0078089C000B0D0B0D01393F
:10424200F9008B131E1555309F00AA309F009E1453
:10425200790C031C8B1303188B173029640050014F
:104262009E182F291E110800FC007008F200F301AD
:104272007C08F400F5010730F435F50D890B3D2972
:104282007108F600F7010E30F635F70D890B452956
:1042920074087604F80075087704F9007208780447
:1042A200FA0073087904FB0000307A04F0008030D1
:1042B2007B04F1000800F200720844016F06031942
:1042C20008007208EF0002307206031D6B294101DB
:1042D2009A0180297208031970290230712901306C
:1042E200F0000030F10052010C087006FC39700633
:1042F2008C008C170C1F7B29033041019A00A030DF
:104302000032890B81290800F701F8017708F100D2
:10431200F2010730F135F20D890B8B29F030F300F1
:104322002C30F40071087307F5007208743DF60032
:104332007808750786000030763D870081010130DC
:10434200F80780307802031C87290130F707043010
:104352007702031C8629AE31EB260800700871042F
:104362000319D4290130F400F11BBF290130F035C3
:10437200F10D890BB8290130F407B52971087302D0
:10438200031DC52970087202031CCB297008F202B2
:104392007108F33B0130F136F00C890BCC29013066
:1043A200F402031DBF297308F1007208F00008002F
:1043B2004001C301450149080319022A7C0886000D
:1043C2007D088700403F4001AD00413FAE00423FC3
:1043D200AF00433FB0009C317624A131450149082A
:1043E200643E4001C100003003180130C2002E08B3
:1043F2004202031DFE292D084102031C022A01303C
:10440200C30040014308080044016C0840013F0614
:10441200031D0F2A44016B0840013E0603190800E0
:1044220043016C08031D080040013F084401EC00F1
:1044320040013E084401EB003C304001AC003F0823
:10444200F8003E08F7000230F9000430FA0090311B
:104452000320A231AD000230AE0001309B3188232F
:104462000800FA007A08F9000330F935890B362A78
:104472007908603EFB00FC0178087C078600870112
:104482007B087C07AE311B26A23181000130FC077C
:1044920008307C02031C3D2A7808073E840085010F
:1044A2007808F0000730F100A2315F22A231000645
:1044B200031D5D2A01300800003008005A30F70061
:1044C2000130F102710A03198B2A700886008701F4
:1044D2000108F7060130F007F601F71B772A770883
:1044E200F200F3017235F400730D812A7708F200AD
:1044F200F301F235F30D07307206F4000030730653
:10450200F5007408F7000130F60708307602031848
:10451200612A6E2A770808000030FB000030FA009A
:104522000030F9000030F800701C9F2A7408F80768
:104532007508F93D7608FA3D7708FB3D0130F43500
:10454200F50DF60DF70D890BA02A0130F336F20CAA
:10455200F10CF00C890BA72A730872047104700421
:10456200031D952A7B08F3007A08F2007908F1000E
:104572007808F0000800F401F501700871040319CD
:10458200E92A0130F600F11BCE2A0130F035F10D97
:10459200890BC72A0130F607C42A0130F435F50D1C
:1045A200890BCF2A71087302031DD92A700872027F
:1045B200031CE02A7008F2027108F33B7414013004
:1045C200F136F00C890BE12A0130F602031DCE2AE6
:1045D2007508F1007408F0000800F000F201F01F05
:1045E200F52A40011615F72A400116111A30890BD7
:1045F200F82A0032400196151A30890BFE2A003241
:10460200400196110310F00D0130F20708307202DA
:10461200031CF02A16151A30890B0D2B00324001AB
:1046220096151A30890B132B003240010C0C890CA1
:104632000139F10096111A30890B1D2B00327108D5
:1046420008004001CA01CB01500193182C2B4001F4
:10465200CA01CB01432B1318332B07304001CA0088
:10466200FA30422B131A3A2B20304001CA00FA309A
:10467200422B931B3E2B131F432BE2304001CA00F7
:10468200F930CB003F305001930040014A084B04FF
:10469200031908004B08C7004A08C600D030C800FA
:1046A2000730C900AF3144270800AC01CE30AD005D
:1046B200F930AE0001309B318823A331AC013F08B1
:1046C200AE003E08AD0001309B318823A33101309A
:1046D2004301EC0040014008C2004108C300C4018C
:1046E200C501AE31C32670084001C2077108C33D3F
:1046F2007208C43D7308C53D45084401B30040013A
:1047020044084401B200400143084401B1004001A1
:1047120042084401B0000800430167080319080079
:10472200440154080319A52BD4010030A0310920FB
:10473200A3312C30F0000130F100AE318926A331D3
:104742000130A03109200800FD0143016608013E45
:104752000339E6006608283E8600023087006608B4
:104762002C3E84000230850000080102031CBD2B90
:1047720066089931342108000130FD0704307D02BA
:1047820003180800A62BA1318521A3314001AC01F9
:104792005A30AD00FA30AE0000309B318823A3318D
:1047A2002A30AC006230AD00FA30AE0000309B31EE
:1047B2008823A3316030AC006430AD00FA30AE0023
:1047C20000309B318823A331A0318820A3314301DB
:1047D2006E084001AE0043016D084001AD009C31FE
:1047E200F124FF304401EB00FF30EC006C08EE00D6
:1047F2006B08ED0008007E01B8010730C300CE014E
:10480200D901E40153019013941340019601183029
:10481200970010309800063099009A0191012730D4
:1048220092009301940195017E013A15BA15DB14A9
:104832005B151A304F019600FE3097004730980002
:104842007F30990077309A00DF309B00453040017D
:104852009F009E01F9309D009C014E018C1296161C
:1048620040019E178B170800A0000230F7072008AE
:10487200B03EA10077080F39A2007708FB00043090
:10488200FB36890B412C7B081038A3002130F30042
:104892000030F4000330F500A031CA20A4314001F9
:1048A200A400AE31AF26A4317830A231EE22A43179
:1048B2004001A4044030A231EE22A4310130FA02B8
:1048C2007A0A0319712C7808840079088500000897
:1048D200A231EE22A4310130F8070030F93D5F2CFD
:1048E200AE319C264001240808007408F6007308C3
:1048F200F5000730F636F50C890B7B2C2530F000DD
:104902007308AE315B26A4317506FB009D2C7B0833
:10491200F500F601F535F60DF030F7002A30F80013
:104922007508770786007608783D8700160001042F
:104932000319B82C0130FB077B08F500F601F535A9
:10494200F60DF030F7002A30F80075087707860078
:104952007608783D8700403FF900413FFA0074082D
:104962007A06031DB62C73087906031D882C7B0872
:104972000800F7007308F4000430F436890BBE2CEB
:104982000A3074020318CC2C0F307305F4000A307D
:104992007402031CD52C77089E3E8400F93003185C
:1049A200013E8500000808000F307305F4000A304C
:1049B200F0007308F5000430F536890BDD2C75081C
:1049C200AE315B26A4317407F6007708B63E840048
:1049D200F9300318013E850000087602031CCC2C36
:1049E2007708AA3E8400F9300318013E85000008CA
:1049F200F40076087402031CCC2C76080800003000
:104A0200A0310920A53140011716971550010C104D
:104A12008B134E0196127E01C9164E011616643092
:104A2200F0000030F100AE318926A5317E01CA12B4
:104A3200630000004001C2012F2D8D1A332D053075
:104A42004001C1000F30C000F130890B262DC00B90
:104A5200262DC10B262D01304001C2071030420223
:104A6200031C1E2D10304206031D102D4E0116127E
:104A72007E01C912CA124E018C1296168B17500172
:104A82000C1498318420A531AF312C270800B300D3
:104A92002D0884002E0885001200031908002D0835
:104AA20084002E0885000008A0316820A53177080F
:104AB2004001B2007608B100B60105303602031C8F
:104AC200652DB401B501732D360831078400320813
:104AD2000318013E85000008AF00B0012F08B400A2
:104AE2003008B5003308AF000330AF35890B762D9F
:104AF2002F08F3003408F4000830F5002C083607BC
:104B020092310222A53101304001B6070630360249
:104B1200031C5E2D0130AD070030AE3D0630AC0700
:104B2200492D64004401D30140015E08FC000830B5
:104B320091313F21A5317D08E0007C08DF005E084D
:104B4200FC000A3091313F21A5317D08E2007C084A
:104B5200E1005E08FC000A3091313F21A5317D0859
:104B6200E4007C08E3005E08FC00083091313F213C
:104B7200A5317D08E6007C08E5005D08BA005C0806
:104B8200B9006008BC005F08BB006208BE00610893
:104B9200BD006408C0006308BF006608C200650863
:104BA200C1008A31DB225C08860087015231440150
:104BB200530881000800F600023070020318EE2D3F
:104BC200F50176307602031CEC2D7B307602031859
:104BD200EC2D0130F500750808000230700603194B
:104BE200FE2D1F3070060319FE2D75307602031C50
:104BF200FE2D7C307602031C002E01300800753039
:104C020076060319102E7B3076060319102E033018
:104C120070060319102E1E307006031D122E00306E
:104C220008000030F30071081D3CF200031CF3037E
:104C32007308803AF40080307402031D222E70083B
:104C420072020318262E0130080000300800983145
:104C52008420A6316E084001AE0043016D08400178
:104C6200AD009C31F124A6310E3043016E02753045
:104C720003196D02031C402E400197114C2E0E3079
:104C82006E02073003196D02031C4A2E4001971170
:104C92004B2E4001171201304401DC00AE31C32615
:104CA200A63173084501DE007208DD007108DC00E0
:104CB2007008DB000D3043016E02483003196D02AB
:104CC20003180800AF310027A63107304001C600A3
:104CD200FA30C700D030C8000730C900AF314427CE
:104CE200A631A531002508002E083002031D7B2EB7
:104CF2002D082F02031C832E2D082F02B5002E082B
:104D0200303B882E2F082D02B50030082E3BB6000E
:104D12002E083002031D8F2E2D082F02031C952E04
:104D22003008B8002F08982E2E08B8002D08B700BA
:104D320037083804031DA02EAD01AE010800370864
:104D4200A0003808A100A201A3013508B10036086D
:104D5200B200B301B4010830B135B20DB30DB40DD8
:104D6200890BAD2E3408A7003308A6003208A5002F
:104D72003108A400A7315D272108AE002008AD004C
:104D82000800F501F11FCC2EF009F109F00A031910
:104D9200F10A0130F500F31FD52EF209F309F20AE8
:104DA2000319F30A0130F506F601F70170087104E0
:104DB2000319022F0130F400F11BE72E0130F03508
:104DC200F10D890BE02E0130F407DD2E0130F635AE
:104DD200F70D890BE82E71087302031DF22E70087D
:104DE2007202031CF92E7008F2027108F33B76146A
:104DF2000130F136F00C890BFA2E0130F402031D5A
:104E0200E72E750803190A2FF609F709F60A03199E
:104E1200F70A7708F1007608F00008000130400137
:104E2200A500A0312820A7314001A701302F603012
:104E3200F300F930F4001C30F500A031CA20A7318C
:104E42004001A500250803192D2F6430F000003021
:104E5200F100AE318926A73101304001A7070A309F
:104E620027020318372F2508031D182FA601A701B3
:104E72002708FE3EF7008E30F800F930F9001030B6
:104E8200FA002608A4313524A7311030A707803054
:104E92002702031C392F0130A60708302602031C03
:104EA200382F6630F300FA30F400F501F50AA0312C
:104EB200CA204001A50408000030AB000030AA005F
:104EC2000030A9000030A800230822042104200495
:104ED2000319A42F0130AC00A31B792F0130A03598
:104EE200A10DA20DA30D890B702F0130AC076D2F00
:104EF2000130A835A90DAA0DAB0D890B7A2F230815
:104F02002702031D8E2F22082602031D8E2F210841
:104F12002502031D8E2F20082402031C992F20082E
:104F2200A4022108A53B2208A63B2308A73B28147C
:104F32000130A336A20CA10CA00C890B9A2F0130D0
:104F4200AC02031D792F2B08A3002A08A20029080E
:104F5200A1002808A00008005108013E0F39D10025
:104F62000130D00750084001A00044015D08400113
:104F7200A1005D30F3000230F400AF311527A731F4
:104F82004001A200440163084001A30044016008FB
:104F92004001A4006030F3000230F400AF31152765
:104FA200A7314001A500440164084001A600203059
:104FB200F0000730F100A2315F22A7314001A700C3
:104FC20044015108FB000330FB35890BE52F7B08B8
:104FD200603E4001A800A9012908203E8600870101
:104FE2000108F80028082907A1310F21A731013053
:0E4FF2004001A9070830290203180800ED2F1E
:105C2C00F00070084301E8000800F00050019E18D5
:105C3C001C2E1E1770309B0070089A001E141C0836
:105C4C0008006808DD006908DE006A08DF00A7317B
:105C5C00AD27AE319B31FE23080064008001013179
:105C6C000130FE020030FF3B7F087E040319003434
:105C7C00342E4301EC0140014208BF004108BE0034
:105C8C00A2310522AE31AE31792608008B13D90131
:105C9C00D8018B174301E80101304401D7004301BF
:105CAC00E90001304401D6000800F200F101721C39
:105CBC00612E7008F1070310F00D0310F20C72083E
:105CCC00031D5D2E7108080041019301940195019B
:105CDC0096019D019C019B01143093009317FF309A
:105CEC004401EF0008004301670803190800FC0198
:105CFC007C0899313421AE310130FC0704307C0230
:105D0C00031808007E2E0130F0020030F13B700ABF
:105D1C000319710A0319080064000B30F200623099
:105D2C00890B962EF20B962E0032892E40011611FD
:105D3C001A30890B9F2E0032400196151A30890BB0
:105D4C00A52E0032400116151A30890BAB2E0032ED
:105D5C0008004001161596151A30890BB32E003227
:105D6C00400116111A30890BB92E003240019611E0
:105D7C001A30890BBF2E003208008B134401270800
:105D8C00F7002608F6002508F5002408F4008B1708
:105D9C007708F3007608F2007508F1007408F0003B
:105DAC0008004301EC014001AC01CE30AD00F930EC
:105DBC00AE0001309B318823AE31A0318820FF30FA
:105DCC004401EB00FF30EC000800F00170082C3EA1
:105DDC0086000230870081017008283E8600023060
:105DEC0087007F3081000130F00704307002031807
:105DFC000800EC2EAE31C326AF317308B700720821
:105E0C00B6007108B5007008B400A0310120AF31A4
:105E1C00003A031D08000130A03109200800730866
:105E2C0086007408870042310108031D202FF501FC
:105E3C00F601242F8030F5000030F6007308860040
:105E4C007408870041310108750408000130A03145
:105E5C000920AF3198310120AF31A331C423AF31C8
:105E6C00AE314C26AF31AE31C3267308B700720881
:105E7C00B6007108B5007008B40008004708BF00F0
:105E8C004608BE004908C1004808C000A33156238B
:105E9C00AF31AE317926AF3140014908F1004808E5
:105EAC00F000AE318926AF31AE31D72608009F31D4
:105EBC005927AF31F60003307606031D6A2F76089A
:105ECC00AE311626013008000130F50076030319B7
:105EDC00742F023076060319742FF501750808002B
:105EEC00F401F501701C7E2F7208F4077308F53D60
:105EFC000130F235F30D890B7F2F0130F136F00CA8
:105F0C00890B842F70087104031D782F7508F1001C
:105F1C007408F0000800F8017808BF3E86000230D3
:105F2C0087007808703E8400F7300318013E850026
:105F3C000008F3007808A431BA24AF318100013095
:105F4C00F8070C30780203180800922F0030A300D9
:105F5C000130A2008630A100A030A00050302D07E7
:105F6C00A400C3302E3DA50000302F3DA60000300C
:105F7C00303DA700A7315D272108AE002008AD00F9
:105F8C000800F50075087307F600F7010318F70A07
:105F9C00F31BF703F71FD42F003008007708803A63
:105FAC00F40080307402031DDD2F80307602031C58
:105FBC00E12F7F300800760808007308860074080B
:105FCC00870075087F398100730886007408870084
:105FDC00413176087F398100730886007408870088
:105FEC0042317608F7000730F736890BFA2F77081D
:045FFC008100080018
:10EEE0000534303407341034153413340134043409
:10EEF00014346034053402340034003400340034F7
:10EF000000340034003400340034003400345F3402
:10EF1000003400340034073400340734003414342F
:10EF20007F3414347F34143424342A347F342A3424
:10EF3000123423341334083464346234363449349C
:10EF40005534223450340034053403340034003452
:10EF500000341C342234413400340034413422342F
:10EF60001C34003408342A341C342A34083408345D
:10EF700008343E340834083400345034303400341B
:10EF80000034083408340834083408340034303489
:10EF90003034003400342034103408340434023463
:10EFA0003E345134493445343E34003442347F34A5
:10EFB00040340034423461345134493446342134CD
:10EFC000413445344B3431341834143412347F34E2
:10EFD0001034273445344534453439343C344A34CC
:10EFE000493449343034013471340934053403343C
:10EFF0003634493449344934363406344934493492
:10F0000029341E34003436343634003400340034AD
:10F010005634363400340034003408341434223486
:10F020004134143414341434143414344134223438
:10F0300014340834003402340134513409340634B1
:10F0400032344934793441343E347E34113411340D
:10F0500011347E347F3449344934493436343E34B3
:10F0600041344134413422347F34413441342234F8
:10F070001C347F3449344934493441347F340934B1
:10F080000934013401343E34413441345134323492
:10F090007F340834083408347F34003441347F34FA
:10F0A000413400342034403441343F3401347F341F
:10F0B00008341434223441347F34403440344034F2
:10F0C00040347F340234043402347F347F340434D7
:10F0D000083410347F343E344134413441343E34BA
:10F0E0007F3409340934093406343E344134513410
:10F0F00021345E347F34093419342934463446349B
:10F100004934493449343134013401347F340134D1
:10F1100001343F344034403440343F341F342034D1
:10F12000403420341F347F342034183420347F346A
:10F1300063341434083414346334033404347834BA
:10F140000434033461345134493445344334003495
:10F1500000347F34413441340234043408341034F0
:10F160002034413441347F340034003404340234D8
:10F1700001340234043440344034403440344034A8
:10F180000034013402340434003420345434543410
:10F19000543478347F344834443444343834383444
:10F1A00044344434443420343834443444344834CB
:10F1B0007F343834543454345434183408347E345E
:10F1C00009340134023408341434543454343C3493
:10F1D0007F340834043404347834003444347D34C7
:10F1E000403400342034403444343D34003400345E
:10F1F0007F34103428344434003441347F34403474
:10F2000000347C3404341834043478347C340834C6
:10F210000434043478343834443444344434383492
:10F220007C3414341434143408340834143414344E
:10F2300018347C347C3408340434043408344834BE
:10F24000543454345434203404343F34443440343B
:10F2500020343C344034403420347C341C3420345A
:10F26000403420341C343C344034303440343C345A
:10F27000443428341034283444340C34503450345A
:10F2800050343C344434643454344C3444340034C6
:10F290000834363441340034003400347F340034D0
:10F2A000003400344134363408340034083408342F
:10F2B0002A341C34083408341C342A340834083402
:10F2C000AE34D5348034A8343F34D3344034403461
:10F2D0008D3414348134FF34D934F1342034023481
:10F2E000213400347F342E34A034C034DA34023474
:10F2F000DB344034A434A6344434453453344934E4
:10F3000047344E3445344434203442345934203464
:10F3100044344C34383455344734003400340034E9
:10F32000003400340034003400340034003400343D
:10F3300000340034003400340034003405341E340A
:10F3400007340A340F340D34013404340E343C34A1
:10F3500005340234633463341E34633463346334F9
:10F36000013463346334633463340334003400346D
:10F370000234013401340B340034003400340134DD
:10F38000003401344634573420344E34473420346A
:10F3900030342E3431342E343034003420342034A0
:10F3A00020342034203420342034203420340034DD
:10F3B00050344F3457344534523420344F3446346B
:10F3C0004634003453345434413443344B342034C1
:10F3D00052345334543400344F3456344534523458
:10F3E0004C344F344134443400344E344F342034A0
:10F3F0004D34413454344334483400344E344F3463
:10F40000203450344F3457344534523400344C3463
:10F410004F3457342034423441345434543400345B
:10F42000003400340134FF34FF3401340134FF343C
:10F430000134FF34003400340134FF340134FF342C
:10F440005734443454342034523453345434003414
:10F450000034023406340E341E343C346E344134ED
:10F46000543455342D34313430340034423459342A
:10F4700050344134533453340034543455344E34BE
:10F48000453444340034003403340A341E345A34CE
:10F49000543455344E3445340034533454344F349A
:10F4A000503400340034043410344034423459347D
:10F4B00050340034503457345234003453345734B9
:0EF4C000523400343D34003457340034AF343D
:020000040001F9
:0A000E008C3FBD3DAD07FF3FFF3FF3
:00000001FF
