:1000000080314128A0340F347E14803100308600C6
:10001000003087004E018C1E3F288C1201304401B5
:10002000A4070030A53DA63DA73D0130CE070A300C
:100030004E02031C3F28CE0140018D1A25286F0A6D
:1000400003192D280130EF072D286F0803192D28DB
:100050006F084401D8004001EF018F183628430192
:100060006A0A03193F280130EA073F2843016A085A
:1000700003193F286A084401D7004301EA017E10B2
:100080000900803143284301803102208031ED0096
:10009000803103208031EE00FA308400A8308500E2
:1000A00044011200EA001200EB001200EC00120002
:1000B000ED001200EE00F0308400283085000030A2
:1000C000FE000730FF00A931172180314001EF0108
:1000D000E2308400013085000B30FE000030FF006C
:1000E000A9311721803120308400023085004A3048
:1000F000FE000030FF00A93117218031A0308400BC
:10010000023085004730FE000030FF00A931172182
:10011000803120308400033085003730FE0000300D
:10012000FF00A93117217E1040018931D9294201F0
:10013000EF014301BB01BE013E35F03E8600870161
:100140002A30873D3E350030873D0030C03FC13FFB
:100150000130BE07031D9C284401C701C801CD0121
:100160004301E4014401C501C60145012F084101D5
:10017000E900EA01EB01EC016C08F3006B08F20006
:100180006A08F1006908F0000030F7000130F6005D
:100190008630F500A030F400AD3171258031730850
:1001A0004501BF007208BE007108BD007008BC00A8
:1001B00030084101E900EA01EB01EC016C08F300B1
:1001C0006B08F2006A08F1006908F0000030F700DF
:1001D0000F30F6004230F5004030F400AD317125AB
:1001E000803173084501BB007208BA007108B9007C
:1001F0007008B80001304401A3000030A2000030B4
:10020000A1000130A0004101650886006608870052
:10021000403F4401E400413FE500423FE600013039
:100220004301AE000030AD000030AC000030AB0048
:10023000AF0142290E304201E700FC30E8000430F3
:10024000E9000230EC0096304401C3000030402940
:10025000A7304201E700FB30E8000730E900043036
:10026000EC00F4303D29F0304201E700FB30E800BB
:100270000530E9000330EC005E304401C30001307A
:10028000C4004B2945013708013A03191A29023ADB
:10029000031928293329410165088600660887006B
:1002A000403F4301C500413FC600423FC7004608EA
:1002B0004001E300430147084001E4002030E5002D
:1002C000C030E6000130E7004301450888310020D6
:1002D00080314301BD003D08031D8D2EC030FC0060
:1002E0000130FD00AC31BD248031003A031994295E
:1002F000C5304001C1000130C20043014308400144
:10030000C600430142084001C500430141084001C5
:10031000C400430140084001C300A531922580314B
:100320009031B72000300800410168084201EB001D
:10033000410167084201EA004301BE0165083E022F
:1003400003182E2A0330F0003E08A93130218031F5
:10035000333E4301BA003A088600033087000108A3
:100360004506031DC4293A0A8600033087000108A8
:100370004606031DC4293A08023E86000330870062
:100380000108470603192A2A3A0886000330870025
:100390000330413F4001E30043013A088600033047
:1003A00087000330423F4001E4001030E500A030F8
:1003B000E6000130E70043013A0886000330870079
:1003C00001088831002080314301BD0003303D0623
:1003D00003192E2A3D08031D8D2E43082302031DF9
:1003E000FB2942082202031DFB2941082102031DAB
:1003F000FB2940082002031C022A42016A086B0400
:10040000031D2A2A43013A08860003308700403F33
:10041000C500413FC600423FC700A0308600013002
:100420008700C03084000130850005304101E900BB
:1004300016001A00E90B182A43013E08A03E860068
:10044000023087000108643E4201EA0000300318D0
:100450000130EB0001304301BE079E2942016A08CA
:100460006B040319B92A01304301E400C53041018E
:10047000DD000130DE00C030DF000130E0009431EB
:10048000B02480314301BD00E40103303D06031D6B
:100490005B2AA530F300B030F400BB30F500C53066
:1004A000F6000130F700C030F8000130F9009B3150
:1004B000C22380318B2D3D08031D8D2EC030FC00E2
:1004C0000130FD00AC31BD248031003A031D782994
:1004D000430143084001B000430142084001AF001E
:1004E000430141084001AE00430140084001AD0016
:1004F00099312E21803142016A08053E4101E9000F
:10050000003042016B3D4101EA0040012E084101EB
:100510006A02031D8F2A40012D0841016902031858
:100520007829430143084001B000430142084001DB
:10053000AF00430141084001AE00430140084001C3
:10054000AD0099312E2180312D082E040319782910
:10055000A530F300B030F400BB30F500C530F60034
:100560000130F700C030F8000130F9009B31C223A0
:1005700080314201EE0102306E020318F12C43017A
:10058000BE014201690843013E020318ED2C4201FD
:10059000ED0169086D020318E92C43013E08420190
:1005A0006707840068080318013E850000084301BE
:1005B000C50042016D086707840068080318013E02
:1005C000850000084301C60042016E084301C700D0
:1005D00046084001E300430147084001E4001030B1
:1005E000E500C030E6000130E700430145088831EE
:1005F000002080314301BD0003303D0603198B2DDF
:100600003D08031D8D2E4508031D1C2B4608031DA8
:100610001C2B42016E08031D1C2BC03086000130CC
:100620008700AB3084000130850005304101E900CE
:1006300016001A00E90B182B4301BF0142016F0895
:1006400043013F020318602B0330F0003F08A9313B
:1006500030218031023E3E3E860001308700010895
:1006600042016E06031D5C2B43013F08343E8600A9
:100670000130870001084101E90043013E084101C2
:10068000E90201306907EA0003306A0203185C2BB3
:1006900043013F08393E86000130870001084101CF
:1006A000E90042016D084101E90201306907EA00F1
:1006B00003306A02031C602B01304301BF071E2B6D
:1006C00042016F0843013F0203180B2C0530F00074
:1006D0003F08A931302180314E3E8600013087002D
:1006E000403F4101E900413FEA00423FEB00433F08
:1006F000EC006C0843014302031D8E2B41016B0883
:1007000043014202031D8E2B41016A08430141024D
:10071000031D8E2B41016908430140020318E52C9B
:100720003F08BC003C08013E4101E90000300318CD
:100730000130EA006A08803AEB0080306B02031D4A
:10074000A52B42016F08410169020318082C0330F0
:10075000F00043013C08A93130218031033E3E3E88
:10076000860001308700403F4101E900413FEA0037
:10077000423FEB000330F00043013C08A931302137
:1007800080313E3E86000130870041016908C03F4C
:100790006A08C13F6B08C23F0530F00043013C08C6
:1007A000A93130218031053E4E3E86000130870060
:1007B0000530F00043013C08A931302180314E3E24
:1007C00084000130850005304101E90016001A005F
:1007D000E90BE62B43013C08343E860001308700DC
:1007E0003C08013E343E8400013085000008810051
:1007F0003C08393E8600013087003C08013E393E06
:10080000840001308500000881000130BC07922B74
:1008100001304201EF0242016F084301BF00752C15
:1008200042016C0843013F020318732C0330F000AF
:100830003F08A93130218031FD3E3E3E8600013027
:100840008700403F4101E900413FEA00423FEB00A1
:100850000330F00043013F08A931302180313E3E92
:1008600086000130870041016908C03F6A08C13F26
:100870006B08C23F0530F00043013F08A931302129
:100880008031FB3E4E3E8600013087000530F0008F
:1008900043013F08A931302180314E3E84000130B0
:1008A000850005304101E90016001A00E90B542CBF
:1008B00043013F08343E8600013087003F08FF3E79
:1008C000343E840001308500000881003F08393E35
:1008D0008600013087003F08FF3E393E840001302A
:1008E0008500000881000130BF023F080319A32CD6
:1008F0000530F0003F08A93130218031FB3E4E3EEB
:10090000860001308700403F4101E900413FEA0095
:10091000423FEB00433FEC006C0843014302031DE0
:10092000A12C41016B0843014202031DA12C41018E
:100930006A0843014102031DA12C410169084301DA
:100940004002031C102C42016C0843013F020318B3
:10095000E52C0330F0003F08A931302180313E3EC4
:1009600086000130870043014508C03F4608C13F6B
:100970004708C23FC0308600013087000530F000D4
:100980003F08A931302180314E3E8400013085007E
:1009900005304101E90016001A00E90BCB2C430198
:1009A0003F08343E8600013087003E0881003F0842
:1009B000393E86000130870042016D0881006C08D5
:1009C0006F020318E52C0130EF0701304201ED07FB
:1009D000C92A01304301BE07C12A01304201EE0796
:1009E000BB2A440123084001B00044012208400111
:1009F000AF00440121084001AE004401200840013D
:100A0000AD0099312E2180312E08C2002D08C10081
:100A1000A931232180314301BE0142016F08430106
:100A20003E0203188B2D0330F0003E08A93130211F
:100A300080313E3E860001308700403F4301C500C3
:100A4000413FC600423FC7000530F0003E08A931D3
:100A5000302180314E3E860001308700C030840056
:100A60000130850005304101E90016001A00E90B4C
:100A7000352DC530DD000130DE00C030DF00013033
:100A8000E0009431B02480314301BD003D080319DA
:100A90004D2D03303D06031D8D2EA530F300B030E3
:100AA000F400BB30F500C530F6000130F700C0306F
:100AB000F8000130F9009B31C22380314401230842
:100AC0004001B000440122084001AF004401210868
:100AD0004001AE00440120084001AD0099312E21B3
:100AE00080312E08C2002D08C100A9312321803198
:100AF000033043013D0603198B2DC030FC0001304B
:100B0000FD00AC31BD248031003A031D8B2D013036
:100B10004301BE070D2D43013B08031DBC2D4401BD
:100B200064084301C500440165084301C60044014F
:100B300066084301C700440123084301C300440180
:100B400022084301C200440121084301C1004401BD
:100B500020084301C000A530F300B030F400BB30E2
:100B6000F500C530F6000130F700C030F800013064
:100B7000F9009B31C22380314301BE013B083E0294
:100B80000318142E0330F0003E08A93130218031C3
:100B9000013EA53E86000130870001084101ED00BD
:100BA0000330F00043013E08A93130218031023E7C
:100BB000A53E86000130870001084101EE000530A6
:100BC000F00043013E08A93130218031B03E41019F
:100BD000EF000330F00043013E08A931302180319D
:100BE000A53E86000130870001084201B3004101A3
:100BF0006D084001E30041016E084001E40040300F
:100C0000E50041016F084001E6000130E7004201C4
:100C100033088831002080314301BD003D08031DA9
:100C20008D2E0130BE07BE2D4201CD0102304301A1
:100C30003B02031C2E2E33083802031D292E3208D6
:100C40003702031D292E31083602031D292E3008D4
:100C5000350203182E2E01304201CD0042014D080D
:100C60004301BE000530F0003E08A931302180313B
:100C7000B03E4001A0000130A100AB30A200013025
:100C8000A3009C3167248031003A031D6C2E430180
:100C9000C701C601C501C5304001C1000130C20015
:100CA00043012E084001C60043012D084001C50044
:100CB00043012C084001C40043012B084001C3003C
:100CC000A53192258031013043012E0203186A2E8E
:100CD00000300800033008000330F00043013E08F4
:100CE000A93130218031A53E4001C1000130C20050
:100CF0000530F00043013E08A93130218031B03E7B
:100D0000860001308700403F4001C300413FC400DE
:100D1000423FC500433FC6008D2964304001C100F9
:100D20000230C200440123084001C60044012208E9
:100D30004001C500440121084001C40044012008CD
:100D40004001C300A5319225803143013D030319C1
:100D5000AB2E0130080002300800B100D430B800DA
:100D6000C42F2E08031DBF2E3808AA000230AB0086
:100D7000E430AC00FB30AD00A931FD21080038089B
:100D8000F7000230F8002E08AF00B0012F08F9007C
:100D90003008FA00FB01A631B82686317808AB008E
:100DA0007708AA00FF30AC00FB30AD00A931FD216F
:100DB00008003808F7000230F8002E08AF00B00134
:100DC0002F08F9003008FA00FB01A631B826863159
:100DD0007808AB007708AA001630AC00FC30AD00F4
:100DE000A931FD2108003808F7000230F8002E086C
:100DF000AF00B0012F08F9003008FA00FB01FB0A30
:100E0000A631B82686317808AB007708AA002830CA
:100E1000AC00FC30AD00A931FD2108003808F70016
:100E20000230F8002E08AF00B0012F08F90030089A
:100E3000FA00FB01A631B82686317808AB007708A6
:100E4000AA002830AC00FC30AD00A931FD2108001B
:100E50003808F7000230F8002E08F63EF900FF309F
:100E600003180030FA00FB01FB0AA631B82608007F
:100E70002E08031D3F2F4C30B200FB30422F25308F
:100E8000B200FC30B3003808AA000230AB003308CF
:100E9000AD003208AC00A931FD2108003808F70088
:100EA0000230F8002E08AF00B0012F08F90030081A
:100EB000FA00FB01FB0AA631B82608003808F70043
:100EC0000230F8002E08643EF900003003180130AB
:100ED000FA000230FB00A631B82608003808F700F7
:100EE0000230F8002E08AF00B0012F08F0003008E3
:100EF000F1000A30F2000030F300AA3147228631B7
:100F00007108FA007008F900FB01A631B826863195
:100F10007808AB007708AA001630AC00FC30AD00B2
:100F2000A931FD2108002E08031D5E2F3808AA00F4
:100F30000230AB00FA30AC00FB30AD00A931FD212E
:100F400008002E030319B52F03302E060319AC2F0A
:100F5000C330B600FB30AF2F5A30B600FB30B700BD
:100F60003708B5003608B400B92FD830B400FB30CC
:100F7000B5003808AA000230AB003508AD003408CF
:100F8000AC00A931FD2108003108BF3E8400FA30D1
:100F90000318013E85000008003A0319B12E013AFA
:100FA0000319D92E033A0319F32E013A03190E2F10
:100FB000073A0319282F013A0319382F033A031966
:100FC0004E2F013A03195E2F0F3A03196E2F013A83
:100FD0000319932FA12F08004301EC014001AC013C
:100FE0003C30AD00FB30AE000130983140208731FD
:100FF000AB316D23FF304401EA00FF30EB00080005
:101000004101B70040016308F0006408F1004101AC
:101010003708AC31192488317108B6007008B50062
:10102000AA01AB013608F4003508F300A031E8202E
:1010300088314101B800B401403040016506031910
:10104000B22841013808A000A101A035A10DF0305F
:10105000A2002A30A3002008220786002108233D91
:101060008700403FA400413FA50036082506031D28
:101070003B2835082406031DA3283808A000A10139
:10108000A035A10DF030A2002830A30020082207CF
:1010900086002108233D87001600FF3AA4001600B1
:1010A000FF3AA40403197C283808A000A101A03548
:1010B000A10DF030A2002830A300200822078600EE
:1010C0002108233D8700403FA400413FA50024089C
:1010D000A6002508A700A801A9010830A635A70D7C
:1010E000A80DA90D890B6E282908AF002808AE00AD
:1010F0002708AD00260883280130AF000030AE007D
:101100000030AD000030AC00400166088600670882
:10111000870041012C08C03F2D08C13F2E08C23F67
:101120002F08C33F400166088600670887004431E6
:1011300041013808F03E840085012E30853D0008CD
:10114000810000300800440144084602031DAA281B
:1011500043084502031CAE28033008000130C507D0
:101160000030C63D40016308F3006408F40041010B
:1011700037089D31B4258831AA3115228831003ACB
:101180000319C42801300800B9304001D8000030EC
:10119000D9006508DA00A131B621883141014B0838
:1011A0000319DC280130C8000030C7000030C60039
:1011B0000030C500CA013D2945013F0841014002F8
:1011C000031DF22845013E0841013F02031DF2289C
:1011D00045013D0841013E02031DF22845013C083E
:1011E00041013D02031C0C29B930F0000030F10030
:1011F000A4317D248831730845013B02031D0A296F
:1012000072083A02031D0A2971083902031D0A29CE
:10121000700838020318302944014D08031D1529B0
:10122000E8304101B000033019292C304101B000F1
:101230000130B1000130AA070030AB3D2B0831026C
:10124000031D24292A083002031828290230080027
:101250000A30F0000030F100A9316E218831BC283D
:1012600001304401CD0041014908031D3D290130F1
:10127000B40703303402031CBC2840016608860012
:101280006708870041014508C03F4608C13F47083D
:10129000C23F4808C33F40016608860067088700D0
:1012A000443141014A08810040304001650603197C
:1012B000A128003044014802FF30031947020318F7
:1012C000A72941013835F03E860087012A30873D45
:1012D00038350030873D3508C03F3608C13F013002
:1012E00048020318882941014508A0004608A100CA
:1012F0004708A2004808A3000830A336A20CA10C9E
:10130000A00C890B7D292108B3002008B2008D298B
:10131000FF304101B200FF30B3003835F03E8600A7
:1013200087012830873D38350030873D3208C03F7F
:101330003308C13F3808F03E860087012E30873DD4
:101340004A08810001304401C7070030C83D230826
:1013500041014802031DBC29440122084101470202
:10136000031DBC294401210841014602031DBC297B
:1013700044012008410145020318A128B930860024
:10138000003087004C31403F4401A000413FA100A4
:10139000423FA200433FA300410137084401E4005B
:1013A000400163084401E500400164084401E6008F
:1013B000A128AF31102789314301DC015001931876
:1013C0001318E52901304301DC0043015C08D90012
:1013D000A7311E278931A9313F218931A431272422
:1013E0008931A7318D278931A63154268931003AB8
:1013F00003190B2A5C08E7005D08E8005E08E900B5
:1014000043015908031D162A44015D08F3005E08D4
:10141000F4005C08132AE201E301E101E001DF01CD
:10142000F301F40100309D31B42589314401630892
:10143000031D1D2ACB01CC01242A6308643ECB0086
:10144000003003180130CC0040011915AA31D12217
:101450008931AE313626893150010C14A9319421DD
:10146000893173084301E1007208E0007108DF0070
:101470007008DE0061084501CF00430160084501A6
:10148000CE0043015F084501CD0043015E084501E0
:10149000CC004F08D3004E08D2004D08D1004C08B4
:1014A000D00053084401BB00450152084401BA0072
:1014B000450151084401B900450150084401B800F4
:1014C0003B08BF003A08BE003908BD003808BC0020
:1014D0006400A9319421893173084301E100720845
:1014E000E0007108DF007008DE009D310C258931B5
:1014F0004301DD005D080319AE2AA831F2208931CD
:10150000003A031DAE2A05305D060319AE2A0330EA
:101510005D060319AE2AA931D12189314301DD01CC
:10152000AE2AA931D121893144016208031D9A2ACA
:1015300001309B2A0030A531F1258931BF2A913134
:1015400086218931BF2A0130EB00BF2AA931D12180
:1015500089310130A531F1258931BF2A5D08013A71
:101560000319912A033A03199F2A013A0319A32A5E
:10157000073A0319A62A013A03199F2ABF2A4401F0
:10158000380843015E02D1004401390843015F3B42
:10159000D20044013A084301603BD30044013B08B8
:1015A0004301613BD4005408031DE02A5308031D86
:1015B000E02A5208031DE02A32305102031CF32AAC
:1015C000430161084401BB00430160084401BA00C3
:1015D00043015F084401B90043015E084401B800BB
:1015E000963149268931440159080319FB2AD9014A
:1015F0009131862189314501500843015E02D100B5
:101600004501510843015F3BD200450152084301A7
:10161000603BD300450153084301613BD4005408AB
:10162000031D1C2B5308031D1C2B5208031D1C2BD0
:1016300096305102031C2F2B430161084501D30052
:10164000430160084501D20043015F084501D10014
:1016500043015E084501D000A031002089314401DA
:101660003C0843015E02D10044013D0843015F3B59
:10167000D20044013E084301603BD30044013F08CF
:101680004301613BD4005408031D4F2B5308031D35
:101690004F2BB83051020B30523B031C622B4301DD
:1016A00061084401BF00430160084401BE004301DA
:1016B0005F084401BD0043015E084401BC00AF3136
:1016C0008327893144015B0803198C2B45014808A5
:1016D00043015E02D1004501490843015F3BD2004E
:1016E00045014A084301603BD30045014B084301D3
:1016F000613BD4005408031D872B5308031D872B1F
:101700005208031D872B1E305102031C8C2B4401F1
:10171000DB0140019715171643016C080319AF2B25
:10172000440133083204310430040319AF2B30086C
:1017300043015E02D1004401310843015F3BD20006
:10174000440132084301603BD300440133084301A4
:10175000613BD400D41BAF2B8731EC278931450185
:101760004C0843015E02D10045014D0843015F3B37
:10177000D20045014E084301603BD30045014F08AC
:101780004301613BD4005408031DCF2B5308031DB4
:10179000CF2B303051027530523B031CE22B4301FA
:1017A00061084501CF00430160084501CE004301B7
:1017B0005F084501CD0043015E084501CC00A8311A
:1017C000EF208931A831F2208931003A03192D2CFC
:1017D00045012C0803192D2C2C084301D100D201FE
:1017E000D301D4015408F3005308F2005208F10069
:1017F0005108F0000030F7000030F600EA30F50044
:101800006030F400AD317125893144013408430161
:101810005E02D5004401350843015F3BD600440118
:1018200036084301603BD700440137084301613B60
:10183000D80073085802031D272C72085702031D95
:10184000272C71085602031D272C70085502031C13
:101850002D2C0030AA31EE22893145012D080319C3
:10186000702C2D084301D100D201D301D4015408BA
:10187000F3005308F2005208F1005108F000003064
:10188000F7000030F600EA30F5006030F400AD31CA
:10189000712589314401340843015E02D5004401B9
:1018A000350843015F3BD600440136084301603BE5
:1018B000D700440137084301613BD8007308580240
:1018C000031D6C2C72085702031D6C2C7108560204
:1018D000031D6C2C70085502031C702C0330EB00A8
:1018E00043016B080319D72C03306B020318952CA6
:1018F000A931D121893143016B030319832C7E3037
:10190000DA00FB30862C4630DA00FB30DB005B0867
:101910004001C70043015A084001C600DC30C8003E
:101920000530C900AA312E2289314301EB01A131D2
:101930002C218931AA31D1228931A93194218931CF
:1019400073084301E1007208E0007108DF007008CD
:10195000DE0061084501CF00430160084501CE006B
:1019600043015F084501CD0043015E084501CC00FD
:101970004F08D3004E08D2004D08D1004C08D000CB
:1019800053084401BB00450152084401BA00450117
:1019900051084401B900450150084401B8003B0812
:1019A000BF003A08BE003908BD003808BC00AE319F
:1019B000A1268931682A0130B7000030B800003014
:1019C000B9000030BA003508BB003608BC00BD01C4
:1019D000BE012F08BF003008C000C101C2013F088E
:1019E000BB074008BC3D4108BD3D4208BE3D3B0829
:1019F000B7073C08B83D3D08B93D3E08BA3D013047
:101A0000BA36B90CB80CB70C890B002D2D0886001E
:101A10002E0887003708C03F3808C13F0130B700A3
:101A20000030B8000030B9000030BA003308BB0005
:101A30003408BC00BD01BE013108BF003208C0003F
:101A4000C101C2013F08BB074008BC3D4108BD3D84
:101A50004208BE3D3B08B7073C08B83D3D08B93DCC
:101A60003E08BA3D0130BA36B90CB80CB70C890B38
:101A7000332D2D088600870142313708C03F3808D2
:101A8000C13F2D0886002E088700403FB700413F28
:101A9000B8003708F0003808F100F201F301450101
:101AA00033084001B900BA01BB01BC013C08F70092
:101AB0003B08F6003A08F5003908F400AD3171250D
:101AC0008C3173084001D3007208D2007108D10034
:101AD0007008D0002D0886002E088700403FB70010
:101AE000413FB8003708F4003808F500F601F70167
:101AF0002D0886002E088700403FB900413FBA00FC
:101B00003908F0003A08F100F201F301AD31712516
:101B10008C3170084001BB007108BC007208BD0028
:101B20007308BE000630BE36BD0CBC0CBB0C890B66
:101B3000932D3E08D7003D08D6003C08D5003B0851
:101B4000D4005308F3005208F2005108F100500885
:101B5000F0000030F7000030F6000030F5001930DA
:101B6000F400AD3171258C3170084001B700710867
:101B7000B8007208B9007308BA000130BA36B90C5F
:101B8000B80CB70C890BBE2D0030A3000030A200AA
:101B90000030A1006430A0005708F3005608F2009E
:101BA0005508F1005408F00045013408643EF40083
:101BB000003003180130F500F601F51BF603760836
:101BC000F700AD3171258C3173084001A700720810
:101BD000A6007108A5007008A400A33131238C3140
:101BE0002008B7072108B83D2208B93D2308BA3DAF
:101BF0002D088600870144313708C03F3808C13FAF
:101C00003908C23F3A08C33F2D0886008701423198
:101C1000403FB700413FB8003708F0003808F100F6
:101C2000F201F301450133084001B900BA01BB01DB
:101C3000BC013C08F7003B08F6003A08F5003908FB
:101C4000F400AD3171258C3173084001D300720866
:101C5000D2007108D1007008D0002D0886008701DD
:101C60004231403FB700413FB8003708F400380820
:101C7000F500F601F7012D08860087014231403F4B
:101C8000B900413FBA003908F0003A08F100F2010A
:101C9000F301AD3171258C3170084001BB00710832
:101CA000BC007208BD007308BE000630BE36BD0C15
:101CB000BC0CBB0C890B562E3E08D7003D08D60045
:101CC0003C08D5003B08D4005308F3005208F2004A
:101CD0005108F1005008F0000030F7000030F60025
:101CE0000030F5001930F400AD3171258C317008E9
:101CF0004001B7007108B8007208B9007308BA0053
:101D00000130BA36B90CB80CB70C890B812E0030F3
:101D1000A3000030A2000030A1006430A0005708EA
:101D2000F3005608F2005508F1005408F000450190
:101D30003408643EF400003003180130F500F60169
:101D4000F51BF6037608F700AD3171258C31730869
:101D50004001A7007208A6007108A5007008A40041
:101D6000A33131238C312008B7072108B83D220860
:101D7000B93D2308BA3D2D08860087014831370850
:101D8000C03F3808C13F3908C23F3A08C33F2D0859
:101D9000860087014431403FF000413FF100423F5F
:101DA000F200433FF3002D08860087014831403F91
:101DB000F400413FF500423FF600433FF700A531F4
:101DC00034258C312D08860087014C317008C03FC6
:101DD0007108C13F7208C23F7308C33FCD0130088C
:101DE000F1002F08F0003608F3003508F200183033
:101DF000F4000030F500983100208C31003A0319CE
:101E0000152F3208F1003108F0003408F3003308D0
:101E1000F2001830F4000030F500983100208C31C9
:101E2000003A0319152F0130CD002D0886008701D7
:101E300050314D08810030083602031D212F2F0834
:101E40003502031C562F35083604031D2A2FC50101
:101E5000C601522F3508A0003608A100A201A30137
:101E60002F083502B7003008363BB8003708B900F4
:101E70003808BA00BB01BC010830B935BA0DBB0D3A
:101E8000BC0D890B3D2F3C08A7003B08A6003A0873
:101E9000A5003908A400A33131238C312108C600E4
:101EA0002008C5004608C40045087D2F2F08A00063
:101EB0003008A100A201A30135082F02B70036089F
:101EC000303BB8003708B9003808BA00BB01BC0184
:101ED0000830B935BA0DBB0DBC0D890B692F3C0814
:101EE000A7003B08A6003A08A5003908A400A331C2
:101EF00031238C312108C4002008C3003208340289
:101F0000031D842F31083302031CB92F3308340416
:101F1000031D8D2FC901CA01B52F3308A000340855
:101F2000A100A201A30131083302B7003208343BFB
:101F3000B8003708B9003808BA00BB01BC01083046
:101F4000B935BA0DBB0DBC0D890BA02F3C08A700FD
:101F50003B08A6003A08A5003908A400A3313123A4
:101F60008C312108CA002008C9004A08C800490865
:101F7000E02F3108A0003208A100A201A30133081C
:101F80003102B7003408323BB8003708B9003808CE
:101F9000BA00BB01BC010830B935BA0DBB0DBC0D90
:101FA000890BCC2F3C08A7003B08A6003A08A500E7
:101FB0003908A400A33131238C312108C80020083E
:101FC000C70043084707CE004408483DCF00013012
:101FD0004F02003003194E020318F52F4E08B700C8
:101FE000B8013708CB003808F82FFF30CB0000309D
:101FF000CC002D088600870151314B088100080074
:10200200FF30F8002030AB31F3239031AA317D222A
:102012000800D701A9319421903173084001D500FD
:102022007208D4007108D3007008D200AC31932436
:10203200903122304001AC00DE30AD00FB30AE000A
:102042000030983140209031A9314E219031400129
:102052008D1A2D2864002828A9315E219031400173
:1020620057089A312422903164009D310C25903119
:102072004001D6005608031D5B28A93194219031F6
:10208200400152087002CE005308713BCF00540841
:10209200723BD0005508733BD1005108031DB42890
:1020A2005008031DB42860304E02EA304F3B03183B
:1020B200B4283528A9319421903173084001D50004
:1020C2007208D4007108D3007008D200033056069B
:1020D2000319B42802305606031D8C280F30F00075
:1020E2000030F1005708013EF200003003180130C1
:1020F200F300A031A52090317008D70057089A311B
:102102002422903140018D1A882864008328A93145
:102112005E21903135285603031D35280C305702B5
:102122000318A5285708AC3E8600023087005708DE
:10213200AC3E8400023085000008F0005708AF3141
:1021420049279031810031280C305706031DAC28F5
:10215200AF31C12790310D3040015706031DB4281D
:10216200903101209031A7311E27080043016508F4
:102172004001A300003043016302C9300319620227
:102182000318080044014008031941080319080014
:102192004001A4012308240203180B290330F00094
:1021A2002408A93130219031353E86000330870062
:1021B200010844014206031D07294008F3000330C9
:1021C200F00040012408A93130219031333E8600CD
:1021D200033087000108AB318E239031003A031996
:1021E200072944014108F3000330F00040012408AC
:1021F200A93130219031343E860003308700010836
:10220200AB318E239031003A031D0B29013040017E
:10221200A407CB28400124082306031D16290C30ED
:102222002302031816290130A30724082306031DDD
:102232001D292308FF3EA4002408A2002208031936
:1022420053290330F0002208A93130219031303E69
:10225200860003308700403FF900413FFA00423FC9
:10226200FB000330F00040012208A93130219031F7
:10227200333E8600033087007908C03F7A08C13FA9
:102282007B08C23F40012208A03E86000230870040
:1022920022089F3E84000230850000088100013040
:1022A200A2021F29440140084601B300440141082B
:1022B2004601B400440142084601B50043016208E8
:1022C2009C3EF900FF30633DFA0001307A02003093
:1022D200031979020318762962089C3E4001A00086
:1022E200FF304301633D40017A29FF304001A000E5
:1022F2000030A10020084501A0004001230843014D
:10230200E50001304401D1000800A931D121913109
:102312004001971119114301EC014001AC01373022
:10232200AD00FB30AE000130983140209131A9312F
:102332004E21913144016208031DA2296308031D45
:10234200A6294301CA01CB01AE296308643E4301B9
:10235200CA00003003180130CB0067304101E500AC
:102362000230E60043014B084101E80043014A08FC
:102372004101E7008031972091314301D00050089C
:102382000319D029033050060319D02944016708E4
:10239200031DD0296808031969080319D2294401C9
:1023A200E2016208031D072A43015008031DE029C8
:1023B20044016708031DE4296808031DE429430159
:1023C200CC01CD01042A430162089C3EC800FF30C3
:1023D200633DC90001304902003003194802031865
:1023E200F92962089C3ECE00FF30633DCF00FD29F3
:1023F200FF30CE000030CF004E08C800C9014808A7
:10240200CC004908CD004C084401E300A9310B215E
:102412009131430163084401CC0043016208440145
:10242200CB00430163084401CA004301620844012E
:10243200C900AB316D239131FF304401EA00FF3016
:10244200EB00430163084001BF0043016208400101
:10245200BE00AC31E924913143015003031D362AF9
:1024620075304001BE00FB303E2A03305006031D8A
:10247200432A6C304001BE00FB30BF00D030C000A8
:1024820007304F2A02305006031D532A09304001FB
:10249200BE00FC30BF00E830C0000330C100AE31E6
:1024A2006A269131A831EF20913140011915971513
:1024B2004401DA01A93194217308B7007208B60009
:1024C2007108B5007008B400080043016408031DD8
:1024D200802A400168088600690887000108EC002C
:1024E2000230EC36890B722A6C08ED00EE016D08A1
:1024F2004101CC0040016E084101CD00852A013026
:102502004101CC000030CD004C08D30043016408E7
:10251200031DA22A4001680886006908870041312C
:102522000108EC000230EC36890B942A6C08ED00AD
:10253200EE016D084101CE0040016E084101CF005D
:10254200A72A01304101CE000030CF004E08D4004E
:102552005308031DAE2A0130D3005408031DB32AC9
:102562000130D400D001D201400168088600690818
:102572008700403F4101DA00413FDB00423FDC007F
:102582005308F00052088F3E8400FB300318013ECE
:1025920085000008A93130219231F300400168081A
:1025A2008600690887000108AA3198229231410108
:1025B200DA005408F0005208873E8400FB3003180A
:1025C200013E85000008A93130219231F30040011B
:1025D200680886006908870041310108AA319822FB
:1025E20092314101DB0040016808860069088700DA
:1025F200010841015A06031D092B400168088600A3
:1026020069088700413141015B08010603194F2B1C
:102612005B084001E30041015C084001E400203016
:10262200E500D530E6000030E70041015A08883164
:10263200002092314101D10051080319222B510887
:102642000800D5304001A0000030A1006B08A300B3
:102652006A08A2009C3167249231003A03194F2B79
:10266200680886006908870041015A08C03F5B0874
:10267200C13F5C08C23FD530860000308700400170
:102682006A0884006B0885000530EC0016001A0009
:10269200EC0B472B01304101D000B52A013041013A
:1026A200D20708305202031CB52A5008031DB32A70
:1026B2005303031D612B5403031D612B00300800DB
:1026C2000230F0000030F1005308013EF200003009
:1026D20003180130F300A231962292317008D30020
:1026E2000230F0000030F1005408013EF2000030E8
:1026F20003180130F300A231962292317008B22AF7
:1027020001304101CC000130CF0040016808860051
:1027120069088700403F4101D500413FD600423F52
:10272200D70040016C080319A02B41014F08F300A8
:102732005608AA31982293314101D600A92B4101B2
:102742004F08F3005508AA31982293314101D50070
:1027520040016808860069088700010841015506A2
:10276200031DBE2B400168088600690887004131BD
:102772004101560801060319E62B56084001E30001
:10278200410157084001E4002030E500D030E60066
:102792000030E700410155088831002093314101A2
:1027A200CD004D080319D72B4D080800D030400149
:1027B200A0000030A1006B08A3006A08A2009C31AF
:1027C20067249331003A031DEE2BFE304101CF07FF
:1027D2004F08803A813E0318862B41014F08803A08
:1027E200813E0318F62B003008004001680886007D
:1027F2006908870041015508C03F5608C13F570884
:10280200C23FD03086000030870040016A08840051
:102812006B0885000530ED0016001A00ED0B0D2C3B
:1028220002304101CE004E080319F42B4001680822
:10283200860069088700403F4101D500413FD6002C
:10284200423FD70040016C080319372C41014E0862
:10285200F0004F08A93130219331F30041015608AD
:10286200AA31982293314101D600462C41014E08EB
:10287200F0004F08A93130219331F300410155088E
:10288200AA31982293314101D5004001680886009F
:1028920069088700010841015506031D5B2C4001B0
:1028A200680886006908870041314101560801061F
:1028B2000319A52C56084001E300410157084001C5
:1028C200E4002030E500D030E6000030E7004101AE
:1028D20055088831002093314101CD004D08031D78
:1028E200D52BD0304001A0000030A1006B08A3001E
:1028F2006A08A2009C3167249331003A0319A52C7F
:10290200680886006908870041015508C03F5608DB
:10291200C13F5708C23FD0308600003087004001D7
:102922006A0884006B0885000530ED0016001A0065
:10293200ED0B972C41014C080319142C20304E0248
:102942000318142C4E35132C4101CC014E084001C2
:10295200ED000130ED36890BAB2C6D08122C5E08B0
:102962004001E90041015D084001E80041016008C1
:102972004001EB0041015F084001EA00923166220A
:1029820094314201AA002A080319C92C2A08080016
:10299200A9012908031DD42C41015D0886005E08A7
:1029A20087004131D92C41015D0886005E0887000D
:1029B2000108E100E20161084201A0004101620850
:1029C2004201A1002008A60043016408031DFC2C5B
:1029D200420126084101E1000230E136890BEE2C6A
:1029E2006108E200E30162084201A20041016308BA
:1029F2004201A300012D01304201A2000030A300D8
:102A02002208A6000230260203180C2D0130A40071
:102A12000030A500172D26084101E100E2016108FE
:102A22004201A400410162084201A5002408A70056
:102A32000130A80041015D0886005E088700403F22
:102A42004201B000413FB100423FB20029080319E0
:102A5200392D2708F0002808A93130219431F300DC
:102A620042013008AA31982294314201B000472D28
:102A72002708F0002808A93130219431F3004201DF
:102A82003108AA31982294314201B10041015D0816
:102A920086005E088700010842013006031D5C2D96
:102AA20041015D0886005E0887004131420131081C
:102AB20001060319B72D31084001E3004201320833
:102AC2004001E4002030E5002B30E6000130E70051
:102AD200420130088831002094314201AA002A08BC
:102AE200031DC72C30304001E8000130E9002B30D3
:102AF200EA000130EB00420129084001EC00933169
:102B0200812394314201AA002A08031DC72C2B30CD
:102B12004001A0000130A100410160084001A30072
:102B220041015F084001A2009C3167249431003AC0
:102B32000319B72D41015D0886005E088700420136
:102B42003008C03F3108C13F3208C23F2B308600F7
:102B52000130870041015F0884006008850005306C
:102B6200E10016001A00E10BB22DB02CFE3042013A
:102B7200A8072808803A813E03181B2D023027023D
:102B8200031CCD2D27084101E1000130E136890BFC
:102B9200C72D61084201182D0130A9070230290210
:102BA200031CCA2C41015D0886005E088700403F75
:102BB2004201B000413FB100423FB2000130B206D3
:102BC20031084001E300420132084001E4002030B4
:102BD200E5002B30E6000130E70042013008883181
:102BE200002094314201AA002A08031DC72C41018A
:102BF2005F08860060088700403FE100413FE20035
:102C0200423FE300433FE4000130E135E20DE30DD2
:102C1200E40D890B062E640842012E02031D212EAB
:102C22004101630842012D02031D212E4101620868
:102C320042012C02031D212E4101610842012B0297
:102C42000318472E30304001E8000130E9002B30F4
:102C5200EA000130EB009231662294314201AA006F
:102C62002A08031DC72C2B304001A0000130A1000F
:102C7200410160084001A30041015F084001A20038
:102C82009C3167249431003A031D9B2D00300800CB
:102C9200A9319421963173084101A3007208A20060
:102CA2007108A1007008A000AA304001D8000030CD
:102CB200D9000430DA00A131B621963141013C0835
:102CC2000319732E43016C08031D732E63304001F8
:102CD200BE00FB30BF00D030C0000730C100AE31B3
:102CE2006A269631AA308600003087004431403F80
:102CF2004001AD00413FAE00423FAF00433FB00054
:102D0200AA31622296312E084101A50040012D0808
:102D12004101A400240825040319922EA931D121CE
:102D220096314601270841013102031DA82E4601B2
:102D3200260841013002031DA82E46012508410143
:102D42002F02031DA82E4601240841012E0203185A
:102D5200EC2E450135084001E300E401E501E601FE
:102D62006608F3006508F2006408F1006308F000E9
:102D72000030F7000030F6000030F5000A30F400B1
:102D8200AD317125963145014408410120024001CF
:102D9200E700450145084101213B4001E8004501AA
:102DA20046084101223B4001E90045014708410133
:102DB200233B4001EA0073086A02031DEA2E7208EF
:102DC2006902031DEA2E71086802031DEA2E7008CB
:102DD2006702031C0B2FAA308600003087002030C8
:102DE20084000330850013304001E30016001A000E
:102DF200E30BF72E410123084501C70041012208D8
:102E02004501C600410121084501C50041012008D4
:102E12004501C400AA308600003087004C31403F93
:102E22004001AD00413FAE00423FAF00433FB00022
:102E320099312E2196312E084101A90040012D0819
:102E42004101A80045012F084001E300E4016408A4
:102E520041012502031D312F400163084101240273
:102E6200031C3A2F29084401CA00410128084401E1
:102E7200C90045013108F63EF000FF30031800306A
:102E8200F1000A30F2000030F300AA3147229631F5
:102E920071084101A7007008A60045013208031914
:102EA200FD2F44016208031DFD2F45012F0840013B
:102EB200E300E401640841012502031D642F40017F
:102EC200630841012402031CFD2F45013008400123
:102ED200E300E401E501E6016608F3006508F2009B
:102EE2006408F1006308F0000030F7000F30F600CC
:102EF2004230F5004030F400AD3171259631700852
:102F02004001E7007108E8007208E9007308EA006E
:102F1200AA30F0000030F100A4317D24963173080C
:102F220040016A02031D9F2F72086902031D9F2F31
:102F320071086802031D9F2F70086702031CFD2F92
:102F420041013A080319FD2F003029027930031993
:102F52002802031CFD2F260844014B074001E30011
:102F62004101270844014C3D4001E4004101290888
:102F720040016402031DC12F410128084001630280
:102F8200031CF32F4101260828074001E3004101F9
:102F92002708293D4001E40044014C084001640235
:102FA200031DD72F44014B0840016302031CF32F7A
:102FB200E730E3000330E4004101260840016302E8
:102FC200E500410127084001643BE6004101290870
:102FD20040016602031DF12F4101280840016502EC
:102FE2000318FD2F01304401DA0704305A02031C92
:102FF20008000130D90008004401DA010800710814
:103002007302031D062870087202031C0E28700842
:103012007202FA007108733B132872087002FA00F8
:103022007308713BFB0071087302031D1A287008B4
:103032007202031C20287308FD00720823287108FD
:10304200FD007008FC007D08F7007C08F600F736EA
:10305200F60CF736F60CF736F60C74087607F8001D
:103062007508773DF9007B087902031D3A287A0832
:103072007802031C3E280130080000300800B4002A
:103082003408031D4728B501B6014B281230B5009C
:103092000030B6003508BB002D0884002E088500DC
:1030A2001200031908002D0884002E08850000086C
:1030B200AB312D23983177084001B3007608B20076
:1030C200BD010A303D02031C6928B701B8017D2801
:1030D2003D08AF000130AF36890B6C282F0832074C
:1030E200840033080318013E85000008B000B101D6
:1030F2003008B7003108B8003708BC003C080F3967
:10310200AB310D239831B9003C08AF000430AF3623
:10311200890B88282F08AB310D239831BA003B0860
:10312200F3003908F4000830F5002C083D079F3100
:103132003827983140013B08083EF3003A08F40072
:103142000830F5002C083D079F31382798310130AF
:103152004001BD070C303D02031C62280130AD075F
:103162000030AE3D0C30AC074D2844015108031924
:103172000800D101A7304001A000430165084001C9
:10318200A100C6010330F0004608A9313021983170
:10319200023E203E860087010330F00040014608CF
:1031A200A93130219831333E840003308500000874
:1031B20081000330F00040014608A93130219831E6
:1031C200333EF3000330F400A931E6219831FB00CD
:1031D2000330F00040014608A93130219831033E06
:1031E200203E860087017B0881000330F000400109
:1031F2004608A93130219831043E203E86008701DD
:1032020040014608A03E840002308500000881008B
:103212000130C6070C304602031CC328C60146080B
:10322200203E860087010108F8004608303EAB3197
:10323200F323983101304001C60726304602031CB1
:1032420010292030F0002630F100AD3143259831AD
:10325200F8005630AB31F32308003008F3002F0892
:10326200F2002E08F1002D08F0009B31292399313C
:103272007108C0007008BF0010304002003003190E
:103282003F02031C4A29E7304001AD000330AE0083
:1032920008000030B1001030B2003F083102A00037
:1032A2004008323BA100A201A3010030B30010305C
:1032B200B4003F083302B5004008343BB600B636CE
:1032C200B50C3508B7003608B800B901BA013F0895
:1032D200003EF0001030403DF100F201F3010030F9
:1032E200F7000030F6000030F5006430F400AD3134
:1032F2007125993170084001B7077108B83D72080D
:10330200B93D7308BA3D3A08A7003908A600380843
:10331200A5003708A400A331312399312308BE0048
:103322002208BD002108BC002008BB003E08031D86
:1033320044293D08031D4429E8303B0203303C3B4D
:103342000318442940013C08AE003B08AD000800C8
:10335200A701A60140012708203E860087010A3006
:10336200F0000030F1007808F3007708F200AC3189
:10337200692499317008303E81000130A7070A3074
:10338200F0000030F1007808F3007708F200AD3168
:10339200D02599317108F8007008F70027087906DE
:1033A200031DDB292708203E860087012E3081007D
:1033B2000130A70777087804031DAB2979080319A0
:1033C200002A7908013EFB00003003180130FC009E
:1033D2007C08803AFD0080307D02031DF229270817
:1033E2007B02031C002AAB292608DF3E860002303E
:1033F2008700203081000130A6070130FA027A08E6
:10340200400127020318192A073026020318192A35
:10341200F5292608DF3E8600023087000130A70228
:103422002708203E84008501000881000130A6079C
:103432002708031D0A2A2608DF3E8600023087007D
:103442008101DF300800CD00AC3193249A310C3079
:1034520040014D020318762A4130F7000030F8008F
:103462004D08013EF900003003180130FA00FB015B
:10347200A631B8269A317808AB007708AA00123034
:10348200AC00FC30AD00A931FD219A31AC014130D4
:10349200AD000030AE000030A23100229A31AC0102
:1034A2004D08BE00BF01BE35BF0D94303E078400FB
:1034B20079303F3D80388500003FAD00013FAE00CE
:1034C2000130A23100229A314D08AC3E8600023012
:1034D20087000108AE004D088631AD269A31AC0155
:1034E200D430AD000230AE009D2AAC01A630AD0052
:1034F200FA30AE000030A23100229A310C304D0673
:103502000319942A0D304D0603198B2A0430CB007F
:10351200FC308E2A1330CB00FB30CC004C08CA00A2
:103522004B08C900982AF530C900FB30CA00AC012B
:103532004A08AE004908AD000130983140209A3166
:10354200A9314E2108000B302E02B83003192D028A
:103552000318AF2AB830AD000B30AE0010302E0287
:10356200693003192D02031CBA2A6830AD001030ED
:10357200AE000030A3000030A2000430A100B03041
:10358200A0002D08483EF000F4302E3DF100F2017B
:10359200F3010030F7000030F6000030F5001A3079
:1035A200F400AD3171259A3173084001A700720809
:1035B200A6007108A5007008A400A33131239A3136
:1035C2002008B0007330B200B301B101B401330876
:1035D200AF000330AF35890BEB2A2F083407F00018
:1035E2003008F1003208A2314A229A31003A031916
:1035F200042B01304001AF00340A002BAF35890B98
:10360200FF2A2F08B10401304001B4070830340208
:10361200031CE82A3308AF000330AF35890B0E2BA9
:103622002F08F3003108F4000830F50032089F310A
:1036320038279A3101304001B30704303302031CAA
:10364200E62A0130B2077E30320203180800E52A6A
:103652000030A3000030A2000030A1000030A00022
:103662004030A7000030A6000030A5000030A400C2
:1036720027087302031D472B26087202031D472BDE
:1036820025087102031D472B240870020318B72B6B
:103692000230A736A60CA50CA40C890B4A2B392B99
:1036A20020082407F4002108253DF5002208263DC4
:1036B200F6002308273DF70077087302031D6B2BE2
:1036C20076087202031D6B2B75087102031D6B2BAA
:1036D20074087002031CA92B20082407F400210897
:1036E200253DF5002208263DF6002308273DF70078
:1036F2007408F0027508F13B7608F23B7708F33B59
:103702002408F4002508F5002608F6002708F7002B
:103712002008F8002108F9002208FA002308FB001B
:103722000130FB36FA0CF90CF80C890B922B780855
:10373200F4077908F53D7A08F63D7B08F73D7708EE
:10374200A3007608A2007508A1007408A000B02B9F
:103752000130A336A20CA10CA00C890BAA2B0230BB
:10376200A736A60CA50CA40C890BB12B270826049E
:1037720025042404031D512B2108F1002008F00028
:103782000800750886000130870002300102031824
:10379200D22B75088600013087000108810AFA00E1
:1037A200312C7408860001308700403F4001A000A0
:1037B200413FA100423FA200433FA3007408053EDF
:1037C200860001308700403FA400413FA500423FF0
:1037D200A600433FA70023082702031DFA2B220855
:1037E2002602031DFA2B21082502031DFA2B2008AD
:1037F2002402031CFE2B0130FF2B0030FA0005309F
:10380200F0007A08A93130219B3174074001A000F1
:103812002008860001308700403FA100413FA200FE
:10382200423FA300433FA40078088600790887003E
:10383200403FA500413FA600423FA700433FA800EA
:1038420024082802031D2F2C23082702031D2F2CD6
:1038520022082602031D2F2C210825020318080026
:103862007608860077088700403F4001A000413F6C
:10387200A100423FA2000330F0007A08A9313021B2
:103882009B3173074001A3002308860001308700A3
:103892002008C03F2108C13F2208C23F78088600A5
:1038A200790887000530F0007A08A93130219B3170
:1038B20074074001A0002008840001308500053013
:1038C200A10016001A00A10B622C0800FF30A40010
:1038D200FF30A500FF30A6001F30A7002208860097
:1038E2002308870044312008840021088500043120
:1038F20000080107A800A901A90D290DA90CA80C0F
:10390200290DA90CA80C2808AA002908AB00003030
:10391200AB1BFF30AC00AD002A08A4052B08A5059F
:103922002C08A6052D08A70501302407B400003095
:10393200253DB5000030263DB6000030273DB700DA
:103942002208860023088700403FA400413FA500CB
:10395200423FA600433FA7004030A8000030A90024
:103962000030AA000030AB00200886002108870042
:10397200403FAC00413FAD00423FAE00433FAF008D
:103982002208860023088700403FB000413FB10073
:10399200423FB200433FB3000830B336B20CB10C21
:1039A200B00C890BCE2C3308F3003208F200310838
:1039B200F1003008F0003708F7003608F600350845
:1039C200F5003408F400AD3171259C3170084001D6
:1039D200AC077108AD3D7208AE3D7308AF3D2C08CF
:1039E200A8072D08A93D2E08AA3D2F08AB3D2708A0
:1039F2002B02031D062D26082A02031D062D25086B
:103A02002902031D062D2408280203180A2D01305D
:103A1200080000300800430168080319152D6808E2
:103A2200F400E801740808008B1340016F08F100EC
:103A320044015808F300D80143016A08F000440128
:103A42005708F200D7018B17F40173080319492DA7
:103A520043016908031D332DFA307302031C332D11
:103A62000330442D6908031D3C2D19307302031CD9
:103A72003C2D0230442D6908031D452D033073028D
:103A8200031C452D0130F4004401D6014301E90134
:103A920019307102031C5B2D43016908031D5B2D64
:103AA2000130E90074080319592D0230E8005B2D3A
:103AB2000230F400FA307102031C6E2D44015608E4
:103AC200031D6E2D0130D600740803196C2D0330CE
:103AD2004301E8006E2D0330F40072080319872DAC
:103AE20002307202031C852D0A3072020318852DE2
:103AF20043016808031D852D74080319832D0430C2
:103B0200E800852D0430F4004401D5011430700220
:103B1200031CA12D44015508031DA12D40010F1DB9
:103B2200A12D01304401D5007408031D9B2D0530E1
:103B3200F400A12D43016808031DA12D0530E80002
:103B42007108031DAB2D7308031DAB2D4401D60173
:103B52004301E9017008031D132D7208031D132D83
:103B62004401D501132DF80045012E08F7000E304F
:103B720043016E02D93003196D020318C22D0130C0
:103B8200F7077818C72D40019917C92D40019913DD
:103B9200F818CE2D40011917D02D400119137819AC
:103BA200D52D40019916D72D40019912F819DC2D17
:103BB20040011916DE2D40011912781AE32D400139
:103BC2009817E52D40019813F81AEA2D40011817AD
:103BD200EC2D40011813781BF12D40019816F32D9E
:103BE200400198127318F82D40019616FA2D4001E3
:103BF2009612F318FF2D40019A14012E40019A10DB
:103C02007319062E40019617082E40019613F319D8
:103C12000D2E400116170F2E40011613731A142E83
:103C220040011814162E40011810F31A1B2E4001E1
:103C320098141D2E40019810731B222E4001181556
:103C4200242E40011811740803192A2E40011A1457
:103C52002C2E40011A1099157708F500F601750807
:103C6200F0007608F100A9316E219D3140019911D1
:103C72001A30890B3A2E0032400118127708F500EB
:103C8200F6017508F0007608F100A9316E219D3128
:103C9200400118167708F500F6017508F00076085D
:103CA200F100A9316E219D310F3040019905183084
:103CB200980596129A10961316131A100530F000F2
:103CC2000030F100A9316E219D3178087F3944011D
:103CD200E70073087F39E80074080319722E013077
:103CE200732E0030E9000800B200BA013A08AC3184
:103CF20040249E3100304001B7000030B600003051
:103D0200B5000030B400B3017C0833020318BB2EA7
:103D1200320841019E003530890B8D2E0000410191
:103D220013141318922E0D084001B90041010C081A
:103D32004001B80003303902E93003193802031C8C
:103D4200A62E02303A06031DBB2E03303902FF3085
:103D520003193802031CB02E01304401D200400185
:103D62003808B4073908B53D0030B63DB73D0130DB
:103D7200B307852E33087C060319052F0130BA07D5
:103D8200772E0330B435B50DB60DB70D890BC32EA2
:103D92000D2F0430B435B50DB60DB70D890BCB2EF2
:103DA2000D2F43016D08F0006E08F100F201F301DE
:103DB20040013708F7003608F6003508F5003408E8
:103DC200F400AD3171259E3170084001AD007108DB
:103DD200AE007208AF007308B0000A30B036AF0C04
:103DE200AE0CAD0C890BEF2E0330AD35AE0DAF0D21
:103DF200B00D890BF62E3008B7002F08B6002E083A
:103E0200B5002D08B4000D2F3A08003A0319C22E4E
:103E1200013A0319CA2ED22E7C08AD00AE01AF01C1
:103E2200B0013008A3002F08A2002E08A1002D081F
:103E3200A0007C08B1000130B136890B1D2F31087A
:103E42003407A40035080318350F0310A5003608FF
:103E52000318360F0310A60037080318370AA70005
:103E6200A33131232108FD002008FC000800FD00D9
:103E72007308A0000330A036890B3C2F2008FC00F9
:103E820073080739FB000130A000750A492FA035DD
:103E9200890B482F2008FF3EFA007A08A000A101F2
:103EA2007B0A552FA035A10D890B532F2008F60050
:103EB2002108F70074087A05A000A1017B0A632F8C
:103EC200A035A10D890B612F2008F8002108F90007
:103ED20080307D020318080004307C020318AD2FE5
:103EE2007C08A000A1010730A035A10D890B752F18
:103EF200F030A2002C30A30020082207A4002108E1
:103F0200233DA5007D08240786000030253D87005B
:103F12007C08A600A7010730A635A70D890B8D2FB7
:103F2200F030A8002C30A90026082807AA0027088C
:103F3200293DAB007D082A07840000302B3D850017
:103F420076090005780481007D08F0007D08F10003
:103F52007C08AB31AF239F317B08031908007C0832
:103F6200013EA000003003180130A1002108803A70
:103F7200A20080302202031DC02F04302002031849
:103F820008007C084001A000A1010730A035A10D66
:103F9200890BC72F7030A2002D30A3002008220702
:103FA200A4002108233DA5007D08240786000030D7
:103FB200253D87007C08A600A7010730A635A70D7E
:103FC200890BDF2F7030A8002D30A90026082807A2
:103FD200AA002708293DAB007D082A07840000308B
:103FE2002B3D850077090005790481007D08F000EA
:103FF2007D08F1007C08013EAB31AF230800203080
:104002008600033087004431403F4001AD00413F0C
:10401200AE00423FAF00433FB000AA316222A0315E
:104022002E08BF002D08BE00A331D423A0314401C5
:104032004A084001BF00440149084001BE00AC31BA
:10404200E9240800A0000230F7072008B03EA100D2
:1040520077080F39A2007708FB000430FB36890B82
:104062002F287B081038A3002130F3000030F40021
:104072000330F500AB31D123A0314001A400A931B6
:10408200A821A0317830AE310226A0314001A4042B
:104092004030AE310226A0310130FA027A0A031909
:1040A2005F2878088400790885000008AE3102266E
:1040B200A0310130F8070030F93D4D28A9318121A6
:1040C2004001240808005A304001A200A530A00097
:1040D200A101FF30F0000030F1002108703E8400A1
:1040E200F7300318013E85000008F800220878071F
:1040F200F200F301F30DA031A520A0317008A20057
:10410200FF30F0000030F10020082207F200F30136
:10411200F30DA031A520A0317008A0000130A10745
:104122000C302102031C6A282208F800F901200839
:10413200FA00FB017A08FB00FA0178087A04F6001B
:1041420079087B04F7000800F501F31FAF28F20994
:10415200F309F20A0319F30A0130F500F11FB62838
:10416200F009F109F00A0319F10A70087104031940
:10417200DB280130F400F11BC6280130F035F10DC7
:10418200890BBF280130F407BC2871087302031D94
:10419200CC2870087202031CD2287008F20271083F
:1041A200F33B0130F136F00C890BD3280130F402D5
:1041B200031DC62875080319E328F209F309F20A58
:1041C2000319F30A7308F1007208F000080074087A
:1041D200F6007308F5000730F636F50C890BED286A
:1041E2002530F0007308A9313021A0317506FB009B
:1041F2000F297B08F500F601F535F60DF030F700D2
:104202002A30F8007508770786007608783D87001F
:104212001600010403192A290130FB077B08F50067
:10422200F601F535F60DF030F7002A30F800750882
:10423200770786007608783D8700403FF900413FC6
:10424200FA0074087A06031D282973087906031DEB
:10425200FA287B0808000030AA31EE22A131400181
:104262001716971550010C108B134E0196127E01F2
:10427200C9164E0116166430F0000030F100A93163
:104282006E21A1317E01CA1263000000FD015A298C
:1042920040018D1A5E2905304001AA000F30A900A5
:1042A200F130890B5229A90B5229AA0B522901304C
:1042B200FD0710307D02031C492910307D06031DC5
:1042C2003C294E0116127E01C912CA124E018C12ED
:1042D20096168B1750010C14A43127240800F700FE
:1042E2007308F4000430F436890B74290A3074021E
:1042F200031882290F307305F4000A307402031C7C
:104302008B297708CB3E8400FA300318013E8500E2
:10431200000808000F307305F4000A30F00073083B
:10432200F5000430F536890B93297508A93130213F
:10433200A1317407F6007708E33E8400FA300318CF
:10434200013E850000087602031C82297708D73EC9
:104352008400FA300318013E85000008F400760854
:104362007402031C82297608080064004401D20109
:1043720040015A08FC0008309E317526A1317D08A3
:10438200DC007C08DB005A08FC000A309E317526EE
:10439200A1317D08DE007C08DD005A08FC000A30ED
:1043A2009E317526A1317D08E0007C08DF005A08A5
:1043B200FC0008309E317526A1317D08E2007C08A0
:1043C200E1005908AE005808AD005C08B0005B0877
:1043D200AF005E08B2005D08B1006008B4005F087B
:1043E200B3006208B6006108B5008C31DB245808BE
:1043F2008600870152314401520881000800B3004F
:104402002D0884002E0885001200031908002D08CB
:1044120084002E0885000008AB312D23A2317708D5
:104422004001B2007608B100B60105303602031C25
:104432001D2AB401B5012B2A36083107840032083F
:104442000318013E85000008AF00B0012F08B40038
:104452003008B5003308AF000330AF35890B2E2A80
:104462002F08F3003408F4000830F5002C08360752
:104472009F313827A23101304001B607063036029B
:10448200031C162A0130AD070030AE3D0630AC07E2
:10449200012AF6000230700203185C2AF501763018
:1044A2007602031C5A2A7B30760203185A2A0130FC
:1044B200F500750808000230700603196C2A1F30D7
:1044C200700603196C2A75307602031C6C2A7C3044
:1044D2007602031C6E2A0130080075307606031935
:1044E2007E2A7B30760603197E2A03307006031972
:1044F2007E2A1E307006031D802A0030080000301C
:10450200F30071081D3CF200031CF3037308803AA8
:10451200F40080307402031D902A7008720203189E
:10452200942A0130080000300800F501F11FA02A8A
:10453200F009F109F00A0319F10A0130F500F31F3D
:10454200A92AF209F309F20A0319F30A0130F5065E
:10455200F601F701700871040319D62A0130F4003C
:10456200F11BBB2A0130F035F10D890BB42A013061
:10457200F407B12A0130F635F70D890BBC2A710810
:104582007302031DC62A70087202031CCD2A70082A
:10459200F2027108F33B76140130F136F00C890B0C
:1045A200CE2A0130F402031DBB2A75080319DE2A44
:1045B200F609F709F60A0319F70A7708F1007608EF
:1045C200F000080001304001A500AB314D23A231BB
:1045D2004001A701042B6030F300F930F4001C30D5
:1045E200F500AB31D123A2314001A5002508031902
:1045F200012B6430F0000030F100A9316E21A231AC
:1046020001304001A7070A30270203180B2B2508A7
:10461200031DEC2AA601A7012708FE3EF7000F3072
:10462200F800FA30F9001030FA002608A0312320F1
:10463200A2311030A70780302702031C0D2B013056
:10464200A60708302602031C0C2B2F30F300FC3087
:10465200F400F501F50AAB31D1234001A5040800AD
:104662000030AB000030AA000030A9000030A800E2
:1046720023082204210420040319782B0130AC0002
:10468200A31B4D2B0130A035A10DA20DA30D890B4B
:10469200442B0130AC07412B0130A835A90DAA0DDE
:1046A200AB0D890B4E2B23082702031D622B220818
:1046B2002602031D622B21082502031D622B2008FE
:1046C2002402031C6D2B2008A4022108A53B22080A
:1046D200A63B2308A73B28140130A336A20CA10C49
:1046E200A00C890B6E2B0130AC02031D4D2B2B0845
:1046F200A3002A08A2002908A1002808A000080097
:104702005008013E0F39D0000130CF074F08400159
:10471200A00044015C084001A1005C30F3000230BB
:10472200F400A931E621A3314001A200440162084C
:104732004001A30044015F084001A4005F30F30080
:104742000230F400A931E621A3314001A500440161
:1047520063084001A6002030F0000730F100AD31BF
:104762004325A3314001A70044015008FB00033058
:10477200FB35890BB92B7B08603E4001A800A901DB
:104782002908203E860087010108F8002808290729
:10479200AB31F323A33101304001A90708302902CC
:1047A20003180800C12B44016D0840013F06031D98
:1047B200DE2B44016C0840013E06031908003F0845
:1047C2004401ED0040013E084401EC00003040018C
:1047D2003F02643003193E020318032C3C30AC0044
:1047E2003F08F8003E08F700F901F90A0330FA0021
:1047F2009931A921A331AD000230AE0000309831C9
:10480200402008000A30F0000030F1003E08053E6A
:10481200F20000303F3DF300AD31D025A3317108E5
:10482200C1007008C0003C30AC004108F8004008EC
:10483200F700F9010330FA009931A921A331AD0043
:104842000230AE0000309831402008004001A6013D
:10485200A7010030AC314024A4314001A801093045
:1048620041019E003530890B342C000041011314A4
:104872001318392C0D084001A50041010C08400114
:10488200A4002408A6072508A73D0130A807083080
:104892002802031C302C0430A0000030A10000309C
:1048A200A2000030A3002608F0002708F100F20160
:1048B200F3010030F7000030F6000030F5000B3055
:1048C200F400AD317125A43170084001A0077108D0
:1048D200A13D7208A23D7308A33D0330A336A20C8A
:1048E200A10CA00C890B6F2C21084301EE004001A2
:1048F20020084301ED00080070088600870144315A
:10490200403FF400413FF500423FF600433FF700CD
:104912007008860087014831403FF800413FF900A6
:10492200423FFA00433FFB0077087B02031DA32CA2
:1049320076087A02031DA32C75087902031DA32CA5
:1049420074087802031CAE2C0030F3000030F20031
:104952000030F1000030F000080070088600870186
:104962004831403FF400413FF500423FF600433FEB
:10497200F7007008860087014431403FF800413F4C
:10498200F900423FFA00433FFB007408F802750841
:10499200F93B7608FA3B7708FB3B7B08F3007A0881
:1049A200F2007908F1007808F00008004001AF0039
:1049B2002F082C3E8600023087000108AE002F0827
:1049C200283E8600023087000108AD002F082C3EE9
:1049D200860002308700FF3081002F08283E8600C3
:1049E2000230870081012E082D02031C08002E08C8
:1049F200F7002F08A500A6010730A535A60D890BE3
:104A0200FE2CF030A7002C30A80025082707A900AB
:104A12002608283DAA002E082907AB0000302A3DAF
:104A2200AC002B08F8002C08F9002E082D02013EDC
:104A3200FA002F08A0312320A431003A0319312DA6
:104A4200A931BC21A43101304401D40705305402FC
:104A5200031C2E2D0130D3000800AB314D2308007A
:104A62004401D40108000030FB000030FA0000309D
:104A7200F9000030F800730872047104700403191D
:104A8200522D73087702031D502D72087602031D02
:104A9200502D71087502031D502D70087402031CFD
:104AA2005B2D0130F3000030F2000030F1000030E5
:104AB200F0000800FC010130F435F50DF60DF70D9C
:104AC200890B5D2D0130F835F90DFA0DFB0D890BBF
:104AD200642D73087702031D782D72087602031D78
:104AE200782D71087502031D782D70087402031C5D
:104AF200832D7008F4027108F53B7208F63B7308C7
:104B0200F73B78140130FC0718307C02031C5C2D43
:104B12007B08F3007A08F2007908F1007808F000C7
:104B220008004108860042088700403F4401C00057
:104B3200413FC100423FC200013040014302003008
:104B4200443B0030453B0130463B0318B82D400141
:104B520046084501C300400145084501C200400125
:104B620044084501C100400143084501C02D013000
:104B72004501C3000030C2000030C1000030C00057
:104B820043084001B000450142084001AF00450121
:104B920041084001AE00450140084001AD00993195
:104BA2002E21A5312E084301E30040012D084301C7
:104BB200E2004001410886004208870041310108B5
:104BC200F300410886004208870042310108F400E0
:104BD200410886004208870001089D31B42508007B
:104BE2004001CB004B080319062E44016208031D45
:104BF200062E6708DF006808E0006908E10001305E
:104C0200E200F301F4010030142E40014B08031DB1
:104C120008004401620803190800E2016008F30079
:104C22006108F4005F089D31B425A531A9310B213B
:104C3200A53144016208031D352E6308031D252E8C
:104C42004001C701C8012D2E6308643E4001C70020
:104C5200003003180130C80048084401CC0040016C
:104C620047084401CB00372ECB01CC01AB316D2379
:104C7200A53144016208031D432EEA304001C900F8
:104C8200FB30472ED1304001C900FB30CA004A0830
:104C9200BF004908BE002030C0000330C100AE3161
:104CA2006A26DA0108004001A901A801AA01AB01A4
:104CB2002030F8002B08AD311625A631003A031931
:104CC200742E4001290803196E2E2008FD002808C1
:104CD200FD0280307D020318742E2008A8002B08E4
:104CE200AA000130A90001304001AB0710302B02AD
:104CF200031C592E2908031D842E0F304401D000B5
:104D0200CF01003008002030F8002A08AD31162506
:104D1200A63140012A084401D00040012008440184
:104D2200CF005C30F3000230F40040012108F500AE
:104D32002208F600AA31B422A63140012308031941
:104D4200A42E0130A52E00304401E2005F30F300B2
:104D52000230F40040012408F5002508F600AA31CB
:104D6200B422400126084401E3000130080040015A
:104D7200A90140012908233E860087010A30F0007C
:104D82000030F1007A08F3007908F200AC316924AE
:104D9200A6317008303E81000130A9070A30F000C8
:104DA2000030F1007A08F3007908F200AD31D02525
:104DB200A6317108FA007008F90029087B06031D64
:104DC200EA2E2908233E860087012E308100013019
:104DD200A90779087A04031DBA2E7B080319142F38
:104DE2007B08013EA000003003180130A100210819
:104DF200803AA20080302202031D012F29082002DE
:104E0200031C142FBA2E7708860078088700013019
:104E1200A9022908233E840085010008810001308F
:104E2200F7070030F83D40012908031D042F7708D9
:104E320086007808870081010800A0316420A7312C
:104E42007708B3007608B200AA317D22A73140016B
:104E5200B4013408233E860087013408203EA8317D
:104E6200FF20A731810001304001B4070F30340226
:104E7200031C2A2F5E302306031D08003308240674
:104E8200031D080025083206031D08002F30A83133
:104E9200FF20A731FD002330F0000F30F100AD31CB
:104EA2004325A7317D06031D08004001B4013408E3
:104EB200033E233E860087013408E33E8400FA3035
:104EC2000318013E850000080102031C862F3408E6
:104ED200033E233E860087013408D73E8400FA3021
:104EE2000318013E85000008FD0001087D02031C35
:104EF200862F3408AC3E8600023087003408033E19
:104F0200233E84008501000881000130B4070C3083
:104F1200340203180800582FE5014401D101400171
:104F2200C6014608203E860087014608303EA83169
:104F3200FF20A731810001304001C607263046021A
:104F4200031C922FA7302006031D08000D302102FA
:104F5200031808005630A831FF20A731F80020308E
:104F6200F0002630F100AD314325A7317806031D4C
:104F720008004001C6010330F0004608A931302183
:104F8200A731333EF3000330F4000330F000400158
:104F92004608A9313021A731023E203E8600870112
:104FA2000108F5000330F00040014608A931302124
:104FB200A731033E203E860087010108F600AA3190
:104FC200B422A73140014608A03E86000230870085
:104FD2000330F0004608A9313021A731043E203EBB
:104FE200840085010008810001304001C6070C30B1
:0E4FF2004602031CBC2F21084301E500080005
:1051DE00A931BC210800430167080800F0007008DF
:1051EE004301E8000800FF34FF34FF34FF34FF347E
:1051FE00F00050019E1800291E1770309B00700899
:10520E009A001E141C0808006708DC006808DD0000
:10521E006908DE00A3318123A9319831B620080038
:10522E006400800101310130FE020030FF3B7F0837
:10523E007E040319003418294301EC014001420891
:10524E00BF004108BE00AC31E924A931A9314E217D
:10525E000800F200F101721C36297008F1070310E4
:10526E00F00D0310F20C7208031D322971080800AC
:10527E00410193019401950196019D019C019B01B1
:10528E00143093009317FF304401EE0008004301E1
:10529E00670803190800FC017C08A431D724A93142
:1052AE000130FC0704307C020318080053298B13CD
:1052BE004401D801D7018B174301E80101304401A5
:1052CE00D6004301E90001304401D5000800013049
:1052DE00F0020030F13B700A0319710A031908003D
:1052EE0064000B30F2006230890B7B29F20B7B29B4
:1052FE0000326E29400116111A30890B84290032B2
:10530E00400196151A30890B8A2900324001161574
:10531E001A30890B9029003208008B13440127089C
:10532E00F7002608F6002508F5002408F4008B1770
:10533E007708F3007608F2007508F1007408F000A3
:10534E0008004001161596151A30890BAC2900324B
:10535E00400116111A30890BB22900324001961104
:10536E001A30890BB82900320800F00170082C3E63
:10537E0086000230870081017008283E86000230C8
:10538E0087007F3081000130F0070430700203186F
:10539E000800BD29A9319421A9317308B7007208FC
:1053AE00B6007108B5007008B400A831F220A9311A
:1053BE00003A031D08000130AA31EE2208007308DE
:1053CE0086007408870042310108031DF129F5019A
:1053DE00F601F5298030F5000030F60073088600DE
:1053EE007408870041310108750408002B088700F6
:1053FE002A088600AA0A0319AB0A2D08FD002C08FC
:10540E00FC00AC0A0319AD0A7C0884007D088500F7
:10541E000008C03F890803190800FD299D310C259D
:10542E00AA31F60003307606031D222A7608A8312B
:10543E00F520013008000130F500760303192C2AFF
:10544E000230760603192C2AF50175080800470864
:10545E00BF004608BE004908C1004808C000AE3172
:10546E006A26AA31A9314E21AA3140014908F1001C
:10547E004808F000A9316E21AA318731EC270800C7
:10548E00F401F501701C4F2A7208F4077308F53DFC
:10549E000130F235F30D890B502A0130F136F00C44
:1054AE00890B552A70087104031D492A7508F100ED
:1054BE007408F00008000030A3000130A20086300E
:1054CE00A100A030A00050302D07A400C3302E3D07
:1054DE00A50000302F3DA6000030303DA700A331BF
:1054EE0031232108AE002008AD000800F80178082D
:1054FE00AC3E8600023087007808703E8400F7309C
:10550E000318013E85000008F3007808A1317021D0
:10551E00AA3181000130F8070C3078020318080018
:10552E007E2AF50075087307F600F7010318F70ACF
:10553E00F31BF703F71FA52A003008007708803AFF
:10554E00F40080307402031DAE2A80307602031CF4
:10555E00B22A7F30080076080800730886007408A7
:10556E00870075087F3981007308860074088700EC
:10557E00413176087F3981007308860074088700F0
:10558E0042317608F7000730F736890BCB2A7708B9
:10559E00810008000130AA31EE22AA31AD31A025DA
:1055AE00AA318D1ADD2A90310A20AA31AE31D826C1
:1055BE00AA31A9315E21AA31A93194217308B7000D
:1055CE007208B6007108B5007008B4000800FC003F
:1055DE007C08031DF92A400116129611161143017B
:1055EE00E701080040011616C830F0000030F10047
:1055FE00A9316E21AA314401D401A231E322AA318C
:10560E0001304301E700A931BC210800F100F2018D
:10561E00F3010130F000730A152BF035890B142BB2
:10562E00700871050319252B0330F0007335890AB4
:10563E00212BF035890B202B7008F2040130F30773
:10564E0004307302031C102B72080800FC007C0847
:10565E00E03EFD0060307D020318FD017D08F8007C
:10566E00F9017808F0007908F1000530F2000030F9
:10567E00F300AA3147228030FA00F730FB007008A1
:10568E007A07F60071087B3DF700080040011615F9
:10569E0096151A30890B512B0032F001662B400102
:1056AE000C196A2B96111A30890B5B2B00324001B4
:1056BE0096151A30890B612B00320130F007093034
:1056CE007002031C562BA931812108004401620887
:1056DE00031D762B6B304001BE00FA307A2B1A3048
:1056EE004001BE00FC30BF00AC013F08AE003E08DA
:1056FE00AD00013098314020AB312A30AC002D3056
:10570E00AD00FC30AE000130983140200800F800AA
:10571E00780873020318982B73087802F70078083C
:10572E009C2B78087302F7007308F5000130F60021
:10573E0003307702031CAD2B7508F4000330F436EA
:10574E00890BA62B77087402031CF6017608080055
:10575E00F20072082C3E86000230870001087002AB
:10576E000318C02B72082C3E86000230870070088A
:10577E0081007208283E86000230870071080102FF
:10578E00031808007208283E860002308700710850
:10579E0081000800A931A821AB317830AE31022644
:1057AE00AB31F6000030AE310226AB310130F502DE
:1057BE00750A0319EF2B730884007408850000081E
:1057CE00AE310226AB310130F3070030F43DDD2B54
:1057DE00A931812176080800FA007A08A831FF2045
:1057EE00AB317806031908001E1770309B007A083B
:1057FE009A0078089C000B0D0B0D0139F9008B13E4
:10580E001E1555309F00AA309F009E14790C031C64
:10581E008B1303188B17142C640050019E18132C35
:10582E001E110800FC007008F200F3017C08F40061
:10583E00F5010730F435F50D890B212C7108F600B2
:10584E00F7010E30F635F70D890B292C7408760406
:10585E00F80075087704F90072087804FA007308E6
:10586E007904FB0000307A04F00080307B04F100F4
:10587E000800F200720844016E060319080072084F
:10588E00EE0002307206031D4F2C41019A01642C6A
:10589E0072080319542C0230552C0130F0000030E0
:1058AE00F10052010C087006FC3970068C008C1742
:1058BE000C1F5F2C033041019A00A0300032890B7F
:1058CE00652C08007008710403198E2C0130F40049
:1058DE00F11B792C0130F035F10D890B722C013052
:1058EE00F4076F2C71087302031D7F2C700872026F
:1058FE00031C852C7008F2027108F33B0130F1365F
:10590E00F00C890B862C0130F402031D792C7308E0
:10591E00F1007208F0000800F701F8017708F100B5
:10592E00F2010730F135F20D890B992CF030F300AE
:10593E002C30F40071087307F5007208743DF60000
:10594E007808750786000030763D870081010130AA
:10595E00F80780307802031C952C0130F7070430CD
:10596E007702031C942CA931BC2108004001C3010D
:10597E00450136080319E62C7C0886007D08870051
:10598E00403F4001AD00413FAE00423FAF00433FBC
:10599E00B00099312E21AC3145013608643E4001EC
:1059AE00C100003003180130C2002E084202031D50
:1059BE00E22C2D084102031CE62C0130C3004001ED
:1059CE004308080044016B0840013F06031DF32CF9
:1059DE0044016A0840013E060319080043016C08A1
:1059EE00031D080040013F084401EB0040013E0842
:1059FE004401EA003C304001AC003F08F8003E088C
:105A0E00F7000230F9000430FA009931A921AC31C7
:105A1E00AD000230AE000130983140200800FA008F
:105A2E007A08F9000330F935890B1A2D7908603E92
:105A3E00FB00FC0178087C07860087017B087C0749
:105A4E00A831FF20AD3181000130FC0708307C0207
:105A5E00031C212D7808073E840085017808F0008C
:105A6E000730F100AD314325AD310006031D412D48
:105A7E0001300800003008005A30F7000130F10202
:105A8E00710A03196F2D7008860087010108F70649
:105A9E000130F007F601F71B5B2D7708F200F301DA
:105AAE007235F400730D652D7708F200F301F235AF
:105ABE00F30D07307206F40000307306F50074081B
:105ACE00F7000130F607083076020318452D522DE7
:105ADE00770808000030FB000030FA000030F900B3
:105AEE000030F800701C832D7408F8077508F93D16
:105AFE007608FA3D7708FB3D0130F435F50DF60DCD
:105B0E00F70D890B842D0130F336F20CF10CF00CED
:105B1E00890B8B2D7308720471047004031D792D8B
:105B2E007B08F3007A08F2007908F1007808F0009B
:105B3E000800AC319324AD311C304001AC00CA30AA
:105B4E00AD00FB30AE00003098314020AD311F303B
:105B5E00AC000730AD00FB30AE000230A2310022A7
:105B6E00AD310D30AC00FD30AD00F930AE0003307C
:105B7E00A2310022AD31A9314E21AD314001971134
:105B8E00B830F0000B30F100A9316E2140019715AD
:105B9E000800F401F501700871040319FD2D0130A0
:105BAE00F600F11BE22D0130F035F10D890BDB2DE6
:105BBE000130F607D82D0130F435F50D890BE32DA4
:105BCE0071087302031DED2D70087202031CF42D73
:105BDE007008F2027108F33B74140130F136F00CC8
:105BEE00890BF52D0130F602031DE22D7508F1002B
:105BFE007408F0000800F000F201F01F092E4001B9
:105C0E0016150B2E400116111A30890B0C2E003270
:105C1E00400196151A30890B122E00324001961152
:105C2E000310F00D0130F20708307202031C042E2F
:105C3E0016151A30890B212E0032400196151A3096
:105C4E00890B272E003240010C0C890C0139F10012
:105C5E0096111A30890B312E00327108080040015E
:105C6E00CA01CB0150019318402E4001CA01CB014D
:105C7E00572E1318472E7E304001CA00FB30562E89
:105C8E00131A4E2E9F304001CA00FB30562E931B26
:105C9E00522E131F572E50304001CA00FB30CB003E
:105CAE003F305001930040014A084B04031908008D
