:0400000080313A28E9
:100008007E14803100308600003087004E018C1E3F
:1000180038288C1201304001DF070030E03DE13D17
:10002800E23D0130E7070A306702031C3828E70180
:100038008D1A2428660A03192A280130E6072A2877
:10004800660803192A286608E400E6018F18322892
:10005800650A031938280130E507382865080319A7
:1000680038286508E300E5017E10090080313C2846
:10007800873136278031E900873137278031EA0018
:10008800873138278031EB005F30840000308500ED
:100098000A30873130278031B6308400003085003F
:1000A8000C30873130277E1040018331362B0130E8
:1000B800C7000030C8000030C9000030CA00450839
:1000C800CB004608CC00CD01CE013F08CF00400848
:1000D800D000D101D2014F08CB075008CC3D5108C0
:1000E800CD3D5208CE3D4B08C7074C08C83D4D08CA
:1000F800C93D4E08CA3D0130CA36C90CC80CC70CE8
:10010800890B80283D0886003E0887004708C03FC5
:100118004808C13F0130C7000030C8000030C9009E
:100128000030CA004308CB004408CC00CD01CE0102
:100138004108CF004208D000D101D2014F08CB07B7
:100148005008CC3D5108CD3D5208CE3D4B08C7075D
:100158004C08C83D4D08C93D4E08CA3D0130CA3655
:10016800C90CC80CC70C890BB3283D088600870149
:1001780042314708C03F4808C13F3D0886003E0855
:100188008700403FAD00413FAE008131F921803109
:100198003D088600870144312D08C03F2E08C13F25
:1001A8002F08C23F3008C33F3D088600870142310F
:1001B800403FAD00413FAE008131F92180313D081B
:1001C8008600870148312D08C03F2E08C13F2F08FF
:1001D800C23F3008C33F3D08860087014431403F95
:1001E800F000413FF100423FF200433FF3003D0879
:1001F800860087014831403FF400413FF500423F07
:10020800F600433FF7008431312480313D088600F1
:1002180087014C317008C03F7108C13F7208C23F66
:100228007308C33FD3014008F1003F08F0004608B7
:10023800F3004508F2001830F4000030F50085316D
:10024800B2258031003A03193D294208F1004108DE
:10025800F0004408F3004308F2001830F4000030BE
:10026800F5008531B2258031003A03193D29013066
:10027800D3003D08860087015031530881000800EB
:10028800B200BA013A0886315A268131003040015D
:10029800B7000030B6000030B5000030B400B3013C
:1002A8007C08330203187F293208873101278131FE
:1002B80071084001B9007008B80003303902E9300C
:1002C80003193802031C6C2902303A06031D7F29E2
:1002D80003303902FF3003193802031C7529013035
:1002E800E8003808B4073908B53D0030B63DB73DD9
:1002F8000130B307542933087C060319C629013095
:10030800BA0746290330B435B50DB60DB70D890BBC
:100318008729CE290430B435B50DB60DB70D890B34
:100328008F29CE296908F0006A08F100F201F3016B
:100338003708F7003608F6003508F5003408F400E9
:1003480086312B2681317008AD007108AE00720825
:10035800AF007308B0000A30B036AF0CAE0CAD0C6D
:10036800890BB0290330AD35AE0DAF0DB00D890B3B
:10037800B7293008B7002F08B6002E08B5002D0899
:10038800B400CE293A08003A03198629013A03191C
:100398008E2996297C08AD00AE01AF01B001300866
:1003A800A3002F08A2002E08A1002D08A0007C0899
:1003B800B1000130B136890BDE2931083407A400B9
:1003C80035080318350F0310A50036080318360F33
:1003D8000310A60037080318370AA70084318F24B2
:1003E8002108FD002008FC0008002D08F0002E0858
:1003F800F100F201F3012D08F4002E08F500F601D2
:10040800F70186312B2681317008B1007108B200DE
:100418007208B3007308B4000630B436B30CB20CDB
:10042800B10C890B112A3408B8003308B700320818
:10043800B6003108B5002D08F0002E08F100F201D1
:10044800F30141013D084001B100B201B301B4011B
:100458003408F7003308F6003208F5003108F400D4
:1004680086312B2681317308BC007208BB007108E5
:10047800BA007008B9003C08F3003B08F2003A08DB
:10048800F1003908F0000030F7000030F6000030C5
:10049800F5001930F40086312B2681317008B1003F
:1004A8007108B2007208B3007308B4000130B436A2
:1004B800B30CB20CB10C890B5B2A0030A3000030DE
:1004C800A2000030A1006430A00041013E08643E53
:1004D800F000003003180130F100F201F11BF203C3
:1004E8007208F30040013808F7003708F6003608AC
:1004F800F5003508F40086312B2681317308A700F2
:100508007208A6007108A5007008A40084318F2421
:100518002008B1072108B23D2208B33D2308B43DA5
:100528003408B0003308AF003208AE003108AD001F
:1005380008000030A3000030A2000030A100003005
:10054800A0004030A7000030A6000030A500003011
:10055800A40027087302031DBB2A26087202031D84
:10056800BB2A25087102031DBB2A24087002031840
:100578002B2B0230A736A60CA50CA40C890BBE2A7F
:10058800AD2A20082407F4002108253DF50022089B
:10059800263DF6002308273DF70077087302031D60
:1005A800DF2A76087202031DDF2A75087102031D0F
:1005B800DF2A74087002031C1D2B20082407F4008E
:1005C8002108253DF5002208263DF6002308273D91
:1005D800F7007408F0027508F13B7608F23B7708DB
:1005E800F33B2408F4002508F5002608F600270840
:1005F800F7002008F8002108F9002208FA0023086B
:10060800FB000130FB36FA0CF90CF80C890B062BB1
:100618007808F4077908F53D7A08F63D7B08F73D38
:100628007708A3007608A2007508A1007408A00046
:10063800242B0130A336A20CA10CA00C890B1E2B75
:100648000230A736A60CA50CA40C890B252B27086D
:10065800260425042404031DC52A2108F1002008C6
:10066800F00008008531F22583318631C0268331B8
:1006780087311227833150010C148631DA268331F1
:1006880073084101A3007208A2007108A100700854
:10069800A0006400410123084001A3004101220891
:1006A8004001A200410121084001A10041012008A8
:1006B8004001A0000030A7000030A6000330A500CC
:1006C800E830A400863182268331003A03194D2B85
:1006D800E8304101A0070330A13D0030A23D0030C1
:1006E800A33D85316D258331A430D4000030D50079
:1006F8001030D6008431DF248331A43086000030E6
:1007080087004431403FAD00413FAE00423FAF005B
:10071800433FB0008631A52683312D082E040319E6
:100728004D2BA4308600003087004C31403FAD008F
:10073800413FAE00423FAF00433FB0008331B72393
:10074800833100302E02C83003192D0203184D2BB7
:1007580097111E30F0000030F1008631EE2683310B
:10076800400197154D2B3008F3002F08F2002E0892
:10077800F1002D08F00082319D2283317108C000FC
:100788007008BF0010304002003003193F02031CFC
:10079800D32BE7304001AD000330AE000800003035
:1007A800B1001030B2003F083102A0004008323BCF
:1007B800A100A201A3010030B3001030B4003F082B
:1007C8003302B5004008343BB600B636B50C3508E0
:1007D800B7003608B800B901BA013F08003EF0007A
:1007E8001030403DF100F201F3010030F700003015
:1007F800F6000030F5006430F40086312B26833192
:100808007008B7077108B83D7208B93D7308BA3D5A
:100818003A08A7003908A6003808A5003708A40038
:1008280084318F2483312308BE002208BD002108AB
:10083800BC002008BB003E08031DCD2B3D08031D4E
:10084800CD2BE8303B0203303C3B0318CD2B400155
:100858003C08AE003B08AD0008000030FB0000304B
:10086800FA000030F9000030F800730872047104CF
:10087800700403194F2C73087702031D4D2C72085E
:100888007602031D4D2C71087502031D4D2C70084E
:100898007402031C582C0130F3000030F2000030C1
:1008A800F1000030F0000800FC010130F435F50DCE
:1008B800F60DF70D890B5A2C0130F835F90DFA0DA4
:1008C800FB0D890B612C73087702031D752C7208C8
:1008D8007602031D752C71087502031D752C7008AE
:1008E8007402031C802C7008F4027108F53B72082E
:1008F800F63B7308F73B78140130FC0718307C028C
:10090800031C592C7B08F3007A08F2007908F100DF
:100918007808F00008000030AB000030AA00003072
:10092800A9000030A8002308220421042004031988
:10093800D62C0130AC00A31BAB2C0130A035A10D87
:10094800A20DA30D890BA22C0130AC079F2C0130FE
:10095800A835A90DAA0DAB0D890BAC2C23082702CD
:10096800031DC02C22082602031DC02C21082502C5
:10097800031DC02C20082402031CCB2C2008A40231
:100988002108A53B2208A63B2308A73B28140130D1
:10099800A336A20CA10CA00C890BCC2C0130AC0204
:1009A800031DAB2C2B08A3002A08A2002908A100CC
:1009B8002808A000080064004001E8015608FC006F
:1009C80008308131442184317D08D8007C08D70063
:1009D8005608FC000A308131442184317D08DA0050
:1009E8007C08D9005608FC000A3081314421843142
:1009F8007D08DC007C08DB005608FC0008308131EB
:100A0800442184317D08DE007C08DD005508BE00E5
:100A18005408BD005808C0005708BF005A08C20053
:100A28005908C1005C08C4005B08C3005E08C60022
:100A38005D08C50080315B2054088600870151316C
:100A4800680881000800F7007308F4000430F436E1
:100A5800890B2B2D0A3074020318392D0F307305BA
:100A6800F4000A307402031C422D7708803E84008B
:100A7800F7300318013E8500000808000F307305A1
:100A8800F4000A30F0007308F5000430F536890BDD
:100A98004A2D75088731212785317407F6007708B4
:100AA800983E8400F7300318013E8500000876025E
:100AB800031C392D77088C3E8400F7300318013E5B
:100AC80085000008F40076087402031C392D7608A6
:100AD80008004001A401A501003086315A2685315D
:100AE8004001A6010930873101278531700840018E
:100AF800A4077108A53D0130A60708302602031C8B
:100B0800762D0430A0000030A1000030A200003093
:100B1800A3002408F0002508F100F201F3010030D9
:100B2800F7000030F6000030F5000B30F400863195
:100B38002B2685317008A0077108A13D7208A23DD7
:100B48007308A33D0330A336A20CA10CA00C890B9B
:100B5800A72D2108EA002008E9000800710873029F
:100B6800031DB82D70087202031CC02D7008720294
:100B7800FA007108733BC52D72087002FA007308F9
:100B8800713BFB0071087302031DCC2D70087202C3
:100B9800031CD22D7308FD007208D52D7108FD00C5
:100BA8007008FC007D08F7007C08F600F736F60CA4
:100BB800F736F60CF736F60C74087607F800750861
:100BC800773DF9007B087902031DEC2D7A0878023D
:100BD800031CF02D01300800003008007E01B80128
:100BE8000730C300CE01D901E401530190139413D7
:100BF800400196011830970010309800063099008F
:100C08009A019101273092009301940195017E0188
:100C18003A15BA15DB145B151A304F019600FE30F1
:100C28009700473098007F30990077309A00DF307E
:100C38009B00453040019F009E01F9309D009C01BA
:100C48004E018C12961640019E178B170800003033
:100C5800FB000030FA000030F9000030F800701C8A
:100C68003D2E7408F8077508F93D7608FA3D7708AF
:100C7800FB3D0130F435F50DF60DF70D890B3E2ED1
:100C88000130F336F20CF10CF00C890B452E730889
:100C9800720471047004031D332E7B08F3007A0874
:100CA800F2007908F1007808F0000800F2007208F4
:100CB8006B06031908007208EB0002307206031D68
:100CC800682E41019A017D2E720803196D2E02309B
:100CD8006E2E0130F0000030F10052010C08700651
:100CE800FC3970068C008C170C1F782E03304101DC
:100CF8009A00A0300032890B7E2E08008631DA2651
:100D0800863120087002F8002108713BF90022089A
:100D1800723BFA002308733BFB0027087B02031D84
:100D28009F2E26087A02031D9F2E25087902031D8F
:100D38009F2E24087802031CA32E013008000030DF
:100D480008000030A3000130A2008630A100A030C6
:100D5800A00050302D07A400C3302E3DA500003060
:100D68002F3DA6000030303DA70084318F24210894
:100D7800AE002008AD000800F8017808B63E8600ED
:100D880087017808703E8400F7300318013E85001B
:100D98000008F30078088531272586318100013065
:100DA800F8070C30780203180800C12E8B13400195
:100DB8006208F7006108F6006008F5005F08F400B3
:100DC8008B177708F3007608F2007508F1007408AD
:100DD800F00008000130F0020030F13B700A0319FE
:100DE800710A0319080064000B30F2006230890BA5
:100DF800FB2EF20BFB2E0032EE2EF20072084101A0
:100E08009E003530890B062F00004101131413187A
:100E18000B2F0D08F1000C08F000080041019301A8
:100E28009401950196019D019C019B01143093004A
:100E38009317FF304001EB000800F200F101721C2B
:100E4800272F7008F1070310F00D0310F20C720839
:100E5800031D232F71080800640080010131890BEC
:0A0E6800312F0034A0340F34FF34A2
:10EEE0000534303407341034153413340134043409
:10EEF00014346034083402340034003400340034F4
:10EF000005341E3407340A340F340D34013404340C
:10EF10000E343C3408340234633463341E346334B6
:10EF200063346334013463346334633463340334EB
:10EF3000003400340234013401340B340034003422
:08EF40000034013400340134F7
:020000040001F9
:0A000E008C3FBD3DAD07FF3FFF3FF3
:00000001FF
