:0400000080314228E1
:100008007E14803100308600003087004E018C1E3F
:1000180040288C1201304501B8070030B93DBA3D7F
:10002800BB3D01304401B8070A303802031C4028A0
:10003800B80140018D1A26286F0A03192E280130AD
:10004800EF072E286F0803192E286F084401C700F0
:100058004001EF018F18372843016E0A0319402821
:100068000130EE07402843016E08031940286E0846
:100078004401C6004301EE017E1009008031442886
:1000880075308400B430850044011200E900120084
:10009800EA001200EB001200EC001200ED00120062
:1000A800EE001200EF00F0308400283085000030A8
:1000B800FE000730FF00B431B12480314001EF0168
:1000C8004301ED01EE0120308400023085003E300E
:1000D800FE000030FF00B431B1248031A03084002C
:1000E800023085005030FE000030FF00B431B124EA
:1000F800803120308400033085004F30FE0000300E
:10010800FF00B431B1248031A03084000330850071
:100118001330FE000030FF00B431B1247E104001DE
:100128008331BB2B0130B7000030B8000030B90074
:100138000030BA003508BB003608BC00BD01BE015E
:100148002F08BF003008C000C101C2013F08BB072B
:100158004008BC3D4108BD3D4208BE3D3B08B707CD
:100168003C08B83D3D08B93D3E08BA3D0130BA36B5
:10017800B90CB80CB70C890BBB282D0886002E08C3
:1001880087003708C03F3808C13F0130B70000304A
:10019800B8000030B9000030BA003308BB0034089A
:1001A800BC00BD01BE013108BF003208C000C1015A
:1001B800C2013F08BB074008BC3D4108BD3D42089D
:1001C800BE3D3B08B7073C08B83D3D08B93D3E0871
:1001D800BA3D0130BA36B90CB80CB70C890BEE2809
:1001E8002D088600870142313708C03F3808C13FD3
:1001F8002D0886002E088700403FB700413FB80011
:100208003708F0003808F100F201F301450127082A
:100218004001B900BA01BB01BC013C08F7003B082A
:10022800F6003A08F5003908F400A9310A218031AE
:1002380073084001D3007208D2007108D100700819
:10024800D0002D0886002E088700403FB700413FA8
:10025800B8003708F4003808F500F601F7012D0852
:1002680086002E088700403FB900413FBA00390890
:10027800F0003A08F100F201F301A9310A218031B6
:1002880070084001BB007108BC007208BD0073080B
:10029800BE000630BE36BD0CBC0CBB0C890B4E290B
:1002A8003E08D7003D08D6003C08D5003B08D400DE
:1002B8005308F3005208F2005108F1005008F0000A
:1002C8000030F7000030F6000030F5001930F40077
:1002D800A9310A21803170084001B7007108B800BF
:1002E8007208B9007308BA000130BA36B90CB80CF4
:1002F800B70C890B79290030A3000030A200003028
:10030800A1006430A0005708F3005608F200550811
:10031800F1005408F00045012808643EF40000305C
:1003280003180130F500F601F51BF6037608F7000F
:10033800A9310A21803173084001A7007208A6007C
:100348007108A5007008A400AF310A278031200881
:10035800B7072108B83D2208B93D2308BA3D2D0842
:100368008600870144313708C03F3808C13F390843
:10037800C23F3A08C33F2D08860087014231403FFB
:10038800B700413FB8003708F0003808F100F20123
:10039800F301450127084001B900BA01BB01BC01BE
:1003A8003C08F7003B08F6003A08F5003908F40065
:1003B800A9310A21803173084001D3007208D200A4
:1003C8007108D1007008D0002D08860087014231DD
:1003D800403FB700413FB8003708F4003808F5003F
:1003E800F601F7012D08860087014231403FB90028
:1003F800413FBA003908F0003A08F100F201F30170
:10040800A9310A21803170084001BB007108BC0085
:100418007208BD007308BE000630BE36BD0CBC0CA9
:10042800BB0C890B112A3E08D7003D08D6003C08B2
:10043800D5003B08D4005308F3005208F2005108D5
:10044800F1005008F0000030F7000030F6000030EE
:10045800F5001930F400A9310A21803170084001F3
:10046800B7007108B8007208B9007308BA00013003
:10047800BA36B90CB80CB70C890B3C2A0030A3006B
:100488000030A2000030A1006430A0005708F3003B
:100498005608F2005508F1005408F00045012808F4
:1004A800643EF400003003180130F500F601F51B36
:1004B800F6037608F700A9310A2180317308400154
:1004C800A7007208A6007108A5007008A400AF3143
:1004D8000A2780312008B7072108B83D2208B93D0E
:1004E8002308BA3D2D088600870148313708C03FE8
:1004F8003808C13F3908C23F3A08C33F2D08860073
:1005080087014431403FF000413FF100423FF20093
:10051800433FF3002D08860087014831403FF4002F
:10052800413FF500423FF600433FF700A031E42089
:1005380080312D08860087014C317008C03F710852
:10054800C13F7208C23F7308C33FCD013008F100B4
:100558002F08F0003608F3003508F2001830F400D0
:100568000030F500AB316F238031003A0319D02AEF
:100578003208F1003108F0003408F3003308F200C3
:100588001830F4000030F500AB316F238031003AA9
:100598000319D02A0130CD002D088600870150317B
:1005A8004D08810030083602031DDC2A2F08350269
:1005B800031C112B35083604031DE52AC501C601A5
:1005C8000D2B3508A0003608A100A201A3012F08B1
:1005D8003502B7003008363BB8003708B90038088C
:1005E800BA00BB01BC010830B935BA0DBB0DBC0D52
:1005F800890BF82A3C08A7003B08A6003A08A50082
:100608003908A400AF310A2780312108C600200824
:10061800C5004608C4004508382B2F08A00030083C
:10062800A100A201A30135082F02B7003608303B0C
:10063800B8003708B9003808BA00BB01BC01083057
:10064800B935BA0DBB0DBC0D890B242B3C08A7008E
:100658003B08A6003A08A5003908A400AF310A27CC
:1006680080312108C4002008C30032083402031D69
:100678003F2B31083302031C742B33083404031D49
:10068800482BC901CA01702B3308A0003408A10007
:10069800A201A30131083302B7003208343BB80085
:1006A8003708B9003808BA00BB01BC010830B935B1
:1006B800BA0DBB0DBC0D890B5B2B3C08A7003B0892
:1006C800A6003A08A5003908A400AF310A278031EE
:1006D8002108CA002008C9004A08C80049089B2BFD
:1006E8003108A0003208A100A201A3013308310299
:1006F800B7003408323BB8003708B9003808BA00E8
:10070800BB01BC010830B935BA0DBB0DBC0D890B56
:10071800872B3C08A7003B08A6003A08A500390823
:10072800A400AF310A2780312108C8002008C7007B
:1007380043084707CE004408483DCF0001304F0228
:10074800003003194E020318B02B4E08B700B80149
:100758003708CB003808B32BFF30CB000030CC0073
:100768002D088600870151314B0881000800AA3105
:100778000B2283314401E701500193181318C72B4A
:1007880001304401E70044016708E600A3312E2345
:100798008331B431D9248331A03134208331983165
:1007A8000A208331A23100228331003A0319EB2B4E
:1007B8005008DB005108DC005208DD006608031D04
:1007C800F62B5108F3005208F4005008F32BD60119
:1007D800D701D501D401D301F301F40100309931D7
:1007E800EE2183315708031DFC2BB101B201032C04
:1007F8005708643EB100003003180130B2004001D0
:100808001915B631A5268331A03100208331500156
:100818000C14B531552583317308E3007208E200E2
:100828007108E1007008E0006308E7006208E6006C
:100838006108E5006008E4006708EB006608EA0064
:100848006508E9006408E8006B08EF006A08EE0034
:100858006908ED006808EC006400A63119268331A8
:100868004401E800680303193D2C02306806031DA3
:10087800662C903100208331003A031D662CB53177
:10088800A62583314401E801662CB531A6258331BC
:1008980044015608031D522C0130532C0030A2315C
:1008A80061228331772C903189208331772C013074
:1008B800C900772CB531A62583310130A2316122D8
:1008C8008331772C6808013A0319492C033A031934
:1008D800572C013A03195B2C073A03195E2C013A8D
:1008E8000319572C772C45016B08FB006A08FA009E
:1008F8006908F9006808F800B531D22583317B080A
:10090800031D902C7A08031D902C7908031D902C48
:1009180032307802031C9E2CB5315525833173087B
:10092800EB007208EA007108E9007008E8009131EC
:10093800F821833144014A080319A62CCA019031D1
:100948008920833145016708FB006608FA006508BD
:10095800F9006408F800B531D22583317B08031DFE
:10096800BF2C7A08031DBF2C7908031DBF2C9630B5
:100978007802031CCD2CB531552583317308E70067
:100988007208E6007108E5007008E400B7316727CF
:10099800833145016F08FB006E08FA006D08F90005
:1009A8006C08F800B531D22583317B08031DE52C8E
:1009B8007A08031DE52CB83078020B30793B031C0C
:1009C800F32CB531552583317308EF007208EE001A
:1009D8007108ED007008EC00AA314422833144010B
:1009E8004D080319152D45015B08FB005A08FA004C
:1009F8005908F9005808F800B531D22583317B0829
:100A0800031D102D7A08031D102D7908031D102DC4
:100A18001E307802031C152D4401CD0140019715A5
:100A2800171644014C080319342DB5315525833167
:100A3800540870024401DE0045015508713B440129
:100A4800DF0045015608723B4401E00045015708A4
:100A5800733B4401E100E11B342DB5317D25833121
:100A680045016308FB006208FA006108F9006008A4
:100A7800F800B531D22583317B08031D4C2D7A0847
:100A8800031D4C2D303078027530793B031C5A2DEC
:100A9800B531552583317308E3007208E200710807
:100AA800E1007008E000A831012083319031002076
:100AB8008331003A0319A72D450120080319A72DF2
:100AC8005F08FB005E08FA005D08F9005C08F800A2
:100AD800B531D225833178084401DE007908DF007A
:100AE8007A08E0007B08E100450120084401E200A3
:100AF800E301E401E5016508F3006408F200630816
:100B0800F1006208F0000030F7000030F600EA302B
:100B1800F5006030F400A9310A21833173084401DB
:100B28006102031DA12D72086002031DA12D710829
:100B38005F02031DA12D70085E02031CA72D003063
:100B4800AA31F3228331450121080319EC2D5F08EE
:100B5800FB005E08FA005D08F9005C08F800B53192
:100B6800D225833178084401DE007908DF007A084D
:100B7800E0007B08E100450121084401E200E301AF
:100B8800E401E5016508F3006408F2006308F10078
:100B98006208F0000030F7000030F600EA30F50097
:100BA8006030F400A9310A218331730844016102DD
:100BB800031DE82D72086002031DE82D71085F020D
:100BC800031DE82D70085E02031CEC2D0330C900DC
:100BD800440149080319452E0330490203181A2E07
:100BE800B531A6258331A8312E208331440149032C
:100BF800031D052E0B304001AF004C30B000FB3018
:100C08000B2E11304001AF008D30B000FB30B10029
:100C18000930A231C4228331B53142258331DC3019
:100C2800F0000530F100B5311C2583314401C901BC
:100C3800AE3171268331B631A5268331B5315525BC
:100C480083317308E3007208E2007108E10070085C
:100C5800E0006308E7006208E6006108E500600854
:100C6800E4006708EB006608EA006508E900640824
:100C7800E8006B08EF006A08EE006908ED006808F4
:100C8800EC00993136218331302C5E084001E900AF
:100C980041015D084001E800410160084001EB00A6
:100CA80041015F084001EA009C3176248631420107
:100CB800AA002A080319622E2A080800A90129088F
:100CC800031D6D2E41015D0886005E0887004131D5
:100CD800722E41015D0886005E0887000108E10068
:100CE800E20161084201A000410162084201A1003D
:100CF8002008A60044013508031D952E4201260848
:100D08004101E1000230E136890B872E6108E200DB
:100D1800E30162084201A200410163084201A30005
:100D28009A2E01304201A2000030A3002208A6003A
:100D3800023026020318A52E0130A4000030A500B9
:100D4800B02E26084101E100E20161084201A40039
:100D5800410162084201A5002408A7000130A8004B
:100D680041015D0886005E088700403F4201B000EF
:100D7800413FB100423FB20029080319D22E27088B
:100D8800F0002808B431CA248631F3004201300843
:100D9800B6316C2686314201B000E02E2708F000FB
:100DA8002808B431CA248631F30042013108B6312B
:100DB8006C2686314201B10041015D0886005E085B
:100DC8008700010842013006031DF52E41015D0828
:100DD80086005E0887004131420131080106031987
:100DE800502F31084001E300420132084001E4007D
:100DF8002030E5002B30E6000130E70042013008E2
:100E08009331C42386314201AA002A08031D602EAB
:100E180030304001E8000130E9002B30EA000130B1
:100E2800EB00420129084001EC009D3191258631F3
:100E38004201AA002A08031D602E2B304001A000A1
:100E48000130A100410160084001A30041015F0891
:100E58004001A200A7315B278631003A0319502FC1
:100E680041015D0886005E08870042013008C03FE6
:100E78003108C13F3208C23F2B308600013087005D
:100E880041015F088400600885000530E100160014
:100E98001A00E10B4B2F492EFE304201A807280803
:100EA800803A813E0318B42E02302702031C662FB5
:100EB80027084101E1000130E136890B602F610804
:100EC8004201B12E0130A90702302902031C632E0A
:100ED80041015D0886005E088700403F4201B0007E
:100EE800413FB100423FB2000130B2063108400133
:100EF800E300420132084001E4002030E5002B30D5
:100F0800E6000130E700420130089331C4238631FE
:100F18004201AA002A08031D602E41015F088600CD
:100F280060088700403FE100413FE200423FE300A4
:100F3800433FE4000130E135E20DE30DE40D890B98
:100F48009F2F640842012E02031DBA2F4101630836
:100F580042012D02031DBA2F4101620842012C02F1
:100F6800031DBA2F4101610842012B020318E02F2B
:100F780030304001E8000130E9002B30EA00013050
:100F8800EB009C31762486314201AA002A08031D11
:100F9800602E2B304001A0000130A1004101600803
:100FA8004001A30041015F084001A200A7315B276F
:100FB8008631003A031D342F00300800730886007C
:100FC8007408870075087F398100730886007408E3
:100FD8008700413176087F398100730886007408DC
:100FE800870042317608F7000730F736890BF92F6A
:060FF800770881000800EB
:10100000B531692588317830A9316B218831F600F6
:101010000030A9316B2188310130F502750A0319BE
:101020001E2873088400740885000008A9316B210C
:1010300088310130F3070030F43D0C28B5312F25FD
:10104000760808004301CD01D001A0014401CE0182
:10105000B701B601B501450123084101E900EA01E4
:10106000EB01EC016C08F3006B08F2006A08F10078
:101070006908F0000030F7000130F6008630F50016
:10108000A030F400A9310A21883173084501B3006A
:101090007208B2007108B1007008B0002408410164
:1010A000E900EA01EB01EC016C08F3006B08F200C7
:1010B0006A08F1006908F0000030F7000F30F60010
:1010C0004230F5004030F400A9310A21883173081C
:1010D0004501AF007208AE007108AD007008AC00A9
:1010E000992822304301A100FC30A2000430A30063
:1010F0000230A80096304401A70000309728B6308F
:101100004301A100FB30A2000730A3000430A80077
:10111000F4309428FF304301A100FB30A2000530D9
:10112000A3000330A8005E304401A7000130A800EE
:10113000A1282B08013A03197128023A03197F28C4
:101140008A2841016508860066088700403F430100
:10115000D900413FDA00423FDB005A08F0005B084B
:10116000F1005908B731B027883171084201ED000C
:101170007008EC0044012A084101EF0044012908ED
:101180004101EE0044014F080319D7295908F00026
:101190005A08F1005808B731B027883142016D086C
:1011A0007106031DD5286C087006031DD72943015D
:1011B0005A084001E30043015B084001E40040306D
:1011C000E500D230E6000130E700430159089331D1
:1011D000C42388314301D1005108031DA72F0130DA
:1011E0005502031CFC2801304301AC000030AB0069
:1011F0000030AA000030042943015508AC0054080F
:10120000AB005308AA005208A90001304401230290
:10121000031C132901304301B0000030AF0000303F
:10122000AE0000302229440123084301B0004401EC
:1012300022084301AF00440121084301AE004401EC
:1012400020084301AD002C083002031D31292B0872
:101250002F02031D31292A082E02031D31292908D6
:101260002D0203184B292C08A7002B08A6002A08DA
:10127000A5002908A4003008AC002F08AB002E08F8
:10128000AA002D08A9002708B0002608AF002508ED
:10129000AE002408AD0029082D024101E9004301F8
:1012A0002A082E3B4101EA0043012B082F3B410154
:1012B000EB0043012C08303B4101EC006C0843017A
:1012C000A70041016B084301A60041016A084301E0
:1012D000A500410169084301A4004201C00100309A
:1012E0004101E9000030EA000230EB000030EC0080
:1012F000430129084101E90743012A084101EA3D68
:1013000043012B084101EB3D43012C084101EC3D19
:101310004301270841016C02031D9E294301260851
:1013200041016B02031D9E294301250841016A0208
:10133000031D9E294301240841016902031CD3298E
:101340000030E9000030EA000230EB000130EC0030
:1013500043012D084101E90243012E084101EA3B06
:1013600043012F084101EB3B430130084101EC3BB5
:101370004301270841016C02031DCE2943012608C1
:1013800041016B02031DCE294301250841016A0278
:10139000031DCE294301240841016902031CD329FE
:1013A00001304201C000420140084301A000440155
:1013B000CF01430120080319ED2955084401A3007A
:1013C000430154084401A200430153084401A10011
:1013D000430152084401A000332AD8015835F03E99
:1013E000860087012A30873D58350030873D003020
:1013F000C03FC13F0130D807031DEE294401AB01B6
:10140000AC014101EE01EF014401A901AA01013043
:10141000A3000030A2000030A1000130A000430171
:1014200059084401D80043015A084401D900430136
:101430005B084401DA0043015A084001E30043011C
:101440005B084001E4002030E500D230E6000130C6
:10145000E700430159089331C42388314301D10087
:101460005108031DA72FD230FC000130FD00A83128
:1014700083208831003A0319592AD9304001C1002C
:101480000130C200430155084001C6004301540821
:101490004001C500430153084001C4004301520804
:1014A0004001C300A131A12188319531B825003018
:1014B0000800410168084201EF004101670842014C
:1014C000EE004301D8016D0858020318FB2A0330CF
:1014D000F0005808B431CA248831383E4301CE00A8
:1014E0004E0886000330870001085906031D892A2B
:1014F0004E0A86000330870001085A06031D892A18
:101500004E08023E86000330870001085B0603197F
:10151000F72A4E088600033087000108031D972A2A
:101520004E0A86000330870001080319F72A4E0887
:101530008600033087000330413F4001E300430150
:101540004E088600033087000330423F4001E4002C
:101550001030E500B130E6000130E70043014E08ED
:1015600086000330870001089331C423883143018A
:10157000D100033051060319FB2A5108031DA72F80
:1015800055083402031DCE2A54083302031DCE2A07
:1015900053083202031DCE2A520831020318F72ADB
:1015A0004E08860003308700403FD900413FDA00F3
:1015B000423FDB00B130860001308700D23084002A
:1015C0000130850005304101E90016001A00E90BE1
:1015D000E52A430158082C3E8600033087000108A5
:1015E000643E4201EE00003003180130EF0001308C
:1015F0004301D807632A42016E086F040319752B53
:1016000001304401B500D9304101DD000130DE0078
:10161000D230DF000130E0008631492688314301B5
:10162000D1004401B501033043015106031D2A2BAB
:10163000C730F300BD30F400D030F500D930F600EB
:101640000130F700D230F8000130F900A631B6269B
:101650008831542E5108031DA72FD230FC000130D1
:10166000FD00A83183208831003A031D3D2A450141
:101670002A080319642B430155084001B0004301B7
:1016800054084001AF00430153084001AE0043013C
:1016900052084001AD00A4318524883142016E0812
:1016A000053E4101E900003042016F3D4101EA0081
:1016B00040012E0841016A02031D622B40012D08E2
:1016C0004101690203183D2AC730F300BD30F40020
:1016D000D030F500D930F6000130F700D230F800F4
:1016E0000130F900A631B62688314301BB01023032
:1016F0003B020318BC2DD801230858020318B92D4A
:10170000BC0123083C020318B62D580821078400A9
:1017100022080318013E85000008D9003C08210773
:10172000840022080318013E85000008DA003B0807
:10173000DB005A084001E30043015B084001E4007C
:101740001030E500D230E6000130E70043015908CF
:101750009331C42388314301D1000330510603196A
:10176000542E5108031DA72FD7014D085702031807
:101770001F2C0330F0005708B431CA248831023ED0
:101780005D3E860001308700010843013B06031DD2
:101790001B2C5708363E86000130870001084101A6
:1017A000E900430158084101E90201306907EA00F4
:1017B00003306A0203181B2C430157083B3E860086
:1017C0000130870001084101E90043013C08410163
:1017D000E90201306907EA0003306A0203181B2C92
:1017E0000530F00043015708B431CA248831443E23
:1017F000860001308700403F4101E900413FEA0097
:10180000423FEB00433FEC006C0843015502031DCF
:10181000192C41016B0843015402031D192C41018D
:101820006A0843015302031D192C41016908430151
:10183000520203181F2C01304301D707B52B4D0866
:101840005702031CB32DD7014D0857020318E02C93
:101850000330F0005708B431CA248831023E5D3E9F
:10186000860001308700010843013B06031D5F2C01
:101870005708363E86000130870001084101E90023
:10188000430158084101E90201306907EA000330C9
:101890006A0203185F2C430157083B3E8600013063
:1018A000870001084101E90043013C084101E902C8
:1018B00001306907EA0003306A02031C632C01301F
:1018C0004301D707242C43015708CF004F08013E9E
:1018D0004101E900003003180130EA006A08803A4B
:1018E000EB0080306B02031D792C43014D08410150
:1018F00069020318DC2C0330F00043014F08B431B7
:10190000CA248831033E5D3E860001308700403F97
:101910004101E900413FEA00423FEB000330F000A3
:1019200043014F08B431CA2488315D3E860001303E
:10193000870041016908C03F6A08C13F6B08C23F88
:101940000530F00043014F08B431CA248831053E08
:10195000443E8600013087000530F00043014F0807
:10196000B431CA248831443E8400013085000530FA
:101970004101E90016001A00E90BBA2C43014F0897
:10198000363E8600013087004F08013E363E840017
:1019900001308500000881004F083B3E8600013081
:1019A00087004F08013E3B3E84000130850000085F
:1019B00081000130CF07662C01304301CD02242C79
:1019C0004D08D700462D280857020318442D033030
:1019D000F0005708B431CA248831FD3E5D3E8600D0
:1019E00001308700403F4101E900413FEA00423FAA
:1019F000EB000330F00043015708B431CA248831AA
:101A00005D3E86000130870041016908C03F6A08D9
:101A1000C13F6B08C23F0530F00043015708B431A5
:101A2000CA248831FB3E443E8600013087000530E1
:101A3000F00043015708B431CA248831443E840081
:101A40000130850005304101E90016001A00E90B5C
:101A5000252D43015708363E860001308700570880
:101A6000FF3E363E840001308500000881005708A3
:101A70003B3E8600013087005708FF3E3B3E840016
:101A800001308500000881000130D7025708031992
:101A9000742D0530F0005708B431CA248831FB3E5C
:101AA000443E860001308700403F4101E900413F4C
:101AB000EA00423FEB00433FEC006C084301550253
:101AC000031D722D41016B0843015402031D722D49
:101AD00041016A0843015302031D722D4101690847
:101AE00043015202031CE32C280857020318B32DAC
:101AF0000330F0005708B431CA2488315D3E8600B7
:101B00000130870043015908C03F5A08C13F5B08B4
:101B1000C23FD2308600013087000530F000570800
:101B2000B431CA248831443E840001308500053038
:101B30004101E90016001A00E90B9A2D43015708EC
:101B4000363E8600013087005808810057083B3E2A
:101B50008600013087003C08810028084D020318E8
:101B6000B32D0130CD070130BC07812B0130D807E0
:101B70007C2B0130BB07772B440123084001B000C8
:101B8000440122084001AF00440121084001AE0099
:101B9000440120084001AD00A431852488312E087D
:101BA000C2002D08C100B431BD2488314301D801E1
:101BB0004D0858020318542E0330F0005808B43171
:101BC000CA2488315D3E860001308700403F4301D2
:101BD000D900413FDA00423FDB000530F0005808F1
:101BE000B431CA248831443E860001308700D230A7
:101BF00084000130850005304101E90016001A001B
:101C0000E90BFE2DD930DD000130DE00D230DF00DF
:101C10000130E0008631492688314301D100510866
:101C20000319162E03305106031DA72FC730F300EA
:101C3000BD30F400D030F500D930F6000130F700A7
:101C4000D230F8000130F900A631B62688314401BF
:101C500023084001B000440122084001AF004401C4
:101C600021084001AE00440120084001AD00A4312C
:101C7000852488312E08C2002D08C100B431BD244E
:101C800088310330430151060319542ED230FC0031
:101C90000130FD00A83183208831003A031D542E05
:101CA00001304301D807D82D4301D8018B2E0330D2
:101CB000F0005808B431CA248831C73E860001308C
:101CC0008700010844015806031D882E0330F000E8
:101CD00043015808B431CA248831013EC73E86000A
:101CE00001308700010844015906031D882E033086
:101CF000F00043015808B431CA248831023EC73E7F
:101D0000860001308700010844015A0603198F2E0E
:101D100001304301D80750085802031C572E4301D5
:101D200058085006031DC22E50080319A02E440166
:101D300028082A02031D9E2E27082902031CC22EF2
:101D4000440123084301D500440122084301D40083
:101D5000440121084301D300440120084301D2007B
:101D6000D601C730F300BD30F400D030F500583054
:101D7000F6000230F700D230F8000130F900A63149
:101D8000B62688314301D8015008580203181A2F8B
:101D90000330F0005808B431CA248831013EC73EF0
:101DA00086000130870001084101ED000330F0009A
:101DB00043015808B431CA248831023EC73E860028
:101DC0000130870001084201B3000530F0004301F3
:101DD0005808B431CA248831BD3E4201B4000330F2
:101DE000F00043015808B431CA248831C73E860048
:101DF0000130870001084201B50041016D08400132
:101E0000E300420133084001E4004030E5004201B4
:101E100034084001E6000130E70042013508933103
:101E2000C42388314301D1005108031DA72F01307D
:101E3000D807C42E4001E301E4014030E500B6308C
:101E4000E6000130E70000309331C42388314301BC
:101E5000D1005108031DA72F4201C10102304301E7
:101E60005002031C462F40084502031D412F3F0826
:101E70004402031D412F3E084302031D412F3D082C
:101E800042020318462F01304201C10042014108BD
:101E90004301D8000530F0005808B431CA24883115
:101EA000BD3E4001A0000130A100B630A2000130CB
:101EB000A300A7315B278831003A031D862F430119
:101EC000DB01DA01D901D9304001C1000130C20083
:101ED000430139084001C600430138084001C500EC
:101EE000430137084001C400430136084001C300E4
:101EF000A131A12188310030340279300319330235
:101F00000318842F00300800033008000330F0006D
:101F100043015808B431CA248831C73E4001C1008A
:101F20000130C2000530F00043015808B431CA2422
:101F30008831BD3E860001308700403F4001C3002C
:101F4000413FC400423FC500433FC600522A420100
:101F5000C201023043015106031DD32F44012A0858
:101F600041016F02031DB82F4401290841016E028F
:101F70000318D32F43012008031DD02F4401590813
:101F8000F0005A08F1005808B731B02788314201F3
:101F90006D087106031DCE2F6C0870060319D32F30
:101FA00001304201C200420142084401CE005830D3
:101FB0004001C1000230C200440123084001C600B4
:101FC000440122084001C500440121084001C40029
:101FD000440120084001C300A131A12188314301FF
:101FE00051030319FE2F043051060319F92F013054
:101FF000FA2F04304201C3004308080002300800F1
:102000004401410808000B307D02B83003197C02FE
:1020100003180E28B830FC000B30FD0010307D0294
:10202000693003197C02031C19286830FC00103049
:10203000FD0000304001A3000030A2000430A100E8
:10204000B030A0007C08483EF000F4307D3DF10047
:10205000F201F3010030F7000030F6000030F50027
:102060001A30F400A9310A21903173084001A70009
:102070007208A6007108A5007008A400AF310A27F5
:1020800090312008AE007330B000B101AF01B20151
:102090003108AD000330AD35890B4B282D083207D0
:1020A000F0002E08F1003008AE3125269031003ABC
:1020B0000319642801304001AD00320A6028AD35B3
:1020C000890B5F282D08AF0401304001B2070830AA
:1020D0003202031C48283108AD000330AD35890BAE
:1020E0006E282D08F3002F08F4000830F5003008A2
:1020F0009B317223903101304001B107043031022D
:10210000031C46280130B0077E3030020318080057
:10211000452844015B084301E90044015C08430190
:10212000EA0044015D084301EB00B531A62590317A
:102130004001971119114401CC014001AF01423017
:10214000B000FB30B1001230A231C4229031AF0197
:102150003D30B000FB30B1001230A231C4229031CA
:10216000FF304401E900FF30EA00B53142259031EB
:102170004301E701440148080319D92845015308E0
:10218000FB005208FA005108F9005008F800B53178
:10219000D22590317B08031DD9287A08031DD92840
:1021A00060307802EA30793B0318D92801304301C6
:1021B000E700430167084401CF005608031DE328E8
:1021C0005708031DE7284301DF01E001EF28570806
:1021D000643E4301DF00003003180130E0005B3053
:1021E0004101E5000230E600430160084101E800DA
:1021F00043015F084101E70088312220903143010B
:10220000EC00E80144015B0843016906031D16293F
:1022100044015C0843016A06031D162944015D0858
:1022200043016B06031D16290130E8006808DE0033
:102230006C0803192C2903306C0603192C295E083D
:1022400003192C2944012F0830040319952930085B
:10225000B2002F08B10095296C0803193C290330FE
:102260006C0603193C2944015B08031D3C295C08EA
:1022700003195D0803193E294401D6015608031DC0
:102280008A2943016C08031D4C2944015B08031D86
:1022900050295C08031D50294301E101E20187290F
:1022A00033089C3E4301DC00FF304401343D4301D0
:1022B000DD0001305D02003003195C0203187C2947
:1022C00000304401340266300319330203186E29CA
:1022D00001304301E5000030E600772933089C3ED9
:1022E0004301E500FF304401343D4301E600660848
:1022F000E4006508E3008029FF30E3000030E400DB
:102300006308DC00DD015C08E1005D08E2006108B3
:102310004401D7003408B2003308B1003408B000DB
:102320003308AF00B431992490314E08C8004808F2
:1023300003199C29B101B201A83158209031FF3016
:102340004401E900FF30EA0030084001BF004401C9
:102350002F084001BE00AA31B822903143016C031E
:10236000031DB72984304001BE00FB30D52903305E
:102370006C06031DC0297B304001BE00FB30D5290F
:1023800002306C06031DCD291D304001BE00FC301B
:10239000BF00E830C0000330D92904306C06031DAB
:1023A000DD2972304001BE00FB30BF00D030C000DC
:1023B0000730C100A931D4219031A83101209031DA
:1023C0004001191597154401CB01B5315525730806
:1023D000D3007208D2007108D1007008D0005308F1
:1023E000DF005208DE005108DD005008DC00080064
:1023F000B5315525913173084101A5007208A4003B
:102400007108A3007008A200AB304001D800003072
:10241000D9000430DA00AD314625913141013D0843
:102420000319222A44014C08031D222A723040015C
:10243000BE00FB30BF00D030C0000730C100A93162
:10244000D4219131AB308600003087004431403FC9
:102450004001AD00413FAE00423FAF00433FB000FE
:10246000B631362691312E084101A10040012D08D8
:102470004101A000200821040319412AB531A625F5
:1024800091314701270841013202031D572A4701B4
:10249000260841013102031D572A47012508410141
:1024A0003002031D572A4701240841012F02031857
:1024B0009B2A450129084001E300E401E501E6010A
:1024C0006608F3006508F2006408F1006308F00094
:1024D0000030F7000030F6000030F5000A30F4005C
:1024E000A9310A21913145014C08410122024001E4
:1024F000E70045014D084101233B4001E80045014B
:102500004E084101243B4001E90045014F084101CB
:10251000253B4001EA0073086A02031D992A7208EC
:102520006902031D992A71086802031D992A70081F
:102530006702031CBA2AAB30860000308700A03047
:1025400084000330850013304001E30016001A00B8
:10255000E30BA62A410125084501CF0041012408CB
:102560004501CE00410123084501CD00410122086B
:102570004501CC00AB308600003087004C31403F35
:102580004001AD00413FAE00423FAF00433FB000CD
:10259000A431852491312E084101AA0040012D0863
:1025A0004101A900450123084001E300E401E501E0
:1025B000E6016608F3006508F2006408F1006308AC
:1025C000F0000030F7000130F6008630F500A03052
:1025D000F400A9310A219131730841013202031D2F
:1025E000FB2A72083102031DFB2A71083002031D09
:1025F000FB2A70082F02031CFF2A0130002B003039
:10260000A800280803190B2B2A084401B000410137
:1026100029084401AF0045012508F63EF000FF30CF
:1026200003180030F1000A30F2000030F300B63138
:102630001B26913171084101A7007008A6004501D1
:1026400026080319C12B44015608031DC12B410163
:1026500028080319C12B450124084001E300E401C7
:10266000E501E6016608F3006508F2006408F10080
:102670006308F0000030F7000F30F6004230F5003C
:102680004030F400A9310A21913170084001E7007F
:102690007108E8007208E9007308EA00AB30F00046
:1026A0000030F100A0318A209131730840016A02A4
:1026B000031D642B72086902031D642B71086802F4
:1026C000031D642B70086702031CC12B41013B08EA
:1026D0000319C12B00302A02793003192902031C87
:1026E000C12B45015308FB005208FA005108F900BC
:1026F0005008F800B531D22591317B08031D892B94
:102700007A08031D892BB83078020B30793B031C03
:10271000C12B41012608440131074001E30041017A
:1027200027084401323D4001E40041012A084001EC
:102730006402031D9F2B4101290840016302031C11
:10274000B72B4101260829074001E3004101270872
:102750002A3D4001E4004401320840016402031DA7
:10276000B52B44013108400163020318C12B01302D
:102770004401CB0704304B02031C08000130CA009F
:1027800008004401CB0108004101B7004001630883
:10279000F0006408F10041013708B731B0279331E8
:1027A00071084101B6007008B500AA01AB013608F6
:1027B000F4003508F300AC31742493314101B800C2
:1027C000B4014030400165060319732C41013808FB
:1027D000A000A101A035A10DF030A2002A30A30075
:1027E0002008220786002108233D8700403FA400DF
:1027F000413FA50036082506031D002C3508240698
:10280000031D682C3808A000A101A035A10DF030EF
:10281000A2002830A3002008220786002108233DBB
:1028200087001600FF3AA4001600FF3AA40403191B
:10283000412C3808A000A101A035A10DF030A20064
:102840002830A3002008220786002108233D8700A6
:10285000403FA400413FA5002408A6002508A7008A
:10286000A801A9010830A635A70DA80DA90D890B4F
:10287000332C2908AF002808AE002708AD00260831
:10288000482C0130AF000030AE000030AD00003009
:10289000AC004001660886006708870041012C08EB
:1028A000C03F2D08C13F2E08C23F2F08C33F400143
:1028B0006608860067088700443141013808F03E09
:1028C000840085012E30853D00088100003008001D
:1028D000440128082A02031D6F2C27082902031C23
:1028E000732C0330080040016308F3006408F4000F
:1028F000410137089931EE219331B6318826933161
:10290000003A0319852C01300800B9304001D80085
:102910000030D9006508DA00AD3146259331410118
:102920004B080319A72C01304401B607403036028A
:10293000031C9C2C0430080001304101C800003009
:10294000C7000030C6000030C500CA01092D45018E
:10295000330841014002031DBD2C450132084101ED
:102960003F02031DBD2C4501310841013E02031DFC
:10297000BD2C4501300841013D02031CD72CB93064
:10298000F0000030F100A0318A2093317308450136
:102990002F02031DD52C72082E02031DD52C7108A1
:1029A0002D02031DD52C70082C020318FB2C4401AA
:1029B0003708031DE02CE8304101B0000330E42C5F
:1029C0002C304101B0000130B1000130AA070030C5
:1029D000AB3D2B083102031DEF2C2A0830020318EF
:1029E000F32C023008000A30F0000030F100B5315D
:1029F0001C2593317D2C01304401B700B601410103
:102A00004908031D092D0130B40703303402031CAB
:102A10007D2C400166088600670887004101450853
:102A2000C03F4608C13F4708C23F4808C33F400176
:102A30006608860067088700443141014A08810022
:102A40004030400165060319662C01304401A90796
:102A50000030AA3D00302C02FF3003192B0203186E
:102A6000772D41013835F03E860087012A30873DB9
:102A700038350030873D3508C03F3608C13F01304A
:102A800048020318582D41014508A0004608A1003E
:102A90004708A2004808A3000830A336A20CA10CE6
:102AA000A00C890B4D2D2108B3002008B2005D2D2C
:102AB000FF304101B200FF30B3003835F03E8600F0
:102AC00087012830873D38350030873D3208C03FC8
:102AD0003308C13F3808F03E860087012E30873D1D
:102AE0004A08810001304401AB070030AC3D400191
:102AF0006608860067088700403F4101A000413F0B
:102B0000A100423FA200433FA3004401230841012A
:102B10002302031D9B2D4401220841012202031DB3
:102B20009B2D4401210841012102031D9B2D4401DD
:102B30002008410120020318662C40016608860027
:102B400067088700403F4401A000413FA100423F89
:102B5000A200433FA300410137084401D8004001CF
:102B600063084401D900400164084401DA00662C7E
:102B70004001B301AF01AE01003044013402C9305D
:102B80000319330203180800240803192508031940
:102B900008004001B40143016D08400134020318EC
:102BA0003D2E0330F0003408B431CA249531383E4C
:102BB0008600033087000108031DEC2D0330F00070
:102BC00040013408B431CA249531393E86000330BF
:102BD000870001080319392EFF304001B000B5010C
:102BE00043016D084001350203182C2E3508203EA4
:102BF0008600033087003408203E840003308500BF
:102C000000080102B2000330F0003508B431CA24D4
:102C10009531383E8600033087000108031D1E2EC3
:102C20000330F00040013508B431CA249531393EF3
:102C300086000330870001080319282E400132085E
:102C40000319282E300832020318282E3208B0004B
:102C500001304001B507F02D30082E020318392E3F
:102C60003008AE003408203E86000330870001089B
:102C7000B30001304001B407CB2DB40143016D080E
:102C8000400134020318802E0330F0003408B431C0
:102C9000CA2495313A3E860003308700010844017A
:102CA0002606031D7C2E2408F3000330F0004001AB
:102CB0003408B431CA249531383E86000330870089
:102CC0000108B73124279531003A03197C2E4401BD
:102CD0002508F3000330F00040013408B431CA2461
:102CE0009531393E8600033087000108B73124272B
:102CF0009531003A031D802E01304001B4073E2E6D
:102D00004001340843016D06031DAD2E4001B4019E
:102D1000A72E0330F0003408B431CA249531383E70
:102D20008600033087000108031DA42E0330F00045
:102D300040013408B431CA249531393E860003304D
:102D4000870001080319AD2E01304001B40743018B
:102D50006D0840013402031C892E400134084301F0
:102D60006D06031DD32E0C306D020318BA2E0130F0
:102D7000ED07D32E4001B501B4013508203E860091
:102D80000330870001083302B2002F083202031C0F
:102D9000CD2E3208AF003508B4000130B5070C3035
:102DA0003502031CBD2E0330F00040013408B4315D
:102DB000CA249531383E8600033087004401240838
:102DC000C03F2508C13F2608C23F33089C3EF9009A
:102DD000FF30343DFA0001307A02003003197902E5
:102DE0000318FB2E33089C3E4001AC00FF30440129
:102DF000343D4001FF2EFF304001AC000030AD00FB
:102E000034082C3E8600033087002C0881000130F6
:102E1000B3073408203E8600033087003308810062
:102E20000130F9000030FA00340A182FF935FA0D94
:102E3000890B162F79084401AD047A08AE044001CD
:102E4000B501AF0143016D084001350203185A2F47
:102E50000330F0003508B431CA249531383E86007D
:102E6000033087000108031D432F0330F0004001A9
:102E70003508B431CA249531393E860003308700C5
:102E800001080319562F40013508203E8600033003
:102E90008700010833022F020318562F3508203E01
:102EA00086000330870001083302AF000130400183
:102EB000B507222F64302F02031C0800B50143011F
:102EC0006D08400135020318BE2F3508203E8600EC
:102ED0000330870001083302B200B101B0014301A1
:102EE0006D08400131020318B52F0330F00031089E
:102EF000B431CA249531383E86000330870001087A
:102F0000031D902F0330F00040013108B431CA2472
:102F10009531393E86000330870001080319B12F2F
:102F200040013108203E8600033087003308F90055
:102F30000108F90232087902031CAF2F3108203E44
:102F40008600033087003308F9000108F902790888
:102F50003206031DB12F350831020318B12F01309D
:102F6000B00701304001B1076F2F3508203E8600C1
:102F70008701300881000130B5075F2FB50143019B
:102F80006D0840013502031808000330F0003508D1
:102F9000B431CA249531383E8600033087000108D9
:102FA000031DE02F0330F00040013508B431CA247E
:102FB0009531393E86000330870001080319FC2F44
:102FC00040013508203E8600033087003508203E4A
:102FD000840085010008330281000130F9000030CF
:102FE000FA00350AF52FF935FA0D890BF32F790818
:102FF0004401AD047A08AE0401304001B507BF2F8B
:10300200FF30F8002030B7318A279831B631512687
:1030120008004301ED014401AD01AE014001A701E9
:103022000530F0002708B431CA249831303E4001FF
:10303200A000A6012608213E860087012008260757
:10304200B4318D249831810001304001A60705304A
:103052002602031C1B280330F0002708B431CA24BF
:1030620098313A3E86000330870081010330F00038
:1030720040012708B431CA249831393E8600033012
:10308200870081010330F00040012708B431CA24CF
:103092009831383E86000330870081012130F000EC
:1030A2000430F100A831DC20983140012506031DCF
:1030B20085282108031D612822087F3903198528E4
:1030C2000330F0002708B431CA249831383EF300A7
:1030D2000330F40040012108F5002208F600873190
:1030E200E227983127082C3E860003308700230808
:1030F20081002708203E86000330870024088100D3
:103102002708013E4301ED0001304001A7070C30C2
:103112002702031808001128DA01B5315525983124
:1031220073084001D8007208D7007108D6007008F1
:10313200D500A8312E20983122304001AF00ED3069
:10314200B000FB30B1000030A231C4229831B53159
:103152004225983140018D1AB0286400AB28B43161
:10316200A524983140015A08A53100259831640000
:10317200A631192698314001D9005908031DDE28CD
:10318200B53155259831400155087002D1005608D5
:10319200713BD2005708723BD3005808733BD400EE
:1031A2005408031D33295308031D3329603051028B
:1031B200EA30523B03183329B828B53155259831E6
:1031C20073084001D8007208D7007108D600700851
:1031D200D50002305906031D0B290F30F0000030D4
:1031E200F1005A08013EF200003003180130F300EA
:1031F200AC31312498317008DA005A08A531002523
:10320200983140018D1A072964000229B431A5249E
:103212009831B8285903031DB8280C305A020318F4
:1032220024295A08A03E8600023087005A08A03E90
:103232008400023085000008F0005A08AA317E227C
:1032420098318100B4280C305A06031D2B29AB316A
:10325200302398310D3040015A06031D332998312D
:1032620001209831A3312E2308004401410803199B
:1032720008003F080319CD293D080319B629D030AB
:103282004001B0000730B1000030B2000030B3009E
:1032920044013D08FF3E890A40015329B035B10D72
:1032A200B20DB30D890B4F29B5315525993140081F
:1032B20070024001B40045014108713B4001B50074
:1032C20045014208723B4001B60045014308733B89
:1032D2004001B70033083702031D7929320836024C
:1032E200031D792931083502031D7929300834027A
:1032F2000318B629B531552599313C0870024001B1
:10330200B00045013D08713B4001B10045013E0856
:10331200723B4001B20045013F08733B4001B300DC
:103322003308031D9D293208031D9D29E830300210
:103332000330313B031C0800B53155259931730820
:10334200BF007208BE007108BD007008BC00B43135
:10335200F8249931003A031DB22901304401BE001C
:10336200080044013E08031908004401BE0106306A
:103372003D020318BE290130BD070030AA31F322F5
:1033820099312C30F0000130F100B5311C25993112
:103392000130AA31F32208004001B80144013C087F
:1033A200013E0339BC003C08C43E8600023087005F
:1033B2003C08C83E84000230850000080102031C5C
:1033C200E6293C08A1314221080001304001B8073A
:1033D2000430380203180800CF29F80045012208FA
:1033E200F7000E3044016E02D93003196D02031842
:1033F200FC290130F7077818012A40019917032A9E
:1034020040019913F818082A400119170A2A4001A5
:10341200191378190F2A40019916112A400199129D
:10342200F819162A40011916182A40011912781A99
:103432001D2A400198171F2A40019813F81A242ABE
:1034420040011817262A40011813781B2B2A400125
:1034520098162D2A400198127318322A40019616A6
:10346200342A40019612F318392A40019A143B2A51
:1034720040019A107319402A40019617422A4001CE
:103482009613F319472A40011617492A40011613C9
:10349200731A4E2A40011814502A40011810F31AC8
:1034A200552A40019814572A40019810731B5C2A30
:1034B200400118155E2A4001181174080319642A84
:1034C20040011A14662A40011A1099157708F5006E
:1034D200F6017508F0007608F100B5311C25993126
:1034E200400199111A30890B742A003240011812D6
:1034F2007708F500F6017508F0007608F100B5319D
:103502001C259931400118167708F500F601750857
:10351200F0007608F100B5311C2599310F304001D9
:1035220099051830980596129A10961316131A10C8
:103532000530F0000030F100B5311C2599317808D2
:103542007F394401DB0073087F39DC0074080319FA
:10355200AC2A0130AD2A0030DD000800B200BA0109
:103562003A08B731D7279A3100304001B70000300E
:10357200B6000030B5000030B400B3017C0833025D
:103582000318F52A320841019E003530890BC72AFB
:103592000000410113141318CC2A0D084001B90090
:1035A20041010C084001B80003303902E930031927
:1035B2003802031CE02A02303A06031DF52A0330C2
:1035C2003902FF3003193802031CEA2A0130440190
:1035D200BB0040013808B4073908B53D0030B63D9C
:1035E200B73D0130B307BF2A33087C0603193F2BCE
:1035F2000130BA07B12A0330B435B50DB60DB70D97
:10360200890BFD2A472B0430B435B50DB60DB70D25
:10361200890B052B472B44016D08F0006E08F10061
:10362200F201F30140013708F7003608F6003508C9
:10363200F5003408F400A9310A219A3170084001DA
:10364200AD007108AE007208AF007308B0000A3016
:10365200B036AF0CAE0CAD0C890B292B0330AD3557
:10366200AE0DAF0DB00D890B302B3008B7002F080F
:10367200B6002E08B5002D08B400472B3A08003AD0
:103682000319FC2A013A0319042B0C2B7C08AD0008
:10369200AE01AF01B0013008A3002F08A2002E082E
:1036A200A1002D08A0007C08B1000130B136890BC1
:1036B200572B31083407A40035080318350F0310BF
:1036C200A50036080318360F0310A60037080318A2
:1036D200370AA700AF310A272108FD002008FC00A5
:1036E2000800A8007308F6000330F636890B762B23
:1036F2007608A70073080739A5000130F600750A9D
:10370200832BF635890B822B7608FF3EA400240812
:10371200F600F701250A8F2BF635F70D890B8D2B55
:103722007608A0007708A10074082405F600F701C6
:10373200250A9D2BF635F70D890B9B2B7608A200E7
:103742007708A300803028020318080004302702FB
:103752000318052C2708F600F7010730F635F70D98
:10376200890BAF2BF030F8002C30F900760878077F
:10377200FA007708793DFB0028087A0786000030B6
:103782007B3D8700200901052204A6002708F600D8
:10379200F7010730F635F70D890BCB2BF030F80027
:1037A2002C30F90076087807FA007708793DFB009B
:1037B20028087A07860000307B3D8700010826062C
:1037C2000319052C2708F600F7010730F635F70D27
:1037D200890BE72BF030F8002C30F90076087807D7
:1037E200FA007708793DFB0028087A078600003046
:1037F2007B3D8700260881002808F0002808F10098
:103802002708B73145279B312508031908002708E7
:10381200013EF600003003180130F7007708803AC5
:10382200F80080307802031D182C04307602031849
:10383200080040012708F600F7010730F635F70DBA
:10384200890B1F2C7030F8002D30F90076087807AC
:10385200FA007708793DFB0028087A0786000030D5
:103862007B3D8700210901052304A6002708F600F5
:10387200F7010730F635F70D890B3B2C7030F80055
:103882002D30F90076087807FA007708793DFB00B9
:1038920028087A07860000307B3D8700010826064B
:1038A200031908002708F600F7010730F635F70D6F
:1038B200890B572C7030F8002D30F9007608780704
:1038C200FA007708793DFB0028087A078600003065
:1038D2007B3D8700260881002808F0002808F100B7
:1038E2002708013EB7314527080044013508031D6A
:1038F200902C400168088600690887000108EC00E6
:103902000230EC36890B822C6C08ED00EE016D085A
:103912004101CC0040016E084101CD00952C0130DF
:103922004101CC000030CD004C08D30044013508E1
:10393200031DB22C400168088600690887004131E6
:103942000108EC000230EC36890BA42C6C08ED0067
:10395200EE016D084101CE0040016E084101CF0029
:10396200B72C01304101CE000030CF004E08D40008
:103972005308031DBE2C0130D3005408031DC32C71
:103982000130D400D001D2014001680886006908E4
:103992008700403F4101DA00413FDB00423FDC004B
:1039A2005308F00052089E3E8400FB300318013E8B
:1039B20085000008B431CA249C31F3004001680834
:1039C2008600690887000108B6316C269C314101E6
:1039D200DA005408F0005208963E8400FB300318C7
:1039E200013E85000008B431CA249C31F300400135
:1039F200680886006908870041310108B6316C26E3
:103A02009C314101DB00400168088600690887009B
:103A1200010841015A06031D192D4001680886005C
:103A220069088700413141015B08010603195F2DD6
:103A32005B084001E30041015C084001E4002030E2
:103A4200E500D530E6000030E70041015A08933125
:103A5200C4239C314101D10051080319322D510870
:103A62000800D5304001A0000030A1006B08A3007F
:103A72006A08A200A7315B279C31003A03195F2D27
:103A8200680886006908870041015A08C03F5B0840
:103A9200C13F5C08C23FD53086000030870040013C
:103AA2006A0884006B0885000530EC0016001A00D5
:103AB200EC0B572D01304101D000C52C01304101E2
:103AC200D20708305202031CC52C5008031DC32C18
:103AD2005303031D712D5403031D712D0030080083
:103AE2000230F0000030F1005308013EF2000030D5
:103AF20003180130F300AE31BD269C317008D300AB
:103B02000230F0000030F1005408013EF2000030B3
:103B120003180130F300AE31BD269C317008C22C6F
:103B220001304101CC000130CF004001680886001D
:103B320069088700403F4101D500413FD600423F1E
:103B4200D70040016C080319B02D41014F08F30062
:103B52005608B6316C269D314101D600B92D41017E
:103B62004F08F3005508B6316C269D314101D5004E
:103B7200400168088600690887000108410155066E
:103B8200031DCE2D40016808860069088700413177
:103B92004101560801060319F62D56084001E300BB
:103BA200410157084001E4002030E500D030E60032
:103BB2000030E700410155089331C4239D31410192
:103BC200CD004D080319E72D4D080800D030400103
:103BD200A0000030A1006B08A3006A08A200A73170
:103BE2005B279D31003A031DFE2DFE304101CF07B8
:103BF2004F08803A813E0318962D41014F08803AC2
:103C0200813E0318062E0030080040016808860035
:103C12006908870041015508C03F5608C13F57084F
:103C2200C23FD03086000030870040016A0884001D
:103C32006B0885000530ED0016001A00ED0B1D2EF5
:103C420002304101CE004E080319042E40016808DB
:103C5200860069088700403F4101D500413FD600F8
:103C6200423FD70040016C080319472E41014E081C
:103C7200F0004F08B431CA249D31F30041015608C7
:103C8200B6316C269D314101D600562E41014E08B7
:103C9200F0004F08B431CA249D31F30041015508A8
:103CA200B6316C269D314101D5004001680886007D
:103CB20069088700010841015506031D6B2E40016A
:103CC20068088600690887004131410156080106EB
:103CD2000319B52E56084001E3004101570840017F
:103CE200E4002030E500D030E6000030E70041017A
:103CF20055089331C4239D314101CD004D08031D68
:103D0200E52DD0304001A0000030A1006B08A300D7
:103D12006A08A200A7315B279D31003A0319B52E2C
:103D2200680886006908870041015508C03F5608A7
:103D3200C13F5708C23FD0308600003087004001A3
:103D42006A0884006B0885000530ED0016001A0031
:103D5200ED0BA72E41014C080319242E20304E02F0
:103D62000318242E4E35232E4101CC014E0840016A
:103D7200ED000130ED36890BBB2E6D08222EB90005
:103D82005C30C000D82F3608031DD22E4008B00088
:103D92000330B100F330B200FB30B300B531EA2595
:103DA20008004008AB000330AC003608B700B80189
:103DB2003708AD003808AE00AF01B5310A259E3193
:103DC2002C08B1002B08B0000E30B200FC30B3005A
:103DD200B531EA2508004008AB000330AC003608D4
:103DE200B700B8013708AD003808AE00AF01B531F1
:103DF2000A259E312C08B1002B08B0002A30B200EF
:103E0200FC30B300B531EA2508004008AB000330AE
:103E1200AC003608B700B8013708AD003808AE006C
:103E2200AF01AF0AB5310A259E312C08B1002B082B
:103E3200B0003C30B200FC30B300B531EA250800D6
:103E42004008AB000330AC003608B700B8013708B1
:103E5200AD003808AE00AF01B5310A259E312C08FD
:103E6200B1002B08B0003C30B200FC30B300B531D9
:103E7200EA2508004008AB000330AC003608F63EE5
:103E8200AD00FF3003180030AE00AF01AF0AB5310C
:103E92000A2508003608031D522F5230BA00FB30A3
:103EA200552F3930BA00FC30BB004008B000033057
:103EB200B1003B08B3003A08B200B531EA25080068
:103EC2004008AB000330AC003608B700B801370831
:103ED200AD003808AE00AF01AF0AB5310A250800BF
:103EE2004008AB000330AC003608643EAD00003041
:103EF20003180130AE000230AF00B5310A250800C8
:103F02004008AB000330AC003608B700B8013708F0
:103F1200F0003808F1000A30F2000030F300B63148
:103F22001B269E3171084001AE007008AD00AF0142
:103F3200B5310A259E312C08B1002B08B0002A3079
:103F4200B200FC30B300B531EA2508003608031D83
:103F5200712F4008B0000330B1000930B200FC30CC
:103F6200B300B531EA25080036030319C92F03301F
:103F720036060319C02FD230BE00FB30C32F60308B
:103F8200BE00FB30BF003F08BD003E08BC00CD2F85
:103F9200E730BC00FB30BD004008B0000330B10088
:103FA2003D08B3003C08B200B531EA2508003908E3
:103FB200D13E8400FA300318013E85000008003A21
:103FC2000319C42E013A0319EC2E033A0319062FE2
:103FD200013A0319212F073A03193B2F013A03191A
:103FE2004B2F033A0319612F013A0319712F0F3A2C
:103FF2000319812F013A0319A72FB52F0800400199
:10400200CA01CB01500193180A284001CA01CB0111
:104012002128131811288D304001CA00FB302028B6
:10402200131A1828AE304001CA00FB302028931B17
:104032001C28131F212856304001CA00FB30CB0038
:104042003F305001930040014A084B040319080015
:104052004B08C7004A08C600D030C8000730C90064
:10406200B631022608004001A601A7010030B7318F
:10407200D727A0314001A801093041019E00353007
:10408200890B4128000041011314131846280D081A
:104092004001A50041010C084001A4002408A60724
:1040A2002508A73D0130A80708302802031C3D2837
:1040B2000430A0000030A1000030A2000030A300B4
:1040C2002608F0002708F100F201F3010030F700A2
:1040D2000030F6000030F5000B30F400A9310A215F
:1040E200A03170084001A0077108A13D7208A23DED
:1040F2007308A33D0330A336A20CA10CA00C890BBC
:104102007C2821084401EE00400120084401ED0012
:1041120008007008860087014431403FF400413FA7
:10412200F500423FF600433FF70070088600870122
:104132004831403FF800413FF900423FFA00433F17
:10414200FB0077087B02031DB02876087A02031D64
:10415200B02875087902031DB02874087802031C80
:10416200BB280030F3000030F2000030F1000030D4
:10417200F00008007008860087014831403FF400D3
:10418200413FF500423FF600433FF70070088600CA
:1041920087014431403FF800413FF900423FFA00B5
:1041A200433FFB007408F8027508F93B7608FA3BB6
:1041B2007708FB3B7B08F3007A08F2007908F100EC
:1041C2007808F00008000030FB000030FA000030F0
:1041D200F9000030F80073087204710470040319C6
:1041E200022973087702031D002972087602031D53
:1041F200002971087502031D002970087402031C4E
:104202000B290130F3000030F2000030F1000030E1
:10421200F0000800FC010130F435F50DF60DF70D44
:10422200890B0D290130F835F90DFA0DFB0D890BBB
:10423200142973087702031D282972087602031DC8
:10424200282971087502031D282970087402031CAD
:1042520033297008F4027108F53B7208F63B7308C3
:10426200F73B78140130FC0718307C02031C0C2940
:104272007B08F3007A08F2007908F1007808F00070
:1042820008004001AF002F08C83E860002308700B8
:104292000108AE002F08C43E8600023087000108E4
:1042A200AD002F08C83E860002308700FF30810033
:1042B2002F08C43E86000230870081012E082D029D
:1042C200031C08002E08F7002F08A500A6010730DE
:1042D200A535A60D890B6929F030A7002C30A8005E
:1042E20025082707A9002608283DAA002E08290725
:1042F200AB0000302A3DAC002B08F8002C08F90076
:104302002E082D02013EFA002F08AB31AF23A13156
:10431200003A03199C29B5319125A131013044019C
:10432200C00705304002031C99290130BF00080074
:10433200B731042708004401BF01BD01C0010800D4
:104342004108860042088700403F4401A400413FE3
:10435200A500423FA6000130400143020030443B29
:104362000030453B0130463B0318C729400146084F
:104372004501B700400145084501B6004001440827
:104382004501B500400143084501CF2901304501EF
:10439200B7000030B6000030B5000030B400370876
:1043A2004001B000450136084001AF004501350823
:1043B2004001AE00450134084001AD00A43185241E
:1043C200A1312E084401B40040012D084401B3007C
:1043D2004001410886004208870041310108F3008C
:1043E200410886004208870042310108F400410872
:1043F20086004208870001089931EE210800A901D0
:10440200A801AA01AB012030F8002B08A831AF2087
:10441200A231003A03191F2A400129080319192A57
:104422002008FD002808FD0280307D0203181F2AA3
:104432002008A8002B08AA000130A9000130400181
:10444200AB0710302B02031C042A2908031D2F2A54
:104452000F304401BA00B901003008002030F800E2
:104462002A08A831AF20A23140012A084401BA002B
:10447200400120084401B9005030F3000230F4003A
:1044820040012108F5002208F6008731E227A23117
:10449200230803194E2A01304F2A00304401D60066
:1044A2005330F3000230F40040012408F5002508DF
:1044B200F6008731E22726084401D70001300800C0
:1044C2004001CA004A080319762A44015608031D0E
:1044D200762A5B08D3005C08D4005D08D500013061
:1044E200D600F301F4010030842A40014A08031D7A
:1044F20008004401560803190800D6015408F300C5
:104502005508F40053089931EE21A231B4319924AF
:10451200A2315608031DA42A5708031D942A4001FC
:10452200C601C7019C2A5708643E4001C6000030FC
:1045320003180130C70047084401B2004001460891
:104542004401B100A62AB101B201A8315820A2311A
:1045520044015608031DB22AF9304001C800FB305D
:10456200B62AE0304001C800FB30C9004908BF004C
:104572004808BE002030C0000330C100A931D42158
:104582004401CB010800BB003008840031088500DB
:104592001200031908003008840031088500000861
:1045A200B631E426A23177084001B6007608B5009C
:1045B200BD010A303D02031CE12AB701B801F52A08
:1045C2003D08B2000130B236890BE42A32083507C1
:1045D200840036080318013E85000008B300B401C8
:1045E2003308B7003408B8003708BC003C080F395C
:1045F200B631C426A231B9003C08B2000430B2364A
:10460200890B002B3208B631C426A231BA003B080E
:10461200F3003908F4000830F5002F083D079B31FC
:104622007223A23140013B08083EF3003A08F4002D
:104632000830F5002F083D079B317223A23101306B
:104642004001BD070C303D02031CDA2A0130B007DD
:104652000030B13D0C30AF07C52AAB31F023A33196
:104662007708B3007608B200B6315126A331400173
:10467200B4013408233E860087013408203EB43159
:104682008D24A331810001304001B4070F30340280
:10469200031C3A2B5E302306031D08003308240650
:1046A200031D080025083206031D08002F30B4310F
:1046B2008D24A331FD002330F0000F30F100A8312A
:1046C200DC20A3317D06031D08004001B40134083B
:1046D200033E233E860087013408F53E8400FA300B
:1046E2000318013E850000080102031C962B3408C2
:1046F200033E233E860087013408E93E8400FA30F7
:104702000318013E85000008FD0001087D02031C1C
:10471200962B3408A03E8600023087003408033E00
:10472200233E84008501000881000130B4070C306B
:10473200340203180800682BAB010130A0000030DE
:10474200A1002B0AA62BA035A10D890BA42B440195
:104752002D0840012005A20044012E084001210538
:10476200A300220823040319052C0330F0002B08B0
:10477200B431CA24A331383E8600033087000108D1
:104782004001A4000330F0002B08B431CA24A33145
:10479200383EF3000330F400B531BB25A3314001AC
:1047A200A5002B082C3E8600033087000108A600D6
:1047B2002B08203E8600033087000108A700243022
:1047C200F0000430F100A831DC20A3314001A80040
:1047D2000530F0002B08B431CA24A331303E400129
:1047E200A900AA012A08243E860087010108F800D0
:1047F20029082A07B7318A27A33101304001AA07C5
:1048020005302A02031CF32B0130AB070C302B02BC
:10481200031C9E2B4401AD01AE010800AA01400118
:104822002A08233E860087010A30F0000030F1009A
:104832007A08F3007908F200A8310420A431700844
:10484200303E81000130AA070A30F0000030F1004A
:104852007A08F3007908F200A9313921A4317108EC
:10486200FA007008F9002A087B06031D402C2A086A
:10487200233E860087012E3081000130AA07790885
:104882007A04031D102C7B080319662C7B08013E59
:10489200A000003003180130A1002108803AA200D4
:1048A20080302202031D572C2A082002031C662C8A
:1048B200102C7708860078088700203081000130AC
:1048C200F7070030F83D0130FC027C0840012A0263
:1048D20003187C2C5A2C7708860078088700013050
:1048E200AA022A08233E84008501000881000130C3
:1048F200F7070030F83D2A08031D6C2C7708860064
:1049020078088700810108003008F3002F08F200C0
:104912002E08F1002D08F000A5318025A431710880
:10492200C0007008BF0010304002003003193F027F
:10493200031CA12CE7304001AD000330AE0008009B
:104942000030B1001030B2003F083102A000400830
:10495200323BA100A201A3010030B3001030B40029
:104962003F083302B5004008343BB600B636B50CFA
:104972003508B7003608B800B901BA013F08003E51
:10498200F0001030403DF100F201F3010030F70079
:104992000030F6000030F5006430F400A9310A213D
:1049A200A43170084001B7077108B83D7208B93DDB
:1049B2007308BA3D3A08A7003908A6003808A500CE
:1049C2003708A400AF310A27A4312308BE00220809
:1049D200BD002108BC002008BB003E08031D9B2C23
:1049E2003D08031D9B2CE8303B0203303C3B03187F
:1049F2009B2C40013C08AE003B08AD000800D000F3
:104A0200A8312E20A5310C30400150020318522D3E
:104A12004430AB000030AC005008013EAD00003025
:104A220003180130AE00AF01B5310A25A5312C08BB
:104A3200B1002B08B0002630B200FC30B300B53113
:104A4200EA25A531A9014430AA000030AB000030AC
:104A5200AD319025A531A9015008C100C201C1356F
:104A6200C20D9430410784007930423D8038850080
:104A7200003FAA00013FAB000130AD319025A531C6
:104A82005008A03E8600023087000108B600500898
:104A92009E31C026A531AF015C30B0000330B100B9
:104AA200792DA901B830AA00FA30AB000030AD313F
:104AB2009025A5310C3050060319702D0D3050068B
:104AC2000319672D1330CE00FC306A2D1930CE0049
:104AD200FB30CF004F08CD004E08CC00742D0430BF
:104AE200CC00FC30CD00AF014D08B1004C08B00045
:104AF2001230A231C422A531B5314225080000305E
:104B0200A3000030A2000030A1000030A00040301D
:104B1200A7000030A6000030A5000030A40027083E
:104B22007302031D9E2D26087202031D9E2D250869
:104B32007102031D9E2D2408700203180E2E0230EE
:104B4200A736A60CA50CA40C890BA12D902D20082C
:104B52002407F4002108253DF5002208263DF60031
:104B62002308273DF70077087302031DC22D76083C
:104B72007202031DC22D75087102031DC22D740835
:104B82007002031C002E20082407F4002108253D92
:104B9200F5002208263DF6002308273DF700740899
:104BA200F0027508F13B7608F23B7708F33B2408E4
:104BB200F4002508F5002608F6002708F70020086B
:104BC200F8002108F9002208FA002308FB0001304E
:104BD200FB36FA0CF90CF80C890BE92D7808F4076E
:104BE2007908F53D7A08F63D7B08F73D7708A30082
:104BF2007608A2007508A1007408A000072E0130F3
:104C0200A336A20CA10CA00C890B012E0230A736F0
:104C1200A60CA50CA40C890B082E27082604250433
:104C22002404031DA82D2108F1002008F00008002B
:104C3200440142080319222E4208F400C2017408FA
:104C420008008B1340016F08F10044014708F3008C
:104C5200C70143016E08F00044014608F200C60194
:104C62008B17F40173080319532E4508031D3F2EB9
:104C7200FA307302031C3F2E0330502E4508031DE9
:104C8200482E19307302031C482E0230502E45085C
:104C9200031D512E03307302031C512E0130F40008
:104CA200C401C50119307102031C642E4508031D9D
:104CB200642E0130C50074080319622E0230C2004E
:104CC200642E0230F400FA307102031C752E44087F
:104CD200031D752E0130C40074080319732E0330AE
:104CE200C200752E0330F400720803198C2E0230B4
:104CF2007202031C8B2E0A30720203188B2E42089A
:104D0200031D8B2E74080319892E0430C2008B2ECA
:104D12000430F400C30114307002031CA42E4308B3
:104D2200031DA42E40010F1DA42E01304401C30017
:104D32007408031D9F2E0530F400A42E4208031DA3
:104D4200A42E0530C2007108031DAD2E7308031D89
:104D5200AD2E4401C401C5017008031D202E720846
:104D6200031D202E4401C301202E75088600013048
:104D72008700023001020318C62E75088600013032
:104D820087000108810AFA00252F74088600013085
:104D92008700403F4001A000413FA100423FA200E6
:104DA200433FA3007408053E860001308700403F60
:104DB200A400413FA500423FA600433FA7002308AD
:104DC2002702031DEE2E22082602031DEE2E2108C5
:104DD2002502031DEE2E20082402031CF22E0130B0
:104DE200F32E0030FA000530F0007A08B431CA24FC
:104DF200A63174074001A000200886000130870018
:104E0200403FA100413FA200423FA300433FA40014
:104E12007808860079088700403FA500413FA60038
:104E2200423FA700433FA80024082802031D232F66
:104E320023082702031D232F22082602031D232FE6
:104E420021082502031808007608860077088700E3
:104E5200403F4001A000413FA100423FA200033079
:104E6200F0007A08B431CA24A63173074001A300C6
:104E720023088600013087002008C03F2108C13F77
:104E82002208C23F78088600790887000530F000C2
:104E92007A08B431CA24A63174074001A000200860
:104EA2008400013085000530A10016001A00A10B14
:104EB200562F0800FF30A400FF30A500FF30A600E7
:104EC2001F30A700220886002308870044312008EB
:104ED200840021088500043100080107A800A90107
:104EE200A90D290DA90CA80C290DA90CA80C28089C
:104EF200AA002908AB000030AB1BFF30AC00AD00AC
:104F02002A08A4052B08A5052C08A6052D08A70527
:104F120001302407B4000030253DB5000030263DA5
:104F2200B6000030273DB70022088600230887001C
:104F3200403FA400413FA500423FA600433FA700D7
:104F42004030A8000030A9000030AA000030AB00B9
:104F52002008860021088700403FAC00413FAD0099
:104F6200423FAE00433FAF0022088600230887007D
:104F7200403FB000413FB100423FB200433FB30067
:104F82000830B336B20CB10CB00C890BC22F330807
:104F9200F3003208F2003108F1003008F00037085F
:104FA200F7003608F6003508F5003408F400A93198
:104FB2000A21A73170084001AC077108AD3D7208A3
:104FC200AE3D7308AF3D2C08A8072D08A93D2E0859
:104FD200AA3D2F08AB3D27082B02031DFA2F2608F6
:104FE2002A02031DFA2F25082902031DFA2F24087D
:0E4FF20028020318FE2F0130080000300800CE
:10500200B53191250800700871040319292801306F
:10501200F400F11B14280130F035F10D890B0D2835
:105022000130F4070A2871087302031D1A28700858
:105032007202031C20287008F2027108F33B01304F
:10504200F136F00C890B21280130F402031D1428DB
:105052007308F1007208F0000800F701F801770800
:10506200F100F2010730F135F20D890B3428F030EE
:10507200F3002C30F40071087307F5007208743DD8
:10508200F6007808750786000030763D87008101BA
:105092000130F80780307802031C30280130F7070E
:1050A20004307702031C2F28B531912508004001F6
:1050B200AF014630B000FB30B1001230A231C42241
:1050C200A83144015608031D6B287D304001BE0003
:1050D200FA306F282E304001BE00FC30BF00AF0115
:1050E2003F08B1003E08B0001230A231C422A831FC
:1050F2002A30AF004130B000FC30B1001230A23192
:10510200C42208004001C30145012A080319AC2842
:105112007C0886007D088700403F4001AD00413F8A
:10512200AE00423FAF00433FB000A4318524A83116
:1051320045012A08643E4001C100003003180130D5
:10514200C2002E084202031DA8282D084102031C9A
:10515200AC280130C300400143080800FA007A0875
:10516200F9000330F935890BB3287908703EFB004A
:10517200FC0178087C07860087017B087C07B43134
:105182008D24A83181000130FC0708307C02031C09
:10519200BA287808073E840085017808F0000730B5
:1051A200F100A831DC20A8310006031DDA28013005
:1051B2000800003008005A30F7000130F102710A8D
:1051C200031908297008860087010108F7060130D3
:1051D200F007F601F71BF4287708F200F3017235A5
:1051E200F400730DFE287708F200F301F235F30D97
:1051F20007307206F40000307306F5007408F700F9
:105202000130F607083076020318DE28EB2877080B
:1052120008000030FB000030FA000030F9000030D6
:10522200F800701C1C297408F8077508F93D760807
:10523200FA3D7708FB3D0130F435F50DF60DF70D1B
:10524200890B1D290130F336F20CF10CF00C890B9D
:1052520024297308720471047004031D12297B0847
:10526200F3007A08F2007908F1007808F0000800EB
:10527200F401F50170087104031966290130F60082
:10528200F11B4B290130F035F10D890B4429013016
:10529200F60741290130F435F50D890B4C297108C7
:1052A2007302031D562970087202031C5D297008DF
:1052B200F2027108F33B74140130F136F00C890BE1
:1052C2005E290130F602031D4B297508F1007408AE
:1052D200F0000800F000F201F01F722940011615DB
:1052E2007429400116111A30890B752900324001C8
:1052F20096151A30890B7B29003240019611031052
:10530200F00D0130F20708307202031C6D291615E8
:105312001A30890B8A290032400196151A30890BFE
:105322009029003240010C0C890C0139F1009611D0
:105332001A30890B9A29003271080800A8312E20F0
:10534200A9314001AF013230B000FC30B100003071
:10535200A231C422A9312A30AF004130B000FC3062
:10536200B1000030A231C422A9316030AF003D301B
:10537200B000FC30B1000030A231C422A931A83102
:105382005820A93144016E08FD006D08FC009031DF
:105392000320FF304401E900FF30EA006A08EC0014
:1053A2006908EB000800AF014230B000FB30B100E9
:1053B2001230A231C422A931AF013F08B1003E0828
:1053C200B0001230A231C422A93101304401CC0014
:1053D20040014008C2004108C300C401C501B53103
:1053E200552570084001C2077108C33D7208C43DCB
:1053F2007308C53D45084501D700400144084501F1
:10540200D600400143084501D5004001420845014C
:10541200D40008007E01B8010730C300CE01D901D3
:10542200E401530190139413400196011830970040
:1054320010309800063099009A01910127309200AD
:105442009301940195017E013A15BA15DB145B159F
:105452001A304F019600FE309700473098007F3097
:10546200990077309A00DF309B00453040019F0061
:105472009E01F9309D009C014E018C12961640014E
:105482009E178B170800A0313420AA316E08FD0048
:105492006D08FC0090310320AA310E3044016E02E7
:1054A200753003196D02031C592A40019711652AB0
:1054B2000E306E02073003196D02031C632A40018D
:1054C2009711642A4001171201304401CD00B53111
:1054D2005525AA317308DB007208DA007108D90079
:1054E2007008D8000D3044016E02483003196D0275
:1054F200031808000230C9000800F4007408F10023
:10550200F201F135F20D7C30710784007930723D81
:1055120080388500003FF500013FF600F70174086E
:10552200C53E8400FA300318013E85000008770268
:105532000318B22A77087507840076080318013E1B
:105542008500000870020318AF2A770875078400E7
:1055520076080318013E8500000808000130F707AD
:10556200902A750884007608850000080800440126
:105572006A0840013F06031DC22A4401690840012E
:105582003E060319080044014C08031D08004001AF
:105592003F084401EA0040013E084401E90040019D
:1055A2003E083F040319E92A3C30AF003F08AC0033
:1055B2003E08AB000230AD000430AE00B431E82446
:1055C200AA31B0000330B1001230A231C422080067
:1055D2003C30AF001830B000FC30B1001230A231C4
:1055E200C4220800FD007D08031DFE2A4001161298
:1055F200961116114401C101080040011616C83067
:10560200F0000030F100B5311C25AA314401C0017F
:10561200AD31DA25AA314401BF00B5315525AA3191
:105622007308C3007208C2007108C1007008C0008C
:1056320001304401C100B5319125AA31B53142256D
:10564200AA3144013F08031D0800B4318424AA3161
:10565200003A0319080001304401BF000800AB31D1
:10566200F023AB317708B3007608B2005E30A300B6
:105672003308A4003208A500B4013408033E233ED7
:10568200860087013408A03E8400023085000008AD
:1056920081000130B4070C303402031C3E2BB401EC
:1056A2003408233E860087010108F8003408203EB2
:1056B200B7318A27AB3101304001B4070F303402D1
:1056C200031C512B2330F0000F30F100A831DC20F5
:1056D200AB31F8002F30B7318A2708007108730206
:1056E200031D752B70087202031C7D2B7008720259
:1056F200FA007108733B822B72087002FA00730879
:10570200713BFB0071087302031D892B7008720242
:10571200031C8F2B7308FD007208922B7108FD0089
:105722007008FC007D08F7007C08F600F736F60CDE
:10573200F736F60CF736F60C74087607F80075089B
:10574200773DF9007B087902031DA92B7A087802BC
:10575200031CAD2B0130080000300800A00002300D
:10576200F7072008B03EA10077080F39A20077089A
:10577200FB000430FB36890BBB2B7B081038A300DF
:105782002130F3000030F4000330F50088310020AE
:10579200AB314001A400B5316925AB317830A93174
:1057A2006B21AB314001A4044030A9316B21AB31F4
:1057B2000130FA027A0A0319EB2B7808840079087F
:1057C20085000008A9316B21AB310130F8070030A8
:1057D200F93DD92BB5312F254001240808005A3054
:1057E2004001A200A530A000A101FF30F00000306E
:1057F200F1002108703E8400F7300318013E850055
:105802000008F80022087807F200F301F30DAC312A
:105812003124AB317008A200FF30F0000030F100FB
:1058220020082207F200F301F30DAC313124AB3131
:105832007008A0000130A1070C302102031CF62BD6
:105842002208F800F9012008FA00FB017A08FB009F
:10585200FA0178087A04F60079087B04F700080058
:10586200F501F31F3B2CF209F309F20A0319F30ABB
:105872000130F500F11F422CF009F109F00A031979
:10588200F10A700871040319672C0130F400F11B4E
:10589200522C0130F035F10D890B4B2C0130F407FD
:1058A200482C71087302031D582C70087202031CE5
:1058B2005E2C7008F2027108F33B0130F136F00CF5
:1058C200890B5F2C0130F402031D522C7508031959
:1058D2006F2CF209F309F20A0319F30A7308F100B3
:1058E2007208F00008007408F6007308F50007302B
:1058F200F636F50C890B792C2530F0007308B4319B
:10590200CA24AC317506FB009B2C7B08F500F6011E
:10591200F535F60DF030F7002A30F80075087707F4
:1059220086007608783D8700160001040319B62C1C
:105932000130FB077B08F500F601F535F60DF03076
:10594200F7002A30F8007508770786007608783D58
:105952008700403FF900413FFA0074087A06031DB0
:10596200B42C73087906031D862C7B080800F70007
:105972007308F4000430F436890BBC2C0A3074022C
:105982000318CA2C0F307305F4000A307402031C8A
:10599200D32C7708DD3E8400FA300318013E8500DF
:1059A200000808000F307305F4000A30F000730895
:1059B200F5000430F536890BDB2C7508B431CA24A6
:1059C200AC317407F6007708F53E8400FA3003180C
:1059D200013E850000087602031CCA2C7708E93EC6
:1059E2008400FA300318013E85000008F4007608AE
:1059F2007402031CCA2C76080800A8312E20AC3190
:105A02001D304001AF00D930B000FB30B100003092
:105A1200A231C422AC310D30A900FD30AA00F93008
:105A2200AB000330AD319025AC31B5314225AC31FC
:105A320040019711D030F0000730F100B5311C253C
:105A4200AC31A8312E20AC3111304001AF006930A9
:105A5200B000FB30B1000030A231C422AC310D30B5
:105A6200A9000F30AA00FA30AB000330AD31902507
:105A7200AC31B5314225AC31D030F0000730F10005
:105A8200B5311C2540019715080064004401BB0193
:105A920040015A08FC0008309A31AF22AD317D082E
:105AA200DC007C08DB005A08FC000A309A31AF2285
:105AB200AD317D08DE007C08DD005A08FC000A30AA
:105AC2009A31AF22AD317D08E0007C08DF005A0830
:105AD200FC0008309A31AF22AD317D08E2007C082B
