:0400000080314228E1
:100008007E14803100308600003087004E018C1E3F
:1000180040288C1201304501B8070030B93DBA3D7F
:10002800BB3D01304401BC070A303C02031C402898
:10003800BC0140018D1A26286F0A03192E280130A9
:10004800EF072E286F0803192E286F084401CA00ED
:100058004001EF018F18372843016E0A0319402821
:100068000130EE07402843016E08031940286E0846
:100078004401C9004301EE017E1009008031442883
:10008800B8308400B430850044011200E900120041
:10009800EA001200EB001200EC001200ED00120062
:1000A800EE001200EF00F0308400283085000030A8
:1000B800FE000730FF00B431E82480314001EF0131
:1000C8004301EC01ED01EE0120308400023085008F
:1000D8004130FE000030FF00B431E8248031A03008
:1000E8008400023085004C30FE000030FF00B4313F
:1000F800E824803120308400033085004F30FE0032
:100108000030FF00B431E8248031A030840003308F
:1001180085001330FE000030FF00B431E8247E1063
:1001280040018331BC2B0130B7000030B8000030EB
:10013800B9000030BA003508BB003608BC00BD0164
:10014800BE012F08BF003008C000C101C2013F082E
:10015800BB074008BC3D4108BD3D4208BE3D3B08C9
:10016800B7073C08B83D3D08B93D3E08BA3D0130E7
:10017800BA36B90CB80CB70C890BBC282D08860008
:100188002E0887003708C03F3808C13F0130B70044
:100198000030B8000030B9000030BA003308BB00A6
:1001A8003408BC00BD01BE013108BF003208C000E0
:1001B800C101C2013F08BB074008BC3D4108BD3D25
:1001C8004208BE3D3B08B7073C08B83D3D08B93D6D
:1001D8003E08BA3D0130BA36B90CB80CB70C890BD9
:1001E800EF282D088600870142313708C03F3808BC
:1001F800C13F2D0886002E088700403FB700413FC9
:10020800B8003708F0003808F100F201F3014501A1
:1002180027084001B900BA01BB01BC013C08F7003E
:100228003B08F6003A08F5003908F400A9317621B0
:10023800803173084001D3007208D2007108D100E0
:100248007008D0002D0886002E088700403FB700B0
:10025800413FB8003708F4003808F500F601F70107
:100268002D0886002E088700403FB900413FBA009C
:100278003908F0003A08F100F201F301A9317621BA
:10028800803170084001BB007108BC007208BD00D5
:100298007308BE000630BE36BD0CBC0CBB0C890B07
:1002A8004F293E08D7003D08D6003C08D5003B083A
:1002B800D4005308F3005208F2005108F100500826
:1002C800F0000030F7000030F6000030F50019307B
:1002D800F400A9317621803170084001B700710817
:1002E800B8007208B9007308BA000130BA36B90C00
:1002F800B80CB70C890B7A290030A3000030A20093
:100308000030A1006430A0005708F3005608F2003E
:100318005508F1005408F00045012808643EF4002F
:10032800003003180130F500F601F51BF6037608D6
:10033800F700A9317621803173084001A7007208BF
:10034800A6007108A5007008A400AF315D278031B0
:100358002008B7072108B83D2208B93D2308BA3D4F
:100368002D088600870144313708C03F3808C13F4F
:100378003908C23F3A08C33F2D0886008701423139
:10038800403FB700413FB8003708F0003808F10097
:10039800F201F301450127084001B900BA01BB0188
:1003A800BC013C08F7003B08F6003A08F50039089C
:1003B800F400A9317621803173084001D300720816
:1003C800D2007108D1007008D0002D08860087017E
:1003D8004231403FB700413FB8003708F4003808C1
:1003E800F500F601F7012D08860087014231403FEC
:1003F800B900413FBA003908F0003A08F100F201AB
:10040800F301A9317621803170084001BB007108E1
:10041800BC007208BD007308BE000630BE36BD0CB5
:10042800BC0CBB0C890B122A3E08D7003D08D6002D
:100438003C08D5003B08D4005308F3005208F200EA
:100448005108F1005008F0000030F7000030F600C5
:100458000030F5001930F400A93176218031700898
:100468004001B7007108B8007208B9007308BA00F3
:100478000130BA36B90CB80CB70C890B3D2A0030DC
:10048800A3000030A2000030A1006430A00057088B
:10049800F3005608F2005508F1005408F000450131
:1004A8002808643EF400003003180130F500F60116
:1004B800F51BF6037608F700A93176218031730819
:1004C8004001A7007208A6007108A5007008A400E2
:1004D800AF315D2780312008B7072108B83D2208D1
:1004E800B93D2308BA3D2D088600870148313708F1
:1004F800C03F3808C13F3908C23F3A08C33F2D08FA
:10050800860087014431403FF000413FF100423FFF
:10051800F200433FF3002D08860087014831403F31
:10052800F400413FF500423FF600433FF700A13198
:10053800502180312D08860087014C317008C03F5A
:100548007108C13F7208C23F7308C33FCD0130082C
:10055800F1002F08F0003608F3003508F2001830D3
:10056800F4000030F500AC310F248031003A031953
:10057800D12A3208F1003108F0003408F3003308BA
:10058800F2001830F4000030F500AC310F2480314F
:10059800003A0319D12A0130CD002D0886008701C1
:1005A80050314D08810030083602031DDD2A2F081E
:1005B8003502031C122B35083604031DE62AC50133
:1005C800C6010E2B3508A0003608A100A201A30120
:1005D8002F083502B7003008363BB8003708B90095
:1005E8003808BA00BB01BC010830B935BA0DBB0DDB
:1005F800BC0D890BF92A3C08A7003B08A6003A085D
:10060800A5003908A400AF315D2780312108C60054
:100618002008C5004608C4004508392B2F08A0004B
:100628003008A100A201A30135082F02B70036083F
:10063800303BB8003708B9003808BA00BB01BC0124
:100648000830B935BA0DBB0DBC0D890B252B3C08FC
:10065800A7003B08A6003A08A5003908A400AF3156
:100668005D2780312108C4002008C3003208340205
:10067800031D402B31083302031C752B3308340447
:10068800031D492BC901CA01712B3308A000340886
:10069800A100A201A30131083302B7003208343B9C
:1006A800B8003708B9003808BA00BB01BC010830E7
:1006B800B935BA0DBB0DBC0D890B5C2B3C08A700E6
:1006C8003B08A6003A08A5003908A400AF315D2709
:1006D80080312108CA002008C9004A08C800490812
:1006E8009C2B3108A0003208A100A201A301330805
:1006F8003102B7003408323BB8003708B90038086F
:10070800BA00BB01BC010830B935BA0DBB0DBC0D30
:10071800890B882B3C08A7003B08A6003A08A500CF
:100728003908A400AF315D2780312108C8002008AE
:10073800C70043084707CE004408483DCF000130B2
:100748004F02003003194E020318B12B4E08B700B0
:10075800B8013708CB003808B42BFF30CB00003085
:10076800CC002D088600870151314B088100080014
:10077800AA31AB2283314301EA01500193181318BF
:10078800C82B01304301EA0043016A08E900A3319C
:100798009A238331B5311E258331A031A0208331BE
:1007A80098310A208331A2316C228331003A03192F
:1007B800EE2B5308DE005408DF005508E000430123
:1007C8006908031DF92B44015408F3005508F40087
:1007D8005308F62BD901DA01D801D701D601F30164
:1007E800F40100309931EE21833144015A08031D88
:1007F800002CB501B601072C5A08643EB50000303C
:1008080003180130B60040011915A83100208331C2
:10081800AA310B22833150010C14B5319A2583314A
:100828007308DF007208DE007108DD007008DC0064
:100838005F08E3005E08E2005D08E1005C08E00094
:100848006308E7006208E6006108E5006008E40064
:100858006708EB006608EA006508E9006408E80034
:100868006400A731592783314301EB006B03031957
:10087800412C02306B06031D6B2C8831002083311C
:10088800003A031D6B2C8731EA2783314301EB01C2
:100898006B2C8731EA27833144015908031D562CF4
:1008A8000130572C0030A231CD2283317D2C90317C
:1008B800772083317D2C01304401CC007D2C873199
:1008C800EA2783310130A231CD2283317D2C4301C7
:1008D8006B08013A03194D2C033A03195B2C013AB2
:1008E80003195F2C073A0319632C013A03195B2C8F
:1008F8007D2C45016708FB006608FA006508F900C9
:100908006408F800B631022683317B08031D962C53
:100918007A08031D962C7908031D962C323078022C
:10092800031CA42CB5319A2583317308E70072089B
:10093800E6007108E5007008E4009131ED2183318B
:1009480044014D080319AC2CCD0190317720833137
:1009580045016308FB006208FA006108F9006008B5
:10096800F800B631022683317B08031DC52C7A08AE
:10097800031DC52C7908031DC52C96307802031C6D
:10098800D32CB5319A2583317308E3007208E2004D
:100998007108E1007008E000B731B72783314501DD
:1009A8006B08FB006A08FA006908F9006808F80093
:1009B800B631022683317B08031DEB2C7A08031D10
:1009C800EB2CB83078020B30793B031CF92CB5318D
:1009D8009A2583317308EB007208EA007108E90070
:1009E8007008E800AA31E422833144015008031951
:1009F8001B2D45015B08FB005A08FA005908F9004D
:100A08005808F800B631022683317B08031D162DDD
:100A18007A08031D162D7908031D162D1E3078023D
:100A2800031C1B2D4401D0014001971517164401E2
:100A38004F0803193A2DB5319A25833154087002AD
:100A48004401E10045015508713B4401E2004501BC
:100A58005608723B4401E30045015708733B4401C3
:100A6800E400E41B3A2DB531C225833145015F0806
:100A7800FB005E08FA005D08F9005C08F800B63172
:100A8800022683317B08031D522D7A08031D522D3F
:100A9800303078027530793B031C602DB5319A25CA
:100AA80083317308DF007208DE007108DD0070080A
:100AB800DC00B431B0248331883100208331003A1E
:100AC8000319AE2D450120080319AE2D440127084E
:100AD800FB002608FA002508F9002408F800B631BA
:100AE8000226833178084401E1007908E2007A0897
:100AF800E3007B08E400450120084401E500E60125
:100B0800E701E8016808F3006708F2006608F100E9
:100B18006508F0000030F7000030F600EA30F50014
:100B28006030F400A93176218331730844016402EE
:100B3800031DA82D72086302031DA82D7108620207
:100B4800031DA82D70086102031CAE2D0030AB31C7
:100B580093238331450121080319F42D4401270803
:100B6800FB002608FA002508F9002408F800B63129
:100B78000226833178084401E1007908E2007A0806
:100B8800E3007B08E400450121084401E500E60193
:100B9800E701E8016808F3006708F2006608F10059
:100BA8006508F0000030F7000030F600EA30F50084
:100BB8006030F400A931762183317308440164025E
:100BC800031DF02D72086302031DF02D71086202E7
:100BD800031DF02D70086102031CF42D0330CC00B6
:100BE80044014C0803194D2E03304C020318222EE1
:100BF8008731EA278331A8319A20833144014C0395
:100C0800031D0D2E0B304001AF004C30B000FB30FF
:100C1800132E11304001AF008D30B000FB30B10011
:100C28000930A33130238331B53187258331DC3056
:100C3800F0000530F100B531612583314401CC0164
:100C4800AF3111278331A83100208331B5319A257E
:100C580083317308DF007208DE007108DD00700858
:100C6800DC005F08E3005E08E2005D08E1005C0864
:100C7800E0006308E7006208E6006108E500600834
:100C8800E4006708EB006608EA006508E900640804
:100C9800E800993136218331342C5E084001E9009F
:100CA80041015D084001E800410160084001EB0096
:100CB80041015F084001EA009C31762486314201F7
:100CC800AA002A0803196A2E2A080800A901290877
:100CD800031D752E41015D0886005E0887004131BD
:100CE8007A2E41015D0886005E0887000108E10050
:100CF800E20161084201A000410162084201A1002D
:100D08002008A60044013908031D9D2E420126082B
:100D18004101E1000230E136890B8F2E6108E200C3
:100D2800E30162084201A200410163084201A300F5
:100D3800A22E01304201A2000030A3002208A60022
:100D4800023026020318AD2E0130A4000030A500A1
:100D5800B82E26084101E100E20161084201A40021
:100D6800410162084201A5002408A7000130A8003B
:100D780041015D0886005E088700403F4201B000DF
:100D8800413FB100423FB20029080319DA2E270873
:100D9800F0002808B5310F258631F30042013008EC
:100DA800B6319C2686314201B000E82E2708F000B3
:100DB8002808B5310F258631F30042013108B631D4
:100DC8009C2686314201B10041015D0886005E081B
:100DD8008700010842013006031DFD2E41015D0810
:100DE80086005E0887004131420131080106031977
:100DF800582F31084001E300420132084001E40065
:100E08002030E5002B30E6000130E70042013008D1
:100E18009331B92386314201AA002A08031D682E9E
:100E280030304001E8000130E9002B30EA000130A1
:100E3800EB00420129084001EC009D3191258631E3
:100E48004201AA002A08031D682E2B304001A00089
:100E58000130A100410160084001A30041015F0881
:100E68004001A200A631B4268631003A0319582F52
:100E780041015D0886005E08870042013008C03FD6
:100E88003108C13F3208C23F2B308600013087004D
:100E980041015F088400600885000530E100160004
:100EA8001A00E10B532F512EFE304201A8072808E3
:100EB800803A813E0318BC2E02302702031C6E2F95
:100EC80027084101E1000130E136890B682F6108EC
:100ED8004201B92E0130A90702302902031C6B2EEA
:100EE80041015D0886005E088700403F4201B0006E
:100EF800413FB100423FB2000130B2063108400123
:100F0800E300420132084001E4002030E5002B30C4
:100F1800E6000130E700420130089331B9238631F9
:100F28004201AA002A08031D682E41015F088600B5
:100F380060088700403FE100413FE200423FE30094
:100F4800433FE4000130E135E20DE30DE40D890B88
:100F5800A72F640842012E02031DC22F4101630816
:100F680042012D02031DC22F4101620842012C02D9
:100F7800031DC22F4101610842012B020318E82F0B
:100F880030304001E8000130E9002B30EA00013040
:100F9800EB009C31762486314201AA002A08031D01
:100FA800682E2B304001A0000130A10041016008EB
:100FB8004001A30041015F084001A200A631B42608
:100FC8008631003A031D3C2F00300800B5319A25C0
:100FD800873173084401A7007208A6007108A500AC
:100FE8007008A400883100208731003A031D0800EA
:100FF8000130AB31932308004401450808000B3049
:101008007D02B83003197C0203180E28B830FC00A2
:101018000B30FD0010307D02693003197C02031C7F
:1010280019286830FC001030FD0000304001A30092
:101038000030A2000430A100B030A0007C08483E77
:10104800F000F4307D3DF100F201F3010030F700CB
:101058000030F6000030F5001A30F400A93176218E
:10106800883173084001A7007208A6007108A5001E
:101078007008A400AF315D2788312008AE007330B6
:10108800B000B101AF01B2013108AD000330AD3598
:10109800890B4B282D083207F0002E08F100300884
:1010A800AE31C5268831003A031964280130400161
:1010B800AD00320A6028AD35890B5F282D08AF04D2
:1010C80001304001B20708303202031C48283108B9
:1010D800AD000330AD35890B6E282D08F3002F08BD
:1010E800F4000830F50030089B3172238831013054
:1010F8004001B10704303102031C46280130B00713
:101108007E3030020318080045284301C401CC0191
:101118004401D101BB01BA01B901450123084201CB
:10112800B300B401B501B6013608F3003508F20082
:101138003408F1003308F0000030F7000130F60001
:101148008630F500A030F400A93176218831730883
:101158004501B3007208B2007108B1007008B00010
:1011680024084201B300B401B501B6013608F30002
:101178003508F2003408F1003308F0000030F700B9
:101188000F30F6004230F5004030F400A9317621E6
:10119800883173084501AF007208AE007108AD00D0
:1011A8007008AC0001304401A3000030A2000030F8
:1011B800A1000130A000410165088600660887008B
:1011C800403F4401DB00413FDC00423FDD00142981
:1011D80022304301A500FC30A6000430A7000230ED
:1011E800AC0096304401AB0000301229B630430100
:1011F800A500FB30A6000730A7000430AC00F4308F
:101208000F29FF304301A500FB30A6000530A700D9
:101218000330AC005E304401AB000130AC001D2946
:1012280045012B08013A0319EC28023A0319FA2858
:10123800052941016508860066088700403F43018B
:10124800D500413FD600423FD7005608F000570866
:10125800F1005508A8312020883171084301A90000
:101268007008A800AA01AB014401520803190D2A0D
:10127800D20143012908F4002808F300AD311425F0
:1012880088314301D40054084201B300B401B33596
:10129800B40DF030B5002A30B600330835078600A3
:1012A8003408363D8700403FB700413FB80043014E
:1012B800290842013806031D65294301280842010F
:1012C8003706031D0D2A430154084201B300B40137
:1012D800B335B40DF030B5002830B6003308350703
:1012E80086003408363D87001600FF3AB70016001E
:1012F800FF3AB7040319B129430154084201B30066
:10130800B401B335B40DF030B5002830B600330859
:10131800350786003408363D8700403FB700413F17
:10132800B8003708B9003808BA00BB01BC0108305A
:10133800B935BA0DBB0DBC0D890B9C293C08410180
:10134800EC0042013B084101EB0042013A0841012F
:10135800EA00420139084101B92901304101EC0094
:101368000030EB000030EA000030E9006C0843016F
:10137800C90041016B084301C80041016A084301E3
:10138800C700410169084301C6005408F03E8600C1
:1013980087012E30873D0108CA0056084001E30046
:1013A800430157084001E4004030E500CE30E60034
:1013B8000130E700430155089331B92388314301CF
:1013C800CD004D08031DAC2FCE304001A0000130E8
:1013D800A100C630A2000130A300A631B42688318E
:1013E800003A031D0D2AC630A0000130A100CE30FE
:1013F800A2000130A300A631B4268831003A031DAB
:101408000D2A44012E084301AB0044012D08430175
:10141800AA0043012A082B04031D282AD4015435A5
:10142800F03E860087012A30873D54350030873DDD
:101438000030C03FC13F0130D407031D132A4401C7
:10144800AF01B001AD01AE01430156084001E30010
:10145800430157084001E4002030E500CE30E600A3
:101468000130E700430155089331B923883143011E
:10147800CD004D08031DAC2FCE30FC000130FD001F
:10148800A831EF208831003A0319662AD530400187
:10149800C1000130C200430151084001C6004301A8
:1014A80050084001C50043014F084001C4004301F2
:1014B8004E084001C300A2310D2288319531B8256C
:1014C80000300800410168084301A4004101670891
:1014D8004301A300D4016C0854020318052B033000
:1014E800F0005408B5310F258831383E4301C50056
:1014F800450886000330870001085506031D952A14
:10150800450A86000330870001085606031D952A00
:101518004508023E86000330870001085706031974
:10152800022B45088600033087000108031DA32A03
:10153800450A86000330870001080319022B450875
:101548008600033087000330413F4001E300430138
:1015580045088600033087000330423F4001E4001D
:101568001030E500AD30E6000130E70043014508E2
:1015780086000330870001089331B923883143017D
:10158800CD0003304D060319052B4D08031DAC2F64
:1015980051083002031DDA2A50082F02031DDA2AE7
:1015A8004F082E02031DDA2A4E082D020318022BBB
:1015B8004508860003308700403FD500413FD600EC
:1015C800423FD700AD30860001308700CE3084001E
:1015D8000130850005304201B30016001A00B30B34
:1015E800F12A430154082C3E860003308700010885
:1015F800643EA300003003180130A4000130D40772
:101608006F2A2308240403197E2B01304401B900F2
:10161800D5304101DD000130DE00CE30DF00013081
:10162800E0008631512688314301CD004401B901DB
:10163800033043014D06031D332BBE30F300B43095
:10164800F400CC30F500D530F6000130F700CE308C
:10165800F8000130F900A6310F2688315E2E4D08BA
:10166800031DAC2FCE30FC000130FD00A831EF2067
:101678008831003A031D4A2A45012A0803196D2BAF
:10168800430151084001B000430150084001AF0038
:1016980043014F084001AE0043014E084001AD0030
:1016A800A4317B24883143012308053E4201B3005D
:1016B80000304301243D4201B40040012E0842019C
:1016C8003402031D6B2B40012D084201330203181D
:1016D8004A2ABE30F300B430F400CC30F500D530DF
:1016E800F6000130F700CE30F8000130F900A631DD
:1016F8000F2688314301B201023032020318C52D8A
:10170800D401270854020318C22DB3012708330255
:101718000318BF2D54082507840026080318013E26
:1017280085000008D500330825078400260803181B
:10173800013E85000008D6003208D700560840014F
:10174800E300430157084001E4001030E500CE30C3
:10175800E6000130E700430155089331B923883189
:101768004301CD0003304D0603195E2E4D08031DBD
:10177800AC2FD301440853020318282C0330F0007F
:101788005308B5310F258831023E613E860001308D
:101798008700010843013206031D242C53083E3EEE
:1017A80086000130870001084201B3004301540854
:1017B8004201B30201303307B40003303402031886
:1017C800242C43015308433E86000130870001085A
:1017D8004201B300430133084201B3020130330729
:1017E800B400033034020318242C0530F000430100
:1017F8005308B5310F258831483E860001308700EF
:10180800403F4201B300413FB400423FB500433F6F
:10181800B600360843015102031D222C4201350847
:1018280043015002031D222C4201340843014F0298
:10183800031D222C4201330843014E020318282CB1
:1018480001304301D307BE2B44085302031CBC2DAF
:10185800D301440853020318E92C0330F00053085D
:10186800B5310F258831023E613E86000130870080
:10187800010843013206031D682C53083E3E8600CA
:101888000130870001084201B300430154084201B6
:10189800B30201303307B400033034020318682C54
:1018A80043015308433E8600013087000108420186
:1018B800B300430133084201B30201303307B400D7
:1018C80003303402031C6C2C01304301D3072D2C48
:1018D80043015308CB004B08013E4201B3000030DE
:1018E80003180130B4003408803AB500803035025E
:1018F800031D822C43014408420133020318E52CDE
:101908000330F00043014B08B5310F258831033E01
:10191800613E860001308700403F4201B300413FED
:10192800B400423FB5000330F00043014B08B53125
:101938000F258831613E8600013087004201330857
:10194800C03F3408C13F3508C23F0530F0004301AD
:101958004B08B5310F258831053E483E86000130D9
:1019680087000530F00043014B08B5310F25883159
:10197800483E84000130850005304201B30016005E
:101988001A00B30BC32C43014B083E3E86000130BE
:1019980087004B08013E3E3E840001308500000868
:1019A80081004B08433E8600013087004B08013E0A
:1019B800433E840001308500000881000130CB07D8
:1019C8006F2C01304301C4022D2C4408D3004F2D45
:1019D8002C08530203184D2D0330F0005308B5317D
:1019E8000F258831FD3E613E860001308700403F6B
:1019F8004201B300413FB400423FB5000330F0005C
:101A080043015308B5310F258831613E8600013006
:101A1800870042013308C03F3408C13F3508C23F40
:101A28000530F00043015308B5310F258831FB3EDE
:101A3800483E8600013087000530F0004301530816
:101A4800B5310F258831483E8400013085000530C6
:101A58004201B30016001A00B30B2E2D43015308A0
:101A68003E3E8600013087005308FF3E3E3E84001C
:101A780001308500000881005308433E860001308C
:101A880087005308FF3E433E84000130850000086C
:101A980081000130D302530803197D2D0530F00071
:101AA8005308B5310F258831FB3E483E860001308A
:101AB8008700403F4201B300413FB400423FB500B8
:101AC800433FB600360843015102031D7B2D4201F6
:101AD800350843015002031D7B2D420134084301A0
:101AE8004F02031D7B2D4201330843014E02031CA4
:101AF800EC2C2C0853020318BC2D0330F0005308BB
:101B0800B5310F258831613E8600013087004301D9
:101B18005508C03F5608C13F5708C23FCE3086001F
:101B2800013087000530F0005308B5310F258831A2
:101B3800483E84000130850005304201B30016009C
:101B48001A00B30BA32D430153083E3E8600013013
:101B58008700540881005308433E860001308700FF
:101B6800330881002C0844020318BC2D0130C40737
:101B78000130B3078A2B0130D407852B0130B20717
:101B8800802B440123084001B00044012208400191
:101B9800AF00440121084001AE0044012008400183
:101BA800AD00A4317B2488312E08C2002D08C10065
:101BB800B431F42488314301D40144085402031891
:101BC8005E2E0330F0005408B5310F258831613E90
:101BD800860001308700403F4301D500413FD600D1
:101BE800423FD7000530F0005408B5310F25883141
:101BF800483E860001308700CE30840001308500E1
:101C080005304201B30016001A00B30B072ED53079
:101C18004101DD000130DE00CE30DF000130E000A0
:101C28008631512688314301CD004D080319202EF5
:101C380003304D06031DAC2FBE30F300B430F40062
:101C4800CC30F500D530F6000130F700CE30F80082
:101C58000130F900A6310F268831440123084001DC
:101C6800B000440122084001AF00440121084001AE
:101C7800AE00440120084001AD00A4317B24883126
:101C88002E08C2002D08C100B431F4248831033075
:101C980043014D0603195E2ECE30FC000130FD00D5
:101CA800A831EF208831003A031D5E2E0130430130
:101CB800D407E12D4301D401952E0330F0005408D8
:101CC800B5310F258831BE3E8600013087000108F6
:101CD80044015B06031D922E0330F00043015408B3
:101CE800B5310F258831013EBE3E860001308700A0
:101CF800010844015C06031D922E0330F0004301E5
:101D08005408B5310F258831023EBE3E86000130A9
:101D18008700010844015D060319992E013043012B
:101D2800D4074C085402031C612E430154084C0686
:101D3800031DCC2E4C080319AA2E44012C082E0290
:101D4800031DA82E2B082D02031CCC2E44012308AA
:101D58004301D100440122084301D0004401210875
:101D68004301CF00440120084301CE00D201BE3018
:101D7800F300B430F400CC30F5005B30F6000230EC
:101D8800F700CE30F8000130F900A6310F2688316F
:101D98004301D4014C0854020318242F0330F000E7
:101DA8005408B5310F258831013EBE3E860001300A
:101DB800870001084101ED000330F0004301540899
:101DC800B5310F258831023EBE3E860001308700BE
:101DD80001084101EE000530F00043015408B53117
:101DE8000F258831B43E4101EF000330F000430174
:101DF8005408B5310F258831BE3E86000130870072
:101E080001084201BD0041016D084001E3004101A4
:101E18006E084001E4004030E50041016F084001D0
:101E2800E6000130E70042013D089331B9238831CB
:101E38004301CD004D08031DAC2F0130D407CE2E31
:101E48004001E301E4014030E500C630E60001301E
:101E5800E70000309331B92388314301CD004D08A4
:101E6800031DAC2FA00102304C02031C4D2F370874
:101E78003C02031D492F36083B02031D492F350834
:101E88003A02031D492F3408390203184D2F013037
:101E9800A0002008D4000530F0005408B5310F2503
:101EA8008831B43E4001A0000130A100C630A20034
:101EB8000130A300A631B4268831003A031D8B2FC8
:101EC8004301D701D601D501D5304001C100013009
:101ED800C200430149084001C600430148084001C7
:101EE800C500430147084001C400430146084001BA
:101EF800C300A2310D22883100303802793003192D
:101F080037020318892F0030080003300800033017
:101F1800F00043015408B5310F258831BE3E400119
:101F2800C1000130C2000530F00043015408B5314A
:101F38000F258831B43E860001308700403F4001BC
:101F4800C300413FC400423FC500433FC6005F2A6B
:101F5800A10102304D06031DD52F44012E0843016F
:101F68002B02031DBB2F44012D0843012A0203182D
:101F7800D52F2A082B04031DD32F44015C08F00039
:101F88005D08F1005B08A831202088314301290849
:101F98007106031DD12F280870060319D52F0130AB
:101FA800A10021084401D1005B304001C10002308A
:101FB800C200440123084001C60044012208400130
:101FC800C500440121084001C40044012008400123
:101FD800C300A2310D22883143014D030319FE2F9E
:101FE80004304D060319FA2F0130FB2F0430A200EC
:081FF800220808000230080075
:10200200AA0140012A08233E860087010A30F00017
:102012000030F1007A08F3007908F200A83170204C
:1020220090317008303E81000130AA070A30F0007A
:102032000030F1007A08F3007908F200A931A521F5
:1020420090317108FA007008F9002A087B06031D16
:1020520032282A08233E860087012E308100013073
:10206200AA0779087A04031D02287B080319582855
:102072007B08013EA000003003180130A1002108B6
:10208200803AA20080302202031D49282A08200239
:10209200031C582802287708860078088700203019
:1020A20081000130F7070030F83D0130FC027C0866
:1020B20040012A0203186E284C2877088600780807
:1020C20087000130AA022A08233E84008501000805
:1020D20081000130F7070030F83D2A08031D5E2811
:1020E20077088600780887008101080044015E08AD
:1020F2004301E50044015F084301E6004401600832
:102102004301E7008731EA27903140019711191105
:102112004401CF014001AF014230B000FB30B100B9
:102122001230A33130239031AF013D30B000FB308B
:10213200B1001230A33130239031FF304401E90065
:10214200FF30EA00B531872590314301E3014401B4
:102152004B080319C72845015308FB005208FA002F
:102162005108F9005008F800B631022690317B0878
:10217200031DC7287A08031DC72860307802EA3099
:10218200793B0318C72801304301E3004301630888
:102192004401D2005908031DD1285A08031DD5282D
:1021A2004301DB01DC01DD285A08643E4301DB0008
:1021B200003003180130DC005E304101E5000230DE
:1021C200E60043015C084101E80043015B0841016C
:1021D200E7008831892090314301E800E40144019D
:1021E2005E0843016506031D042944015F0843019B
:1021F2006606031D04294401600843016706031DA6
:1022020004290130E4006408DA00680803191A2975
:102212000330680603191A295A0803191A294401B6
:1022220033083404031983293408B6003308B5008F
:102232008329680803192A290330680603192A2901
:1022420044015E08031D2A295F0803196008031967
:102252002C294401D9015908031D78294301680832
:10226200031D3A2944015E08031D3E295F08031D30
:102272003E294301DD01DE01752937089C3E4301F9
:10228200D800FF304401383D4301D90001305902E2
:1022920000300319580203186A2900304401380239
:1022A20066300319370203185C2901304301E1004B
:1022B2000030E200652937089C3E4301E100FF300F
:1022C2004401383D4301E2006208E0006108DF009A
:1022D2006E29FF30DF000030E0005F08D800D9012E
:1022E2005808DD005908DE005D084401DA003808AC
:1022F200B6003708B5003808B4003708B300B43167
:10230200DC2490315108CB004B0803198A29B5010E
:10231200B601A831C4209031FF304401E900FF30FA
:10232200EA0034084001BF00440133084001BE0006
:10233200AB315823903143016803031DA529843032
:102342004001BE00FB30C32903306806031DAE29DD
:102352007B304001BE00FB30C32902306806031DFA
:10236200BB291D304001BE00FC30BF00E830C00078
:102372000330C72904306806031DCB29723040019F
:10238200BE00FB30BF00D030C0000730C100AA3110
:1023920074229031B431B02490314001191597154F
:1023A2004401CE01B5319A257308D3007208D200D8
:1023B2007108D1007008D00053084401A7004501FC
:1023C20052084401A600450151084401A5004501F7
:1023D20050084401A4000800B5319A2591317308D0
:1023E2004101A5007208A4007108A3007008A200B0
:1023F200AB304001D8000030D9000430DA00AD31F2
:10240200E625913141013D080319172A44014F087D
:10241200031D172A72304001BE00FB30BF00D030CE
:10242200C0000730C100AA3174229131AB3086005E
:10243200003087004431403F4001AD00413FAE00D3
:10244200423FAF00433FB000B631662691312E08BD
:102452004101A10040012D084101A00020082104F2
:102462000319362A8731EA279131470127084101AA
:102472003202031D4C2A4701260841013102031D85
:102482004C2A4701250841013002031D4C2A47010D
:10249200240841012F020318902A4501290840010E
:1024A200E300E401E501E6016608F3006508F200D5
:1024B2006408F1006308F0000030F7000030F60015
:1024C2000030F5000A30F400A9317621913145013E
:1024D2004C08410122024001E70045014D0841013B
:1024E200233B4001E80045014E084101243B4001E5
:1024F200E90045014F084101253B4001EA0073080C
:102502006A02031D8E2A72086902031D8E2A71084F
:102512006802031D8E2A70086702031CAF2AAB30C3
:10252200860000308700A03084000330850013301D
:102532004001E30016001A00E30B9B2A4101250823
:102542004501CF00410124084501CE004101230885
:102552004501CD00410122084501CC00AB30860087
:10256200003087004C31403F4001AD00413FAE009A
:10257200423FAF00433FB000A4317B2491312E088B
:102582004101AA0040012D084101A900450123088B
:102592004001E300E401E501E6016608F300650895
:1025A200F2006408F1006308F0000030F700013027
:1025B200F6008630F500A030F400A9317621913181
:1025C200730841013202031DF02A72083102031D11
:1025D200F02A71083002031DF02A70082F02031C32
:1025E200F42A0130F52A0030A80028080319002B2C
:1025F2002A084401B400410129084401B3004501FD
:102602002508F63EF000FF3003180030F1000A30D2
:10261200F2000030F300B6314B26913171084101CE
:10262200A7007008A600450126080319B62B44012D
:102632005908031DB62B410128080319B62B450181
:1026420024084001E300E401E501E6016608F30025
:102652006508F2006408F1006308F0000030F7003A
:102662000F30F6004230F5004030F400A9317621F7
:10267200913170084001E7007108E8007208E90032
:102682007308EA00AB30F0000030F100A031F62010
:102692009131730840016A02031D592B72086902C5
:1026A200031D592B71086802031D592B700867021C
:1026B200031CB62B41013B080319B62B00302A023A
:1026C200793003192902031CB62B45015308FB007C
:1026D2005208FA005108F9005008F800B6310226F3
:1026E20091317B08031D7E2B7A08031D7E2BB830A7
:1026F20078020B30793B031CB62B410126084401BA
:1027020035074001E300410127084401363D4001FD
:10271200E40041012A0840016402031D942B410197
:10272200290840016302031CAC2B4101260829073A
:102732004001E300410127082A3D4001E400440131
:10274200360840016402031DAA2B440135084001EA
:1027520063020318B62B01304401CE0704304E0247
:10276200031C08000130CD0008004401CE0108001E
:102772004101B70040016308F0006408F100410123
:102782003708A8312020933171084101B600700842
:10279200B500AA01AB013608F4003508F300AD31EB
:1027A200142593314101B800B4014030400165065F
:1027B2000319732C41013808A000A101A035A10D15
:1027C200F030A2002A30A300200822078600210848
:1027D200233D8700403FA400413FA500360825065F
:1027E200031DF52B35082406031D682C3808A000AC
:1027F200A101A035A10DF030A2002830A3002008CD
:10280200220786002108233D87001600FF3AA40014
:102812001600FF3AA4040319362C3808A000A101BF
:10282200A035A10DF030A2002830A3002008220715
:1028320086002108233D8700403FA400413FA500B8
:102842002408A6002508A700A801A9010830A6357A
:10285200A70DA80DA90D890B282C2908AF0028085F
:10286200AE002708AD0026083D2C0130AF00003035
:10287200AE000030AD000030AC00400166088600BA
:102882006708870041012C08C03F2D08C13F2E0870
:10289200C23F2F08C33F40016608860067088700D1
:1028A200443141013808F03E840085012E30853DD7
:1028B200000881000130440120020030213B003039
:1028C200223B0130233B0318772D003008004401DE
:1028D2002C082E02031D6F2C2B082D02031C732CB7
:1028E2000330080040016308F3006408F40041016A
:1028F20037089931EE219331B631B8269331003A37
:102902000319852C01300800B9304001D80000308D
:10291200D9006508DA00AD31E625933141014B0853
:102922000319A72C01304401BA0740303A02031CB4
:102932009C2C0430080001304101C8000030C7005F
:102942000030C6000030C500CA01092D4501330818
:1029520041014002031DBD2C4501320841013F02E5
:10296200031DBD2C4501310841013E02031DBD2C52
:102972004501300841013D02031CD72CB930F0005B
:102982000030F100A031F6209331730845012F0287
:10299200031DD52C72082E02031DD52C71082D02A1
:1029A200031DD52C70082C020318FB2C44013B0894
:1029B200031DE02CE8304101B0000330E42C2C3040
:1029C2004101B0000130B1000130AA070030AB3D37
:1029D2002B083102031DEF2C2A0830020318F32CB6
:1029E200023008000A30F0000030F100B5316125F4
:1029F20093317D2C01304401BB00BA0141014908E9
:102A0200031D092D0130B40703303402031C7D2C51
:102A12004001660886006708870041014508C03FFB
:102A22004608C13F4708C23F4808C33F4001660805
:102A3200860067088700443141014A08810040301E
:102A4200400165060319662C01304401AD070030D0
:102A5200AE3D00303002FF3003192F020318772DEC
:102A620041013835F03E860087012A30873D3835EE
:102A72000030873D3508C03F3608C13F013048026B
:102A82000318582D41014508A0004608A100470837
:102A9200A2004808A3000830A336A20CA10CA00C87
:102AA200890B4D2D2108B3002008B2005D2DFF30A7
:102AB2004101B200FF30B3003835F03E8600870195
:102AC2002830873D38350030873D3208C03F330813
:102AD200C13F3808F03E860087012E30873D4A0804
:102AE200810001304401AF070030B03D400166086B
:102AF200860067088700403F4101A000413FA100D6
:102B0200423FA200433FA3004401230841012302A4
:102B1200031D9B2D4401220841012202031D9B2D0E
:102B22004401210841012102031D9B2D440120087B
:102B3200410120020318662C4001660886006708DE
:102B42008700403F4401A000413FA100423FA20054
:102B5200433FA300410137084401DB004001630801
:102B62004401DC00400164084401DD00662C4001A0
:102B7200B301AF01AE01003044013802C93003197C
:102B82003702031808002808031929080319080046
:102B92004001B40143016C084001340203183D2E88
:102BA2000330F0003408B5310F259531383E8600E8
:102BB200033087000108031DEC2D0330F0004001B3
:102BC2003408B5310F259531393E86000330870030
:102BD20001080319392EFF304001B000B50143014D
:102BE2006C084001350203182C2E3508203E860061
:102BF200033087003408203E84000330850000083B
:102C02000102B2000330F0003508B5310F259531CD
:102C1200383E8600033087000108031D1E2E033054
:102C2200F00040013508B5310F259531393E860057
:102C32000330870001080319282E400132080319C6
:102C4200282E300832020318282E3208B000013034
:102C52004001B507F02D30082E020318392E300836
:102C6200AE003408203E8600033087000108B3001E
:102C720001304001B407CB2DB40143016C0840017F
:102C820034020318802E0330F0003408B5310F25CA
:102C920095313A3E860003308700010844012A0636
:102CA200031D7C2E2808F3000330F0004001340895
:102CB200B5310F259531383E860003308700010873
:102CC200B73152279531003A03197C2E4401290865
:102CD200F3000330F00040013408B5310F2595317F
:102CE200393E8600033087000108B73152279531FB
:102CF200003A031D802E01304001B4073E2E4001F0
:102D0200340843016C06031DAD2E4001B401A72E09
:102D12000330F0003408B5310F259531383E860076
:102D2200033087000108031DA42E0330F000400188
:102D32003408B5310F259531393E860003308700BE
:102D420001080319AD2E01304001B40743016C089C
:102D520040013402031C892E4001340843016C06F1
:102D6200031DD32E0C306C020318BA2E0130EC076F
:102D7200D32E4001B501B4013508203E8600033050
:102D8200870001083302B2002F083202031CCD2E45
:102D92003208AF003508B4000130B5070C303502F7
:102DA200031CBD2E0330F00040013408B5310F255D
:102DB2009531383E86000330870044012808C03F21
:102DC2002908C13F2A08C23F37089C3EF900FF305C
:102DD200383DFA0001307A020030031979020318F3
:102DE200FB2E37089C3E4001AC00FF304401383DC9
:102DF2004001FF2EFF304001AC000030AD0034082E
:102E02002C3E8600033087002C0881000130B30776
:102E12003408203E860003308700330881000130E9
:102E2200F9000030FA00340A182FF935FA0D890B2F
:102E3200162F79084401B1047A08B2044001B501A1
:102E4200AF0143016C084001350203185A2F0330C9
:102E5200F0003508B5310F259531383E8600033034
:102E620087000108031D432F0330F000400135089D
:102E7200B5310F259531393E8600033087000108B0
:102E82000319562F40013508203E86000330870083
:102E9200010833022F020318562F3508203E860000
:102EA2000330870001083302AF0001304001B5074B
:102EB200222F64302F02031C0800B50143016C0865
:102EC200400135020318BE2F3508203E860003302C
:102ED200870001083302B200B101B00143016C085E
:102EE200400131020318B52F0330F0003108B5312B
:102EF2000F259531383E8600033087000108031DF7
:102F0200902F0330F00040013108B5310F25953183
:102F1200393E86000330870001080319B12F4001B2
:102F22003108203E8600033087003308F90001088B
:102F3200F90232087902031CAF2F3108203E8600C5
:102F4200033087003308F9000108F90279083206D4
:102F5200031DB12F350831020318B12F0130B0071C
:102F620001304001B1076F2F3508203E86008701EE
:102F7200300881000130B5075F2FB50143016C08AD
:102F820040013502031808000330F0003508B5315E
:102F92000F259531383E8600033087000108031D56
:102FA200E02F0330F00040013508B5310F2595318F
:102FB200393E86000330870001080319FC2F4001C7
:102FC2003508203E8600033087003508203E840005
:102FD20085010008330281000130F9000030FA0057
:102FE200350AF52FF935FA0D890BF32F79084401CB
:0E2FF200B1047A08B20401304001B507BF2FC8
:10300200FF30F8002030B731DA279831B631812607
:1030120008004301EC014401B101B2014001A701E2
:103022000530F0002708B5310F259831303E4001B8
:10303200A000A6012608213E860087012008260757
:10304200B431D0249831810001304001A607053007
:103052002602031C1B280330F0002708B5310F2578
:1030620098313A3E86000330870081010330F00038
:1030720040012708B5310F259831393E86000330CB
:10308200870081010330F00040012708B5310F2588
:103092009831383E86000330870081012130F000EC
:1030A2000430F100A9314821983140012506031D61
:1030B20085282108031D612822087F3903198528E4
:1030C2000330F0002708B5310F259831383EF30060
:1030D2000330F40040012108F5002208F600B63161
:1030E200D526983127082C3E860003308700230816
:1030F20081002708203E86000330870024088100D3
:103102002708013E4301EC0001304001A7070C30C3
:103112002702031808001128DA01B5319A259831DF
:1031220073084001D8007208D7007108D6007008F1
:10313200D500A8319A20983122304001AF00ED30FD
:10314200B000FB30B1000030A33130239831B531EB
:103152008725983140018D1AB0286400AB28B5311B
:103162000125983140015A08A431F62498316400AF
:10317200A731592798314001D9005908031DDE288B
:10318200B5319A259831400155087002D100560890
:10319200713BD2005708723BD3005808733BD400EE
:1031A2005408031D33295308031D3329603051028B
:1031B200EA30523B03183329B828B5319A259831A1
:1031C20073084001D8007208D7007108D600700851
:1031D200D50002305906031D0B290F30F0000030D4
:1031E200F1005A08013EF200003003180130F300EA
:1031F200AC31D12498317008DA005A08A431F6248F
:10320200983140018D1A072964000229B531012540
:103212009831B8285903031DB8280C305A020318F4
:1032220024295A08A03E8600023087005A08A03E90
:103232008400023085000008F0005A08AB311E23DA
:1032420098318100B4280C305A06031D2B29AB316A
:10325200D02398310D3040015A06031D332998318D
:1032620001209831A3319A2308004401450803192B
:10327200080043080319CD2941080319B629D030A3
:103282004001B0000730B1000030B2000030B3009E
:1032920044014108FF3E890A40015329B035B10D6E
:1032A200B20DB30D890B4F29B5319A2599314008DA
:1032B20070024001B40045014108713B4001B50074
:1032C20045014208723B4001B60045014308733B89
:1032D2004001B70033083702031D7929320836024C
:1032E200031D792931083502031D7929300834027A
:1032F2000318B629B5319A2599313C08700240016C
:10330200B00045013D08713B4001B10045013E0856
:10331200723B4001B20045013F08733B4001B300DC
:103322003308031D9D293208031D9D29E830300210
:103332000330313B031C0800B5319A2599317308DB
:10334200BF007208BE007108BD007008BC00B53134
:103352003D259931003A031DB22901304401C200D2
:10336200080044014208031908004401C201063062
:1033720041020318BE290130C1070030AB3193234B
:1033820099312C30F0000130F100B53161259931CD
:103392000130AB31932308004001B80144014008D9
:1033A200013E0339C0004008C43E86000230870057
:1033B2004008C83E84000230850000080102031C58
:1033C200E6294008A131AE21080001304001B807CA
:1033D2000430380203180800CF29F80045012208FA
:1033E200F7000E3044016E02D93003196D02031842
:1033F200FC290130F7077818012A40019917032A9E
:1034020040019913F818082A400119170A2A4001A5
:10341200191378190F2A40019916112A400199129D
:10342200F819162A40011916182A40011912781A99
:103432001D2A400198171F2A40019813F81A242ABE
:1034420040011817262A40011813781B2B2A400125
:1034520098162D2A400198127318322A40019616A6
:10346200342A40019612F318392A40019A143B2A51
:1034720040019A107319402A40019617422A4001CE
:103482009613F319472A40011617492A40011613C9
:10349200731A4E2A40011814502A40011810F31AC8
:1034A200552A40019814572A40019810731B5C2A30
:1034B200400118155E2A4001181174080319642A84
:1034C20040011A14662A40011A1099157708F5006E
:1034D200F6017508F0007608F100B53161259931E1
:1034E200400199111A30890B742A003240011812D6
:1034F2007708F500F6017508F0007608F100B5319D
:1035020061259931400118167708F500F601750812
:10351200F0007608F100B531612599310F30400194
:1035220099051830980596129A10961316131A10C8
:103532000530F0000030F100B5316125993178088D
:103542007F394401DE0073087F39DF0074080319F4
:10355200AC2A0130AD2A0030E0000800B200BA0106
:103562003A08A83147209A3100304001B7000030B4
:10357200B6000030B5000030B400B3017C0833025D
:103582000318F52A320841019E003530890BC72AFB
:103592000000410113141318CC2A0D084001B90090
:1035A20041010C084001B80003303902E930031927
:1035B2003802031CE02A02303A06031DF52A0330C2
:1035C2003902FF3003193802031CEA2A0130440190
:1035D200BF0040013808B4073908B53D0030B63D98
:1035E200B73D0130B307BF2A33087C0603193F2BCE
:1035F2000130BA07B12A0330B435B50DB60DB70D97
:10360200890BFD2A472B0430B435B50DB60DB70D25
:10361200890B052B472B44016D08F0006E08F10061
:10362200F201F30140013708F7003608F6003508C9
:10363200F5003408F400A93176219A31700840016E
:10364200AD007108AE007208AF007308B0000A3016
:10365200B036AF0CAE0CAD0C890B292B0330AD3557
:10366200AE0DAF0DB00D890B302B3008B7002F080F
:10367200B6002E08B5002D08B400472B3A08003AD0
:103682000319FC2A013A0319042B0C2B7C08AD0008
:10369200AE01AF01B0013008A3002F08A2002E082E
:1036A200A1002D08A0007C08B1000130B136890BC1
:1036B200572B31083407A40035080318350F0310BF
:1036C200A50036080318360F0310A60037080318A2
:1036D200370AA700AF315D272108FD002008FC0052
:1036E2000800A8007308F6000330F636890B762B23
:1036F2007608A70073080739A5000130F600750A9D
:10370200832BF635890B822B7608FF3EA400240812
:10371200F600F701250A8F2BF635F70D890B8D2B55
:103722007608A0007708A10074082405F600F701C6
:10373200250A9D2BF635F70D890B9B2B7608A200E7
:103742007708A300803028020318080004302702FB
:103752000318052C2708F600F7010730F635F70D98
:10376200890BAF2BF030F8002C30F900760878077F
:10377200FA007708793DFB0028087A0786000030B6
:103782007B3D8700200901052204A6002708F600D8
:10379200F7010730F635F70D890BCB2BF030F80027
:1037A2002C30F90076087807FA007708793DFB009B
:1037B20028087A07860000307B3D8700010826062C
:1037C2000319052C2708F600F7010730F635F70D27
:1037D200890BE72BF030F8002C30F90076087807D7
:1037E200FA007708793DFB0028087A078600003046
:1037F2007B3D8700260881002808F0002808F10098
:103802002708B73173279B312508031908002708B9
:10381200013EF600003003180130F7007708803AC5
:10382200F80080307802031D182C04307602031849
:10383200080040012708F600F7010730F635F70DBA
:10384200890B1F2C7030F8002D30F90076087807AC
:10385200FA007708793DFB0028087A0786000030D5
:103862007B3D8700210901052304A6002708F600F5
:10387200F7010730F635F70D890B3B2C7030F80055
:103882002D30F90076087807FA007708793DFB00B9
:1038920028087A07860000307B3D8700010826064B
:1038A200031908002708F600F7010730F635F70D6F
:1038B200890B572C7030F8002D30F9007608780704
:1038C200FA007708793DFB0028087A078600003065
:1038D2007B3D8700260881002808F0002808F100B7
:1038E2002708013EB7317327080044013908031D38
:1038F200902C400168088600690887000108EC00E6
:103902000230EC36890B822C6C08ED00EE016D085A
:103912004101CC0040016E084101CD00952C0130DF
:103922004101CC000030CD004C08D30044013908DD
:10393200031DB22C400168088600690887004131E6
:103942000108EC000230EC36890BA42C6C08ED0067
:10395200EE016D084101CE0040016E084101CF0029
:10396200B72C01304101CE000030CF004E08D40008
:103972005308031DBE2C0130D3005408031DC32C71
:103982000130D400D001D2014001680886006908E4
:103992008700403F4101DA00413FDB00423FDC004B
:1039A2005308F00052089E3E8400FB300318013E8B
:1039B20085000008B5310F259C31F30040016808ED
:1039C2008600690887000108B6319C269C314101B6
:1039D200DA005408F0005208963E8400FB300318C7
:1039E200013E85000008B5310F259C31F3004001EE
:1039F200680886006908870041310108B6319C26B3
:103A02009C314101DB00400168088600690887009B
:103A1200010841015A06031D192D4001680886005C
:103A220069088700413141015B08010603195F2DD6
:103A32005B084001E30041015C084001E4002030E2
:103A4200E500D530E6000030E70041015A08933125
:103A5200B9239C314101D10051080319322D51087B
:103A62000800D5304001A0000030A1006B08A3007F
:103A72006A08A200A631B4269C31003A03195F2DD0
:103A8200680886006908870041015A08C03F5B0840
:103A9200C13F5C08C23FD53086000030870040013C
:103AA2006A0884006B0885000530EC0016001A00D5
:103AB200EC0B572D01304101D000C52C01304101E2
:103AC200D20708305202031CC52C5008031DC32C18
:103AD2005303031D712D5403031D712D0030080083
:103AE2000230F0000030F1005308013EF2000030D5
:103AF20003180130F300A03100209C317008D3007C
:103B02000230F0000030F1005408013EF2000030B3
:103B120003180130F300A03100209C317008C22C40
:103B220001304101CC000130CF004001680886001D
:103B320069088700403F4101D500413FD600423F1E
:103B4200D70040016C080319B02D41014F08F30062
:103B52005608B6319C269D314101D600B92D41014E
:103B62004F08F3005508B6319C269D314101D5001E
:103B7200400168088600690887000108410155066E
:103B8200031DCE2D40016808860069088700413177
:103B92004101560801060319F62D56084001E300BB
:103BA200410157084001E4002030E500D030E60032
:103BB2000030E700410155089331B9239D3141019D
:103BC200CD004D080319E72D4D080800D030400103
:103BD200A0000030A1006B08A3006A08A200A63171
:103BE200B4269D31003A031DFE2DFE304101CF0760
:103BF2004F08803A813E0318962D41014F08803AC2
:103C0200813E0318062E0030080040016808860035
:103C12006908870041015508C03F5608C13F57084F
:103C2200C23FD03086000030870040016A0884001D
:103C32006B0885000530ED0016001A00ED0B1D2EF5
:103C420002304101CE004E080319042E40016808DB
:103C5200860069088700403F4101D500413FD600F8
:103C6200423FD70040016C080319472E41014E081C
:103C7200F0004F08B5310F259D31F3004101560880
:103C8200B6319C269D314101D600562E41014E0887
:103C9200F0004F08B5310F259D31F3004101550861
:103CA200B6319C269D314101D5004001680886004D
:103CB20069088700010841015506031D6B2E40016A
:103CC20068088600690887004131410156080106EB
:103CD2000319B52E56084001E3004101570840017F
:103CE200E4002030E500D030E6000030E70041017A
:103CF20055089331B9239D314101CD004D08031D73
:103D0200E52DD0304001A0000030A1006B08A300D7
:103D12006A08A200A631B4269D31003A0319B52ED5
:103D2200680886006908870041015508C03F5608A7
:103D3200C13F5708C23FD0308600003087004001A3
:103D42006A0884006B0885000530ED0016001A0031
:103D5200ED0BA72E41014C080319242E20304E02F0
:103D62000318242E4E35232E4101CC014E0840016A
:103D7200ED000130ED36890BBB2E6D08222EB90005
:103D82005C30C000D82F3608031DD22E4008B00088
:103D92000330B100F330B200FB30B300B6311A2663
:103DA20008004008AB000330AC003608B700B80189
:103DB2003708AD003808AE00AF01B5314F259E314E
:103DC2002C08B1002B08B0000E30B200FC30B3005A
:103DD200B6311A2608004008AB000330AC003608A2
:103DE200B700B8013708AD003808AE00AF01B531F1
:103DF2004F259E312C08B1002B08B0002A30B200AA
:103E0200FC30B300B6311A2608004008AB0003307C
:103E1200AC003608B700B8013708AD003808AE006C
:103E2200AF01AF0AB5314F259E312C08B1002B08E6
:103E3200B0003C30B200FC30B300B6311A260800A4
:103E42004008AB000330AC003608B700B8013708B1
:103E5200AD003808AE00AF01B5314F259E312C08B8
:103E6200B1002B08B0003C30B200FC30B300B631D8
:103E72001A2608004008AB000330AC003608F63EB4
:103E8200AD00FF3003180030AE00AF01AF0AB5310C
:103E92004F2508003608031D522F5230BA00FB305E
:103EA200552F3930BA00FC30BB004008B000033057
:103EB200B1003B08B3003A08B200B6311A26080036
:103EC2004008AB000330AC003608B700B801370831
:103ED200AD003808AE00AF01AF0AB5314F2508007A
:103EE2004008AB000330AC003608643EAD00003041
:103EF20003180130AE000230AF00B5314F25080083
:103F02004008AB000330AC003608B700B8013708F0
:103F1200F0003808F1000A30F2000030F300B63148
:103F22004B269E3171084001AE007008AD00AF0112
:103F3200B5314F259E312C08B1002B08B0002A3034
:103F4200B200FC30B300B6311A2608003608031D51
:103F5200712F4008B0000330B1000930B200FC30CC
:103F6200B300B6311A26080036030319C92F0330ED
:103F720036060319C02FD230BE00FB30C32F60308B
:103F8200BE00FB30BF003F08BD003E08BC00CD2F85
:103F9200E730BC00FB30BD004008B0000330B10088
:103FA2003D08B3003C08B200B6311A2608003908B1
:103FB200D13E8400FA300318013E85000008003A21
:103FC2000319C42E013A0319EC2E033A0319062FE2
:103FD200013A0319212F073A03193B2F013A03191A
:103FE2004B2F033A0319612F013A0319712F0F3A2C
:103FF2000319812F013A0319A72FB52F0800F501E4
:10400200F11F0A28F009F109F00A0319F10A013037
:10401200F500F31F1328F209F309F20A0319F30A50
:104022000130F506F601F701700871040319402802
:104032000130F400F11B25280130F035F10D890B18
:104042001E280130F4071B280130F635F70D890BC5
:10405200262871087302031D302870087202031C9F
:1040620037287008F2027108F33B76140130F136FA
:10407200F00C890B38280130F402031D252875083D
:1040820003194828F609F709F60A0319F70A770807
:10409200F1007608F000080044016C0840013F0678
:1040A200031D572844016B0840013E06031908000E
:1040B2003F084401EC0040013E084401EB0000309F
:1040C20040013F02643003193E0203187C283C3051
:1040D200AF003F08AC003E08AB00AD01AD0A0330B3
:1040E200AE00B5312D25A031B0000330B100003053
:1040F200A331302308000A30F0000030F1003E08FE
:10410200053EF20000303F3DF300A931A521A03168
:104112007108C1007008C0003C30AF004108AC001B
:104122004008AB00AD010330AE00B5312D25A03102
:10413200B0000330B1000030A33130230800400149
:10414200A601A7010030A8314720A0314001A801F3
:10415200093041019E003530890BAD280000410134
:1041620013141318B2280D084001A50041010C08D0
:104172004001A4002408A6072508A73D0130A8078E
:1041820008302802031CA9280430A0000030A10036
:104192000030A2000030A3002608F0002708F1003A
:1041A200F201F3010030F7000030F6000030F500B4
:1041B2000B30F400A9317621A03170084001A0072C
:1041C2007108A13D7208A23D7308A33D0330A336D6
:1041D200A20CA10CA00C890BE82821084401EE00D6
:1041E200400120084401ED000800700886008701A4
:1041F2004431403FF400413FF500423FF600433F67
:10420200F7007008860087014831403FF800413FBF
:10421200F900423FFA00433FFB0077087B02031D8F
:104222001C2976087A02031D1C2975087902031DD0
:104232001C2974087802031C27290030F30000307F
:10424200F2000030F1000030F00008007008860033
:1042520087014831403FF400413FF500423FF600FC
:10426200433FF7007008860087014431403FF80061
:10427200413FF900423FFA00433FFB007408F80255
:104282007508F93B7608FA3B7708FB3B7B08F3009D
:104292007A08F2007908F1007808F000080000308E
:1042A200FB000030FA000030F9000030F80073081B
:1042B20072047104700403196E2973087702031DD6
:1042C2006C2972087602031D6C2971087502031DA0
:1042D2006C2970087402031C77290130F300003046
:1042E200F2000030F1000030F0000800FC01013063
:1042F200F435F50DF60DF70D890B79290130F835F6
:10430200F90DFA0DFB0D890B802973087702031D45
:10431200942972087602031D942971087502031DFF
:10432200942970087402031C9F297008F402710812
:10433200F53B7208F63B7308F73B78140130FC0733
:1043420018307C02031C78297B08F3007A08F200FB
:104352007908F1007808F00008004001AF002F084A
:10436200C83E8600023087000108AE002F08C43E16
:104372008600023087000108AD002F08C83E860083
:1043820002308700FF3081002F08C43E86000230D1
:10439200870081012E082D02031C08002E08F70059
:1043A2002F08A500A6010730A535A60D890BD52932
:1043B200F030A7002C30A80025082707A9002608FE
:1043C200283DAA002E082907AB0000302A3DAC0088
:1043D2002B08F8002C08F9002E082D02013EFA00E5
:1043E2002F08AC314F24A131003A0319082AB53104
:1043F200D625A13101304401C40705304402031C13
:10440200052A0130C3000800B731322708004401F1
:10441200C301C101C40108004108860042088700A7
:10442200403F4401A800413FA900423FAA00013099
:10443200400143020030443B0030453B0130463BE3
:104442000318332A400146084501B70040014508D8
:104452004501B600400144084501B500400143084A
:1044620045013B2A01304501B7000030B60000305B
:10447200B5000030B40037084001B00045013608ED
:104482004001AF00450135084001AE004501340846
:104492004001AD00A4317B24A2312E084401B800B2
:1044A20040012D084401B70040014108860042083E
:1044B200870041310108F300410886004208870065
:1044C20042310108F40041088600420887000108D1
:1044D2009931EE210800A901A801AA01AB012030FF
:1044E200F8002B08A9311B21A231003A03198B2AAB
:1044F200400129080319852A2008FD002808FD0229
:1045020080307D0203188B2A2008A8002B08AA00FD
:104512000130A90001304001AB0710302B02031C0F
:10452200702A2908031D9B2A0F304401BE00BD01D9
:10453200003008002030F8002A08A9311B21A231DE
:1045420040012A084401BE00400120084401BD0088
:104552005330F3000230F40040012108F500220834
:10456200F600B631D526A23123080319BA2A013042
:10457200BB2A00304401D9005630F3000230F40067
:1045820040012408F5002508F600B631D526260894
:104592004401DA00013008004001CA004A08031948
:1045A200E22A44015908031DE22A5E08D6005F0888
:1045B200D7006008D8000130D900F301F4010030BF
:1045C200F02A40014A08031D080044015908031952
:1045D2000800D9015708F3005808F4005608993129
:1045E200EE21A231B431DC24A2315908031D102B73
:1045F2005A08031D002B4001C601C701082B5A08A7
:10460200643E4001C600003003180130C70047086D
:104612004401B600400146084401B500122BB50121
:10462200B601A831C420A23144015908031D1E2B32
:10463200F9304001C800FB30222BE0304001C800B5
:10464200FB30C9004908BF004808BE002030C00046
:104652000330C100AA3174224401CE010800BB001C
:104662003008840031088500120003190800300860
:104672008400310885000008B7311227A33177087A
:104682004001B6007608B500BD010A303D02031CA8
:104692004D2BB701B801612B3D08B2000130B23693
:1046A200890B502B32083507840036080318013E67
:1046B20085000008B300B4013308B7003408B8001D
:1046C2003708BC003C080F39B631F226A331B900D5
:1046D2003C08B2000430B236890B6C2B3208B6317A
:1046E200F226A331BA003B08F3003908F40008307F
:1046F200F5002F083D079B317223A33140013B088F
:10470200083EF3003A08F4000830F5002F083D0790
:104712009B317223A33101304001BD070C303D02B1
:10472200031C462B0130B0070030B13D0C30AF07FF
:10473200312BAC319024A3317708B3007608B20054
:10474200B6318126A3314001B4013408233E8600EC
:1047520087013408203EB431D024A33181000130D6
:104762004001B4070F303402031CA62B5E3023062F
:10477200031D080033082406031D0800250832061D
:10478200031D08002F30B431D024A331FD002330A3
:10479200F0000F30F100A9314821A3317D06031D3D
:1047A20008004001B4013408033E233E860087011D
:1047B2003408F53E8400FA300318013E85000008F3
:1047C2000102031C022C3408033E233E86008701AB
:1047D2003408E93E8400FA300318013E85000008DF
:1047E200FD0001087D02031C022C3408A03E860055
:1047F200023087003408033E233E8400850100080E
:1048020081000130B4070C30340203180800D42BA5
:10481200AB010130A0000030A1002B0A122CA03500
:10482200A10D890B102C4401310840012005A20082
:104832004401320840012105A30022082304031980
:10484200712C0330F0002B08B5310F25A431383E0E
:1048520086000330870001084001A4000330F00005
:104862002B08B5310F25A431383EF3000330F40094
:10487200B531EB25A4314001A5002B082C3E860062
:10488200033087000108A6002B08203E8600033073
:1048920087000108A7002430F0000430F100A9319C
:1048A2004821A4314001A8000530F0002B08B531A1
:1048B2000F25A431303E4001A900AA012A08243E56
:1048C200860087010108F80029082A07B731DA278C
:1048D200A43101304001AA0705302A02031C5F2CD3
:1048E2000130AB070C302B02031C0A2C4401B1012E
:1048F200B20108003008F3002F08F2002E08F10080
:104902002D08F000A5317625A4317108C000700889
:10491200BF0010304002003003193F02031C972CE5
:10492200E7304001AD000330AE0008000030B100B6
:104932001030B2003F083102A0004008323BA10013
:10494200A201A3010030B3001030B4003F083302CB
:10495200B5004008343BB600B636B50C3508B70092
:104962003608B800B901BA013F08003EF000103025
:10497200403DF100F201F3010030F7000030F60093
:104982000030F5006430F400A9317621A4317008BA
:104992004001B7077108B83D7208B93D7308BA3DC6
:1049A2003A08A7003908A6003808A5003708A4006D
:1049B200AF315D27A4312308BE002208BD002108C3
:1049C200BC002008BB003E08031D912C3D08031DBE
:1049D200912CE8303B0203303C3B0318912C400100
:1049E2003C08AE003B08AD000800D000A8319A2078
:1049F200A4310C30400150020318482D4430AB0062
:104A02000030AC005008013EAD0000300318013008
:104A1200AE00AF01B5314F25A4312C08B1002B08EF
:104A2200B0002630B200FC30B300B6311A26A431F1
:104A3200A9014430AA000030AB000030AE3130266C
:104A4200A431A9015008C100C201C135C20D943080
:104A5200410784007930423D80388500003FAA003A
:104A6200013FAB000130AE313026A4315008A03EE8
:104A72008600023087000108B60050089E31C02629
:104A8200A431AF015C30B0000330B1006F2DA90139
:104A9200B830AA00FA30AB000030AE313026A43173
:104AA2000C3050060319662D0D30500603195D2D8A
:104AB2001330CE00FC30602D1930CE00FB30CF0019
:104AC2004F08CD004E08CC006A2D0430CC00FC30DB
:104AD200CD00AF014D08B1004C08B0001230A33137
:104AE2003023A431B531872508000030A3000030FF
:104AF200A2000030A1000030A0004030A70000302A
:104B0200A6000030A5000030A40027087302031D90
:104B1200942D26087202031D942D25087102031D8F
:104B2200942D240870020318042E0230A736A60C16
:104B3200A50CA40C890B972D862D20082407F400C0
:104B42002108253DF5002208263DF6002308273DD1
:104B5200F70077087302031DB82D76087202031D51
:104B6200B82D75087102031DB82D74087002031C5C
:104B7200F62D20082407F4002108253DF50022081F
:104B8200263DF6002308273DF7007408F002750859
:104B9200F13B7608F23B7708F33B2408F400250842
:104BA200F5002608F6002708F7002008F80021087B
:104BB200F9002208FA002308FB000130FB36FA0C48
:104BC200F90CF80C890BDF2D7808F4077908F53D0C
:104BD2007A08F63D7B08F73D7708A3007608A20025
:104BE2007508A1007408A000FD2D0130A336A20CA7
:104BF200A10CA00C890BF72D0230A736A60CA50C30
:104C0200A40C890BFE2D2708260425042404031D69
:104C12009E2D2108F1002008F0000800750886008A
:104C2200013087000230010203181F2E750886002A
:104C3200013087000108810AFA007E2E740886007E
:104C420001308700403F4001A000413FA100423FA8
:104C5200A200433FA3007408053E8600013087008E
:104C6200403FA400413FA500423FA600433FA700AA
:104C720023082702031D472E22082602031D472E62
:104C820021082502031D472E20082402031C4B2E57
:104C920001304C2E0030FA000530F0007A08B531B0
:104CA2000F25A63174074001A000200886000130BC
:104CB2008700403FA100413FA200423FA300433F83
:104CC200A4007808860079088700403FA500413F8C
:104CD200A600423FA700433FA80024082802031D64
:104CE2007C2E23082702031D7C2E22082602031D88
:104CF2007C2E210825020318080076088600770812
:104D02008700403F4001A000413FA100423FA20076
:104D12000330F0007A08B5310F25A6317307400140
:104D2200A30023088600013087002008C03F210825
:104D3200C13F2208C23F7808860079088700053003
:104D4200F0007A08B5310F25A63174074001A000A2
:104D520020088400013085000530A10016001A00E9
:104D6200A10BAF2E0800FF30A400FF30A500FF30DA
:104D7200A6001F30A70022088600230887004431BE
:104D82002008840021088500043100080107A800DA
:104D9200A901A90D290DA90CA80C290DA90CA80C73
:104DA2002808AA002908AB000030AB1BFF30AC007A
:104DB200AD002A08A4052B08A5052C08A6052D0878
:104DC200A70501302407B4000030253DB5000030AE
:104DD200263DB6000030273DB70022088600230892
:104DE2008700403FA400413FA500423FA600433F49
:104DF200A7004030A8000030A9000030AA0000300F
:104E0200AB002008860021088700403FAC00413FEC
:104E1200AD00423FAE00433FAF00220886002308A8
:104E22008700403FB000413FB100423FB200433FE4
:104E3200B3000830B336B20CB10CB00C890B1B2F87
:104E42003308F3003208F2003108F1003008F000B4
:104E52003708F7003608F6003508F5003408F40084
:104E6200A9317621A63170084001AC077108AD3D29
:104E72007208AE3D7308AF3D2C08A8072D08A93D66
:104E82002E08AA3D2F08AB3D27082B02031D532FE6
:104E920026082A02031D532F25082902031D532F1A
:104EA200240828020318572F013008000030080098
:104EB200440146080319622F4608F400C60174082B
:104EC20008008B1340016F08F10044014A08F30007
:104ED200CA0143016E08F00044014908F200C90109
:104EE2008B17F40173080319962F43016D08031DF4
:104EF200802FFA307302031C802F0330912F6D082C
:104F0200031D892F19307302031C892F0230912F40
:104F12006D08031D922F03307302031C922F013080
:104F2200F4004401C8014301ED0119307102031C70
:104F3200A92F43016D08031DA92F0130ED0074084C
:104F42000319A72F02304401C600A92F0230F40032
:104F5200FA307102031CBB2F44014808031DBB2F0A
:104F62000130C80074080319B92F0330C600BB2FE3
:104F72000330F40072080319D42F02307202031CAA
:104F8200D22F0A3072020318D22F44014608031DA1
:104F9200D22F74080319D02F0430C600D22F043048
:104FA200F4004401C70114307002031CED2F4401C8
:104FB2004708031DED2F40010F1DED2F0130440165
:104FC200C7007408031DE82F0530F400ED2F4608D2
:104FD200031DED2F0530C6007108031DF72F73085E
:104FE200031DF72F4401C8014301ED017008031DA1
:104FF200602F7208031D602F4401C701602F01302A
:10500200AB319323A831AD319E25A83164306F02B4
:10501200031C0E2898318D20A831AA313F22A831D5
:10502200B5310125A831B5319A2573084401A7008D
:105032007208A6007108A5007008A4000800FC0010
:105042007008F200F3017C08F400F5010730F43532
:10505200F50D890B28287108F600F7010E30F63598
:10506200F70D890B302874087604F8007508770468
:10507200F90072087804FA0073087904FB00003022
:105082007A04F00080307B04F1000800F20072081C
:1050920044016F06031908007208EF00023072061D
:1050A200031D562841019A016B28720803195B28D7
:1050B20002305C280130F0000030F10052010C088F
:1050C2007006FC3970068C008C170C1F66280330A2
:1050D20041019A00A0300032890B6C280800700848
:1050E2007104031995280130F400F11B8028013066
:1050F200F035F10D890B79280130F4077628710813
:105102007302031D862870087202031C8C28700823
:10511200F2027108F33B0130F136F00C890B8D2855
:105122000130F402031D80287308F1007208F000B8
:105132000800F701F8017708F100F2010730F135B4
:10514200F20D890BA028F030F3002C30F400710826
:105152007307F5007208743DF6007808750786003B
:105162000030763D870081010130F80780307802F7
:10517200031C9C280130F70704307702031C9B288C
:10518200B531D62508004001AF014630B000FB30F2
:10519200B1001230A3313023A83144015908031D54
:1051A200D7287D304001BE00FA30DB282E30400186
:1051B200BE00FC30BF00AF013F08B1003E08B000A6
:1051C2001230A3313023A8312A30AF004130B00071
:1051D200FC30B1001230A331302308004001C3017A
:1051E20045012A08031918297C0886007D088700D2
:1051F200403F4001AD00413FAE00423FAF00433F60
:10520200B000A4317B24A83145012A08643E400144
:10521200C100003003180130C2002E084202031DF3
:1052220014292D084102031C18290130C300400132
:1052320043080800FA007A08F9000330F935890BAF
:105242001F297908703EFB00FC0178087C07860064
:1052520087017B087C07B431D024A9318100013059
:10526200FC0708307C02031C26297808073E8400CC
:1052720085017808F0000730F100A9314821A931F1
:105282000006031D462901300800003008005A308C
:10529200F7000130F102710A0319742970088600BF
:1052A20087010108F7060130F007F601F71B6029B4
:1052B2007708F200F3017235F400730D6A2977085A
:1052C200F200F301F235F30D07307206F4000030FC
:1052D2007306F5007408F7000130F607083076020D
:1052E20003184A295729770808000030FB000030CC
:1052F200FA000030F9000030F800701C88297408A8
:10530200F8077508F93D7608FA3D7708FB3D01304C
:10531200F435F50DF60DF70D890B89290130F336B9
:10532200F20CF10CF00C890B9029730872047104D1
:105332007004031D7E297B08F3007A08F2007908C5
:10534200F1007808F0000800F401F501700871041A
:105352000319D2290130F600F11BB7290130F035CB
:10536200F10D890BB0290130F607AD290130F43572
:10537200F50D890BB82971087302031DC229700843
:105382007202031CC9297008F2027108F33B7414FB
:105392000130F136F00C890BCA290130F602031DE7
:1053A200B7297508F1007408F0000800F000F20156
:1053B200F01FDE2940011615E029400116111A30AE
:1053C200890BE1290032400196151A30890BE72931
:1053D2000032400196110310F00D0130F20708303F
:1053E2007202031CD92916151A30890BF6290032CC
:1053F200400196151A30890BFC29003240010C0C31
:10540200890C0139F10096111A30890B062A0032F3
:10541200710808004001CA01CB0150019318152AF6
:105422004001CA01CB012C2A13181C2A8D304001DD
:10543200CA00FB302B2A131A232AAE304001CA00BD
:10544200FB302B2A931B272A131F2C2A563040018C
:10545200CA00FB30CB003F305001930040014A08A4
:105462004B04031908004B08C7004A08C600D03095
:10547200C8000730C900B63132260800A8319A2088
:10548200AA314001AF013230B000FC30B10000302F
:10549200A3313023AA312A30AF004130B000FC30B2
:1054A200B1000030A3313023AA316030AF003D306B
:1054B200B000FC30B1000030A3313023AA31A83152
:1054C200C420AA3144016E08FD006D08FC00883139
:1054D2000320FF304401E900FF30EA006A08EC00D3
:1054E2006908EB000800AF014230B000FB30B100A8
:1054F2001230A3313023AA31AF013F08B1003E0878
:10550200B0001230A3313023AA3101304401CF0060
:1055120040014008C2004108C300C401C501B531C1
:105522009A2570084001C2077108C33D7208C43D44
:105532007308C53D45084501D700400144084501AF
:10554200D600400143084501D5004001420845010B
:10555200D40008007E01B8010730C300CE01D90192
:10556200E4015301901394134001960118309700FF
:1055720010309800063099009A019101273092006C
:105582009301940195017E013A15BA15DB145B155E
:105592001A304F019600FE309700473098007F3056
:1055A200990077309A00DF309B00453040019F0020
:1055B2009E01F9309D009C014E018C12961640010D
:1055C2009E178B170800A031A020AA316E08FD009B
:1055D2006D08FC0088310320AA310E3044016E02AE
:1055E200753003196D02031CF92A40019711052B2E
:1055F2000E306E02073003196D02031C032B4001AB
:105602009711042B4001171201304401D000B5312B
:105612009A25AA317308DB007208DA007108D900F2
:105622007008D8000D3044016E02483003196D0233
:10563200031808000230CC000800F4007408F100DE
:10564200F201F135F20D7C30710784007930723D40
:1056520080388500003FF500013FF600F70174082D
:10566200C53E8400FA300318013E85000008770227
:105672000318522B77087507840076080318013E39
:1056820085000008700203184F2B77087507840005
:1056920076080318013E8500000808000130F7076C
:1056A200302B750884007608850000080800440144
:1056B2006A0840013F06031D622B4401690840014C
:1056C2003E060319080044014F08031D080040016B
:1056D2003F084401EA0040013E084401E90040015C
:1056E2003E083F040319892B3C30AF003F08AC0051
:1056F2003E08AB000230AD000430AE00B5312D25BE
:10570200AB31B0000330B1001230A33130230800B6
:105712003C30AF001830B000FC30B1001230A33181
:1057220030230800FD007D08031D9E2B4001161248
:10573200961116114401C501080040011616C83021
:10574200F0000030F100B5316125AB314401C401F4
:10575200AE317A26AB314401C300B5319A25AB3163
:105762007308C3007208C2007108C1007008C0004B
:1057720001304401C500B531D625AB31B53187259D
:10578200AB3144014308031D0800B431C724AB31D7
:10579200003A0319080001304401C3000800AC318B
:1057A2009024AB317708B3007608B2005E30A300D4
:1057B2003308A4003208A500B4013408033E233E96
:1057C200860087013408A03E84000230850000086C
:1057D20081000130B4070C303402031CDE2BB4010B
:1057E2003408233E860087010108F8003408203E71
:1057F200B731DA27AB3101304001B4070F30340240
:10580200031CF12B2330F0000F30F100A9314821A5
:10581200AB31F8002F30B731DA2708007108730274
:10582200031D152C70087202031C1D2C70087202D5
:10583200FA007108733B222C72087002FA00730896
:10584200713BFB0071087302031D292C7008720260
:10585200031C2F2C7308FD007208322C7108FD0006
:105862007008FC007D08F7007C08F600F736F60C9D
:10587200F736F60CF736F60C74087607F80075085A
:10588200773DF9007B087902031D492C7A087802DA
:10589200031C4D2C0130080000300800A00002302B
:1058A200F7072008B03EA10077080F39A200770859
:1058B200FB000430FB36890B5B2C7B081038A300FD
:1058C2002130F3000030F4000330F500B7319527A2
:1058D200AC314001A400B531AE25AC317830A931EC
:1058E200D721AC314001A4044030A931D721AC31D9
:1058F2000130FA027A0A03198B2C7808840079089D
:1059020085000008A931D721AC310130F8070030F9
:10591200F93D792CB53174254001240808005A302C
:105922004001A200A530A000A101FF30F00000302C
:10593200F1002108703E8400F7300318013E850013
:105942000008F80022087807F200F301F30DAC31E9
:10595200D124AC317008A200FF30F0000030F10019
:1059620020082207F200F301F30DAC31D124AC314F
:105972007008A0000130A1070C302102031C962CF4
:105982002208F800F9012008FA00FB017A08FB005E
:10599200FA0178087A04F60079087B04F700080017
:1059A200F501F31FDB2CF209F309F20A0319F30ADA
:1059B2000130F500F11FE22CF009F109F00A031998
:1059C200F10A700871040319072D0130F400F11B6C
:1059D200F22C0130F035F10D890BEB2C0130F4077C
:1059E200E82C71087302031DF82C70087202031C64
:1059F200FE2C7008F2027108F33B0130F136F00C14
:105A0200890BFF2C0130F402031DF22C75080319D7
:105A12000F2DF209F309F20A0319F30A7308F100D0
:105A22007208F00008007408F6007308F5000730E9
:105A3200F636F50C890B192D2530F0007308B531B7
:105A42000F25AD317506FB003B2D7B08F500F601F5
:105A5200F535F60DF030F7002A30F80075087707B3
:105A620086007608783D8700160001040319562D3A
:105A72000130FB077B08F500F601F535F60DF03035
:105A8200F7002A30F8007508770786007608783D17
:105A92008700403FF900413FFA0074087A06031D6F
:105AA200542D73087906031D262D7B080800F70084
:105AB2007308F4000430F436890B5C2D0A3074024A
:105AC20003186A2D0F307305F4000A307402031CA8
:105AD200732D7708DD3E8400FA300318013E8500FD
