:0400000080314128E2
:100008007E14803100308600003087004E018C1E3F
:100018003F288C1201304401A4070030A53DA63DBD
:10002800A73D0130CD070A304D02031C3F28CD0102
:1000380040018D1A25286F0A03192D280130EF0772
:100048002D286F0803192D286F084401D800400196
:10005800EF018F18362843016A0A03193F28013037
:10006800EA073F2843016A0803193F286A08440140
:10007800D7004301EA017E1009008031432843017B
:100088008731FE278031ED008731FF278031EE0070
:1000980089308400B730850044011200EA0012005C
:1000A800EB001200EC001200ED001200EE00F03040
:1000B8008400283085000030FE000730FF00B7318B
:1000C800AC2780314001EF01E33084000130850026
:1000D8000A30FE000030FF00B731AC2780312030F5
:1000E8008400023085004A30FE000030FF00B7313E
:1000F800AC278031A0308400023085004C30FE00EF
:100108000030FF00B731AC27803120308400033045
:1001180085004E30FE000030FF00B731AC277E105E
:1001280040018A313E2A4201EF014301BC01C4016A
:100138004435F03E860087012A30873D443500303B
:10014800873D0030C03FC13F0130C407031D9C28D4
:100158004401C301C401CC01CB01C101C201450165
:100168002F084101E900EA01EB01EC016C08F300FA
:100178006B08F2006A08F1006908F0000030F70027
:100188000130F6008630F500A030F400AC3153247D
:10019800803173084501BF007208BE007108BD00B8
:1001A8007008BC0030084101E900EA01EB01EC01EC
:1001B8006C08F3006B08F2006A08F1006908F000A7
:1001C8000030F7000F30F6004230F5004030F40000
:1001D800AC315324803173084501BB007208BA0062
:1001E8007108B9007008B80001304401A30000305C
:1001F800A2000030A1000130A0004101650886007E
:1002080066088700403F4401E400413FE500423F63
:10021800E60036290E304201E900FC30EA000430DD
:10022800EB000230EC0096304401BF000030342966
:10023800A7304201E900FB30EA000730EB00043048
:10024800EC00F4303129F0304201E900FB30EA00DB
:100258000530EB000330EC005E304401BF00013094
:10026800C0003F2945013708013A03190E29023A0F
:1002780003191C292729410165088600660887009B
:10028800403F4301C500413FC600423FC700460802
:100298004001E300430147084001E4002030E50045
:1002A800BE30E6000130E70043014508883165208B
:1002B80080314301BD003D08031DF32EBE30FC0014
:1002C8000130FD00AB319F238031003A03198829A2
:1002D800C5304001C1000130C2004301410840015E
:1002E800C600430140084001C50043013F084001E2
:1002F800C40043013E084001C300A4317824803182
:100308009231252200300800410168084201E800C6
:10031800410167084201E7004301C401650844023E
:1003280003182A2A0330F0004408B731D227803155
:100338003F3E4301BA003A088600033087000108AF
:100348004506031DB8293A0A8600033087000108CC
:100358004606031DB8293A08023E86000330870086
:10036800010847060319262A3A0886000330870041
:100378000108031DC6293A0A8600033087000108D0
:100388000319262A3A088600033087000330413FC4
:100398004001E30043013A08860003308700033038
:1003A800423F4001E4001030E500A030E600013093
:1003B800E70043013A0886000330870001088831C6
:1003C800652080314301BD0003303D0603192A2A08
:1003D8003D08031DF32E41082302031DFD29400893
:1003E8002202031DFD293F082102031DFD293E08A5
:1003F80020020318262A3A08860003308700403F67
:10040800C500413FC600423FC700A030860001300A
:100418008700BE3084000130850005304101E900C5
:1004280016001A00E90B142A43014408333E8600DB
:10043800033087000108643E4201E70000300318DA
:100448000130E80001304301C407922942016708DE
:1004580068040319A42A01304401CB00C5304101C6
:10046800DD000130DE00BE30DF000130E0009431F5
:100478009B2480314301BD004401CB01033043017B
:100488003D06031D592AB430F300AA30F400BC30ED
:10049800F500C530F6000130F700BE30F800013035
:1004A800F9009931A0218031A22D3D08031DF32EBA
:1004B800BE30FC000130FD00AB319F238031003A93
:1004C800031D6C29450136080319932A4301410885
:1004D8004001B000430140084001AF0043013F081C
:1004E8004001AE0043013E084001AD00A731052799
:1004F800803142016708053E4101E90000304201B0
:10050800683D4101EA0040012E0841016A02031DCD
:10051800912A40012D084101690203186C29B43061
:10052800F300AA30F400BC30F500C530F600013005
:10053800F700BE30F8000130F9009931A021803170
:100548004201ED0102306D020318082D4301C40178
:1005580042016B08430144020318042D4201EE01D5
:100568006B086E020318002D430144084201690715
:1005780084006A080318013E850000084301C5008D
:1005880042016E08690784006A080318013E850065
:1005980000084301C60042016D084301C700460830
:1005A8004001E300430147084001E4001030E50042
:1005B800BE30E6000130E700430145088831652078
:1005C80080314301BD0003303D060319A22D3D08CB
:1005D800031DF32EC30142016F08430143020318B0
:1005E8005C2B0330F0004308B731D2278031023E3C
:1005F800583E860001308700010842016D06031D40
:10060800582B43014308343E860001308700010817
:100618004101E900430144084101E9020130690749
:10062800EA0003306A020318582B43014308393E95
:1006380086000130870001084101E90042016E0887
:100648004101E90201306907EA0003306A02031830
:10065800582B0530F00043014308B731D2278031C9
:100668003F3E860001308700403F4101E900413F9D
:10067800EA00423FEB00433FEC006C0843014102B3
:10068800031D562B41016B0843014002031D562BE5
:1006980041016A0843013F02031D562B41016908C5
:1006A80043013E0203185C2B01304301C307EF2AC4
:1006B80042016F0843014302031CFC2CC3014201A1
:1006C8006F08430143020318222C0330F00043084B
:1006D800B731D2278031023E583E8600013087006C
:1006E800010842016D06031DA12B43014308343E56
:1006F80086000130870001084101E90043014408F0
:100708004101E90201306907EA0003306A0203186F
:10071800A12B43014308393E8600013087000108B8
:100728004101E90042016E084101E902013069070F
:10073800EA0003306A02031CA52B01304301C307FA
:10074800632B43014308BB003B08013E4101E9001C
:10075800003003180130EA006A08803AEB00803064
:100768006B02031DBB2B42016F084101690203188C
:100778001E2C0330F00043013B08B731D2278031EB
:10078800033E583E860001308700403F4101E900A2
:10079800413FEA00423FEB000330F00043013B08D1
:1007A800B731D2278031583E860001308700410199
:1007B8006908C03F6A08C13F6B08C23F0530F000B6
:1007C80043013B08B731D2278031053E3F3E8600C2
:1007D800013087000530F00043013B08B731D227CC
:1007E80080313F3E84000130850005304101E90039
:1007F80016001A00E90BFC2B43013B08343E860027
:10080800013087003B08013E343E840001308500FA
:10081800000881003B08393E8600013087003B080C
:10082800013E393E84000130850000088100013016
:10083800BB07A82B01304201EF02632B42016F086E
:100848004301C3008C2C42016C0843014302031886
:100858008A2C0330F0004308B731D2278031FD3E9F
:10086800583E860001308700403F4101E900413F82
:10087800EA00423FEB000330F00043014308B73180
:10088800D2278031583E860001308700410169082F
:10089800C03F6A08C13F6B08C23F0530F000430102
:1008A8004308B731D2278031FB3E3F3E86000130F6
:1008B80087000530F00043014308B731D227803163
:1008C8003F3E84000130850005304101E9001600F3
:1008D8001A00E90B6B2C43014308343E86000130B3
:1008E80087004308FF3E343E84000130850000083D
:1008F80081004308393E8600013087004308FF3EE7
:10090800393E840001308500000881000130C302AF
:1009180043080319BA2C0530F0004308B731D22731
:100928008031FB3E3F3E860001308700403F410159
:10093800E900413FEA00423FEB00433FEC006C080E
:1009480043014102031DB82C41016B0843014002D9
:10095800031DB82C41016A0843013F02031DB82C4E
:100968004101690843013E02031C272C42016C081F
:10097800430143020318FC2C0330F0004308B7314D
:10098800D2278031583E8600013087004301450850
:10099800C03F4608C13F4708C23FBE30860001300D
:1009A80087000530F0004308B731D22780313F3E39
:1009B80084000130850005304101E90016001A0065
:1009C800E90BE22C43014308343E860001308700DE
:1009D800440881004308393E8600013087004201FF
:1009E8006E0881006C086F020318FC2C0130EF07B9
:1009F80001304201EE07B42A01304301C407AC2A92
:100A080001304201ED07A62A440123084001B00045
:100A1800440122084001AF00440121084001AE0012
:100A2800440120084001AD00A731052780312E0878
:100A3800C4002D08C300B731C52780314301C40164
:100A480042016F08430144020318A22D0330F0004D
:100A58004408B731D2278031583E860001308700DC
:100A6800403F4301C500413FC600423FC700053033
:100A7800F0004408B731D22780313F3E860001306C
:100A88008700BE3084000130850005304101E9004F
:100A980016001A00E90B4C2DC530DD000130DE00D0
:100AA800BE30DF000130E00094319B2480314301E7
:100AB800BD003D080319642D03303D06031DF32EC8
:100AC800B430F300AA30F400BC30F500C530F600AD
:100AD8000130F700BE30F8000130F9009931A0214B
:100AE8008031440123084001B0004401220840013C
:100AF800AF00440121084001AE0044012008400134
:100B0800AD00A731052780312E08C4002D08C30089
:100B1800B731C5278031033043013D060319A22DA3
:100B2800BE30FC000130FD00AB319F238031003A1C
:100B3800031DA22D01304301C407242D4301C40124
:100B4800D92D0330F0004408B731D2278031B43EA4
:100B5800860001308700010844016406031DD62D74
:100B68000330F00043014408B731D2278031013EF9
:100B7800B43E860001308700010844016506031D64
:100B8800D62D0330F00043014408B731D227803115
:100B9800023EB43E86000130870001084401660623
:100BA8000319DD2D01304301C4073C084402031C2E
:100BB800A52D430144083C06031D102E3C080319CB
:100BC800EE2D440140084202031DEC2D3F0841026E
:100BD800031C102E440123084301C10044012208CC
:100BE8004301C000440121084301BF00440120081B
:100BF8004301BE00C201B430F300AA30F400BC3097
:100C0800F5006430F6000230F700BE30F80001301D
:100C1800F9009931A02180314301C4013C08440204
:100C28000318682E0330F0004408B731D22780310A
:100C3800013EB43E86000130870001084101ED0005
:100C48000330F00043014408B731D2278031023E17
:100C5800B43E86000130870001084101EE000530EE
:100C6800F00043014408B731D2278031AA3E410140
:100C7800EF000330F00043014408B731D227803138
:100C8800B43E86000130870001084201B3004101EB
:100C98006D084001E30041016E084001E400403066
:100CA800E50041016F084001E6000130E70042011C
:100CB80033088831652080314301BD003D08031D9C
:100CC800F32E0130C407122E4001E301E401403045
:100CD800E500A530E6000130E700003088316520E6
:100CE80080314301BD003D08031DF32E4201BE01C2
:100CF800023043013C02031C942E2D083202031DCE
:100D08008F2E2C083102031D8F2E2B083002031D55
:100D18008F2E2A082F020318942E01304201BE009C
:100D280042013E084301C4000530F0004408B731D1
:100D3800D2278031AA3E4001A0000130A100A53091
:100D4800A2000130A3009A3145228031003A031DE8
:100D5800D22E4301C701C601C501C5304001C100FB
:100D68000130C200430128084001C600430127089A
:100D78004001C500430126084001C400430125087D
:100D88004001C300A4317824803101304301280296
:100D98000318D02E00300800033008000330F0009C
:100DA80043014408B731D2278031B43E4001C10025
:100DB8000130C2000530F00043014408B731D227A2
:100DC8008031AA3E860001308700403F4001C300C1
:100DD800413FC400423FC500433FC60081296430FB
:100DE8004001C1000230C200440123084001C6008E
:100DF800440122084001C500440121084001C40003
:100E0800440120084001C300A43178248031430103
:100E18003D030319112F0130080002300800FD00BE
:100E28007308A0000330A036890B172F2008FC0098
:100E380073080739FB000130A000750A242FA0357C
:100E4800890B232F2008FF3EFA007A08A000A10191
:100E58007B0A302FA035A10D890B2E2F2008F60014
:100E68002108F70074087A05A000A1017B0A3E2F2B
:100E7800A035A10D890B3C2F2008F8002108F900A6
:100E880080307D020318080004307C020318882F84
:100E98007C08A000A1010730A035A10D890B502FB7
:100EA800F030A2002C30A30020082207A40021085B
:100EB800233DA5007D08240786000030253D8700D6
:100EC8007C08A600A7010730A635A70D890B682F57
:100ED800F030A8002C30A90026082807AA00270807
:100EE800293DAB007D082A07840000302B3D850092
:100EF80076090005780481007D08F0007D08F1007E
:100F08007C08AA31662287317B08031908007C080F
:100F1800013EA000003003180130A1002108803AEA
:100F2800A20080302202031D9B2F043020020318E8
:100F380008007C084001A000A1010730A035A10DE0
:100F4800890BA22F7030A2002D30A30020082207A1
:100F5800A4002108233DA5007D0824078600003051
:100F6800253D87007C08A600A7010730A635A70DF8
:100F7800890BBA2F7030A8002D30A9002608280741
:100F8800AA002708293DAB007D082A078400003005
:100F98002B3D850077090005790481007D08F00064
:100FA8007D08F1007C08013EAA3166220800203045
:100FB8008600033087004431403F4001AD00413F87
:100FC800AE00423FAF00433FB000A93157218731FF
:100FD8002E08C2002D08C100A231B8228731440171
:100FE80048084001C200440147084001C100AB3134
:080FF800CB230800A0340F34E4
:101004004001CD004D080319172844016208031D4F
:1010140017286708DF006808E0006908E10001306C
:10102400E200F301F4010030252840014D08031DBE
:1010340008004401620803190800E2016008F30093
:101044006108F4005F089C31F7248831B731B82770
:1010540088316208031D45286308031D35284001B3
:10106400C901CA013D286308643E4001C90000303B
:1010740003180130CA004A084401CA004001490863
:101084004401C9004728C901CA01AB31742388311E
:1010940044016208031D5328EA304001CB00FB30B1
:1010A4005728D1304001CB00FB30CC004C08C200A3
:1010B4004B08C1002030C3000330C400AD311A25F1
:1010C4004401DA0108004101B70040016308F0005F
:1010D4006408F10041013708AA31D022883171082F
:1010E400B6007008B500AA01AB013608F400350853
:1010F400F300AF31BC2788314101B800B40140305E
:10110400400165060319172941013808A000A1010F
:10111400A035A10DF030A2002A30A3002008220738
:1011240086002108233D8700403FA400413FA500DD
:1011340036082506031DA02835082406031D0829A2
:101144003808A000A101A035A10DF030A20028307C
:10115400A3002008220786002108233D87001600EB
:10116400FF3AA4001600FF3AA4040319E128380842
:10117400A000A101A035A10DF030A2002830A300E9
:101184002008220786002108233D8700403FA40051
:10119400413FA5002408A6002508A700A801A9012D
:1011A4000830A635A70DA80DA90D890BD328290849
:1011B400AF002808AE002708AD002608E828013053
:1011C400AF000030AE000030AD000030AC00400194
:1011D400660886006708870041012C08C03F2D0877
:1011E400C13F2E08C23F2F08C33F40016608860056
:1011F40067088700443141013808F03E84008501C6
:101204002E30853D0008810000300800440140086C
:101214004202031D0F293F084102031C1329033016
:1012240008000130C1070030C23D40016308F300EB
:101234006408F400410137089C31F7248831A9314E
:101244000A218831003A0319292901300800B930EC
:101254004001D8000030D9006508DA00A0319D2093
:10126400883141014B08031941290130C80000307D
:10127400C7000030C6000030C500CA01A2294501DC
:101284003F0841014002031D572945013E08410121
:101294003F02031D572945013D0841013E02031D3C
:1012A400572945013C0841013D02031C7129B9300D
:1012B400F0000030F100A331612388317308450147
:1012C4003B02031D6F2972083A02031D6F2971083E
:1012D4003902031D6F297008380203189529440147
:1012E4004C08031D7A29E8304101B00003307E29FF
:1012F4002C304101B0000130B1000130AA070030A8
:10130400AB3D2B083102031D89292A08300203183A
:101314008D29023008000A30F0000030F100A831B5
:1013240023208831212901304401CC00410149089E
:10133400031DA2290130B40703303402031C212900
:101344004001660886006708870041014508C03FE0
:101354004608C13F4708C23F4808C33F40016608EA
:10136400860067088700443141014A088100403003
:101374004001650603190629003044014402FF3088
:101384000319430203180C2A41013835F03E860044
:1013940087012A30873D38350030873D3508C03F06
:1013A4003608C13F013048020318ED2941014508C0
:1013B400A0004608A1004708A2004808A30008307E
:1013C400A336A20CA10CA00C890BE2292108B300BE
:1013D4002008B200F229FF304101B200FF30B3000F
:1013E4003835F03E860087012830873D3835003097
:1013F400873D3208C03F3308C13F3808F03E8600BD
:1014040087012E30873D4A08810001304401C3071B
:101414000030C43D230841014802031D212A440130
:10142400220841014702031D212A440121084101E8
:101434004602031D212A44012008410145020318E4
:101444000629B9308600003087004C31403F440102
:10145400A000413FA100423FA200433FA30041013D
:1014640037084401E400400163084401E5004001F9
:1014740064084401E6000629AD3189258A31430117
:10148400E1015001931813184A2A01304301E10085
:1014940043016108DE00A53138258A31B731E127DF
:1014A4008A31A3310B238A31983100208A31A43147
:1014B400D7248A31003A0319702A5C08E7005D08D2
:1014C400E8005E08E90043015E08031D7B2A44012D
:1014D4005D08F3005E08F4005C08782AE201E30189
:1014E400E101E001DF01F301F40100309C31F72454
:1014F4008A3144016308031D822AC901CA01892A69
:101504006308643EC900003003180130CA0040017A
:101514001915A931C6218A31AC31E6248A3150012A
:101524000C14A83149208A3173084501DF00720880
:10153400DE007108DD007008DC005F08E3005E086F
:10154400E2005D08E1005C08E00063084401B700C4
:10155400450162084401B600450161084401B50033
:10156400450160084401B4003708BB003608BA00DE
:101574003508B9003408B80064009A31EA228A3187
:101584004301E20062030319CB2A02306206031D01
:10159400F42AB73181278A31003A031DF42AA8318D
:1015A400AE208A314301E201F42AA831AE208A3107
:1015B40044016208031DE02A0130E12A0030883129
:1015C40002208A31052B9E31D3268A31052B013026
:1015D400EB00052BA831AE208A310130883102207E
:1015E4008A31052B6208013A0319D72A033A0319F1
:1015F400E52A013A0319E92A073A0319EC2A013AC0
:101604000319E52A052B44013708FB003608FA00C4
:101614003508F9003408F800A831F2208A317B0833
:10162400031D1E2B7A08031D1E2B7908031D1E2B78
:1016340032307802031C2C2BA83149208A317308DC
:10164400B7007208B6007108B5007008B40096318E
:1016540034268A31440159080319342BD9019E31A7
:10166400D3268A3145016308FB006208FA00610849
:10167400F9006008F800A831F2208A317B08031DC4
:101684004D2B7A08031D4D2B7908031D4D2B9630E5
:101694007802031C5C2BA83149208A317308450168
:1016A400E3007208E2007108E1007008E00087318D
:1016B400DB278A3144013B08FB003A08FA00390869
:1016C400F9003808F800A831F2208A317B08031D9C
:1016D400742B7A08031D742BB83078020B30793BD5
:1016E400031C822BA83149208A317308BB0072087D
:1016F400BA007108B9007008B800AD31FC258A3110
:1017040044015B080319A42B45015B08FB005A083C
:10171400FA005908F9005808F800A831F2208A3173
:101724007B08031D9F2B7A08031D9F2B7908031D3B
:101734009F2B1E307802031CA42B4401DB014001C3
:101744009715171643016C080319C42BA8314920B7
:101754008A314501540870024301D60045015508F9
:10176400713B4301D70045015608723B4301D80041
:1017740045015708733B4301D900D91BC42BA83139
:1017840085208A3145015F08FB005E08FA005D0888
:10179400F9005C08F800A831F2208A317B08031DA7
:1017A400DC2B7A08031DDC2B303078027530793B52
:1017B400031CEB2BA83149208A3173084501DF0053
:1017C4007208DE007108DD007008DC00B7317E2786
:1017D4008A31B73181278A31003A0319392C4501FE
:1017E4002C080319392C44013308FB003208FA0091
:1017F4003108F9003008F800A831F2208A3178085D
:101804004301D6007908D7007A08D8007B08D900AC
:1018140045012C084301DA00DB01DC01DD015D0830
:10182400F3005C08F2005B08F1005A08F000003095
:10183400F7000030F600EA30F5006030F400AC3117
:1018440053248A31730843015902031D332C72084F
:101854005802031D332C71085702031D332C7008E2
:101864005602031C392C0030AE313A268A31450128
:101874002D0803197F2C44013308FB003208FA00B9
:101884003108F9003008F800A831F2208A317808CC
:101894004301D6007908D7007A08D8007B08D9001C
:1018A40045012D084301DA00DB01DC01DD015D089F
:1018B400F3005C08F2005B08F1005A08F000003005
:1018C400F7000030F600EA30F5006030F400AC3187
:1018D40053248A31730843015902031D7B2C720877
:1018E4005802031D7B2C71085702031D7B2C7008C2
:1018F4005602031C7F2C0330EB0043016B080319D1
:10190400D72C03306B020318A42CA831AE208A31E3
:1019140043016B030319922C7E30DF00FB30952CBE
:101924004630DF00FB30E00060084001CA0043019C
:101934005F084001C900DC30CB000530CC00A93180
:1019440023218A314301EB01A03112208A31A931CC
:10195400C6218A31A83149208A3173084501DF0044
:101964007208DE007108DD007008DC005F08E30027
:101974005E08E2005D08E1005C08E00063084401E1
:10198400B700450162084401B600450161084401FD
:10199400B500450160084401B4003708BB003608AF
:1019A400BA003508B9003408B8009C313B248A31A8
:1019B400BE2A0130B7000030B8000030B900003052
:1019C400BA003508BB003608BC00BD01BE012F08B3
:1019D400BF003008C000C101C2013F08BB07400876
:1019E400BC3D4108BD3D4208BE3D3B08B7073C082D
:1019F400B83D3D08B93D3E08BA3D0130BA36B90C90
:101A0400B80CB70C890B002D2D0886002E08870012
:101A14003708C03F3808C13F0130B7000030B80074
:101A24000030B9000030BA003308BB003408BC00F1
:101A3400BD01BE013108BF003208C000C101C201AE
:101A44003F08BB074008BC3D4108BD3D4208BE3DC0
:101A54003B08B7073C08B83D3D08B93D3E08BA3DD0
:101A64000130BA36B90CB80CB70C890B332D2D08DC
:101A74008600870142313708C03F3808C13F2D082E
:101A840086002E088700403FB700413FB800370862
:101A9400F0003808F100F201F30145013308400178
:101AA400B900BA01BB01BC013C08F7003B08F600D1
:101AB4003A08F5003908F400AC3153248C3173082A
:101AC4004001D3007208D2007108D1007008D00020
:101AD4002D0886002E088700403FB700413FB8001C
:101AE4003708F4003808F500F601F7012D088600E0
:101AF4002E088700403FB900413FBA003908F00082
:101B04003A08F100F201F301AC3153248C3170082E
:101B14004001BB007108BC007208BD007308BE0020
:101B24000630BE36BD0CBC0CBB0C890B932D3E0895
:101B3400D7003D08D6003C08D5003B08D400530824
:101B4400F3005208F2005108F1005008F000003090
:101B5400F7000030F6000030F5001930F400AC3125
:101B640053248C3170084001B7007108B800720822
:101B7400B9007308BA000130BA36B90CB80CB70C06
:101B8400890BBE2D0030A3000030A2000030A1005C
:101B94006430A0005708F3005608F2005508F1001D
:101BA4005408F00045013408643EF4000030031882
:101BB4000130F500F601F51BF6037608F700AC31A9
:101BC40053248C3173084001A7007208A6007108E1
:101BD400A5007008A400A23115228C312008B70793
:101BE4002108B83D2208B93D2308BA3D2D088600D6
:101BF400870144313708C03F3808C13F3908C23F24
:101C04003A08C33F2D08860087014231403FB700A0
:101C1400413FB8003708F0003808F100F201F30141
:101C2400450133084001B900BA01BB01BC013C08BD
:101C3400F7003B08F6003A08F5003908F400AC3127
:101C440053248C3173084001D3007208D200710808
:101C5400D1007008D0002D08860087014231403F32
:101C6400B700413FB8003708F4003808F500F60122
:101C7400F7012D08860087014231403FB900413FFA
:101C8400BA003908F0003A08F100F201F301AC316E
:101C940053248C3170084001BB007108BC007208E9
:101CA400BD007308BE000630BE36BD0CBC0CBB0CB8
:101CB400890B562E3E08D7003D08D6003C08D500B7
:101CC4003B08D4005308F3005208F2005108F10015
:101CD4005008F0000030F7000030F6000030F50046
:101CE4001930F400AC3153248C3170084001B70032
:101CF4007108B8007208B9007308BA000130BA3626
:101D0400B90CB80CB70C890B812E0030A30000303D
:101D1400A2000030A1006430A0005708F300560868
:101D2400F2005508F1005408F00045013408643EFF
:101D3400F400003003180130F500F601F51BF6033A
:101D44007608F700AC3153248C3173084001A700A6
:101D54007208A6007108A5007008A400A23115221B
:101D64008C312008B7072108B83D2208B93D230863
:101D7400BA3D2D088600870148313708C03F38082E
:101D8400C13F3908C23F3A08C33F2D088600870186
:101D94004431403FF000413FF100423FF200433FF5
:101DA400F3002D08860087014831403FF400413F8D
:101DB400F500423FF600433FF700A331BB238C31CB
:101DC4002D08860087014C317008C03F7108C13F5F
:101DD4007208C23F7308C33FCD013008F1002F08D9
:101DE400F0003608F3003508F2001830F400003033
:101DF400F500AE31B7268C31003A0319152F32089D
:101E0400F1003108F0003408F3003308F200183010
:101E1400F4000030F500AE31B7268C31003A0319D6
:101E2400152F0130CD002D088600870150314D0853
:101E3400810030083602031D212F2F083502031CB0
:101E4400562F35083604031D2A2FC501C601522F0B
:101E54003508A0003608A100A201A3012F0835020D
:101E6400B7003008363BB8003708B9003808BA0064
:101E7400BB01BC010830B935BA0DBB0DBC0D890BD3
:101E84003D2F3C08A7003B08A6003A08A5003908E6
:101E9400A400A23115228C312108C6002008C500F7
:101EA4004608C40045087D2F2F08A0003008A10073
:101EB400A201A30135082F02B7003608303BB80051
:101EC4003708B9003808BA00BB01BC010830B9357D
:101ED400BA0DBB0DBC0D890B692F3C08A7003B084C
:101EE400A6003A08A5003908A400A23115228C31B5
:101EF4002108C4002008C30032083402031D842FC3
:101F040031083302031CB92F33083404031D8D2F09
:101F1400C901CA01B52F3308A0003408A100A201E9
:101F2400A30131083302B7003208343BB800370844
:101F3400B9003808BA00BB01BC010830B935BA0D84
:101F4400BB0DBC0D890BA02F3C08A7003B08A600C5
:101F54003A08A5003908A400A23115228C312108C1
:101F6400CA002008C9004A08C8004908E02F3108FF
:101F7400A0003208A100A201A30133083102B70076
:101F84003408323BB8003708B9003808BA00BB013E
:101F9400BC010830B935BA0DBB0DBC0D890BCC2F73
:101FA4003C08A7003B08A6003A08A5003908A4008D
:101FB400A23115228C312108C8002008C70043082B
:101FC4004707CE004408483DCF0001304F0200309F
:101FD40003194E020318F52F4E08B700B80137084D
:101FE400CB003808F82FFF30CB000030CC002D0890
:0C1FF4008600870151314B088100080075
:10200200F401F5017008710403192E280130F6005D
:10201200F11B13280130F035F10D890B0C2801302A
:10202200F60709280130F435F50D890B14287108DB
:102032007302031D1E2870087202031C25287008F3
:10204200F2027108F33B74140130F136F00C890B83
:1020520026280130F602031D13287508F1007408C2
:10206200F0000800B200BA013A08AA31F722903112
:1020720000304001B7000030B6000030B50000303B
:10208200B400B3017C0833020318792832084101F5
:102092009E003530890B4B280000410113141318A0
:1020A20050280D084001B90041010C084001B80058
:1020B20003303902E93003193802031C6428023064
:1020C2003A06031D792803303902FF30031938021A
:1020D200031C6E2801304401D00040013808B407C7
:1020E2003908B53D0030B63DB73D0130B30743284E
:1020F20033087C060319C3280130BA073528033098
:10210200B435B50DB60DB70D890B8128CB28043037
:10211200B435B50DB60DB70D890B8928CB2843010F
:102122006D08F0006E08F100F201F301400137087A
:10213200F7003608F6003508F5003408F400AC3133
:102142005324903170084001AD007108AE0072084E
:10215200AF007308B0000A30B036AF0CAE0CAD0C55
:10216200890BAD280330AD35AE0DAF0DB00D890B27
:10217200B4283008B7002F08B6002E08B5002D0885
:10218200B400CB283A08003A03198028013A03190F
:10219200882890287C08AD00AE01AF01B00130085C
:1021A200A3002F08A2002E08A1002D08A0007C0881
:1021B200B1000130B136890BDB2831083407A400A5
:1021C20035080318350F0310A50036080318360F1B
:1021D2000310A60037080318370AA700A2311522F8
:1021E2002108FD002008FC00080001304101CC005C
:1021F2000130CF0040016808860069088700403F2F
:102202004101D500413FD600423FD70040016C0852
:102212000319152941014F08F3005608A9318D21F0
:1022220090314101D6001E2941014F08F3005508A3
:10223200A9318D2190314101D50040016808860005
:1022420069088700010841015506031D3329400131
:102252006808860069088700413141015608010675
:1022620003195B2956084001E30041015708400168
:10227200E4002030E500D030E6000030E700410104
:1022820055088831652090314101CD004D08031970
:102292004C294D080800D0304001A0000030A100B8
:1022A2006B08A3006A08A2009A3145229031003AD5
:1022B200031D6329FE304101CF074F08803A813E5A
:1022C2000318FB2841014F08803A813E03186B290D
:1022D2000030080040016808860069088700410153
:1022E2005508C03F5608C13F5708C23FD03086004C
:1022F2000030870040016A0884006B0885000530C1
:10230200ED0016001A00ED0B822902304101CE00C9
:102312004E08031969294001680886006908870088
:10232200403F4101D500413FD600423FD700400126
:102332006C080319AC2941014E08F0004F08B7316F
:10234200D2279031F30041015608A9318D219031F5
:102352004101D600BB2941014E08F0004F08B731B8
:10236200D2279031F30041015508A9318D219031D6
:102372004101D5004001680886006908870001080C
:1023820041015506031DD0294001680886006908ED
:102392008700413141015608010603191A2A5608DD
:1023A2004001E300410157084001E4002030E5000C
:1023B200D030E6000030E700410155088831652041
:1023C20090314101CD004D08031D4A29D030400112
:1023D200A0000030A1006B08A3006A08A2009A3195
:1023E20045229031003A03191A2A680886006908C2
:1023F200870041015508C03F5608C13F5708C23FF8
:10240200D03086000030870040016A0884006B08E3
:1024120085000530ED0016001A00ED0B0C2A410173
:102422004C080319892920304E02031889294E3598
:1024320088294101CC014E084001ED000130ED3602
:10244200890B202A6D0887294001A401A2010030CE
:1024520043016402C93003196302031808004401EE
:102462003C0803193D08031908004001A501A60113
:1024720043016508400125020318782A0330F00061
:102482002508B731D22792313F3E860003308700BC
:102492000108031D5A2A0330F00040012508B73114
:1024A200D2279231403E860003308700010803198B
:1024B200742A01304001A607260303196D2A250854
:1024C200A03E8600023087000108F9002408F902C4
:1024D200803079020318742A2508A03E8600023053
:1024E20087000108A40001304001A507392AA6018E
:1024F20043016508400126020318BB2A0330F0009D
:102502002608B731D2279231413E86000330870038
:10251200010844013E06031DB72A3C08F3000330BC
:10252200F00040012608B731D22792313F3E8600A3
:10253200033087000108AA3145229231003A03197B
:10254200B72A44013D08F3000330F0004001260899
:10255200B731D2279231403E86000330870001080E
:10256200AA3145229231003A031DBB2A01304001B3
:10257200A607792A4001260843016506031DE82AB9
:102582004001A601E22A0330F0002608B731D22723
:1025920092313F3E8600033087000108031DDF2A87
:1025A2000330F00040012608B731D2279231403E75
:1025B20086000330870001080319E82A0130400130
:1025C200A6074301650840012602031CC42A4001F4
:1025D200260843016506031D0E2B0C306502031805
:1025E200F52A0130E5070E2B4001A501A6012508B9
:1025F200A03E86000230870001082402A3002208C0
:102602002302031C082B2308A2002508A600013080
:10261200A5070C302502031CF82A0330F000400104
:102622002608B731D22792313F3E86000330870019
:1026320044013C08C03F3D08C13F3E08C23F430140
:1026420063089C3EF900FF30643DFA0001307A02D3
:102652000030031979020318372B63089C3E4001AE
:10266200A000FF304301643D40013B2BFF3040019D
:10267200A0000030A1002608333E86000330870008
:10268200200881002608A03E860002308700240828
:10269200013E81000130F9000030FA00260A532B76
:1026A200F935FA0D890B512B79084401C5047A08D2
:1026B200C6040800B9006330C000732C3608031D3D
:1026C2006D2B4008B0000330B100E430B200FB30A3
:1026D200B300A831DA2008004008AB000330AC0098
:1026E2003608B700B8013708AD003808AE00AF01B0
:1026F200A031002093312C08B1002B08B000FF302C
:10270200B200FB30B300A831DA2008004008AB0069
:102712000330AC003608B700B8013708AD003808FE
:10272200AE00AF01A031002093312C08B1002B087C
:10273200B0001630B200FC30B300A831DA20080035
:102742004008AB000330AC003608B700B8013708C8
:10275200AD003808AE00AF01AF0AA03100209331BE
:102762002C08B1002B08B0002830B200FC30B300B6
:10277200A831DA2008004008AB000330AC0036086C
:10278200B700B8013708AD003808AE00AF01A0317C
:10279200002093312C08B1002B08B0002830B20081
:1027A200FC30B300A831DA2008004008AB00033047
:1027B200AC003608F63EAD00FF3003180030AE0024
:1027C200AF01AF0AA031002008003608031DED2B2F
:1027D2004C30BA00FB30F02B2530BA00FC30BB0085
:1027E2004008B0000330B1003B08B3003A08B20021
:1027F200A831DA2008004008AB000330AC003608EC
:10280200B700B8013708AD003808AE00AF01AF0A13
:10281200A031002008004008AB000330AC003608AD
:10282200643EAD00003003180130AE000230AF004C
:10283200A031002008004008AB000330AC0036088D
:10284200B700B8013708F0003808F1000A30F2008A
:102852000030F300A9313C21933171084001AE00F0
:102862007008AD00AF01A031002093312C08B100F7
:102872002B08B0001630B200FC30B300A831DA20C9
:1028820008003608031D0C2C4008B0000330B100CC
:10289200FA30B200FB30B300A831DA200800360368
:1028A2000319642C0330360603195B2CC330BE00B7
:1028B200FB305E2C5A30BE00FB30BF003F08BD002B
:1028C2003E08BC00682CD830BC00FB30BD0040087C
:1028D200B0000330B1003D08B3003C08B200A8319B
:1028E200DA2008003908BF3E8400FA300318013E9E
:1028F20085000008003A03195F2B013A0319872B60
:10290200033A0319A12B013A0319BC2B073A031905
:10291200D62B013A0319E62B033A0319FC2B013A91
:1029220003190C2C0F3A03191C2C013A0319422CDF
:10293200502C08005E084001E90041015D08400199
:10294200E800410160084001EB0041015F084001DD
:10295200EA009D31B82594314201AA002A080319E0
:10296200B42C2A080800A9012908031DBF2C410123
:102972005D0886005E0887004131C42C41015D0874
:1029820086005E0887000108E100E2016108420159
:10299200A000410162084201A1002008A6004401F2
:1029A2004B08031DE72C420126084101E1000230D9
:1029B200E136890BD92C6108E200E3016208420189
:1029C200A200410163084201A300EC2C0130420144
:1029D200A2000030A3002208A6000230260203183B
:1029E200F72C0130A4000030A500022D2608410179
:1029F200E100E20161084201A400410162084201D2
:102A0200A5002408A7000130A80041015D08860046
:102A12005E088700403F4201B000413FB100423FA3
:102A2200B20029080319242D2708F0002808B7311D
:102A3200D2279431F30042013008A9318D2194311B
:102A42004201B000322D2708F0002808B731D22702
:102A52009431F30042013108A9318D2194314201B0
:102A6200B10041015D0886005E088700010842014D
:102A72003006031D472D41015D0886005E08870070
:102A820041314201310801060319A22D31084001EA
:102A9200E300420132084001E4002030E5002B301F
:102AA200E6000130E70042013008883165209431A8
:102AB2004201AA002A08031DB22C30304001E8006E
:102AC2000130E9002B30EA000130EB004201290815
:102AD2004001EC009031F62094314201AA002A080C
:102AE200031DB22C2B304001A0000130A100410196
:102AF20060084001A30041015F084001A2009A3131
:102B020045229431003A0319A22D41015D08860045
:102B12005E08870042013008C03F3108C13F3208D9
:102B2200C23F2B3086000130870041015F088400DC
:102B3200600885000530E10016001A00E10B9D2DAA
:102B42009B2CFE304201A8072808803A813E0318D8
:102B5200062D02302702031CB82D27084101E1008F
:102B62000130E136890BB22D61084201032D01309B
:102B7200A90702302902031CB52C41015D08860019
:102B82005E088700403F4201B000413FB100423F32
:102B9200B2000130B20631084001E30042013208BE
:102BA2004001E4002030E5002B30E6000130E70070
:102BB200420130088831652094314201AA002A0876
:102BC200031DB22C41015F08860060088700403F68
:102BD200E100413FE200423FE300433FE4000130B5
:102BE200E135E20DE30DE40D890BF12D640842019C
:102BF2002E02031D0C2E4101630842012D02031D0A
:102C02000C2E4101620842012C02031D0C2E4101CF
:102C1200610842012B020318322E30304001E800D5
:102C22000130E9002B30EA000130EB009D31B8257C
:102C320094314201AA002A08031DB22C2B30400114
:102C4200A0000130A100410160084001A300410140
:102C52005F084001A2009A3145229431003A031DD7
:102C6200862D00300800A8314920963173084101B1
:102C7200A5007208A4007108A3007008A200AB307E
:102C82004001D8000030D9000430DA00A0319D2084
:102C9200963141013D0803195E2E43016C08031D64
:102CA2005E2E63304001C100FB30C200D030C30051
:102CB2000730C400AD311A259631AB3086000030A2
:102CC20087004431403F4001AD00413FAE00423FEA
:102CD200AF00433FB000A931572196312E08410180
:102CE200A10040012D084101A00020082104031980
:102CF2007D2EA831AE2096314601270841013202CD
:102D0200031D932E4601260841013102031D932E15
:102D12004601250841013002031D932E4601240875
:102D220041012F020318D72E450135084001E30067
:102D3200E401E501E6016608F3006508F2006408B3
:102D4200F1006308F0000030F7000030F6000030B8
:102D5200F5000A30F400AC315324963145014C0899
:102D6200410122024001E70045014D084101233B98
:102D72004001E80045014E084101243B4001E900C1
:102D820045014F084101253B4001EA0073086A02F0
:102D9200031DD52E72086902031DD52E7108680223
:102DA200031DD52E70086702031CF62EAB30860079
:102DB200003087002030840003308500133040014A
:102DC200E30016001A00E30BE22E4101250845013B
:102DD200CF00410124084501CE00410123084501ED
:102DE200CD00410122084501CC00AB308600003005
:102DF20087004C31403F4001AD00413FAE00423FB1
:102E0200AF00433FB000A731052796312E0841019C
:102E1200AA0040012D084101A90045012F084001E7
:102E2200E300E401E501E6016608F3006508F2004B
:102E32006408F1006308F0000030F7000130F6008A
:102E42008630F500A030F400AC315324963173087B
:102E520041013202031D372F72083102031D372F41
:102E620071083002031D372F70082F02031C3B2FFD
:102E720001303C2F0030A80028080319472F2A08E8
:102E82004401C800410129084401C7004501310835
:102E9200F63EF000FF3003180030F1000A30F20075
:102EA2000030F300A9313C21963171084101A7009D
:102EB2007008A600450132080319FD2F440162087B
:102EC200031DFD2F410128080319FD2F450130087C
:102ED2004001E300E401E501E6016608F30065084C
:102EE200F2006408F1006308F0000030F7000F30D0
:102EF200F6004230F5004030F400AC3153249631F4
:102F020070084001E7007108E8007208E9007308E0
:102F1200EA00AB30F0000030F100A33161239631BA
:102F2200730840016A02031DA02F72086902031D83
:102F3200A02F71086802031DA02F70086702031CEE
:102F4200FD2F41013B080319FD2F00302A02793081
:102F520003192902031CFD2F45015308FB005208E7
:102F6200FA005108F9005008F800A831F220963111
:102F72007B08031DC52F7A08031DC52FB8307802C0
:102F82000B30793B031CFD2F410126084401490700
:102F92004001E3004101270844014A3D4001E400A9
:102FA20041012A0840016402031DDB2F4101290867
:102FB20040016302031CF32F410126082907400147
:102FC200E300410127082A3D4001E40044014A0888
:102FD20040016402031DF12F4401490840016302CC
:102FE2000318FD2F01304401DA0704305A02031C92
:102FF20008000130D90008004401DA010800E501A7
:103002004401C501C6014001A7010530F0002708AF
:10301200B731D2279831303E4001A000A6012608E0
:10302200213E8600870120082607B731A027983164
:10303200810001304001A60705302602031C10283A
:103042000330F0002708B731D2279831413E86007D
:103052000330870081010330F00040012708B731B7
:10306200D2279831403E8600033087008101033029
:10307200F00040012708B731D22798313F3E860041
:103082000330870081012130F0000430F100AC31BF
:103092002524983140012506031D7A282108031DA5
:1030A200562822087F3903197A280330F0002708AE
:1030B200B731D22798313F3EF3000330F40040018C
:1030C2002108F5002208F600A931A9219831270824
:1030D200333E860003308700230881002708A03E84
:1030E200860002308700240881002708013E430140
:1030F200E50001304001A7070C3027020318080041
:1031020006280B302E02B83003192D0203188D2821
:10311200B830AD000B30AE0010302E02693003190A
:103122002D02031C98286830AD001030AE0000302C
:10313200A3000030A2000430A100B030A0002D088E
:10314200483EF000F4302E3DF100F201F301003070
:10315200F7000030F6000030F5001A30F400AC3110
:103162005324983173084001A7007208A600710821
:10317200A5007008A400A231152298312008B000E1
:103182007330B200B301B101B4013308AF000330B0
:10319200AF35890BC9282F083407F0003008F10039
:1031A2003208A1317C219831003A0319E22801301A
:1031B2004001AF00340ADE28AF35890BDD282F0825
:1031C200B10401304001B40708303402031CC628A0
:1031D2003308AF000330AF35890BEC282F08F3001A
:1031E2003108F4000830F50032088731132798318E
:1031F20001304001B30704303302031CC4280130FC
:10320200B2077E30320203180800C3280030A30040
:103212000030A2000030A1000030A0004030A70022
:103222000030A6000030A5000030A4002708730279
:10323200031D252926087202031D2529250871026E
:10324200031D252924087002031895290230A73688
:10325200A60CA50CA40C890B2829172920082407E1
:10326200F4002108253DF5002208263DF60023083A
:10327200273DF70077087302031D49297608720279
:10328200031D492975087102031D4929740870023A
:10329200031C872920082407F4002108253DF50096
:1032A2002208263DF6002308273DF7007408F002A5
:1032B2007508F13B7608F23B7708F33B2408F400EB
:1032C2002508F5002608F6002708F7002008F80070
:1032D2002108F9002208FA002308FB000130FB361E
:1032E200FA0CF90CF80C890B70297808F4077908A4
:1032F200F53D7A08F63D7B08F73D7708A30076088E
:10330200A2007508A1007408A0008E290130A3361E
:10331200A20CA10CA00C890B88290230A736A60C9E
:10332200A50CA40C890B8F29270826042504240444
:10333200031D2F292108F1002008F000080075085C
:10334200860001308700023001020318B029750897
:103352008600013087000108810AFA000F2A7408EA
:10336200860001308700403F4001A000413FA1009C
:10337200423FA200433FA3007408053E860001308D
:103382008700403FA400413FA500423FA600433FC3
:10339200A70023082702031DD82922082602031D9D
:1033A200D82921082502031DD82920082402031C3C
:1033B200DC290130DD290030FA000530F0007A08FE
:1033C200B731D227993174074001A0002008860046
:1033D20001308700403FA100413FA200423FA300CD
:1033E200433FA4007808860079088700403FA50083
:1033F200413FA600423FA700433FA80024082802FD
:10340200031D0D2A23082702031D0D2A2208260266
:10341200031D0D2A210825020318080076088600DC
:1034220077088700403F4001A000413FA100423F92
:10343200A2000330F0007A08B731D227993173071E
:103442004001A30023088600013087002008C03F06
:103452002108C13F2208C23F780886007908870008
:103462000530F0007A08B731D2279931740740014C
:10347200A00020088400013085000530A10016005C
:103482001A00A10B402A0800FF30A400FF30A5005B
:10349200FF30A6001F30A7002208860023088700FD
:1034A2004431200884002108850004310008010706
:1034B200A800A901A90D290DA90CA80C290DA90C78
:1034C200A80C2808AA002908AB000030AB1BFF306B
:1034D200AC00AD002A08A4052B08A5052C08A605FA
:1034E2002D08A70501302407B4000030253DB500A2
:1034F2000030263DB6000030273DB7002208860086
:1035020023088700403FA400413FA500423FA60098
:10351200433FA7004030A8000030A9000030AA00B5
:103522000030AB002008860021088700403FAC0035
:10353200413FAD00423FAE00433FAF00220886004C
:1035420023088700403FB000413FB100423FB20034
:10355200433FB3000830B336B20CB10CB00C890B48
:10356200AC2A3308F3003208F2003108F1003008C7
:10357200F0003708F7003608F6003508F500340881
:10358200F400AC3153249A3170084001AC07710841
:10359200AD3D7208AE3D7308AF3D2C08A8072D085B
:1035A200A93D2E08AA3D2F08AB3D27082B02031D7B
:1035B200E42A26082A02031DE42A25082902031DFB
:1035C200E42A240828020318E82A013008000030FF
:1035D2000800430168080319F32A6808F400E801A7
:1035E200740808008B1340016F08F1004401580869
:1035F200F300D80143016A08F00044015708F200C1
:10360200D7018B17F40173080319272B43016908AB
:10361200031D112BFA307302031C112B0330222BD2
:103622006908031D1A2B19307302031C1A2B02306E
:10363200222B6908031D232B03307302031C232B47
:103642000130F4004401D6014301E901193071024D
:10365200031C392B43016908031D392B0130E90092
:1036620074080319372B0230E800392B0230F400BA
:10367200FA307102031C4C2B44015608031D4C2BDB
:103682000130D600740803194A2B03304301E800C5
:103692004C2B0330F40072080319652B02307202BE
:1036A200031C632B0A3072020318632B4301680860
:1036B200031D632B74080319612B0430E800632B8C
:1036C2000430F4004401D50114307002031C7F2B36
:1036D20044015508031D7F2B40010F1D7F2B013034
:1036E2004401D5007408031D792B0530F4007F2BAB
:1036F20043016808031D7F2B0530E8007108031D94
:10370200892B7308031D892B4401D6014301E9016A
:103712007008031DF12A7208031DF12A4401D50124
:10372200F12ADA01A83149209B3173084001D800FF
:103732007208D7007108D6007008D500AB314A2351
:103742009B3122304001AF00DE30B000FB30B100CF
:103752000030A63119269B31A83171209B314001DE
:103762008D1AB52B6400B02BA83101209B3140018A
:103772005A08A73180279B3164009A31EA229B3193
:103782004001D9005908031DE32BA83149209B3180
:10379200400155087002D1005608713BD20057080B
:1037A200723BD3005808733BD4005408031D382CD5
:1037B2005308031D382C60305102EA30523B031883
:1037C200382CBD2BA83149209B3173084001D80009
:1037D2007208D7007108D6007008D5000230590669
:1037E200031D102C0F30F0000030F1005A08013E8A
:1037F200F200003003180130F300AF3179279B311A
:103802007008DA005A08A73180279B3140018D1ACF
:103812000C2C6400072CA83101209B31BD2B5903CD
:10382200031DBD2B0C305A020318292C5A08AC3E3A
:103832008600023087005A08AC3E840002308500C0
:103842000008F0005A08AD31C2259B318100B92B26
:103852000C305A06031D302CAE3178269B310D30C8
:1038620040015A06031D382CB73197279B31A531E9
:10387200382508004301670803190800440153086A
:103882000319D62C51080319BF2CD0304001B000C7
:103892000730B1000030B2000030B30044015108DB
:1038A200FF3E890A4001592CB035B10DB20DB30D5E
:1038B200890B552CA83149209C31450148087002DA
:1038C2004001B40045014908713B4001B500450182
:1038D2004A08723B4001B60045014B08733B400168
:1038E200B70033083702031D802C32083602031D4D
:1038F200802C31083502031D802C30083402031855
:10390200BF2CA83149209C31450144087002400176
:10391200B00045014508713B4001B1004501460830
:10392200723B4001B20045014708733B4001B300BE
:103932003308031DA52C3208031DA52CE8303002E4
:103942000330313B031C0800A83149209C31730825
:103952004501C7007208C6007108C5007008C4009E
:10396200A83111209C31003A031DBB2C01304401C7
:10397200D200080044015208031908004401D20190
:10398200063051020318C72C0130D1070030AE3186
:103992003A269C312C30F0000130F100A83123206E
:1039A2009C310130AE313A2608004001B801430192
:1039B2006608013E0339E6006608283E86000230AA
:1039C200870066082C3E8400023085000008010250
:1039D200031CEF2C6608A4311924080001304001B1
:1039E200B8070430380203180800D82CF800450143
:1039F2002E08F7000E3043016E02D93003196D0212
:103A02000318052D0130F70778180A2D4001991780
:103A12000C2D40019913F818112D40011917132D7F
:103A2200400119137819182D400199161A2D4001D9
:103A32009912F8191F2D40011916212D4001191252
:103A4200781A262D40019817282D40019813F81A4C
:103A52002D2D400118172F2D40011813781B342DDE
:103A620040019816362D4001981273183B2D4001E3
:103A720096163D2D40019612F318422D40019A14DC
:103A8200442D40019A107319492D400196174B2D70
:103A920040019613F319502D40011617522D400183
:103AA2001613731A572D40011814592D400118107E
:103AB200F31A5E2D40019814602D40019810731B7B
:103AC200652D40011815672D40011811740803195E
:103AD2006D2D40011A146F2D40011A1099157708A7
:103AE200F500F6017508F0007608F100A8312320F0
:103AF2009C31400199111A30890B7D2D0032400111
:103B020018127708F500F6017508F0007608F10042
:103B1200A83123209C31400118167708F500F601E0
:103B22007508F0007608F100A83123209C310F308F
:103B3200400199051830980596129A10961316139B
:103B42001A100530F0000030F100A83123209C311A
:103B520078087F394401E70073087F39E800740868
:103B62000319B52D0130B62D0030E90008004401DB
:103B72004B08031DD22D40016808860069088700A2
:103B82000108EC000230EC36890BC42D6C08ED0004
:103B9200EE016D084101CC0040016E084101CD00EB
:103BA200D72D01304101CC000030CD004C08D300AC
:103BB20044014B08031DF42D400168088600690882
:103BC200870041310108EC000230EC36890BE62D0A
:103BD2006C08ED00EE016D084101CE0040016E0857
:103BE2004101CF00F92D01304101CE000030CF005C
:103BF2004E08D4005308031D002E0130D300540890
:103C0200031D052E0130D400D001D2014001680805
:103C1200860069088700403F4101DA00413FDB002E
:103C2200423FDC005308F00052088F3E8400FB3014
:103C32000318013E85000008B731D2279D31F300F9
:103C4200400168088600690887000108A9318D21B2
:103C52009D314101DA005408F0005208873E840089
:103C6200FB300318013E85000008B731D2279D3191
:103C7200F3004001680886006908870041310108A5
:103C8200A9318D219D314101DB0040016808860088
:103C920069088700010841015A06031D5B2E400195
:103CA2006808860069088700413141015B08010606
:103CB2000319A12E5B084001E30041015C084001A9
:103CC200E4002030E500D530E6000030E700410195
:103CD2005A08883165209D314101D10051080319EC
:103CE200742E51080800D5304001A0000030A10018
:103CF2006B08A3006A08A2009A3145229D31003A5E
:103D02000319A12E680886006908870041015A0834
:103D1200C03F5B08C13F5C08C23FD530860000301F
:103D2200870040016A0884006B0885000530EC00BA
:103D320016001A00EC0B992E01304101D000072E1B
:103D420001304101D20708305202031C072E5008ED
:103D5200031D052E5303031DB32E5403031DB32E5F
:103D6200003008000230F0000030F1005308013E3C
:103D7200F200003003180130F300A131C8219D3157
:103D82007008D3000230F0000030F1005408013E08
:103D9200F200003003180130F300A131C8219D3137
:103DA2007008042E440167084301D20044016808E8
:103DB2004301D300440169084301D400A831AE2075
:103DC2009E314001971119114301EC014001AF01ED
:103DD2003C30B000FB30B1000130A63119269E31D3
:103DE200AF013730B000FB30B1000130A6311926E7
:103DF2009E31A83171209E3144016208031D042FB7
:103E02006308031D082F4301CA01CB01102F630869
:103E1200643E4301CA00003003180130CB00673012
:103E22004101E5000230E60043014B084101E80090
:103E320043014A084101E700803197209E31430146
:103E4200D500550803193B2F0330550603193B2FA4
:103E52004401670843015206031D3B2F44016808D1
:103E620043015306031D3B2F4401690843015406D5
:103E72000319A22F550803194B2F033055060319B6
:103E82004B2F44016708031D4B2F6808031969086B
:103E920003194D2F4401E2016208031D922F4301D1
:103EA2005508031D5B2F44016708031D5F2F680837
:103EB200031D5F2F4301CC01CD018F2F4301630806
:103EC2009C3EC800FF30643DC90001304902003009
:103ED200031948020318842F003064026630031964
:103EE20063020318792F0130D0000030D1007F2FF8
:103EF20063089C3ED000FF30643DD1005108CF00E2
:103F02005008CE00882FFF30CE000030CF004E0880
:103F1200C800C9014808CC004908CD004C0844013A
:103F2200E300430164084401CA00430163084401F9
:103F3200C900430164084401C80043016308440105
:103F4200C700B731B8279E31AB3174239E31FF30A1
:103F52004401EA00FF30EB0048084001C20044017E
:103F620047084001C100AB31CB239E3143015503C9
:103F7200031DC02F75304001C100FB30C82F033034
:103F82005506031DCD2F6C304001C100FB30C2002D
:103F9200D030C3000730D92F02305506031DDD2F64
:103FA20009304001C100FC30C200E830C3000330D8
:103FB200C400AD311A259E31B7317E279E314001B2
:103FC200191597154401DA01A831492073084501F2
:103FD200D3007208D2007108D1007008D0005308D3
:103FE2004401B300450152084401B20045015108A1
:103FF2004401B100450150084401B00008002C08FA
:10400200F8002B08F7002E08FA002D08F9002F08F7
:10401200FB00FC01A6318F267808AC007708AB00C4
:1040220008000030AE313A26A0314001171697152C
:1040320050010C108B134E0196127E01C9164E01CF
:1040420016166430F0000030F100A8312320A031B0
:104052007E01CA12630000004001B20141288D1A9C
:10406200452805304001B1000F30B000F130890B16
:104072003828B00B3828B10B382801304001B2077C
:1040820010303202031C302810303206031D222861
:104092004E0116127E01C912CA124E018C129616D8
:1040A2008B1750010C14A3310B230800F70073087F
:1040B200F4000430F436890B5B280A3074020318CA
:1040C20069280F307305F4000A307402031C722849
:1040D2007708CB3E8400FA300318013E85000008C1
:1040E20008000F307305F4000A30F0007308F50081
:1040F2000430F536890B7A287508B731D227A031FA
:104102007407F6007708E33E8400FA300318013E94
:10411200850000087602031C69287708D73E8400D0
:10412200FA300318013E85000008F4007608740294
:10413200031C69287608080064004401D00140018C
:104142005A08FC00083090313320A0317D08DC0091
:104152007C08DB005A08FC000A3090313320A03181
:104162007D08DE007C08DD005A08FC000A30903130
:104172003320A0317D08E0007C08DF005A08FC00F3
:10418200083090313320A0317D08E2007C08E10044
:104192005908AE005808AD005C08B0005B08AF00DB
:1041A2005E08B2005D08B1006008B4005F08B300A9
:1041B2006208B6006108B5008C31DB24580886001D
:1041C200870152314401500881000800B3002D08D4
:1041D20084002E0885001200031908002D088400AF
:1041E2002E0885000008AA310522A0317708400177
:1041F200B2007608B100B60105303602031C04296C
:10420200B401B501122936083107840032080318B7
:10421200013E85000008AF00B0012F08B40030084D
:10422200B5003308AF000330AF35890B15292F08CD
:10423200F3003408F4000830F5002C083607873103
:104242001327A03101304001B60706303602031CA5
:10425200FD280130AD070030AE3D0630AC07E8283E
:1042620001304001A700AA312522A1314001A60157
:1042720052296030F300F930F4001C30F500AA3105
:104282008822A1314001A700270803194F29643071
:10429200F0000030F100A8312320A13101304001AB
:1042A200A6070A302602031859292708031D3A29AE
:1042B200270803195E29270808000430A500A60173
:1042C2002608FE3EF7000F30F800FA30F9001030F1
:1042D200FA002508AE31F726A131A7041030A6074F
:1042E20080302602031C61290130A507083025020F
:1042F20003185C296029F6000230700203188E2927
:10430200F50176307602031C8C297B307602031885
:104312008C290130F5007508080002307006031977
:104322009E291F30700603199E2975307602031CE0
:104332009E297C307602031CA029013008007530CA
:1043420076060319B0297B3076060319B0290330AB
:1043520070060319B0291E307006031DB229003001
:1043620008000030F30071081D3CF200031CF30347
:104372007308803AF40080307402031DC229700869
:1043820072020318C6290130080000300800F50146
:10439200F11FD229F009F109F00A0319F10A0130DB
:1043A200F500F31FDB29F209F309F20A0319F30AF4
:1043B2000130F506F601F701700871040319082AA5
:1043C2000130F400F11BED290130F035F10D890BBC
:1043D200E6290130F407E3290130F635F70D890BA0
:1043E200EE2971087302031DF82970087202031C7A
:1043F200FF297008F2027108F33B76140130F1369E
:10440200F00C890B002A0130F402031DED29750816
:104412000319102AF609F709F60A0319F70A7708A9
:10442200F1007608F00008000030AB000030AA006E
:104432000030A9000030A80023082204210420042F
:1044420003195C2A0130AC00A31B312A0130A035CC
:10445200A10DA20DA30D890B282A0130AC07252A34
:104462000130A835A90DAA0DAB0D890B322A2308FC
:104472002702031D462A22082602031D462A210876
:104482002502031D462A20082402031C512A200863
:10449200A4022108A53B2208A63B2308A73B281417
:1044A2000130A336A20CA10CA00C890B522A0130B8
:1044B200AC02031D312A2B08A3002A08A2002908F6
:1044C200A1002808A00008004F08013E0F39CF00C4
:1044D2000130CE074E084001A00044015C084001B3
:1044E200A1005C30F3000230F400A831C320A231F5
:1044F2004001A200440162084001A30044015F0898
:104502004001A4005F30F3000230F400A831C32060
:10451200A2314001A500440163084001A6002030F9
:10452200F0000730F100AC312524A2314001A70090
:1045320044014F08FB000330FB35890B9D2A7B08A1
:10454200703E4001A800A9012908203E860087018B
:104552000108F80028082907AA31AA22A23101304D
:104562004001A9070830290203180800A52A4401BE
:104572006D0840014206031DC22A44016C08400135
:1045820041060319080042084401ED0040014108B8
:104592004401EC0000304001420264300319410240
:1045A2000318E72A3C30AF004208AC004108AB00D8
:1045B200AD01AD0A0330AE00B731F027A231B00031
:1045C2000230B1000030A631192608000A30F0008E
:1045D2000030F1004108053EF2000030423DF30098
:1045E20090310120A2317108C4007008C3003C3030
:1045F200AF004408AC004308AB00AD010330AE008D
:10460200B731F027A231B0000230B1000030A6313C
:10461200192608004001A601A7010030AA31F7229D
:10462200A3314001A801093041019E003530890BB8
:10463200182B00004101131413181D2B0D08400103
:10464200A50041010C084001A4002408A607250882
:10465200A73D0130A80708302802031C142B0430A0
:10466200A0000030A1000030A2000030A300260804
:10467200F0002708F100F201F3010030F7000030EA
:10468200F6000030F5000B30F400AC315324A331B6
:1046920070084001A0077108A13D7208A23D73088D
:1046A200A33D0330A336A20CA10CA00C890B532B03
:1046B20021084301EE00400120084301ED000800FB
:1046C2007008860087014431403FF400413FF50005
:1046D200423FF600433FF7007008860087014831E9
:1046E200403FF800413FF900423FFA00433FFB00E0
:1046F20077087B02031D872B76087A02031D872B1E
:1047020075087902031D872B74087802031C922B0B
:104712000030F3000030F2000030F1000030F00011
:1047220008007008860087014831403FF400413F8D
:10473200F500423FF600433FF7007008860087010C
:104742004431403FF800413FF900423FFA00433F05
:10475200FB007408F8027508F93B7608FA3B770803
:10476200FB3B7B08F3007A08F2007908F100780835
:10477200F00008000030FB000030FA000030F900C1
:104782000030F80073087204710470040319D92B05
:1047920073087702031DD72B72087602031DD72BED
:1047A20071087502031DD72B70087402031CE22BDB
:1047B2000130F3000030F2000030F1000030F00070
:1047C2000800FC010130F435F50DF60DF70D890BEB
:1047D200E42B0130F835F90DFA0DFB0D890BEB2BAB
:1047E20073087702031DFF2B72087602031DFF2B4D
:1047F20071087502031DFF2B70087402031C0A2C3A
:104802007008F4027108F53B7208F63B7308F73B37
:1048120078140130FC0718307C02031CE32B7B0860
:10482200F3007A08F2007908F1007808F000080035
:104832004001AF002F082C3E86000230870001089D
:10484200AE002F08283E8600023087000108AD0026
:104852002F082C3E860002308700FF3081002F088F
:10486200283E86000230870081012E082D02031C9B
:1048720008002E08F7002F08A500A6010730A5356D
:10488200A60D890B402CF030A7002C30A80025087B
:104892002707A9002608283DAA002E082907AB00F1
:1048A20000302A3DAC002B08F8002C08F9002E0835
:1048B2002D02013EFA002F08AE31F726A431003A4C
:1048C2000319732CA8319920A43101304401D40773
:1048D20005305402031C702C0130D3000800AA31A9
:1048E200252208004401D301D101D4010800410866
:1048F200860042088700403F4401BC00413FBD00A2
:10490200423FBE000130400143020030443B0030D0
:10491200453B0130463B03189E2C400146084501A9
:10492200C300400145084501C20040014408450159
:10493200C100400143084501A62C01304501C300D6
:104942000030C2000030C1000030C0004308400106
:10495200B000450142084001AF0045014108400155
:10496200AE00450140084001AD00A7310527A43142
:104972002E084301E40040012D084301E3004001F9
:10498200410886004208870041310108F3004108CE
:1049920086004208870042310108F400410886007F
:1049A2004208870001089C31F7240800A901A801E8
:1049B200AA01AB012030F8002B08AB31F823A43157
:1049C200003A0319F62C400129080319F02C20089B
:1049D200FD002808FD0280307D020318F62C200815
:1049E200A8002B08AA000130A90001304001AB0742
:1049F20010302B02031CDB2C2908031D062D0F305F
:104A02004401CF00CE01003008002030F8002A080F
:104A1200AB31F823A43140012A084401CF00400100
:104A220020084401CE005C30F3000230F400400163
:104A32002108F5002208F600A931A921A431230892
:104A42000319252D0130262D00304401E2005F308C
:104A5200F3000230F40040012408F5002508F600B6
:104A6200A931A92126084401E30001300800AF3131
:104A72003827A5317708B3007608B200A931722130
:104A8200A5314001B4013408233E86008701340871
:104A9200203EB731A027A531810001304001B40783
:104AA2000F303402031C442D5E302306031D080020
:104AB20033082406031D080025083206031D0800DA
:104AC2002F30B731A027A531FD002330F0000F3081
:104AD200F100AC312524A5317D06031D08004001FB
:104AE200B4013408033E233E860087013408E33EC6
:104AF2008400FA300318013E850000080102031CFD
:104B0200A02D3408033E233E860087013408D73E99
:104B12008400FA300318013E85000008FD000108F8
:104B22007D02031CA02D3408AC3E860002308700B3
:104B32003408033E233E84008501000881000130D1
:104B4200B4070C30340203180800722DAB01013097
:104B5200A0000030A1002B0AB02DA035A10D890BB9
:104B6200AE2D4401450840012005A200440146083B
:104B720040012105A3002208230403190F2E03304C
:104B8200F0002B08B731D227A5313F3E8600033013
:104B9200870001084001A4000330F0002B08B73160
:104BA200D227A5313F3EF3000330F400A831C320E1
:104BB200A5314001A5002B08333E86000330870053
:104BC2000108A6002B08A03E8600023087000108DB
:104BD200A7002430F0000430F100AC312524A531C7
:104BE2004001A8000530F0002B08B731D227A531CB
:104BF200303E4001A900AA012A08243E860087010E
:104C02000108F80029082A07AA31AA22A531013091
:104C12004001AA0705302A02031CFD2D0130AB0713
:104C22000C302B02031CA82D4401C501C60108004B
:104C3200B7003708031D202EB801B901242E123007
:104C4200B8000030B9003808BE00300884003108CE
:104C5200850012000319080030088400310885001D
:104C62000008AA310522A63177084001B60076086D
:104C7200B500C0010A304002031C422EBA01BB013A
:104C8200562E4008B2000130B236890B452E32084A
:104C92003507840036080318013E85000008B3007A
:104CA200B4013308BA003408BB003A08BF003F0819
:104CB2000F39A931E521A631BC003F08B20004300A
:104CC200B236890B612E3208A931E521A631BD0029
:104CD2003E08F3003C08F4000830F5002F084007B6
:104CE20087311327A63140013E08083EF3003D08F4
:104CF200F4000830F5002F08400787311327A6314A
:104D020001304001C0070C304002031C3B2E013031
:104D1200B0070030B13D0C30AF07262EAA0140018A
:104D22002A08233E860087010A30F0000030F10095
:104D32007A08F3007908F200AB312023A63170081B
:104D4200303E81000130AA070A30F0000030F10045
:104D52007A08F3007908F20090310120A631710837
:104D6200FA007008F9002A087B06031DC02E2A08E3
:104D7200233E860087012E3081000130AA07790880
:104D82007A04031D902E7B080319E62E7B08013E50
:104D9200A000003003180130A1002108803AA200CF
:104DA20080302202031DD72E2A082002031CE62E81
:104DB200902E770886007808870020308100013025
:104DC200F7070030F83D0130FC027C0840012A025E
:104DD2000318FC2EDA2E7708860078088700013047
:104DE200AA022A08233E84008501000881000130BE
:104DF200F7070030F83D2A08031DEC2E77088600DD
:104E020078088700810108003008F3002F08F200BB
:104E12002E08F1002D08F00099310721A731710801
:104E2200C0007008BF0010304002003003193F027A
:104E3200031C212FE7304001AD000330AE00080013
:104E42000030B1001030B2003F083102A00040082B
:104E5200323BA100A201A3010030B3001030B40024
:104E62003F083302B5004008343BB600B636B50CF5
:104E72003508B7003608B800B901BA013F08003E4C
:104E8200F0001030403DF100F201F3010030F70074
:104E92000030F6000030F5006430F400AC315324E9
:104EA200A73170084001B7077108B83D7208B93DD3
:104EB2007308BA3D3A08A7003908A6003808A500C9
:104EC2003708A400A2311522A7312308BE00220808
:104ED200BD002108BC002008BB003E08031D1B2F9B
:104EE2003D08031D1B2FE8303B0203303C3B0318F7
:104EF2001B2F40013C08AE003B08AD000800D0006B
:104F0200AB314A23A7310C30400150020318D22F93
:104F12004430AB000030AC005008013EAD00003020
:104F220003180130AE00AF01A0310020A7312C08D8
:104F3200B1002B08B0001230B200FC30B300A8312F
:104F4200DA20A731AC014430AD000030AE000030B1
:104F5200A031E720A731AC015008C100C201C13520
:104F6200C20D9430410784007930423D803885007B
:104F7200003FAD00013FAE000130A031E720A73174
:104F82005008AC3E8600023087000108B600500887
:104F920093315B23A731AF016330B0000330B1001E
:104FA200F92FAC01A630AD00FA30AE000030A031CE
:104FB200E720A7310C3050060319F02F0D305006B0
:104FC2000319E72F0430CE00FC30EA2F1330CE0055
:104FD200FB30CF004F08CD004E08CC00F42FF53047
:104FE200CC00FB30CD00AF014D08B1004C08B00041
:0E4FF2000130A6311926A731A8317120080020
:105002008B134401D801D7018B174301E80101300A
:105012004401D6004301E90001304401D5000800F3
:10502200A8315D20A8317830AC31B224A831F30028
:10503200A8313620A8317308031D21280130080049
:10504200003008000130F0020030F13B700A031911
:10505200710A0319080064000B30F2006230890BF8
:105062003028F20B302800322328400116111A3062
:10507200890B39280032400196151A30890B3F28D6
:105082000032400116151A30890B452800320800FB
:105092008B1344012708F7002608F6002508F500BF
:1050A2002408F4008B177708F3007608F2007508DD
:1050B200F1007408F00008004001161596151A3028
:1050C200890B61280032400116111A30890B6728BA
:1050D2000032400196111A30890B6D280032080007
:1050E200430167080319080044015308031D08001F
:1050F200FC017C08A4311924A8310130FC070430DA
:105102007C02031808007A284301EC014001AF0138
:105112003C30B000FB30B1000130A6311926A83175
:10512200AB317423FF304401EA00FF30EB0008008A
:10513200F00170082C3E8600023087008101700861
:10514200283E8600023087007F3081000130F00760
:1051520004307002031808009A28A8314920A831A7
:105162007308B3007208B2007108B1007008B00091
:10517200B7318127A831003A031D08000130AE3152
:105182003A26080073088600740887004231010835
:10519200031DCE28F501F601D2288030F50000303B
:1051A200F60073088600740887004131010875040F
:1051B20008003108870030088600B00A0319B10AD6
:1051C2003308B5003208B400B20A0319B30A34082E
:1051D2008400350885000008C03F890803190800CB
:1051E200DA28A8314920780870024001A000790825
:1051F200713BA1007A08723BA2007B08733BA300BB
:105202002308FB002208FA002108F9002008F80010
:1052120008009A31EA22A931F60003307606031D0E
:1052220017297608B7318427013008000130F500CC
:105232007603031921290230760603192129F50183
:10524200750808004A08C2004908C1004C08C40099
:105252004B08C300AD311A25A931A8317120A931FB
:1052620040014C08F1004B08F000A8312320A9317D
:10527200A83185200800F401F501701C4429720848
:10528200F4077308F53D0130F235F30D890B45291A
:105292000130F136F00C890B4A2970087104031DA4
:1052A2003E297508F1007408F00008000030A300E0
:1052B2000130A2008630A100A030A00050302D079E
:1052C200A400C3302E3DA50000302F3DA6000030C3
:1052D200303DA700A23115222108AE002008AD0002
:1052E2000800F8017808AC3E860002308700780892
:1052F200703E8400F7300318013E85000008F30079
:105302007808A0315720A93181000130F8070C300C
:105312007802031808007329F50075087307F60070
:10532200F7010318F70AF31BF703F71F9A29003056
:1053320008007708803AF40080307402031DA32924
:1053420080307602031CA7297F3008007608080007
:10535200730886007408870075087F398100730816
:10536200860074088700413176087F39810073080E
:1053720086007408870042317608F7000730F73656
:10538200890BC0297708810008000130AE313A2626
:10539200A931AC318224A93164306F02031CD429B3
:1053A2009B319223A931AD315125A931A831012078
:1053B200A931A83149207308B3007208B2007108FC
:1053C200B1007008B0000800F100F201F3010130F1
:1053D200F000730AED29F035890BEC29700871058C
:1053E2000319FD290330F0007335890AF929F035D4
:1053F200890BF8297008F2040130F30704307302B4
:10540200031CE82972080800FC007C08E03EFD004D
:1054120060307D020318FD017D08F800F90178086B
:10542200F0007908F1000530F2000030F300A931F4
:105432003C218030FA00F730FB0070087A07F60052
:1054420071087B3DF70008004001161596151A30C9
:10545200890B292A0032F0013E2A40010C19422A06
:1054620096111A30890B332A0032400196151A30F0
:10547200890B392A00320130F00709307002031C0F
:105482002E2AA83136200800F80078087302031883
:105492004F2A73087802F7007808532A78087302B3
:1054A200F7007308F5000130F60003307702031CA1
:1054B200642A7508F4000330F436890B5D2A7708F4
:1054C2007402031CF60176080800F20072082C3EF2
:1054D200860002308700010870020318772A7208DA
:1054E2002C3E860002308700700881007208283E38
:1054F2008600023087007108010203180800720852
:10550200283E860002308700710881000800A83119
:105512005D20AA317830AC31B224AA31F6000030D5
:10552200AC31B224AA310130F502750A0319A62A58
:1055320073088400740885000008AC31B224AA31D3
:105542000130F3070030F43D942AA8313620760862
:105552000800FA007A08B731A027AA3178060319A1
:1055620008001E1770309B007A089A0078089C0089
:105572000B0D0B0D0139F9008B131E1555309F00D1
:10558200AA309F009E14790C031C8B1303188B17EF
:10559200CB2A640050019E18CA2A1E110800FC0082
:1055A2007008F200F3017C08F400F5010730F435CD
:1055B200F50D890BD82A7108F600F7010E30F63581
:1055C200F70D890BE02A74087604F8007508770451
:1055D200F90072087804FA0073087904FB000030BD
:1055E2007A04F00080307B04F1000800F2007208B7
:1055F20044016E06031908007208EE0002307206BA
:10560200031D062B41019A011B2B720803190B2B58
:1056120002300C2B0130F0000030F10052010C0876
:105622007006FC3970068C008C170C1F162B033089
:1056320041019A00A0300032890B1C2B080070082F
:1056420071040319452B0130F400F11B302B01309A
:10565200F035F10D890B292B0130F407262B710847
:105662007302031D362B70087202031C3C2B700858
:10567200F2027108F33B0130F136F00C890B3D2B3D
:105682000130F402031D302B7308F1007208F000A0
:105692000800F701F8017708F100F2010730F1354F
:1056A200F20D890B502BF030F3002C30F40071080E
:1056B2007307F5007208743DF600780875078600D6
:1056C2000030763D870081010130F8078030780292
:1056D200031C4C2B0130F70704307702031C4B2BC1
:1056E200A831992008004001AF014030B000FB30E2
:1056F200B1000130A6311926AB3144016208031D05
:10570200872B6B304001C100FA308B2B1A304001DD
:10571200C100FC30C200AF014208B1004108B00034
:105722000130A6311926AB312A30AF002D30B0003E
:10573200FC30B1000130A631192608004001C30136
:10574200450136080319C82B7C0886007D088700AE
:10575200403F4001AD00413FAE00423FAF00433FFA
:10576200B000A7310527AB3145013608643E400140
:10577200C100003003180130C2002E084202031D8E
:10578200C42B2D084102031CC82B0130C300400169
:105792004308080044016B0840014206031DD52B53
:1057A20044016A08400141060319080043016C08DC
:1057B200031D0800400142084401EB00400141087A
:1057C2004401EA003C304001AF004208AC0041080D
:1057D200AB000230AD000430AE00B731F027AB3180
:1057E200B0000230B1000130A63119260800FA00DB
:1057F2007A08F9000330F935890BFC2B7908703EE1
:10580200FB00FC0178087C07860087017B087C0787
:10581200B731A027AB3181000130FC0708307C0290
:10582200031C032C7808073E840085017808F000E9
:105832000730F100AC312524AB310006031D232CC7
:1058420001300800003008005A30F7000130F10240
:10585200710A0319512C7008860087010108F706A6
:105862000130F007F601F71B3D2C7708F200F30137
:105872007235F400730D472C7708F200F301F2350C
:10588200F30D07307206F40000307306F500740859
:10589200F7000130F607083076020318272C342C63
:1058A200770808000030FB000030FA000030F900F1
:1058B2000030F800701C652C7408F8077508F93D73
:1058C2007608FA3D7708FB3D0130F435F50DF60D0B
:1058D200F70D890B662C0130F336F20CF10CF00C4B
:1058E200890B6D2C7308720471047004031D5B2C08
:1058F2007B08F3007A08F2007908F1007808F000DA
:105902000800AB314A23AC311C304001AF00CA3031
:10591200B000FB30B1000030A6311926AC311F3087
:10592200AC000730AD00FB30AE000230A031E72002
:10593200AC310D30AC00FD30AD00F930AE000330BB
:10594200A031E720AC31A8317120AC314001971170
:10595200B830F0000B30F100A83123204001971538
:105962000800F000F201F01FB92C40011615BB2C03
:10597200400116111A30890BBC2C003240019615D9
:105982001A30890BC22C0032400196110310F00D1F
:105992000130F20708307202031CB42C16151A30BB
:1059A200890BD12C0032400196151A30890BD72C65
:1059B200003240010C0C890C0139F10096111A30A9
:1059C200890BE12C0032710808004001CD01CE01A3
:1059D20050019318F02C4001CD01CE01072D131870
:1059E200F72C7E304001CD00FB30062D131AFE2C21
:1059F2009F304001CD00FB30062D931B022D131F5B
:105A0200072D50304001CD00FB30CE003F30500119
:105A1200930040014D084E04031908004E08CA00C5
:105A22004D08C900D030CB000730CC00A93123216A
:105A32000800AF013C30B000FB30B1000130A631AC
:105A42001926AD31AF014208B1004108B000013062
:105A5200A6311926AD3101304301EC004001430863
:105A6200C5004408C600C701C801A8314920700812
:105A72004001C5077108C63D7208C73D7308C83D9D
:105A820048084501D700400147084501D6004001BA
:105A920046084501D500400145084501D4000800EB
:105AA200AB314A23AD314001AF011E30B000FC30B2
:105AB200B1000030A6311926AD312A30AF002D30A9
:105AC200B000FC30B1000030A6311926AD31603093
:105AD200AF002930B000FC30B1000030A6311926E9
