:1000000080314128A0340F347E14803100308600C6
:10001000003087004E018C1E3F288C1201304401B5
:10002000A4070030A53DA63DA73D0130CD070A300D
:100030004D02031C3F28CD0140018D1A25286F0A6F
:1000400003192D280130EF072D286F0803192D28DB
:100050006F084401D8004001EF018F183628430192
:100060006A0A03193F280130EA073F2843016A085A
:1000700003193F286A084401D7004301EA017E10B2
:100080000900803143284301803102208031ED0096
:10009000803103208031EE00CD308400B730850000
:1000A00044011200EA001200EB001200EC00120002
:1000B000ED001200EE00F0308400283085000030A2
:1000C000FE000730FF00B731E72780314001EF0124
:1000D000E3308400013085000A30FE000030FF006C
:1000E000B731E727803120308400023085004A3064
:1000F000FE000030FF00B731E7278031A0308400D8
:10010000023085004C30FE000030FF00B731E72799
:10011000803120308400033085004E30FE000030F6
:10012000FF00B731E7277E1040018A313E2A4201A5
:10013000EF014301BA01C3014335F03E8600870158
:100140002A30873D43350030873D0030C03FC13FF6
:100150000130C307031D9C284401C301C401CC0125
:10016000CB01C101C20145012F084101E900EA01AB
:10017000EB01EC016C08F3006B08F2006A08F10077
:100180006908F0000030F7000130F6008630F50015
:10019000A030F400A0310020803173084501BF0079
:1001A0007208BE007108BD007008BC003008410133
:1001B000E900EA01EB01EC016C08F3006B08F200C6
:1001C0006A08F1006908F0000030F7000F30F6000F
:1001D0004230F5004030F400A03100208031730837
:1001E0004501BB007208BA007108B9007008B80078
:1001F00001304401A3000030A2000030A100013012
:10020000A00041016508860066088700403F440160
:10021000E400413FE500423FE60036290E3042014E
:10022000E900FC30EA000430EB000230EC009630CC
:100230004401BF0000303429A7304201E900FB30FF
:10024000EA000730EB000430EC00F4303129F030E4
:100250004201E900FB30EA000530EB000330EC001E
:100260005E304401BF000130C0003F29450137081E
:10027000013A03190E29023A03191C2927294101C1
:100280006508860066088700403F4301C500413F7E
:10029000C600423FC70046084001E300430147084B
:1002A0004001E4002030E500BE30E6000130E70008
:1002B000430145088831652080314301BD003D0878
:1002C000031DB22EBE30FC000130FD00AC310E2407
:1002D0008031003A03198829C5304001C10001303E
:1002E000C200430141084001C600430140084001EB
:1002F000C50043013F084001C40043013E084001DE
:10030000C300A431D9248031923125220030080065
:10031000410168084201E800410167084201E70025
:100320004301C3016508430203182A2A0330F00081
:100330004308A8310D2080313F3E4301BB003B08FC
:1003400086000330870001084506031DB8293B0AD3
:1003500086000330870001084606031DB8293B08C4
:10036000023E860003308700010847060319262A4B
:100370003B088600033087000108031DC6293B0A9D
:1003800086000330870001080319262A3B088600EF
:10039000033087000330413F4001E30043013B0845
:1003A0008600033087000330423F4001E4001030F4
:1003B000E500A030E6000130E70043013B0886007D
:1003C0000330870001088831652080314301BD007A
:1003D00003303D0603192A2A3D08031DB22E4108A9
:1003E0002302031DFD2940082202031DFD293F08A9
:1003F0002102031DFD293E0820020318262A3B087E
:10040000860003308700403FC500413FC600423FA1
:10041000C700A030860001308700BE308400013064
:10042000850005304101E90016001A00E90B142A85
:1004300043014308333E8600033087000108643ED1
:100440004201E700003003180130E80001304301A9
:10045000C30792294201670868040319A02A0130E2
:100460004401CB00C5304101DD000130DE00BE306B
:10047000DF000130E00094319B2480314301BD0056
:100480004401CB01033043013D06031D592AA53029
:10049000F300B030F400BA30F500C530F60001309A
:1004A000F700BE30F8000130F9009A310A2280319D
:1004B0009E2D3D08031DB22EBE30FC000130FD0014
:1004C000AC310E248031003A031D6C2943014108F0
:1004D0004001B000430140084001AF0043013F0824
:1004E0004001AE0043013E084001AD00A7310527A1
:1004F000803142016708053E4101E90000304201B8
:10050000683D4101EA0040012E0841016A02031DD5
:100510008D2A40012D084101690203186C29A5307C
:10052000F300B030F400BA30F500C530F600013009
:10053000F700BE30F8000130F9009A310A2280310C
:100540004201ED0102306D020318042D4301C30185
:1005500042016B08430143020318002D4201EE01E2
:100560006B086E020318FC2C430143084201690723
:1005700084006A080318013E850000084301C50095
:1005800042016E08690784006A080318013E85006D
:1005900000084301C60042016D084301C700460838
:1005A0004001E300430147084001E4001030E5004A
:1005B000BE30E6000130E700430145088831652080
:1005C00080314301BD0003303D0603199E2D3D08D7
:1005D000031DB22EC40142016F08430144020318F7
:1005E000582B0330F0004408A8310D208031023E22
:1005F000583E860001308700010842016D06031D48
:10060000542B43014408343E860001308700010822
:100610004101E900430143084101E9020130690752
:10062000EA0003306A020318542B43014408393EA0
:1006300086000130870001084101E90042016E088F
:100640004101E90201306907EA0003306A02031838
:10065000542B0530F00043014408A8310D208031AF
:100660003F3E860001308700403F4101E900413FA5
:10067000EA00423FEB00433FEC006C0843014102BB
:10068000031D522B41016B0843014002031D522BF5
:1006900041016A0843013F02031D522B41016908D1
:1006A00043013E020318582B01304301C407EB2AD3
:1006B00042016F0843014402031CF82CC4014201AB
:1006C0006F084301440203181E2C0330F000440855
:1006D000A8310D208031023E583E8600013087004F
:1006E000010842016D06031D9D2B43014408343E61
:1006F00086000130870001084101E90043014308F9
:100700004101E90201306907EA0003306A02031877
:100710009D2B43014408393E8600013087000108C3
:100720004101E90042016E084101E9020130690717
:10073000EA0003306A02031CA12B01304301C40705
:100740005F2B43014408BC003C08013E4101E90025
:10075000003003180130EA006A08803AEB0080306C
:100760006B02031DB72B42016F0841016902031898
:100770001A2C0330F00043013C08A8310D208031D1
:10078000033E583E860001308700403F4101E900AA
:10079000413FEA00423FEB000330F00043013C08D8
:1007A000A8310D208031583E86000130870041017C
:1007B0006908C03F6A08C13F6B08C23F0530F000BE
:1007C00043013C08A8310D208031053E3F3E8600A4
:1007D000013087000530F00043013C08A8310D20AE
:1007E00080313F3E84000130850005304101E90041
:1007F00016001A00E90BF82B43013C08343E860032
:10080000013087003C08013E343E84000130850001
:10081000000881003C08393E8600013087003C0812
:10082000013E393E8400013085000008810001301E
:10083000BC07A42B01304201EF025F2B42016F087D
:100840004301C400882C42016C0843014402031890
:10085000862C0330F0004408A8310D208031FD3E85
:10086000583E860001308700403F4101E900413F8A
:10087000EA00423FEB000330F00043014408A83196
:100880000D208031583E8600013087004101690803
:10089000C03F6A08C13F6B08C23F0530F00043010A
:1008A0004408A8310D208031FB3E3F3E86000130D8
:1008B00087000530F00043014408A8310D20803145
:1008C0003F3E84000130850005304101E9001600FB
:1008D0001A00E90B672C43014408343E86000130BE
:1008E00087004408FF3E343E840001308500000844
:1008F00081004408393E8600013087004408FF3EED
:10090000393E840001308500000881000130C402B6
:1009100044080319B62C0530F0004408A8310D2016
:100920008031FB3E3F3E860001308700403F410161
:10093000E900413FEA00423FEB00433FEC006C0816
:1009400043014102031DB42C41016B0843014002E5
:10095000031DB42C41016A0843013F02031DB42C5E
:100960004101690843013E02031C232C42016C082B
:10097000430144020318F82C0330F0004408A83166
:100980000D208031583E8600013087004301450824
:10099000C03F4608C13F4708C23FBE308600013015
:1009A00087000530F0004408A8310D2080313F3E1B
:1009B00084000130850005304101E90016001A006D
:1009C000E90BDE2C43014408343E860001308700E9
:1009D000430881004408393E860001308700420107
:1009E0006E0881006C086F020318F82C0130EF07C5
:1009F00001304201EE07B02A01304301C307A82AA3
:100A000001304201ED07A22A440123084001B00051
:100A1000440122084001AF00440121084001AE001A
:100A2000440120084001AD00A731052780312E0880
:100A3000C4002D08C300A831002080314301C30148
:100A400042016F084301430203189E2D0330F0005A
:100A50004308A8310D208031583E860001308700C0
:100A6000403F4301C500413FC600423FC70005303B
:100A7000F0004308A8310D2080313F3E8600013050
:100A80008700BE3084000130850005304101E90057
:100A900016001A00E90B482DC530DD000130DE00DC
:100AA000BE30DF000130E00094319B2480314301EF
:100AB000BD003D080319602D03303D06031DB22E15
:100AC000A530F300B030F400BA30F500C530F600C0
:100AD0000130F700BE30F8000130F9009A310A22E7
:100AE0008031440123084001B00044012208400144
:100AF000AF00440121084001AE004401200840013C
:100B0000AD00A731052780312E08C4002D08C30091
:100B1000A83100208031033043013D0603199E2D8A
:100B2000BE30FC000130FD00AC310E248031003AB3
:100B3000031D9E2D01304301C307202D43013A08B8
:100B4000031DCF2D440164084301C500440165081D
:100B50004301C600440166084301C700440123085D
:100B60004301C100440122084301C000440121089F
:100B70004301BF00440120084301BE00A530F3003B
:100B8000B030F400BA30F500C530F6000130F7009F
:100B9000BE30F8000130F9009A310A228031430159
:100BA000C3013A0843020318272E0330F00043081C
:100BB000A8310D208031013EA53E8600013087001E
:100BC00001084101ED000330F00043014308A83162
:100BD0000D208031023EA53E8600013087000108CD
:100BE0004101EE000530F00043014308A8310D201B
:100BF0008031B03E4101EF000330F0004301430873
:100C0000A8310D208031A53E860001308700010803
:100C10004201B30041016D084001E30041016E084B
:100C20004001E4004030E50041016F084001E6006A
:100C30000130E700420133088831652080314301EB
:100C4000BD003D08031DB22E0130C307D12D400168
:100C5000E301E4014030E500AB30E6000130E7009D
:100C600000308831652080314301BD003D08031DFF
:100C7000B22E4201BE01023043013A02031C532E40
:100C800033083802031D4E2E32083702031D4E2E44
:100C900031083602031D4E2E300835020318532E3C
:100CA00001304201BE0042013E084301C30005304D
:100CB000F0004308A8310D208031B03E4001A00073
:100CC0000130A100AB30A2000130A3009A31AF2265
:100CD0008031003A031D912E4301C701C601C501B1
:100CE000C5304001C1000130C20043012E0840015F
:100CF000C60043012D084001C50043012C084001F6
:100D0000C40043012B084001C300A431D924803121
:100D1000013043012E0203188F2E003008000330EB
:100D200008000330F00043014308A8310D20803152
:100D3000A53E4001C1000130C2000530F000430172
:100D40004308A8310D208031B03E86000130870075
:100D5000403F4001C300413FC400423FC500433F04
:100D6000C600812964304001C1000230C200440144
:100D700023084001C600440122084001C500440187
:100D800021084001C400440120084001C300A431EF
:100D9000D924803143013D030319D02E01300800CE
:100DA00002300800440167084301D200440168088A
:100DB0004301D300440169084301D400A831FA205B
:100DC00086314001971119114301EC014001AF0137
:100DD0003C30B000FB30B1000130A631192686311D
:100DE000AF013730B000FB30B1000130A631192619
:100DF0008631A831BD20863144016208031D032FCE
:100E00006308031D072F4301CA01CB010F2F63089D
:100E1000643E4301CA00003003180130CB00673044
:100E20004101E5000230E60043014B084101E800C2
:100E300043014A084101E700803197208631430190
:100E4000D500550803193A2F0330550603193A2FD8
:100E50004401670843015206031D3A2F4401680804
:100E600043015306031D3A2F440169084301540608
:100E70000319A12F550803194A2F033055060319EA
:100E80004A2F44016708031D4A2F6808031969089F
:100E900003194C2F4401E2016208031D912F430105
:100EA0005508031D5A2F44016708031D5E2F68086B
:100EB000031D5E2F4301CC01CD018E2F430163083A
:100EC0009C3EC800FF30643DC9000130490200303B
:100ED000031948020318832F003064026630031997
:100EE00063020318782F0130D0000030D1007E2F2C
:100EF00063089C3ED000FF30643DD1005108CF0014
:100F00005008CE00872FFF30CE000030CF004E08B3
:100F1000C800C9014808CC004908CD004C0844016C
:100F2000E300430164084401CA004301630844012B
:100F3000C900430164084401C80043016308440137
:100F4000C700B731F3278631AB31E3238631FF3059
:100F50004401EA00FF30EB0048084001C2004401B0
:100F600047084001C100AC313A24863143015503A2
:100F7000031DBF2F75304001C100FB30C72F033068
:100F80005506031DCC2F6C304001C100FB30C20060
:100F9000D030C3000730D82F02305506031DDC2F98
:100FA00009304001C100FC30C200E830C30003300A
:100FB000C400AD315E258631B731C227863140018C
:100FC000191597154401DA01A831952073084501D8
:100FD000D3007208D2007108D1007008D000530805
:100FE0004401B300450152084401B20045015108D3
:0E0FF0004401B100450150084401B000080062
:101004004001CD004D080319172844016208031D4F
:1010140017286708DF006808E0006908E10001306C
:10102400E200F301F4010030252840014D08031DBE
:1010340008004401620803190800E2016008F30093
:101044006108F4005F089D3161258831B731F327C9
:1010540088316208031D45286308031D35284001B3
:10106400C901CA013D286308643E4001C90000303B
:1010740003180130CA004A084401CA004001490863
:101084004401C9004728C901CA01AB31E3238831AF
:1010940044016208031D5328EA304001CB00FB30B1
:1010A4005728D1304001CB00FB30CC004C08C200A3
:1010B4004B08C1002030C3000330C400AD315E25AD
:1010C4004401DA0108004101B70040016308F0005F
:1010D4006408F10041013708AB313F2388317108BE
:1010E400B6007008B500AA01AB013608F400350853
:1010F400F300A0312F2088314101B800B401403001
:10110400400165060319172941013808A000A1010F
:10111400A035A10DF030A2002A30A3002008220738
:1011240086002108233D8700403FA400413FA500DD
:1011340036082506031DA02835082406031D0829A2
:101144003808A000A101A035A10DF030A20028307C
:10115400A3002008220786002108233D87001600EB
:10116400FF3AA4001600FF3AA4040319E128380842
:10117400A000A101A035A10DF030A2002830A300E9
:101184002008220786002108233D8700403FA40051
:10119400413FA5002408A6002508A700A801A9012D
:1011A4000830A635A70DA80DA90D890BD328290849
:1011B400AF002808AE002708AD002608E828013053
:1011C400AF000030AE000030AD000030AC00400194
:1011D400660886006708870041012C08C03F2D0877
:1011E400C13F2E08C23F2F08C33F40016608860056
:1011F40067088700443141013808F03E84008501C6
:101204002E30853D0008810000300800440140086C
:101214004202031D0F293F084102031C1329033016
:1012240008000130C1070030C23D40016308F300EB
:101234006408F400410137089D3161258831A931E2
:1012440056218831003A0319292901300800B930A0
:101254004001D8000030D9006508DA00A031FE2032
:10126400883141014B08031941290130C80000307D
:10127400C7000030C6000030C500CA01A2294501DC
:101284003F0841014002031D572945013E08410121
:101294003F02031D572945013D0841013E02031D3C
:1012A400572945013C0841013D02031C7129B9300D
:1012B400F0000030F100A331C223883173084501E6
:1012C4003B02031D6F2972083A02031D6F2971083E
:1012D4003902031D6F297008380203189529440147
:1012E4004C08031D7A29E8304101B00003307E29FF
:1012F4002C304101B0000130B1000130AA070030A8
:10130400AB3D2B083102031D89292A08300203183A
:101314008D29023008000A30F0000030F100A831B5
:101324006F208831212901304401CC004101490852
:10133400031DA2290130B40703303402031C212900
:101344004001660886006708870041014508C03FE0
:101354004608C13F4708C23F4808C33F40016608EA
:10136400860067088700443141014A088100403003
:101374004001650603190629003044014402FF3088
:101384000319430203180C2A41013835F03E860044
:1013940087012A30873D38350030873D3508C03F06
:1013A4003608C13F013048020318ED2941014508C0
:1013B400A0004608A1004708A2004808A30008307E
:1013C400A336A20CA10CA00C890BE2292108B300BE
:1013D4002008B200F229FF304101B200FF30B3000F
:1013E4003835F03E860087012830873D3835003097
:1013F400873D3208C03F3308C13F3808F03E8600BD
:1014040087012E30873D4A08810001304401C3071B
:101414000030C43D230841014802031D212A440130
:10142400220841014702031D212A440121084101E8
:101434004602031D212A44012008410145020318E4
:101444000629B9308600003087004C31403F440102
:10145400A000413FA100423FA200433FA30041013D
:1014640037084401E400400163084401E5004001F9
:1014740064084401E6000629AD31CD258A314301D3
:10148400E1015001931813184A2A01304301E10085
:1014940043016108DE00A53138258A31A8311C20BA
:1014A4008A31A3316C238A3198316A208A31983188
:1014B40009208A31003A0319702A5C08E7005D08A4
:1014C400E8005E08E90043015E08031D7B2A44012D
:1014D4005D08F3005E08F4005C08782AE201E30189
:1014E400E101E001DF01F301F40100309D316125E8
:1014F4008A3144016308031D822AC901CA01892A69
:101504006308643EC900003003180130CA0040017A
:101514001915AA3112228A31AD312A258A31500196
:101524000C14A83195208A3173084501DF00720834
:10153400DE007108DD007008DC005F08E3005E086F
:10154400E2005D08E1005C08E00063084401B700C4
:10155400450162084401B600450161084401B50033
:10156400450160084401B4003708BB003608BA00DE
:101574003508B9003408B80064009B3154238A311B
:101584004301E20062030319CB2A02306206031D01
:10159400F42AB731C5278A31003A031DF42AA83149
:1015A400FA208A314301E201F42AA831FA208A316F
:1015B40044016208031DE02A0130E12A0030883129
:1015C40002208A31052B8631D2268A31052B01303F
:1015D400EB00052BA831FA208A3101308831022032
:1015E4008A31052B6208013A0319D72A033A0319F1
:1015F400E52A013A0319E92A073A0319EC2A013AC0
:101604000319E52A052B44013708FB003608FA00C4
:101614003508F9003408F800A9313E218A317B08E5
:10162400031D1E2B7A08031D1E2B7908031D1E2B78
:1016340032307802031C2C2BA83195208A31730890
:10164400B7007208B6007108B5007008B40096318E
:1016540034268A31440159080319342BD9018631BF
:10166400D2268A3145016308FB006208FA0061084A
:10167400F9006008F800A9313E218A317B08031D76
:101684004D2B7A08031D4D2B7908031D4D2B9630E5
:101694007802031C5C2BA83195208A31730845011C
:1016A400E3007208E2007108E1007008E000AA316A
:1016B400F6228A3144013B08FB003A08FA00390853
:1016C400F9003808F800A9313E218A317B08031D4E
:1016D400742B7A08031D742BB83078020B30793BD5
:1016E400031C822BA83195208A317308BB00720831
:1016F400BA007108B9007008B800AE3140268A31CA
:1017040044015B080319A42B45015B08FB005A083C
:10171400FA005908F9005808F800A9313E218A3125
:101724007B08031D9F2B7A08031D9F2B7908031D3B
:101734009F2B1E307802031CA42B4401DB014001C3
:101744009715171643016C080319C42BA83195206B
:101754008A314501540870024301D60045015508F9
:10176400713B4301D70045015608723B4301D80041
:1017740045015708733B4301D900D91BC42BA83139
:10178400D1208A3145015F08FB005E08FA005D083C
:10179400F9005C08F800A9313E218A317B08031D59
:1017A400DC2B7A08031DDC2B303078027530793B52
:1017B400031CEB2BA83195208A3173084501DF0007
:1017C4007208DE007108DD007008DC00B731C22742
:1017D4008A31B731C5278A31003A0319392C4501BA
:1017E4002C080319392C44013308FB003208FA0091
:1017F4003108F9003008F800A9313E218A3178080F
:101804004301D6007908D7007A08D8007B08D900AC
:1018140045012C084301DA00DB01DC01DD015D0830
:10182400F3005C08F2005B08F1005A08F000003095
:10183400F7000030F600EA30F5006030F400A03123
:1018440000208A31730843015902031D332C7208A6
:101854005802031D332C71085702031D332C7008E2
:101864005602031C392C0030AE317E268A314501E4
:101874002D0803197F2C44013308FB003208FA00B9
:101884003108F9003008F800A9313E218A3178087E
:101894004301D6007908D7007A08D8007B08D9001C
:1018A40045012D084301DA00DB01DC01DD015D089F
:1018B400F3005C08F2005B08F1005A08F000003005
:1018C400F7000030F600EA30F5006030F400A03193
:1018D40000208A31730843015902031D7B2C7208CE
:1018E4005802031D7B2C71085702031D7B2C7008C2
:1018F4005602031C7F2C0330EB0043016B080319D1
:10190400D72C03306B020318A42CA831FA208A3197
:1019140043016B030319922C7E30DF00FB30952CBE
:101924004630DF00FB30E00060084001CA0043019C
:101934005F084001C900DC30CB000530CC00A93180
:101944006F218A314301EB01A03173208A31AA311E
:1019540012228A31A83195208A3173084501DF00AB
:101964007208DE007108DD007008DC005F08E30027
:101974005E08E2005D08E1005C08E00063084401E1
:10198400B700450162084401B600450161084401FD
:10199400B500450160084401B4003708BB003608AF
:1019A400BA003508B9003408B8009C31A5248A313E
:1019B400BE2A0130B7000030B8000030B900003052
:1019C400BA003508BB003608BC00BD01BE012F08B3
:1019D400BF003008C000C101C2013F08BB07400876
:1019E400BC3D4108BD3D4208BE3D3B08B7073C082D
:1019F400B83D3D08B93D3E08BA3D0130BA36B90C90
:101A0400B80CB70C890B002D2D0886002E08870012
:101A14003708C03F3808C13F0130B7000030B80074
:101A24000030B9000030BA003308BB003408BC00F1
:101A3400BD01BE013108BF003208C000C101C201AE
:101A44003F08BB074008BC3D4108BD3D4208BE3DC0
:101A54003B08B7073C08B83D3D08B93D3E08BA3DD0
:101A64000130BA36B90CB80CB70C890B332D2D08DC
:101A74008600870142313708C03F3808C13F2D082E
:101A840086002E088700403FB700413FB800370862
:101A9400F0003808F100F201F30145013308400178
:101AA400B900BA01BB01BC013C08F7003B08F600D1
:101AB4003A08F5003908F400A03100208C3173088D
:101AC4004001D3007208D2007108D1007008D00020
:101AD4002D0886002E088700403FB700413FB8001C
:101AE4003708F4003808F500F601F7012D088600E0
:101AF4002E088700403FB900413FBA003908F00082
:101B04003A08F100F201F301A03100208C31700891
:101B14004001BB007108BC007208BD007308BE0020
:101B24000630BE36BD0CBC0CBB0C890B932D3E0895
:101B3400D7003D08D6003C08D5003B08D400530824
:101B4400F3005208F2005108F1005008F000003090
:101B5400F7000030F6000030F5001930F400A03131
:101B640000208C3170084001B7007108B800720879
:101B7400B9007308BA000130BA36B90CB80CB70C06
:101B8400890BBE2D0030A3000030A2000030A1005C
:101B94006430A0005708F3005608F2005508F1001D
:101BA4005408F00045013408643EF4000030031882
:101BB4000130F500F601F51BF6037608F700A031B5
:101BC40000208C3173084001A7007208A600710838
:101BD400A5007008A400A23176228C312008B70732
:101BE4002108B83D2208B93D2308BA3D2D088600D6
:101BF400870144313708C03F3808C13F3908C23F24
:101C04003A08C33F2D08860087014231403FB700A0
:101C1400413FB8003708F0003808F100F201F30141
:101C2400450133084001B900BA01BB01BC013C08BD
:101C3400F7003B08F6003A08F5003908F400A03133
:101C440000208C3173084001D3007208D20071085F
:101C5400D1007008D0002D08860087014231403F32
:101C6400B700413FB8003708F4003808F500F60122
:101C7400F7012D08860087014231403FB900413FFA
:101C8400BA003908F0003A08F100F201F301A0317A
:101C940000208C3170084001BB007108BC00720840
:101CA400BD007308BE000630BE36BD0CBC0CBB0CB8
:101CB400890B562E3E08D7003D08D6003C08D500B7
:101CC4003B08D4005308F3005208F2005108F10015
:101CD4005008F0000030F7000030F6000030F50046
:101CE4001930F400A03100208C3170084001B70095
:101CF4007108B8007208B9007308BA000130BA3626
:101D0400B90CB80CB70C890B812E0030A30000303D
:101D1400A2000030A1006430A0005708F300560868
:101D2400F2005508F1005408F00045013408643EFF
:101D3400F400003003180130F500F601F51BF6033A
:101D44007608F700A03100208C3173084001A70009
:101D54007208A6007108A5007008A400A2317622BA
:101D64008C312008B7072108B83D2208B93D230863
:101D7400BA3D2D088600870148313708C03F38082E
:101D8400C13F3908C23F3A08C33F2D088600870186
:101D94004431403FF000413FF100423FF200433FF5
:101DA400F3002D08860087014831403FF400413F8D
:101DB400F500423FF600433FF700A4311C248C3168
:101DC4002D08860087014C317008C03F7108C13F5F
:101DD4007208C23F7308C33FCD013008F1002F08D9
:101DE400F0003608F3003508F2001830F400003033
:101DF400F500AE31FB268C31003A0319152F320859
:101E0400F1003108F0003408F3003308F200183010
:101E1400F4000030F500AE31FB268C31003A031992
:101E2400152F0130CD002D088600870150314D0853
:101E3400810030083602031D212F2F083502031CB0
:101E4400562F35083604031D2A2FC501C601522F0B
:101E54003508A0003608A100A201A3012F0835020D
:101E6400B7003008363BB8003708B9003808BA0064
:101E7400BB01BC010830B935BA0DBB0DBC0D890BD3
:101E84003D2F3C08A7003B08A6003A08A5003908E6
:101E9400A400A23176228C312108C6002008C50096
:101EA4004608C40045087D2F2F08A0003008A10073
:101EB400A201A30135082F02B7003608303BB80051
:101EC4003708B9003808BA00BB01BC010830B9357D
:101ED400BA0DBB0DBC0D890B692F3C08A7003B084C
:101EE400A6003A08A5003908A400A23176228C3154
:101EF4002108C4002008C30032083402031D842FC3
:101F040031083302031CB92F33083404031D8D2F09
:101F1400C901CA01B52F3308A0003408A100A201E9
:101F2400A30131083302B7003208343BB800370844
:101F3400B9003808BA00BB01BC010830B935BA0D84
:101F4400BB0DBC0D890BA02F3C08A7003B08A600C5
:101F54003A08A5003908A400A23176228C31210860
:101F6400CA002008C9004A08C8004908E02F3108FF
:101F7400A0003208A100A201A30133083102B70076
:101F84003408323BB8003708B9003808BA00BB013E
:101F9400BC010830B935BA0DBB0DBC0D890BCC2F73
:101FA4003C08A7003B08A6003A08A5003908A4008D
:101FB400A23176228C312108C8002008C7004308CA
:101FC4004707CE004408483DCF0001304F0200309F
:101FD40003194E020318F52F4E08B700B80137084D
:101FE400CB003808F82FFF30CB000030CC002D0890
:101FF4008600870151314B08810008005A30F700F0
:102004000130F102710A03192C2870088600870137
:102014000108F7060130F007F601F71B18287708C6
:10202400F200F3017235F400730D22287708F200F0
:10203400F301F235F30D07307206F4000030730635
:10204400F5007408F7000130F6070830760203182B
:1020540002280F2877080800FD007308A000033049
:10206400A036890B32282008FC0073080739FB00CE
:102074000130A000750A3F28A035890B3E282008AE
:10208400FF3EFA007A08A000A1017B0A4B28A03584
:10209400A10D890B49282008F6002108F7007408CF
:1020A4007A05A000A1017B0A5928A035A10D890B4E
:1020B40057282008F8002108F90080307D02031811
:1020C400080004307C020318A3287C08A000A101A6
:1020D4000730A035A10D890B6B28F030A2002C30FD
:1020E400A30020082207A4002108233DA5007D08A1
:1020F400240786000030253D87007C08A600A70140
:102104000730A635A70D890B8328F030A8002C30A2
:10211400A90026082807AA002708293DAB007D0846
:102124002A07840000302B3D8500760900057804D9
:1021340081007D08F0007D08F1007C08AA31B222FC
:1021440090317B08031908007C08013EA000003090
:1021540003180130A1002108803AA2008030220235
:10216400031DB62804302002031808007C0840012F
:10217400A000A1010730A035A10D890BBD28703046
:10218400A2002D30A30020082207A4002108233D2B
:10219400A5007D08240786000030253D87007C08C3
:1021A400A600A7010730A635A70D890BD5287030E6
:1021B400A8002D30A90026082807AA002708293DD1
:1021C400AB007D082A07840000302B3D8500770989
:1021D4000005790481007D08F0007D08F1007C0889
:1021E400013EAA31B222080001304101CC00013085
:1021F400CF0040016808860069088700403F41011C
:10220400D500413FD600423FD70040016C08031976
:10221400152941014F08F3005608A931D9219031FD
:102224004101D6001E2941014F08F3005508A93188
:10223400D92190314101D500400168088600690820
:102244008700010841015506031D33294001680830
:1022540086006908870041314101560801060319C7
:102264005B2956084001E300410157084001E4009E
:102274002030E500D030E6000030E7004101550889
:102284008831652090314101CD004D0803194C2956
:102294004D080800D0304001A0000030A1006B08B8
:1022A400A3006A08A2009A31AF229031003A031DBC
:1022B4006329FE304101CF074F08803A813E03185D
:1022C400FB2841014F08803A813E03186B290030F6
:1022D4000800400168088600690887004101550824
:1022E400C03F5608C13F5708C23FD0308600003077
:1022F400870040016A0884006B0885000530ED0002
:1023040016001A00ED0B822902304101CE004E085E
:102314000319692940016808860069088700403F5D
:102324004101D500413FD600423FD70040016C082F
:102334000319AC2941014E08F0004F08A8310D20C3
:102344009031F30041015608A931D921903141015E
:10235400D600BB2941014E08F0004F08A8310D20DA
:102364009031F30041015508A931D921903141013F
:10237400D50040016808860069088700010841010A
:102384005506031DD02940016808860069088700A6
:10239400413141015608010603191A2A5608400121
:1023A400E300410157084001E4002030E500D0304B
:1023B400E6000030E700410155088831652090317E
:1023C4004101CD004D08031D4A29D0304001A00031
:1023D4000030A1006B08A3006A08A2009A31AF2262
:1023E4009031003A03191A2A6808860069088700A0
:1023F40041015508C03F5608C13F5708C23FD0307D
:1024040086000030870040016A0884006B0885005C
:102414000530ED0016001A00ED0B0C2A41014C08A2
:102424000319892920304E02031889294E35882939
:102434004101CC014E084001ED000130ED36890B1D
:10244400202A6D0887294001A401A201003043011C
:102454006402C930031963020318080044013C08EC
:1024640003193D08031908004001A501A601430111
:102474006508400125020318782A0330F000250876
:10248400A8310D2092313F3E8600033087000108B9
:10249400031D5A2A0330F00040012508A8310D20FD
:1024A4009231403E86000330870001080319742AE4
:1024B40001304001A607260303196D2A2508A03E12
:1024C4008600023087000108F9002408F9028030F0
:1024D40079020318742A2508A03E8600023087007A
:1024E4000108A40001304001A507392AA6014301CF
:1024F4006508400126020318BB2A0330F0002608B1
:10250400A8310D209231413E860003308700010836
:1025140044013E06031DB72A3C08F3000330F000D3
:1025240040012608A8310D2092313F3E8600033039
:1025340087000108AA3191229231003A0319B72A7F
:1025440044013D08F3000330F00040012608A8319F
:102554000D209231403E8600033087000108AA31E5
:1025640091229231003A031DBB2A01304001A60793
:10257400792A4001260843016506031DE82A400123
:10258400A601E22A0330F0002608A8310D2092317A
:102594003F3E8600033087000108031DDF2A033015
:1025A400F00040012608A8310D209231403E8600FB
:1025B4000330870001080319E82A01304001A60707
:1025C4004301650840012602031CC42A4001260871
:1025D40043016506031D0E2B0C3065020318F52A12
:1025E4000130E5070E2B4001A501A6012508A03EF8
:1025F40086000230870001082402A3002208230277
:10260400031C082B2308A2002508A6000130A507F7
:102614000C302502031CF82A0330F0004001260880
:10262400A8310D2092313F3E8600033087004401DB
:102634003C08C03F3D08C13F3E08C23F4301630818
:102644009C3EF900FF30643DFA0001307A0200300C
:10265400031979020318372B63089C3E4001A0003C
:10266400FF304301643D40013B2BFF304001A0009B
:102674000030A1002608333E86000330870020087E
:1026840081002608A03E8600023087002408013E0F
:1026940081000130F9000030FA00260A532BF93585
:1026A400FA0D890B512B79084401C5047A08C60434
:1026B4000800B9006330C000732C3608031D6D2B6D
:1026C4004008B0000330B100E430B200FB30B30086
:1026D400A931262108004008AB000330AC003608BD
:1026E400B700B8013708AD003808AE00AF01A83113
:1026F4005D2093312C08B1002B08B000FF30B200EC
:10270400FB30B300A931262108004008AB00033098
:10271400AC003608B700B8013708AD003808AE0081
:10272400AF01A8315D2093312C08B1002B08B00013
:102734001630B200FC30B300A9312621080040084D
:10274400AB000330AC003608B700B8013708AD0061
:102754003808AE00AF01AF0AA8315D2093312C08D0
:10276400B1002B08B0002830B200FC30B300A9310E
:10277400262108004008AB000330AC003608B7003F
:10278400B8013708AD003808AE00AF01A8315D20AC
:1027940093312C08B1002B08B0002830B200FC3073
:1027A400B300A931262108004008AB000330AC0077
:1027B4003608F63EAD00FF3003180030AE00AF011E
:1027C400AF0AA8315D2008003608031DED2B4C30FC
:1027D400BA00FB30F02B2530BA00FC30BB004008B7
:1027E400B0000330B1003B08B3003A08B200A9318D
:1027F400262108004008AB000330AC003608B700BF
:10280400B8013708AD003808AE00AF01AF0AA831EF
:102814005D2008004008AB000330AC003608643E7D
:10282400AD00003003180130AE000230AF00A83113
:102834005D2008004008AB000330AC003608B70048
:10284400B8013708F0003808F1000A30F20000300F
:10285400F300A9318821933171084001AE0070085A
:10286400AD00AF01A8315D2093312C08B1002B08D5
:10287400B0001630B200FC30B300A93126210800A4
:102884003608031D0C2C4008B0000330B100FA30A8
:10289400B200FB30B300A931262108003603031926
:1028A400642C0330360603195B2CC330BE00FB30A6
:1028B4005E2C5A30BE00FB30BF003F08BD003E080E
:1028C400BC00682CD830BC00FB30BD004008B00010
:1028D4000330B1003D08B3003C08B200A931262101
:1028E40008003908BF3E8400FA300318013E850011
:1028F4000008003A03195F2B013A0319872B033AA6
:102904000319A12B013A0319BC2B073A0319D62B3F
:10291400013A0319E62B033A0319FC2B013A031974
:102924000C2C0F3A03191C2C013A0319422C502C7D
:1029340008005E084001E90041015D084001E8002B
:10294400410160084001EB0041015F084001EA00D9
:102954009E31E52694314201AA002A080319B42CB9
:102964002A080800A9012908031DBF2C41015D089C
:1029740086005E0887004131C42C41015D08860051
:102984005E0887000108E100E20161084201A0003D
:10299400410162084201A1002008A60044014B083D
:1029A400031DE72C420126084101E1000230E13613
:1029B400890BD92C6108E200E30162084201A200FC
:1029C400410163084201A300EC2C01304201A20042
:1029D4000030A3002208A600023026020318F72CB8
:1029E4000130A4000030A500022D26084101E100B9
:1029F400E20161084201A400410162084201A5000C
:102A04002408A7000130A80041015D0886005E0883
:102A14008700403F4201B000413FB100423FB20055
:102A240029080319242D2708F0002808A8310D20AF
:102A34009431F30042013008A931D9219431420183
:102A4400B000322D2708F0002808A8310D20943159
:102A5400F30042013108A931D92194314201B10076
:102A640041015D0886005E088700010842013006C6
:102A7400031D472D41015D0886005E088700413132
:102A84004201310801060319A22D31084001E30077
:102A9400420132084001E4002030E5002B30E6001A
:102AA4000130E70042013008883165209431420149
:102AB400AA002A08031DB22C30304001E80001307E
:102AC400E9002B30EA000130EB0042012908400103
:102AD400EC009031F62094314201AA002A08031D2B
:102AE400B22C2B304001A0000130A100410160084C
:102AF4004001A30041015F084001A2009A31AF22C6
:102B04009431003A0319A22D41015D0886005E0844
:102B1400870042013008C03F3108C13F3208C23F3C
:102B24002B3086000130870041015F088400600873
:102B340085000530E10016001A00E10B9D2D9B2C49
:102B4400FE304201A8072808803A813E0318062D6A
:102B540002302702031CB82D27084101E10001308F
:102B6400E136890BB22D61084201032D0130A9071A
:102B740002302902031CB52C41015D0886005E0861
:102B84008700403F4201B000413FB100423FB200E4
:102B94000130B20631084001E3004201320840012D
:102BA400E4002030E5002B30E6000130E70042016C
:102BB40030088831652094314201AA002A08031D97
:102BC400B22C41015F08860060088700403FE100A5
:102BD400413FE200423FE300433FE4000130E1357E
:102BE400E20DE30DE40D890BF12D640842012E0280
:102BF400031D0C2E4101630842012D02031D0C2EFE
:102C04004101620842012C02031D0C2E410161089E
:102C140042012B020318322E30304001E80001300B
:102C2400E9002B30EA000130EB009E31E5269431B7
:102C34004201AA002A08031DB22C2B304001A00037
:102C44000130A100410160084001A30041015F0877
:102C54004001A2009A31AF229431003A031D862D1F
:102C640000300800A8319520963173084101A50071
:102C74007208A4007108A3007008A200AB304001E0
:102C8400D8000030D9000430DA00A031FE2096319B
:102C940041013D0803195E2E43016C08031D5E2E9D
:102CA40063304001C100FB30C200D030C3000730A4
:102CB400C400AD315E259631AB308600003087000C
:102CC4004431403F4001AD00413FAE00423FAF00C0
:102CD400433FB000A931A32196312E084101A10040
:102CE40040012D084101A0002008210403197D2E74
:102CF400A831FA2096314601270841013202031D0A
:102D0400932E4601260841013102031D932E4601EC
:102D1400250841013002031D932E46012408410178
:102D24002F020318D72E450135084001E300E401C2
:102D3400E501E6016608F3006508F2006408F100A5
:102D44006308F0000030F7000030F6000030F500B2
:102D54000A30F400A0310020963145014C084101AD
:102D640022024001E70045014D084101233B400197
:102D7400E80045014E084101243B4001E9004501BA
:102D84004F084101253B4001EA0073086A02031D14
:102D9400D52E72086902031DD52E71086802031D21
:102DA400D52E70086702031CF62EAB308600003067
:102DB4008700203084000330850013304001E30095
:102DC40016001A00E30BE22E410125084501CF004D
:102DD400410124084501CE00410123084501CD00ED
:102DE400410122084501CC00AB3086000030870049
:102DF4004C31403F4001AD00413FAE00423FAF0087
:102E0400433FB000A731052796312E084101AA009F
:102E140040012D084101A90045012F084001E300AC
:102E2400E401E501E6016608F3006508F2006408C0
:102E3400F1006308F0000030F7000130F60086303E
:102E4400F500A030F400A031002096317308410150
:102E54003202031D372F72083102031D372F710808
:102E64003002031D372F70082F02031C3B2F013043
:102E74003C2F0030A80028080319472F2A084401D2
:102E8400C800410129084401C70045013108F63E44
:102E9400F000FF3003180030F1000A30F200003077
:102EA400F300A9318821963171084101A700700807
:102EB400A600450132080319FD2F44016208031DD1
:102EC400FD2F410128080319FD2F45013008400159
:102ED400E300E401E501E6016608F3006508F20099
:102EE4006408F1006308F0000030F7000F30F600CA
:102EF4004230F5004030F400A031002096317008D3
:102F04004001E7007108E8007208E9007308EA006C
:102F1400AB30F0000030F100A331C22396317308C6
:102F240040016A02031DA02F72086902031DA02F2D
:102F340071086802031DA02F70086702031CFD2F8F
:102F440041013B080319FD2F00302A02793003198F
:102F54002902031CFD2F45015308FB005208FA0007
:102F64005108F9005008F800A9313E2196317B0838
:102F7400031DC52F7A08031DC52FB83078020B3006
:102F8400793B031CFD2F41012608440149074001F8
:102F9400E3004101270844014A3D4001E4004101A6
:102FA4002A0840016402031DDB2F41012908400166
:102FB4006302031CF32F4101260829074001E300A3
:102FC400410127082A3D4001E40044014A08400128
:102FD4006402031DF12F44014908400163020318F0
:102FE400FD2F01304401DA0704305A02031C0800A3
:102FF4000130D90008004401DA010800FF30F8006C
:103004002030AB3119239831A931BE210800A90120
:10301400A801AA01AB012030F8002B08AC316724C9
:103024009831003A03192828400129080319222855
:103034002008FD002808FD0280307D02031828289E
:103044002008A8002B08AA000130A9000130400183
:10305400AB0710302B02031C0D282908031D382848
:103064000F304401CF00CE01003008002030F800BA
:103074002A08AC316724983140012A084401CF0062
:10308400400120084401CE005C30F3000230F4001B
:1030940040012108F5002208F600A931F5219831F4
:1030A4002308031957280130582800304401E2004E
:1030B4005F30F3000230F40040012408F5002508D5
:1030C400F600A931F52126084401E3000130080087
:1030D400E5014401C501C6014001A7010530F00026
:1030E4002708A8310D209831303E4001A000A601E8
:1030F4002608213E8600870120082607B731DB27F2
:103104009831810001304001A60705302602031CD6
:103114007A280330F0002708A8310D209831413E69
:1031240086000330870081010330F0004001270846
:10313400A8310D209831403E86000330870081017C
:103144000330F00040012708A8310D2098313F3E9C
:1031540086000330870081012130F0000430F10043
:1031640090310020983140012506031DE4282108F0
:10317400031DC02822087F390319E4280330F00016
:103184002708A8310D2098313F3EF3000330F400A6
:1031940040012108F5002208F600A931F5219831F3
:1031A4002708333E86000330870023088100270860
:1031B400A03E860002308700240881002708013ED3
:1031C4004301E50001304001A7070C302702031832
:1031D400080070280B302E02B83003192D02031892
:1031E400F728B830AD000B30AE0010302E02693035
:1031F40003192D02031C02296830AD001030AE0003
:103204000030A3000030A2000430A100B030A000C0
:103214002D08483EF000F4302E3DF100F201F30198
:103224000030F7000030F6000030F5001A30F400EA
:10323400A0310020983173084001A7007208A6004D
:103244007108A5007008A400A231762298312008E4
:10325400B0007330B200B301B101B4013308AF0060
:103264000330AF35890B33292F083407F0003008B9
:10327400F1003208A131DD219831003A03194C29BB
:1032840001304001AF00340A4829AF35890B472982
:103294002F08B10401304001B40708303402031C84
:1032A40030293308AF000330AF35890B56292F0876
:1032B400F3003108F4000830F500320890312E2074
:1032C400983101304001B30704303302031C2E2926
:1032D4000130B2077E303202031808002D29003075
:1032E400A3000030A2000030A1000030A000403054
:1032F400A7000030A6000030A5000030A400270875
:103304007302031D8F2926087202031D8F292508C5
:103314007102031D8F29240870020318FF2902304B
:10332400A736A60CA50CA40C890B92298129200888
:103334002407F4002108253DF5002208263DF60067
:103344002308273DF70077087302031DB329760885
:103354007202031DB32975087102031DB329740891
:103364007002031CF12920082407F4002108253DDC
:10337400F5002208263DF6002308273DF7007408CF
:10338400F0027508F13B7608F23B7708F33B24081A
:10339400F4002508F5002608F6002708F7002008A1
:1033A400F8002108F9002208FA002308FB00013084
:1033B400FB36FA0CF90CF80C890BDA297808F407B7
:1033C4007908F53D7A08F63D7B08F73D7708A300B8
:1033D4007608A2007508A1007408A000F82901303D
:1033E400A336A20CA10CA00C890BF2290230A7363B
:1033F400A60CA50CA40C890BF9292708260425047E
:103404002404031D99292108F1002008F000080074
:1034140075088600013087000230010203181A2A59
:1034240075088600013087000108810AFA00792AAC
:103434007408860001308700403F4001A000413FEE
:10344400A100423FA200433FA3007408053E86004A
:1034540001308700403FA400413FA500423FA60041
:10346400433FA70023082702031D422A22082602FD
:10347400031D422A21082502031D422A2008240292
:10348400031C462A0130472A0030FA000530F000B8
:103494007A08A8310D209A3174074001A000200851
:1034A400860001308700403FA100413FA200423F17
:1034B400A300433FA4007808860079088700403FB2
:1034C400A500413FA600423FA700433FA8002408AF
:1034D4002802031D772A23082702031D772A2208BE
:1034E4002602031D772A21082502031808007608FE
:1034F400860077088700403F4001A000413FA100BB
:10350400423FA2000330F0007A08A8310D209A311E
:1035140073074001A30023088600013087002008B8
:10352400C03F2108C13F2208C23F780886007908BD
:1035340087000530F0007A08A8310D209A3174070D
:103544004001A00020088400013085000530A1005E
:1035540016001A00A10BAA2A0800FF30A400FF30AD
:10356400A500FF30A6001F30A7002208860023080C
:1035740087004431200884002108850004310008B4
:103584000107A800A901A90D290DA90CA80C290D52
:10359400A90CA80C2808AA002908AB000030AB1B12
:1035A400FF30AC00AD002A08A4052B08A5052C08A3
:1035B400A6052D08A70501302407B4000030253DD9
:1035C400B5000030263DB6000030273DB700220884
:1035D400860023088700403FA400413FA500423FE6
:1035E400A600433FA7004030A8000030A9000030E7
:1035F400AA000030AB002008860021088700403F65
:10360400AC00413FAD00423FAE00433FAF00220853
:10361400860023088700403FB000413FB100423F8D
:10362400B200433FB3000830B336B20CB10CB00C57
:10363400890B162B3308F3003208F2003108F1002D
:103644003008F0003708F7003608F6003508F500B2
:103654003408F400A03100209A3170084001AC070E
:103664007108AD3D7208AE3D7308AF3D2C08A80744
:103674002D08A93D2E08AA3D2F08AB3D27082B0293
:10368400031D4E2B26082A02031D4E2B2508290252
:10369400031D4E2B240828020318522B0130080066
:1036A400003008004301680803195D2B6808F40022
:1036B400E801740808008B1340016F08F10044010D
:1036C4005808F300D80143016A08F0004401570880
:1036D400F200D7018B17F40173080319912B4301EE
:1036E4006908031D7B2BFA307302031C7B2B033008
:1036F4008C2B6908031D842B19307302031C842B43
:1037040002308C2B6908031D8D2B03307302031CBC
:103714008D2B0130F4004401D6014301E901193035
:103724007102031CA32B43016908031DA32B013061
:10373400E90074080319A12B0230E800A32B02301E
:10374400F400FA307102031CB62B44015608031D21
:10375400B62B0130D60074080319B42B033043018F
:10376400E800B62B0330F40072080319CF2B0230A3
:103774007202031CCD2B0A3072020318CD2B4301B5
:103784006808031DCD2B74080319CB2B0430E80003
:10379400CD2B0430F4004401D50114307002031C15
:1037A400E92B44015508031DE92B40010F1DE92BAA
:1037B40001304401D5007408031DE32B0530F400E7
:1037C400E92B43016808031DE92B0530E800710863
:1037D400031DF32B7308031DF32B4401D60143018E
:1037E400E9017008031D5B2B7208031D5B2B440168
:1037F400D5015B2BDA01A83195209B317308400178
:10380400D8007208D7007108D6007008D500AB3113
:10381400B9239B3122304001AF00DE30B000FB30D1
:10382400B1000030A63119269B31A831BD209B314F
:1038340040018D1A1F2C64001A2CA8313B209B31A7
:1038440040015A08A73180279B3164009B315423DF
:103854009B314001D9005908031D4D2CA8319520F6
:103864009B31400155087002D1005608713BD200CB
:103874005708723BD3005808733BD4005408031D07
:10388400A22C5308031DA22C60305102EA30523B93
:103894000318A22C272CA83195209B3173084001D2
:1038A400D8007208D7007108D6007008D50002301D
:1038B4005906031D7A2C0F30F0000030F1005A082D
:1038C400013EF200003003180130F300AF31BD2790
:1038D4009B317008DA005A08A73180279B314001D8
:1038E4008D1A762C6400712CA8313B209B31272C37
:1038F4005903031D272C0C305A020318932C5A0821
:10390400AC3E8600023087005A08AC3E8400023088
:1039140085000008F0005A08AE3106269B3181006C
:10392400232C0C305A06031D9A2CAE31BC269B3135
:103934000D3040015A06031DA22C983100209B3102
:10394400A53138250800430167080319080044011C
:1039540053080319402D51080319292DD030400173
:10396400B0000730B1000030B2000030B3004401B1
:103974005108FF3E890A4001C32CB035B10DB20D88
:10398400B30D890BBF2CA83195209C314501480803
:1039940070024001B40045014908713B4001B50083
:1039A40045014A08723B4001B60045014B08733B90
:1039B4004001B70033083702031DEA2C32083602EF
:1039C400031DEA2C31083502031DEA2C30083402A9
:1039D4000318292DA83195209C3145014408700213
:1039E4004001B00045014508713B4001B10045016B
:1039F4004608723B4001B20045014708733B400151
:103A0400B3003308031D0F2D3208031D0F2DE830BA
:103A140030020330313B031C0800A83195209C314F
:103A240073084501C7007208C6007108C500700814
:103A3400C400A8314B209C31003A031D252D0130D0
:103A44004401D2000800440152080319080044014B
:103A5400D201063051020318312D0130D107003054
:103A6400AE317E269C312C30F0000130F100A831BB
:103A74006F209C310130AE317E2608004001B80130
:103A840043016608013E0339E6006608283E8600C5
:103A94000230870066082C3E84000230850000084E
:103AA4000102031C592D6608A4317A240800013050
:103AB4004001B8070430380203180800422DF8000A
:103AC40045012E08F7000E3043016E02D930031968
:103AD4006D0203186F2D0130F7077818742D40011B
:103AE4009917762D40019913F8187B2D4001191769
:103AF4007D2D400119137819822D40019916842DCA
:103B040040019912F819892D400119168B2D400195
:103B14001912781A902D40019817922D400198138C
:103B2400F81A972D40011817992D40011813781B86
:103B34009E2D40019816A02D400198127318A52DB2
:103B440040019616A72D40019612F318AC2D4001A2
:103B54009A14AE2D40019A107319B32D4001961793
:103B6400B52D40019613F319BA2D40011617BC2D3B
:103B740040011613731AC12D40011814C32D4001BE
:103B84001810F31AC82D40019814CA2D400198103A
:103B9400731BCF2D40011815D12D40011811740845
:103BA4000319D72D40011A14D92D40011A10991563
:103BB4007708F500F6017508F0007608F100A831E1
:103BC4006F209D31400199111A30890BE72D003285
:103BD400400118127708F500F6017508F000760820
:103BE400F100A8316F209D31400118167708F500C7
:103BF400F6017508F0007608F100A8316F209D31B8
:103C04000F30400199051830980596129A109613B2
:103C140016131A100530F0000030F100A8316F209F
:103C24009D3178087F394401E70073087F39E80043
:103C3400740803191F2E0130202E0030E9000800FB
:103C4400B200BA013A08AB3166239E31003040011C
:103C5400B7000030B6000030B5000030B400B30146
:103C64007C0833020318682E320841019E00353067
:103C7400890B3A2E00004101131413183F2E0D082E
:103C84004001B90041010C084001B8000330390279
:103C9400E93003193802031C532E02303A06031D7F
:103CA400682E03303902FF3003193802031C5D2EDD
:103CB40001304401D00040013808B4073908B53D4B
:103CC4000030B63DB73D0130B307322E33087C06D1
:103CD4000319B22E0130BA07242E0330B435B50DC2
:103CE400B60DB70D890B702EBA2E0430B435B50D50
:103CF400B60DB70D890B782EBA2E43016D08F0006E
:103D04006E08F100F201F30140013708F7003608AC
:103D1400F6003508F5003408F400A03100209E3187
:103D240070084001AD007108AE007208AF0073085E
:103D3400B0000A30B036AF0CAE0CAD0C890B9C2E23
:103D44000330AD35AE0DAF0DB00D890BA32E300889
:103D5400B7002F08B6002E08B5002D08B400BA2EFF
:103D64003A08003A03196F2E013A0319772E7F2E71
:103D74007C08AD00AE01AF01B0013008A3002F08EC
:103D8400A2002E08A1002D08A0007C08B10001307B
:103D9400B136890BCA2E31083407A400350803183C
:103DA400350F0310A50036080318360F0310A600BC
:103DB40037080318370AA700A23176222108FD002C
:103DC4002008FC00080044014B08031DFF2E40019D
:103DD40068088600690887000108EC000230EC36A8
:103DE400890BF12E6C08ED00EE016D084101CC0049
:103DF40040016E084101CD00042F01304101CC0087
:103E04000030CD004C08D30044014B08031D212F82
:103E14004001680886006908870041310108EC0008
:103E24000230EC36890B132F6C08ED00EE016D089F
:103E34004101CE0040016E084101CF00262F013020
:103E44004101CE000030CF004E08D4005308031DBA
:103E54002D2F0130D3005408031D322F0130D4001C
:103E6400D001D20140016808860069088700403FFC
:103E74004101DA00413FDB00423FDC005308F0001F
:103E840052088F3E8400FB300318013E8500000871
:103E9400A8310D209E31F3004001680886006908AE
:103EA40087000108A931D9219E314101DA00540863
:103EB400F0005208873E8400FB300318013E850061
:103EC4000008A8310D209E31F300400168088600E7
:103ED4006908870041310108A931D9219E31410186
:103EE400DB00400168088600690887000108410179
:103EF4005A06031D882F4001680886006908870058
:103F0400413141015B0801060319CE2F5B084001D2
:103F1400E30041015C084001E4002030E500D530B5
:103F2400E6000030E70041015A08883165209E31DF
:103F34004101D10051080319A12F51080800D530BF
:103F44004001A0000030A1006B08A3006A08A20091
:103F54009A31AF229E31003A0319CE2F68088600A9
:103F64006908870041015A08C03F5B08C13F5C08EB
:103F7400C23FD53086000030870040016A088400C3
:103F84006B0885000530EC0016001A00EC0BC62FF8
:103F940001304101D000342F01304101D2070830F3
:103FA4005202031C342F5008031D322F5303031DE8
:103FB400E02F5403031DE02F003008000230F0000E
:103FC4000030F1005308013EF200003003180130C4
:103FD400F300A23129229E317008D3000230F00090
:103FE4000030F1005408013EF200003003180130A3
:103FF400F300A23129229E317008312F0030FB00DA
:104004000030FA000030F9000030F800701C12286B
:104014007408F8077508F93D7608FA3D7708FB3D02
:104024000130F435F50DF60DF70D890B1328013029
:10403400F336F20CF10CF00C890B1A287308720495
:1040440071047004031D08287B08F3007A08F20049
:104054007908F1007808F00008007408F600730885
:10406400F5000730F636F50C890B34282530F000BE
:104074007308A8310D20A0317506FB0056287B0873
:10408400F500F601F535F60DF030F7002A30F800AA
:104094007508770786007608783D870016000104C6
:1040A400031971280130FB077B08F500F601F5358B
:1040B400F60DF030F7002A30F8007508770786000F
:1040C4007608783D8700403FF900413FFA007408C4
:1040D4007A06031D6F2873087906031D41287B089F
:1040E40008000030AE317E26A03140011716971526
:1040F40050010C108B134E0196127E01C9164E010D
:1041040016166430F0000030F100A8316F20A031A1
:104114007E01CA12630000004001B201A2288D1A78
:10412400A62805304001B1000F30B000F130890BF2
:104134009928B00B9928B10B992801304001B20796
:1041440010303202031C912810303206031D8328DC
:104154004E0116127E01C912CA124E018C12961615
:104164008B1750010C14A3316C230800F70073085B
:10417400F4000430F436890BBC280A3074020318A6
:10418400CA280F307305F4000A307402031CD328C4
:104194007708CB3E8400FA300318013E85000008FE
:1041A40008000F307305F4000A30F0007308F500BE
:1041B4000430F536890BDB287508A8310D20A031B1
:1041C4007407F6007708E33E8400FA300318013ED2
:1041D400850000087602031CCA287708D73E8400AD
:1041E400FA300318013E85000008F40076087402D2
:1041F400031CCA287608080064004401D001400169
:104204005A08FC0008309E312226A0317D08DC00CB
:104214007C08DB005A08FC000A309E312226A031BB
:104224007D08DE007C08DD005A08FC000A309E315F
:104234002226A0317D08E0007C08DF005A08FC003B
:1042440008309E312226A0317D08E2007C08E1007E
:104254005908AE005808AD005C08B0005B08AF0018
:104264005E08B2005D08B1006008B4005F08B300E6
:104274006208B6006108B5008C31DB24580886005A
:10428400870152314401500881000800B3002D0811
:1042940084002E0885001200031908002D088400EC
:1042A4002E0885000008AA315122A1317708400167
:1042B400B2007608B100B60105303602031C652948
:1042C400B401B50173293608310784003208031894
:1042D400013E85000008AF00B0012F08B40030088B
:1042E400B5003308AF000330AF35890B76292F08AA
:1042F400F3003408F4000830F5002C083607903138
:104304002E20A13101304001B60706303602031CCD
:104314005E290130AD070030AE3D0630AC074929B7
:1043240001304001A700AA317122A1314001A60148
:10433400B3296030F300F930F4001C30F500AA31E1
:10434400D422A1314001A70027080319B029643001
:10435400F0000030F100A8316F20A131013040019C
:10436400A6070A3026020318BA292708031D9B2929
:1043740027080319BF29270808000430A500A6014F
:104384002608FE3EF7000F30F800FA30F90010302E
:10439400FA002508AF313B27A131A7041030A60746
:1043A40080302602031CC2290130A50708302502EB
:1043B4000318BD29C129F600023070020318EF2941
:1043C400F50176307602031CED297B307602031862
:1043D400ED290130F5007508080002307006031954
:1043E400FF291F3070060319FF2975307602031C5C
:1043F400FF297C307602031C012A01300800753045
:1044040076060319112A7B3076060319112A033024
:1044140070060319112A1E307006031D132A00307A
:1044240008000030F30071081D3CF200031CF30384
:104434007308803AF40080307402031D232A700844
:1044440072020318272A0130080000300800F50121
:10445400F11F332AF009F109F00A0319F10A0130B6
:10446400F500F31F3C2AF209F309F20A0319F30ACF
:104474000130F506F601F701700871040319692A81
:104484000130F400F11B4E2A0130F035F10D890B97
:10449400472A0130F407442A0130F635F70D890B19
:1044A4004F2A71087302031D592A70087202031CF3
:1044B400602A7008F2027108F33B76140130F13679
:1044C400F00C890B612A0130F402031D4E2A750891
:1044D4000319712AF609F709F60A0319F70A770886
:1044E400F1007608F00008000030AB000030AA00AC
:1044F4000030A9000030A80023082204210420046D
:104504000319BD2A0130AC00A31B922A0130A03547
:10451400A10DA20DA30D890B892A0130AC07862AAF
:104524000130A835A90DAA0DAB0D890B932A2308D8
:104534002702031DA72A22082602031DA72A2108F1
:104544002502031DA72A20082402031CB22A2008DE
:10455400A4022108A53B2208A63B2308A73B281454
:104564000130A336A20CA10CA00C890BB32A013094
:10457400AC02031D922A2B08A3002A08A2002908D2
:10458400A1002808A00008004F08013E0F39CF0001
:104594000130CE074E084001A00044015C084001F0
:1045A400A1005C30F3000230F400A9310F21A231E4
:1045B4004001A200440162084001A30044015F08D5
:1045C4004001A4005F30F3000230F400A9310F2150
:1045D400A2314001A500440163084001A600203037
:1045E400F0000730F10090310020A2314001A70013
:1045F40044014F08FB000330FB35890BFE2A7B087E
:10460400703E4001A800A9012908203E86008701C8
:104614000108F80028082907AB311923A231013019
:104624004001A9070830290203180800062B440199
:104634006D0840014206031D232B44016C08400110
:1046440041060319080042084401ED0040014108F5
:104654004401EC000030400142026430031941027D
:104664000318482B3C30AF004208AC004108AB00B3
:10467400AD01AD0A0330AE00A8312B20A331B00048
:104684000230B1000030A631192608000A30F000CB
:104694000030F1004108053EF2000030423DF300D5
:1046A400AC31C424A3317108C4007008C3003C3089
:1046B400AF004408AC004308AB00AD010330AE00CA
:1046C400A8312B20A331B0000230B1000030A63154
:1046D400192608004001A601A7010030AB3166236A
:1046E400A3314001A801093041019E003530890BF6
:1046F400792B00004101131413187E2B0D0840017F
:10470400A50041010C084001A4002408A6072508BF
:10471400A73D0130A80708302802031C752B04307C
:10472400A0000030A1000030A2000030A300260841
:10473400F0002708F100F201F3010030F700003027
:10474400F6000030F5000B30F400A0310020A33156
:1047540070084001A0077108A13D7208A23D7308CA
:10476400A33D0330A336A20CA10CA00C890BB42BDF
:1047740021084301EE00400120084301ED00080038
:104784007008860087014431403FF400413FF50042
:10479400423FF600433FF700700886008701483126
:1047A400403FF800413FF900423FFA00433FFB001D
:1047B40077087B02031DE82B76087A02031DE82B99
:1047C40075087902031DE82B74087802031CF32B87
:1047D4000030F3000030F2000030F1000030F0004F
:1047E40008007008860087014831403FF400413FCB
:1047F400F500423FF600433FF7007008860087014A
:104804004431403FF800413FF900423FFA00433F42
:10481400FB007408F8027508F93B7608FA3B770840
:10482400FB3B7B08F3007A08F2007908F100780872
:10483400F00008000030FB000030FA000030F900FE
:104844000030F800730872047104700403193A2CE0
:1048540073087702031D382C72087602031D382C66
:1048640071087502031D382C70087402031C432C54
:104874000130F3000030F2000030F1000030F000AD
:104884000800FC010130F435F50DF60DF70D890B28
:10489400452C0130F835F90DFA0DFB0D890B4C2C24
:1048A40073087702031D602C72087602031D602CC6
:1048B40071087502031D602C70087402031C6B2CB4
:1048C4007008F4027108F53B7208F63B7308F73B75
:1048D40078140130FC0718307C02031C442C7B083C
:1048E400F3007A08F2007908F1007808F000080073
:1048F4004001AF002F082C3E8600023087000108DB
:10490400AE002F08283E8600023087000108AD0063
:104914002F082C3E860002308700FF3081002F08CC
:10492400283E86000230870081012E082D02031CD8
:1049340008002E08F7002F08A500A6010730A535AA
:10494400A60D890BA12CF030A7002C30A800250857
:104954002707A9002608283DAA002E082907AB002E
:1049640000302A3DAC002B08F8002C08F9002E0872
:104974002D02013EFA002F08AF313B27A431003A43
:104984000319D42CA831E520A43101304401D40703
:1049940005305402031CD12C0130D3000800AA3185
:1049A400712208004401D301D101D4010800410857
:1049B400860042088700403F4401BC00413FBD00DF
:1049C400423FBE000130400143020030443B00300E
:1049D400453B0130463B0318FF2C40014608450186
:1049E400C300400145084501C20040014408450197
:1049F400C100400143084501072D01304501C300B2
:104A04000030C2000030C1000030C0004308400143
:104A1400B000450142084001AF0045014108400192
:104A2400AE00450140084001AD00A7310527A4317F
:104A34002E084301E40040012D084301E300400136
:104A4400410886004208870041310108F30041080B
:104A540086004208870042310108F40041088600BC
:104A64004208870001089D3161250800AF317C2789
:104A7400A5317708B3007608B200A931BE21A5316B
:104A84004001B4013408233E860087013408203EE7
:104A9400B731DB27A531810001304001B4070F3065
:104AA4003402031C442D5E302306031D0800330822
:104AB4002406031D080025083206031D08002F30B4
:104AC400B731DB27A531FD002330F0000F30F100B2
:104AD40090310020A5317D06031D08004001B4017A
:104AE4003408033E233E860087013408E33E8400F5
:104AF400FA300318013E850000080102031CA02DB2
:104B04003408033E233E860087013408D73E8400E0
:104B1400FA300318013E85000008FD0001087D02FB
:104B2400031CA02D3408AC3E8600023087003408F4
:104B3400033E233E84008501000881000130B40750
:104B44000C30340203180800722DAB010130A000B0
:104B54000030A1002B0AB02DA035A10D890BAE2D7C
:104B64004401450840012005A200440146084001D3
:104B74002105A3002208230403190F2E0330F0009B
:104B84002B08A8310D20A5313F3E86000330870055
:104B940001084001A4000330F0002B08A8310D20C7
:104BA400A5313F3EF3000330F400A9310F21A531B4
:104BB4004001A5002B08333E86000330870001081E
:104BC400A6002B08A03E8600023087000108A7003B
:104BD4002430F0000430F10090310020A531400170
:104BE400A8000530F0002B08A8310D20A531303E77
:104BF4004001A900AA012A08243E86008701010871
:104C0400F80029082A07AB311923A53101304001E6
:104C1400AA0705302A02031CFD2D0130AB070C3016
:104C24002B02031CA82D4401C501C6010800B700CE
:104C34003708031D202EB801B901242E1230B80004
:104C44000030B9003808BE003008840031088500FF
:104C54001200031908003008840031088500000898
:104C6400AA315122A63177084001B6007608B50072
:104C7400C0010A304002031C422EBA01BB01562E69
:104C84004008B2000130B236890B452E3208350790
:104C9400840036080318013E85000008B300B401FF
:104CA4003308BA003408BB003A08BF003F080F3984
:104CB400AA313122A631BC003F08B2000430B2361A
:104CC400890B612E3208AA313122A631BD003E087B
:104CD400F3003C08F4000830F5002F084007903139
:104CE4002E20A63140013E08083EF3003D08F400A2
:104CF4000830F5002F08400790312E20A6310130EE
:104D04004001C0070C304002031C3B2E0130B007A9
:104D14000030B13D0C30AF07262EAA0140012A080D
:104D2400233E860087010A30F0000030F1007A0843
:104D3400F3007908F200AB318F23A6317008303EBE
:104D440081000130AA070A30F0000030F1007A082F
:104D5400F3007908F200AC31C424A6317108FA00DA
:104D64007008F9002A087B06031DC02E2A08233E7A
:104D7400860087012E3081000130AA0779087A0461
:104D8400031D902E7B080319E62E7B08013EA0002C
:104D9400003003180130A1002108803AA2008030BD
:104DA4002202031DD72E2A082002031CE62E902E71
:104DB4007708860078088700203081000130F707E3
:104DC4000030F83D0130FC027C0840012A0203183F
:104DD400FC2EDA2E77088600780887000130AA02B4
:104DE4002A08233E84008501000881000130F7076A
:104DF4000030F83D2A08031DEC2E77088600780859
:104E04008700810108003008F3002F08F2002E0803
:104E1400F1002D08F00099317121A7317108C0000B
:104E24007008BF0010304002003003193F02031C19
:104E3400212FE7304001AD000330AE000800003000
:104E4400B1001030B2003F083102A0004008323BEC
:104E5400A100A201A3010030B3001030B4003F0848
:104E64003302B5004008343BB600B636B50C3508FD
:104E7400B7003608B800B901BA013F08003EF00097
:104E84001030403DF100F201F3010030F700003032
:104E9400F6000030F5006430F400A0310020A731A2
:104EA40070084001B7077108B83D7208B93D73082E
:104EB400BA3D3A08A7003908A6003808A500370803
:104EC400A400A2317622A7312308BE002208BD0027
:104ED4002108BC002008BB003E08031D1B2F3D0811
:104EE400031D1B2FE8303B0203303C3B03181B2FF0
:104EF40040013C08AE003B08AD000800D000AB31D7
:104F0400B923A7310C30400150020318D22F44308A
:104F1400AB000030AC005008013EAD000030031877
:104F24000130AE00AF01A8315D20A7312C08B100DB
:104F34002B08B0001230B200FC30B300A931262196
:104F4400A731AC014430AD000030AE000030A131D7
:104F54004821A731AC015008C100C201C135C20DBE
:104F64009430410784007930423D80388500003F09
:104F7400AD00013FAE000130A1314821A7315008F6
:104F8400AC3E8600023087000108B6005008933119
:104F94005B23A731AF016330B0000330B100F92FB8
:104FA400AC01A630AD00FA30AE000030A13148218A
:104FB400A7310C3050060319F02F0D305006031999
:104FC400E72F0430CE00FC30EA2F1330CE00FB3044
:104FD400CF004F08CD004E08CC00F42FF530CC00A4
:104FE400FB30CD00AF014D08B1004C08B0000130DA
:104FF400A6311926A731A831BD2008004301EC01D0
:1050040040014408C2004308C100AC313A24A8312D
:10501400A831BD200800F200F101721C13287008A9
:10502400F1070310F00D0310F20C7208031D0F2892
:1050340071080800410193019401950196019D01B5
:105044009C019B01143093009317FF304401EE0040
:105054000800E430F7000230F8002C08FA002B08AE
:10506400F9002D08FB002E08FC00A6318F26E43041
:1050740008008B134401D801D7018B174301E801C1
:1050840001304401D6004301E90001304401D50058
:105094000800A831A920A8317830AC31F624A83111
:1050A400F300A8318220A8317308031D5B28013066
:1050B4000800003008002C08F8002B08F7002E0820
:1050C400FA002D08F9002F08FB00FC01A6318F26F9
:1050D4007808AC007708AB0008000130F00200301B
:1050E400F13B700A0319710A0319080064000B30BC
:1050F400F2006230890B7C28F20B7C2800326F2886
:10510400400116111A30890B85280032400196158A
:105114001A30890B8B280032400116151A30890B7E
:105124009128003208008B1344012708F700260851
:10513400F6002508F5002408F4008B177708F3001F
:105144007608F2007508F1007408F00008004001C8
:10515400161596151A30890BAD2800324001161128
:105164001A30890BB3280032400196111A30890B8A
:10517400B9280032080043016708031908004401F4
:105184005308031D0800FC017C08A4317A24A831CB
:105194000130FC0704307C0203180800C6284301D0
:1051A400EC014001AF013C30B000FB30B1000130F4
:1051B400A6311926A831AB31E323FF304401EA00BC
:1051C400FF30EB000800F00170082C3E860002302E
:1051D400870081017008283E8600023087007F30F6
:1051E40081000130F0070430700203180800E6283B
:1051F400A8319520A8317308B3007208B200710871
:10520400B1007008B000B731C527A831003A031DBA
:1052140008000130AE317E26080073088600740849
:10522400870042310108031D1A29F501F6011E29E0
:105234008030F5000030F60073088600740887009B
:1052440041310108750408003108870030088600E0
:10525400B00A0319B10A3308B5003208B400B20A1F
:105264000319B30A34088400350885000008C03FD8
:105274008908031908002629A831952078087002A6
:105284004001A0007908713BA1007A08723BA2009A
:105294007B08733BA3002308FB002208FA002108C3
:1052A400F9002008F80008009B315423A931F600C6
:1052B40003307606031D63297608B731C827013009
:1052C40008000130F500760303196D2902307606D3
:1052D40003196D29F501750808004A08C200490838
:1052E400C1004C08C4004B08C300AD315E25A93190
:1052F400A831BD20A93140014C08F1004B08F00051
:10530400A8316F20A931A831D1200800F401F5019A
:10531400701C90297208F4077308F53D0130F235CA
:10532400F30D890B91290130F136F00C890B962984
:1053340070087104031D8A297508F1007408F000CF
:1053440008000030A3000130A2008630A100A03084
:10535400A00050302D07A400C3302E3DA50000301E
:105364002F3DA6000030303DA700A231762221084F
:10537400AE002008AD000800F8017808AC3E8600B5
:10538400023087007808703E8400F7300318013E2D
:1053940085000008F3007808A031B820A931810005
:1053A4000130F8070C30780203180800BF29F50013
:1053B40075087307F600F7010318F70AF31BF703E0
:1053C400F71FE629003008007708803AF40080309F
:1053D4007402031DEF2980307602031CF3297F3009
:1053E40008007608080073088600740887007508AA
:1053F4007F3981007308860074088700413176087C
:105404007F3981007308860074088700423176086A
:10541400F7000730F736890B0C2A7708810008005B
:105424000130AE317E26AA31AC319424AA316430E5
:105434006F02031C202A9B31FC23AA31AD31952530
:10544400AA31A8313B20AA31A83195207308B300B2
:105454007208B2007108B1007008B0000800F100D1
:10546400F201F3010130F000730A392AF035890B97
:10547400382A700871050319492A0330F00073357E
:10548400890A452AF035890B442A7008F204013050
:10549400F30704307302031C342A72080800FC006A
:1054A4007C08E03EFD0060307D020318FD017D08AC
:1054B400F800F9017808F0007908F1000530F200ED
:1054C4000030F300A93188218030FA00F730FB0066
:1054D40070087A07F60071087B3DF7000800400168
:1054E400161596151A30890B752A0032F0018A2A8E
:1054F40040010C198E2A96111A30890B7F2A00322A
:10550400400196151A30890B852A00320130F007C4
:1055140009307002031C7A2AA83182200800F8009E
:105524007808730203189B2A73087802F700780836
:105534009F2A78087302F7007308F5000130F6001B
:1055440003307702031CB02A7508F4000330F436E4
:10555400890BA92A77087402031CF601760808004F
:10556400F20072082C3E86000230870001087002A7
:105574000318C32A72082C3E860002308700700884
:1055840081007208283E86000230870071080102FB
:10559400031808007208283E86000230870071084C
:1055A40081000800A831A920AA317830AC31F62452
:1055B400AA31F6000030AC31F624AA310130F502EC
:1055C400750A0319F22A7308840074088500000818
:1055D400AC31F624AA310130F3070030F43DE02A5F
:1055E400A831822076080800203086000330870026
:1055F4004431403F4001AD00413FAE00423FAF0067
:10560400433FB000A931A321AA312E08C2002D08BE
:10561400C100A3311923AA31440148084001C20042
:10562400440147084001C100AC313A240800FA00A3
:105634007A08B731DB27AB317806031908001E1747
:1056440070309B007A089A0078089C000B0D0B0DB3
:105654000139F9008B131E1555309F00AA309F00A5
:105664009E14790C031C8B1303188B173A2B6400BC
:1056740050019E18392B1E110800FC007008F2001E
:10568400F3017C08F400F5010730F435F50D890BBE
:10569400472B7108F600F7010E30F635F70D890B2C
:1056A4004F2B74087604F80075087704F900720823
:1056B4007804FA0073087904FB0000307A04F000DF
:1056C40080307B04F1000800F200720844016E0689
:1056D400031908007208EE0002307206031D752BD0
:1056E40041019A018A2B720803197A2B02307B2B11
:1056F4000130F0000030F10052010C087006FC3952
:1057040070068C008C170C1F852B033041019A0006
:10571400A0300032890B8B2B080070087104031928
:10572400B42B0130F400F11B9F2B0130F035F10D47
:10573400890B982B0130F407952B71087302031D14
:10574400A52B70087202031CAB2B7008F2027108BF
:10575400F33B0130F136F00C890BAC2B0130F40231
:10576400031D9F2B7308F1007208F0000800F70175
:10577400F8017708F100F2010730F135F20D890BD9
:10578400BF2BF030F3002C30F40071087307F500E0
:105794007208743DF6007808750786000030763D7F
:1057A400870081010130F80780307802031CBB2B8D
:1057B4000130F70704307702031CBA2BA831E52027
:1057C40008004001AF014030B000FB30B1000130AF
:1057D400A6311926AB3144016208031DF62B6B3048
:1057E4004001C100FA30FA2B1A304001C100FC30EC
:1057F400C200AF014208B1004108B0000130A63137
:105804001926AB312A30AF002D30B000FC30B10086
:105814000130A631192608004001C30145013608AC
:105824000319372C7C0886007D088700403F40011F
:10583400AD00413FAE00423FAF00433FB000A7314F
:105844000527AC3145013608643E4001C1000030F3
:1058540003180130C2002E084202031D332C2D0808
:105864004102031C372C0130C300400143080800E7
:1058740044016B0840014206031D442C44016A089C
:10588400400141060319080043016C08031D080088
:10589400400142084401EB00400141084401EA0090
:1058A4003C304001AF004208AC004108AB0002307C
:1058B400AD000430AE00A8312B20AC31B000023072
:1058C400B1000130A63119260800FA007A08F9005F
:1058D4000330F935890B6B2C7908703EFB00FC0111
:1058E40078087C07860087017B087C07B731DB27B3
:1058F400AC3181000130FC0708307C02031C722C9F
:105904007808073E840085017808F0000730F1002C
:1059140090310020AC310006031D922C01300800A8
:1059240000300800AB31B923AC311C304001AF006A
:10593400CA30B000FB30B1000030A6311926AC31BA
:105944001F30AC000730AD00FB30AE000230A13197
:105954004821AC310D30AC00FD30AD00F930AE0063
:105964000330A1314821AC31A831BD20AC31400114
:105974009711B830F0000B30F100A8316F204001CE
:1059840097150800F401F501700871040319F12C4E
:105994000130F600F11BD62C0130F035F10D890BE6
:1059A400CF2C0130F607CC2C0130F435F50D890BE2
:1059B400D72C71087302031DE12C70087202031CBA
:1059C400E82C7008F2027108F33B74140130F136CC
:1059D400F00C890BE92C0130F602031DD62C750856
:1059E400F1007408F0000800F000F201F01FFD2C33
:1059F40040011615FF2C400116111A30890B002D99
:105A04000032400196151A30890B062D00324001F0
:105A140096110310F00D0130F20708307202031CD6
:105A2400F82C16151A30890B152D003240019615E5
:105A34001A30890B1B2D003240010C0C890C0139E2
:105A4400F10096111A30890B252D003271080800D7
:105A54004001CD01CE0150019318342D4001CD01F8
:105A6400CE014B2D13183B2D7E304001CD00FB3071
:105A74004A2D131A422D9F304001CD00FB304A2D90
:105A8400931B462D131F4B2D50304001CD00FB308E
:105A9400CE003F305001930040014D084E040319DD
:105AA40008004E08CA004D08C900D030CB000730AA
:105AB400CC00A9316F210800AF013C30B000FB30AD
:105AC400B1000130A6311926AD31AF014208B10051
:105AD4004108B0000130A6311926AD31013043012F
