:1000000080314128A0340F347E14803100308600C6
:10001000003087004E018C1E3F288C1201304401B5
:10002000A4070030A53DA63DA73D0130C6070A3014
:100030004602031C3F28C60140018D1A25286F0A7D
:1000400003192D280130EF072D286F0803192D28DB
:100050006F084401D4004001EF018F183628430196
:100060006C0A03193F280130EC073F2843016C0854
:1000700003193F286C084401D3004301EC017E10B2
:100080000900803143284301803102208031ED0096
:10009000803103208031EE000230840090308500F2
:1000A00044011200EA001200EB001200EC00120002
:1000B000ED001200EE00F0308400283085000030A2
:1000C000FE000730FF00B631F42680314001EF0119
:1000D0004301E801E901EA01EB01EC012030840071
:1000E000023085004A30FE000030FF00B631F426B1
:1000F0008031A0308400023085004C30FE0000309A
:10010000FF00B631F42680312030840003308500B2
:100110004330FE000030FF00B631F4268031A030BD
:100120008400033085001330FE000030FF00B6313C
:10013000F4267E1040018A313E2A4301BA01BD01F6
:1001400044015B08031DBB284301C5014535F03E52
:10015000860087012A30873D45350030873D0030D5
:10016000C03FC13F0130C507031DA6284401B901A6
:10017000BA01C101C201DB01C501C401C3014501CE
:100180002F084101E900EA01EB01EC016C08F300E2
:100190006B08F2006A08F1006908F0000030F7000F
:1001A0000130F6008630F500A030F400AB317C233E
:1001B000803173084501BF007208BE007108BD00A0
:1001C0007008BC0030084101E900EA01EB01EC01D4
:1001D0006C08F3006B08F2006A08F1006908F0008F
:1001E0000030F7000F30F6004230F5004030F400E8
:1001F000AB317C23803173084501BB007208BA0023
:100200007108B9007008B80001304401A300003043
:10021000A2000030A1000130A00041016508860065
:1002200066088700403F4401E400413FE500423F4B
:10023000E600422922304201EA00FC30EB000430A3
:10024000EC000230ED0096304401B7000030402948
:10025000B6304201EA00FB30EB000730EC0004301E
:10026000ED00F4303D29FF304201EA00FB30EB00A5
:100270000530EC000330ED005E304401B700013082
:10028000B8004B2945013708013A03191A29023AE7
:10029000031928293329410165088600660887006B
:1002A000403F4301C600413FC700423FC8004708E6
:1002B0004001E300430148084001E4002030E5002C
:1002C000BF30E6000130E700430146088831402096
:1002D00080314301BE003E08031DF92EBF30FC00F3
:1002E0000130FD00AA31F5228031003A031994292A
:1002F000C6304001C1000130C20043014208400144
:10030000C600430141084001C500430140084001C7
:10031000C40043013F084001C300A3319F23803143
:1003200090318C2000300800410168084201E9004A
:10033000410167084201E8004301C5016A0845021E
:100340000318362A0330F0004508B7310D278031F5
:100350002C3E4301BB003B088600033087000108A8
:100360004606031DC4293B0A8600033087000108A6
:100370004706031DC4293B08023E86000330870060
:10038000010848060319322A3B088600033087001B
:100390000108031DD2293B0A8600033087000108AB
:1003A0000319322A3B088600033087000330413F9F
:1003B0004001E30043013B0886000330870003301F
:1003C000423F4001E4001030E500A030E60001307B
:1003D000E70043013B0886000330870001088831AD
:1003E000402080314301BE0003303E060319362A07
:1003F0003E08031DF92E42082302031D092A410865
:100400002202031D092A40082102031D092A3F0870
:1004100020020318322A3B08860003308700403F41
:10042000C600413FC700423FC800A03086000130EF
:100430008700BF3084000130850005304101E900AC
:1004400016001A00E90B202A43014508203E8600C9
:10045000033087000108643E4201E80000300318C1
:100460000130E90001304301C5079E2942016808B7
:1004700069040319B02A01304401C300C6304101A8
:10048000DD000130DE00BF30DF000130E0009331DD
:10049000022380314301BE004401C3010330430104
:1004A0003E06031D652AB430F300AA30F400BD30C7
:1004B000F500C630F6000130F700BF30F80001301B
:1004C000F9009831DD208031A52D3E08031DF92E5D
:1004D000BF30FC000130FD00AA31F5228031003A26
:1004E000031D78294501360803199F2A4301420854
:1004F0004001B000430141084001AF004301400802
:100500004001AE0043013F084001AD00A631832603
:10051000803142016808053E4101E9000030420196
:10052000693D4101EA0040012E0841016A02031DB4
:100530009D2A40012D084101690203187829B43031
:10054000F300AA30F400BD30F500C630F6000130EB
:10055000F700BF30F8000130F9009831DD2080311C
:100560004201EE0102306E0203180D2D4301C50158
:1005700042016C08430145020318092D4201EF01B5
:100580006C086F020318052D4301450842016A07F4
:1005900084006B080318013E850000084301C60073
:1005A00042016F086A0784006B080318013E85004A
:1005B00000084301C70042016E084301C800470814
:1005C0004001E300430148084001E4001030E50029
:1005D000BF30E6000130E700430146088831402083
:1005E00080314301BE0003303E060319A52D3E08AD
:1005F000031DF92EC4013A0844020318662B033088
:10060000F0004408B7310D278031023E593E860084
:1006100001308700010842016E06031D622B430171
:100620004408343E86000130870001084101E9009A
:10063000430145084101E90201306907EA0003303E
:100640006A020318622B43014408393E86000130D8
:10065000870001084101E90042016F084101E902F8
:1006600001306907EA0003306A020318622B053083
:10067000F00043014408B7310D278031403E860029
:1006800001308700403F4101E900413FEA00423F1D
:10069000EB00433FEC006C0843014202031D602B5A
:1006A00041016B0843014102031D602B41016A08AF
:1006B00043014002031D602B4101690843013F02D1
:1006C0000318662B01304301C407FB2A3A08440291
:1006D000031C012DC4013A0844020318282C0330DE
:1006E000F0004408B7310D278031023E593E8600A4
:1006F00001308700010842016E06031DA72B43014C
:100700004408343E86000130870001084101E900B9
:10071000430145084101E90201306907EA0003305D
:100720006A020318A72B43014408393E86000130B2
:10073000870001084101E90042016F084101E90217
:1007400001306907EA0003306A02031CAB2B013059
:100750004301C4076B2B43014408BC003C08013E25
:100760004101E900003003180130EA006A08803ACC
:10077000EB0080306B02031DC12B43013A0841019D
:1007800069020318242C0330F00043013C08B73100
:100790000D278031033E593E860001308700403FDF
:1007A0004101E900413FEA00423FEB000330F00025
:1007B00043013C08B7310D278031593E8600013096
:1007C000870041016908C03F6A08C13F6B08C23F0A
:1007D0000530F00043013C08B7310D278031053E5C
:1007E000403E8600013087000530F00043013C08A0
:1007F000B7310D278031403E84000130850005303F
:100800004101E90016001A00E90B022C43013C08E3
:10081000343E8600013087003C08013E343E8400AF
:1008200001308500000881003C08393E8600013017
:1008300087003C08013E393E8400013085000008F5
:1008400081000130BC07AE2B01304301BA026B2B93
:100850003A08C400902C42016D0843014402031879
:100860008E2C0330F0004408B7310D278031FD3E57
:10087000593E860001308700403F4101E900413F79
:10088000EA00423FEB000330F00043014408B73177
:100890000D278031593E86000130870041016908EB
:1008A000C03F6A08C13F6B08C23F0530F0004301FA
:1008B0004408B7310D278031FB3E403E86000130B1
:1008C00087000530F00043014408B7310D2780311F
:1008D000403E84000130850005304101E9001600EA
:1008E0001A00E90B6F2C43014408343E86000130A6
:1008F00087004408FF3E343E840001308500000834
:1009000081004408393E8600013087004408FF3EDC
:10091000393E840001308500000881000130C402A6
:1009200044080319BE2C0530F0004408B7310D27E8
:100930008031FB3E403E860001308700403F410150
:10094000E900413FEA00423FEB00433FEC006C0806
:1009500043014202031DBC2C41016B0843014102CB
:10096000031DBC2C41016A0843014002031DBC2C3D
:100970004101690843013F02031C2B2C42016D0811
:10098000430144020318012D0330F0004408B7313D
:100990000D278031593E860001308700430146080B
:1009A000C03F4708C13F4808C23FBF308600013002
:1009B00087000530F0004408B7310D278031403EF4
:1009C00084000130850005304101E90016001A005D
:1009D000E90BE62C43014408343E860001308700D1
:1009E000450881004408393E8600013087004201F5
:1009F0006F0881006D0843013A020318012D013090
:100A0000BA0701304201EF07C02A01304301C50790
:100A1000B82A01304201EE07B22A440123084001FE
:100A2000B000440122084001AF0044012108400108
:100A3000AE00440120084001AD00A631832680317C
:100A40002E08C2002D08C100B731002780314301B4
:100A5000C5013A0845020318A52D0330F0004508EA
:100A6000B7310D278031593E860001308700403F65
:100A70004301C600413FC700423FC8000530F000B7
:100A80004508B7310D278031403E86000130870090
:100A9000BF3084000130850005304101E9001600B7
:100AA0001A00E90B4F2DC630DD000130DE00BF30EB
:100AB000DF000130E0009331022380314301BE00AA
:100AC0003E080319672D03303E06031DF92EB4308E
:100AD000F300AA30F400BD30F500C630F600013056
:100AE000F700BF30F8000130F9009831DD20803187
:100AF000440123084001B000440122084001AF0036
:100B0000440121084001AE00440120084001AD002D
:100B1000A631832680312E08C2002D08C100B731CE
:100B200000278031033043013E060319A52DBF3055
:100B3000FC000130FD00AA31F5228031003A031D8E
:100B4000A52D01304301C507292D4301C501DC2D29
:100B50000330F0004508B7310D278031B43E8600E0
:100B600001308700010844016406031DD92D0330BC
:100B7000F00043014508B7310D278031013EB43EF6
:100B8000860001308700010844016506031DD92D48
:100B90000330F00043014508B7310D278031023E94
:100BA000B43E86000130870001084401660603193F
:100BB000E02D01304301C5073D084502031CA82D67
:100BC000430145083D06031D132E3D080319F12D71
:100BD000440138084202031DEF2D37084102031C6F
:100BE000132E440123084301C2004401220843019B
:100BF000C100440121084301C00044012008430111
:100C0000BF00C301B430F300AA30F400BD30F500DA
:100C10006430F6000230F700BF30F8000130F90010
:100C20009831DD2080314301C5013D08450203189C
:100C30006B2E0330F0004508B7310D278031013E9F
:100C4000B43E86000130870001084101ED00033009
:100C5000F00043014508B7310D278031023EB43E14
:100C600086000130870001084101EE000530F000E8
:100C700043014508B7310D278031AA3E4101EF00FD
:100C80000330F00043014508B7310D278031B43EF1
:100C900086000130870001084201B30041016D0860
:100CA0004001E30041016E084001E4004030E500EE
:100CB00041016F084001E6000130E70042013308BE
:100CC0008831402080314301BE003E08031DF92ECB
:100CD0000130C507152E4001E301E4014030E50075
:100CE000A530E6000130E700003088314020803137
:100CF0004301BE003E08031DF92E4201BE01023031
:100D000043013D02031C972E2D083202031D922E33
:100D10002C083102031D922E2B083002031D922E47
:100D20002A082F020318972E01304201BE0042010B
:100D30003E084301C5000530F0004508B7310D27D6
:100D40008031AA3E4001A0000130A100A530A200E0
:100D50000130A300993182218031003A031DD82E41
:100D60004301C801C701C601C6304001C1000130BE
:100D7000C200430128084001C60043012708400182
:100D8000C500430126084001C40043012508400175
:100D9000C300A3319F2380310030430169027930C1
:100DA000031968020318D62E00300800033008002B
:100DB0000330F00043014508B7310D278031B43EC0
:100DC0004001C1000130C2000530F0004301450878
:100DD000B7310D278031AA3E860001308700403FA1
:100DE0004001C300413FC400423FC500433FC6002D
:100DF0008D2964304001C1000230C2004401230843
:100E00004001C600440122084001C50044012108F8
:100E10004001C400440120084001C300A3319F23C6
:100E2000803143013E030319202F04303E0603198D
:100E30001B2F01301C2F04304201BF003F08080067
:100E400002300800FD007308A0000330A036890BB3
:100E5000262F2008FC0073080739FB000130A00092
:100E6000750A332FA035890B322F2008FF3EFA0078
:100E70007A08A000A1017B0A3F2FA035A10D890BA4
:100E80003D2F2008F6002108F70074087A05A0001D
:100E9000A1017B0A4D2FA035A10D890B4B2F2008F6
:100EA000F8002108F90080307D02031808000430A2
:100EB0007C020318972F7C08A000A1010730A03501
:100EC000A10D890B5F2FF030A2002C30A300200869
:100ED0002207A4002108233DA5007D0824078600E1
:100EE0000030253D87007C08A600A7010730A63505
:100EF000A70D890B772FF030A8002C30A900260809
:100F00002807AA002708293DAB007D082A0784008E
:100F100000302B3D850076090005780481007D08AE
:100F2000F0007D08F1007C08A931992187317B0808
:100F3000031908007C08013EA000003003180130AE
:100F4000A1002108803AA20080302202031DAA2FAE
:100F500004302002031808007C084001A000A10111
:100F60000730A035A10D890BB12F7030A2002D30B4
:100F7000A30020082207A4002108233DA5007D0826
:100F8000240786000030253D87007C08A600A701C5
:100F90000730A635A70D890BC92F7030A8002D305A
:100FA000A90026082807AA002708293DAB007D08CC
:100FB0002A07840000302B3D85007709000579045D
:100FC00081007D08F0007D08F1007C08013EA93118
:100FD00099210800B731982787317308B300720848
:100FE000B2007108B1007008B000B631CB2687316D
:0E0FF000003A031D08000130AD3162250800F3
:1010000071087302031D062870087202031C0E2863
:1010100070087202FA007108733B1328720870029C
:10102000FA007308713BFB0071087302031D1A2854
:1010300070087202031C20287308FD007208232820
:101040007108FD007008FC007D08F7007C08F600C0
:10105000F736F60CF736F60CF736F60C740876070A
:10106000F8007508773DF9007B087902031D3A28DE
:101070007A087802031C3E2801300800003008007E
:101080004101B70040016308F0006408F10041012C
:101090003708AA31262288317108B6007008B500D9
:1010A000AA01AB013608F4003508F300983100209E
:1010B00088314101B800B401403040016506031990
:1010C000FD2841013808A000A101A035A10DF03094
:1010D000A2002A30A3002008220786002108233D11
:1010E0008700403FA400413FA50036082506031DA8
:1010F0007B2835082406031DEE283808A000A1012E
:10110000A035A10DF030A2002830A300200822074E
:1011100086002108233D87001600FF3AA400160030
:10112000FF3AA4040319BC283808A000A101A03587
:10113000A10DF030A2002830A3002008220786006D
:101140002108233D8700403FA400413FA50024081B
:10115000A6002508A700A801A9010830A635A70DFB
:10116000A80DA90D890BAE282908AF002808AE00EC
:101170002708AD002608C3280130AF000030AE00BC
:101180000030AD000030AC00400166088600670802
:10119000870041012C08C03F2D08C13F2E08C23FE7
:1011A0002F08C33F40016608860067088700443166
:1011B00041013808F03E840085012E30853D00084D
:1011C00081000130440120020030213B0030223BED
:1011D0000130233B0318FD29003008004401380882
:1011E0004202031DF52837084102031CF928033089
:1011F00008000130C1070030C23D40016308F30020
:101200006408F400410137089C3132248831A83148
:10121000BF208831003A03190F2901300800B93086
:101220004001D8000030D9006508DA00AF31B62798
:10123000883141014B080319312901304401C407A9
:1012400040304402031C26290430080001304101CB
:10125000C8000030C7000030C6000030C500CA0119
:10126000932945013F0841014002031D47294501DB
:101270003E0841013F02031D472945013D08410148
:101280003E02031D472945013C0841013D02031C64
:101290006129B930F0000030F100A2318822883194
:1012A000730845013B02031D5F2972083A02031DC2
:1012B0005F2971083902031D5F297008380203187D
:1012C000852944014508031D6A29E8304101B00021
:1012D00003306E292C304101B0000130B1000130E3
:1012E000AA070030AB3D2B083102031D79292A08DB
:1012F000300203187D29023008000A30F000003067
:10130000F100B7315F278831072901304401C5005A
:10131000C40141014908031D93290130B40703307A
:101320003402031C0729400166088600670887000D
:1013300041014508C03F4608C13F4708C23F480831
:10134000C33F4001660886006708870044314101B9
:101350004A0881004030400165060319EC2800303E
:1013600044013A02FF30031939020318FD294101F3
:101370003835F03E860087012A30873D3835003009
:10138000873D3508C03F3608C13F01304802031889
:10139000DE2941014508A0004608A1004708A20037
:1013A0004808A3000830A336A20CA10CA00C890B9E
:1013B000D3292108B3002008B200E329FF304101FE
:1013C000B200FF30B3003835F03E86008701283088
:1013D000873D38350030873D3208C03F3308C13F74
:1013E0003808F03E860087012E30873D4A0881008C
:1013F00001304401B9070030BA3D4001660886005B
:1014000067088700403F4101A000413FA100423FE3
:10141000A200433FA3004401230841012302031D0E
:10142000212A4401220841012202031D212A4401EC
:10143000210841012102031D212A44012008410104
:1014400020020318EC284001660886006708870020
:10145000403F4401A000413FA100423FA200433F62
:10146000A300410137084401E4004001630844013E
:10147000E500400164084401E600EC28AC31B424E6
:101480008A314301E6015001931813184A2A0130AA
:101490004301E60043016608E500A5312C258A31A9
:1014A000B7311C278A31A23132228A31A7317E27F7
:1014B0008A31A331FE238A31003A0319702A5C086D
:1014C000E7005D08E8005E08E90043016508031DC8
:1014D0007B2A44015D08F3005E08F4005C08782A6A
:1014E000E201E301E101E001DF01F301F401003079
:1014F0009C3132248A3144016308031D822ABF01D2
:10150000C001892A6308643EBF000030031801301F
:10151000C00040011915A831F9208A31AC311124DD
:101520008A3150010C14B73198278A31730845016C
:10153000DF007208DE007108DD007008DC005F0863
:10154000E3005E08E2005D08E1005C08E00063087B
:10155000E7006208E6006108E5006008E40067084B
:10156000EB006608EA006508E9006408E80064002A
:101570009A3127228A314301E70067030319C42AFD
:1015800002306706031DEE2AB631CB268A31003AB7
:10159000031DEE2A8731EA278A314301E701EE2A4B
:1015A0008731EA278A3144016208031DD92A0130B4
:1015B000DA2A0030A4315F248A31002B94319B2435
:1015C0008A31002B01304401D600002B8731EA27F5
:1015D0008A310130A4315F248A31002B430167082E
:1015E000013A0319D02A033A0319DE2A013A0319F2
:1015F000E22A073A0319E62A013A0319DE2A002BE8
:1016000045016708FB006608FA006508F9006408F0
:10161000F800A83109208A317B08031D192B7A08AC
:10162000031D192B7908031D192B32307802031C76
:10163000282BB73198278A3173084501E7007208D3
:10164000E6007108E5007008E400963134268A311E
:10165000440157080319302BD70194319B248A3158
:1016600045016308FB006208FA006108F9006008A0
:10167000F800A83109208A317B08031D492B7A081C
:10168000031D492B7908031D492B96307802031C52
:10169000582BB73198278A3173084501E300720847
:1016A000E2007108E1007008E000A931DD218A3113
:1016B00045016B08FB006A08FA006908F900680830
:1016C000F800A83109208A317B08031D702B7A08A5
:1016D000031D702BB83078020B30793B031C7F2B35
:1016E000B73198278A3173084501EB007208EA0088
:1016F0007108E9007008E800AD31A0258A31440185
:101700005A080319A12B45015B08FB005A08FA008F
:101710005908F9005808F800A83109208A317B08D7
:10172000031D9C2B7A08031D9C2B7908031D9C2B01
:101730001E307802031CA12B4401DA0140019715E9
:101740001716440159080319C12BB73198278A315C
:101750004501540870024301DD0045015508713B05
:101760004301DE0045015608723B4301DF0045019D
:101770005708733B4301E000E01BC12BB731C02782
:101780008A3145015F08FB005E08FA005D08F90038
:101790005C08F800A83109208A317B08031DD92B89
:1017A0007A08031DD92B303078027530793B031C41
:1017B000E82BB73198278A3173084501DF0072089A
:1017C000DE007108DD007008DC00B631C8268A3101
:1017D000B631CB268A31003A0319362C45012C0844
:1017E0000319362C44013308FB003208FA00310893
:1017F000F9003008F800A83109208A31780843013F
:10180000DD007908DE007A08DF007B08E000450192
:101810002C084301E100E201E301E4016408F30064
:101820006308F2006208F1006108F0000030F70080
:101830000030F600EA30F5006030F400AB317C2374
:101840008A31730843016002031D302C72085F0265
:10185000031D302C71085E02031D302C70085D02E0
:10186000031C362C0030AD3162258A3145012D082C
:1018700003197D2C44013308FB003208FA003108BB
:10188000F9003008F800A83109208A3178084301AE
:10189000DD007908DE007A08DF007B08E000450102
:1018A0002D084301E100E201E301E4016408F300D3
:1018B0006308F2006208F1006108F0000030F700F0
:1018C0000030F600EA30F5006030F400AB317C23E4
:1018D0008A31730843016002031D782C72085F028D
:1018E000031D782C71085E02031D782C70085D02C0
:1018F000031C7D2C03304401D60044015608031913
:10190000D72C033056020318AB2C8731EA278A31D3
:10191000AA31A0228A3144015603031D962C0B30B4
:101920004001AF004C30B000FB309C2C1130400126
:10193000AF008D30B000FB30B1000930A431C224BB
:101940008A31B73185278A31DC30F0000530F1006B
:10195000B7315F278A314401D601AE31E3268A319F
:10196000A831F9208A31B73198278A3173084501A7
:10197000DF007208DE007108DD007008DC005F081F
:10198000E3005E08E2005D08E1005C08E000630837
:10199000E7006208E6006108E5006008E400670807
:1019A000EB006608EA006508E9006408E8009B317E
:1019B00077238A31B72A0130B7000030B8000030F1
:1019C000B9000030BA003508BB003608BC00BD01C4
:1019D000BE012F08BF003008C000C101C2013F088E
:1019E000BB074008BC3D4108BD3D4208BE3D3B0829
:1019F000B7073C08B83D3D08B93D3E08BA3D013047
:101A0000BA36B90CB80CB70C890B002D2D0886001E
:101A10002E0887003708C03F3808C13F0130B700A3
:101A20000030B8000030B9000030BA003308BB0005
:101A30003408BC00BD01BE013108BF003208C0003F
:101A4000C101C2013F08BB074008BC3D4108BD3D84
:101A50004208BE3D3B08B7073C08B83D3D08B93DCC
:101A60003E08BA3D0130BA36B90CB80CB70C890B38
:101A7000332D2D088600870142313708C03F3808D2
:101A8000C13F2D0886002E088700403FB700413F28
:101A9000B8003708F0003808F100F201F301450101
:101AA00033084001B900BA01BB01BC013C08F70092
:101AB0003B08F6003A08F5003908F400AB317C2306
:101AC0008C3173084001D3007208D2007108D10034
:101AD0007008D0002D0886002E088700403FB70010
:101AE000413FB8003708F4003808F500F601F70167
:101AF0002D0886002E088700403FB900413FBA00FC
:101B00003908F0003A08F100F201F301AB317C230F
:101B10008C3170084001BB007108BC007208BD0028
:101B20007308BE000630BE36BD0CBC0CBB0C890B66
:101B3000932D3E08D7003D08D6003C08D5003B0851
:101B4000D4005308F3005208F2005108F100500885
:101B5000F0000030F7000030F6000030F5001930DA
:101B6000F400AB317C238C3170084001B700710860
:101B7000B8007208B9007308BA000130BA36B90C5F
:101B8000B80CB70C890BBE2D0030A3000030A200AA
:101B90000030A1006430A0005708F3005608F2009E
:101BA0005508F1005408F00045013408643EF40083
:101BB000003003180130F500F601F51BF603760836
:101BC000F700AB317C238C3173084001A700720809
:101BD000A6007108A5007008A400A1313C218C3139
:101BE0002008B7072108B83D2208B93D2308BA3DAF
:101BF0002D088600870144313708C03F3808C13FAF
:101C00003908C23F3A08C33F2D0886008701423198
:101C1000403FB700413FB8003708F0003808F100F6
:101C2000F201F301450133084001B900BA01BB01DB
:101C3000BC013C08F7003B08F6003A08F5003908FB
:101C4000F400AB317C238C3173084001D30072085F
:101C5000D2007108D1007008D0002D0886008701DD
:101C60004231403FB700413FB8003708F400380820
:101C7000F500F601F7012D08860087014231403F4B
:101C8000B900413FBA003908F0003A08F100F2010A
:101C9000F301AB317C238C3170084001BB0071082B
:101CA000BC007208BD007308BE000630BE36BD0C15
:101CB000BC0CBB0C890B562E3E08D7003D08D60045
:101CC0003C08D5003B08D4005308F3005208F2004A
:101CD0005108F1005008F0000030F7000030F60025
:101CE0000030F5001930F400AB317C238C317008E2
:101CF0004001B7007108B8007208B9007308BA0053
:101D00000130BA36B90CB80CB70C890B812E0030F3
:101D1000A3000030A2000030A1006430A0005708EA
:101D2000F3005608F2005508F1005408F000450190
:101D30003408643EF400003003180130F500F60169
:101D4000F51BF6037608F700AB317C238C31730862
:101D50004001A7007208A6007108A5007008A40041
:101D6000A1313C218C312008B7072108B83D220859
:101D7000B93D2308BA3D2D08860087014831370850
:101D8000C03F3808C13F3908C23F3A08C33F2D0859
:101D9000860087014431403FF000413FF100423F5F
:101DA000F200433FF3002D08860087014831403F91
:101DB000F400413FF500423FF600433FF700A231F7
:101DC000E2228C312D08860087014C317008C03F1B
:101DD0007108C13F7208C23F7308C33FCD0130088C
:101DE000F1002F08F0003608F3003508F200183033
:101DF000F4000030F500883100208C31003A0319DE
:101E0000152F3208F1003108F0003408F3003308D0
:101E1000F2001830F4000030F500883100208C31D9
:101E2000003A0319152F0130CD002D0886008701D7
:101E300050314D08810030083602031D212F2F0834
:101E40003502031C562F35083604031D2A2FC50101
:101E5000C601522F3508A0003608A100A201A30137
:101E60002F083502B7003008363BB8003708B900F4
:101E70003808BA00BB01BC010830B935BA0DBB0D3A
:101E8000BC0D890B3D2F3C08A7003B08A6003A0873
:101E9000A5003908A400A1313C218C312108C600DD
:101EA0002008C5004608C40045087D2F2F08A00063
:101EB0003008A100A201A30135082F02B70036089F
:101EC000303BB8003708B9003808BA00BB01BC0184
:101ED0000830B935BA0DBB0DBC0D890B692F3C0814
:101EE000A7003B08A6003A08A5003908A400A131C4
:101EF0003C218C312108C4002008C3003208340280
:101F0000031D842F31083302031CB92F3308340416
:101F1000031D8D2FC901CA01B52F3308A000340855
:101F2000A100A201A30131083302B7003208343BFB
:101F3000B8003708B9003808BA00BB01BC01083046
:101F4000B935BA0DBB0DBC0D890BA02F3C08A700FD
:101F50003B08A6003A08A5003908A400A1313C219D
:101F60008C312108CA002008C9004A08C800490865
:101F7000E02F3108A0003208A100A201A30133081C
:101F80003102B7003408323BB8003708B9003808CE
:101F9000BA00BB01BC010830B935BA0DBB0DBC0D90
:101FA000890BCC2F3C08A7003B08A6003A08A500E7
:101FB0003908A400A1313C218C312108C800200837
:101FC000C70043084707CE004408483DCF00013012
:101FD0004F02003003194E020318F52F4E08B700C8
:101FE000B8013708CB003808F82FFF30CB0000309D
:101FF000CC002D088600870151314B088100080074
:10200400FF34FF34FF34FF34FF340B302E02B8307A
:1020140003192D0203181228B830AD000B30AE009E
:1020240010302E02693003192D02031C1D2868305C
:10203400AD001030AE000030A3000030A200043028
:10204400A100B030A0002D08483EF000F4302E3D31
:10205400F100F201F3010030F7000030F600003027
:10206400F5001A30F400AB317C2390317308400141
:10207400A7007208A6007108A5007008A400A13189
:102084003C2190312008B0007330B200B301B1019B
:10209400B4013308AF000330AF35890B4E282F0845
:1020A4003407F0003008F1003208A031A320903149
:1020B400003A0319672801304001AF00340A63284D
:1020C400AF35890B62282F08B10401304001B407F1
:1020D40008303402031C4B283308AF000330AF35FB
:1020E400890B71282F08F3003108F4000830F5003B
:1020F400320887312227903101304001B307043080
:102104003302031C49280130B2077E30320203181F
:10211400080048284001A401A201003043016902DB
:10212400C93003196802031808004401340803196C
:102134003508031908004001A501A60143016A08F6
:10214400400125020318DF280330F0002508B731C9
:102154000D2790312C3E8600033087000108031DB3
:10216400C1280330F00040012508B7310D27903114
:102174002D3E86000330870001080319DB28013057
:102184004001A60726030319D4282508A03E86008B
:10219400023087000108F9002408F902803079022E
:1021A4000318DB282508A03E8600023087000108BA
:1021B400A40001304001A507A028A60143016A0834
:1021C40040012602031822290330F0002608B73103
:1021D4000D2790312E3E860003308700010844010C
:1021E4003606031D1E293408F3000330F0004001B5
:1021F4002608B7310D2790312C3E86000330870026
:102204000108A93178219031003A03191E294401AB
:102214003508F3000330F00040012608B7310D27DC
:1022240090312D3E8600033087000108A9317821C2
:102234009031003A031D222901304001A607E0280D
:102244004001260843016A06031D4F294001A601E7
:1022540049290330F0002608B7310D2790312C3E70
:102264008600033087000108031D46290330F0006F
:1022740040012608B7310D2790312D3E86000330EA
:102284008700010803194F2901304001A6074301C3
:102294006A0840012602031C2B2940012608430139
:1022A4006A06031D75290C306A0203185C29013083
:1022B400EA0775294001A501A6012508A03E86006C
:1022C4000230870001082402A30022082302031C11
:1022D4006F292308A2002508A6000130A5070C30A9
:1022E4002502031C5F290330F00040012608B731A2
:1022F4000D2790312C3E86000330870044013408BA
:10230400C03F3508C13F3608C23F430168089C3EC0
:10231400F900FF30693DFA0001307A0200300319F8
:10232400790203189E2968089C3E4001A000FF30F2
:102334004301693D4001A229FF304001A000003063
:10234400A1002608203E8600033087002008810073
:102354002608A03E8600023087002408013E810042
:102364000130F9000030FA00260ABA29F935FA0DCD
:10237400890BB82979084401BB047A08BC04080015
:10238400B9005030C000DA2A3608031DD4294008A9
:10239400B0000330B100F330B200FB30B300A83119
:1023A400212008004008AB000330AC003608B70019
:1023B400B8013708AD003808AE00AF01B7314D277A
:1023C40091312C08B1002B08B0000E30B200FC3063
:1023D400B300A831212008004008AB000330AC0052
:1023E4003608B700B8013708AD003808AE00AF01B1
:1023F400B7314D2791312C08B1002B08B0002A3099
:10240400B200FC30B300A831212008004008AB0022
:102414000330AC003608B700B8013708AD003808FF
:10242400AE00AF01AF0AB7314D2791312C08B1008E
:102434002B08B0003C30B200FC30B300A83121209E
:1024440008004008AB000330AC003608B700B80100
:102454003708AD003808AE00AF01B7314D279131D0
:102464002C08B1002B08B0003C30B200FC30B300A3
:10247400A831212008004008AB000330AC00360826
:10248400F63EAD00FF3003180030AE00AF01AF0AD6
:10249400B7314D2708003608031D542A5230BA00BC
:1024A400FB30572A3930BA00FC30BB004008B0007A
:1024B4000330B1003B08B3003A08B200A831212030
:1024C40008004008AB000330AC003608B700B80180
:1024D4003708AD003808AE00AF01AF0AB7314D2759
:1024E40008004008AB000330AC003608643EAD0081
:1024F400003003180130AE000230AF00B7314D2771
:1025040008004008AB000330AC003608B700B8013F
:102514003708F0003808F1000A30F2000030F30008
:10252400A8315220913171084001AE007008AD000D
:10253400AF01B7314D2791312C08B1002B08B00001
:102544002A30B200FC30B300A8312120080036083C
:10255400031D732A4008B0000330B1000930B200F3
:10256400FC30B300A8312120080036030319CB2A1C
:10257400033036060319C22AD230BE00FB30C52A06
:102584006030BE00FB30BF003F08BD003E08BC0009
:10259400CF2AE730BC00FB30BD004008B000033058
:1025A400B1003D08B3003C08B200A8312120080066
:1025B4003908D13E8400FA300318013E8500000832
:1025C400003A0319C629013A0319EE29033A0319FB
:1025D400082A013A0319232A073A03193D2A013A22
:1025E40003194D2A033A0319632A013A0319732A7A
:1025F4000F3A0319832A013A0319A92AB72A0800B2
:102604005E084001E90041015D084001E800410124
:1026140060084001EB0041015F084001EA009D3180
:10262400B62593314201AA002A0803191B2B2A0854
:102634000800A9012908031D262B41015D08860015
:102644005E08870041312B2B41015D0886005E083E
:1026540087000108E100E20161084201A000410194
:1026640062084201A1002008A60044014308031D9A
:102674004E2B420126084101E1000230E136890B6C
:10268400402B6108E200E30162084201A20041011B
:1026940063084201A300532B01304201A200003021
:1026A400A3002208A6000230260203185E2B013084
:1026B400A4000030A500692B26084101E100E201D5
:1026C40061084201A400410162084201A5002408F6
:1026D400A7000130A80041015D0886005E0887005C
:1026E400403F4201B000413FB100423FB2002908DF
:1026F40003198B2B2708F0002808B7310D279331D5
:10270400F30042013008A831A32093314201B00004
:10271400992B2708F0002808B7310D279331F300CF
:1027240042013108A831A32093314201B100410193
:102734005D0886005E088700010842013006031D1B
:10274400AE2B41015D0886005E08870041314201DD
:10275400310801060319092C31084001E300420144
:1027640032084001E4002030E5002B30E60001305F
:10277400E700420130088831402093314201AA0029
:102784002A08031D192B30304001E8000130E9000C
:102794002B30EA000130EB00420129084001EC0033
:1027A4009E31D12693314201AA002A08031D192B18
:1027B4002B304001A0000130A1004101600840011C
:1027C400A30041015F084001A200993182219331A5
:1027D400003A0319092C41015D0886005E08870050
:1027E40042013008C03F3108C13F3208C23F2B309C
:1027F40086000130870041015F088400600885007D
:102804000530E10016001A00E10B042C022BFE3007
:102814004201A8072808803A813E03186D2B023034
:102824002702031C1F2C27084101E1000130E13677
:10283400890B192C610842016A2B0130A907023067
:102844002902031C1C2B41015D0886005E088700D9
:10285400403F4201B000413FB100423FB20001306D
:10286400B20631084001E300420132084001E400AD
:102874002030E5002B30E6000130E700420130084B
:102884008831402093314201AA002A08031D192BE4
:1028940041015F08860060088700403FE100413F36
:1028A400E200423FE300433FE4000130E135E20D42
:1028B400E30DE40D890B582C640842012E02031D1C
:1028C400732C4101630842012D02031D732C410145
:1028D400620842012C02031D732C4101610842016C
:1028E4002B020318992C30304001E8000130E90034
:1028F4002B30EA000130EB009D31B62593314201C3
:10290400AA002A08031D192B2B304001A000013016
:10291400A100410160084001A30041015F0840019A
:10292400A200993182219331003A031DED2B00302E
:102934000800440167084301D900440168084301C1
:10294400DA00440169084301DB008731EA27943146
:102954004001971119114401D9014001AF014230DE
:10296400B000FB30B1001230A431C2249431AF0165
:102974003D30B000FB30B1001230A431C224943198
:10298400FF304401EA00FF30EB00B7318527943172
:102994004301D301440155080319EA2C2F08FB0015
:1029A4002E08FA002D08F9002C08F800A831092097
:1029B40094317B08031DEA2C7A08031DEA2C60304D
:1029C4007802EA30793B0318EA2C01304301D30042
:1029D400430153084401DB005B08031DF52C43014C
:1029E400D701D801FC2C42084301D8004401410816
:1029F4004301D70044016208031D032D6308031D2E
:102A0400072D4301CB01CC010F2D6308643E430124
:102A1400CB00003003180130CC0067304101E500E1
:102A24000230E60043014C084101E80043014B0831
:102A34004101E70080319D2094314301DC00D40141
:102A44004401670843015906031D362D44016808F3
:102A540043015A06031D362D4401690843015B06F0
:102A6400031D362D0130D4005408D6005C08031928
:102A74004C2D03305C0603194C2D560803194C2DBC
:102A840044013D083E040319B62D3E08C0003D082C
:102A9400BF00B62D5C0803195C2D03305C060319D6
:102AA4005C2D44016708031D5C2D6808031969083F
:102AB40003195E2D4401E2016208031DA32D4301A5
:102AC4005C08031D6C2D44016708031D702D680804
:102AD400031D702D4301CD01CE01A02D43016808D3
:102AE4009C3EC900FF30693DCA0001304A020030F3
:102AF400031949020318952D003069026630031941
:102B0400680203188A2D0130D1000030D200902DC4
:102B140068089C3ED100FF30693DD2005208D000C5
:102B24005108CF00992DFF30CF000030D0004F085E
:102B3400C900CA014908CD004A08CE004D08440125
:102B4400E300430169084401C000430168084401EB
:102B5400BF00430169084401BE0043016808440101
:102B6400BD00B631E82694314301D5015C03031D51
:102B7400D02D4401420843015802031DC52D4401D0
:102B84004108430157020318D02D57085804031D68
:102B9400CE2D5608031DD02D0130D5005508440113
:102BA400D50055080319D82DBF01C001AA31CA2286
:102BB4009431FF304401EA00FF30EB003E0840014D
:102BC400BF0044013D084001BE00AD3127259431CA
:102BD40043015C03031DF32D84304001BE00FB3030
:102BE400112E03305C06031DFC2D7B304001BE001A
:102BF400FB30112E02305C06031D092E1D304001EE
:102C0400BE00FC30BF00E830C0000330152E043095
:102C14005C06031D192E72304001BE00FB30BF005C
:102C2400D030C0000730C100AC3145249431B631F6
:102C3400C82694314001191597154401D801B731BC
:102C440098277308AF007208AE007108AD007008D1
:102C5400AC002F08B3002E08B2002D08B1002C08D8
:102C6400B0000800B7319827963173084101A500D8
:102C74007208A4007108A3007008A200AB304001E0
:102C8400D8000030D9000430DA00AF31B6279631CD
:102C940041013D0803195E2E44015908031D5E2EAF
:102CA40072304001BE00FB30BF00D030C00007309E
:102CB400C100AC3145249631AB308600003087002A
:102CC4004431403F4001AD00413FAE00423FAF00C0
:102CD400433FB000A8316D2096312E084101A10078
:102CE40040012D084101A0002008210403197D2E74
:102CF4008731EA2796314701270841013202031D33
:102D0400932E4701260841013102031D932E4701EA
:102D1400250841013002031D932E47012408410177
:102D24002F020318D72E450135084001E300E401C2
:102D3400E501E6016608F3006508F2006408F100A5
:102D44006308F0000030F7000030F6000030F500B2
:102D54000A30F400AB317C2396314501500841011F
:102D640022024001E700450151084101233B400193
:102D7400E800450152084101243B4001E9004501B6
:102D840053084101253B4001EA0073086A02031D10
:102D9400D52E72086902031DD52E71086802031D21
:102DA400D52E70086702031CF62EAB308600003067
:102DB4008700A03084000330850013304001E30015
:102DC40016001A00E30BE22E410125084501D30049
:102DD400410124084501D200410123084501D100E5
:102DE400410122084501D000AB3086000030870045
:102DF4004C31403F4001AD00413FAE00423FAF0087
:102E0400433FB000A631832696312E084101AA0023
:102E140040012D084101A90045012F084001E300AC
:102E2400E401E501E6016608F3006508F2006408C0
:102E3400F1006308F0000030F7000130F60086303E
:102E4400F500A030F400AB317C23963173084101C6
:102E54003202031D372F72083102031D372F710808
:102E64003002031D372F70082F02031C3B2F013043
:102E74003C2F0030A80028080319472F2A084401D2
:102E8400BE00410129084401BD0045013108F63E58
:102E9400F000FF3003180030F1000A30F200003077
:102EA400F300A8315220963171084101A70070083F
:102EB400A600450132080319FD2F44016208031DD1
:102EC400FD2F410128080319FD2F45013008400159
:102ED400E300E401E501E6016608F3006508F20099
:102EE4006408F1006308F0000030F7000F30F600CA
:102EF4004230F5004030F400AB317C239631700849
:102F04004001E7007108E8007208E9007308EA006C
:102F1400AB30F0000030F100A23188229631730802
:102F240040016A02031DA02F72086902031DA02F2D
:102F340071086802031DA02F70086702031CFD2F8F
:102F440041013B080319FD2F00302A02793003198F
:102F54002902031CFD2F44012F08FB002E08FA0050
:102F64002D08F9002C08F800A831092096317B08B7
:102F7400031DC52F7A08031DC52FB83078020B3006
:102F8400793B031CFD2F4101260844013F07400102
:102F9400E300410127084401403D4001E4004101B0
:102FA4002A0840016402031DDB2F41012908400166
:102FB4006302031CF32F4101260829074001E300A3
:102FC400410127082A3D4001E40044014008400132
:102FD4006402031DF12F44013F08400163020318FA
:102FE400FD2F01304401D80704305802031C0800A7
:102FF4000130D70008004401D80108007408F60025
:103004007308F5000730F636F50C890B05282530D2
:10301400F0007308B7310D2798317506FB00272897
:103024007B08F500F601F535F60DF030F7002A308F
:10303400F8007508770786007608783D8700160043
:103044000104031942280130FB077B08F500F6014F
:10305400F535F60DF030F7002A30F80075087707DB
:1030640086007608783D8700403FF900413FFA002A
:1030740074087A06031D402873087906031D122874
:103084007B0808000030A3000030A2000030A1003B
:103094000030A0004030A7000030A6000030A5009A
:1030A4000030A40027087302031D62282608720258
:1030B400031D622825087102031D6228240870027A
:1030C4000318D2280230A736A60CA50CA40C890B31
:1030D4006528542820082407F4002108253DF5001C
:1030E4002208263DF6002308273DF70077087302DF
:1030F400031D862876087202031D8628750871024E
:10310400031D862874087002031CC42820082407A1
:10311400F4002108253DF5002208263DF600230889
:10312400273DF7007408F0027508F13B7608F23B7E
:103134007708F33B2408F4002508F5002608F60078
:103144002708F7002008F8002108F9002208FA00EF
:103154002308FB000130FB36FA0CF90CF80C890B40
:10316400AD287808F4077908F53D7A08F63D7B0820
:10317400F73D7708A3007608A2007508A10074083B
:10318400A000CB280130A336A20CA10CA00C890B03
:10319400C5280230A736A60CA50CA40C890BCC2894
:1031A4002708260425042404031D6C282108F100A3
:1031B4002008F000080075088600013087000230FE
:1031C40001020318ED287508860001308700010804
:1031D400810AFA004C297408860001308700403FB8
:1031E4004001A000413FA100423FA200433FA30091
:1031F4007408053E860001308700403FA400413F2B
:10320400A500423FA600433FA70023082702031D51
:10321400152922082602031D152921082502031D4C
:10322400152920082402031C192901301A29003009
:10323400FA000530F0007A08B7310D279831740789
:103244004001A0002008860001308700403FA10013
:10325400413FA200423FA300433FA40078088600F8
:1032640079088700403FA500413FA600423FA700E0
:10327400433FA80024082802031D4A2923082702E3
:10328400031D4A2922082602031D4A292108250272
:10329400031808007608860077088700403F40013D
:1032A400A000413FA100423FA2000330F0007A0891
:1032B400B7310D27983173074001A3002308860016
:1032C400013087002008C03F2108C13F2208C23FC7
:1032D40078088600790887000530F0007A08B7314D
:1032E4000D27983174074001A000200884000130A4
:1032F40085000530A10016001A00A10B7D290800E5
:10330400FF30A400FF30A500FF30A6001F30A70047
:1033140022088600230887004431200884002108FD
:103324008500043100080107A800A901A90D290D91
:10333400A90CA80C290DA90CA80C2808AA00290876
:10334400AB000030AB1BFF30AC00AD002A08A40575
:103354002B08A5052C08A6052D08A7050130240770
:10336400B4000030253DB5000030263DB6000030E5
:10337400273DB7002208860023088700403FA400A9
:10338400413FA500423FA600433FA7004030A800AC
:103394000030A9000030AA000030AB0020088600ED
:1033A40021088700403FAC00413FAD00423FAE00E2
:1033B400433FAF002208860023088700403FB00047
:1033C400413FB100423FB200433FB3000830B3363F
:1033D400B20CB10CB00C890BE9293308F3003208A4
:1033E400F2003108F1003008F0003708F700360821
:1033F400F6003508F5003408F400AB317C2399312C
:1034040070084001AC077108AD3D7208AE3D730809
:10341400AF3D2C08A8072D08A93D2E08AA3D2F086A
:10342400AB3D27082B02031D212A26082A02031D6F
:10343400212A25082902031D212A24082802031809
:10344400252A0130080000300800440150080319FF
:10345400302A5008F400D001740808008B1340018E
:103464006F08F10044015408F300D40143016C08CF
:10347400F00044015308F200D3018B17F4017308E0
:103484000319642A43016B08031D4E2AFA307302A0
:10349400031C4E2A03305F2A6B08031D572A193078
:1034A4007302031C572A02305F2A6B08031D602A2B
:1034B40003307302031C602A0130F4004401D2017A
:1034C4004301EB0119307102031C772A43016B0895
:1034D400031D772A0130EB0074080319752A0230A2
:1034E4004401D000772A0230F400FA307102031C40
:1034F400892A44015208031D892A0130D200740824
:103504000319872A0330D000892A0330F400720893
:103514000319A22A02307202031CA02A0A30720282
:103524000318A02A44015008031DA02A7408031993
:103534009E2A0430D000A02A0430F4004401D101B2
:1035440014307002031CBB2A44015108031DBB2A1A
:1035540040010F1DBB2A01304401D1007408031D32
:10356400B62A0530F400BB2A5008031DBB2A0530D7
:10357400D0007108031DC52A7308031DC52A440120
:10358400D2014301EB017008031D2E2A7208031DAA
:103594002E2A4401D1012E2ADA01B73198279A3113
:1035A40073084001D8007208D7007108D60070086B
:1035B400D500AA31A0229A3122304001AF00ED306B
:1035C400B000FB30B1000030A431C2249A31B731CD
:1035D40085279A3140018D1AF12A6400EC2AA03122
:1035E40000209A3140015A08A631FE269A3164001F
:1035F4009A3127229A314001D9005908031D1F2B03
:10360400B73198279A31400155087002D100560805
:10361400713BD2005708723BD3005808733BD40067
:103624005408031D742B5308031D742B603051027E
:10363400EA30523B0318742BF92AB73198279A3190
:1036440073084001D8007208D7007108D6007008CA
:10365400D50002305906031D4C2B0F30F00000300A
:10366400F1005A08013EF200003003180130F30063
:10367400AE31A0269A317008DA005A08A631FE2627
:103684009A3140018D1A482B6400432BA03100204D
:103694009A31F92A5903031DF92A0C305A020318E6
:1036A400652B5A08AC3E8600023087005A08AC3EAF
:1036B4008400023085000008F0005A08AC31ED2483
:1036C4009A318100F52A0C305A06031D6C2BAD315A
:1036D400DF259A310D3040015A06031D742BA831A1
:1036E40000209A31A5312C25080044014F08031904
:1036F40008004D080319112C4B080319FA2BD0307C
:103704004001B0000730B1000030B2000030B30017
:1037140044014B08FF3E890A4001942BB035B10D9A
:10372400B20DB30D890B902BB73198279B3145010E
:10373400480870024001B40045014908713B40014A
:10374400B50045014A08723B4001B60045014B08EB
:10375400733B4001B70033083702031DBB2B32080B
:103764003602031DBB2B31083502031DBB2B300869
:1037740034020318FA2BB73198279B3145014408CA
:1037840070024001B00045014508713B4001B100A1
:1037940045014608723B4001B20045014708733BAE
:1037A4004001B3003308031DE02B3208031DE02B56
:1037B400E83030020330313B031C0800B73198274E
:1037C4009B3173084501C7007208C6007108C50023
:1037D4007008C400B7313B279B31003A031DF62B18
:1037E40001304401CC00080044014C0803190800CE
:1037F4004401CC0106304B020318022C0130CB07E4
:103804000030AD3162259B312C30F0000130F100E5
:10381400B7315F279B310130AD316225080040018B
:10382400B80144014A08013E0339CA004A08CC3EA3
:103834008600023087004A08283E84000230850052
:1038440000080102031C2A2C4A08A3314023080063
:1038540001304001B8070430380203180800132C63
:10386400F80045012E08F7000E3043016E02D930EE
:1038740003196D020318402C0130F7077818452C02
:1038840040019917472C40019913F8184C2C40011A
:1038940019174E2C400119137819532C400199160D
:1038A400552C40019912F8195A2C400119165C2C18
:1038B40040011912781A612C40019817632C4001B9
:1038C4009813F81A682C400118176A2C4001181331
:1038D400781B6F2C40019816712C400198127318B4
:1038E400762C40019616782C40019612F3187D2C04
:1038F40040019A147F2C40019A107319842C4001C2
:103904009617862C40019613F3198B2C4001161739
:103914008D2C40011613731A922C40011814942C08
:1039240040011810F31A992C400198149B2C400163
:103934009810731BA02C40011815A22C40011811DB
:1039440074080319A82C40011A14AA2C40011A1057
:1039540099157708F500F6017508F0007608F1006E
:10396400B7315F279C31400199111A30890BB82C6B
:103974000032400118127708F500F6017508F000CE
:103984007608F100B7315F279C314001181677089B
:10399400F500F6017508F0007608F100B7315F27ED
:1039A4009C310F30400199051830980596129A10F1
:1039B400961316131A100530F0000030F100B731D9
:1039C4005F279C3178087F394401E70073087F3909
:1039D400E80074080319F02C0130F12C0030E900E0
:1039E4000800B200BA013A08AA314D229C310030D5
:1039F4004001B7000030B6000030B5000030B4001C
:103A0400B3017C0833020318392D320841019E00AA
:103A14003530890B0B2D0000410113141318102DA0
:103A24000D084001B90041010C084001B800033001
:103A34003902E93003193802031C242D02303A06F6
:103A4400031D392D03303902FF3003193802031CDA
:103A54002E2D01304401C90040013808B40739084B
:103A6400B53D0030B63DB73D0130B307032D3308F3
:103A74007C060319832D0130BA07F52C0330B435C5
:103A8400B50DB60DB70D890B412D8B2D0430B43512
:103A9400B50DB60DB70D890B492D8B2D43016D085E
:103AA400F0006E08F100F201F30140013708F7005D
:103AB4003608F6003508F5003408F400AB317C23F1
:103AC4009C3170084001AD007108AE007208AF006F
:103AD4007308B0000A30B036AF0CAE0CAD0C890BD5
:103AE4006D2D0330AD35AE0DAF0DB00D890B742DBA
:103AF4003008B7002F08B6002E08B5002D08B40012
:103B04008B2D3A08003A0319402D013A0319482D28
:103B1400502D7C08AD00AE01AF01B0013008A30008
:103B24002F08A2002E08A1002D08A0007C08B100D7
:103B34000130B136890B9B2D31083407A4003508B8
:103B44000318350F0310A50036080318360F0310A9
:103B5400A60037080318370AA700A1313C21210821
:103B6400FD002008FC00080044014308031DD02D7B
:103B7400400168088600690887000108EC000230EB
:103B8400EC36890BC22D6C08ED00EE016D08410185
:103B9400CC0040016E084101CD00D52D013041011A
:103BA400CC000030CD004C08D30044014308031D71
:103BB400F22D400168088600690887004131010838
:103BC400EC000230EC36890BE42D6C08ED00EE01BC
:103BD4006D084101CE0040016E084101CF00F72D70
:103BE40001304101CE000030CF004E08D40053080C
:103BF400031DFE2D0130D3005408031D032E013094
:103C0400D400D001D2014001680886006908870009
:103C1400403F4101DA00413FDB00423FDC005308F2
:103C2400F00052089E3E8400FB300318013E8500DC
:103C34000008B7310D279D31F30040016808860064
:103C4400690887000108A831A3209D314101DA00E9
:103C54005408F0005208963E8400FB300318013EDD
:103C640085000008B7310D279D31F3004001680835
:103C740086006908870041310108A831A3209D31DD
:103C84004101DB00400168088600690887000108DB
:103C940041015A06031D592E40016808860069082F
:103CA4008700413141015B08010603199F2E5B081F
:103CB4004001E30041015C084001E4002030E500DC
:103CC400D530E6000030E70041015A088831402031
:103CD4009D314101D10051080319722E5108080089
:103CE400D5304001A0000030A1006B08A3006A0891
:103CF400A200993182219D31003A03199F2E680850
:103D040086006908870041015A08C03F5B08C13F2B
:103D14005C08C23FD53086000030870040016A0845
:103D240084006B0885000530EC0016001A00EC0BCB
:103D3400972E01304101D000052E01304101D207F8
:103D440008305202031C052E5008031D032E530392
:103D5400031DB12E5403031DB12E003008000230A0
:103D6400F0000030F1005308013EF2000030031867
:103D74000130F300A031EF209D317008D3000230F0
:103D8400F0000030F1005408013EF2000030031846
:103D94000130F300A031EF209D317008022E013074
:103DA4004101CC000130CF00400168088600690859
:103DB4008700403F4101D500413FD600423FD70034
:103DC40040016C080319F02E41014F08F300560816
:103DD400A831A3209E314101D600F92E41014F089C
:103DE400F3005508A831A3209E314101D5004001BC
:103DF4006808860069088700010841015506031D0B
:103E04000E2F40016808860069088700413141018E
:103E1400560801060319362F56084001E3004101F4
:103E240057084001E4002030E500D030E6000030BF
:103E3400E70041015508883140209E314101CD0001
:103E44004D080319272F4D080800D0304001A00069
:103E54000030A1006B08A3006A08A20099318221F6
:103E64009E31003A031D3E2FFE304101CF074F081B
:103E7400803A813E0318D62E41014F08803A813E94
:103E84000318462F003008004001680886006908BE
:103E9400870041015508C03F5608C13F5708C23F3B
:103EA400D03086000030870040016A0884006B0827
:103EB40085000530ED0016001A00ED0B5D2F023071
:103EC4004101CE004E080319442F400168088600C2
:103ED40069088700403F4101D500413FD600423F79
:103EE400D70040016C080319872F41014E08F000E8
:103EF4004F08B7310D279E31F30041015608A83110
:103F0400A3209E314101D600962F41014E08F000B6
:103F14004F08B7310D279E31F30041015508A831F0
:103F2400A3209E314101D50040016808860069083C
:103F34008700010841015506031DAB2F40016808A5
:103F440086006908870041314101560801060319BA
:103F5400F52F56084001E300410157084001E400F1
:103F64002030E500D030E6000030E700410155087C
:103F7400883140209E314101CD004D08031D252F7D
:103F8400D0304001A0000030A1006B08A3006A08F3
:103F9400A200993182219E31003A0319F52F680855
:103FA40086006908870041015508C03F5608C13F93
:103FB4005708C23FD03086000030870040016A08AD
:103FC40084006B0885000530ED0016001A00ED0B27
:103FD400E72F41014C080319642F20304E020318C7
:103FE400642F4E35632F4101CC014E084001ED0092
:103FF4000130ED36890BFB2F6D08622F8B134401C2
:10400400D401D3018B17D0010130D2004301EB005E
:1040140001304401D1000800B3002D0884002E08AB
:1040240085001200031908002D0884002E0885005D
:104034000008A9313821A03177084001B200760880
:10404400B100B60105303602031C2B28B401B501BA
:10405400392836083107840032080318013E8500E8
:104064000008AF00B0012F08B4003008B5003308D1
:10407400AF000330AF35890B3C282F08F300340818
:10408400F4000830F5002C08360787312227A031C8
:1040940001304001B60706303602031C24280130E3
:1040A400AD070030AE3D0630AC070F2801304001AB
:1040B400A700A9315821A0314001A6017928603018
:1040C400F300F930F4001C30F500A931BB21A03114
:1040D4004001A7002708031976286430F000003057
:1040E400F100B7315F27A03101304001A6070A3043
:1040F4002602031880282708031D612827080319AE
:104104008528270808000430A500A6012608FE3EDD
:10411400F7002130F800FA30F9001030FA002508D1
:10412400AE311E26A031A7041030A6078030260227
:10413400031C88280130A5070830250203188328AA
:104144008728F600023070020318B528F50176308E
:104154007602031CB3287B3076020318B32801309F
:10416400F50075080800023070060319C5281F30D1
:1041740070060319C52875307602031CC5287C30E7
:104184007602031CC728013008007530760603192F
:10419400D7287B3076060319D72803307006031915
:1041A400D7281E307006031DD928003008000030BF
:1041B400F30071081D3CF200031CF3037308803AFA
:1041C400F40080307402031DE92870087202031899
:1041D400ED280130080000300800F501F11FF9282E
:1041E400F009F109F00A0319F10A0130F500F31F8F
:1041F4000229F209F309F20A0319F30A0130F50658
:10420400F601F7017008710403192F290130F40035
:10421400F11B14290130F035F10D890B0D29013002
:10422400F4070A290130F635F70D890B15297108B1
:104234007302031D1F2970087202031C26297008CB
:10424400F2027108F33B76140130F136F00C890B5D
:1042540027290130F402031D14297508031937298D
:10426400F609F709F60A0319F70A7708F100760840
:10427400F00008000030AB000030AA000030A900B4
:104284000030A800230822042104200403198329F0
:104294000130AC00A31B58290130A035A10DA20D9B
:1042A400A30D890B4F290130AC074C290130A835E7
:1042B400A90DAA0DAB0D890B592923082702031D4B
:1042C4006D2922082602031D6D2921082502031DDC
:1042D4006D2920082402031C78292008A40221083F
:1042E400A53B2208A63B2308A73B28140130A3368C
:1042F400A20CA10CA00C890B79290130AC02031D7E
:1043040058292B08A3002A08A2002908A10028087C
:10431400A00008004808013E0F39C8000130C70753
:1043240047084001A00044015C084001A1005C3042
:10433400F3000230F400B731E927A1314001A200B3
:10434400440162084001A30044015F084001A40045
:104354005F30F3000230F400B731E927A1314001A6
:10436400A500440163084001A6002030F000073096
:10437400F100AB314E23A1314001A70044014808AC
:10438400FB000330FB35890BC4297B08703E4001D8
:10439400A800A9012908203E860087010108F80029
:1043A40028082907AA310022A13101304001A907B8
:1043B4000830290203180800CC2944016D08400183
:1043C4003F06031DE92944016C0840013E06031918
:1043D40008003F084401ED0040013E084401EC00A0
:1043E400003040013F02643003193E0203180E2AD4
:1043F4003C30AF003F08AC003E08AB00AD01AD0A55
:104404000330AE00B7312B27A131B0000330B10027
:104414000030A431C22408000A30F0000030F1005A
:104424003E08053EF20000303F3DF300AB31AB23C4
:10443400A1317108C1007008C0003C30AF004108D0
:10444400AC004008AB00AD010330AE00B7312B2700
:10445400A131B0000330B1000030A431C2240800FF
:104464004001A601A7010030AA314D22A23140012A
:10447400A801093041019E003530890B3F2A000014
:10448400410113141318442A0D084001A5004101E9
:104494000C084001A4002408A6072508A73D013004
:1044A400A80708302802031C3B2A0430A00000306F
:1044B400A1000030A2000030A3002608F000270865
:1044C400F100F201F3010030F7000030F600003093
:1044D400F5000B30F400AB317C23A23170084001AD
:1044E400A0077108A13D7208A23D7308A33D0330E3
:1044F400A336A20CA10CA00C890B7A2A2108430133
:10450400EE00400120084301ED0008007008860019
:1045140087014431403FF400413FF500423FF6003B
:10452400433FF7007008860087014831403FF80098
:10453400413FF900423FFA00433FFB0077087B020A
:10454400031DAE2A76087A02031DAE2A7508790285
:10455400031DAE2A74087802031CB92A0030F30044
:104564000030F2000030F1000030F0000800700864
:10457400860087014831403FF400413FF500423F47
:10458400F600433FF7007008860087014431403F3E
:10459400F800413FF900423FFA00433FFB00740832
:1045A400F8027508F93B7608FA3B7708FB3B7B0871
:1045B400F3007A08F2007908F1007808F0000800A6
:1045C4000030FB000030FA000030F9000030F80041
:1045D40073087204710470040319002B73087702C2
:1045E400031DFE2A72087602031DFE2A7108750255
:1045F400031DFE2A70087402031C092B0130F3000A
:104604000030F2000030F1000030F0000800FC013E
:104614000130F435F50DF60DF70D890B0B2B013038
:10462400F835F90DFA0DFB0D890B122B730877027F
:10463400031D262B72087602031D262B71087502B2
:10464400031D262B70087402031C312B7008F4021E
:104654007108F53B7208F63B7308F73B7814013098
:10466400FC0718307C02031C0A2B7B08F3007A0831
:10467400F2007908F1007808F00008004001AF006A
:104684002F08283E8600023087000108AE002F085C
:10469400CC3E8600023087000108AD002F08283E7A
:1046A400860002308700FF3081002F08CC3E860050
:1046B4000230870081012E082D02031C08002E08F9
:1046C400F7002F08A500A6010730A535A60D890B14
:1046D400672BF030A7002C30A80025082707A90075
:1046E4002608283DAA002E082907AB0000302A3DE1
:1046F400AC002B08F8002C08F9002E082D02013E0E
:10470400FA002F08AE311E26A331003A03199A2B62
:10471400B731D427A33101304401CE0705304E020E
:10472400031C972B0130CD000800A9315821080043
:104734004401CD01CB01CE010800410886004208A6
:104744008700403F4401B400413FB500423FB600FA
:104754000130400143020030443B0030453B01300E
:10476400463B0318C52B400146084501C3004001E0
:1047740045084501C200400144084501C10040010B
:1047840043084501CD2B01304501C3000030C20070
:104794000030C1000030C00043084001B0004501B2
:1047A40042084001AF00450141084001AE00450107
:1047B40040084001AD00A6318326A3312E084301F1
:1047C400E90040012D084301E8004001410886004A
:1047D4004208870041310108F3004108860042087D
:1047E400870042310108F40041088600420887002E
:1047F40001089C3132240800A901A801AA01AB01D7
:104804002030F8002B08AB312123A331003A0319DF
:104814001D2C400129080319172C2008FD00280825
:10482400FD0280307D0203181D2C2008A8002B08EF
:10483400AA000130A90001304001AB0710302B025F
:10484400031C022C2908031D2D2C0F304401C80021
:10485400C701003008002030F8002A08AB312123BA
:10486400A33140012A084401C80040012008440142
:10487400C7005C30F3000230F40040012108F50069
:104884002208F600A831DC20A331230803194C2C9C
:1048940001304D2C00304401E2005F30F30002305F
:1048A400F40040012408F5002508F600A831DC20B6
:1048B40026084401E300013008004001CA004A0808
:1048C4000319742C44016208031D742C6708DF006B
:1048D4006808E0006908E1000130E200F301F40136
:1048E4000030822C40014A08031D0800440162087C
:1048F40003190800E2016008F3006108F4005F088E
:104904009C313224A431B631E826A4316208031D57
:10491400A22C6308031D922C4001C601C7019A2CE6
:104924006308643E4001C600003003180130C7002C
:1049340047084401C000400146084401BF00A42CBC
:10494400BF01C001AA31CA22A43144016208031D77
:10495400B02CF9304001C800FB30B42CE0304001E9
:10496400C800FB30C9004908BF004808BE00203019
:10497400C0000330C100AC3145244401D801080013
:10498400BB003008840031088500120003190800B8
:1049940030088400310885000008A9313821A43189
:1049A40077084001B6007608B500BD010A303D0223
:1049B400031CDF2CB701B801F32C3D08B200013011
:1049C400B236890BE22C3208350784003608031806
:1049D400013E85000008B300B4013308B700340871
:1049E400B8003708BC003C080F39A9311821A4319C
:1049F400B9003C08B2000430B236890BFE2C3208F0
:104A0400A9311821A431BA003B08F3003908F40095
:104A14000830F5002F083D0787312227A4314001D3
:104A24003B08083EF3003A08F4000830F5002F086C
:104A34003D0787312227A43101304001BD070C30E6
:104A44003D02031CD82C0130B0070030B13D0C30BE
:104A5400AF07C32CAE315F26A5317708B3007608C3
:104A6400B200A8318820A5314001B4013408233EA6
:104A7400860087013408203EB631DC26A53181004A
:104A840001304001B4070F303402031C382D5E306E
:104A94002306031D080033082406031D0800250807
:104AA4003206031D08002F30B631DC26A531FD0087
:104AB4002330F0000F30F100AB314E23A5317D06D9
:104AC400031D08004001B4013408033E233E860060
:104AD40087013408F53E8400FA300318013E85004E
:104AE40000080102031C942D3408033E233E860073
:104AF40087013408E93E8400FA300318013E85003A
:104B04000008FD0001087D02031C942D3408AC3E0E
:104B14008600023087003408033E233E840085016A
:104B2400000881000130B4070C3034020318080077
:104B3400662DAB010130A0000030A1002B0AA42D8A
:104B4400A035A10D890BA22D44013B08400120058D
:104B5400A20044013C0840012105A30022082304CB
:104B64000319032E0330F0002B08B7310D27A531AC
:104B74002C3E86000330870001084001A400033066
:104B8400F0002B08B7310D27A5312C3EF30003307C
:104B9400F400B731E927A5314001A5002B08203ED8
:104BA4008600033087000108A6002B08A03E86007B
:104BB400023087000108A7002430F0000430F1001F
:104BC400AB314E23A5314001A8000530F0002B087D
:104BD400B7310D27A531303E4001A900AA012A08AA
:104BE400243E860087010108F80029082A07AA3113
:104BF4000022A53101304001AA0705302A02031C16
:104C0400F12D0130AB070C302B02031C9C2D440109
:104C1400BB01BC010800AA0140012A08233E86000A
:104C240087010A30F0000030F1007A08F3007908B7
:104C3400F200AA317622A6317008303E810001309C
:104C4400AA070A30F0000030F1007A08F30079086E
:104C5400F200AB31AB23A6317108FA007008F900F9
:104C64002A087B06031D3E2E2A08233E8600870160
:104C74002E3081000130AA0779087A04031D0E2E14
:104C84007B080319642E7B08013EA0000030031842
:104C94000130A1002108803AA20080302202031DC5
:104CA400552E2A082002031C642E0E2E7708860037
:104CB40078088700203081000130F7070030F83D84
:104CC4000130FC027C0840012A0203187A2E582E77
:104CD40077088600780887000130AA022A08233E54
:104CE40084008501000881000130F7070030F83D99
:104CF4002A08031D6A2E7708860078088700810138
:104D040008003008F3002F08F2002E08F1002D08E7
:104D1400F00098314420A6317108C0007008BF002B
:104D240010304002003003193F02031C9F2EE7306D
:104D34004001AD000330AE0008000030B100103077
:104D4400B2003F083102A0004008323BA100A2019A
:104D5400A3010030B3001030B4003F083302B500A3
:104D64004008343BB600B636B50C3508B7003608F3
:104D7400B800B901BA013F08003EF0001030403DD0
:104D8400F100F201F3010030F7000030F6000030CA
:104D9400F5006430F400AB317C23A6317008400187
:104DA400B7077108B83D7208B93D7308BA3D3A08AF
:104DB400A7003908A6003808A5003708A400A131C7
:104DC4003C21A6312308BE002208BD002108BC00F6
:104DD4002008BB003E08031D992E3D08031D992E93
:104DE400E8303B0203303C3B0318992E40013C0859
:104DF400AE003B08AD000800D000AA31A022A631C5
:104E04000C30400150020318502F4430AB000030E6
:104E1400AC005008013EAD00003003180130AE0074
:104E2400AF01B7314D27A6312C08B1002B08B000D3
:104E34002630B200FC30B300A8312120A631AC01E9
:104E44004430AD000030AE000030A0310E20A63159
:104E5400AC015008C100C201C135C20D94304107F4
:104E640084007930423D80388500003FAD00013F29
:104E7400AE000130A0310E20A6315008AC3E8600B1
:104E8400023087000108B60050089131C221A631D2
:104E9400AF015030B0000330B100772FAC01B8300F
:104EA400AD00FA30AE000030A0310E20A6310C3037
:104EB400500603196E2F0D3050060319652F133059
:104EC400CE00FC30682F1930CE00FB30CF004F08E5
:104ED400CD004E08CC00722F0430CC00FC30CD0045
:104EE400AF014D08B1004C08B0001230A431C22407
:104EF400A631B73185270800EA014401BB01BC0192
:104F04004001A7010530F0002708B7310D27A7316C
:104F1400303E4001A000A6012608213E86008701FC
:104F240020082607B631DC26A73181000130400174
:104F3400A60705302602031C8E2F0330F000270835
:104F4400B7310D27A7312E3E86000330870081013B
:104F54000330F00040012708B7310D27A7312D3E5B
:104F640086000330870081010330F00040012708E8
:104F7400B7310D27A7312C3E86000330870081010D
:104F84002130F0000430F100AB314E23A731400151
:104F94002506031DF82F2108031DD42F22087F396D
:104FA4000319F82F0330F0002708B7310D27A73174
:104FB4002C3EF3000330F40040012108F5002208E0
:104FC400F600A831DC20A7312708203E86000330F4
:104FD4008700230881002708A03E8600023087004E
:104FE400240881002708013E4301EA000130400102
:104FF400A7070C30270203180800842FFF30F8009D
:105004002030AA310022A831A83188200800B73105
:105014009827780870024001A0007908713BA1002C
:105024007A08723BA2007B08733BA3002308FB00B1
:105034002208FA002108F9002008F80008003108C5
:10504400870030088600B00A0319B10A3308B50096
:105054003208B400B20A0319B30A340884003508CC
:1050640085000008C03F8908031908002128470863
:10507400BF004608BE004908C1004808C000AC3162
:105084004524A831B7318527A83140014908F100EA
:105094004808F000B7315F27A831B731C0270800AE
:1050A400F401F501701C5A287208F4077308F53DE1
:1050B4000130F235F30D890B5B280130F136F00C29
:1050C400890B602870087104031D54287508F100C9
:1050D4007408F00008000030A3000130A2008630FC
:1050E400A100A030A00050302D07A400C3302E3DF5
:1050F400A50000302F3DA6000030303DA700A131AF
:105104003C212108AE002008AD000800F801780811
:10511400AC3E8600023087007808703E8400F73089
:105124000318013E85000008F3007808AF312827F2
:10513400A83181000130F8070C3078020318080008
:105144008928F50075087307F600F7010318F70AB4
:10515400F31BF703F71FB028003008007708803AE4
:10516400F40080307402031DB92880307602031CD9
:10517400BD287F300800760808009A312722A8311C
:10518400F600033076060319CB2804307606031D97
:10519400D0287608B631CE26013008000130F5005B
:1051A40076030319DA28023076060319DA28F501A2
:1051B40075080800730886007408870075087F392D
:1051C40081007308860074088700413176087F39AE
:1051D4008100730886007408870042317608F7005E
:1051E4000730F736890BF32877088100080001306F
:1051F400AD316225A831AF316E27A83164306F021A
:10520400031C07299A31CE22A831AC317C24A83161
:10521400A0310020A831B73198277308B300720871
:10522400B2007108B1007008B0000800F100F2018A
:10523400F3010130F000730A2029F035890B1F298E
:1052440070087105031930290330F0007335890A99
:105254002C29F035890B2B297008F2040130F3074F
:1052640004307302031C1B2972080800FC007C082C
:10527400E03EFD0060307D020318FD017D08F8006A
:10528400F9017808F0007908F1000530F2000030E7
:10529400F300A83152208030FA00F730FB00700888
:1052A4007A07F60071087B3DF700080040011615E7
:1052B40096151A30890B5C290032F00171294001DE
:1052C4000C19752996111A30890B66290032400190
:1052D40096151A30890B6C2900320130F007093019
:1052E4007002031C6129B73172270800F80078089E
:1052F40073020318822973087802F7007808862954
:1053040078087302F7007308F5000130F6000330E3
:105314007702031C97297508F4000330F436890BCF
:10532400902977087402031CF60176080800F2003D
:105334007208283E860002308700010870020318B4
:10534400AA297208283E860002308700700881006E
:105354007208CC3E860002308700710801020318EF
:1053640008007208CC3E8600023087007108810074
:105374000800B731AC27A9317830AB31DD23A9312E
:10538400F6000030AB31DD23A9310130F502750A96
:105394000319D92973088400740885000008AB3107
:1053A400DD23A9310130F3070030F43DC729B731BB
:1053B400722776080800A030860003308700443145
:1053C400403F4001AD00413FAE00423FAF00433F8C
:1053D400B000A8316D20A9312E08BF002D08BE00F1
:1053E400A131DF21A93144013E084001BF0044013D
:1053F4003D084001BE00AD3127250800FA007A08B7
:10540400B631DC26AA317806031908001E1770305D
:105414009B007A089A0078089C000B0D0B0D01394B
:10542400F9008B131E1555309F00AA309F009E145F
:10543400790C031C8B1303188B17212A6400500169
:105444009E18202A1E110800FC007008F200F301C7
:105454007C08F400F5010730F435F50D890B2E2A8C
:105464007108F600F7010E30F635F70D890B362A70
:1054740074087604F80075087704F9007208780453
:10548400FA0073087904FB0000307A04F0008030DD
:105494007B04F1000800F200720844016E0603194F
:1054A40008007208EE0002307206031D5C2A4101F6
:1054B4009A01712A72080319612A0230622A0130A2
:1054C400F0000030F10052010C087006FC3970063F
:1054D4008C008C170C1F6C2A033041019A00A030F9
:1054E4000032890B722A08007008710403199B2A80
:1054F4000130F400F11B862A0130F035F10D890BDF
:105504007F2A0130F4077C2A71087302031D8C2A58
:1055140070087202031C922A7008F2027108F33BAD
:105524000130F136F00C890B932A0130F402031D8B
:10553400862A7308F1007208F0000800F701F801E8
:105544007708F100F2010730F135F20D890BA62A34
:10555400F030F3002C30F40071087307F500720882
:10556400743DF6007808750786000030763D8700A4
:1055740081010130F80780307802031CA22A01302F
:10558400F70704307702031CA12AB731D427080097
:105594004001AF014630B000FB30B1001230A431FD
:1055A400C224AA3144016208031DDD2A7D30400172
:1055B400BE00FA30E12A2E304001BE00FC30BF00AC
:1055C400AF013F08B1003E08B0001230A431C2243C
:1055D400AA312A30AF004130B000FC30B1001230A3
:1055E400A431C22408004001C3014501360803194F
:1055F4001E2B7C0886007D088700403F4001AD00DB
:10560400413FAE00423FAF00433FB000A631832686
:10561400AA3145013608643E4001C1000030031838
:105624000130C2002E084202031D1A2B2D0841022C
:10563400031C1E2B0130C300400143080800FA007C
:105644007A08F9000330F935890B252B7908703E67
:10565400FB00FC0178087C07860087017B087C0737
:10566400B631DC26AB3181000130FC0708307C0206
:10567400031C2C2B7808073E840085017808F00071
:105684000730F100AB314E23AB310006031D4C2B28
:1056940001300800003008005A30F7000130F102F0
:1056A400710A03197A2B7008860087010108F7062E
:1056B4000130F007F601F71B662B7708F200F301BF
:1056C4007235F400730D702B7708F200F301F23594
:1056D400F30D07307206F40000307306F500740809
:1056E400F7000130F607083076020318502B5D2BC3
:1056F400770808000030FB000030FA000030F900A1
:105704000030F800701C8E2B7408F8077508F93DFA
:105714007608FA3D7708FB3D0130F435F50DF60DBA
:10572400F70D890B8F2B0130F336F20CF10CF00CD2
:10573400890B962B7308720471047004031D842B67
:105744007B08F3007A08F2007908F1007808F00089
:105754000800F401F501700871040319D82B013015
:10576400F600F11BBD2B0130F035F10D890BB62B82
:105774000130F607B32B0130F435F50D890BBE2B40
:1057840071087302031DC82B70087202031CCF2B0F
:105794007008F2027108F33B74140130F136F00C16
:1057A400890BD02B0130F602031DBD2B7508F100C7
:1057B4007408F0000800F000F201F01FE42B40012F
:1057C4001615E62B400116111A30890BE72B00320F
:1057D400400196151A30890BED2B003240019611C9
:1057E4000310F00D0130F20708307202031CDF2BA6
:1057F40016151A30890BFC2B0032400196151A300D
:10580400890B022C003240010C0C890C0139F10087
:1058140096111A30890B0C2C0032710808004001D3
:10582400CA01CB01500193181B2C4001CA01CB01C2
:10583400322C1318222C8D304001CA00FB30312C3D
:10584400131A292CAE304001CA00FB30312C931BB3
:105854002D2C131F322C56304001CA00FB30CB00D4
:105864003F305001930040014A084B0403190800DB
:105874004B08C7004A08C600D030C8000730C9002A
:10588400A83139200800AF014230B000FB30B1002C
:105894001230A431C224AC31AF013F08B1003E083C
:1058A400B0001230A431C224AC3101304401D9001B
:1058B40040014008C2004108C300C401C501B7311A
:1058C400982770084001C2077108C33D7208C43D9F
:1058D4007308C53D45084501D7004001440845010A
:1058E400D600400143084501D50040014208450166
:1058F400D4000800AA31A022AC314001AF013230FB
:10590400B000FC30B1000030A431C224AC312A30E4
:10591400AF004130B000FC30B1000030A431C224EB
:10592400AC316030AF003D30B000FC30B10000302D
:10593400A431C224AC31AA31CA22AC3143016E086D
:105944004001AE0043016D084001AD0090310720D5
:10595400FF304401EA00FF30EB006B08ED006A08F9
:10596400EC0008007E01B8010730C300CE01D90164
:10597400E4015301901394134001960118309700E9
:1059840010309800063099009A0191012730920056
:105994009301940195017E013A15BA15DB145B1548
:1059A4001A304F019600FE309700473098007F3040
:1059B400990077309A00DF309B00453040019F000A
:1059C4009E01F9309D009C014E018C1296164001F7
:1059D4009E178B170800F4007408F100F201F135EA
:1059E400F20D7C30710784007930723D8038850077
:1059F400003FF500013FF600F7017408C53E84003E
:105A0400FA300318013E8500000877020318212D9F
:105A140077087507840076080318013E850000089E
:105A2400700203181E2D7708750784007608031882
:105A3400013E8500000808000130F707FF2C7508B7
:105A44008400760885000008080044016B084001C2
:105A54003F06031D312D44016A0840013E06031927
:105A6400080044015908031D080040013F0844018F
:105A7400EB0040013E084401EA0040013E083F04B7
:105A84000319582D3C30AF003F08AC003E08AB0072
:105A94000230AD000430AE00B7312B27AD31B00079
:105AA4000330B1001230A431C22408003C30AF00EE
:105AB4001830B000FC30B1001230A431C224080008
:105AC400FD007D08031D6D2D40011612961116115F
:105AD4004401CF01080040011616C830F000003020
