:1000000080314128A0340F347E14803100308600C6
:10001000003087004E018C1E3F288C1201304401B5
:10002000A4070030A53DA63DA73D0130CE070A300C
:100030004E02031C3F28CE0140018D1A25286F0A6D
:1000400003192D280130EF072D286F0803192D28DB
:100050006F084401D8004001EF018F183628430192
:100060006A0A03193F280130EA073F2843016A085A
:1000700003193F286A084401D7004301EA017E10B2
:100080000900803143284301803102208031ED0096
:10009000803103208031EE0039308400B730850094
:1000A00044011200EA001200EB001200EC00120002
:1000B000ED001200EE00F0308400283085000030A2
:1000C000FE000730FF00B7315F2780314001EF01AC
:1000D000E2308400013085000B30FE000030FF006C
:1000E000B7315F27803120308400023085004A30EC
:1000F000FE000030FF00B7315F278031A030840060
:10010000023085004C30FE000030FF00B7315F2721
:10011000803120308400033085004E30FE000030F6
:10012000FF00B7315F277E1040018A31352A430135
:10013000BA01BD01C5014535F03E860087012A3070
:10014000873D45350030873D0030C03FC13F01301D
:10015000C507031D9B284401C301C401CD01CC0187
:10016000CB01C101C20145012F084101E900EA01AB
:10017000EB01EC016C08F3006B08F2006A08F10077
:100180006908F0000030F7000130F6008630F50015
:10019000A030F400AB31D123803173084501BF009A
:1001A0007208BE007108BD007008BC003008410133
:1001B000E900EA01EB01EC016C08F3006B08F200C6
:1001C0006A08F1006908F0000030F7000F30F6000F
:1001D0004230F5004030F400AB31D1238031730858
:1001E0004501BB007208BA007108B9007008B80078
:1001F00001304401A3000030A2000030A100013012
:10020000A00041016508860066088700403F440160
:10021000E400413FE500423FE6003629223042013A
:10022000EA00FC30EB000430EC000230ED009630C8
:100230004401BF0000303429B6304201EA00FB30EF
:10024000EB000730EC000430ED00F4303129FF30D2
:100250004201EA00FB30EB000530EC000330ED001A
:100260005E304401BF000130C0003F29450137081E
:10027000013A03190E29023A03191C2927294101C1
:100280006508860066088700403F4301C600413F7D
:10029000C700423FC80047084001E3004301480847
:1002A0004001E4002030E500BF30E6000130E70007
:1002B000430146088831512080314301BE003E0889
:1002C000031DED2EBF30FC000130FD00AB314A2391
:1002D0008031003A03198829C6304001C10001303D
:1002E000C200430142084001C600430141084001E9
:1002F000C500430140084001C40043013F084001DC
:10030000C300A331BE2380319031DD2000300800CE
:10031000410168084201E900410167084201E80023
:100320004301C5016408450203182A2A0330F0007E
:100330004508B731782780313F3E4301BB003B0879
:1003400086000330870001084606031DB8293B0AD2
:1003500086000330870001084706031DB8293B08C3
:10036000023E860003308700010848060319262A4A
:100370003B088600033087000108031DC6293B0A9D
:1003800086000330870001080319262A3B088600EF
:10039000033087000330413F4001E30043013B0845
:1003A0008600033087000330423F4001E4001030F4
:1003B000E500A030E6000130E70043013B0886007D
:1003C0000330870001088831512080314301BE008D
:1003D00003303E0603192A2A3E08031DED2E42086B
:1003E0002302031DFD2941082202031DFD294008A7
:1003F0002102031DFD293F0820020318262A3B087D
:10040000860003308700403FC600413FC700423F9F
:10041000C800A030860001308700BF308400013062
:10042000850005304101E90016001A00E90B142A85
:1004300043014508333E8600033087000108643ECF
:100440004201E800003003180130E90001304301A7
:10045000C50792294201680869040319A42A0130DA
:100460004401CB00C6304101DD000130DE00BF3069
:10047000DF000130E00094319B2480314301BE0055
:100480004401CB01033043013E06031D592AB43019
:10049000F300AA30F400BD30F500C630F60001309C
:1004A000F700BF30F8000130F90099319E2180310A
:1004B000992D3E08031DED2EBF30FC000130FD00DC
:1004C000AB314A238031003A031D6C2945013608BF
:1004D0000319932A430142084001B0004301410837
:1004E0004001AF00430140084001AE0043013F0816
:1004F0004001AD00A7310327803142016808053E65
:100500004101E90000304201693D4101EA0040013A
:100510002E0841016A02031D912A40012D08410164
:10052000690203186C29B430F300AA30F400BD301E
:10053000F500C630F6000130F700BF30F80001309A
:10054000F90099319E2180314201EE0102306E02A4
:100550000318012D4301C50142016C084301450206
:100560000318FD2C4201EF016C086F020318F92CEF
:100570004301450842016A0784006B080318013EE5
:10058000850000084301C60042016F086A07840025
:100590006B080318013E850000084301C7004201B3
:1005A0006E084301C80047084001E30043014808C2
:1005B0004001E4001030E500BF30E6000130E70004
:1005C000430146088831512080314301BE00033089
:1005D0003E060319992D3E08031DED2EC4013A086D
:1005E000440203185A2B0330F0004408B73178272F
:1005F0008031023E593E86000130870001084201E9
:100600006E06031D562B43014408343E860001301C
:10061000870001084101E900430145084101E90261
:1006200001306907EA0003306A020318562B4301C0
:100630004408393E86000130870001084101E90085
:1006400042016F084101E90201306907EA00033005
:100650006A020318562B0530F00043014408B731F5
:1006600078278031403E860001308700403F4101BD
:10067000E900413FEA00423FEB00433FEC006C08D9
:1006800043014202031D542B41016B084301410207
:10069000031D542B41016A0843014002031D542BE2
:1006A0004101690843013F0203185A2B01304301FD
:1006B000C407EF2A3A084402031CF52CC4013A0887
:1006C000440203181C2C0330F0004408B73178278B
:1006D0008031023E593E8600013087000108420108
:1006E0006E06031D9B2B43014408343E86000130F7
:1006F000870001084101E900430145084101E90281
:1007000001306907EA0003306A0203189B2B43019A
:100710004408393E86000130870001084101E900A4
:1007200042016F084101E90201306907EA00033024
:100730006A02031C9F2B01304301C4075F2B430156
:100740004408BC003C08013E4101E90000300318A8
:100750000130EA006A08803AEB0080306B02031D2A
:10076000B52B43013A08410169020318182C0330E4
:10077000F00043013C08B73178278031033E593EF1
:10078000860001308700403F4101E900413FEA0017
:10079000423FEB000330F00043013C08B7317827BB
:1007A0008031593E86000130870041016908C03F11
:1007B0006A08C13F6B08C23F0530F00043013C08A6
:1007C000B73178278031053E403E860001308700F2
:1007D0000530F00043013C08B73178278031403EB6
:1007E00084000130850005304101E90016001A003F
:1007F000E90BF62B43013C08343E860001308700AC
:100800003C08013E343E8400013085000008810030
:100810003C08393E8600013087003C08013E393EE5
:10082000840001308500000881000130BC07A22B44
:1008300001304301BA025F2B3A08C400842C420104
:100840006D08430144020318822C0330F000440871
:10085000B73178278031FD3E593E86000130870050
:10086000403F4101E900413FEA00423FEB000330D5
:10087000F00043014408B73178278031593E8600A3
:100880000130870041016908C03F6A08C13F6B0819
:10089000C23F0530F00043014408B731782780316A
:1008A000FB3E403E8600013087000530F0004301EA
:1008B0004408B73178278031403E840001308500FC
:1008C00005304101E90016001A00E90B632C4301D1
:1008D0004408343E8600013087004408FF3E343E21
:1008E000840001308500000881004408393E8600FC
:1008F000013087004408FF3E393E84000130850006
:10090000000881000130C40244080319B22C0530EC
:10091000F0004408B73178278031FB3E403E860026
:1009200001308700403F4101E900413FEA00423F7A
:10093000EB00433FEC006C0843014202031DB02C66
:1009400041016B0843014102031DB02C41016A08BB
:1009500043014002031DB02C4101690843013F02DD
:10096000031C1F2C42016D08430144020318F52C9F
:100970000330F0004408B73178278031593E8600B3
:100980000130870043014608C03F4708C13F48087F
:10099000C23FBF308600013087000530F0004408B8
:1009A000B73178278031403E840001308500053022
:1009B0004101E90016001A00E90BDA2C4301440852
:1009C000343E860001308700450881004408393EE6
:1009D00086000130870042016F0881006D084301E5
:1009E0003A020318F52C0130BA0701304201EF0733
:1009F000B42A01304301C507AC2A01304201EE0799
:100A0000A62A440123084001B00044012208400105
:100A1000AF00440121084001AE004401200840011C
:100A2000AD00A731032780312E08C2002D08C10078
:100A3000B7316B2780314301C5013A0845020318DD
:100A4000992D0330F0004508B73178278031593EA1
:100A5000860001308700403F4301C600413FC70088
:100A6000423FC8000530F0004508B7317827803193
:100A7000403E860001308700BF3084000130850091
:100A800005304101E90016001A00E90B432DC6307C
:100A9000DD000130DE00BF30DF000130E0009431C6
:100AA0009B2480314301BE003E0803195B2D0330B7
:100AB0003E06031DED2EB430F300AA30F400BD3025
:100AC000F500C630F6000130F700BF30F800013005
:100AD000F90099319E218031440123084001B00082
:100AE000440122084001AF00440121084001AE004A
:100AF000440120084001AD00A731032780312E08B2
:100B0000C2002D08C100B7316B278031033043018B
:100B10003E060319992DBF30FC000130FD00AB31BA
:100B20004A238031003A031D992D01304301C50746
:100B30001D2D4301C501D02D0330F0004508B7310C
:100B400078278031B43E86000130870001084401D7
:100B50006406031DCD2D0330F00043014508B73175
:100B600078278031013EB43E8600013087000108BD
:100B700044016506031DCD2D0330F00043014508F7
:100B8000B73178278031023EB43E860001308700BD
:100B90000108440166060319D42D01304301C5073D
:100BA0003D084502031C9C2D430145083D06031DDD
:100BB000072E3D080319E52D440140084202031D9C
:100BC000E32D3F084102031C072E44012308430183
:100BD000C200440122084301C1004401210843012D
:100BE000C000440120084301BF00C301B430F3003A
:100BF000AA30F400BD30F5006430F6000230F70092
:100C0000BF30F8000130F90099319E218031430155
:100C1000C5013D08450203185F2E0330F00045086A
:100C2000B73178278031013EB43E8600013087001D
:100C300001084101ED000330F00043014508B731E0
:100C400078278031023EB43E8600013087000108DB
:100C50004101EE000530F00043014508B731782727
:100C60008031AA3E4101EF000330F0004301450806
:100C7000B73178278031B43E860001308700010803
:100C80004201B30041016D084001E30041016E08DB
:100C90004001E4004030E50041016F084001E600FA
:100CA0000130E7004201330888315120803143018F
:100CB000BE003E08031DED2E0130C507092E400180
:100CC000E301E4014030E500A530E6000130E70033
:100CD00000308831512080314301BE003E08031DA1
:100CE000ED2E4201BE01023043013D02031C8B2E5A
:100CF0002D083202031D862E2C083102031D862E7C
:100D00002B083002031D862E2A082F0203188B2E73
:100D100001304201BE0042013E084301C5000530DA
:100D2000F0004508B73178278031AA3E4001A00085
:100D30000130A100A530A2000130A3009A31432266
:100D40008031003A031DCC2E4301C801C701C60102
:100D5000C6304001C1000130C200430128084001F3
:100D6000C600430127084001C50043012608400191
:100D7000C400430125084001C300A331BE238031D4
:100D80000030430163027930031962020318CA2E4E
:100D900000300800033008000330F000430145082C
:100DA000B73178278031B43E4001C1000130C20024
:100DB0000530F00043014508B73178278031AA3E5D
:100DC000860001308700403F4001C300413FC4001E
:100DD000423FC500433FC600812964304001C10045
:100DE0000230C200440123084001C6004401220829
:100DF0004001C500440121084001C400440120080D
:100E00004001C300A331BE23803143013E030319D7
:100E1000142F04303E0603190F2F0130102F043019
:100E20004201BF003F08080002300800FD007308BF
:100E3000A0000330A036890B1A2F2008FC0073088D
:100E40000739FB000130A000750A272FA035890B58
:100E5000262F2008FF3EFA007A08A000A1017B0A95
:100E6000332FA035A10D890B312F2008F600210862
:100E7000F70074087A05A000A1017B0A412FA03574
:100E8000A10D890B3F2F2008F8002108F9008030C0
:100E90007D020318080004307C0203188B2F7C08A5
:100EA000A000A1010730A035A10D890B532FF03010
:100EB000A2002C30A30020082207A4002108233D13
:100EC000A5007D08240786000030253D87007C08AA
:100ED000A600A7010730A635A70D890B6B2FF030B0
:100EE000A8002C30A90026082807AA002708293DB9
:100EF000AB007D082A07840000302B3D8500760971
:100F00000005780481007D08F0007D08F1007C0870
:100F1000AA31102287317B08031908007C08013EA2
:100F2000A000003003180130A1002108803AA2007F
:100F300080302202031D9E2F043020020318080077
:100F40007C084001A000A1010730A035A10D890B4C
:100F5000A52F7030A2002D30A30020082207A40086
:100F60002108233DA5007D08240786000030253D8B
:100F700087007C08A600A7010730A635A70D890BBE
:100F8000BD2F7030A8002D30A90026082807AA0020
:100F90002708293DAB007D082A07840000302B3D3F
:100FA000850077090005790481007D08F0007D083F
:100FB000F1007C08013EAA3110220800A83130203F
:100FC00087317830AC3132248731F6000030AC31D3
:100FD000322487310130F502750A0319FC2F73089A
:100FE0008400740885000008AC3132248731013058
:100FF000F3070030F43DEA2FB731ED2776080800FB
:101002000030AB000030AA000030A9000030A80078
:101012002308220421042004031948280130AC00CB
:10102200A31B1D280130A035A10DA20DA30D890B14
:1010320014280130AC0711280130A835A90DAA0DDA
:10104200AB0D890B1E2823082702031D3228220814
:101052002602031D322821082502031D32282008FA
:101062002402031C3D282008A4022108A53B2208D3
:10107200A63B2308A73B28140130A336A20CA10CDF
:10108200A00C890B3E280130AC02031D1D282B0841
:10109200A3002A08A2002908A1002808A00008002D
:1010A2004101B70040016308F0006408F10041010A
:1010B2003708AA317B2288317108B6007008B50062
:1010C200AA01AB013608F4003508F300AF317727E7
:1010D20088314101B800B40140304001650603196E
:1010E200032941013808A000A101A035A10DF0306B
:1010F200A2002A30A3002008220786002108233DEF
:101102008700403FA400413FA50036082506031D85
:101112008C2835082406031DF4283808A000A101F4
:10112200A035A10DF030A2002830A300200822072C
:1011320086002108233D87001600FF3AA40016000E
:10114200FF3AA4040319CD283808A000A101A03554
:10115200A10DF030A2002830A3002008220786004B
:101162002108233D8700403FA400413FA5002408F9
:10117200A6002508A700A801A9010830A635A70DD9
:10118200A80DA90D890BBF282908AF002808AE00B9
:101192002708AD002608D4280130AF000030AE0089
:1011A2000030AD000030AC004001660886006708E0
:1011B200870041012C08C03F2D08C13F2E08C23FC5
:1011C2002F08C33F40016608860067088700443144
:1011D20041013808F03E840085012E30853D00082B
:1011E200810000300800440140084202031DFB2830
:1011F2003F084102031CFF28033008000130C107E9
:101202000030C23D40016308F3006408F40041016C
:1012120037089C31F5248831A93136218831003ACA
:101222000319152901300800B9304001D8000030F7
:10123200D9006508DA00A0319220883141014B08BB
:101242000319372901304401CC0740304C02031CFA
:101252002C290430080001304101C8000030C700C9
:101262000030C6000030C500CA01992945013F0877
:1012720041014002031D4D2945013E0841013F0243
:10128200031D4D2945013D0841013E02031D4D2923
:1012920045013C0841013D02031C6729B930F000B9
:1012A2000030F100A33106238831730845013B0267
:1012B200031D652972083A02031D65297108390266
:1012C200031D65297008380203188B2944014D0853
:1012D200031D7029E8304101B000033074292C301D
:1012E2004101B0000130B1000130AA070030AB3D2E
:1012F2002B083102031D7F292A0830020318832993
:10130200023008000A30F0000030F100B731DA276D
:1013120088310D2901304401CD00CC014101490839
:10132200031D99290130B40703303402031C0D292F
:101332004001660886006708870041014508C03FF2
:101342004608C13F4708C23F4808C33F40016608FC
:10135200860067088700443141014A088100403015
:10136200400165060319F228003044014402FF30AF
:10137200031943020318032A41013835F03E86005F
:1013820087012A30873D38350030873D3508C03F18
:101392003608C13F013048020318E42941014508DB
:1013A200A0004608A1004708A2004808A300083090
:1013B200A336A20CA10CA00C890BD9292108B300D9
:1013C2002008B200E929FF304101B200FF30B3002A
:1013D2003835F03E860087012830873D38350030A9
:1013E200873D3208C03F3308C13F3808F03E8600CF
:1013F20087012E30873D4A08810001304401C3072E
:101402000030C43D230841014802031D182A44014B
:10141200220841014702031D182A44012108410103
:101422004602031D182A44012008410145020318FF
:10143200F228B9308600003087004C31403F440129
:10144200A000413FA100423FA200433FA30041014F
:1014520037084401E400400163084401E50040010B
:1014620064084401E600F228AD3109258A314301BE
:10147200E001500193181318412A01304301E000A2
:1014820043016008DF00A531AC258A31B7318727D7
:101492008A31A231B0228A31A7317E278A31A43122
:1014A2007E248A31003A0319672A5C08E7005D0846
:1014B200E8005E08E90043015F08031D722A440147
:1014C2005D08F3005E08F4005C086F2AE201E301A4
:1014D200E101E001DF01F301F40100309C31F52468
:1014E2008A3144016308031D792AC901CA01802A8D
:1014F2006308643EC900003003180130CA0040018D
:101502001915A93170218A31AC3166248A31500112
:101512000C14A8311C208A3173084501DF007208BF
:10152200DE007108DD007008DC005F08E3005E0881
:10153200E2005D08E1005C08E00063084401B700D6
:10154200450162084401B600450161084401B50045
:10155200450160084401B4003708BB003608BA00F0
:101562003508B9003408B80064009A31E8228A319B
:101572004301E10061030319C22A02306106031D1F
:10158200EB2AA03101208A31003A031DEB2AA8314F
:101592006D208A314301E101EB2AA8316D208A31A5
:1015A20044016208031DD72A0130D82A0030A43131
:1015B200DF248A31FC2A933153238A31FC2A0130F9
:1015C200EB00FC2AA8316D208A310130A431DF24DE
:1015D2008A31FC2A6108013A0319CE2A033A031917
:1015E200DC2A013A0319E02A073A0319E32A013AED
:1015F2000319DC2AFC2A44013708FB003608FA00EA
:101602003508F9003408F800A831B1208A317B0886
:10161200031D152B7A08031D152B7908031D152BA5
:1016220032307802031C232BA8311C208A31730824
:10163200B7007208B6007108B5007008B4009631A0
:1016420034268A314401590803192B2BD9019331CD
:1016520053238A3145016308FB006208FA006108DE
:10166200F9006008F800A831B1208A317B08031D17
:10167200442B7A08031D442B7908031D442B963012
:101682007802031C532BA8311C208A3173084501B0
:10169200E3007208E2007108E1007008E000AA317C
:1016A20032228A3144013B08FB003A08FA00390829
:1016B200F9003808F800A831B1208A317B08031DEF
:1016C2006B2B7A08031D6B2BB83078020B30793BF9
:1016D200031C792BA8311C208A317308BB007208C5
:1016E200BA007108B9007008B800AD31B7258A3167
:1016F20044015B0803199B2B45015B08FB005A0858
:10170200FA005908F9005808F800A831B1208A31C6
:101712007B08031D962B7A08031D962B7908031D5F
:10172200962B1E307802031C9B2B4401DB014001E7
:101732009715171643016C080319BB2BA8311C20FF
:101742008A314501540870024301D700450155080A
:10175200713B4301D80045015608723B4301D90051
:1017620045015708733B4301DA00DA1BBB2BA83152
:1017720044208A3145015F08FB005E08FA005D08DB
:10178200F9005C08F800A831B1208A317B08031DFA
:10179200D32B7A08031DD32B303078027530793B76
:1017A200031CE22BA8311C208A3173084501DF009B
:1017B2007208DE007108DD007008DC00B7313127E5
:1017C2008A31A03101208A31003A0319302C4501B7
:1017D2002C080319302C44013308FB003208FA00AC
:1017E2003108F9003008F800A831B1208A317808B0
:1017F2004301D7007908D8007A08D9007B08DA00BB
:1018020045012C084301DB00DC01DD01DE015E083D
:10181200F3005D08F2005C08F1005B08F0000030A4
:10182200F7000030F600EA30F5006030F400AB312A
:10183200D1238A31730843015A02031D2A2C7208EC
:101842005902031D2A2C71085802031D2A2C700804
:101852005702031C302C0030AD31F5258A31450189
:101862002D080319762C44013308FB003208FA00D4
:101872003108F9003008F800A831B1208A3178081F
:101882004301D7007908D8007A08D9007B08DA002A
:1018920045012D084301DB00DC01DD01DE015E08AC
:1018A200F3005D08F2005C08F1005B08F000003014
:1018B200F7000030F600EA30F5006030F400AB319A
:1018C200D1238A31730843015A02031D722C720814
:1018D2005902031D722C71085802031D722C7008E4
:1018E2005702031C762C0330EB0043016B080319EB
:1018F200D72C03306B020318A42CA8316D208A3137
:10190200AA31F5228A3143016B03031D8F2C0B3060
:101912004001AF004C30B000FB30952C113040013B
:10192200AF008D30B000FB30B1000930A531422547
:101932008A31A83109208A31DC30F0000530F1000B
:10194200B731DA278A314301EB01AF31BB278A3144
:10195200A93170218A31A8311C208A3173084501CE
:10196200DF007208DE007108DD007008DC005F082D
:10197200E3005E08E2005D08E1005C08E000630845
:101982004401B700450162084401B60045016108FF
:101992004401B500450160084401B4003708BB00AA
:1019A2003608BA003508B9003408B8009C31392429
:1019B2008A31B52A0130B7000030B8000030B900D2
:1019C2000030BA003508BB003608BC00BD01BE01BC
:1019D2002F08BF003008C000C101C2013F08BB0789
:1019E2004008BC3D4108BD3D4208BE3D3B08B7072B
:1019F2003C08B83D3D08B93D3E08BA3D0130BA3613
:101A0200B90CB80CB70C890B002D2D0886002E08D6
:101A120087003708C03F3808C13F0130B7000030A7
:101A2200B8000030B9000030BA003308BB003408F7
:101A3200BC00BD01BE013108BF003208C000C101B7
:101A4200C2013F08BB074008BC3D4108BD3D4208FA
:101A5200BE3D3B08B7073C08B83D3D08B93D3E08CE
:101A6200BA3D0130BA36B90CB80CB70C890B332D1C
:101A72002D088600870142313708C03F3808C13F30
:101A82002D0886002E088700403FB700413FB8006E
:101A92003708F0003808F100F201F301450133087C
:101AA2004001B900BA01BB01BC013C08F7003B0888
:101AB200F6003A08F5003908F400AB31D1238C3135
:101AC20073084001D3007208D2007108D100700877
:101AD200D0002D0886002E088700403FB700413F06
:101AE200B8003708F4003808F500F601F7012D08B0
:101AF20086002E088700403FB900413FBA003908EE
:101B0200F0003A08F100F201F301AB31D1238C313C
:101B120070084001BB007108BC007208BD00730868
:101B2200BE000630BE36BD0CBC0CBB0C890B932D1F
:101B32003E08D7003D08D6003C08D5003B08D4003B
:101B42005308F3005208F2005108F1005008F00067
:101B52000030F7000030F6000030F5001930F400D4
:101B6200AB31D1238C3170084001B7007108B80045
:101B72007208B9007308BA000130BA36B90CB80C51
:101B8200B70C890BBE2D0030A3000030A20000303C
:101B9200A1006430A0005708F3005608F20055086F
:101BA200F1005408F00045013408643EF4000030AE
:101BB20003180130F500F601F51BF6037608F7006D
:101BC200AB31D1238C3173084001A7007208A60003
:101BD2007108A5007008A400883101208C3120080A
:101BE200B7072108B83D2208B93D2308BA3D2D08A0
:101BF2008600870144313708C03F3808C13F3908A1
:101C0200C23F3A08C33F2D08860087014231403F58
:101C1200B700413FB8003708F0003808F100F20180
:101C2200F301450133084001B900BA01BB01BC010F
:101C32003C08F7003B08F6003A08F5003908F400C2
:101C4200AB31D1238C3173084001D3007208D2002A
:101C52007108D1007008D0002D088600870142313A
:101C6200403FB700413FB8003708F4003808F5009C
:101C7200F601F7012D08860087014231403FB90085
:101C8200413FBA003908F0003A08F100F201F301CD
:101C9200AB31D1238C3170084001BB007108BC000C
:101CA2007208BD007308BE000630BE36BD0CBC0C07
:101CB200BB0C890B562E3E08D7003D08D6003C08C7
:101CC200D5003B08D4005308F3005208F200510833
:101CD200F1005008F0000030F7000030F60000304C
:101CE200F5001930F400AB31D1238C31700840017A
:101CF200B7007108B8007208B9007308BA00013061
:101D0200BA36B90CB80CB70C890B812E0030A3007F
:101D12000030A2000030A1006430A0005708F30098
:101D22005608F2005508F1005408F0004501340845
:101D3200643EF400003003180130F500F601F51B93
:101D4200F6037608F700AB31D1238C3173084001DA
:101D5200A7007208A6007108A5007008A4008831C7
:101D620001208C312008B7072108B83D2208B93D6F
:101D72002308BA3D2D088600870148313708C03F45
:101D82003808C13F3908C23F3A08C33F2D088600D0
:101D920087014431403FF000413FF100423FF200F1
:101DA200433FF3002D08860087014831403FF4008D
:101DB200413FF500423FF600433FF700A331602365
:101DC2008C312D08860087014C317008C03F7108A4
:101DD200C13F7208C23F7308C33FCD013008F10012
:101DE2002F08F0003608F3003508F2001830F4002E
:101DF2000030F500AE3172268C31003A0319152FEE
:101E02003208F1003108F0003408F3003308F20020
:101E12001830F4000030F500AE3172268C31003AF1
:101E22000319152F0130CD002D088600870150318E
:101E32004D08810030083602031D212F2F0835027C
:101E4200031C562F35083604031D2A2FC501C6016F
:101E5200522F3508A0003608A100A201A3012F08C5
:101E62003502B7003008363BB8003708B9003808E9
:101E7200BA00BB01BC010830B935BA0DBB0DBC0DAF
:101E8200890B3D2F3C08A7003B08A6003A08A50095
:101E92003908A400883101208C312108C6002008AD
:101EA200C5004608C40045087D2F2F08A000300851
:101EB200A100A201A30135082F02B7003608303B6A
:101EC200B8003708B9003808BA00BB01BC010830B5
:101ED200B935BA0DBB0DBC0D890B692F3C08A700A3
:101EE2003B08A6003A08A5003908A4008831012061
:101EF2008C312108C4002008C30032083402031DBB
:101F0200842F31083302031CB92F33083404031D14
:101F12008D2FC901CA01B52F3308A0003408A100D2
:101F2200A201A30131083302B7003208343BB800E2
:101F32003708B9003808BA00BB01BC010830B9350E
:101F4200BA0DBB0DBC0D890BA02F3C08A7003B08A6
:101F5200A6003A08A5003908A400883101208C3176
:101F62002108CA002008C9004A08C8004908E02F11
:101F72003108A0003208A100A201A30133083102F6
:101F8200B7003408323BB8003708B9003808BA0045
:101F9200BB01BC010830B935BA0DBB0DBC0D890BB4
:101FA200CC2F3C08A7003B08A6003A08A500390838
:101FB200A400883101208C312108C8002008C70004
:101FC20043084707CE004408483DCF0001304F0286
:101FD200003003194E020318F52F4E08B700B8015E
:101FE2003708CB003808F82FFF30CB000030CC0088
:0E1FF2002D088600870151314B088100080040
:102002004708BF004608BE004908C1004808C00092
:10201200AC319A249031A83109209031400149080D
:10202200F1004808F000B731DA279031A831442096
:102032000800B200BA013A08AA31A2229031003057
:102042004001B7000030B6000030B5000030B400E7
:10205200B3017C08330203186028320841019E0054
:102062003530890B32280000410113141318372828
:102072000D084001B90041010C084001B8000330CD
:102082003902E93003193802031C4B2802303A06A0
:10209200031D602803303902FF3003193802031C84
:1020A200552801304401D10040013808B4073908ED
:1020B200B53D0030B63DB73D0130B3072A2833089D
:1020C2007C060319AA280130BA071C280330B4354C
:1020D200B50DB60DB70D890B6828B2280430B4359A
:1020E200B50DB60DB70D890B7028B22843016D08E6
:1020F200F0006E08F100F201F30140013708F70029
:102102003608F6003508F5003408F400AB31D12367
:10211200903170084001AD007108AE007208AF0046
:102122007308B0000A30B036AF0CAE0CAD0C890BA0
:1021320094280330AD35AE0DAF0DB00D890B9B2841
:102142003008B7002F08B6002E08B5002D08B400DD
:10215200B2283A08003A03196728013A03196F288E
:1021620077287C08AD00AE01AF01B0013008A300B2
:102172002F08A2002E08A1002D08A0007C08B100A3
:102182000130B136890BC22831083407A400350862
:102192000318350F0310A50036080318360F031075
:1021A200A60037080318370AA70088310120210842
:1021B200FD002008FC0008004001A401A20100303B
:1021C20043016302C9300319620203180800440183
:1021D2003C0803193D08031908004001A501A601A6
:1021E2004301640840012502031830290330F0003E
:1021F2002508B731782790313F3E860003308700AB
:102202000108031D12290330F00040012508B731EF
:1022120078279031403E8600033087000108031979
:102222002C2901304001A607260303192529250878
:10223200A03E8600023087000108F9002408F90256
:102242008030790203182C292508A03E860002302E
:1022520087000108A40001304001A507F128A6016A
:102262004301640840012602031873290330F00079
:102272002608B73178279031413E86000330870027
:10228200010844013E06031D6F293C08F300033098
:10229200F00040012608B731782790313F3E860092
:1022A200033087000108A931EF219031003A031968
:1022B2006F2944013D08F3000330F0004001260875
:1022C200B73178279031403E8600033087000108FD
:1022D200A931EF219031003A031D732901304001E9
:1022E200A60731294001260843016406031DA029DF
:1022F2004001A6019A290330F0002608B731782759
:1023020090313F3E8600033087000108031D972964
:102312000330F00040012608B73178279031403E63
:1023220086000330870001080319A029013040010B
:10233200A6074301640840012602031C7C294001D0
:10234200260843016406031DC6290C3064020318E3
:10235200AD290130E407C6294001A501A6012508DF
:10236200A03E86000230870001082402A300220852
:102372002302031CC0292308A2002508A60001305D
:10238200A5070C302502031CB0290330F0004001E0
:102392002608B731782790313F3E86000330870008
:1023A20044013C08C03F3D08C13F3E08C23F4301D3
:1023B20062089C3EF900FF30633DFA0001307A0268
:1023C2000030031979020318EF2962089C3E40018C
:1023D200A000FF304301633D4001F329FF3040017B
:1023E200A0000030A1002608333E8600033087009B
:1023F200200881002608A03E8600023087002408BB
:10240200013E81000130F9000030FA00260A0B2A51
:10241200F935FA0D890B092A79084401C5047A08AD
:10242200C6040800B9006330C0002B2B3608031D18
:10243200252A4008B0000330B100F330B200FB306F
:10244200B300A831992008004008AB000330AC006B
:102452003608B700B8013708AD003808AE00AF0142
:10246200B731C82792312C08B1002B08B0000E30CA
:10247200B200FC30B300A831992008004008AB003C
:102482000330AC003608B700B8013708AD00380891
:10249200AE00AF01B731C82792312C08B1002B082A
:1024A200B0002A30B200FC30B300A83199200800F5
:1024B2004008AB000330AC003608B700B80137085B
:1024C200AD003808AE00AF01AF0AB731C82792316C
:1024D2002C08B1002B08B0003C30B200FC30B30035
:1024E200A831992008004008AB000330AC00360840
:1024F200B700B8013708AD003808AE00AF01B731F8
:10250200C82792312C08B1002B08B0003C30B20031
:10251200FC30B300A831992008004008AB0003301A
:10252200AC003608F63EAD00FF3003180030AE00B6
:10253200AF01AF0AB731C82708003608031DA52A24
:102542005230BA00FB30A82A3930BA00FC30BB0046
:102552004008B0000330B1003B08B3003A08B200B3
:10256200A831992008004008AB000330AC003608BF
:10257200B700B8013708AD003808AE00AF01AF0AA6
:10258200B731C82708004008AB000330AC0036085A
:10259200643EAD00003003180130AE000230AF00DF
:1025A200B731C82708004008AB000330AC0036083A
:1025B200B700B8013708F0003808F1000A30F2001D
:1025C2000030F300A831C920923171084001AE00F9
:1025D2007008AD00AF01B731C82792312C08B100A5
:1025E2002B08B0002A30B200FC30B300A831992089
:1025F20008003608031DC42A4008B0000330B100A9
:102602000930B200FC30B300A8319920080036032B
:1026120003191C2B033036060319132BD230BE00CC
:10262200FB30162B6030BE00FB30BF003F08BD0000
:102632003E08BC00202BE730BC00FB30BD00400848
:10264200B0000330B1003D08B3003C08B200A8312D
:10265200992008003908D13E8400FA300318013E5F
:1026620085000008003A0319172A013A03193F2A84
:10267200033A0319592A013A0319742A073A03192A
:102682008E2A013A03199E2A033A0319B42A013AFF
:102692000319C42A0F3A0319D42A013A0319FA2A50
:1026A200082B0800440167084301D300440168086D
:1026B2004301D400440169084301D500A8316D20CB
:1026C20093314001971119114301EC014001AF010F
:1026D2004230B000FB30B1001230A53142259331B7
:1026E200AF013D30B000FB30B1001230A5314225C0
:1026F2009331FF304401EA00FF30EB00A83109209A
:10270200933144016208031D892B6308031D8D2B3D
:102712004301CB01CC01952B6308643E4301CB00FE
:10272200003003180130CC0067304101E50002306F
:10273200E60043014C084101E80043014B08410116
:10274200E7008031972093314301D60056080319E0
:10275200CD2B033056060319CD2B440167084301E4
:102762005306031DCD2B4401680843015406031D83
:10277200CD2B4401690843015506031DCD2B560399
:102782000319372C4401470848040319372C480819
:10279200CA004708C900372C56080319DD2B03303D
:1027A20056060319DD2B44016708031DDD2B68085B
:1027B200031969080319DF2B4401E2016208031DB2
:1027C200242C43015608031DED2B44016708031D09
:1027D200F12B6808031DF12B4301CD01CE01212C01
:1027E200430162089C3EC900FF30633DCA000130CC
:1027F2004A020030031949020318162C0030630202
:1028020066300319620203180B2C0130D10000302C
:10281200D200112C62089C3ED100FF30633DD200F1
:102822005208D0005108CF001A2CFF30CF000030E0
:10283200D0004F08C900CA014908CD004A08CE009D
:102842004D084401E300430163084401CA00430107
:1028520062084401C900430163084401C8004301FE
:1028620062084401C700B73153279331AB311F23AC
:102872009331FF304401EA00FF30EB004808400189
:10288200BF00440147084001BE00AD317C259331B1
:1028920043015603031D522C84304001BE00FB301D
:1028A200702C03305606031D5B2C7B304001BE00AA
:1028B200FB30702C02305606031D682C1D3040017F
:1028C200BE00FC30BF00E830C0000330742C04307E
:1028D2005606031D782C72304001BE00FB30BF004B
:1028E200D030C0000730C100AC319A249331B731E7
:1028F200312793314001191597154401DA01A831A6
:102902001C2073084501D3007208D2007108D1005F
:102912007008D00053084401B30045015208440135
:10292200B200450151084401B1004501500844017B
:10293200B00008005E084001E90041015D08400165
:10294200E800410160084001EB0041015F084001DD
:10295200EA009D31B62594314201AA002A080319E2
:10296200B42C2A080800A9012908031DBF2C410123
:102972005D0886005E0887004131C42C41015D0874
:1029820086005E0887000108E100E2016108420159
:10299200A000410162084201A1002008A6004401F2
:1029A2004B08031DE72C420126084101E1000230D9
:1029B200E136890BD92C6108E200E3016208420189
:1029C200A200410163084201A300EC2C0130420144
:1029D200A2000030A3002208A6000230260203183B
:1029E200F72C0130A4000030A500022D2608410179
:1029F200E100E20161084201A400410162084201D2
:102A0200A5002408A7000130A80041015D08860046
:102A12005E088700403F4201B000413FB100423FA3
:102A2200B20029080319242D2708F0002808B7311D
:102A320078279431F30042013008A9311A219431E8
:102A42004201B000322D2708F0002808B73178275C
:102A52009431F30042013108A9311A219431420123
:102A6200B10041015D0886005E088700010842014D
:102A72003006031D472D41015D0886005E08870070
:102A820041314201310801060319A22D31084001EA
:102A9200E300420132084001E4002030E5002B301F
:102AA200E6000130E70042013008883151209431BC
:102AB2004201AA002A08031DB22C30304001E8006E
:102AC2000130E9002B30EA000130EB004201290815
:102AD2004001EC009E31D12694314201AA002A081D
:102AE200031DB22C2B304001A0000130A100410196
:102AF20060084001A30041015F084001A2009A3131
:102B020043229431003A0319A22D41015D08860047
:102B12005E08870042013008C03F3108C13F3208D9
:102B2200C23F2B3086000130870041015F088400DC
:102B3200600885000530E10016001A00E10B9D2DAA
:102B42009B2CFE304201A8072808803A813E0318D8
:102B5200062D02302702031CB82D27084101E1008F
:102B62000130E136890BB22D61084201032D01309B
:102B7200A90702302902031CB52C41015D08860019
:102B82005E088700403F4201B000413FB100423F32
:102B9200B2000130B20631084001E30042013208BE
:102BA2004001E4002030E5002B30E6000130E70070
:102BB200420130088831512094314201AA002A088A
:102BC200031DB22C41015F08860060088700403F68
:102BD200E100413FE200423FE300433FE4000130B5
:102BE200E135E20DE30DE40D890BF12D640842019C
:102BF2002E02031D0C2E4101630842012D02031D0A
:102C02000C2E4101620842012C02031D0C2E4101CF
:102C1200610842012B020318322E30304001E800D5
:102C22000130E9002B30EA000130EB009D31B6257E
:102C320094314201AA002A08031DB22C2B30400114
:102C4200A0000130A100410160084001A300410140
:102C52005F084001A2009A3143229431003A031DD9
:102C6200862D00300800A8311C20963173084101DE
:102C7200A5007208A4007108A3007008A200AB307E
:102C82004001D8000030D9000430DA00A03192208F
:102C9200963141013D0803195E2E43016C08031D64
:102CA2005E2E72304001BE00FB30BF00D030C0004B
:102CB2000730C100AC319A249631AB308600003027
:102CC20087004431403F4001AD00413FAE00423FEA
:102CD200AF00433FB000A831E42096312E084101F5
:102CE200A10040012D084101A00020082104031980
:102CF2007D2EA8316D20963146012708410132020E
:102D0200031D932E4601260841013102031D932E15
:102D12004601250841013002031D932E4601240875
:102D220041012F020318D72E450135084001E30067
:102D3200E401E501E6016608F3006508F2006408B3
:102D4200F1006308F0000030F7000030F6000030B8
:102D5200F5000A30F400AB31D123963145014C081D
:102D6200410122024001E70045014D084101233B98
:102D72004001E80045014E084101243B4001E900C1
:102D820045014F084101253B4001EA0073086A02F0
:102D9200031DD52E72086902031DD52E7108680223
:102DA200031DD52E70086702031CF62EAB30860079
:102DB200003087002030840003308500133040014A
:102DC200E30016001A00E30BE22E4101250845013B
:102DD200CF00410124084501CE00410123084501ED
:102DE200CD00410122084501CC00AB308600003005
:102DF20087004C31403F4001AD00413FAE00423FB1
:102E0200AF00433FB000A731032796312E0841019E
:102E1200AA0040012D084101A90045012F084001E7
:102E2200E300E401E501E6016608F3006508F2004B
:102E32006408F1006308F0000030F7000130F6008A
:102E42008630F500A030F400AB31D12396317308FF
:102E520041013202031D372F72083102031D372F41
:102E620071083002031D372F70082F02031C3B2FFD
:102E720001303C2F0030A80028080319472F2A08E8
:102E82004401C800410129084401C7004501310835
:102E9200F63EF000FF3003180030F1000A30F20075
:102EA2000030F300A831C920963171084101A70012
:102EB2007008A600450132080319FD2F440162087B
:102EC200031DFD2F410128080319FD2F450130087C
:102ED2004001E300E401E501E6016608F30065084C
:102EE200F2006408F1006308F0000030F7000F30D0
:102EF200F6004230F5004030F400AB31D123963178
:102F020070084001E7007108E8007208E9007308E0
:102F1200EA00AB30F0000030F100A3310623963115
:102F2200730840016A02031DA02F72086902031D83
:102F3200A02F71086802031DA02F70086702031CEE
:102F4200FD2F41013B080319FD2F00302A02793081
:102F520003192902031CFD2F45015308FB005208E7
:102F6200FA005108F9005008F800A831B120963152
:102F72007B08031DC52F7A08031DC52FB8307802C0
:102F82000B30793B031CFD2F410126084401490700
:102F92004001E3004101270844014A3D4001E400A9
:102FA20041012A0840016402031DDB2F4101290867
:102FB20040016302031CF32F410126082907400147
:102FC200E300410127082A3D4001E40044014A0888
:102FD20040016402031DF12F4401490840016302CC
:102FE2000318FD2F01304401DA0704305A02031C92
:102FF20008000130D90008004401DA010800D000BD
:10300200AA31F52298310C3040015002031852289F
:103012004430AB000030AC005008013EAD0000303F
:1030220003180130AE00AF01B731C82798312C0820
:10303200B1002B08B0002630B200FC30B300A8313A
:1030420099209831AC014430AD000030AE00003020
:10305200A031DC209831AC015008C100C201C13559
:10306200C20D9430410784007930423D803885009A
:10307200003FAD00013FAE000130A031DC209831AD
:103082005008AC3E8600023087000108B6005008A6
:10309200923113229831AF016330B0000330B10096
:1030A2007928AC01B830AD00FA30AE000030A03162
:1030B200DC2098310C305006031970280D30500670
:1030C200031967281330CE00FC306A281930CE006D
:1030D200FB30CF004F08CD004E08CC0074280430DE
:1030E200CC00FC30CD00AF014D08B1004C08B0005F
:1030F2001230A53142259831A831092008000B3041
:103102002E02B83003192D0203188B28B830AD00F7
:103112000B30AE0010302E02693003192D02031C51
:1031220096286830AD001030AE000030A3000030A9
:10313200A2000430A100B030A0002D08483EF000EB
:10314200F4302E3DF100F201F3010030F7000030BF
:10315200F6000030F5001A30F400AB31D12398317B
:1031620073084001A7007208A6007108A500700844
:10317200A4008831012098312008B0007330B200D9
:10318200B301B101B4013308AF000330AF35890B8D
:10319200C7282F083407F0003008F1003208A131A7
:1031A20071219831003A0319E02801304001AF0043
:1031B200340ADC28AF35890BDB282F08B104013033
:1031C2004001B40708303402031CC4283308AF009E
:1031D2000330AF35890BEA282F08F3003108F400D9
:1031E2000830F50032088731162798310130400146
:1031F200B30704303302031CC2280130B2077E3009
:10320200320203180800C1280030A3000030A200D7
:103212000030A1000030A0004030A7000030A6001E
:103222000030A5000030A40027087302031D2329E3
:1032320026087202031D232925087102031D232972
:1032420024087002031893290230A736A60CA50C95
:10325200A40C890B2629152920082407F40021082B
:10326200253DF5002208263DF6002308273DF700FC
:1032720077087302031D472976087202031D472946
:1032820075087102031D472974087002031C852901
:1032920020082407F4002108253DF5002208263DD8
:1032A200F6002308273DF7007408F0027508F13B89
:1032B2007608F23B7708F33B2408F4002508F50072
:1032C2002608F6002708F7002008F8002108F90070
:1032D2002208FA002308FB000130FB36FA0CF90C35
:1032E200F80C890B6E297808F4077908F53D7A08FD
:1032F200F63D7B08F73D7708A3007608A200750823
:10330200A1007408A0008C290130A336A20CA10CE4
:10331200A00C890B86290230A736A60CA50CA40C9A
:10332200890B8D292708260425042404031D2D2931
:103332002108F1002008F00008007508860001301D
:103342008700023001020318AE2975088600013099
:1033520087000108810AFA000D2A740886000130EC
:103362008700403F4001A000413FA100423FA20030
:10337200433FA3007408053E860001308700403FAA
:10338200A400413FA500423FA600433FA7002308F7
:103392002702031DD62922082602031DD629210849
:1033A2002502031DD62920082402031CDA29013034
:1033B200DB290030FA000530F0007A08B7317827AF
:1033C200993174074001A00020088600013087006F
:1033D200403FA100413FA200423FA300433FA4005F
:1033E2007808860079088700403FA500413FA60083
:1033F200423FA700433FA80024082802031D0B2ACE
:1034020023082702031D0B2A22082602031D0B2A6A
:10341200210825020318080076088600770887002D
:10342200403F4001A000413FA100423FA2000330C3
:10343200F0007A08B7317827993173074001A30069
:1034420023088600013087002008C03F2108C13FC1
:103452002208C23F78088600790887000530F0000C
:103462007A08B7317827993174074001A000200803
:103472008400013085000530A10016001A00A10B5E
:103482003E2A0800FF30A400FF30A500FF30A6004E
:103492001F30A70022088600230887004431200835
:1034A200840021088500043100080107A800A90151
:1034B200A90D290DA90CA80C290DA90CA80C2808E6
:1034C200AA002908AB000030AB1BFF30AC00AD00F6
:1034D2002A08A4052B08A5052C08A6052D08A70572
:1034E20001302407B4000030253DB5000030263DF0
:1034F200B6000030273DB700220886002308870067
:10350200403FA400413FA500423FA600433FA70021
:103512004030A8000030A9000030AA000030AB0003
:103522002008860021088700403FAC00413FAD00E3
:10353200423FAE00433FAF002208860023088700C7
:10354200403FB000413FB100423FB200433FB300B1
:103552000830B336B20CB10CB00C890BAA2A33086E
:10356200F3003208F2003108F1003008F0003708A9
:10357200F7003608F6003508F5003408F400AB31E0
:10358200D1239A3170084001AC077108AD3D720831
:10359200AE3D7308AF3D2C08A8072D08A93D2E08A3
:1035A200AA3D2F08AB3D27082B02031DE22A26085D
:1035B2002A02031DE22A25082902031DE22A240801
:1035C20028020318E62A01300800003008004301EF
:1035D20068080319F12A6808F400E8017408080071
:1035E2008B1340016F08F10044015808F300D80121
:1035F20043016A08F00044015708F200D7018B1713
:10360200F40173080319252B43016908031D0F2BCD
:10361200FA307302031C0F2B0330202B6908031DA1
:10362200182B19307302031C182B0230202B690847
:10363200031D212B03307302031C212B0130F400E4
:103642004401D6014301E90119307102031C372BF1
:1036520043016908031D372B0130E900740803197F
:10366200352B0230E800372B0230F400FA307102B9
:10367200031C4A2B44015608031D4A2B0130D60075
:1036820074080319482B03304301E8004A2B033026
:10369200F40072080319632B02307202031C612BBF
:1036A2000A3072020318612B43016808031D612B63
:1036B200740803195F2B0430E800612B0430F40016
:1036C2004401D50114307002031C7D2B44015508BE
:1036D200031D7D2B40010F1D7D2B01304401D500C0
:1036E2007408031D772B0530F4007D2B4301680815
:1036F200031D7D2B0530E8007108031D872B73081D
:10370200031D872B4401D6014301E9017008031D03
:10371200EF2A7208031DEF2A4401D501EF2ADA01CC
:10372200A8311C209B3173084001D8007208D700D1
:103732007108D6007008D500AA31F5229B312230DB
:103742004001AF00ED30B000FB30B1000030A531D8
:1037520042259B31A83109209B3140018D1AB32BA0
:103762006400AE2BB731A6279B3140015A0898312D
:1037720000209B3164009A31E8229B314001D9003C
:103782005908031DE12BA8311C209B31400155082B
:103792007002D1005608713BD2005708723BD30029
:1037A2005808733BD4005408031D362C5308031DDC
:1037B200362C60305102EA30523B0318362CBB2BB8
:1037C200A8311C209B3173084001D8007208D70031
:1037D2007108D6007008D50002305906031D0E2C60
:1037E2000F30F0000030F1005A08013EF2000030C4
:1037F20003180130F300AF3134279B317008DA002F
:103802005A08983100209B3140018D1A0A2C64001D
:10381200052CB731A6279B31BB2B5903031DBB2BAC
:103822000C305A020318272C5A08AC3E860002308C
:1038320087005A08AC3E8400023085000008F00080
:103842005A08AD3142259B318100B72B0C305A0604
:10385200031D2E2CAE3133269B310D3040015A060A
:10386200031D362CA83100209B31A531AC25080060
:10387200430167080319080066080319D42C4401A0
:1038820052080319BD2CD0304001B0000730B100FE
:103892000030B2000030B30044015208FF3E890AF2
:1038A2004001572CB035B10DB20DB30D890B532C1D
:1038B200A8311C209C314501480870024001B40027
:1038C20045014908713B4001B50045014A08723B78
:1038D2004001B60045014B08733B4001B700330875
:1038E2003702031D7E2C32083602031D7E2C31085E
:1038F2003502031D7E2C300834020318BD2CA8317A
:103902001C209C314501440870024001B000450171
:103912004508713B4001B10045014608723B400138
:10392200B20045014708733B4001B3003308031D51
:10393200A32C3208031DA32CE83030020330313BA4
:10394200031C0800A8311C209C3173084501C700E4
:103952007208C6007108C5007008C400B731B627E6
:103962009C31003A031DB92C01304401D3000800F8
:1039720044015308031908004401D30106305202DE
:103982000318C52C0130D2070030AD31F5259C312A
:103992002C30F0000130F100B731DA279C310130D0
:1039A200AD31F52508004001B80143016508013E2B
:1039B2000339E5006508283E860002308700650865
:1039C2002C3E84000230850000080102031CED2C0D
:1039D2006508A4311D24080001304001B8070430F5
:1039E200380203180800D62CF80045012E08F7000B
:1039F2000E3043016E02D93003196D020318032DF4
:103A02000130F7077818082D400199170A2D400157
:103A12009913F8180F2D40011917112D4001191390
:103A22007819162D40019916182D40019912F8198E
:103A32001D2D400119161F2D40011912781A242D2F
:103A420040019817262D40019813F81A2B2D40019A
:103A520018172D2D40011813781B322D400198168E
:103A6200342D400198127318392D400196163B2DC2
:103A720040019612F318402D40019A14422D400144
:103A82009A107319472D40019617492D400196133C
:103A9200F3194E2D40011617502D40011613731ABB
:103AA200552D40011814572D40011810F31A5C2DA2
:103AB200400198145E2D40019810731B632D400144
:103AC2001815652D40011811740803196B2D40015A
:103AD2001A146D2D40011A1099157708F500F60198
:103AE2007508F0007608F100B731DA279C31400101
:103AF20099111A30890B7B2D003240011812770878
:103B0200F500F6017508F0007608F100B731DA2702
:103B12009C31400118167708F500F6017508F0008F
:103B22007608F100B731DA279C310F304001990550
:103B32001830980596129A10961316131A1005301B
:103B4200F0000030F100B731DA279C3178087F3974
:103B52004401E70073087F39E80074080319B32DA4
:103B62000130B42D0030E900080044014B08031D68
:103B7200D02D400168088600690887000108EC0022
:103B82000230EC36890BC22D6C08ED00EE016D0897
:103B92004101CC0040016E084101CD00D52D01301C
:103BA2004101CC000030CD004C08D30044014B0849
:103BB200031DF22D40016808860069088700413123
:103BC2000108EC000230EC36890BE42D6C08ED00A4
:103BD200EE016D084101CE0040016E084101CF00A7
:103BE200F72D01304101CE000030CF004E08D40045
:103BF2005308031DFE2D0130D3005408031D032E6C
:103C02000130D400D001D201400168088600690861
:103C12008700403F4101DA00413FDB00423FDC00C8
:103C22005308F00052089E3E8400FB300318013E08
:103C320085000008B73178279D31F30040016808FC
:103C42008600690887000108A9311A219D314101C6
:103C5200DA005408F0005208963E8400FB30031844
:103C6200013E85000008B73178279D31F3004001FD
:103C7200680886006908870041310108A9311A21C4
:103C82009D314101DB004001680886006908870018
:103C9200010841015A06031D592E40016808860099
:103CA20069088700413141015B08010603199F2E13
:103CB2005B084001E30041015C084001E400203060
:103CC200E500D530E6000030E70041015A088831AE
:103CD20051209D314101D10051080319722E510822
:103CE2000800D5304001A0000030A1006B08A300FD
:103CF2006A08A2009A3143229D31003A03199F2E8D
:103D0200680886006908870041015A08C03F5B08BD
:103D1200C13F5C08C23FD5308600003087004001B9
:103D22006A0884006B0885000530EC0016001A0052
:103D3200EC0B972E01304101D000052E01304101DC
:103D4200D20708305202031C052E5008031D032E11
:103D52005303031DB12E5403031DB12E003008007E
:103D62000230F0000030F1005308013EF200003052
:103D720003180130F300A131BD219D317008D30039
:103D82000230F0000030F1005408013EF200003031
:103D920003180130F300A131BD219D317008022EBC
:103DA20001304101CC000130CF004001680886009B
:103DB20069088700403F4101D500413FD600423F9C
:103DC200D70040016C080319F02E41014F08F3009F
:103DD2005608A9311A219E314101D600F92E41011E
:103DE2004F08F3005508A9311A219E314101D5002F
:103DF20040016808860069088700010841015506EC
:103E0200031D0E2F400168088600690887004131B2
:103E12004101560801060319362F56084001E300F6
:103E2200410157084001E4002030E500D030E600AF
:103E32000030E70041015508883151209E3141018F
:103E4200CD004D080319272F4D080800D03040013E
:103E5200A0000030A1006B08A3006A08A2009A31FA
:103E620043229E31003A031D3E2FFE304101CF070F
:103E72004F08803A813E0318D62E41014F08803AFE
:103E8200813E0318462F0030080040016808860072
:103E92006908870041015508C03F5608C13F5708CD
:103EA200C23FD03086000030870040016A0884009B
:103EB2006B0885000530ED0016001A00ED0B5D2F32
:103EC20002304101CE004E080319442F4001680818
:103ED200860069088700403F4101D500413FD60076
:103EE200423FD70040016C080319872F41014E0859
:103EF200F0004F08B73178279E31F3004101560890
:103F0200A9311A219E314101D600962F41014E0856
:103F1200F0004F08B73178279E31F3004101550870
:103F2200A9311A219E314101D5004001680886005D
:103F320069088700010841015506031DAB2F4001A6
:103F42006808860069088700413141015608010668
:103F52000319F52F56084001E300410157084001BB
:103F6200E4002030E500D030E6000030E7004101F7
:103F72005508883151209E314101CD004D08031D65
:103F8200252FD0304001A0000030A1006B08A30013
:103F92006A08A2009A3143229E31003A0319F52F92
:103FA200680886006908870041015508C03F560825
:103FB200C13F5708C23FD030860000308700400121
:103FC2006A0884006B0885000530ED0016001A00AF
:103FD200ED0BE72F41014C080319642F20304E02EC
:103FE2000318642F4E35632F4101CC014E08400166
:0E3FF200ED000130ED36890BFB2F6D08622FBC
:10400200430167080800F7007308F4000430F4362F
:10401200890B08280A307402031816280F3073051A
:10402200F4000A307402031C1F287708DD3E840066
:10403200FA300318013E8500000808000F307305AE
:10404200F4000A30F0007308F5000430F536890BED
:1040520027287508B7317827A0317407F60077084A
:10406200F53E8400FA300318013E8500000876020E
:10407200031C16287708E93E8400FA300318013E33
:1040820085000008F40076087402031C16287608DE
:104092000800AA31F522A0311D304001AF00D9300D
:1040A200B000FB30B1000030A5314225A0310D3007
:1040B200AC00FD30AD00F930AE000330A031DC20A1
:1040C200A031A8310920A03140019711D030F00071
:1040D2000730F100B731DA27A031AA31F522A03139
:1040E20011304001AF006930B000FB30B100003048
:1040F200A5314225A0310D30AC000F30AD00FA30B1
:10410200AE000330A031DC20A031A8310920A0315B
:10411200D030F0000730F100B731DA2740019715AF
:10412200080064004401D10140015A08FC00083033
:1041320090311A20A0317D08DC007C08DB005A088F
:10414200FC000A3090311A20A0317D08DE007C0884
:10415200DD005A08FC000A3090311A20A0317D0897
:10416200E0007C08DF005A08FC00083090311A2079
:10417200A0317D08E2007C08E1005908AE00580831
:10418200AD005C08B0005B08AF005E08B2005D08DD
:10419200B1006008B4005F08B3006208B6006108AD
:1041A200B5008C31DB245808860087015231440166
:1041B200510881000800B3002D0884002E088500F4
:1041C2001200031908002D0884002E08850000083B
:1041D200A931AF21A03177084001B2007608B100C1
:1041E200B60105303602031CF928B401B5010729CE
:1041F20036083107840032080318013E85000008A2
:10420200AF00B0012F08B4003008B5003308AF008A
:104212000330AF35890B0A292F08F3003408F40064
:104222000830F5002C08360787311627A0310130F7
:104232004001B60706303602031CF2280130AD07F2
:104242000030AE3D0630AC07DD2801304001A7004A
:10425200A931CF21A1314001A60147296030F300E5
:10426200F930F4001C30F5008731DE27A13140011E
:10427200A7002708031944296430F0000030F10038
:10428200B731DA27A13101304001A6070A302602F0
:1042920003184E292708031D2F292708031953291C
:1042A200270808000430A500A6012608FE3EF700F4
:1042B2002130F800FA30F9001030FA002508AE314A
:1042C200B226A131A7041030A60780302602031CB3
:1042D20056290130A507083025020318512955290E
:1042E200F6000230700203188329F5017630760257
:1042F200031C81297B307602031881290130F500E5
:104302007508080002307006031993291F307006E1
:104312000319932975307602031C93297C307602A7
:10432200031C952901300800753076060319A5296A
:104332007B3076060319A529033070060319A529D7
:104342001E307006031DA729003008000030F3005C
:1043520071081D3CF200031CF3037308803AF40059
:1043620080307402031DB729700872020318BB293A
:104372000130080000300800F501F11FC729F009DB
:10438200F109F00A0319F10A0130F500F31FD029EF
:10439200F209F309F20A0319F30A0130F506F601EC
:1043A200F701700871040319FD290130F400F11BB3
:1043B200E2290130F035F10D890BDB290130F407D8
:1043C200D8290130F635F70D890BE32971087302FC
:1043D200031DED2970087202031CF4297008F20211
:1043E2007108F33B76140130F136F00C890BF52994
:1043F2000130F402031DE22975080319052AF609A2
:10440200F709F60A0319F70A7708F1007608F000AF
:1044120008005008013E0F39D0000130CF074F0885
:104422004001A00044015C084001A1005C30F3009F
:104432000230F400A8318220A2314001A2004401DE
:1044420062084001A30044015F084001A4005F30FC
:10445200F3000230F400A8318220A2314001A5000D
:10446200440163084001A6002030F0000730F1004B
:10447200AB31A323A2314001A70044015008FB0045
:104482000330FB35890B422A7B08703E4001A800AD
:10449200A9012908203E860087010108F8002808A2
:1044A2002907AA315522A23101304001A90708305B
:1044B2002902031808004A2A44016D0840013F06F8
:1044C200031D672A44016C0840013E0603190800D7
:1044D2003F084401ED0040013E084401EC00003079
:1044E20040013F02643003193E0203188C2A3C301B
:1044F200AF003F08AC003E08AB00AD01AD0A03308F
:10450200AE00B7319627A231B0000230B1000030C0
:10451200A531422508000A30F0000030F1003E08C3
:10452200053EF20000303F3DF300AC310024A231E1
:104532007108C1007008C0003C30AF004108AC00F7
:104542004008AB00AD010330AE00B7319627A2316F
:10455200B0000230B1000030A53142250800400110
:10456200A601A7010030AA31A222A2314001A8016E
:10457200093041019E003530890BBD2A00004101FE
:1045820013141318C22A0D084001A50041010C089A
:104592004001A4002408A6072508A73D0130A8076A
:1045A20008302802031CB92A0430A0000030A10000
:1045B2000030A2000030A3002608F0002708F10016
:1045C200F201F3010030F7000030F6000030F50090
:1045D2000B30F400AB31D123A23170084001A007A7
:1045E2007108A13D7208A23D7308A33D0330A336B2
:1045F200A20CA10CA00C890BF82A21084301EE00A1
:10460200400120084301ED00080070088600870180
:104612004431403FF400413FF500423FF600433F42
:10462200F7007008860087014831403FF800413F9B
:10463200F900423FFA00433FFB0077087B02031D6B
:104642002C2B76087A02031D2C2B75087902031D88
:104652002C2B74087802031C372B0030F300003037
:10466200F2000030F1000030F0000800700886000F
:1046720087014831403FF400413FF500423FF600D8
:10468200433FF7007008860087014431403FF8003D
:10469200413FF900423FFA00433FFB007408F80231
:1046A2007508F93B7608FA3B7708FB3B7B08F30079
:1046B2007A08F2007908F1007808F000080000306A
:1046C200FB000030FA000030F9000030F8007308F7
:1046D20072047104700403197E2B73087702031DA0
:1046E2007C2B72087602031D7C2B71087502031D58
:1046F2007C2B70087402031C872B0130F3000030FE
:10470200F2000030F1000030F0000800FC0101303E
:10471200F435F50DF60DF70D890B892B0130F835BF
:10472200F90DFA0DFB0D890B902B73087702031D0F
:10473200A42B72087602031DA42B71087502031DB7
:10474200A42B70087402031CAF2B7008F4027108CA
:10475200F53B7208F63B7308F73B78140130FC070F
:1047620018307C02031C882B7B08F3007A08F200C5
:104772007908F1007808F000080041088600420834
:104782008700403F4401BC00413FBD00423FBE00A4
:104792000130400143020030443B0030453B0130D0
:1047A200463B0318E42B400146084501C300400183
:1047B20045084501C200400144084501C1004001CD
:1047C20043084501EC2B01304501C3000030C20013
:1047D2000030C1000030C00043084001B000450174
:1047E20042084001AF00450141084001AE004501C9
:1047F20040084001AD00A7310327A3312E08430131
:10480200E30040012D084301E20040014108860017
:104812004208870041310108F3004108860042083E
:10482200870042310108F4004108860042088700EF
:1048320001089C31F52408004001AF002F082C3EEE
:104842008600023087000108AE002F08283E86004D
:10485200023087000108AD002F082C3E860002308E
:104862008700FF3081002F08283E86000230870033
:1048720081012E082D02031C08002E08F7002F08C4
:10488200A500A6010730A535A60D890B442CF030F2
:10489200A7002C30A80025082707A9002608283DD4
:1048A200AA002E082907AB0000302A3DAC002B08D5
:1048B200F8002C08F9002E082D02013EFA002F08FC
:1048C200AE31B226A431003A0319782CA83158200F
:1048D200A43101304401D40705305402031C752C65
:1048E20001304301E6000800A931CF21080043014D
:1048F200E6014401D201D4010800A901A801AA01DC
:10490200AB012030F8002B08AB317623A431003AFA
:1049120003199D2C400129080319972C2008FD003A
:104922002808FD0280307D0203189D2C2008A80073
:104932002B08AA000130A90001304001AB0710305A
:104942002B02031C822C2908031DAD2C0F304401BD
:10495200D000CF01003008002030F8002A08AB3127
:104962007623A43140012A084401D00040012008E6
:104972004401CF005C30F3000230F4004001210812
:10498200F5002208F600A9315321A43123080319A6
:10499200CC2C0130CD2C00304401E2005F30F3001A
:1049A2000230F40040012408F5002508F600A93180
:1049B200532126084401E300013008004001CA00E7
:1049C2004A080319F42C44016208031DF42C6708F9
:1049D200DF006808E0006908E1000130E200F3014D
:1049E200F4010030022D40014A08031D0800440171
:1049F200620803190800E2016008F3006108F4008C
:104A02005F089C31F524A431B7315327A4316208E1
:104A1200031D222D6308031D122D4001C601C7018B
:104A22001A2D6308643E4001C600003003180130AD
:104A3200C70047084401CA00400146084401C900B2
:104A4200242DC901CA01AB311F23A43144016208DC
:104A5200031D302DF9304001C800FB30342DE03009
:104A62004001C800FB30C9004908BF004808BE0029
:104A72002030C0000330C100AC319A244401DA0175
:104A82000800BB00300884003108850012000319B9
:104A9200080030088400310885000008A931AF21E0
:104AA200A53177084001B6007608B500BD010A308D
:104AB2003D02031C5F2DB701B801732D3D08B20002
:104AC2000130B236890B622D320835078400360870
:104AD2000318013E85000008B300B4013308B70093
:104AE2003408B8003708BC003C080F39A9318F21BF
:104AF200A531B9003C08B2000430B236890B7E2DD4
:104B02003208A9318F21A531BA003B08F3003908D8
:104B1200F4000830F5002F083D0787311627A5312C
:104B220040013B08083EF3003A08F4000830F50063
:104B32002F083D0787311627A53101304001BD07F7
:104B42000C303D02031C582D0130B0070030B13D3E
:104B52000C30AF07432DAE31F326A5317708B300F1
:104B62007608B200A831FF20A5314001B401340813
:104B7200233E860087013408203EB7314727A531FE
:104B8200810001304001B4070F303402031CB82DFC
:104B92005E302306031D080033082406031D0800A7
:104BA20025083206031D08002F30B7314727A531EB
:104BB200FD002330F0000F30F100AB31A323A5310B
:104BC2007D06031D08004001B4013408033E233E64
:104BD200860087013408F53E8400FA300318013E4E
:104BE200850000080102031C142E3408033E233EF4
:104BF200860087013408E93E8400FA300318013E3A
:104C020085000008FD0001087D02031C142E3408F3
:104C1200AC3E8600023087003408033E233E840007
:104C22008501000881000130B4070C3034020318FA
:104C32000800E62DAB010130A0000030A1002B0AD4
:104C4200242EA035A10D890B222E440145084001D6
:104C52002005A2004401460840012105A3002208C4
:104C620023040319832E0330F0002B08B731782771
:104C7200A6313F3E86000330870001084001A400B0
:104C82000330F0002B08B7317827A6313F3EF300FE
:104C92000330F400A8318220A6314001A5002B0880
:104CA200333E8600033087000108A6002B08A03E91
:104CB2008600023087000108A7002430F00004308B
:104CC200F100AB31A323A6314001A8000530F0006A
:104CD2002B08B7317827A631303E4001A900AA013E
:104CE2002A08243E860087010108F80029082A07BD
:104CF200AA315522A63101304001AA0705302A0205
:104D0200031C712E0130AB070C302B02031C1C2E2E
:104D12004401C501C6010800AA0140012A08233E38
:104D2200860087010A30F0000030F1007A08F300B3
:104D32007908F200AA31CB22A6317008303E8100F8
:104D42000130AA070A30F0000030F1007A08F300BF
:104D52007908F200AC310024A6317108FA0070081B
:104D6200F9002A087B06031DBE2E2A08233E860070
:104D720087012E3081000130AA0779087A04031DC9
:104D82008E2E7B080319E42E7B08013EA000003022
:104D920003180130A1002108803AA20080302202CB
:104DA200031DD52E2A082002031CE42E8E2E77081E
:104DB200860078088700203081000130F707003034
:104DC200F83D0130FC027C0840012A020318FA2E49
:104DD200D82E77088600780887000130AA022A08B0
:104DE200233E84008501000881000130F70700306E
:104DF200F83D2A08031DEA2E770886007808870006
:104E0200810108003008F3002F08F2002E08F1009B
:104E12002D08F00099310521A7317108C0007008F2
:104E2200BF0010304002003003193F02031C1F2F45
:104E3200E7304001AD000330AE0008000030B100A1
:104E42001030B2003F083102A0004008323BA100FE
:104E5200A201A3010030B3001030B4003F083302B6
:104E6200B5004008343BB600B636B50C3508B7007D
:104E72003608B800B901BA013F08003EF000103010
:104E8200403DF100F201F3010030F7000030F6007E
:104E92000030F5006430F400AB31D123A731700843
:104EA2004001B7077108B83D7208B93D7308BA3DB1
:104EB2003A08A7003908A6003808A5003708A40058
:104EC20088310120A7312308BE002208BD00210835
:104ED200BC002008BB003E08031D192F3D08031D1E
:104EE200192FE8303B0203303C3B0318192F4001D5
:104EF2003C08AE003B08AD000800E4014401C501D6
:104F0200C6014001A7010530F0002708B731782714
:104F1200A731303E4001A000A6012608213E8600AE
:104F2200870120082607B7314727A73181000130C2
:104F32004001A60705302602031C8E2F0330F00025
:104F42002708B7317827A731413E86000330870012
:104F520081010330F00040012708B7317827A731DB
:104F6200403E86000330870081010330F00040019B
:104F72002708B7317827A7313F3E860003308700E4
:104F820081012130F0000430F100AB31A323A731BD
:104F920040012506031DF82F2108031DD42F2208E6
:104FA2007F390319F82F0330F0002708B73178272B
:104FB200A7313F3EF3000330F40040012108F50021
:104FC2002208F600A9315321A7312708333E860073
:104FD20003308700230881002708A03E86000230A4
:104FE2008700240881002708013E4301E4000130C4
:104FF2004001A7070C30270203180800842FFF3056
:10500200F8002030AA315522A831A831FF2008002B
:1050120043016708031908006608031D0800FC0124
:105022007C08A4311D24A8310130FC0704307C0225
:105032000318080011288B1344012708F7002608DB
:10504200F6002508F5002408F4008B177708F30012
:105052007608F2007508F1007408F00008004001BB
:10506200161596151A30890B342800324001161194
:105072001A30890B3A280032400196111A30890BF6
:105082004028003208004301EC014001AF014230E8
:10509200B000FB30B1001230A5314225A831AB314E
:1050A2001F23FF304401EA00FF30EB000800F0014B
:1050B20070082C3E86000230870081017008283E6D
:1050C2008600023087007F3081000130F007043013
:1050D2007002031808005928A8311C20A83173084F
:1050E200B3007208B2007108B1007008B000A031BC
:1050F2000120A831003A031D08000130AD31F52529
:105102000800730886007408870042310108031DF5
:105112008D28F501F60191288030F5000030F60067
:10512200730886007408870041310108750408007D
:105132003108870030088600B00A0319B10A330823
:10514200B5003208B400B20A0319B30A3408840065
:10515200350885000008C03F89080319080099280E
:10516200A8311C20780870024001A0007908713B28
:10517200A1007A08723BA2007B08733BA3002308BC
:10518200FB002208FA002108F9002008F8000800B4
:10519200F401F501701CD1287208F4077308F53D7B
:1051A2000130F235F30D890BD2280130F136F00CC3
:1051B200890BD72870087104031DCB287508F100EC
:1051C2007408F00008000030A3000130A20086300D
:1051D200A100A030A00050302D07A400C3302E3D06
:1051E200A50000302F3DA6000030303DA7008831D9
:1051F20001202108AE002008AD000800F80178085F
:10520200AC3E8600023087007808703E8400F7309A
:105212000318013E85000008F3007808A03104203D
:10522200A83181000130F8070C3078020318080019
:105232000029F50075087307F600F7010318F70A4D
:10524200F31BF703F71F2729003008007708803A7D
:10525200F40080307402031D302980307602031C72
:1052620034297F300800760808009A31E822A931F3
:10527200F600033076060319422904307606031D30
:1052820047297608B7313427013008000130F5008C
:105292007603031951290230760603195129F501C3
:1052A20075080800730886007408870075087F393E
:1052B20081007308860074088700413176087F39BF
:1052C2008100730886007408870042317608F7006F
:1052D2000730F736890B6A29770881000800013008
:1052E200AD31F525A931A0314A20A93164306F02D0
:1052F200031C7E299B319023A931AC31D124A931E1
:10530200B731A627A931A8311C207308B30072084F
:10531200B2007108B1007008B0000800F100F2019B
:10532200F3010130F000730A9729F035890B9629B1
:10533200700871050319A7290330F0007335890A33
:10534200A329F035890BA2297008F2040130F30772
:1053520004307302031C922972080800FC007C08C6
:10536200E03EFD0060307D020318FD017D08F8007B
:10537200F9017808F0007908F1000530F2000030F8
:10538200F300A831C9208030FA00F730FB00700822
:105392007A07F60071087B3DF700080040011615F8
:1053A20096151A30890BD3290032F001E829400101
:1053B2000C19EC2996111A30890BDD2900324001B3
:1053C20096151A30890BE32900320130F0070930B3
:1053D2007002031CD829B731ED270800F8007808BD
:1053E20073020318F92973087802F7007808FD2977
:1053F20078087302F7007308F5000130F6000330F5
:105402007702031C0E2A7508F4000330F436890B68
:10541200072A77087402031CF60176080800F200D6
:1054220072082C3E860002308700010870020318C1
:10543200212A72082C3E8600023087007008810003
:105442007208283E860002308700710801020318A4
:1054520008007208283E8600023087007108810029
:10546200080020308600033087004431403F40016D
:10547200AD00413FAE00423FAF00433FB000A83114
:10548200E420AA312E08BF002D08BE00A2315D2201
:10549200AA31440148084001BF00440147084001C5
:1054A200BE00AD317C250800FA007A08B7314727E3
:1054B200AA317806031908001E1770309B007A087B
:1054C2009A0078089C000B0D0B0D0139F9008B1323
:1054D2001E1555309F00AA309F009E14790C031CA4
:1054E2008B1303188B17762A640050019E18752AB5
:1054F2001E110800FC007008F200F3017C08F400A1
:10550200F5010730F435F50D890B832A7108F60091
:10551200F7010E30F635F70D890B8B2A74087604E5
:10552200F80075087704F90072087804FA00730825
:105532007904FB0000307A04F00080307B04F10033
:105542000800F200720844016E060319080072088E
:10555200EE0002307206031DB12A41019A01C62AE9
:1055620072080319B62A0230B72A0130F00000305F
:10557200F10052010C087006FC3970068C008C1781
:105582000C1FC12A033041019A00A0300032890B5E
:10559200C72A0800700871040319F02A0130F400C8
:1055A200F11BDB2A0130F035F10D890BD42A0130D1
:1055B200F407D12A71087302031DE12A70087202EE
:1055C200031CE72A7008F2027108F33B0130F1363E
:1055D200F00C890BE82A0130F402031DDB2A730860
:1055E200F1007208F0000800F701F8017708F100F5
:1055F200F2010730F135F20D890BFB2AF030F3008E
:105602002C30F40071087307F5007208743DF6003F
:105612007808750786000030763D870081010130E9
:10562200F80780307802031CF72A0130F7070430AC
:105632007702031CF62AA831582008004001AF0166
:105642004630B000FB30B1001230A5314225AB31FB
:1056520044016208031D322B7D304001BE00FA3046
:10566200362B2E304001BE00FC30BF00AF013F0898
:10567200B1003E08B0001230A5314225AB312A30CC
:10568200AF004130B000FC30B1001230A5314225EC
:1056920008004001C301450136080319732B7C0839
:1056A20086007D088700403F4001AD00413FAE00CB
:1056B200423FAF00433FB000A7310327AB31450162
:1056C2003608643E4001C100003003180130C200B8
:1056D2002E084202031D6F2B2D084102031C732B5F
:1056E2000130C300400143080800FA007A08F900BB
:1056F2000330F935890B7A2B7908703EFB00FC01E7
:1057020078087C07860087017B087C07B73147272A
:10571200AB3181000130FC0708307C02031C812B75
:105722007808073E840085017808F0000730F10010
:10573200AB31A323AB310006031DA12B01300800BE
:10574200003008005A30F7000130F102710A0319E3
:10575200CF2B7008860087010108F7060130F00799
:10576200F601F71BBB2B7708F200F3017235F40048
:10577200730DC52B7708F200F301F235F30D0730F4
:105782007206F40000307306F5007408F700013069
:10579200F607083076020318A52BB22B770808000B
:1057A2000030FB000030FA000030F9000030F80051
:1057B200701CE32B7408F8077508F93D7608FA3D6A
:1057C2007708FB3D0130F435F50DF60DF70D890B29
:1057D200E42B0130F336F20CF10CF00C890BEB2BBD
:1057E2007308720471047004031DD92B7B08F30043
:1057F2007A08F2007908F1007808F0000800F40154
:10580200F5017008710403192D2C0130F600F11B0B
:10581200122C0130F035F10D890B0B2C0130F607FB
:10582200082C0130F435F50D890B132C7108730225
:10583200031D1D2C70087202031C242C7008F20236
:105842007108F33B74140130F136F00C890B252CEE
:105852000130F602031D122C7508F1007408F000E5
:105862000800F000F201F01F392C400116153B2C04
:10587200400116111A30890B3C2C0032400196155A
:105882001A30890B422C0032400196110310F00DA0
:105892000130F20708307202031C342C16151A303C
:1058A200890B512C0032400196151A30890B572C66
:1058B200003240010C0C890C0139F10096111A30AA
:1058C200890B612C0032710808004001CA01CB012A
:1058D20050019318702C4001CA01CB01872C131878
:1058E200772C8D304001CA00FB30862C131A7E2C97
:1058F200AE304001CA00FB30862C931B822C131F52
:10590200872C56304001CA00FB30CB003F3050019B
:10591200930040014A084B04031908004B08C700D2
:105922004A08C600D030C8000730C90090310120B3
:105932000800AF014230B000FB30B1001230A53197
:105942004225AC31AF013F08B1003E08B000123031
:10595200A5314225AC3101304301EC004001400841
:10596200C2004108C300C401C501A8311C2070084F
:105972004001C2077108C33D7208C43D7308C53DAA
:1059820045084501D700400144084501D6004001C1
:1059920043084501D500400142084501D4000800F2
:1059A200AA31F522AC314001AF013230B000FC30F7
:1059B200B1000030A5314225AC312A30AF00413070
:1059C200B000FC30B1000030A5314225AC3160306E
:1059D200AF003D30B000FC30B1000030A5314225AF
:1059E200AC31AB311F23AC3143016E084001AE0034
:1059F20043016D084001AD0098318020FF30440121
:105A0200EA00FF30EB006B08ED006A08EC000800CA
:105A12007E01B8010730C300CE01D901E401530170
:105A2200901394134001960118309700103098009B
:105A3200063099009A019101273092009301940156
:105A420095017E013A15BA15DB145B151A304F0128
:105A52009600FE309700473098007F3099007730EB
:105A62009A00DF309B00453040019F009E01F930D3
:105A72009D009C014E018C12961640019E178B17B9
:105A82000800F4007408F100F201F135F20D7C30E7
:105A9200710784007930723D80388500003FF5003F
:105AA200013FF600F7017408C53E8400FA3003187E
:105AB200013E8500000877020318762D77087507E6
:105AC200840076080318013E85000008700203185E
:105AD200732D77087507840076080318013E850048
